{
  "address": "0x1c86829Db6cBB3a5FA614034C73A4371cD0C8f77",
  "abi": [
    {
      "inputs": [
        {
          "internalType": "address",
          "name": "_admin",
          "type": "address"
        },
        {
          "internalType": "address[]",
          "name": "_blockProducers",
          "type": "address[]"
        },
        {
          "internalType": "address[]",
          "name": "_collectors",
          "type": "address[]"
        }
      ],
      "stateMutability": "nonpayable",
      "type": "constructor"
    },
    {
      "anonymous": false,
      "inputs": [
        {
          "indexed": true,
          "internalType": "address",
          "name": "producer",
          "type": "address"
        }
      ],
      "name": "BlockProducerAdded",
      "type": "event"
    },
    {
      "anonymous": false,
      "inputs": [
        {
          "indexed": true,
          "internalType": "address",
          "name": "producer",
          "type": "address"
        }
      ],
      "name": "BlockProducerRemoved",
      "type": "event"
    },
    {
      "anonymous": false,
      "inputs": [
        {
          "indexed": true,
          "internalType": "address",
          "name": "producer",
          "type": "address"
        },
        {
          "indexed": true,
          "internalType": "address",
          "name": "collector",
          "type": "address"
        }
      ],
      "name": "BlockProducerRewardCollectorChanged",
      "type": "event"
    },
    {
      "anonymous": false,
      "inputs": [],
      "name": "RewardScheduleChanged",
      "type": "event"
    },
    {
      "anonymous": false,
      "inputs": [
        {
          "indexed": true,
          "internalType": "bytes32",
          "name": "role",
          "type": "bytes32"
        },
        {
          "indexed": true,
          "internalType": "bytes32",
          "name": "previousAdminRole",
          "type": "bytes32"
        },
        {
          "indexed": true,
          "internalType": "bytes32",
          "name": "newAdminRole",
          "type": "bytes32"
        }
      ],
      "name": "RoleAdminChanged",
      "type": "event"
    },
    {
      "anonymous": false,
      "inputs": [
        {
          "indexed": true,
          "internalType": "bytes32",
          "name": "role",
          "type": "bytes32"
        },
        {
          "indexed": true,
          "internalType": "address",
          "name": "account",
          "type": "address"
        },
        {
          "indexed": true,
          "internalType": "address",
          "name": "sender",
          "type": "address"
        }
      ],
      "name": "RoleGranted",
      "type": "event"
    },
    {
      "anonymous": false,
      "inputs": [
        {
          "indexed": true,
          "internalType": "bytes32",
          "name": "role",
          "type": "bytes32"
        },
        {
          "indexed": true,
          "internalType": "address",
          "name": "account",
          "type": "address"
        },
        {
          "indexed": true,
          "internalType": "address",
          "name": "sender",
          "type": "address"
        }
      ],
      "name": "RoleRevoked",
      "type": "event"
    },
    {
      "inputs": [],
      "name": "DEFAULT_ADMIN_ROLE",
      "outputs": [
        {
          "internalType": "bytes32",
          "name": "",
          "type": "bytes32"
        }
      ],
      "stateMutability": "view",
      "type": "function"
    },
    {
      "inputs": [],
      "name": "DELEGATOR_ROLE",
      "outputs": [
        {
          "internalType": "bytes32",
          "name": "",
          "type": "bytes32"
        }
      ],
      "stateMutability": "view",
      "type": "function"
    },
    {
      "inputs": [],
      "name": "GOV_ROLE",
      "outputs": [
        {
          "internalType": "bytes32",
          "name": "",
          "type": "bytes32"
        }
      ],
      "stateMutability": "view",
      "type": "function"
    },
    {
      "inputs": [],
      "name": "REWARD_SCHEDULE_ENTRY_LENGTH",
      "outputs": [
        {
          "internalType": "uint256",
          "name": "",
          "type": "uint256"
        }
      ],
      "stateMutability": "view",
      "type": "function"
    },
    {
      "inputs": [
        {
          "internalType": "address",
          "name": "producer",
          "type": "address"
        }
      ],
      "name": "add",
      "outputs": [],
      "stateMutability": "nonpayable",
      "type": "function"
    },
    {
      "inputs": [
        {
          "internalType": "address[]",
          "name": "producers",
          "type": "address[]"
        }
      ],
      "name": "addBatch",
      "outputs": [],
      "stateMutability": "nonpayable",
      "type": "function"
    },
    {
      "inputs": [
        {
          "internalType": "address",
          "name": "",
          "type": "address"
        }
      ],
      "name": "blockProducer",
      "outputs": [
        {
          "internalType": "bool",
          "name": "",
          "type": "bool"
        }
      ],
      "stateMutability": "view",
      "type": "function"
    },
    {
      "inputs": [
        {
          "internalType": "address",
          "name": "producer",
          "type": "address"
        },
        {
          "internalType": "address",
          "name": "collector",
          "type": "address"
        }
      ],
      "name": "delegate",
      "outputs": [],
      "stateMutability": "nonpayable",
      "type": "function"
    },
    {
      "inputs": [
        {
          "internalType": "address[]",
          "name": "producers",
          "type": "address[]"
        },
        {
          "internalType": "address[]",
          "name": "collectors",
          "type": "address[]"
        }
      ],
      "name": "delegateBatch",
      "outputs": [],
      "stateMutability": "nonpayable",
      "type": "function"
    },
    {
      "inputs": [
        {
          "internalType": "bytes32",
          "name": "role",
          "type": "bytes32"
        }
      ],
      "name": "getRoleAdmin",
      "outputs": [
        {
          "internalType": "bytes32",
          "name": "",
          "type": "bytes32"
        }
      ],
      "stateMutability": "view",
      "type": "function"
    },
    {
      "inputs": [
        {
          "internalType": "bytes32",
          "name": "role",
          "type": "bytes32"
        },
        {
          "internalType": "address",
          "name": "account",
          "type": "address"
        }
      ],
      "name": "grantRole",
      "outputs": [],
      "stateMutability": "nonpayable",
      "type": "function"
    },
    {
      "inputs": [
        {
          "internalType": "bytes32",
          "name": "role",
          "type": "bytes32"
        },
        {
          "internalType": "address",
          "name": "account",
          "type": "address"
        }
      ],
      "name": "hasRole",
      "outputs": [
        {
          "internalType": "bool",
          "name": "",
          "type": "bool"
        }
      ],
      "stateMutability": "view",
      "type": "function"
    },
    {
      "inputs": [
        {
          "internalType": "address",
          "name": "producer",
          "type": "address"
        }
      ],
      "name": "remove",
      "outputs": [],
      "stateMutability": "nonpayable",
      "type": "function"
    },
    {
      "inputs": [
        {
          "internalType": "address[]",
          "name": "producers",
          "type": "address[]"
        }
      ],
      "name": "removeBatch",
      "outputs": [],
      "stateMutability": "nonpayable",
      "type": "function"
    },
    {
      "inputs": [
        {
          "internalType": "bytes32",
          "name": "role",
          "type": "bytes32"
        },
        {
          "internalType": "address",
          "name": "account",
          "type": "address"
        }
      ],
      "name": "renounceRole",
      "outputs": [],
      "stateMutability": "nonpayable",
      "type": "function"
    },
    {
      "inputs": [
        {
          "internalType": "bytes32",
          "name": "role",
          "type": "bytes32"
        },
        {
          "internalType": "address",
          "name": "account",
          "type": "address"
        }
      ],
      "name": "revokeRole",
      "outputs": [],
      "stateMutability": "nonpayable",
      "type": "function"
    },
    {
      "inputs": [
        {
          "internalType": "address",
          "name": "",
          "type": "address"
        }
      ],
      "name": "rewardCollector",
      "outputs": [
        {
          "internalType": "address",
          "name": "",
          "type": "address"
        }
      ],
      "stateMutability": "view",
      "type": "function"
    },
    {
      "inputs": [],
      "name": "rewardScheduleEntries",
      "outputs": [
        {
          "internalType": "uint256",
          "name": "",
          "type": "uint256"
        }
      ],
      "stateMutability": "view",
      "type": "function"
    },
    {
      "inputs": [
        {
          "internalType": "uint256",
          "name": "index",
          "type": "uint256"
        }
      ],
      "name": "rewardScheduleEntry",
      "outputs": [
        {
          "components": [
            {
              "internalType": "uint64",
              "name": "startTime",
              "type": "uint64"
            },
            {
              "internalType": "uint64",
              "name": "epochDuration",
              "type": "uint64"
            },
            {
              "internalType": "uint128",
              "name": "rewardsPerEpoch",
              "type": "uint128"
            }
          ],
          "internalType": "struct IGovernance.RewardScheduleEntry",
          "name": "",
          "type": "tuple"
        }
      ],
      "stateMutability": "view",
      "type": "function"
    },
    {
      "inputs": [
        {
          "internalType": "bytes",
          "name": "set",
          "type": "bytes"
        }
      ],
      "name": "setRewardSchedule",
      "outputs": [],
      "stateMutability": "nonpayable",
      "type": "function"
    },
    {
      "inputs": [
        {
          "internalType": "bytes4",
          "name": "interfaceId",
          "type": "bytes4"
        }
      ],
      "name": "supportsInterface",
      "outputs": [
        {
          "internalType": "bool",
          "name": "",
          "type": "bool"
        }
      ],
      "stateMutability": "view",
      "type": "function"
    }
  ],
  "transactionHash": "0x8158df99568a54756339084f358a945c05cb3c708a58d10f9f2ef4b1fd327c71",
  "args": [
    "0x5b0aC3279dBf84Bb8DA59Be1EcaB118198f022E5",
    [
      "0x9fFed2297C7B81293413550Db675073ab46980b2"
    ],
    [
      "0x5b0aC3279dBf84Bb8DA59Be1EcaB118198f022E5"
    ]
  ],
  "solcInputHash": "25652fa7cefe72deed3db64da926a067",
  "bytecode": "0x60806040523480156200001157600080fd5b506040516200257a3803806200257a833981016040819052620000349162000433565b80518251146200007c5760405162461bcd60e51b815260206004820152600f60248201526e0d8cadccee8d040dad2e6dac2e8c6d608b1b604482015260640160405180910390fd5b620000a87f0603f2636f0ca34ae3ea5a23bb826e2bd2ffd59fb1c01edc1ba10fba2899d1ba84620002b3565b620000d47f1948e62cb88693562db3600e12aba035ba28da4a0626473ef28234bb8905407384620002b3565b620000e1600084620002b3565b60005b8251811015620002a957600160026000858481518110620001095762000109620004da565b60200260200101516001600160a01b03166001600160a01b0316815260200190815260200160002060006101000a81548160ff0219169083151502179055508281815181106200015d576200015d620004da565b60200260200101516001600160a01b03167fd4609c71470de2c1f8b9f35c27d41cf2fca85f3deddeec03938a47ee98afd4f160405160405180910390a2818181518110620001af57620001af620004da565b602002602001015160016000858481518110620001d057620001d0620004da565b60200260200101516001600160a01b03166001600160a01b0316815260200190815260200160002060006101000a8154816001600160a01b0302191690836001600160a01b03160217905550818181518110620002315762000231620004da565b60200260200101516001600160a01b0316838281518110620002575762000257620004da565b60200260200101516001600160a01b03167f0615eabcfb1b8be975ad51b1d48d4170e825e942374f4017619310ca8baa2b8e60405160405180910390a380620002a081620004b0565b915050620000e4565b5050505062000506565b620002bf8282620002c3565b5050565b6000828152602081815260408083206001600160a01b038516845290915290205460ff16620002bf576000828152602081815260408083206001600160a01b03851684529091529020805460ff191660011790556200031f3390565b6001600160a01b0316816001600160a01b0316837f2f8788117e7eff1d82e926ec794901d17c78024a50270940304540a733656f0d60405160405180910390a45050565b80516001600160a01b03811681146200037b57600080fd5b919050565b600082601f8301126200039257600080fd5b815160206001600160401b0380831115620003b157620003b1620004f0565b8260051b604051601f19603f83011681018181108482111715620003d957620003d9620004f0565b60405284815283810192508684018288018501891015620003f957600080fd5b600092505b858310156200042757620004128162000363565b845292840192600192909201918401620003fe565b50979650505050505050565b6000806000606084860312156200044957600080fd5b620004548462000363565b60208501519093506001600160401b03808211156200047257600080fd5b620004808783880162000380565b935060408601519150808211156200049757600080fd5b50620004a68682870162000380565b9150509250925092565b6000600019821415620004d357634e487b7160e01b600052601160045260246000fd5b5060010190565b634e487b7160e01b600052603260045260246000fd5b634e487b7160e01b600052604160045260246000fd5b61206480620005166000396000f3fe608060405234801561001057600080fd5b50600436106101775760003560e01c80636cd8830c116100d8578063a217fddf1161008c578063d547741f11610066578063d547741f146103f0578063d9b10d6d14610403578063e243c2491461040b57600080fd5b8063a217fddf146103ae578063b046222e146103b6578063b536818a146103c957600080fd5b80638ab65686116100bd5780638ab656861461033057806391d148541461034357806397b8a3a71461038757600080fd5b80636cd8830c1461027f57806373c248f4146102da57600080fd5b80632f2ff15d1161012f5780634214f1f2116101145780634214f1f2146102365780634fcb9b3e146102495780636b845bfe1461026c57600080fd5b80632f2ff15d1461021057806336568abe1461022357600080fd5b8063248a9ca311610160578063248a9ca3146101b957806324efa264146101ea57806329092d0e146101fd57600080fd5b806301ffc9a71461017c5780630a3b0a4f146101a4575b600080fd5b61018f61018a366004611c09565b610413565b60405190151581526020015b60405180910390f35b6101b76101b2366004611ade565b6104ac565b005b6101dc6101c7366004611bcd565b60009081526020819052604090206001015490565b60405190815260200161019b565b6101b76101f8366004611b2c565b610650565b6101b761020b366004611ade565b610888565b6101b761021e366004611be6565b610a28565b6101b7610231366004611be6565b610a53565b6101b7610244366004611b69565b610b02565b61018f610257366004611ade565b60026020526000908152604090205460ff1681565b6101b761027a366004611b2c565b610d5f565b6102b561028d366004611ade565b60016020526000908152604090205473ffffffffffffffffffffffffffffffffffffffff1681565b60405173ffffffffffffffffffffffffffffffffffffffff909116815260200161019b565b6102ed6102e8366004611bcd565b610f97565b60408051825167ffffffffffffffff908116825260208085015190911690820152918101516fffffffffffffffffffffffffffffffff169082015260600161019b565b6101b761033e366004611af9565b611178565b61018f610351366004611be6565b60009182526020828152604080842073ffffffffffffffffffffffffffffffffffffffff93909316845291905290205460ff1690565b6101dc7f1948e62cb88693562db3600e12aba035ba28da4a0626473ef28234bb8905407381565b6101dc600081565b6101b76103c4366004611c4b565b6112af565b6101dc7f0603f2636f0ca34ae3ea5a23bb826e2bd2ffd59fb1c01edc1ba10fba2899d1ba81565b6101b76103fe366004611be6565b611387565b6101dc6113ad565b6101dc602081565b60007fffffffff0000000000000000000000000000000000000000000000000000000082167f7965db0b0000000000000000000000000000000000000000000000000000000014806104a657507f01ffc9a7000000000000000000000000000000000000000000000000000000007fffffffff000000000000000000000000000000000000000000000000000000008316145b92915050565b3360009081527ff42cf6f079dae9a1c4905bf4a189ed49c3efccf20a4af60f202bafa7d7d85a03602052604090205460ff16610549576040517f08c379a000000000000000000000000000000000000000000000000000000000815260206004820152600b60248201527f6d75737420626520676f7600000000000000000000000000000000000000000060448201526064015b60405180910390fd5b73ffffffffffffffffffffffffffffffffffffffff811660009081526002602052604090205460ff16156105d9576040517f08c379a000000000000000000000000000000000000000000000000000000000815260206004820152601660248201527f616c726561647920626c6f636b2070726f6475636572000000000000000000006044820152606401610540565b73ffffffffffffffffffffffffffffffffffffffff811660008181526002602052604080822080547fffffffffffffffffffffffffffffffffffffffffffffffffffffffffffffff00166001179055517fd4609c71470de2c1f8b9f35c27d41cf2fca85f3deddeec03938a47ee98afd4f19190a250565b3360009081527ff42cf6f079dae9a1c4905bf4a189ed49c3efccf20a4af60f202bafa7d7d85a03602052604090205460ff166106e8576040517f08c379a000000000000000000000000000000000000000000000000000000000815260206004820152600b60248201527f6d75737420626520676f760000000000000000000000000000000000000000006044820152606401610540565b60005b8151811015610884576002600083838151811061070a5761070a611fd0565b60209081029190910181015173ffffffffffffffffffffffffffffffffffffffff1682528101919091526040016000205460ff16156107a5576040517f08c379a000000000000000000000000000000000000000000000000000000000815260206004820152601660248201527f616c726561647920626c6f636b2070726f6475636572000000000000000000006044820152606401610540565b6001600260008484815181106107bd576107bd611fd0565b602002602001015173ffffffffffffffffffffffffffffffffffffffff1673ffffffffffffffffffffffffffffffffffffffff16815260200190815260200160002060006101000a81548160ff02191690831515021790555081818151811061082857610828611fd0565b602002602001015173ffffffffffffffffffffffffffffffffffffffff167fd4609c71470de2c1f8b9f35c27d41cf2fca85f3deddeec03938a47ee98afd4f160405160405180910390a28061087c81611f68565b9150506106eb565b5050565b3360009081527ff42cf6f079dae9a1c4905bf4a189ed49c3efccf20a4af60f202bafa7d7d85a03602052604090205460ff16610920576040517f08c379a000000000000000000000000000000000000000000000000000000000815260206004820152600b60248201527f6d75737420626520676f760000000000000000000000000000000000000000006044820152606401610540565b73ffffffffffffffffffffffffffffffffffffffff811660009081526002602052604090205460ff1615156001146109b4576040517f08c379a000000000000000000000000000000000000000000000000000000000815260206004820152601260248201527f6e6f7420626c6f636b2070726f647563657200000000000000000000000000006044820152606401610540565b73ffffffffffffffffffffffffffffffffffffffff811660008181526002602052604080822080547fffffffffffffffffffffffffffffffffffffffffffffffffffffffffffffff00169055517f0d5bda236a0ce9d98d8af2e87bd2ca28eb79bf588d01c05b3f7ac4c34ff408599190a250565b600082815260208190526040902060010154610a4481336113ce565b610a4e838361149e565b505050565b73ffffffffffffffffffffffffffffffffffffffff81163314610af8576040517f08c379a000000000000000000000000000000000000000000000000000000000815260206004820152602f60248201527f416363657373436f6e74726f6c3a2063616e206f6e6c792072656e6f756e636560448201527f20726f6c657320666f722073656c6600000000000000000000000000000000006064820152608401610540565b610884828261158e565b3360009081527f0a53e73864620236ae8f220690a15a7e4438b7a8f9a5aa637c07161427083d2b602052604090205460ff16610b9a576040517f08c379a000000000000000000000000000000000000000000000000000000000815260206004820152601160248201527f6d7573742062652064656c656761746f720000000000000000000000000000006044820152606401610540565b8051825114610c05576040517f08c379a000000000000000000000000000000000000000000000000000000000815260206004820152600f60248201527f6c656e677468206d69736d6174636800000000000000000000000000000000006044820152606401610540565b60005b8251811015610a4e57818181518110610c2357610c23611fd0565b602002602001015160016000858481518110610c4157610c41611fd0565b602002602001015173ffffffffffffffffffffffffffffffffffffffff1673ffffffffffffffffffffffffffffffffffffffff16815260200190815260200160002060006101000a81548173ffffffffffffffffffffffffffffffffffffffff021916908373ffffffffffffffffffffffffffffffffffffffff160217905550818181518110610cd357610cd3611fd0565b602002602001015173ffffffffffffffffffffffffffffffffffffffff16838281518110610d0357610d03611fd0565b602002602001015173ffffffffffffffffffffffffffffffffffffffff167f0615eabcfb1b8be975ad51b1d48d4170e825e942374f4017619310ca8baa2b8e60405160405180910390a380610d5781611f68565b915050610c08565b3360009081527ff42cf6f079dae9a1c4905bf4a189ed49c3efccf20a4af60f202bafa7d7d85a03602052604090205460ff16610df7576040517f08c379a000000000000000000000000000000000000000000000000000000000815260206004820152600b60248201527f6d75737420626520676f760000000000000000000000000000000000000000006044820152606401610540565b60005b81518110156108845760026000838381518110610e1957610e19611fd0565b60209081029190910181015173ffffffffffffffffffffffffffffffffffffffff1682528101919091526040016000205460ff161515600114610eb8576040517f08c379a000000000000000000000000000000000000000000000000000000000815260206004820152601260248201527f6e6f7420626c6f636b2070726f647563657200000000000000000000000000006044820152606401610540565b600060026000848481518110610ed057610ed0611fd0565b602002602001015173ffffffffffffffffffffffffffffffffffffffff1673ffffffffffffffffffffffffffffffffffffffff16815260200190815260200160002060006101000a81548160ff021916908315150217905550818181518110610f3b57610f3b611fd0565b602002602001015173ffffffffffffffffffffffffffffffffffffffff167f0d5bda236a0ce9d98d8af2e87bd2ca28eb79bf588d01c05b3f7ac4c34ff4085960405160405180910390a280610f8f81611f68565b915050610dfa565b604080516060810182526000808252602082018190529181019190915260408051606081018252600080825260208201819052918101919091526000610fde602085611e72565b905061107d8160038054610ff190611f14565b80601f016020809104026020016040519081016040528092919081815260200182805461101d90611f14565b801561106a5780601f1061103f5761010080835404028352916020019161106a565b820191906000526020600020905b81548152906001019060200180831161104d57829003601f168201915b505050505061164590919063ffffffff16565b67ffffffffffffffff1682526110a4611097826008611e1f565b60038054610ff190611f14565b67ffffffffffffffff16602083015261115a6110c1826010611e1f565b600380546110ce90611f14565b80601f01602080910402602001604051908101604052809291908181526020018280546110fa90611f14565b80156111475780601f1061111c57610100808354040283529160200191611147565b820191906000526020600020905b81548152906001019060200180831161112a57829003601f168201915b50505050506116c590919063ffffffff16565b6fffffffffffffffffffffffffffffffff1660408301525092915050565b3360009081527f0a53e73864620236ae8f220690a15a7e4438b7a8f9a5aa637c07161427083d2b6020526040902054829060ff16806111cc57503373ffffffffffffffffffffffffffffffffffffffff8216145b611232576040517f08c379a000000000000000000000000000000000000000000000000000000000815260206004820152601d60248201527f6d7573742062652070726f6475636572206f722064656c656761746f720000006044820152606401610540565b73ffffffffffffffffffffffffffffffffffffffff83811660008181526001602052604080822080547fffffffffffffffffffffffff0000000000000000000000000000000000000000169487169485179055517f0615eabcfb1b8be975ad51b1d48d4170e825e942374f4017619310ca8baa2b8e9190a3505050565b3360009081527ff42cf6f079dae9a1c4905bf4a189ed49c3efccf20a4af60f202bafa7d7d85a03602052604090205460ff16611347576040517f08c379a000000000000000000000000000000000000000000000000000000000815260206004820152600b60248201527f6d75737420626520676f760000000000000000000000000000000000000000006044820152606401610540565b805161135a90600390602084019061198f565b506040517f278f09c68d571c125592b8e05ea92a9ab405c042bc8f8aa2eced5d44c918fb4490600090a150565b6000828152602081905260409020600101546113a381336113ce565b610a4e838361158e565b60006020600380546113be90611f14565b6113c9929150611e37565b905090565b60008281526020818152604080832073ffffffffffffffffffffffffffffffffffffffff8516845290915290205460ff16610884576114248173ffffffffffffffffffffffffffffffffffffffff166014611745565b61142f836020611745565b604051602001611440929190611cfe565b604080517fffffffffffffffffffffffffffffffffffffffffffffffffffffffffffffffe0818403018152908290527f08c379a000000000000000000000000000000000000000000000000000000000825261054091600401611d7f565b60008281526020818152604080832073ffffffffffffffffffffffffffffffffffffffff8516845290915290205460ff166108845760008281526020818152604080832073ffffffffffffffffffffffffffffffffffffffff85168452909152902080547fffffffffffffffffffffffffffffffffffffffffffffffffffffffffffffff001660011790556115303390565b73ffffffffffffffffffffffffffffffffffffffff168173ffffffffffffffffffffffffffffffffffffffff16837f2f8788117e7eff1d82e926ec794901d17c78024a50270940304540a733656f0d60405160405180910390a45050565b60008281526020818152604080832073ffffffffffffffffffffffffffffffffffffffff8516845290915290205460ff16156108845760008281526020818152604080832073ffffffffffffffffffffffffffffffffffffffff8516808552925280832080547fffffffffffffffffffffffffffffffffffffffffffffffffffffffffffffff0016905551339285917ff6391f5c32d9c69d2a47ea670b442974b53935d1edc7fd64eb21e047a839171b9190a45050565b6000611652826008611e1f565b835110156116bc576040517f08c379a000000000000000000000000000000000000000000000000000000000815260206004820152601460248201527f746f55696e7436345f6f75744f66426f756e64730000000000000000000000006044820152606401610540565b50016008015190565b60006116d2826010611e1f565b8351101561173c576040517f08c379a000000000000000000000000000000000000000000000000000000000815260206004820152601560248201527f746f55696e743132385f6f75744f66426f756e647300000000000000000000006044820152606401610540565b50016010015190565b60606000611754836002611e72565b61175f906002611e1f565b67ffffffffffffffff81111561177757611777611fff565b6040519080825280601f01601f1916602001820160405280156117a1576020820181803683370190505b5090507f3000000000000000000000000000000000000000000000000000000000000000816000815181106117d8576117d8611fd0565b60200101907effffffffffffffffffffffffffffffffffffffffffffffffffffffffffffff1916908160001a9053507f78000000000000000000000000000000000000000000000000000000000000008160018151811061183b5761183b611fd0565b60200101907effffffffffffffffffffffffffffffffffffffffffffffffffffffffffffff1916908160001a9053506000611877846002611e72565b611882906001611e1f565b90505b600181111561191f577f303132333435363738396162636465660000000000000000000000000000000085600f16601081106118c3576118c3611fd0565b1a60f81b8282815181106118d9576118d9611fd0565b60200101907effffffffffffffffffffffffffffffffffffffffffffffffffffffffffffff1916908160001a90535060049490941c9361191881611edf565b9050611885565b508315611988576040517f08c379a000000000000000000000000000000000000000000000000000000000815260206004820181905260248201527f537472696e67733a20686578206c656e67746820696e73756666696369656e746044820152606401610540565b9392505050565b82805461199b90611f14565b90600052602060002090601f0160209004810192826119bd5760008555611a03565b82601f106119d657805160ff1916838001178555611a03565b82800160010185558215611a03579182015b82811115611a035782518255916020019190600101906119e8565b50611a0f929150611a13565b5090565b5b80821115611a0f5760008155600101611a14565b803573ffffffffffffffffffffffffffffffffffffffff81168114611a4c57600080fd5b919050565b600082601f830112611a6257600080fd5b8135602067ffffffffffffffff821115611a7e57611a7e611fff565b8160051b611a8d828201611dd0565b838152828101908684018388018501891015611aa857600080fd5b600093505b85841015611ad257611abe81611a28565b835260019390930192918401918401611aad565b50979650505050505050565b600060208284031215611af057600080fd5b61198882611a28565b60008060408385031215611b0c57600080fd5b611b1583611a28565b9150611b2360208401611a28565b90509250929050565b600060208284031215611b3e57600080fd5b813567ffffffffffffffff811115611b5557600080fd5b611b6184828501611a51565b949350505050565b60008060408385031215611b7c57600080fd5b823567ffffffffffffffff80821115611b9457600080fd5b611ba086838701611a51565b93506020850135915080821115611bb657600080fd5b50611bc385828601611a51565b9150509250929050565b600060208284031215611bdf57600080fd5b5035919050565b60008060408385031215611bf957600080fd5b82359150611b2360208401611a28565b600060208284031215611c1b57600080fd5b81357fffffffff000000000000000000000000000000000000000000000000000000008116811461198857600080fd5b60006020808385031215611c5e57600080fd5b823567ffffffffffffffff80821115611c7657600080fd5b818501915085601f830112611c8a57600080fd5b813581811115611c9c57611c9c611fff565b611ccc847fffffffffffffffffffffffffffffffffffffffffffffffffffffffffffffffe0601f84011601611dd0565b91508082528684828501011115611ce257600080fd5b8084840185840137600090820190930192909252509392505050565b7f416363657373436f6e74726f6c3a206163636f756e7420000000000000000000815260008351611d36816017850160208801611eaf565b7f206973206d697373696e6720726f6c65200000000000000000000000000000006017918401918201528351611d73816028840160208801611eaf565b01602801949350505050565b6020815260008251806020840152611d9e816040850160208701611eaf565b601f017fffffffffffffffffffffffffffffffffffffffffffffffffffffffffffffffe0169190910160400192915050565b604051601f82017fffffffffffffffffffffffffffffffffffffffffffffffffffffffffffffffe016810167ffffffffffffffff81118282101715611e1757611e17611fff565b604052919050565b60008219821115611e3257611e32611fa1565b500190565b600082611e6d577f4e487b7100000000000000000000000000000000000000000000000000000000600052601260045260246000fd5b500490565b6000817fffffffffffffffffffffffffffffffffffffffffffffffffffffffffffffffff0483118215151615611eaa57611eaa611fa1565b500290565b60005b83811015611eca578181015183820152602001611eb2565b83811115611ed9576000848401525b50505050565b600081611eee57611eee611fa1565b507fffffffffffffffffffffffffffffffffffffffffffffffffffffffffffffffff0190565b600181811c90821680611f2857607f821691505b60208210811415611f62577f4e487b7100000000000000000000000000000000000000000000000000000000600052602260045260246000fd5b50919050565b60007fffffffffffffffffffffffffffffffffffffffffffffffffffffffffffffffff821415611f9a57611f9a611fa1565b5060010190565b7f4e487b7100000000000000000000000000000000000000000000000000000000600052601160045260246000fd5b7f4e487b7100000000000000000000000000000000000000000000000000000000600052603260045260246000fd5b7f4e487b7100000000000000000000000000000000000000000000000000000000600052604160045260246000fdfea26469706673582212200f07b54895a6daa2136173cea7afcd33a6c0f81ac06fa0780d5f714a10ac04df64736f6c63430008060033",
  "devdoc": {
    "details": "Add or remove block producers from the network and set rewards collectors",
    "kind": "dev",
    "methods": {
      "add(address)": {
        "details": "Only governance can call",
        "params": {
          "producer": "Block producer address"
        }
      },
      "addBatch(address[])": {
        "details": "Only governance can call",
        "params": {
          "producers": "List of block producers"
        }
      },
      "constructor": {
        "params": {
          "_admin": "Governance admin",
          "_blockProducers": "Initial whitelist of block producers",
          "_collectors": "Initial reward collectors for block producers"
        }
      },
      "delegate(address,address)": {
        "details": "Only delegator admin or block producer can call",
        "params": {
          "collector": "Collector address",
          "producer": "Block producer address"
        }
      },
      "delegateBatch(address[],address[])": {
        "details": "Only delegator admin can call",
        "params": {
          "collectors": "Collector addresses",
          "producers": "Block producer addresses"
        }
      },
      "getRoleAdmin(bytes32)": {
        "details": "Returns the admin role that controls `role`. See {grantRole} and {revokeRole}. To change a role's admin, use {_setRoleAdmin}."
      },
      "grantRole(bytes32,address)": {
        "details": "Grants `role` to `account`. If `account` had not been already granted `role`, emits a {RoleGranted} event. Requirements: - the caller must have ``role``'s admin role."
      },
      "hasRole(bytes32,address)": {
        "details": "Returns `true` if `account` has been granted `role`."
      },
      "remove(address)": {
        "details": "Only governance can call",
        "params": {
          "producer": "Block producer address"
        }
      },
      "removeBatch(address[])": {
        "details": "Only governance can call",
        "params": {
          "producers": "List of block producers"
        }
      },
      "renounceRole(bytes32,address)": {
        "details": "Revokes `role` from the calling account. Roles are often managed via {grantRole} and {revokeRole}: this function's purpose is to provide a mechanism for accounts to lose their privileges if they are compromised (such as when a trusted device is misplaced). If the calling account had been granted `role`, emits a {RoleRevoked} event. Requirements: - the caller must be `account`."
      },
      "revokeRole(bytes32,address)": {
        "details": "Revokes `role` from `account`. If `account` had been granted `role`, emits a {RoleRevoked} event. Requirements: - the caller must have ``role``'s admin role."
      },
      "rewardScheduleEntries()": {
        "returns": {
          "_0": "Number of rewards schedule entries"
        }
      },
      "rewardScheduleEntry(uint256)": {
        "params": {
          "index": "Index location"
        },
        "returns": {
          "_0": "Rewards schedule entry"
        }
      },
      "setRewardSchedule(bytes)": {
        "details": "Only governance can call",
        "params": {
          "set": "Packed bytes representing reward schedule"
        }
      },
      "supportsInterface(bytes4)": {
        "details": "See {IERC165-supportsInterface}."
      }
    },
    "stateVariables": {
      "_rewardSchedule": {
        "details": "Packed struct containing rewards distribution details"
      }
    },
    "title": "DistributorGovernance",
    "version": 1
  },
  "userdoc": {
    "kind": "user",
    "methods": {
      "DELEGATOR_ROLE()": {
        "notice": "Admin delegator role"
      },
      "GOV_ROLE()": {
        "notice": "Admin governance role"
      },
      "REWARD_SCHEDULE_ENTRY_LENGTH()": {
        "notice": "Length of single rewards schedule entry"
      },
      "add(address)": {
        "notice": "Add block producer to the network"
      },
      "addBatch(address[])": {
        "notice": "Add batch of block producers to network"
      },
      "blockProducer(address)": {
        "notice": "Whitelisted block producers"
      },
      "constructor": {
        "notice": "Construct a new DistributorGovernance contract"
      },
      "delegate(address,address)": {
        "notice": "Delegate a collector address that can claim rewards on behalf of a block producer"
      },
      "delegateBatch(address[],address[])": {
        "notice": "Delegate collector addresses that can claim rewards on behalf of block producers in batch"
      },
      "remove(address)": {
        "notice": "Remove block producer from network"
      },
      "removeBatch(address[])": {
        "notice": "Remove batch of block producers from network"
      },
      "rewardCollector(address)": {
        "notice": "Mapping of block producer to reward collector"
      },
      "rewardScheduleEntries()": {
        "notice": "Get all reward schedule entries"
      },
      "rewardScheduleEntry(uint256)": {
        "notice": "Get reward schedule entry"
      },
      "setRewardSchedule(bytes)": {
        "notice": "Set reward schedule"
      }
    },
    "version": 1
  },
  "storageLayout": {
    "storage": [
      {
        "astId": 10838,
        "contract": "contracts/DistributorGovernance.sol:DistributorGovernance",
        "label": "_roles",
        "offset": 0,
        "slot": "0",
        "type": "t_mapping(t_bytes32,t_struct(RoleData)10833_storage)"
      },
      {
        "astId": 30,
        "contract": "contracts/DistributorGovernance.sol:DistributorGovernance",
        "label": "rewardCollector",
        "offset": 0,
        "slot": "1",
        "type": "t_mapping(t_address,t_address)"
      },
      {
        "astId": 36,
        "contract": "contracts/DistributorGovernance.sol:DistributorGovernance",
        "label": "blockProducer",
        "offset": 0,
        "slot": "2",
        "type": "t_mapping(t_address,t_bool)"
      },
      {
        "astId": 39,
        "contract": "contracts/DistributorGovernance.sol:DistributorGovernance",
        "label": "_rewardSchedule",
        "offset": 0,
        "slot": "3",
        "type": "t_bytes_storage"
      }
    ],
    "types": {
      "t_address": {
        "encoding": "inplace",
        "label": "address",
        "numberOfBytes": "20"
      },
      "t_bool": {
        "encoding": "inplace",
        "label": "bool",
        "numberOfBytes": "1"
      },
      "t_bytes32": {
        "encoding": "inplace",
        "label": "bytes32",
        "numberOfBytes": "32"
      },
      "t_bytes_storage": {
        "encoding": "bytes",
        "label": "bytes",
        "numberOfBytes": "32"
      },
      "t_mapping(t_address,t_address)": {
        "encoding": "mapping",
        "key": "t_address",
        "label": "mapping(address => address)",
        "numberOfBytes": "32",
        "value": "t_address"
      },
      "t_mapping(t_address,t_bool)": {
        "encoding": "mapping",
        "key": "t_address",
        "label": "mapping(address => bool)",
        "numberOfBytes": "32",
        "value": "t_bool"
      },
      "t_mapping(t_bytes32,t_struct(RoleData)10833_storage)": {
        "encoding": "mapping",
        "key": "t_bytes32",
        "label": "mapping(bytes32 => struct AccessControl.RoleData)",
        "numberOfBytes": "32",
        "value": "t_struct(RoleData)10833_storage"
      },
      "t_struct(RoleData)10833_storage": {
        "encoding": "inplace",
        "label": "struct AccessControl.RoleData",
        "members": [
          {
            "astId": 10830,
            "contract": "contracts/DistributorGovernance.sol:DistributorGovernance",
            "label": "members",
            "offset": 0,
            "slot": "0",
            "type": "t_mapping(t_address,t_bool)"
          },
          {
            "astId": 10832,
            "contract": "contracts/DistributorGovernance.sol:DistributorGovernance",
            "label": "adminRole",
            "offset": 0,
            "slot": "1",
            "type": "t_bytes32"
          }
        ],
        "numberOfBytes": "64"
      }
    }
  }
}