{
  "address": "0xE4A7C70E138e671F53Bfa04Ad5c2A3Fb10fe89cB",
  "abi": [
    {
      "inputs": [
        {
          "internalType": "address",
          "name": "_admin",
          "type": "address"
        },
        {
          "internalType": "address[]",
          "name": "_blockProducers",
          "type": "address[]"
        },
        {
          "internalType": "address[]",
          "name": "_collectors",
          "type": "address[]"
        }
      ],
      "stateMutability": "nonpayable",
      "type": "constructor"
    },
    {
      "anonymous": false,
      "inputs": [
        {
          "indexed": true,
          "internalType": "address",
          "name": "producer",
          "type": "address"
        }
      ],
      "name": "BlockProducerAdded",
      "type": "event"
    },
    {
      "anonymous": false,
      "inputs": [
        {
          "indexed": true,
          "internalType": "address",
          "name": "producer",
          "type": "address"
        }
      ],
      "name": "BlockProducerRemoved",
      "type": "event"
    },
    {
      "anonymous": false,
      "inputs": [
        {
          "indexed": true,
          "internalType": "address",
          "name": "producer",
          "type": "address"
        },
        {
          "indexed": true,
          "internalType": "address",
          "name": "collector",
          "type": "address"
        }
      ],
      "name": "BlockProducerRewardCollectorChanged",
      "type": "event"
    },
    {
      "anonymous": false,
      "inputs": [],
      "name": "RewardScheduleChanged",
      "type": "event"
    },
    {
      "anonymous": false,
      "inputs": [
        {
          "indexed": true,
          "internalType": "bytes32",
          "name": "role",
          "type": "bytes32"
        },
        {
          "indexed": true,
          "internalType": "bytes32",
          "name": "previousAdminRole",
          "type": "bytes32"
        },
        {
          "indexed": true,
          "internalType": "bytes32",
          "name": "newAdminRole",
          "type": "bytes32"
        }
      ],
      "name": "RoleAdminChanged",
      "type": "event"
    },
    {
      "anonymous": false,
      "inputs": [
        {
          "indexed": true,
          "internalType": "bytes32",
          "name": "role",
          "type": "bytes32"
        },
        {
          "indexed": true,
          "internalType": "address",
          "name": "account",
          "type": "address"
        },
        {
          "indexed": true,
          "internalType": "address",
          "name": "sender",
          "type": "address"
        }
      ],
      "name": "RoleGranted",
      "type": "event"
    },
    {
      "anonymous": false,
      "inputs": [
        {
          "indexed": true,
          "internalType": "bytes32",
          "name": "role",
          "type": "bytes32"
        },
        {
          "indexed": true,
          "internalType": "address",
          "name": "account",
          "type": "address"
        },
        {
          "indexed": true,
          "internalType": "address",
          "name": "sender",
          "type": "address"
        }
      ],
      "name": "RoleRevoked",
      "type": "event"
    },
    {
      "inputs": [],
      "name": "DEFAULT_ADMIN_ROLE",
      "outputs": [
        {
          "internalType": "bytes32",
          "name": "",
          "type": "bytes32"
        }
      ],
      "stateMutability": "view",
      "type": "function"
    },
    {
      "inputs": [],
      "name": "DELEGATOR_ROLE",
      "outputs": [
        {
          "internalType": "bytes32",
          "name": "",
          "type": "bytes32"
        }
      ],
      "stateMutability": "view",
      "type": "function"
    },
    {
      "inputs": [],
      "name": "GOV_ROLE",
      "outputs": [
        {
          "internalType": "bytes32",
          "name": "",
          "type": "bytes32"
        }
      ],
      "stateMutability": "view",
      "type": "function"
    },
    {
      "inputs": [
        {
          "internalType": "address",
          "name": "producer",
          "type": "address"
        }
      ],
      "name": "add",
      "outputs": [],
      "stateMutability": "nonpayable",
      "type": "function"
    },
    {
      "inputs": [
        {
          "internalType": "address[]",
          "name": "producers",
          "type": "address[]"
        }
      ],
      "name": "addBatch",
      "outputs": [],
      "stateMutability": "nonpayable",
      "type": "function"
    },
    {
      "inputs": [
        {
          "internalType": "address",
          "name": "",
          "type": "address"
        }
      ],
      "name": "blockProducer",
      "outputs": [
        {
          "internalType": "bool",
          "name": "",
          "type": "bool"
        }
      ],
      "stateMutability": "view",
      "type": "function"
    },
    {
      "inputs": [
        {
          "internalType": "address",
          "name": "producer",
          "type": "address"
        },
        {
          "internalType": "address",
          "name": "collector",
          "type": "address"
        }
      ],
      "name": "delegate",
      "outputs": [],
      "stateMutability": "nonpayable",
      "type": "function"
    },
    {
      "inputs": [
        {
          "internalType": "address[]",
          "name": "producers",
          "type": "address[]"
        },
        {
          "internalType": "address[]",
          "name": "collectors",
          "type": "address[]"
        }
      ],
      "name": "delegateBatch",
      "outputs": [],
      "stateMutability": "nonpayable",
      "type": "function"
    },
    {
      "inputs": [
        {
          "internalType": "bytes32",
          "name": "role",
          "type": "bytes32"
        }
      ],
      "name": "getRoleAdmin",
      "outputs": [
        {
          "internalType": "bytes32",
          "name": "",
          "type": "bytes32"
        }
      ],
      "stateMutability": "view",
      "type": "function"
    },
    {
      "inputs": [
        {
          "internalType": "bytes32",
          "name": "role",
          "type": "bytes32"
        },
        {
          "internalType": "address",
          "name": "account",
          "type": "address"
        }
      ],
      "name": "grantRole",
      "outputs": [],
      "stateMutability": "nonpayable",
      "type": "function"
    },
    {
      "inputs": [
        {
          "internalType": "bytes32",
          "name": "role",
          "type": "bytes32"
        },
        {
          "internalType": "address",
          "name": "account",
          "type": "address"
        }
      ],
      "name": "hasRole",
      "outputs": [
        {
          "internalType": "bool",
          "name": "",
          "type": "bool"
        }
      ],
      "stateMutability": "view",
      "type": "function"
    },
    {
      "inputs": [
        {
          "internalType": "address",
          "name": "producer",
          "type": "address"
        }
      ],
      "name": "remove",
      "outputs": [],
      "stateMutability": "nonpayable",
      "type": "function"
    },
    {
      "inputs": [
        {
          "internalType": "address[]",
          "name": "producers",
          "type": "address[]"
        }
      ],
      "name": "removeBatch",
      "outputs": [],
      "stateMutability": "nonpayable",
      "type": "function"
    },
    {
      "inputs": [
        {
          "internalType": "bytes32",
          "name": "role",
          "type": "bytes32"
        },
        {
          "internalType": "address",
          "name": "account",
          "type": "address"
        }
      ],
      "name": "renounceRole",
      "outputs": [],
      "stateMutability": "nonpayable",
      "type": "function"
    },
    {
      "inputs": [
        {
          "internalType": "bytes32",
          "name": "role",
          "type": "bytes32"
        },
        {
          "internalType": "address",
          "name": "account",
          "type": "address"
        }
      ],
      "name": "revokeRole",
      "outputs": [],
      "stateMutability": "nonpayable",
      "type": "function"
    },
    {
      "inputs": [
        {
          "internalType": "address",
          "name": "",
          "type": "address"
        }
      ],
      "name": "rewardCollector",
      "outputs": [
        {
          "internalType": "address",
          "name": "",
          "type": "address"
        }
      ],
      "stateMutability": "view",
      "type": "function"
    },
    {
      "inputs": [],
      "name": "rewardScheduleEntries",
      "outputs": [
        {
          "internalType": "uint256",
          "name": "",
          "type": "uint256"
        }
      ],
      "stateMutability": "view",
      "type": "function"
    },
    {
      "inputs": [
        {
          "internalType": "uint256",
          "name": "index",
          "type": "uint256"
        }
      ],
      "name": "rewardScheduleEntry",
      "outputs": [
        {
          "components": [
            {
              "internalType": "uint64",
              "name": "startTime",
              "type": "uint64"
            },
            {
              "internalType": "uint64",
              "name": "epochDuration",
              "type": "uint64"
            },
            {
              "internalType": "uint128",
              "name": "rewardsPerEpoch",
              "type": "uint128"
            }
          ],
          "internalType": "struct IGovernance.RewardScheduleEntry",
          "name": "",
          "type": "tuple"
        }
      ],
      "stateMutability": "view",
      "type": "function"
    },
    {
      "inputs": [
        {
          "internalType": "bytes",
          "name": "set",
          "type": "bytes"
        }
      ],
      "name": "setRewardSchedule",
      "outputs": [],
      "stateMutability": "nonpayable",
      "type": "function"
    },
    {
      "inputs": [
        {
          "internalType": "bytes4",
          "name": "interfaceId",
          "type": "bytes4"
        }
      ],
      "name": "supportsInterface",
      "outputs": [
        {
          "internalType": "bool",
          "name": "",
          "type": "bool"
        }
      ],
      "stateMutability": "view",
      "type": "function"
    }
  ],
  "transactionHash": "0x7cc1a3863a6f37210e80b88d2689146d425350f8e62cb56a2a7938448fb0c941",
  "args": [
    "0x5b0aC3279dBf84Bb8DA59Be1EcaB118198f022E5",
    [
      "0x9fFed2297C7B81293413550Db675073ab46980b2"
    ],
    [
      "0x5b0aC3279dBf84Bb8DA59Be1EcaB118198f022E5"
    ]
  ],
  "solcInputHash": "6b1488ff370b6f6025b54381f00951c8",
  "bytecode": "0x60806040523480156200001157600080fd5b5060405162001fe338038062001fe3833981016040819052620000349162000433565b80518251146200007c5760405162461bcd60e51b815260206004820152600f60248201526e0d8cadccee8d040dad2e6dac2e8c6d608b1b604482015260640160405180910390fd5b620000a87f0603f2636f0ca34ae3ea5a23bb826e2bd2ffd59fb1c01edc1ba10fba2899d1ba84620002b3565b620000d47f1948e62cb88693562db3600e12aba035ba28da4a0626473ef28234bb8905407384620002b3565b620000e1600084620002b3565b60005b8251811015620002a957600160026000858481518110620001095762000109620004da565b60200260200101516001600160a01b03166001600160a01b0316815260200190815260200160002060006101000a81548160ff0219169083151502179055508281815181106200015d576200015d620004da565b60200260200101516001600160a01b03167fd4609c71470de2c1f8b9f35c27d41cf2fca85f3deddeec03938a47ee98afd4f160405160405180910390a2818181518110620001af57620001af620004da565b602002602001015160016000858481518110620001d057620001d0620004da565b60200260200101516001600160a01b03166001600160a01b0316815260200190815260200160002060006101000a8154816001600160a01b0302191690836001600160a01b03160217905550818181518110620002315762000231620004da565b60200260200101516001600160a01b0316838281518110620002575762000257620004da565b60200260200101516001600160a01b03167f0615eabcfb1b8be975ad51b1d48d4170e825e942374f4017619310ca8baa2b8e60405160405180910390a380620002a081620004b0565b915050620000e4565b5050505062000506565b620002bf8282620002c3565b5050565b6000828152602081815260408083206001600160a01b038516845290915290205460ff16620002bf576000828152602081815260408083206001600160a01b03851684529091529020805460ff191660011790556200031f3390565b6001600160a01b0316816001600160a01b0316837f2f8788117e7eff1d82e926ec794901d17c78024a50270940304540a733656f0d60405160405180910390a45050565b80516001600160a01b03811681146200037b57600080fd5b919050565b600082601f8301126200039257600080fd5b815160206001600160401b0380831115620003b157620003b1620004f0565b8260051b604051601f19603f83011681018181108482111715620003d957620003d9620004f0565b60405284815283810192508684018288018501891015620003f957600080fd5b600092505b858310156200042757620004128162000363565b845292840192600192909201918401620003fe565b50979650505050505050565b6000806000606084860312156200044957600080fd5b620004548462000363565b60208501519093506001600160401b03808211156200047257600080fd5b620004808783880162000380565b935060408601519150808211156200049757600080fd5b50620004a68682870162000380565b9150509250925092565b6000600019821415620004d357634e487b7160e01b600052601160045260246000fd5b5060010190565b634e487b7160e01b600052603260045260246000fd5b634e487b7160e01b600052604160045260246000fd5b611acd80620005166000396000f3fe608060405234801561001057600080fd5b506004361061016c5760003560e01c80636cd8830c116100cd578063a217fddf11610081578063b536818a11610066578063b536818a146103be578063d547741f146103e5578063d9b10d6d146103f857600080fd5b8063a217fddf146103a3578063b046222e146103ab57600080fd5b80638ab65686116100b25780638ab656861461032557806391d148541461033857806397b8a3a71461037c57600080fd5b80636cd8830c1461027457806373c248f4146102cf57600080fd5b80632f2ff15d116101245780634214f1f2116101095780634214f1f21461022b5780634fcb9b3e1461023e5780636b845bfe1461026157600080fd5b80632f2ff15d1461020557806336568abe1461021857600080fd5b8063248a9ca311610155578063248a9ca3146101ae57806324efa264146101df57806329092d0e146101f257600080fd5b806301ffc9a7146101715780630a3b0a4f14610199575b600080fd5b61018461017f366004611672565b610400565b60405190151581526020015b60405180910390f35b6101ac6101a7366004611547565b610499565b005b6101d16101bc366004611636565b60009081526020819052604090206001015490565b604051908152602001610190565b6101ac6101ed366004611595565b61063d565b6101ac610200366004611547565b610681565b6101ac61021336600461164f565b610821565b6101ac61022636600461164f565b61084c565b6101ac6102393660046115d2565b6108fb565b61018461024c366004611547565b60026020526000908152604090205460ff1681565b6101ac61026f366004611595565b6109c0565b6102aa610282366004611547565b60016020526000908152604090205473ffffffffffffffffffffffffffffffffffffffff1681565b60405173ffffffffffffffffffffffffffffffffffffffff9091168152602001610190565b6102e26102dd366004611636565b610a00565b60408051825167ffffffffffffffff908116825260208085015190911690820152918101516fffffffffffffffffffffffffffffffff1690820152606001610190565b6101ac610333366004611562565b610be1565b61018461034636600461164f565b60009182526020828152604080842073ffffffffffffffffffffffffffffffffffffffff93909316845291905290205460ff1690565b6101d17f1948e62cb88693562db3600e12aba035ba28da4a0626473ef28234bb8905407381565b6101d1600081565b6101ac6103b93660046116b4565b610d18565b6101d17f0603f2636f0ca34ae3ea5a23bb826e2bd2ffd59fb1c01edc1ba10fba2899d1ba81565b6101ac6103f336600461164f565b610df0565b6101d1610e16565b60007fffffffff0000000000000000000000000000000000000000000000000000000082167f7965db0b00000000000000000000000000000000000000000000000000000000148061049357507f01ffc9a7000000000000000000000000000000000000000000000000000000007fffffffff000000000000000000000000000000000000000000000000000000008316145b92915050565b3360009081527ff42cf6f079dae9a1c4905bf4a189ed49c3efccf20a4af60f202bafa7d7d85a03602052604090205460ff16610536576040517f08c379a000000000000000000000000000000000000000000000000000000000815260206004820152600b60248201527f6d75737420626520676f7600000000000000000000000000000000000000000060448201526064015b60405180910390fd5b73ffffffffffffffffffffffffffffffffffffffff811660009081526002602052604090205460ff16156105c6576040517f08c379a000000000000000000000000000000000000000000000000000000000815260206004820152601660248201527f616c726561647920626c6f636b2070726f647563657200000000000000000000604482015260640161052d565b73ffffffffffffffffffffffffffffffffffffffff811660008181526002602052604080822080547fffffffffffffffffffffffffffffffffffffffffffffffffffffffffffffff00166001179055517fd4609c71470de2c1f8b9f35c27d41cf2fca85f3deddeec03938a47ee98afd4f19190a250565b60005b815181101561067d5761066b82828151811061065e5761065e611a39565b6020026020010151610499565b80610675816119d1565b915050610640565b5050565b3360009081527ff42cf6f079dae9a1c4905bf4a189ed49c3efccf20a4af60f202bafa7d7d85a03602052604090205460ff16610719576040517f08c379a000000000000000000000000000000000000000000000000000000000815260206004820152600b60248201527f6d75737420626520676f76000000000000000000000000000000000000000000604482015260640161052d565b73ffffffffffffffffffffffffffffffffffffffff811660009081526002602052604090205460ff1615156001146107ad576040517f08c379a000000000000000000000000000000000000000000000000000000000815260206004820152601260248201527f6e6f7420626c6f636b2070726f64756365720000000000000000000000000000604482015260640161052d565b73ffffffffffffffffffffffffffffffffffffffff811660008181526002602052604080822080547fffffffffffffffffffffffffffffffffffffffffffffffffffffffffffffff00169055517f0d5bda236a0ce9d98d8af2e87bd2ca28eb79bf588d01c05b3f7ac4c34ff408599190a250565b60008281526020819052604090206001015461083d8133610e37565b6108478383610f07565b505050565b73ffffffffffffffffffffffffffffffffffffffff811633146108f1576040517f08c379a000000000000000000000000000000000000000000000000000000000815260206004820152602f60248201527f416363657373436f6e74726f6c3a2063616e206f6e6c792072656e6f756e636560448201527f20726f6c657320666f722073656c660000000000000000000000000000000000606482015260840161052d565b61067d8282610ff7565b8051825114610966576040517f08c379a000000000000000000000000000000000000000000000000000000000815260206004820152600f60248201527f6c656e677468206d69736d617463680000000000000000000000000000000000604482015260640161052d565b60005b8251811015610847576109ae83828151811061098757610987611a39565b60200260200101518383815181106109a1576109a1611a39565b6020026020010151610be1565b806109b8816119d1565b915050610969565b60005b815181101561067d576109ee8282815181106109e1576109e1611a39565b6020026020010151610681565b806109f8816119d1565b9150506109c3565b604080516060810182526000808252602082018190529181019190915260408051606081018252600080825260208201819052918101919091526000610a476020856118db565b9050610ae68160038054610a5a9061197d565b80601f0160208091040260200160405190810160405280929190818152602001828054610a869061197d565b8015610ad35780601f10610aa857610100808354040283529160200191610ad3565b820191906000526020600020905b815481529060010190602001808311610ab657829003601f168201915b50505050506110ae90919063ffffffff16565b67ffffffffffffffff168252610b0d610b00826008611888565b60038054610a5a9061197d565b67ffffffffffffffff166020830152610bc3610b2a826010611888565b60038054610b379061197d565b80601f0160208091040260200160405190810160405280929190818152602001828054610b639061197d565b8015610bb05780601f10610b8557610100808354040283529160200191610bb0565b820191906000526020600020905b815481529060010190602001808311610b9357829003601f168201915b505050505061112e90919063ffffffff16565b6fffffffffffffffffffffffffffffffff1660408301525092915050565b3360009081527f0a53e73864620236ae8f220690a15a7e4438b7a8f9a5aa637c07161427083d2b6020526040902054829060ff1680610c3557503373ffffffffffffffffffffffffffffffffffffffff8216145b610c9b576040517f08c379a000000000000000000000000000000000000000000000000000000000815260206004820152601d60248201527f6d7573742062652070726f6475636572206f662064656c656761746f72000000604482015260640161052d565b73ffffffffffffffffffffffffffffffffffffffff83811660008181526001602052604080822080547fffffffffffffffffffffffff0000000000000000000000000000000000000000169487169485179055517f0615eabcfb1b8be975ad51b1d48d4170e825e942374f4017619310ca8baa2b8e9190a3505050565b3360009081527ff42cf6f079dae9a1c4905bf4a189ed49c3efccf20a4af60f202bafa7d7d85a03602052604090205460ff16610db0576040517f08c379a000000000000000000000000000000000000000000000000000000000815260206004820152600b60248201527f6d75737420626520676f76000000000000000000000000000000000000000000604482015260640161052d565b8051610dc39060039060208401906113f8565b506040517f278f09c68d571c125592b8e05ea92a9ab405c042bc8f8aa2eced5d44c918fb4490600090a150565b600082815260208190526040902060010154610e0c8133610e37565b6108478383610ff7565b6000602060038054610e279061197d565b610e329291506118a0565b905090565b60008281526020818152604080832073ffffffffffffffffffffffffffffffffffffffff8516845290915290205460ff1661067d57610e8d8173ffffffffffffffffffffffffffffffffffffffff1660146111ae565b610e988360206111ae565b604051602001610ea9929190611767565b604080517fffffffffffffffffffffffffffffffffffffffffffffffffffffffffffffffe0818403018152908290527f08c379a000000000000000000000000000000000000000000000000000000000825261052d916004016117e8565b60008281526020818152604080832073ffffffffffffffffffffffffffffffffffffffff8516845290915290205460ff1661067d5760008281526020818152604080832073ffffffffffffffffffffffffffffffffffffffff85168452909152902080547fffffffffffffffffffffffffffffffffffffffffffffffffffffffffffffff00166001179055610f993390565b73ffffffffffffffffffffffffffffffffffffffff168173ffffffffffffffffffffffffffffffffffffffff16837f2f8788117e7eff1d82e926ec794901d17c78024a50270940304540a733656f0d60405160405180910390a45050565b60008281526020818152604080832073ffffffffffffffffffffffffffffffffffffffff8516845290915290205460ff161561067d5760008281526020818152604080832073ffffffffffffffffffffffffffffffffffffffff8516808552925280832080547fffffffffffffffffffffffffffffffffffffffffffffffffffffffffffffff0016905551339285917ff6391f5c32d9c69d2a47ea670b442974b53935d1edc7fd64eb21e047a839171b9190a45050565b60006110bb826008611888565b83511015611125576040517f08c379a000000000000000000000000000000000000000000000000000000000815260206004820152601460248201527f746f55696e7436345f6f75744f66426f756e6473000000000000000000000000604482015260640161052d565b50016008015190565b600061113b826010611888565b835110156111a5576040517f08c379a000000000000000000000000000000000000000000000000000000000815260206004820152601560248201527f746f55696e743132385f6f75744f66426f756e64730000000000000000000000604482015260640161052d565b50016010015190565b606060006111bd8360026118db565b6111c8906002611888565b67ffffffffffffffff8111156111e0576111e0611a68565b6040519080825280601f01601f19166020018201604052801561120a576020820181803683370190505b5090507f30000000000000000000000000000000000000000000000000000000000000008160008151811061124157611241611a39565b60200101907effffffffffffffffffffffffffffffffffffffffffffffffffffffffffffff1916908160001a9053507f7800000000000000000000000000000000000000000000000000000000000000816001815181106112a4576112a4611a39565b60200101907effffffffffffffffffffffffffffffffffffffffffffffffffffffffffffff1916908160001a90535060006112e08460026118db565b6112eb906001611888565b90505b6001811115611388577f303132333435363738396162636465660000000000000000000000000000000085600f166010811061132c5761132c611a39565b1a60f81b82828151811061134257611342611a39565b60200101907effffffffffffffffffffffffffffffffffffffffffffffffffffffffffffff1916908160001a90535060049490941c9361138181611948565b90506112ee565b5083156113f1576040517f08c379a000000000000000000000000000000000000000000000000000000000815260206004820181905260248201527f537472696e67733a20686578206c656e67746820696e73756666696369656e74604482015260640161052d565b9392505050565b8280546114049061197d565b90600052602060002090601f016020900481019282611426576000855561146c565b82601f1061143f57805160ff191683800117855561146c565b8280016001018555821561146c579182015b8281111561146c578251825591602001919060010190611451565b5061147892915061147c565b5090565b5b80821115611478576000815560010161147d565b803573ffffffffffffffffffffffffffffffffffffffff811681146114b557600080fd5b919050565b600082601f8301126114cb57600080fd5b8135602067ffffffffffffffff8211156114e7576114e7611a68565b8160051b6114f6828201611839565b83815282810190868401838801850189101561151157600080fd5b600093505b8584101561153b5761152781611491565b835260019390930192918401918401611516565b50979650505050505050565b60006020828403121561155957600080fd5b6113f182611491565b6000806040838503121561157557600080fd5b61157e83611491565b915061158c60208401611491565b90509250929050565b6000602082840312156115a757600080fd5b813567ffffffffffffffff8111156115be57600080fd5b6115ca848285016114ba565b949350505050565b600080604083850312156115e557600080fd5b823567ffffffffffffffff808211156115fd57600080fd5b611609868387016114ba565b9350602085013591508082111561161f57600080fd5b5061162c858286016114ba565b9150509250929050565b60006020828403121561164857600080fd5b5035919050565b6000806040838503121561166257600080fd5b8235915061158c60208401611491565b60006020828403121561168457600080fd5b81357fffffffff00000000000000000000000000000000000000000000000000000000811681146113f157600080fd5b600060208083850312156116c757600080fd5b823567ffffffffffffffff808211156116df57600080fd5b818501915085601f8301126116f357600080fd5b81358181111561170557611705611a68565b611735847fffffffffffffffffffffffffffffffffffffffffffffffffffffffffffffffe0601f84011601611839565b9150808252868482850101111561174b57600080fd5b8084840185840137600090820190930192909252509392505050565b7f416363657373436f6e74726f6c3a206163636f756e742000000000000000000081526000835161179f816017850160208801611918565b7f206973206d697373696e6720726f6c652000000000000000000000000000000060179184019182015283516117dc816028840160208801611918565b01602801949350505050565b6020815260008251806020840152611807816040850160208701611918565b601f017fffffffffffffffffffffffffffffffffffffffffffffffffffffffffffffffe0169190910160400192915050565b604051601f82017fffffffffffffffffffffffffffffffffffffffffffffffffffffffffffffffe016810167ffffffffffffffff8111828210171561188057611880611a68565b604052919050565b6000821982111561189b5761189b611a0a565b500190565b6000826118d6577f4e487b7100000000000000000000000000000000000000000000000000000000600052601260045260246000fd5b500490565b6000817fffffffffffffffffffffffffffffffffffffffffffffffffffffffffffffffff048311821515161561191357611913611a0a565b500290565b60005b8381101561193357818101518382015260200161191b565b83811115611942576000848401525b50505050565b60008161195757611957611a0a565b507fffffffffffffffffffffffffffffffffffffffffffffffffffffffffffffffff0190565b600181811c9082168061199157607f821691505b602082108114156119cb577f4e487b7100000000000000000000000000000000000000000000000000000000600052602260045260246000fd5b50919050565b60007fffffffffffffffffffffffffffffffffffffffffffffffffffffffffffffffff821415611a0357611a03611a0a565b5060010190565b7f4e487b7100000000000000000000000000000000000000000000000000000000600052601160045260246000fd5b7f4e487b7100000000000000000000000000000000000000000000000000000000600052603260045260246000fd5b7f4e487b7100000000000000000000000000000000000000000000000000000000600052604160045260246000fdfea26469706673582212201eb18b54630b161578e2a80d191779a5dd8cb9c9d349693c30785e8eaa8b2f7b64736f6c63430008060033",
  "devdoc": {
    "kind": "dev",
    "methods": {
      "getRoleAdmin(bytes32)": {
        "details": "Returns the admin role that controls `role`. See {grantRole} and {revokeRole}. To change a role's admin, use {_setRoleAdmin}."
      },
      "grantRole(bytes32,address)": {
        "details": "Grants `role` to `account`. If `account` had not been already granted `role`, emits a {RoleGranted} event. Requirements: - the caller must have ``role``'s admin role."
      },
      "hasRole(bytes32,address)": {
        "details": "Returns `true` if `account` has been granted `role`."
      },
      "renounceRole(bytes32,address)": {
        "details": "Revokes `role` from the calling account. Roles are often managed via {grantRole} and {revokeRole}: this function's purpose is to provide a mechanism for accounts to lose their privileges if they are compromised (such as when a trusted device is misplaced). If the calling account had been granted `role`, emits a {RoleRevoked} event. Requirements: - the caller must be `account`."
      },
      "revokeRole(bytes32,address)": {
        "details": "Revokes `role` from `account`. If `account` had been granted `role`, emits a {RoleRevoked} event. Requirements: - the caller must have ``role``'s admin role."
      },
      "supportsInterface(bytes4)": {
        "details": "See {IERC165-supportsInterface}."
      }
    },
    "version": 1
  },
  "userdoc": {
    "kind": "user",
    "methods": {
      "DELEGATOR_ROLE()": {
        "notice": "Admin delegator role"
      },
      "GOV_ROLE()": {
        "notice": "Admin governance role"
      }
    },
    "version": 1
  },
  "storageLayout": {
    "storage": [
      {
        "astId": 8055,
        "contract": "contracts/DistributorGovernance.sol:DistributorGovernance",
        "label": "_roles",
        "offset": 0,
        "slot": "0",
        "type": "t_mapping(t_bytes32,t_struct(RoleData)8050_storage)"
      },
      {
        "astId": 28,
        "contract": "contracts/DistributorGovernance.sol:DistributorGovernance",
        "label": "rewardCollector",
        "offset": 0,
        "slot": "1",
        "type": "t_mapping(t_address,t_address)"
      },
      {
        "astId": 33,
        "contract": "contracts/DistributorGovernance.sol:DistributorGovernance",
        "label": "blockProducer",
        "offset": 0,
        "slot": "2",
        "type": "t_mapping(t_address,t_bool)"
      },
      {
        "astId": 35,
        "contract": "contracts/DistributorGovernance.sol:DistributorGovernance",
        "label": "_rewardSchedule",
        "offset": 0,
        "slot": "3",
        "type": "t_bytes_storage"
      }
    ],
    "types": {
      "t_address": {
        "encoding": "inplace",
        "label": "address",
        "numberOfBytes": "20"
      },
      "t_bool": {
        "encoding": "inplace",
        "label": "bool",
        "numberOfBytes": "1"
      },
      "t_bytes32": {
        "encoding": "inplace",
        "label": "bytes32",
        "numberOfBytes": "32"
      },
      "t_bytes_storage": {
        "encoding": "bytes",
        "label": "bytes",
        "numberOfBytes": "32"
      },
      "t_mapping(t_address,t_address)": {
        "encoding": "mapping",
        "key": "t_address",
        "label": "mapping(address => address)",
        "numberOfBytes": "32",
        "value": "t_address"
      },
      "t_mapping(t_address,t_bool)": {
        "encoding": "mapping",
        "key": "t_address",
        "label": "mapping(address => bool)",
        "numberOfBytes": "32",
        "value": "t_bool"
      },
      "t_mapping(t_bytes32,t_struct(RoleData)8050_storage)": {
        "encoding": "mapping",
        "key": "t_bytes32",
        "label": "mapping(bytes32 => struct AccessControl.RoleData)",
        "numberOfBytes": "32",
        "value": "t_struct(RoleData)8050_storage"
      },
      "t_struct(RoleData)8050_storage": {
        "encoding": "inplace",
        "label": "struct AccessControl.RoleData",
        "members": [
          {
            "astId": 8047,
            "contract": "contracts/DistributorGovernance.sol:DistributorGovernance",
            "label": "members",
            "offset": 0,
            "slot": "0",
            "type": "t_mapping(t_address,t_bool)"
          },
          {
            "astId": 8049,
            "contract": "contracts/DistributorGovernance.sol:DistributorGovernance",
            "label": "adminRole",
            "offset": 0,
            "slot": "1",
            "type": "t_bytes32"
          }
        ],
        "numberOfBytes": "64"
      }
    }
  }
}