{
  "address": "0xAEC2330EAC8d786c68c89955863BAA220B35f3f6",
  "abi": [
    {
      "inputs": [],
      "stateMutability": "nonpayable",
      "type": "constructor"
    },
    {
      "anonymous": false,
      "inputs": [
        {
          "indexed": true,
          "internalType": "address",
          "name": "oldAdmin",
          "type": "address"
        },
        {
          "indexed": true,
          "internalType": "address",
          "name": "newAdmin",
          "type": "address"
        }
      ],
      "name": "AdminChanged",
      "type": "event"
    },
    {
      "anonymous": false,
      "inputs": [
        {
          "indexed": true,
          "internalType": "address",
          "name": "oldEdenNetworkProxy",
          "type": "address"
        },
        {
          "indexed": true,
          "internalType": "address",
          "name": "newEdenNetworkProxy",
          "type": "address"
        }
      ],
      "name": "EdenNetworkProxyChanged",
      "type": "event"
    },
    {
      "inputs": [],
      "name": "admin",
      "outputs": [
        {
          "internalType": "address",
          "name": "",
          "type": "address"
        }
      ],
      "stateMutability": "view",
      "type": "function"
    },
    {
      "inputs": [],
      "name": "edenNetworkProxy",
      "outputs": [
        {
          "internalType": "address",
          "name": "",
          "type": "address"
        }
      ],
      "stateMutability": "view",
      "type": "function"
    },
    {
      "inputs": [],
      "name": "getProxyAdmin",
      "outputs": [
        {
          "internalType": "address",
          "name": "",
          "type": "address"
        }
      ],
      "stateMutability": "view",
      "type": "function"
    },
    {
      "inputs": [],
      "name": "getProxyImplementation",
      "outputs": [
        {
          "internalType": "address",
          "name": "",
          "type": "address"
        }
      ],
      "stateMutability": "view",
      "type": "function"
    },
    {
      "inputs": [
        {
          "internalType": "address",
          "name": "_edenNetworkProxy",
          "type": "address"
        },
        {
          "internalType": "address",
          "name": "_admin",
          "type": "address"
        }
      ],
      "name": "initialize",
      "outputs": [],
      "stateMutability": "nonpayable",
      "type": "function"
    },
    {
      "inputs": [
        {
          "internalType": "address",
          "name": "newAdmin",
          "type": "address"
        }
      ],
      "name": "setAdmin",
      "outputs": [],
      "stateMutability": "nonpayable",
      "type": "function"
    },
    {
      "inputs": [
        {
          "internalType": "address",
          "name": "newEdenNetworkProxy",
          "type": "address"
        }
      ],
      "name": "setEdenNetworkProxy",
      "outputs": [],
      "stateMutability": "nonpayable",
      "type": "function"
    },
    {
      "inputs": [
        {
          "internalType": "address",
          "name": "newAdmin",
          "type": "address"
        }
      ],
      "name": "setProxyAdmin",
      "outputs": [],
      "stateMutability": "nonpayable",
      "type": "function"
    },
    {
      "inputs": [
        {
          "internalType": "address",
          "name": "newImplementation",
          "type": "address"
        }
      ],
      "name": "upgrade",
      "outputs": [],
      "stateMutability": "nonpayable",
      "type": "function"
    },
    {
      "inputs": [
        {
          "internalType": "address",
          "name": "newImplementation",
          "type": "address"
        },
        {
          "internalType": "bytes",
          "name": "data",
          "type": "bytes"
        }
      ],
      "name": "upgradeAndCall",
      "outputs": [],
      "stateMutability": "payable",
      "type": "function"
    }
  ],
  "transactionHash": "0x2974b374fb6db3198bf170561e372520fe3d1d76835b248dff99a8601ede9404",
  "args": [],
  "solcInputHash": "25652fa7cefe72deed3db64da926a067",
  "bytecode": "0x608060405234801561001057600080fd5b506000805462010000600160b01b031916336201000081029190911782556040519091907f7e644d79422f17c01e4894b5f4f588d331ebfa28653d42ae832dc59e38c9798f908290a361103b806100686000396000f3fe6080604052600436106100b15760003560e01c80638b3240a011610069578063f16708861161004e578063f16708861461019e578063f6752e6c146101be578063f851a440146101eb57600080fd5b80638b3240a01461014b57806390e4b7201461018957600080fd5b806347c026611161009a57806347c02661146100eb578063485cc9551461010b578063704b6c021461012b57600080fd5b80630900f010146100b65780632a6a833b146100d8575b600080fd5b3480156100c257600080fd5b506100d66100d1366004610d9b565b61021e565b005b6100d66100e6366004610e15565b610407565b3480156100f757600080fd5b506100d6610106366004610d9b565b6105f3565b34801561011757600080fd5b506100d6610126366004610ddc565b6107d3565b34801561013757600080fd5b506100d6610146366004610d9b565b610a62565b34801561015757600080fd5b50610160610b82565b60405173ffffffffffffffffffffffffffffffffffffffff909116815260200160405180910390f35b34801561019557600080fd5b50610160610c37565b3480156101aa57600080fd5b506100d66101b9366004610d9b565b610c86565b3480156101ca57600080fd5b506001546101609073ffffffffffffffffffffffffffffffffffffffff1681565b3480156101f757600080fd5b506000546101609062010000900473ffffffffffffffffffffffffffffffffffffffff1681565b60005462010000900473ffffffffffffffffffffffffffffffffffffffff1633146102aa576040517f08c379a000000000000000000000000000000000000000000000000000000000815260206004820152600960248201527f6e6f742061646d696e000000000000000000000000000000000000000000000060448201526064015b60405180910390fd5b60015460405173ffffffffffffffffffffffffffffffffffffffff83811660248301526000921690604401604080517fffffffffffffffffffffffffffffffffffffffffffffffffffffffffffffffe08184030181529181526020820180517bffffffffffffffffffffffffffffffffffffffffffffffffffffffff167f3659cfe600000000000000000000000000000000000000000000000000000000179052516103569190610ef7565b6000604051808303816000865af19150503d8060008114610393576040519150601f19603f3d011682016040523d82523d6000602084013e610398565b606091505b5050905080610403576040517f08c379a000000000000000000000000000000000000000000000000000000000815260206004820152600e60248201527f75706772616465206661696c656400000000000000000000000000000000000060448201526064016102a1565b5050565b60005462010000900473ffffffffffffffffffffffffffffffffffffffff16331461048e576040517f08c379a000000000000000000000000000000000000000000000000000000000815260206004820152600960248201527f6e6f742061646d696e000000000000000000000000000000000000000000000060448201526064016102a1565b60015460405160009173ffffffffffffffffffffffffffffffffffffffff169034906104c09086908690602401610f13565b604080517fffffffffffffffffffffffffffffffffffffffffffffffffffffffffffffffe08184030181529181526020820180517bffffffffffffffffffffffffffffffffffffffffffffffffffffffff167f4f1ef28600000000000000000000000000000000000000000000000000000000179052516105419190610ef7565b60006040518083038185875af1925050503d806000811461057e576040519150601f19603f3d011682016040523d82523d6000602084013e610583565b606091505b50509050806105ee576040517f08c379a000000000000000000000000000000000000000000000000000000000815260206004820152601560248201527f75706772616465416e6443616c6c206661696c6564000000000000000000000060448201526064016102a1565b505050565b60005462010000900473ffffffffffffffffffffffffffffffffffffffff16331461067a576040517f08c379a000000000000000000000000000000000000000000000000000000000815260206004820152600960248201527f6e6f742061646d696e000000000000000000000000000000000000000000000060448201526064016102a1565b60015460405173ffffffffffffffffffffffffffffffffffffffff83811660248301526000921690604401604080517fffffffffffffffffffffffffffffffffffffffffffffffffffffffffffffffe08184030181529181526020820180517bffffffffffffffffffffffffffffffffffffffffffffffffffffffff167f8f28397000000000000000000000000000000000000000000000000000000000179052516107269190610ef7565b6000604051808303816000865af19150503d8060008114610763576040519150601f19603f3d011682016040523d82523d6000602084013e610768565b606091505b5050905080610403576040517f08c379a000000000000000000000000000000000000000000000000000000000815260206004820152601460248201527f73657450726f787941646d696e206661696c656400000000000000000000000060448201526064016102a1565b600054610100900460ff16806107ec575060005460ff16155b610878576040517f08c379a000000000000000000000000000000000000000000000000000000000815260206004820152602e60248201527f496e697469616c697a61626c653a20636f6e747261637420697320616c72656160448201527f647920696e697469616c697a656400000000000000000000000000000000000060648201526084016102a1565b600054610100900460ff161580156108b757600080547fffffffffffffffffffffffffffffffffffffffffffffffffffffffffffff0000166101011790555b60005462010000900473ffffffffffffffffffffffffffffffffffffffff16331461093e576040517f08c379a000000000000000000000000000000000000000000000000000000000815260206004820152600960248201527f6e6f742061646d696e000000000000000000000000000000000000000000000060448201526064016102a1565b6000805460405173ffffffffffffffffffffffffffffffffffffffff808616936201000090930416917f7e644d79422f17c01e4894b5f4f588d331ebfa28653d42ae832dc59e38c9798f91a36000805473ffffffffffffffffffffffffffffffffffffffff80851662010000027fffffffffffffffffffff0000000000000000000000000000000000000000ffff909216919091178255600180549186167fffffffffffffffffffffffff0000000000000000000000000000000000000000909216821790556040519091907f8373d66f353a1c04bf00fefa417d400cd22b0c1ed46832f1b765ebc55b03c439908290a380156105ee57600080547fffffffffffffffffffffffffffffffffffffffffffffffffffffffffffff00ff169055505050565b60005462010000900473ffffffffffffffffffffffffffffffffffffffff163314610ae9576040517f08c379a000000000000000000000000000000000000000000000000000000000815260206004820152600960248201527f6e6f742061646d696e000000000000000000000000000000000000000000000060448201526064016102a1565b6000805460405173ffffffffffffffffffffffffffffffffffffffff808516936201000090930416917f7e644d79422f17c01e4894b5f4f588d331ebfa28653d42ae832dc59e38c9798f91a36000805473ffffffffffffffffffffffffffffffffffffffff90921662010000027fffffffffffffffffffff0000000000000000000000000000000000000000ffff909216919091179055565b6001546040517ff851a4400000000000000000000000000000000000000000000000000000000081526000918291829173ffffffffffffffffffffffffffffffffffffffff16906004015b600060405180830381855afa9150503d8060008114610c08576040519150601f19603f3d011682016040523d82523d6000602084013e610c0d565b606091505b509150915081610c1c57600080fd5b80806020019051810190610c309190610dbf565b9250505090565b6001546040517f5c60da1b0000000000000000000000000000000000000000000000000000000081526000918291829173ffffffffffffffffffffffffffffffffffffffff1690600401610bcd565b60005462010000900473ffffffffffffffffffffffffffffffffffffffff163314610d0d576040517f08c379a000000000000000000000000000000000000000000000000000000000815260206004820152600960248201527f6e6f742061646d696e000000000000000000000000000000000000000000000060448201526064016102a1565b60015460405173ffffffffffffffffffffffffffffffffffffffff8084169216907f8373d66f353a1c04bf00fefa417d400cd22b0c1ed46832f1b765ebc55b03c43990600090a3600180547fffffffffffffffffffffffff00000000000000000000000000000000000000001673ffffffffffffffffffffffffffffffffffffffff92909216919091179055565b600060208284031215610dad57600080fd5b8135610db881610fe0565b9392505050565b600060208284031215610dd157600080fd5b8151610db881610fe0565b60008060408385031215610def57600080fd5b8235610dfa81610fe0565b91506020830135610e0a81610fe0565b809150509250929050565b60008060408385031215610e2857600080fd5b8235610e3381610fe0565b9150602083013567ffffffffffffffff80821115610e5057600080fd5b818501915085601f830112610e6457600080fd5b813581811115610e7657610e76610fb1565b604051601f82017fffffffffffffffffffffffffffffffffffffffffffffffffffffffffffffffe0908116603f01168101908382118183101715610ebc57610ebc610fb1565b81604052828152886020848701011115610ed557600080fd5b8260208601602083013760006020848301015280955050505050509250929050565b60008251610f09818460208701610f81565b9190910192915050565b73ffffffffffffffffffffffffffffffffffffffff831681526040602082015260008251806040840152610f4e816060850160208701610f81565b601f017fffffffffffffffffffffffffffffffffffffffffffffffffffffffffffffffe016919091016060019392505050565b60005b83811015610f9c578181015183820152602001610f84565b83811115610fab576000848401525b50505050565b7f4e487b7100000000000000000000000000000000000000000000000000000000600052604160045260246000fd5b73ffffffffffffffffffffffffffffffffffffffff8116811461100257600080fd5b5056fea2646970667358221220c63e4ac45791c86a26591dc0ccc7a19e9da1cf28df22ae0799ce2a91007682ce64736f6c63430008060033",
  "devdoc": {
    "kind": "dev",
    "methods": {
      "initialize(address,address)": {
        "params": {
          "_admin": "Admin address",
          "_edenNetworkProxy": "EdenNetwork proxy contract address"
        }
      },
      "setAdmin(address)": {
        "details": "Can only be executed by admin",
        "params": {
          "newAdmin": "new admin address"
        }
      },
      "setEdenNetworkProxy(address)": {
        "details": "Can only be executed by admin",
        "params": {
          "newEdenNetworkProxy": "new Eden Network proxy address"
        }
      },
      "setProxyAdmin(address)": {
        "params": {
          "newAdmin": "new admin address"
        }
      },
      "upgrade(address)": {
        "params": {
          "newImplementation": "new implementation address"
        }
      },
      "upgradeAndCall(address,bytes)": {
        "params": {
          "data": "Bytes-encoded function to call",
          "newImplementation": "new implementation address"
        }
      }
    },
    "title": "EdenNetworkManager",
    "version": 1
  },
  "userdoc": {
    "events": {
      "AdminChanged(address,address)": {
        "notice": "New admin event"
      },
      "EdenNetworkProxyChanged(address,address)": {
        "notice": "New Eden Network proxy event"
      }
    },
    "kind": "user",
    "methods": {
      "admin()": {
        "notice": "EdenNetworkManager admin"
      },
      "constructor": {
        "notice": "Construct new EdenNetworkManager contract, setting msg.sender as admin"
      },
      "edenNetworkProxy()": {
        "notice": "EdenNetworkProxy address"
      },
      "getProxyAdmin()": {
        "notice": "Public getter for EdenNetwork Proxy admin address"
      },
      "getProxyImplementation()": {
        "notice": "Public getter for EdenNetwork Proxy implementation contract address"
      },
      "initialize(address,address)": {
        "notice": "Initialize contract"
      },
      "setAdmin(address)": {
        "notice": "Set new admin for this contract"
      },
      "setEdenNetworkProxy(address)": {
        "notice": "Set new Eden Network proxy contract"
      },
      "setProxyAdmin(address)": {
        "notice": "Set new admin for EdenNetwork proxy contract"
      },
      "upgrade(address)": {
        "notice": "Set new implementation for EdenNetwork proxy contract"
      },
      "upgradeAndCall(address,bytes)": {
        "notice": "Set new implementation for EdenNetwork proxy contract + call function after"
      }
    },
    "version": 1
  },
  "storageLayout": {
    "storage": [
      {
        "astId": 13091,
        "contract": "contracts/EdenNetworkManager.sol:EdenNetworkManager",
        "label": "_initialized",
        "offset": 0,
        "slot": "0",
        "type": "t_bool"
      },
      {
        "astId": 13094,
        "contract": "contracts/EdenNetworkManager.sol:EdenNetworkManager",
        "label": "_initializing",
        "offset": 1,
        "slot": "0",
        "type": "t_bool"
      },
      {
        "astId": 1504,
        "contract": "contracts/EdenNetworkManager.sol:EdenNetworkManager",
        "label": "admin",
        "offset": 2,
        "slot": "0",
        "type": "t_address"
      },
      {
        "astId": 1507,
        "contract": "contracts/EdenNetworkManager.sol:EdenNetworkManager",
        "label": "edenNetworkProxy",
        "offset": 0,
        "slot": "1",
        "type": "t_address"
      }
    ],
    "types": {
      "t_address": {
        "encoding": "inplace",
        "label": "address",
        "numberOfBytes": "20"
      },
      "t_bool": {
        "encoding": "inplace",
        "label": "bool",
        "numberOfBytes": "1"
      }
    }
  }
}