{
  "address": "0x1783532EE8469F14f876eFD03EBbFFccc548D41b",
  "abi": [
    {
      "anonymous": false,
      "inputs": [
        {
          "indexed": true,
          "internalType": "address",
          "name": "newAdmin",
          "type": "address"
        },
        {
          "indexed": true,
          "internalType": "address",
          "name": "oldAdmin",
          "type": "address"
        }
      ],
      "name": "AdminUpdated",
      "type": "event"
    },
    {
      "anonymous": false,
      "inputs": [
        {
          "indexed": true,
          "internalType": "uint8",
          "name": "slot",
          "type": "uint8"
        },
        {
          "indexed": true,
          "internalType": "address",
          "name": "owner",
          "type": "address"
        },
        {
          "indexed": true,
          "internalType": "address",
          "name": "delegate",
          "type": "address"
        },
        {
          "indexed": false,
          "internalType": "uint128",
          "name": "newBidAmount",
          "type": "uint128"
        },
        {
          "indexed": false,
          "internalType": "uint128",
          "name": "oldBidAmount",
          "type": "uint128"
        },
        {
          "indexed": false,
          "internalType": "uint16",
          "name": "taxNumerator",
          "type": "uint16"
        },
        {
          "indexed": false,
          "internalType": "uint16",
          "name": "taxDenominator",
          "type": "uint16"
        }
      ],
      "name": "SlotClaimed",
      "type": "event"
    },
    {
      "anonymous": false,
      "inputs": [
        {
          "indexed": true,
          "internalType": "uint8",
          "name": "slot",
          "type": "uint8"
        },
        {
          "indexed": true,
          "internalType": "address",
          "name": "owner",
          "type": "address"
        },
        {
          "indexed": true,
          "internalType": "address",
          "name": "newDelegate",
          "type": "address"
        },
        {
          "indexed": false,
          "internalType": "address",
          "name": "oldDelegate",
          "type": "address"
        }
      ],
      "name": "SlotDelegateUpdated",
      "type": "event"
    },
    {
      "anonymous": false,
      "inputs": [
        {
          "indexed": true,
          "internalType": "address",
          "name": "staker",
          "type": "address"
        },
        {
          "indexed": false,
          "internalType": "uint256",
          "name": "stakeAmount",
          "type": "uint256"
        }
      ],
      "name": "Stake",
      "type": "event"
    },
    {
      "anonymous": false,
      "inputs": [
        {
          "indexed": false,
          "internalType": "uint16",
          "name": "newNumerator",
          "type": "uint16"
        },
        {
          "indexed": false,
          "internalType": "uint16",
          "name": "newDenominator",
          "type": "uint16"
        },
        {
          "indexed": false,
          "internalType": "uint16",
          "name": "oldNumerator",
          "type": "uint16"
        },
        {
          "indexed": false,
          "internalType": "uint16",
          "name": "oldDenominator",
          "type": "uint16"
        }
      ],
      "name": "TaxRateUpdated",
      "type": "event"
    },
    {
      "anonymous": false,
      "inputs": [
        {
          "indexed": true,
          "internalType": "address",
          "name": "staker",
          "type": "address"
        },
        {
          "indexed": false,
          "internalType": "uint256",
          "name": "unstakedAmount",
          "type": "uint256"
        }
      ],
      "name": "Unstake",
      "type": "event"
    },
    {
      "anonymous": false,
      "inputs": [
        {
          "indexed": true,
          "internalType": "address",
          "name": "withdrawer",
          "type": "address"
        },
        {
          "indexed": false,
          "internalType": "uint256",
          "name": "withdrawalAmount",
          "type": "uint256"
        }
      ],
      "name": "Withdraw",
      "type": "event"
    },
    {
      "inputs": [],
      "name": "MIN_BID",
      "outputs": [
        {
          "internalType": "uint128",
          "name": "",
          "type": "uint128"
        }
      ],
      "stateMutability": "view",
      "type": "function"
    },
    {
      "inputs": [],
      "name": "admin",
      "outputs": [
        {
          "internalType": "address",
          "name": "",
          "type": "address"
        }
      ],
      "stateMutability": "view",
      "type": "function"
    },
    {
      "inputs": [
        {
          "internalType": "uint8",
          "name": "slot",
          "type": "uint8"
        },
        {
          "internalType": "uint128",
          "name": "bid",
          "type": "uint128"
        },
        {
          "internalType": "address",
          "name": "delegate",
          "type": "address"
        }
      ],
      "name": "claimSlot",
      "outputs": [],
      "stateMutability": "nonpayable",
      "type": "function"
    },
    {
      "inputs": [
        {
          "internalType": "uint8",
          "name": "slot",
          "type": "uint8"
        },
        {
          "internalType": "uint128",
          "name": "bid",
          "type": "uint128"
        },
        {
          "internalType": "address",
          "name": "delegate",
          "type": "address"
        },
        {
          "internalType": "uint256",
          "name": "deadline",
          "type": "uint256"
        },
        {
          "internalType": "uint8",
          "name": "v",
          "type": "uint8"
        },
        {
          "internalType": "bytes32",
          "name": "r",
          "type": "bytes32"
        },
        {
          "internalType": "bytes32",
          "name": "s",
          "type": "bytes32"
        }
      ],
      "name": "claimSlotWithPermit",
      "outputs": [],
      "stateMutability": "nonpayable",
      "type": "function"
    },
    {
      "inputs": [
        {
          "internalType": "contract IERC20Extended",
          "name": "_token",
          "type": "address"
        },
        {
          "internalType": "contract ILockManager",
          "name": "_lockManager",
          "type": "address"
        },
        {
          "internalType": "address",
          "name": "_admin",
          "type": "address"
        },
        {
          "internalType": "uint16",
          "name": "_taxNumerator",
          "type": "uint16"
        },
        {
          "internalType": "uint16",
          "name": "_taxDenominator",
          "type": "uint16"
        }
      ],
      "name": "initialize",
      "outputs": [],
      "stateMutability": "nonpayable",
      "type": "function"
    },
    {
      "inputs": [],
      "name": "lockManager",
      "outputs": [
        {
          "internalType": "contract ILockManager",
          "name": "",
          "type": "address"
        }
      ],
      "stateMutability": "view",
      "type": "function"
    },
    {
      "inputs": [
        {
          "internalType": "address",
          "name": "",
          "type": "address"
        }
      ],
      "name": "lockedBalance",
      "outputs": [
        {
          "internalType": "uint128",
          "name": "",
          "type": "uint128"
        }
      ],
      "stateMutability": "view",
      "type": "function"
    },
    {
      "inputs": [
        {
          "internalType": "address",
          "name": "newAdmin",
          "type": "address"
        }
      ],
      "name": "setAdmin",
      "outputs": [],
      "stateMutability": "nonpayable",
      "type": "function"
    },
    {
      "inputs": [
        {
          "internalType": "uint8",
          "name": "slot",
          "type": "uint8"
        },
        {
          "internalType": "address",
          "name": "delegate",
          "type": "address"
        }
      ],
      "name": "setSlotDelegate",
      "outputs": [],
      "stateMutability": "nonpayable",
      "type": "function"
    },
    {
      "inputs": [
        {
          "internalType": "uint16",
          "name": "numerator",
          "type": "uint16"
        },
        {
          "internalType": "uint16",
          "name": "denominator",
          "type": "uint16"
        }
      ],
      "name": "setTaxRate",
      "outputs": [],
      "stateMutability": "nonpayable",
      "type": "function"
    },
    {
      "inputs": [
        {
          "internalType": "uint8",
          "name": "slot",
          "type": "uint8"
        }
      ],
      "name": "slotBalance",
      "outputs": [
        {
          "internalType": "uint128",
          "name": "balance",
          "type": "uint128"
        }
      ],
      "stateMutability": "view",
      "type": "function"
    },
    {
      "inputs": [
        {
          "internalType": "uint8",
          "name": "",
          "type": "uint8"
        }
      ],
      "name": "slotBid",
      "outputs": [
        {
          "internalType": "address",
          "name": "bidder",
          "type": "address"
        },
        {
          "internalType": "uint16",
          "name": "taxNumerator",
          "type": "uint16"
        },
        {
          "internalType": "uint16",
          "name": "taxDenominator",
          "type": "uint16"
        },
        {
          "internalType": "uint64",
          "name": "periodStart",
          "type": "uint64"
        },
        {
          "internalType": "uint128",
          "name": "bidAmount",
          "type": "uint128"
        }
      ],
      "stateMutability": "view",
      "type": "function"
    },
    {
      "inputs": [
        {
          "internalType": "uint8",
          "name": "slot",
          "type": "uint8"
        }
      ],
      "name": "slotCost",
      "outputs": [
        {
          "internalType": "uint128",
          "name": "",
          "type": "uint128"
        }
      ],
      "stateMutability": "view",
      "type": "function"
    },
    {
      "inputs": [
        {
          "internalType": "uint8",
          "name": "slot",
          "type": "uint8"
        }
      ],
      "name": "slotDelegate",
      "outputs": [
        {
          "internalType": "address",
          "name": "",
          "type": "address"
        }
      ],
      "stateMutability": "view",
      "type": "function"
    },
    {
      "inputs": [
        {
          "internalType": "uint8",
          "name": "",
          "type": "uint8"
        }
      ],
      "name": "slotExpiration",
      "outputs": [
        {
          "internalType": "uint64",
          "name": "",
          "type": "uint64"
        }
      ],
      "stateMutability": "view",
      "type": "function"
    },
    {
      "inputs": [
        {
          "internalType": "uint8",
          "name": "slot",
          "type": "uint8"
        }
      ],
      "name": "slotForeclosed",
      "outputs": [
        {
          "internalType": "bool",
          "name": "",
          "type": "bool"
        }
      ],
      "stateMutability": "view",
      "type": "function"
    },
    {
      "inputs": [
        {
          "internalType": "uint8",
          "name": "slot",
          "type": "uint8"
        }
      ],
      "name": "slotOwner",
      "outputs": [
        {
          "internalType": "address",
          "name": "",
          "type": "address"
        }
      ],
      "stateMutability": "view",
      "type": "function"
    },
    {
      "inputs": [
        {
          "internalType": "uint128",
          "name": "amount",
          "type": "uint128"
        }
      ],
      "name": "stake",
      "outputs": [],
      "stateMutability": "nonpayable",
      "type": "function"
    },
    {
      "inputs": [
        {
          "internalType": "address",
          "name": "recipient",
          "type": "address"
        },
        {
          "internalType": "uint128",
          "name": "amount",
          "type": "uint128"
        }
      ],
      "name": "stakeFor",
      "outputs": [],
      "stateMutability": "nonpayable",
      "type": "function"
    },
    {
      "inputs": [
        {
          "internalType": "address",
          "name": "recipient",
          "type": "address"
        },
        {
          "internalType": "uint128",
          "name": "amount",
          "type": "uint128"
        },
        {
          "internalType": "uint256",
          "name": "deadline",
          "type": "uint256"
        },
        {
          "internalType": "uint8",
          "name": "v",
          "type": "uint8"
        },
        {
          "internalType": "bytes32",
          "name": "r",
          "type": "bytes32"
        },
        {
          "internalType": "bytes32",
          "name": "s",
          "type": "bytes32"
        }
      ],
      "name": "stakeForWithPermit",
      "outputs": [],
      "stateMutability": "nonpayable",
      "type": "function"
    },
    {
      "inputs": [
        {
          "internalType": "uint128",
          "name": "amount",
          "type": "uint128"
        },
        {
          "internalType": "uint256",
          "name": "deadline",
          "type": "uint256"
        },
        {
          "internalType": "uint8",
          "name": "v",
          "type": "uint8"
        },
        {
          "internalType": "bytes32",
          "name": "r",
          "type": "bytes32"
        },
        {
          "internalType": "bytes32",
          "name": "s",
          "type": "bytes32"
        }
      ],
      "name": "stakeWithPermit",
      "outputs": [],
      "stateMutability": "nonpayable",
      "type": "function"
    },
    {
      "inputs": [
        {
          "internalType": "address",
          "name": "",
          "type": "address"
        }
      ],
      "name": "stakedBalance",
      "outputs": [
        {
          "internalType": "uint128",
          "name": "",
          "type": "uint128"
        }
      ],
      "stateMutability": "view",
      "type": "function"
    },
    {
      "inputs": [],
      "name": "taxDenominator",
      "outputs": [
        {
          "internalType": "uint16",
          "name": "",
          "type": "uint16"
        }
      ],
      "stateMutability": "view",
      "type": "function"
    },
    {
      "inputs": [],
      "name": "taxNumerator",
      "outputs": [
        {
          "internalType": "uint16",
          "name": "",
          "type": "uint16"
        }
      ],
      "stateMutability": "view",
      "type": "function"
    },
    {
      "inputs": [],
      "name": "token",
      "outputs": [
        {
          "internalType": "contract IERC20Extended",
          "name": "",
          "type": "address"
        }
      ],
      "stateMutability": "view",
      "type": "function"
    },
    {
      "inputs": [
        {
          "internalType": "uint128",
          "name": "amount",
          "type": "uint128"
        }
      ],
      "name": "unstake",
      "outputs": [],
      "stateMutability": "nonpayable",
      "type": "function"
    },
    {
      "inputs": [
        {
          "internalType": "uint128",
          "name": "amount",
          "type": "uint128"
        }
      ],
      "name": "withdraw",
      "outputs": [],
      "stateMutability": "nonpayable",
      "type": "function"
    }
  ],
  "transactionHash": "0x095b3a6b5ec43371950fb77adee8ab6a9a924b6b413baa8dc23e5c194504382e",
  "args": [],
  "solcInputHash": "7a2115f69f3d255e163d691b1d12b71e",
  "bytecode": "0x608060405234801561001057600080fd5b50612cae806100206000396000f3fe608060405234801561001057600080fd5b50600436106101b95760003560e01c8063b9712354116100f9578063dc4fb6f111610097578063f851a44011610071578063f851a44014610594578063fba9578b146105b4578063fc0c546a146105c7578063fd1bae58146105e757600080fd5b8063dc4fb6f114610456578063dcf5337914610469578063f45afb9f1461047c57600080fd5b8063bfb099b6116100d3578063bfb099b6146103d1578063c69b6fa6146103e4578063cb41811614610427578063ce69cd201461043a57600080fd5b8063b971235414610388578063baa9bb231461039b578063bbb0d596146103be57600080fd5b8063704b6c02116101665780639ae697bf116101405780639ae697bf146102d65780639cfd7ddb14610308578063acca30a21461031b578063b361b2b51461036057600080fd5b8063704b6c021461027757806388fe2be81461028a5780639631af0b1461029d57600080fd5b8063458a1d6e11610197578063458a1d6e1461021f578063602172671461023257806370458d851461026457600080fd5b806302387a7b146101be57806305035409146101d3578063089720731461020c575b600080fd5b6101d16101cc3660046128f1565b6105fa565b005b6101e66101e136600461299d565b610857565b6040516fffffffffffffffffffffffffffffffff90911681526020015b60405180910390f35b6101e661021a36600461299d565b6109f7565b6101d161022d3660046128f1565b610b04565b6101e66102403660046127b1565b6005602052600090815260409020546fffffffffffffffffffffffffffffffff1681565b6101d16102723660046127ce565b610e15565b6101d16102853660046127b1565b610e9d565b6101d16102983660046128f1565b610fad565b6009546102c39074010000000000000000000000000000000000000000900461ffff1681565b60405161ffff9091168152602001610203565b6101e66102e43660046127b1565b6006602052600090815260409020546fffffffffffffffffffffffffffffffff1681565b6101d1610316366004612803565b611034565b60085461033b9073ffffffffffffffffffffffffffffffffffffffff1681565b60405173ffffffffffffffffffffffffffffffffffffffff9091168152602001610203565b6009546102c390760100000000000000000000000000000000000000000000900461ffff1681565b6101d16103963660046129ef565b61117f565b6103ae6103a936600461299d565b611209565b6040519015158152602001610203565b61033b6103cc36600461299d565b61123e565b6101d16103df3660046129b8565b611282565b61040e6103f236600461299d565b60016020526000908152604090205467ffffffffffffffff1681565b60405167ffffffffffffffff9091168152602001610203565b6101d161043536600461295a565b611464565b600a546101e6906fffffffffffffffffffffffffffffffff1681565b61033b61046436600461299d565b611667565b6101d161047736600461290c565b6116ab565b61053161048a36600461299d565b6004602052600090815260409020805460019091015473ffffffffffffffffffffffffffffffffffffffff82169161ffff74010000000000000000000000000000000000000000820481169276010000000000000000000000000000000000000000000083049091169167ffffffffffffffff780100000000000000000000000000000000000000000000000090910416906fffffffffffffffffffffffffffffffff1685565b6040805173ffffffffffffffffffffffffffffffffffffffff96909616865261ffff9485166020870152929093169184019190915267ffffffffffffffff1660608301526fffffffffffffffffffffffffffffffff16608082015260a001610203565b60095461033b9073ffffffffffffffffffffffffffffffffffffffff1681565b6101d16105c2366004612a36565b6117f5565b60075461033b9073ffffffffffffffffffffffffffffffffffffffff1681565b6101d16105f5366004612886565b611942565b600c54600d54141561066d576040517f08c379a000000000000000000000000000000000000000000000000000000000815260206004820152600e60248201527f7265656e7472616e742063616c6c00000000000000000000000000000000000060448201526064015b60405180910390fd5b600c54600d55336000908152600660205260409020546fffffffffffffffffffffffffffffffff80831691161015610701576040517f08c379a000000000000000000000000000000000000000000000000000000000815260206004820152601960248201527f616d6f756e74203e20756e6c6f636b65642062616c616e6365000000000000006044820152606401610664565b33600090815260066020526040812080548392906107329084906fffffffffffffffffffffffffffffffff16612bad565b82546101009290920a6fffffffffffffffffffffffffffffffff8181021990931691831602179091556007546040517fa9059cbb000000000000000000000000000000000000000000000000000000008152336004820152918416602483015273ffffffffffffffffffffffffffffffffffffffff16915063a9059cbb90604401602060405180830381600087803b1580156107cd57600080fd5b505af11580156107e1573d6000803e3d6000fd5b505050506040513d601f19601f820116820180604052508101906108059190612864565b506040516fffffffffffffffffffffffffffffffff8216815233907f884edad9ce6fa2440d8a54cc123490eb96d2768479d49ff9c7366125a9424364906020015b60405180910390a250600b54600d55565b60ff81166000908152600460209081526040808320815160a081018352815473ffffffffffffffffffffffffffffffffffffffff8116825274010000000000000000000000000000000000000000810461ffff90811695830195909552760100000000000000000000000000000000000000000000810490941692810192909252780100000000000000000000000000000000000000000000000090920467ffffffffffffffff1660608201526001909101546fffffffffffffffffffffffffffffffff16608082018190521580610933575061093383611209565b156109415750600092915050565b806060015167ffffffffffffffff16421415610961576080015192915050565b60408101516109779061ffff1662015180612b70565b816020015161ffff16826060015167ffffffffffffffff164261099a9190612bde565b83608001516fffffffffffffffffffffffffffffffff166109bb9190612b70565b6109c59190612b70565b6109cf9190612b24565b81608001516fffffffffffffffffffffffffffffffff166109f09190612bde565b9392505050565b6000610a0282611209565b15610a21575050600a546fffffffffffffffffffffffffffffffff1690565b60ff8216600090815260046020908152604091829020825160a081018452815473ffffffffffffffffffffffffffffffffffffffff8116825274010000000000000000000000000000000000000000810461ffff90811694830194909452760100000000000000000000000000000000000000000000810490931693810193909352780100000000000000000000000000000000000000000000000090910467ffffffffffffffff166060830152600101546fffffffffffffffffffffffffffffffff1660808201819052606490610afa90606e612b38565b6109f09190612af5565b600c54600d541415610b72576040517f08c379a000000000000000000000000000000000000000000000000000000000815260206004820152600e60248201527f7265656e7472616e742063616c6c0000000000000000000000000000000000006044820152606401610664565b600c54600d55336000908152600560205260409020546fffffffffffffffffffffffffffffffff80831691161015610c06576040517f08c379a000000000000000000000000000000000000000000000000000000000815260206004820152601960248201527f616d6f756e74203e20756e6c6f636b65642062616c616e6365000000000000006044820152606401610664565b6008546007546040517fbc3e1b7a00000000000000000000000000000000000000000000000000000000815233600482015273ffffffffffffffffffffffffffffffffffffffff91821660248201526fffffffffffffffffffffffffffffffff8416604482015291169063bc3e1b7a90606401602060405180830381600087803b158015610c9357600080fd5b505af1158015610ca7573d6000803e3d6000fd5b505050506040513d601f19601f82011682018060405250810190610ccb9190612984565b503360009081526005602052604081208054839290610cfd9084906fffffffffffffffffffffffffffffffff16612bad565b82546101009290920a6fffffffffffffffffffffffffffffffff8181021990931691831602179091556007546040517fa9059cbb000000000000000000000000000000000000000000000000000000008152336004820152918416602483015273ffffffffffffffffffffffffffffffffffffffff16915063a9059cbb90604401602060405180830381600087803b158015610d9857600080fd5b505af1158015610dac573d6000803e3d6000fd5b505050506040513d601f19601f82011682018060405250810190610dd09190612864565b506040516fffffffffffffffffffffffffffffffff8216815233907f85082129d87b2fe11527cb1b3b7a520aeb5aa6913f88a3d8757fe40d1db02fdd90602001610846565b600c54600d541415610e83576040517f08c379a000000000000000000000000000000000000000000000000000000000815260206004820152600e60248201527f7265656e7472616e742063616c6c0000000000000000000000000000000000006044820152606401610664565b600c54600d55610e938282611bff565b5050600b54600d55565b60095473ffffffffffffffffffffffffffffffffffffffff163314610f1e576040517f08c379a000000000000000000000000000000000000000000000000000000000815260206004820152600960248201527f6e6f742061646d696e00000000000000000000000000000000000000000000006044820152606401610664565b60095460405173ffffffffffffffffffffffffffffffffffffffff918216918316907f101b8081ff3b56bbf45deb824d86a3b0fd38b7e3dd42421105cf8abe9106db0b90600090a3600980547fffffffffffffffffffffffff00000000000000000000000000000000000000001673ffffffffffffffffffffffffffffffffffffffff92909216919091179055565b600c54600d54141561101b576040517f08c379a000000000000000000000000000000000000000000000000000000000815260206004820152600e60248201527f7265656e7472616e742063616c6c0000000000000000000000000000000000006044820152606401610664565b600c54600d5561102b3382611bff565b50600b54600d55565b600c54600d5414156110a2576040517f08c379a000000000000000000000000000000000000000000000000000000000815260206004820152600e60248201527f7265656e7472616e742063616c6c0000000000000000000000000000000000006044820152606401610664565b600c54600d556007546040517fd505accf0000000000000000000000000000000000000000000000000000000081523360048201523060248201526fffffffffffffffffffffffffffffffff871660448201526064810186905260ff8516608482015260a4810184905260c4810183905273ffffffffffffffffffffffffffffffffffffffff9091169063d505accf9060e401600060405180830381600087803b15801561114f57600080fd5b505af1158015611163573d6000803e3d6000fd5b505050506111718686611bff565b5050600b54600d5550505050565b600c54600d5414156111ed576040517f08c379a000000000000000000000000000000000000000000000000000000000815260206004820152600e60248201527f7265656e7472616e742063616c6c0000000000000000000000000000000000006044820152606401610664565b600c54600d556111fe838383611e70565b5050600b54600d5550565b60ff81166000908152600160205260408120544267ffffffffffffffff9091161161123657506001919050565b506000919050565b600061124982611209565b1561125657506000919050565b5060ff1660009081526003602052604090205473ffffffffffffffffffffffffffffffffffffffff1690565b8161128c8161123e565b73ffffffffffffffffffffffffffffffffffffffff163373ffffffffffffffffffffffffffffffffffffffff1614611320576040517f08c379a000000000000000000000000000000000000000000000000000000000815260206004820152600e60248201527f6e6f7420736c6f74206f776e65720000000000000000000000000000000000006044820152606401610664565b73ffffffffffffffffffffffffffffffffffffffff821661139d576040517f08c379a000000000000000000000000000000000000000000000000000000000815260206004820152601c60248201527f63616e6e6f742064656c656761746520746f20302061646472657373000000006044820152606401610664565b73ffffffffffffffffffffffffffffffffffffffff82163360ff85167fbd531a66556ecb9963175ca79b62cc8dee8921be91e4f1defa1f7120521818566113e387611667565b60405173ffffffffffffffffffffffffffffffffffffffff909116815260200160405180910390a45060ff91909116600090815260026020526040902080547fffffffffffffffffffffffff00000000000000000000000000000000000000001673ffffffffffffffffffffffffffffffffffffffff909216919091179055565b60095473ffffffffffffffffffffffffffffffffffffffff1633146114e5576040517f08c379a000000000000000000000000000000000000000000000000000000000815260206004820152600960248201527f6e6f742061646d696e00000000000000000000000000000000000000000000006044820152606401610664565b8161ffff168161ffff1611611556576040517f08c379a000000000000000000000000000000000000000000000000000000000815260206004820152601f60248201527f64656e6f6d696e61746f72206d757374206265203e206e756d657261746f72006044820152606401610664565b6009546040805161ffff858116825284811660208301527401000000000000000000000000000000000000000084048116828401527601000000000000000000000000000000000000000000009093049092166060830152517fc787b4548967673274fa85b2239da3b2b6352dac97c8bb296e459c3757a220509181900360800190a1600980547fffffffffffffffff00000000ffffffffffffffffffffffffffffffffffffffff167401000000000000000000000000000000000000000061ffff948516027fffffffffffffffff0000ffffffffffffffffffffffffffffffffffffffffffff16177601000000000000000000000000000000000000000000009290931691909102919091179055565b600061167282611209565b1561167f57506000919050565b5060ff1660009081526002602052604090205473ffffffffffffffffffffffffffffffffffffffff1690565b600c54600d541415611719576040517f08c379a000000000000000000000000000000000000000000000000000000000815260206004820152600e60248201527f7265656e7472616e742063616c6c0000000000000000000000000000000000006044820152606401610664565b600c54600d556007546040517fd505accf0000000000000000000000000000000000000000000000000000000081523360048201523060248201526fffffffffffffffffffffffffffffffff871660448201526064810186905260ff8516608482015260a4810184905260c4810183905273ffffffffffffffffffffffffffffffffffffffff9091169063d505accf9060e401600060405180830381600087803b1580156117c657600080fd5b505af11580156117da573d6000803e3d6000fd5b505050506117e83386611bff565b5050600b54600d55505050565b600c54600d541415611863576040517f08c379a000000000000000000000000000000000000000000000000000000000815260206004820152600e60248201527f7265656e7472616e742063616c6c0000000000000000000000000000000000006044820152606401610664565b600c54600d556007546040517fd505accf0000000000000000000000000000000000000000000000000000000081523360048201523060248201526fffffffffffffffffffffffffffffffff881660448201526064810186905260ff8516608482015260a4810184905260c4810183905273ffffffffffffffffffffffffffffffffffffffff9091169063d505accf9060e401600060405180830381600087803b15801561191057600080fd5b505af1158015611924573d6000803e3d6000fd5b50505050611933878787611e70565b5050600b54600d555050505050565b600054610100900460ff168061195b575060005460ff16155b6119e7576040517f08c379a000000000000000000000000000000000000000000000000000000000815260206004820152602e60248201527f496e697469616c697a61626c653a20636f6e747261637420697320616c72656160448201527f647920696e697469616c697a65640000000000000000000000000000000000006064820152608401610664565b600054610100900460ff16158015611a2657600080547fffffffffffffffffffffffffffffffffffffffffffffffffffffffffffff0000166101011790555b6007805473ffffffffffffffffffffffffffffffffffffffff8089167fffffffffffffffffffffffff00000000000000000000000000000000000000009283161790925560088054888416908316179055600980549287169290911682179055604051600091907f101b8081ff3b56bbf45deb824d86a3b0fd38b7e3dd42421105cf8abe9106db0b908390a3600980547fffffffffffffffff00000000ffffffffffffffffffffffffffffffffffffffff167401000000000000000000000000000000000000000061ffff8681169182027fffffffffffffffff0000ffffffffffffffffffffffffffffffffffffffffffff169290921776010000000000000000000000000000000000000000000092861692830217909255604080519283526020830191909152600090820181905260608201527fc787b4548967673274fa85b2239da3b2b6352dac97c8bb296e459c3757a220509060800160405180910390a1600a80547fffffffffffffffffffffffffffffffff0000000000000000000000000000000016662386f26fc100001790556001600b8190556002600c55600d558015611bf757600080547fffffffffffffffffffffffffffffffffffffffffffffffffffffffffffff00ff1690555b505050505050565b6007546040517f23b872dd0000000000000000000000000000000000000000000000000000000081523360048201523060248201526fffffffffffffffffffffffffffffffff8316604482015273ffffffffffffffffffffffffffffffffffffffff909116906323b872dd90606401602060405180830381600087803b158015611c8857600080fd5b505af1158015611c9c573d6000803e3d6000fd5b505050506040513d601f19601f82011682018060405250810190611cc09190612864565b506008546007546040517fbc61256e00000000000000000000000000000000000000000000000000000000815273ffffffffffffffffffffffffffffffffffffffff858116600483015291821660248201526fffffffffffffffffffffffffffffffff8416604482015291169063bc61256e90606401602060405180830381600087803b158015611d5057600080fd5b505af1158015611d64573d6000803e3d6000fd5b505050506040513d601f19601f82011682018060405250810190611d889190612984565b5073ffffffffffffffffffffffffffffffffffffffff821660009081526005602052604081208054839290611dd09084906fffffffffffffffffffffffffffffffff16612aa9565b92506101000a8154816fffffffffffffffffffffffffffffffff02191690836fffffffffffffffffffffffffffffffff1602179055508173ffffffffffffffffffffffffffffffffffffffff167febedb8b3c678666e7f36970bc8f57abf6d8fa2e828c0da91ea5b75bf68ed101a82604051611e6491906fffffffffffffffffffffffffffffffff91909116815260200190565b60405180910390a25050565b73ffffffffffffffffffffffffffffffffffffffff8116611eed576040517f08c379a000000000000000000000000000000000000000000000000000000000815260206004820152601c60248201527f63616e6e6f742064656c656761746520746f20302061646472657373000000006044820152606401610664565b60ff83166000908152600460205260408120600181015490916fffffffffffffffffffffffffffffffff90911690611f2486610857565b90506000611f328284612bad565b90506fffffffffffffffffffffffffffffffff8216158015611f6c5750600a546fffffffffffffffffffffffffffffffff90811690871610155b80611fb157506064611f7f84606e612b38565b611f899190612af5565b6fffffffffffffffffffffffffffffffff16866fffffffffffffffffffffffffffffffff1610155b612017576040517f08c379a000000000000000000000000000000000000000000000000000000000815260206004820152600d60248201527f62696420746f6f20736d616c6c000000000000000000000000000000000000006044820152606401610664565b3360008181526006602052604081205486546fffffffffffffffffffffffffffffffff9091169273ffffffffffffffffffffffffffffffffffffffff90911614612061578761206b565b61206b8489612bad565b90506fffffffffffffffffffffffffffffffff82161561224057806fffffffffffffffffffffffffffffffff16826fffffffffffffffffffffffffffffffff161061211c5733600090815260066020526040812080548392906120e19084906fffffffffffffffffffffffffffffffff16612bad565b92506101000a8154816fffffffffffffffffffffffffffffffff02191690836fffffffffffffffffffffffffffffffff160217905550612303565b33600081815260066020526040902080547fffffffffffffffffffffffffffffffff0000000000000000000000000000000016905560075473ffffffffffffffffffffffffffffffffffffffff16906323b872dd903061217c8686612bad565b6040517fffffffff0000000000000000000000000000000000000000000000000000000060e086901b16815273ffffffffffffffffffffffffffffffffffffffff93841660048201529290911660248301526fffffffffffffffffffffffffffffffff166044820152606401602060405180830381600087803b15801561220257600080fd5b505af1158015612216573d6000803e3d6000fd5b505050506040513d601f19601f8201168201806040525081019061223a9190612864565b50612303565b6007546040517f23b872dd0000000000000000000000000000000000000000000000000000000081523360048201523060248201526fffffffffffffffffffffffffffffffff8316604482015273ffffffffffffffffffffffffffffffffffffffff909116906323b872dd90606401602060405180830381600087803b1580156122c957600080fd5b505af11580156122dd573d6000803e3d6000fd5b505050506040513d601f19601f820116820180604052508101906123019190612864565b505b855473ffffffffffffffffffffffffffffffffffffffff1633146123a057855473ffffffffffffffffffffffffffffffffffffffff16600090815260066020526040812080548692906123699084906fffffffffffffffffffffffffffffffff16612aa9565b92506101000a8154816fffffffffffffffffffffffffffffffff02191690836fffffffffffffffffffffffffffffffff1602179055505b6fffffffffffffffffffffffffffffffff83161561246f576007546040517f42966c680000000000000000000000000000000000000000000000000000000081526fffffffffffffffffffffffffffffffff8516600482015273ffffffffffffffffffffffffffffffffffffffff909116906342966c6890602401602060405180830381600087803b15801561243557600080fd5b505af1158015612449573d6000803e3d6000fd5b505050506040513d601f19601f8201168201806040525081019061246d9190612864565b505b60ff891660009081526003602090815260408083208054337fffffffffffffffffffffffff0000000000000000000000000000000000000000918216811790925560029093529220805490911673ffffffffffffffffffffffffffffffffffffffff8a16179055865477ffffffff00000000000000000000000000000000000000001677ffffffffffffffffffffffffffffffffffffffffffffffff9091161778010000000000000000000000000000000000000000000000004267ffffffffffffffff1602178087556001870180547fffffffffffffffffffffffffffffffff00000000000000000000000000000000166fffffffffffffffffffffffffffffffff8b16179055600980547fffffffffffffffffffff0000ffffffffffffffffffffffffffffffffffffffff8316740100000000000000000000000000000000000000009182900461ffff90811683029182178b5583547fffffffffffffffff00000000ffffffffffffffffffffffffffffffffffffffff9095167fffffffffffffffff0000ffffffffffffffffffffffffffffffffffffffffffff909216919091177601000000000000000000000000000000000000000000009485900482168502178a55915490810482169261264e9291041662015180612b70565b6126589190612b24565b6126629042612add565b60ff8a16600081815260016020908152604091829020805467ffffffffffffffff959095167fffffffffffffffffffffffffffffffffffffffffffffffff00000000000000009095169490941790935560095481516fffffffffffffffffffffffffffffffff8d811682528a169481019490945261ffff7401000000000000000000000000000000000000000082048116858401527601000000000000000000000000000000000000000000009091041660608401525173ffffffffffffffffffffffffffffffffffffffff8a16923392917f6190ecb308529ed5355b9d692732314745e0acbc6c8270baf94bab524f03eed49181900360800190a4505050505050505050565b80356fffffffffffffffffffffffffffffffff8116811461278957600080fd5b919050565b803561ffff8116811461278957600080fd5b803560ff8116811461278957600080fd5b6000602082840312156127c357600080fd5b81356109f081612c53565b600080604083850312156127e157600080fd5b82356127ec81612c53565b91506127fa60208401612769565b90509250929050565b60008060008060008060c0878903121561281c57600080fd5b863561282781612c53565b955061283560208801612769565b94506040870135935061284a606088016127a0565b92506080870135915060a087013590509295509295509295565b60006020828403121561287657600080fd5b815180151581146109f057600080fd5b600080600080600060a0868803121561289e57600080fd5b85356128a981612c53565b945060208601356128b981612c53565b935060408601356128c981612c53565b92506128d76060870161278e565b91506128e56080870161278e565b90509295509295909350565b60006020828403121561290357600080fd5b6109f082612769565b600080600080600060a0868803121561292457600080fd5b61292d86612769565b945060208601359350612942604087016127a0565b94979396509394606081013594506080013592915050565b6000806040838503121561296d57600080fd5b6129768361278e565b91506127fa6020840161278e565b60006020828403121561299657600080fd5b5051919050565b6000602082840312156129af57600080fd5b6109f0826127a0565b600080604083850312156129cb57600080fd5b6129d4836127a0565b915060208301356129e481612c53565b809150509250929050565b600080600060608486031215612a0457600080fd5b612a0d846127a0565b9250612a1b60208501612769565b91506040840135612a2b81612c53565b809150509250925092565b600080600080600080600060e0888a031215612a5157600080fd5b612a5a886127a0565b9650612a6860208901612769565b95506040880135612a7881612c53565b945060608801359350612a8d608089016127a0565b925060a0880135915060c0880135905092959891949750929550565b60006fffffffffffffffffffffffffffffffff808316818516808303821115612ad457612ad4612bf5565b01949350505050565b60008219821115612af057612af0612bf5565b500190565b60006fffffffffffffffffffffffffffffffff80841680612b1857612b18612c24565b92169190910492915050565b600082612b3357612b33612c24565b500490565b60006fffffffffffffffffffffffffffffffff80831681851681830481118215151615612b6757612b67612bf5565b02949350505050565b6000817fffffffffffffffffffffffffffffffffffffffffffffffffffffffffffffffff0483118215151615612ba857612ba8612bf5565b500290565b60006fffffffffffffffffffffffffffffffff83811690831681811015612bd657612bd6612bf5565b039392505050565b600082821015612bf057612bf0612bf5565b500390565b7f4e487b7100000000000000000000000000000000000000000000000000000000600052601160045260246000fd5b7f4e487b7100000000000000000000000000000000000000000000000000000000600052601260045260246000fd5b73ffffffffffffffffffffffffffffffffffffffff81168114612c7557600080fd5b5056fea26469706673582212206004619dd8f0be5ad89d0b1968d01d9bfc0d0bbd6c94bf289c986f0f378e59d264736f6c63430008060033",
  "devdoc": {
    "details": "It is VERY IMPORTANT that modifications to this contract do not change the storage layout of the existing variables.   Be especially careful when importing any external contracts/libraries. If you do not know what any of this means, BACK AWAY FROM THE CODE NOW!!",
    "kind": "dev",
    "methods": {
      "claimSlot(uint8,uint128,address)": {
        "params": {
          "bid": "Bid amount",
          "delegate": "Delegate for slot",
          "slot": "Slot index"
        }
      },
      "claimSlotWithPermit(uint8,uint128,address,uint256,uint8,bytes32,bytes32)": {
        "params": {
          "bid": "Bid amount",
          "deadline": "The time at which to expire the signature",
          "delegate": "Delegate for slot",
          "r": "Half of the ECDSA signature pair",
          "s": "Half of the ECDSA signature pair",
          "slot": "Slot index",
          "v": "The recovery byte of the signature"
        }
      },
      "initialize(address,address,address,uint16,uint16)": {
        "params": {
          "_admin": "Admin address",
          "_lockManager": "Lock Manager address",
          "_taxDenominator": "Denominator for tax rate",
          "_taxNumerator": "Numerator for tax rate",
          "_token": "Token address"
        }
      },
      "setAdmin(address)": {
        "params": {
          "newAdmin": "Nex admin address"
        }
      },
      "setSlotDelegate(uint8,address)": {
        "params": {
          "delegate": "Delegate address",
          "slot": "Slot index"
        }
      },
      "setTaxRate(uint16,uint16)": {
        "params": {
          "denominator": "New tax denominator",
          "numerator": "New tax numerator"
        }
      },
      "slotBalance(uint8)": {
        "params": {
          "slot": "Slot index"
        },
        "returns": {
          "balance": "Slot balance"
        }
      },
      "slotCost(uint8)": {
        "params": {
          "slot": "Slot index"
        },
        "returns": {
          "_0": "Slot cost"
        }
      },
      "slotDelegate(uint8)": {
        "params": {
          "slot": "Slot index"
        },
        "returns": {
          "_0": "Slot delegate address"
        }
      },
      "slotForeclosed(uint8)": {
        "params": {
          "slot": "Slot index"
        },
        "returns": {
          "_0": "True if slot is foreclosed"
        }
      },
      "slotOwner(uint8)": {
        "params": {
          "slot": "Slot index"
        },
        "returns": {
          "_0": "Slot owner address"
        }
      },
      "stake(uint128)": {
        "params": {
          "amount": "Amount of tokens to stake"
        }
      },
      "stakeFor(address,uint128)": {
        "params": {
          "amount": "Amount of tokens to stake",
          "recipient": "Recipient of staked tokens"
        }
      },
      "stakeForWithPermit(address,uint128,uint256,uint8,bytes32,bytes32)": {
        "params": {
          "amount": "Amount of tokens to stake",
          "deadline": "The time at which to expire the signature",
          "r": "Half of the ECDSA signature pair",
          "recipient": "Recipient of staked tokens",
          "s": "Half of the ECDSA signature pair",
          "v": "The recovery byte of the signature"
        }
      },
      "stakeWithPermit(uint128,uint256,uint8,bytes32,bytes32)": {
        "params": {
          "amount": "Amount of tokens to stake",
          "deadline": "The time at which to expire the signature",
          "r": "Half of the ECDSA signature pair",
          "s": "Half of the ECDSA signature pair",
          "v": "The recovery byte of the signature"
        }
      },
      "unstake(uint128)": {
        "params": {
          "amount": "Amount of tokens to unstake"
        }
      },
      "withdraw(uint128)": {
        "params": {
          "amount": "Amount of tokens to withdraw"
        }
      }
    },
    "stateVariables": {
      "_ENTERED": {
        "details": "Reentrancy var used like bool, but with refunds"
      },
      "_NOT_ENTERED": {
        "details": "Reentrancy var used like bool, but with refunds"
      },
      "_slotDelegate": {
        "details": "Address to be prioritized for given slot"
      },
      "_slotOwner": {
        "details": "Address that owns a given slot and is able to set the slot delegate"
      },
      "_status": {
        "details": "Reentrancy status"
      }
    },
    "title": "EdenNetwork",
    "version": 1
  },
  "userdoc": {
    "events": {
      "AdminUpdated(address,address)": {
        "notice": "Event emitted when admin is updated"
      },
      "SlotClaimed(uint8,address,address,uint128,uint128,uint16,uint16)": {
        "notice": "Event emitted when slot is claimed"
      },
      "SlotDelegateUpdated(uint8,address,address,address)": {
        "notice": "Event emitted when slot delegate is updated"
      },
      "Stake(address,uint256)": {
        "notice": "Event emitted when a user stakes tokens"
      },
      "TaxRateUpdated(uint16,uint16,uint16,uint16)": {
        "notice": "Event emitted when the tax rate is updated"
      },
      "Unstake(address,uint256)": {
        "notice": "Event emitted when a user unstakes tokens"
      },
      "Withdraw(address,uint256)": {
        "notice": "Event emitted when a user withdraws locked tokens"
      }
    },
    "kind": "user",
    "methods": {
      "MIN_BID()": {
        "notice": "Minimum bid to reserve slot"
      },
      "admin()": {
        "notice": "Admin that can set the contract tax rate"
      },
      "claimSlot(uint8,uint128,address)": {
        "notice": "Claim slot"
      },
      "claimSlotWithPermit(uint8,uint128,address,uint256,uint8,bytes32,bytes32)": {
        "notice": "Claim slot using permit for approval"
      },
      "initialize(address,address,address,uint16,uint16)": {
        "notice": "Initialize EdenNetwork contract"
      },
      "lockManager()": {
        "notice": "Lock Manager contract"
      },
      "lockedBalance(address)": {
        "notice": "Balance in contract that was previously used for bid"
      },
      "setAdmin(address)": {
        "notice": "Set new admin"
      },
      "setSlotDelegate(uint8,address)": {
        "notice": "Allows slot owners to set a new slot delegate"
      },
      "setTaxRate(uint16,uint16)": {
        "notice": "Set new tax rate"
      },
      "slotBalance(uint8)": {
        "notice": "Get untaxed balance for current slot bid"
      },
      "slotBid(uint8)": {
        "notice": "Current bid for given slot"
      },
      "slotCost(uint8)": {
        "notice": "Get current cost to claim slot"
      },
      "slotDelegate(uint8)": {
        "notice": "Get current slot delegate"
      },
      "slotExpiration(uint8)": {
        "notice": "Expiration timestamp of current bid for specified slot index"
      },
      "slotForeclosed(uint8)": {
        "notice": "Returns true if a given slot bid has expired"
      },
      "slotOwner(uint8)": {
        "notice": "Get current owner of slot"
      },
      "stake(uint128)": {
        "notice": "Stake tokens"
      },
      "stakeFor(address,uint128)": {
        "notice": "Stake tokens on behalf of recipient"
      },
      "stakeForWithPermit(address,uint128,uint256,uint8,bytes32,bytes32)": {
        "notice": "Stake tokens on behalf of recipient using permit for approval"
      },
      "stakeWithPermit(uint128,uint256,uint8,bytes32,bytes32)": {
        "notice": "Stake tokens using permit for approval"
      },
      "stakedBalance(address)": {
        "notice": "Staked balance in contract"
      },
      "taxDenominator()": {
        "notice": "Denominator for tax rate"
      },
      "taxNumerator()": {
        "notice": "Numerator for tax rate"
      },
      "token()": {
        "notice": "Token used to reserve slot"
      },
      "unstake(uint128)": {
        "notice": "Unstake tokens"
      },
      "withdraw(uint128)": {
        "notice": "Withdraw locked tokens"
      }
    },
    "version": 1
  },
  "storageLayout": {
    "storage": [
      {
        "astId": 16987,
        "contract": "contracts/EdenNetwork.sol:EdenNetwork",
        "label": "_initialized",
        "offset": 0,
        "slot": "0",
        "type": "t_bool"
      },
      {
        "astId": 16990,
        "contract": "contracts/EdenNetwork.sol:EdenNetwork",
        "label": "_initializing",
        "offset": 1,
        "slot": "0",
        "type": "t_bool"
      },
      {
        "astId": 508,
        "contract": "contracts/EdenNetwork.sol:EdenNetwork",
        "label": "slotExpiration",
        "offset": 0,
        "slot": "1",
        "type": "t_mapping(t_uint8,t_uint64)"
      },
      {
        "astId": 513,
        "contract": "contracts/EdenNetwork.sol:EdenNetwork",
        "label": "_slotDelegate",
        "offset": 0,
        "slot": "2",
        "type": "t_mapping(t_uint8,t_address)"
      },
      {
        "astId": 518,
        "contract": "contracts/EdenNetwork.sol:EdenNetwork",
        "label": "_slotOwner",
        "offset": 0,
        "slot": "3",
        "type": "t_mapping(t_uint8,t_address)"
      },
      {
        "astId": 524,
        "contract": "contracts/EdenNetwork.sol:EdenNetwork",
        "label": "slotBid",
        "offset": 0,
        "slot": "4",
        "type": "t_mapping(t_uint8,t_struct(Bid)503_storage)"
      },
      {
        "astId": 529,
        "contract": "contracts/EdenNetwork.sol:EdenNetwork",
        "label": "stakedBalance",
        "offset": 0,
        "slot": "5",
        "type": "t_mapping(t_address,t_uint128)"
      },
      {
        "astId": 534,
        "contract": "contracts/EdenNetwork.sol:EdenNetwork",
        "label": "lockedBalance",
        "offset": 0,
        "slot": "6",
        "type": "t_mapping(t_address,t_uint128)"
      },
      {
        "astId": 538,
        "contract": "contracts/EdenNetwork.sol:EdenNetwork",
        "label": "token",
        "offset": 0,
        "slot": "7",
        "type": "t_contract(IERC20Extended)12713"
      },
      {
        "astId": 542,
        "contract": "contracts/EdenNetwork.sol:EdenNetwork",
        "label": "lockManager",
        "offset": 0,
        "slot": "8",
        "type": "t_contract(ILockManager)13247"
      },
      {
        "astId": 545,
        "contract": "contracts/EdenNetwork.sol:EdenNetwork",
        "label": "admin",
        "offset": 0,
        "slot": "9",
        "type": "t_address"
      },
      {
        "astId": 548,
        "contract": "contracts/EdenNetwork.sol:EdenNetwork",
        "label": "taxNumerator",
        "offset": 20,
        "slot": "9",
        "type": "t_uint16"
      },
      {
        "astId": 551,
        "contract": "contracts/EdenNetwork.sol:EdenNetwork",
        "label": "taxDenominator",
        "offset": 22,
        "slot": "9",
        "type": "t_uint16"
      },
      {
        "astId": 554,
        "contract": "contracts/EdenNetwork.sol:EdenNetwork",
        "label": "MIN_BID",
        "offset": 0,
        "slot": "10",
        "type": "t_uint128"
      },
      {
        "astId": 557,
        "contract": "contracts/EdenNetwork.sol:EdenNetwork",
        "label": "_NOT_ENTERED",
        "offset": 0,
        "slot": "11",
        "type": "t_uint256"
      },
      {
        "astId": 560,
        "contract": "contracts/EdenNetwork.sol:EdenNetwork",
        "label": "_ENTERED",
        "offset": 0,
        "slot": "12",
        "type": "t_uint256"
      },
      {
        "astId": 563,
        "contract": "contracts/EdenNetwork.sol:EdenNetwork",
        "label": "_status",
        "offset": 0,
        "slot": "13",
        "type": "t_uint256"
      }
    ],
    "types": {
      "t_address": {
        "encoding": "inplace",
        "label": "address",
        "numberOfBytes": "20"
      },
      "t_bool": {
        "encoding": "inplace",
        "label": "bool",
        "numberOfBytes": "1"
      },
      "t_contract(IERC20Extended)12713": {
        "encoding": "inplace",
        "label": "contract IERC20Extended",
        "numberOfBytes": "20"
      },
      "t_contract(ILockManager)13247": {
        "encoding": "inplace",
        "label": "contract ILockManager",
        "numberOfBytes": "20"
      },
      "t_mapping(t_address,t_uint128)": {
        "encoding": "mapping",
        "key": "t_address",
        "label": "mapping(address => uint128)",
        "numberOfBytes": "32",
        "value": "t_uint128"
      },
      "t_mapping(t_uint8,t_address)": {
        "encoding": "mapping",
        "key": "t_uint8",
        "label": "mapping(uint8 => address)",
        "numberOfBytes": "32",
        "value": "t_address"
      },
      "t_mapping(t_uint8,t_struct(Bid)503_storage)": {
        "encoding": "mapping",
        "key": "t_uint8",
        "label": "mapping(uint8 => struct EdenNetwork.Bid)",
        "numberOfBytes": "32",
        "value": "t_struct(Bid)503_storage"
      },
      "t_mapping(t_uint8,t_uint64)": {
        "encoding": "mapping",
        "key": "t_uint8",
        "label": "mapping(uint8 => uint64)",
        "numberOfBytes": "32",
        "value": "t_uint64"
      },
      "t_struct(Bid)503_storage": {
        "encoding": "inplace",
        "label": "struct EdenNetwork.Bid",
        "members": [
          {
            "astId": 494,
            "contract": "contracts/EdenNetwork.sol:EdenNetwork",
            "label": "bidder",
            "offset": 0,
            "slot": "0",
            "type": "t_address"
          },
          {
            "astId": 496,
            "contract": "contracts/EdenNetwork.sol:EdenNetwork",
            "label": "taxNumerator",
            "offset": 20,
            "slot": "0",
            "type": "t_uint16"
          },
          {
            "astId": 498,
            "contract": "contracts/EdenNetwork.sol:EdenNetwork",
            "label": "taxDenominator",
            "offset": 22,
            "slot": "0",
            "type": "t_uint16"
          },
          {
            "astId": 500,
            "contract": "contracts/EdenNetwork.sol:EdenNetwork",
            "label": "periodStart",
            "offset": 24,
            "slot": "0",
            "type": "t_uint64"
          },
          {
            "astId": 502,
            "contract": "contracts/EdenNetwork.sol:EdenNetwork",
            "label": "bidAmount",
            "offset": 0,
            "slot": "1",
            "type": "t_uint128"
          }
        ],
        "numberOfBytes": "64"
      },
      "t_uint128": {
        "encoding": "inplace",
        "label": "uint128",
        "numberOfBytes": "16"
      },
      "t_uint16": {
        "encoding": "inplace",
        "label": "uint16",
        "numberOfBytes": "2"
      },
      "t_uint256": {
        "encoding": "inplace",
        "label": "uint256",
        "numberOfBytes": "32"
      },
      "t_uint64": {
        "encoding": "inplace",
        "label": "uint64",
        "numberOfBytes": "8"
      },
      "t_uint8": {
        "encoding": "inplace",
        "label": "uint8",
        "numberOfBytes": "1"
      }
    }
  }
}