{
  "address": "0xed4D0430499bbF6F56710Eebd87DEF693E6B69B4",
  "abi": [
    {
      "inputs": [
        {
          "internalType": "address",
          "name": "_votingPower",
          "type": "address"
        },
        {
          "internalType": "address",
          "name": "_roleManager",
          "type": "address"
        }
      ],
      "stateMutability": "nonpayable",
      "type": "constructor"
    },
    {
      "anonymous": false,
      "inputs": [
        {
          "indexed": true,
          "internalType": "bytes32",
          "name": "role",
          "type": "bytes32"
        },
        {
          "indexed": true,
          "internalType": "bytes32",
          "name": "previousAdminRole",
          "type": "bytes32"
        },
        {
          "indexed": true,
          "internalType": "bytes32",
          "name": "newAdminRole",
          "type": "bytes32"
        }
      ],
      "name": "RoleAdminChanged",
      "type": "event"
    },
    {
      "anonymous": false,
      "inputs": [
        {
          "indexed": true,
          "internalType": "bytes32",
          "name": "role",
          "type": "bytes32"
        },
        {
          "indexed": true,
          "internalType": "address",
          "name": "account",
          "type": "address"
        },
        {
          "indexed": true,
          "internalType": "address",
          "name": "sender",
          "type": "address"
        }
      ],
      "name": "RoleGranted",
      "type": "event"
    },
    {
      "anonymous": false,
      "inputs": [
        {
          "indexed": true,
          "internalType": "bytes32",
          "name": "role",
          "type": "bytes32"
        },
        {
          "indexed": true,
          "internalType": "address",
          "name": "account",
          "type": "address"
        },
        {
          "indexed": true,
          "internalType": "address",
          "name": "sender",
          "type": "address"
        }
      ],
      "name": "RoleRevoked",
      "type": "event"
    },
    {
      "anonymous": false,
      "inputs": [
        {
          "indexed": true,
          "internalType": "address",
          "name": "user",
          "type": "address"
        },
        {
          "indexed": true,
          "internalType": "address",
          "name": "token",
          "type": "address"
        },
        {
          "indexed": true,
          "internalType": "uint256",
          "name": "amount",
          "type": "uint256"
        },
        {
          "indexed": false,
          "internalType": "uint256",
          "name": "votingPower",
          "type": "uint256"
        }
      ],
      "name": "StakeLocked",
      "type": "event"
    },
    {
      "anonymous": false,
      "inputs": [
        {
          "indexed": true,
          "internalType": "address",
          "name": "user",
          "type": "address"
        },
        {
          "indexed": true,
          "internalType": "address",
          "name": "token",
          "type": "address"
        },
        {
          "indexed": true,
          "internalType": "uint256",
          "name": "amount",
          "type": "uint256"
        },
        {
          "indexed": false,
          "internalType": "uint256",
          "name": "votingPower",
          "type": "uint256"
        }
      ],
      "name": "StakeUnlocked",
      "type": "event"
    },
    {
      "inputs": [],
      "name": "DEFAULT_ADMIN_ROLE",
      "outputs": [
        {
          "internalType": "bytes32",
          "name": "",
          "type": "bytes32"
        }
      ],
      "stateMutability": "view",
      "type": "function"
    },
    {
      "inputs": [],
      "name": "LOCKER_ROLE",
      "outputs": [
        {
          "internalType": "bytes32",
          "name": "",
          "type": "bytes32"
        }
      ],
      "stateMutability": "view",
      "type": "function"
    },
    {
      "inputs": [
        {
          "internalType": "address",
          "name": "token",
          "type": "address"
        },
        {
          "internalType": "uint256",
          "name": "amount",
          "type": "uint256"
        }
      ],
      "name": "calculateVotingPower",
      "outputs": [
        {
          "internalType": "uint256",
          "name": "",
          "type": "uint256"
        }
      ],
      "stateMutability": "view",
      "type": "function"
    },
    {
      "inputs": [
        {
          "internalType": "address",
          "name": "staker",
          "type": "address"
        },
        {
          "internalType": "address",
          "name": "stakedToken",
          "type": "address"
        }
      ],
      "name": "getAmountStaked",
      "outputs": [
        {
          "internalType": "uint256",
          "name": "",
          "type": "uint256"
        }
      ],
      "stateMutability": "view",
      "type": "function"
    },
    {
      "inputs": [
        {
          "internalType": "bytes32",
          "name": "role",
          "type": "bytes32"
        }
      ],
      "name": "getRoleAdmin",
      "outputs": [
        {
          "internalType": "bytes32",
          "name": "",
          "type": "bytes32"
        }
      ],
      "stateMutability": "view",
      "type": "function"
    },
    {
      "inputs": [
        {
          "internalType": "address",
          "name": "staker",
          "type": "address"
        },
        {
          "internalType": "address",
          "name": "stakedToken",
          "type": "address"
        }
      ],
      "name": "getStake",
      "outputs": [
        {
          "components": [
            {
              "internalType": "uint256",
              "name": "amount",
              "type": "uint256"
            },
            {
              "internalType": "uint256",
              "name": "votingPower",
              "type": "uint256"
            }
          ],
          "internalType": "struct ILockManager.LockedStake",
          "name": "",
          "type": "tuple"
        }
      ],
      "stateMutability": "view",
      "type": "function"
    },
    {
      "inputs": [
        {
          "internalType": "bytes32",
          "name": "role",
          "type": "bytes32"
        },
        {
          "internalType": "address",
          "name": "account",
          "type": "address"
        }
      ],
      "name": "grantRole",
      "outputs": [],
      "stateMutability": "nonpayable",
      "type": "function"
    },
    {
      "inputs": [
        {
          "internalType": "address",
          "name": "receiver",
          "type": "address"
        },
        {
          "internalType": "address",
          "name": "token",
          "type": "address"
        },
        {
          "internalType": "uint256",
          "name": "tokenAmount",
          "type": "uint256"
        }
      ],
      "name": "grantVotingPower",
      "outputs": [
        {
          "internalType": "uint256",
          "name": "votingPowerGranted",
          "type": "uint256"
        }
      ],
      "stateMutability": "nonpayable",
      "type": "function"
    },
    {
      "inputs": [
        {
          "internalType": "bytes32",
          "name": "role",
          "type": "bytes32"
        },
        {
          "internalType": "address",
          "name": "account",
          "type": "address"
        }
      ],
      "name": "hasRole",
      "outputs": [
        {
          "internalType": "bool",
          "name": "",
          "type": "bool"
        }
      ],
      "stateMutability": "view",
      "type": "function"
    },
    {
      "inputs": [
        {
          "internalType": "address",
          "name": "receiver",
          "type": "address"
        },
        {
          "internalType": "address",
          "name": "token",
          "type": "address"
        },
        {
          "internalType": "uint256",
          "name": "tokenAmount",
          "type": "uint256"
        }
      ],
      "name": "removeVotingPower",
      "outputs": [
        {
          "internalType": "uint256",
          "name": "votingPowerRemoved",
          "type": "uint256"
        }
      ],
      "stateMutability": "nonpayable",
      "type": "function"
    },
    {
      "inputs": [
        {
          "internalType": "bytes32",
          "name": "role",
          "type": "bytes32"
        },
        {
          "internalType": "address",
          "name": "account",
          "type": "address"
        }
      ],
      "name": "renounceRole",
      "outputs": [],
      "stateMutability": "nonpayable",
      "type": "function"
    },
    {
      "inputs": [
        {
          "internalType": "bytes32",
          "name": "role",
          "type": "bytes32"
        },
        {
          "internalType": "address",
          "name": "account",
          "type": "address"
        }
      ],
      "name": "revokeRole",
      "outputs": [],
      "stateMutability": "nonpayable",
      "type": "function"
    },
    {
      "inputs": [
        {
          "internalType": "bytes4",
          "name": "interfaceId",
          "type": "bytes4"
        }
      ],
      "name": "supportsInterface",
      "outputs": [
        {
          "internalType": "bool",
          "name": "",
          "type": "bool"
        }
      ],
      "stateMutability": "view",
      "type": "function"
    },
    {
      "inputs": [],
      "name": "votingPower",
      "outputs": [
        {
          "internalType": "contract IVotingPower",
          "name": "",
          "type": "address"
        }
      ],
      "stateMutability": "view",
      "type": "function"
    }
  ],
  "transactionHash": "0xf983f94f64b8c0047cfca30c02d5ef7c5327c5b2282c4e071402e21280584e34",
  "args": [
    "0xAf6752779fA28746D803ec4A9aBb9854CF8Cd547",
    "0x5b0aC3279dBf84Bb8DA59Be1EcaB118198f022E5"
  ],
  "solcInputHash": "9b228480b86a17f9c201c188a1dfb6af",
  "bytecode": "0x60806040523480156200001157600080fd5b506040516200189838038062001898833981016040819052620000349162000131565b600280546001600160a01b0319166001600160a01b0384161790556200005c60008262000064565b505062000169565b62000070828262000074565b5050565b6000828152602081815260408083206001600160a01b038516845290915290205460ff1662000070576000828152602081815260408083206001600160a01b03851684529091529020805460ff19166001179055620000d03390565b6001600160a01b0316816001600160a01b0316837f2f8788117e7eff1d82e926ec794901d17c78024a50270940304540a733656f0d60405160405180910390a45050565b80516001600160a01b03811681146200012c57600080fd5b919050565b600080604083850312156200014557600080fd5b620001508362000114565b9150620001606020840162000114565b90509250929050565b61171f80620001796000396000f3fe608060405234801561001057600080fd5b50600436106100ea5760003560e01c806391d148541161008c578063bc61256e11610066578063bc61256e14610302578063d547741f14610315578063e968d9fa14610328578063f36213671461033b57600080fd5b806391d14854146102a3578063a217fddf146102e7578063bc3e1b7a146102ef57600080fd5b806336568abe116100c857806336568abe1461015d57806377174f85146101705780637741459e146101b557806382dda22d1461021e57600080fd5b806301ffc9a7146100ef578063248a9ca3146101175780632f2ff15d14610148575b600080fd5b6101026100fd3660046113fe565b610362565b60405190151581526020015b60405180910390f35b61013a6101253660046113c0565b60009081526020819052604090206001015490565b60405190815260200161010e565b61015b6101563660046113d9565b6103fb565b005b61015b61016b3660046113d9565b610426565b6002546101909073ffffffffffffffffffffffffffffffffffffffff1681565b60405173ffffffffffffffffffffffffffffffffffffffff909116815260200161010e565b61013a6101c336600461131a565b6040805180820182526000808252602091820181905273ffffffffffffffffffffffffffffffffffffffff94851681526001808352838220949095168152928152918190208151808301909252805480835293015491015290565b61028861022c36600461131a565b6040805180820182526000808252602091820181905273ffffffffffffffffffffffffffffffffffffffff9485168152600180835283822094909516815292815291819020815180830190925280548252909201549082015290565b6040805182518152602092830151928101929092520161010e565b6101026102b13660046113d9565b60009182526020828152604080842073ffffffffffffffffffffffffffffffffffffffff93909316845291905290205460ff1690565b61013a600081565b61013a6102fd366004611353565b6104de565b61013a610310366004611353565b610871565b61015b6103233660046113d9565b610adc565b61013a610336366004611394565b610b02565b61013a7faf9a8bb3cbd6b84fbccefa71ff73e26e798553c6914585a84886212a46a9027981565b60007fffffffff0000000000000000000000000000000000000000000000000000000082167f7965db0b0000000000000000000000000000000000000000000000000000000014806103f557507f01ffc9a7000000000000000000000000000000000000000000000000000000007fffffffff000000000000000000000000000000000000000000000000000000008316145b92915050565b6000828152602081905260409020600101546104178133610e3c565b6104218383610f0c565b505050565b73ffffffffffffffffffffffffffffffffffffffff811633146104d0576040517f08c379a000000000000000000000000000000000000000000000000000000000815260206004820152602f60248201527f416363657373436f6e74726f6c3a2063616e206f6e6c792072656e6f756e636560448201527f20726f6c657320666f722073656c66000000000000000000000000000000000060648201526084015b60405180910390fd5b6104da8282610ffc565b5050565b3360009081527f3e7a7484ad32e5d459b6ed6a870672becd5b865934878407075b570e26e63f9b602052604081205460ff1661059c576040517f08c379a000000000000000000000000000000000000000000000000000000000815260206004820152602160248201527f43616c6c6572206d7573742068617665204c4f434b45525f524f4c4520726f6c60448201527f650000000000000000000000000000000000000000000000000000000000000060648201526084016104c7565b73ffffffffffffffffffffffffffffffffffffffff80851660009081526001602090815260408083209387168352929052205482111561065e576040517f08c379a000000000000000000000000000000000000000000000000000000000815260206004820152602f60248201527f4c4d3a3a72656d6f7665566f74696e67506f7765723a206e6f7420656e6f756760448201527f6820746f6b656e73207374616b6564000000000000000000000000000000000060648201526084016104c7565b6040805180820182526000808252602091820181905273ffffffffffffffffffffffffffffffffffffffff8781168252600180845284832091881683529083529083902083518085019094528054808552910154918301829052906106c3908561157e565b6106cd9190611543565b73ffffffffffffffffffffffffffffffffffffffff80871660009081526001602090815260408083209389168352929052205490925061070e9084906115bb565b73ffffffffffffffffffffffffffffffffffffffff8681166000908152600160208181526040808420948a16845293905291902091825501546107529083906115bb565b73ffffffffffffffffffffffffffffffffffffffff86811660008181526001602081815260408084208b8716855290915291829020019390935560025492517f9cc7a367000000000000000000000000000000000000000000000000000000008152600481019190915260248101859052911690639cc7a36790604401600060405180830381600087803b1580156107e957600080fd5b505af11580156107fd573d6000803e3d6000fd5b50505050828473ffffffffffffffffffffffffffffffffffffffff168673ffffffffffffffffffffffffffffffffffffffff167f84ac76b4af9b0d66201e1a5c4154cbe6580a5a5431447ffdf2210e7fdf15359a8560405161086191815260200190565b60405180910390a4509392505050565b3360009081527f3e7a7484ad32e5d459b6ed6a870672becd5b865934878407075b570e26e63f9b602052604081205460ff1661092f576040517f08c379a000000000000000000000000000000000000000000000000000000000815260206004820152602160248201527f43616c6c6572206d7573742068617665204c4f434b45525f524f4c4520726f6c60448201527f650000000000000000000000000000000000000000000000000000000000000060648201526084016104c7565b6109398383610b02565b73ffffffffffffffffffffffffffffffffffffffff80861660009081526001602090815260408083209388168352929052205490915061097a90839061152b565b73ffffffffffffffffffffffffffffffffffffffff8581166000908152600160208181526040808420948916845293905291902091825501546109be90829061152b565b73ffffffffffffffffffffffffffffffffffffffff85811660008181526001602081815260408084208a8716855290915291829020019390935560025492517f0bae5b7c000000000000000000000000000000000000000000000000000000008152600481019190915260248101849052911690630bae5b7c90604401600060405180830381600087803b158015610a5557600080fd5b505af1158015610a69573d6000803e3d6000fd5b50505050818373ffffffffffffffffffffffffffffffffffffffff168573ffffffffffffffffffffffffffffffffffffffff167f1d80c2b0b59d2f1543a8b483e392137e35f1d5ebfffcb3ad3a85c07a7563631384604051610acd91815260200190565b60405180910390a49392505050565b600082815260208190526040902060010154610af88133610e3c565b6104218383610ffc565b600080600260009054906101000a900473ffffffffffffffffffffffffffffffffffffffff1673ffffffffffffffffffffffffffffffffffffffff16639d23c4c76040518163ffffffff1660e01b815260040160206040518083038186803b158015610b6d57600080fd5b505afa158015610b81573d6000803e3d6000fd5b505050506040513d601f19601f82011682018060405250810190610ba591906112fd565b905073ffffffffffffffffffffffffffffffffffffffff8116610c4a576040517f08c379a000000000000000000000000000000000000000000000000000000000815260206004820152602a60248201527f4c4d3a3a63616c63756c617465566f74696e67506f7765723a2072656769737460448201527f7279206e6f74207365740000000000000000000000000000000000000000000060648201526084016104c7565b6040517fd419935f00000000000000000000000000000000000000000000000000000000815273ffffffffffffffffffffffffffffffffffffffff85811660048301526000919083169063d419935f9060240160206040518083038186803b158015610cb557600080fd5b505afa158015610cc9573d6000803e3d6000fd5b505050506040513d601f19601f82011682018060405250810190610ced91906112fd565b905073ffffffffffffffffffffffffffffffffffffffff8116610d92576040517f08c379a000000000000000000000000000000000000000000000000000000000815260206004820152602d60248201527f4c4d3a3a63616c63756c617465566f74696e67506f7765723a20746f6b656e2060448201527f6e6f7420737570706f727465640000000000000000000000000000000000000060648201526084016104c7565b6040517fb69fb7f900000000000000000000000000000000000000000000000000000000815260048101859052819073ffffffffffffffffffffffffffffffffffffffff82169063b69fb7f99060240160206040518083038186803b158015610dfa57600080fd5b505afa158015610e0e573d6000803e3d6000fd5b505050506040513d601f19601f82011682018060405250810190610e329190611440565b9695505050505050565b60008281526020818152604080832073ffffffffffffffffffffffffffffffffffffffff8516845290915290205460ff166104da57610e928173ffffffffffffffffffffffffffffffffffffffff1660146110b3565b610e9d8360206110b3565b604051602001610eae929190611459565b604080517fffffffffffffffffffffffffffffffffffffffffffffffffffffffffffffffe0818403018152908290527f08c379a00000000000000000000000000000000000000000000000000000000082526104c7916004016114da565b60008281526020818152604080832073ffffffffffffffffffffffffffffffffffffffff8516845290915290205460ff166104da5760008281526020818152604080832073ffffffffffffffffffffffffffffffffffffffff85168452909152902080547fffffffffffffffffffffffffffffffffffffffffffffffffffffffffffffff00166001179055610f9e3390565b73ffffffffffffffffffffffffffffffffffffffff168173ffffffffffffffffffffffffffffffffffffffff16837f2f8788117e7eff1d82e926ec794901d17c78024a50270940304540a733656f0d60405160405180910390a45050565b60008281526020818152604080832073ffffffffffffffffffffffffffffffffffffffff8516845290915290205460ff16156104da5760008281526020818152604080832073ffffffffffffffffffffffffffffffffffffffff8516808552925280832080547fffffffffffffffffffffffffffffffffffffffffffffffffffffffffffffff0016905551339285917ff6391f5c32d9c69d2a47ea670b442974b53935d1edc7fd64eb21e047a839171b9190a45050565b606060006110c283600261157e565b6110cd90600261152b565b67ffffffffffffffff8111156110e5576110e5611695565b6040519080825280601f01601f19166020018201604052801561110f576020820181803683370190505b5090507f30000000000000000000000000000000000000000000000000000000000000008160008151811061114657611146611666565b60200101907effffffffffffffffffffffffffffffffffffffffffffffffffffffffffffff1916908160001a9053507f7800000000000000000000000000000000000000000000000000000000000000816001815181106111a9576111a9611666565b60200101907effffffffffffffffffffffffffffffffffffffffffffffffffffffffffffff1916908160001a90535060006111e584600261157e565b6111f090600161152b565b90505b600181111561128d577f303132333435363738396162636465660000000000000000000000000000000085600f166010811061123157611231611666565b1a60f81b82828151811061124757611247611666565b60200101907effffffffffffffffffffffffffffffffffffffffffffffffffffffffffffff1916908160001a90535060049490941c9361128681611602565b90506111f3565b5083156112f6576040517f08c379a000000000000000000000000000000000000000000000000000000000815260206004820181905260248201527f537472696e67733a20686578206c656e67746820696e73756666696369656e7460448201526064016104c7565b9392505050565b60006020828403121561130f57600080fd5b81516112f6816116c4565b6000806040838503121561132d57600080fd5b8235611338816116c4565b91506020830135611348816116c4565b809150509250929050565b60008060006060848603121561136857600080fd5b8335611373816116c4565b92506020840135611383816116c4565b929592945050506040919091013590565b600080604083850312156113a757600080fd5b82356113b2816116c4565b946020939093013593505050565b6000602082840312156113d257600080fd5b5035919050565b600080604083850312156113ec57600080fd5b823591506020830135611348816116c4565b60006020828403121561141057600080fd5b81357fffffffff00000000000000000000000000000000000000000000000000000000811681146112f657600080fd5b60006020828403121561145257600080fd5b5051919050565b7f416363657373436f6e74726f6c3a206163636f756e74200000000000000000008152600083516114918160178501602088016115d2565b7f206973206d697373696e6720726f6c652000000000000000000000000000000060179184019182015283516114ce8160288401602088016115d2565b01602801949350505050565b60208152600082518060208401526114f98160408501602087016115d2565b601f017fffffffffffffffffffffffffffffffffffffffffffffffffffffffffffffffe0169190910160400192915050565b6000821982111561153e5761153e611637565b500190565b600082611579577f4e487b7100000000000000000000000000000000000000000000000000000000600052601260045260246000fd5b500490565b6000817fffffffffffffffffffffffffffffffffffffffffffffffffffffffffffffffff04831182151516156115b6576115b6611637565b500290565b6000828210156115cd576115cd611637565b500390565b60005b838110156115ed5781810151838201526020016115d5565b838111156115fc576000848401525b50505050565b60008161161157611611611637565b507fffffffffffffffffffffffffffffffffffffffffffffffffffffffffffffffff0190565b7f4e487b7100000000000000000000000000000000000000000000000000000000600052601160045260246000fd5b7f4e487b7100000000000000000000000000000000000000000000000000000000600052603260045260246000fd5b7f4e487b7100000000000000000000000000000000000000000000000000000000600052604160045260246000fd5b73ffffffffffffffffffffffffffffffffffffffff811681146116e657600080fd5b5056fea2646970667358221220b70e4bf1780542475e6fd56474212083cfc42118e6e1a7d1a8f47e8291e2571c64736f6c63430008060033",
  "devdoc": {
    "details": "Manages voting power for stakes that are locked within the Eden ecosystem, but not in the Voting Power prism",
    "kind": "dev",
    "methods": {
      "calculateVotingPower(address,uint256)": {
        "params": {
          "amount": "amount of token that will be locked",
          "token": "token that will be locked"
        },
        "returns": {
          "_0": "resulting voting power"
        }
      },
      "constructor": {
        "params": {
          "_roleManager": "address that is in charge of assigning roles",
          "_votingPower": "VotingPower prism contract"
        }
      },
      "getAmountStaked(address,address)": {
        "params": {
          "stakedToken": "The staked token",
          "staker": "The user with staked tokens"
        },
        "returns": {
          "_0": "total amount staked"
        }
      },
      "getRoleAdmin(bytes32)": {
        "details": "Returns the admin role that controls `role`. See {grantRole} and {revokeRole}. To change a role's admin, use {_setRoleAdmin}."
      },
      "getStake(address,address)": {
        "params": {
          "stakedToken": "The staked token",
          "staker": "The user with staked tokens"
        },
        "returns": {
          "_0": "total staked"
        }
      },
      "grantRole(bytes32,address)": {
        "details": "Grants `role` to `account`. If `account` had not been already granted `role`, emits a {RoleGranted} event. Requirements: - the caller must have ``role``'s admin role."
      },
      "grantVotingPower(address,address,uint256)": {
        "params": {
          "receiver": "recipient of voting power",
          "token": "token that is locked",
          "tokenAmount": "amount of token that is locked"
        },
        "returns": {
          "votingPowerGranted": "amount of voting power granted"
        }
      },
      "hasRole(bytes32,address)": {
        "details": "Returns `true` if `account` has been granted `role`."
      },
      "removeVotingPower(address,address,uint256)": {
        "params": {
          "receiver": "holder of voting power",
          "token": "token that is being unlocked",
          "tokenAmount": "amount of token that is being unlocked"
        },
        "returns": {
          "votingPowerRemoved": "amount of voting power removed"
        }
      },
      "renounceRole(bytes32,address)": {
        "details": "Revokes `role` from the calling account. Roles are often managed via {grantRole} and {revokeRole}: this function's purpose is to provide a mechanism for accounts to lose their privileges if they are compromised (such as when a trusted device is misplaced). If the calling account had been granted `role`, emits a {RoleRevoked} event. Requirements: - the caller must be `account`."
      },
      "revokeRole(bytes32,address)": {
        "details": "Revokes `role` from `account`. If `account` had been granted `role`, emits a {RoleRevoked} event. Requirements: - the caller must have ``role``'s admin role."
      },
      "supportsInterface(bytes4)": {
        "details": "See {IERC165-supportsInterface}."
      }
    },
    "title": "LockManager",
    "version": 1
  },
  "userdoc": {
    "events": {
      "StakeLocked(address,address,uint256,uint256)": {
        "notice": "An event that's emitted when a user's staked balance increases"
      },
      "StakeUnlocked(address,address,uint256,uint256)": {
        "notice": "An event that's emitted when a user's staked balance decreases"
      }
    },
    "kind": "user",
    "methods": {
      "LOCKER_ROLE()": {
        "notice": "Admin role to create voting power from locked stakes"
      },
      "calculateVotingPower(address,uint256)": {
        "notice": "Calculate the voting power that will result from locking `amount` of `token`"
      },
      "constructor": {
        "notice": "Create new LockManager contract"
      },
      "getAmountStaked(address,address)": {
        "notice": "Get total amount of tokens staked in contract by `staker`"
      },
      "getStake(address,address)": {
        "notice": "Get total staked amount and voting power from `stakedToken` staked in contract by `staker`"
      },
      "grantVotingPower(address,address,uint256)": {
        "notice": "Grant voting power from locked `tokenAmount` of `token`"
      },
      "removeVotingPower(address,address,uint256)": {
        "notice": "Remove voting power by unlocking `tokenAmount` of `token`"
      },
      "votingPower()": {
        "notice": "Voting power contract"
      }
    },
    "version": 1
  },
  "storageLayout": {
    "storage": [
      {
        "astId": 8037,
        "contract": "contracts/LockManager.sol:LockManager",
        "label": "_roles",
        "offset": 0,
        "slot": "0",
        "type": "t_mapping(t_bytes32,t_struct(RoleData)8032_storage)"
      },
      {
        "astId": 1274,
        "contract": "contracts/LockManager.sol:LockManager",
        "label": "lockedStakes",
        "offset": 0,
        "slot": "1",
        "type": "t_mapping(t_address,t_mapping(t_address,t_struct(LockedStake)7342_storage))"
      },
      {
        "astId": 1278,
        "contract": "contracts/LockManager.sol:LockManager",
        "label": "votingPower",
        "offset": 0,
        "slot": "2",
        "type": "t_contract(IVotingPower)7964"
      }
    ],
    "types": {
      "t_address": {
        "encoding": "inplace",
        "label": "address",
        "numberOfBytes": "20"
      },
      "t_bool": {
        "encoding": "inplace",
        "label": "bool",
        "numberOfBytes": "1"
      },
      "t_bytes32": {
        "encoding": "inplace",
        "label": "bytes32",
        "numberOfBytes": "32"
      },
      "t_contract(IVotingPower)7964": {
        "encoding": "inplace",
        "label": "contract IVotingPower",
        "numberOfBytes": "20"
      },
      "t_mapping(t_address,t_bool)": {
        "encoding": "mapping",
        "key": "t_address",
        "label": "mapping(address => bool)",
        "numberOfBytes": "32",
        "value": "t_bool"
      },
      "t_mapping(t_address,t_mapping(t_address,t_struct(LockedStake)7342_storage))": {
        "encoding": "mapping",
        "key": "t_address",
        "label": "mapping(address => mapping(address => struct ILockManager.LockedStake))",
        "numberOfBytes": "32",
        "value": "t_mapping(t_address,t_struct(LockedStake)7342_storage)"
      },
      "t_mapping(t_address,t_struct(LockedStake)7342_storage)": {
        "encoding": "mapping",
        "key": "t_address",
        "label": "mapping(address => struct ILockManager.LockedStake)",
        "numberOfBytes": "32",
        "value": "t_struct(LockedStake)7342_storage"
      },
      "t_mapping(t_bytes32,t_struct(RoleData)8032_storage)": {
        "encoding": "mapping",
        "key": "t_bytes32",
        "label": "mapping(bytes32 => struct AccessControl.RoleData)",
        "numberOfBytes": "32",
        "value": "t_struct(RoleData)8032_storage"
      },
      "t_struct(LockedStake)7342_storage": {
        "encoding": "inplace",
        "label": "struct ILockManager.LockedStake",
        "members": [
          {
            "astId": 7339,
            "contract": "contracts/LockManager.sol:LockManager",
            "label": "amount",
            "offset": 0,
            "slot": "0",
            "type": "t_uint256"
          },
          {
            "astId": 7341,
            "contract": "contracts/LockManager.sol:LockManager",
            "label": "votingPower",
            "offset": 0,
            "slot": "1",
            "type": "t_uint256"
          }
        ],
        "numberOfBytes": "64"
      },
      "t_struct(RoleData)8032_storage": {
        "encoding": "inplace",
        "label": "struct AccessControl.RoleData",
        "members": [
          {
            "astId": 8029,
            "contract": "contracts/LockManager.sol:LockManager",
            "label": "members",
            "offset": 0,
            "slot": "0",
            "type": "t_mapping(t_address,t_bool)"
          },
          {
            "astId": 8031,
            "contract": "contracts/LockManager.sol:LockManager",
            "label": "adminRole",
            "offset": 0,
            "slot": "1",
            "type": "t_bytes32"
          }
        ],
        "numberOfBytes": "64"
      },
      "t_uint256": {
        "encoding": "inplace",
        "label": "uint256",
        "numberOfBytes": "32"
      }
    }
  }
}