{
  "address": "0xa3E6ee213A9Bb4674503eFCa1d0b0fF13cDe7812",
  "abi": [
    {
      "inputs": [
        {
          "internalType": "address",
          "name": "_votingPower",
          "type": "address"
        },
        {
          "internalType": "address",
          "name": "_roleManager",
          "type": "address"
        }
      ],
      "stateMutability": "nonpayable",
      "type": "constructor"
    },
    {
      "anonymous": false,
      "inputs": [
        {
          "indexed": true,
          "internalType": "bytes32",
          "name": "role",
          "type": "bytes32"
        },
        {
          "indexed": true,
          "internalType": "bytes32",
          "name": "previousAdminRole",
          "type": "bytes32"
        },
        {
          "indexed": true,
          "internalType": "bytes32",
          "name": "newAdminRole",
          "type": "bytes32"
        }
      ],
      "name": "RoleAdminChanged",
      "type": "event"
    },
    {
      "anonymous": false,
      "inputs": [
        {
          "indexed": true,
          "internalType": "bytes32",
          "name": "role",
          "type": "bytes32"
        },
        {
          "indexed": true,
          "internalType": "address",
          "name": "account",
          "type": "address"
        },
        {
          "indexed": true,
          "internalType": "address",
          "name": "sender",
          "type": "address"
        }
      ],
      "name": "RoleGranted",
      "type": "event"
    },
    {
      "anonymous": false,
      "inputs": [
        {
          "indexed": true,
          "internalType": "bytes32",
          "name": "role",
          "type": "bytes32"
        },
        {
          "indexed": true,
          "internalType": "address",
          "name": "account",
          "type": "address"
        },
        {
          "indexed": true,
          "internalType": "address",
          "name": "sender",
          "type": "address"
        }
      ],
      "name": "RoleRevoked",
      "type": "event"
    },
    {
      "anonymous": false,
      "inputs": [
        {
          "indexed": true,
          "internalType": "address",
          "name": "user",
          "type": "address"
        },
        {
          "indexed": true,
          "internalType": "address",
          "name": "token",
          "type": "address"
        },
        {
          "indexed": true,
          "internalType": "uint256",
          "name": "amount",
          "type": "uint256"
        },
        {
          "indexed": false,
          "internalType": "uint256",
          "name": "votingPower",
          "type": "uint256"
        }
      ],
      "name": "StakeLocked",
      "type": "event"
    },
    {
      "anonymous": false,
      "inputs": [
        {
          "indexed": true,
          "internalType": "address",
          "name": "user",
          "type": "address"
        },
        {
          "indexed": true,
          "internalType": "address",
          "name": "token",
          "type": "address"
        },
        {
          "indexed": true,
          "internalType": "uint256",
          "name": "amount",
          "type": "uint256"
        },
        {
          "indexed": false,
          "internalType": "uint256",
          "name": "votingPower",
          "type": "uint256"
        }
      ],
      "name": "StakeUnlocked",
      "type": "event"
    },
    {
      "inputs": [],
      "name": "DEFAULT_ADMIN_ROLE",
      "outputs": [
        {
          "internalType": "bytes32",
          "name": "",
          "type": "bytes32"
        }
      ],
      "stateMutability": "view",
      "type": "function"
    },
    {
      "inputs": [],
      "name": "LOCKER_ROLE",
      "outputs": [
        {
          "internalType": "bytes32",
          "name": "",
          "type": "bytes32"
        }
      ],
      "stateMutability": "view",
      "type": "function"
    },
    {
      "inputs": [
        {
          "internalType": "address",
          "name": "token",
          "type": "address"
        },
        {
          "internalType": "uint256",
          "name": "amount",
          "type": "uint256"
        }
      ],
      "name": "calculateVotingPower",
      "outputs": [
        {
          "internalType": "uint256",
          "name": "",
          "type": "uint256"
        }
      ],
      "stateMutability": "view",
      "type": "function"
    },
    {
      "inputs": [
        {
          "internalType": "address",
          "name": "staker",
          "type": "address"
        },
        {
          "internalType": "address",
          "name": "stakedToken",
          "type": "address"
        }
      ],
      "name": "getAmountStaked",
      "outputs": [
        {
          "internalType": "uint256",
          "name": "",
          "type": "uint256"
        }
      ],
      "stateMutability": "view",
      "type": "function"
    },
    {
      "inputs": [
        {
          "internalType": "bytes32",
          "name": "role",
          "type": "bytes32"
        }
      ],
      "name": "getRoleAdmin",
      "outputs": [
        {
          "internalType": "bytes32",
          "name": "",
          "type": "bytes32"
        }
      ],
      "stateMutability": "view",
      "type": "function"
    },
    {
      "inputs": [
        {
          "internalType": "address",
          "name": "staker",
          "type": "address"
        },
        {
          "internalType": "address",
          "name": "stakedToken",
          "type": "address"
        }
      ],
      "name": "getStake",
      "outputs": [
        {
          "components": [
            {
              "internalType": "uint256",
              "name": "amount",
              "type": "uint256"
            },
            {
              "internalType": "uint256",
              "name": "votingPower",
              "type": "uint256"
            }
          ],
          "internalType": "struct ILockManager.LockedStake",
          "name": "",
          "type": "tuple"
        }
      ],
      "stateMutability": "view",
      "type": "function"
    },
    {
      "inputs": [
        {
          "internalType": "bytes32",
          "name": "role",
          "type": "bytes32"
        },
        {
          "internalType": "address",
          "name": "account",
          "type": "address"
        }
      ],
      "name": "grantRole",
      "outputs": [],
      "stateMutability": "nonpayable",
      "type": "function"
    },
    {
      "inputs": [
        {
          "internalType": "address",
          "name": "receiver",
          "type": "address"
        },
        {
          "internalType": "address",
          "name": "token",
          "type": "address"
        },
        {
          "internalType": "uint256",
          "name": "tokenAmount",
          "type": "uint256"
        }
      ],
      "name": "grantVotingPower",
      "outputs": [
        {
          "internalType": "uint256",
          "name": "votingPowerGranted",
          "type": "uint256"
        }
      ],
      "stateMutability": "nonpayable",
      "type": "function"
    },
    {
      "inputs": [
        {
          "internalType": "bytes32",
          "name": "role",
          "type": "bytes32"
        },
        {
          "internalType": "address",
          "name": "account",
          "type": "address"
        }
      ],
      "name": "hasRole",
      "outputs": [
        {
          "internalType": "bool",
          "name": "",
          "type": "bool"
        }
      ],
      "stateMutability": "view",
      "type": "function"
    },
    {
      "inputs": [
        {
          "internalType": "address",
          "name": "receiver",
          "type": "address"
        },
        {
          "internalType": "address",
          "name": "token",
          "type": "address"
        },
        {
          "internalType": "uint256",
          "name": "tokenAmount",
          "type": "uint256"
        }
      ],
      "name": "removeVotingPower",
      "outputs": [
        {
          "internalType": "uint256",
          "name": "votingPowerRemoved",
          "type": "uint256"
        }
      ],
      "stateMutability": "nonpayable",
      "type": "function"
    },
    {
      "inputs": [
        {
          "internalType": "bytes32",
          "name": "role",
          "type": "bytes32"
        },
        {
          "internalType": "address",
          "name": "account",
          "type": "address"
        }
      ],
      "name": "renounceRole",
      "outputs": [],
      "stateMutability": "nonpayable",
      "type": "function"
    },
    {
      "inputs": [
        {
          "internalType": "bytes32",
          "name": "role",
          "type": "bytes32"
        },
        {
          "internalType": "address",
          "name": "account",
          "type": "address"
        }
      ],
      "name": "revokeRole",
      "outputs": [],
      "stateMutability": "nonpayable",
      "type": "function"
    },
    {
      "inputs": [
        {
          "internalType": "bytes4",
          "name": "interfaceId",
          "type": "bytes4"
        }
      ],
      "name": "supportsInterface",
      "outputs": [
        {
          "internalType": "bool",
          "name": "",
          "type": "bool"
        }
      ],
      "stateMutability": "view",
      "type": "function"
    },
    {
      "inputs": [],
      "name": "votingPower",
      "outputs": [
        {
          "internalType": "contract IVotingPower",
          "name": "",
          "type": "address"
        }
      ],
      "stateMutability": "view",
      "type": "function"
    }
  ],
  "transactionHash": "0x9638d2420a4a4c30e4318341f568fa19ba639216f67bcc91986d0855466dbc68",
  "args": [
    "0xd3152FF0C8Ff6526481aaBA68009e051c83B758d",
    "0x5b0aC3279dBf84Bb8DA59Be1EcaB118198f022E5"
  ],
  "solcInputHash": "25652fa7cefe72deed3db64da926a067",
  "bytecode": "0x60a06040523480156200001157600080fd5b50604051620018f2380380620018f2833981016040819052620000349162000128565b6001600160601b0319606083901b16608052620000536000826200005b565b505062000160565b6200006782826200006b565b5050565b6000828152602081815260408083206001600160a01b038516845290915290205460ff1662000067576000828152602081815260408083206001600160a01b03851684529091529020805460ff19166001179055620000c73390565b6001600160a01b0316816001600160a01b0316837f2f8788117e7eff1d82e926ec794901d17c78024a50270940304540a733656f0d60405160405180910390a45050565b80516001600160a01b03811681146200012357600080fd5b919050565b600080604083850312156200013c57600080fd5b62000147836200010b565b915062000157602084016200010b565b90509250929050565b60805160601c61175e6200019460003960008181610175015281816107c901528181610a520152610b48015261175e6000f3fe608060405234801561001057600080fd5b50600436106100ea5760003560e01c806391d148541161008c578063bc61256e11610066578063bc61256e14610309578063d547741f1461031c578063e968d9fa1461032f578063f36213671461034257600080fd5b806391d14854146102aa578063a217fddf146102ee578063bc3e1b7a146102f657600080fd5b806336568abe116100c857806336568abe1461015d57806377174f85146101705780637741459e146101bc57806382dda22d1461022557600080fd5b806301ffc9a7146100ef578063248a9ca3146101175780632f2ff15d14610148575b600080fd5b6101026100fd36600461143d565b610369565b60405190151581526020015b60405180910390f35b61013a6101253660046113ff565b60009081526020819052604090206001015490565b60405190815260200161010e565b61015b610156366004611418565b610402565b005b61015b61016b366004611418565b61042d565b6101977f000000000000000000000000000000000000000000000000000000000000000081565b60405173ffffffffffffffffffffffffffffffffffffffff909116815260200161010e565b61013a6101ca366004611359565b6040805180820182526000808252602091820181905273ffffffffffffffffffffffffffffffffffffffff94851681526001808352838220949095168152928152918190208151808301909252805480835293015491015290565b61028f610233366004611359565b6040805180820182526000808252602091820181905273ffffffffffffffffffffffffffffffffffffffff9485168152600180835283822094909516815292815291819020815180830190925280548252909201549082015290565b6040805182518152602092830151928101929092520161010e565b6101026102b8366004611418565b60009182526020828152604080842073ffffffffffffffffffffffffffffffffffffffff93909316845291905290205460ff1690565b61013a600081565b61013a610304366004611392565b6104e5565b61013a610317366004611392565b610895565b61015b61032a366004611418565b610b1d565b61013a61033d3660046113d3565b610b43565b61013a7faf9a8bb3cbd6b84fbccefa71ff73e26e798553c6914585a84886212a46a9027981565b60007fffffffff0000000000000000000000000000000000000000000000000000000082167f7965db0b0000000000000000000000000000000000000000000000000000000014806103fc57507f01ffc9a7000000000000000000000000000000000000000000000000000000007fffffffff000000000000000000000000000000000000000000000000000000008316145b92915050565b60008281526020819052604090206001015461041e8133610e7b565b6104288383610f4b565b505050565b73ffffffffffffffffffffffffffffffffffffffff811633146104d7576040517f08c379a000000000000000000000000000000000000000000000000000000000815260206004820152602f60248201527f416363657373436f6e74726f6c3a2063616e206f6e6c792072656e6f756e636560448201527f20726f6c657320666f722073656c66000000000000000000000000000000000060648201526084015b60405180910390fd5b6104e1828261103b565b5050565b3360009081527f3e7a7484ad32e5d459b6ed6a870672becd5b865934878407075b570e26e63f9b602052604081205460ff166105a3576040517f08c379a000000000000000000000000000000000000000000000000000000000815260206004820152602160248201527f43616c6c6572206d7573742068617665204c4f434b45525f524f4c4520726f6c60448201527f650000000000000000000000000000000000000000000000000000000000000060648201526084016104ce565b73ffffffffffffffffffffffffffffffffffffffff808516600090815260016020908152604080832093871683529290522054821115610665576040517f08c379a000000000000000000000000000000000000000000000000000000000815260206004820152602f60248201527f4c4d3a3a72656d6f7665566f74696e67506f7765723a206e6f7420656e6f756760448201527f6820746f6b656e73207374616b6564000000000000000000000000000000000060648201526084016104ce565b6040805180820182526000808252602091820181905273ffffffffffffffffffffffffffffffffffffffff8781168252600180845284832091881683529083529083902083518085019094528054808552910154918301829052906106ca90856115bd565b6106d49190611582565b73ffffffffffffffffffffffffffffffffffffffff8087166000908152600160209081526040808320938916835292905220549092506107159084906115fa565b73ffffffffffffffffffffffffffffffffffffffff8681166000908152600160208181526040808420948a16845293905291902091825501546107599083906115fa565b73ffffffffffffffffffffffffffffffffffffffff86811660008181526001602081815260408084208b8716855290915291829020019390935591517f9cc7a3670000000000000000000000000000000000000000000000000000000081526004810192909252602482018490527f00000000000000000000000000000000000000000000000000000000000000001690639cc7a36790604401600060405180830381600087803b15801561080d57600080fd5b505af1158015610821573d6000803e3d6000fd5b50505050828473ffffffffffffffffffffffffffffffffffffffff168673ffffffffffffffffffffffffffffffffffffffff167f84ac76b4af9b0d66201e1a5c4154cbe6580a5a5431447ffdf2210e7fdf15359a8560405161088591815260200190565b60405180910390a4509392505050565b3360009081527f3e7a7484ad32e5d459b6ed6a870672becd5b865934878407075b570e26e63f9b602052604081205460ff16610953576040517f08c379a000000000000000000000000000000000000000000000000000000000815260206004820152602160248201527f43616c6c6572206d7573742068617665204c4f434b45525f524f4c4520726f6c60448201527f650000000000000000000000000000000000000000000000000000000000000060648201526084016104ce565b61095d8383610b43565b73ffffffffffffffffffffffffffffffffffffffff80861660009081526001602090815260408083209388168352929052205490915061099e90839061156a565b73ffffffffffffffffffffffffffffffffffffffff8581166000908152600160208181526040808420948916845293905291902091825501546109e290829061156a565b73ffffffffffffffffffffffffffffffffffffffff85811660008181526001602081815260408084208a8716855290915291829020019390935591517f0bae5b7c0000000000000000000000000000000000000000000000000000000081526004810192909252602482018390527f00000000000000000000000000000000000000000000000000000000000000001690630bae5b7c90604401600060405180830381600087803b158015610a9657600080fd5b505af1158015610aaa573d6000803e3d6000fd5b50505050818373ffffffffffffffffffffffffffffffffffffffff168573ffffffffffffffffffffffffffffffffffffffff167f1d80c2b0b59d2f1543a8b483e392137e35f1d5ebfffcb3ad3a85c07a7563631384604051610b0e91815260200190565b60405180910390a49392505050565b600082815260208190526040902060010154610b398133610e7b565b610428838361103b565b6000807f000000000000000000000000000000000000000000000000000000000000000073ffffffffffffffffffffffffffffffffffffffff16639d23c4c76040518163ffffffff1660e01b815260040160206040518083038186803b158015610bac57600080fd5b505afa158015610bc0573d6000803e3d6000fd5b505050506040513d601f19601f82011682018060405250810190610be4919061133c565b905073ffffffffffffffffffffffffffffffffffffffff8116610c89576040517f08c379a000000000000000000000000000000000000000000000000000000000815260206004820152602a60248201527f4c4d3a3a63616c63756c617465566f74696e67506f7765723a2072656769737460448201527f7279206e6f74207365740000000000000000000000000000000000000000000060648201526084016104ce565b6040517fd419935f00000000000000000000000000000000000000000000000000000000815273ffffffffffffffffffffffffffffffffffffffff85811660048301526000919083169063d419935f9060240160206040518083038186803b158015610cf457600080fd5b505afa158015610d08573d6000803e3d6000fd5b505050506040513d601f19601f82011682018060405250810190610d2c919061133c565b905073ffffffffffffffffffffffffffffffffffffffff8116610dd1576040517f08c379a000000000000000000000000000000000000000000000000000000000815260206004820152602d60248201527f4c4d3a3a63616c63756c617465566f74696e67506f7765723a20746f6b656e2060448201527f6e6f7420737570706f727465640000000000000000000000000000000000000060648201526084016104ce565b6040517fb69fb7f900000000000000000000000000000000000000000000000000000000815260048101859052819073ffffffffffffffffffffffffffffffffffffffff82169063b69fb7f99060240160206040518083038186803b158015610e3957600080fd5b505afa158015610e4d573d6000803e3d6000fd5b505050506040513d601f19601f82011682018060405250810190610e71919061147f565b9695505050505050565b60008281526020818152604080832073ffffffffffffffffffffffffffffffffffffffff8516845290915290205460ff166104e157610ed18173ffffffffffffffffffffffffffffffffffffffff1660146110f2565b610edc8360206110f2565b604051602001610eed929190611498565b604080517fffffffffffffffffffffffffffffffffffffffffffffffffffffffffffffffe0818403018152908290527f08c379a00000000000000000000000000000000000000000000000000000000082526104ce91600401611519565b60008281526020818152604080832073ffffffffffffffffffffffffffffffffffffffff8516845290915290205460ff166104e15760008281526020818152604080832073ffffffffffffffffffffffffffffffffffffffff85168452909152902080547fffffffffffffffffffffffffffffffffffffffffffffffffffffffffffffff00166001179055610fdd3390565b73ffffffffffffffffffffffffffffffffffffffff168173ffffffffffffffffffffffffffffffffffffffff16837f2f8788117e7eff1d82e926ec794901d17c78024a50270940304540a733656f0d60405160405180910390a45050565b60008281526020818152604080832073ffffffffffffffffffffffffffffffffffffffff8516845290915290205460ff16156104e15760008281526020818152604080832073ffffffffffffffffffffffffffffffffffffffff8516808552925280832080547fffffffffffffffffffffffffffffffffffffffffffffffffffffffffffffff0016905551339285917ff6391f5c32d9c69d2a47ea670b442974b53935d1edc7fd64eb21e047a839171b9190a45050565b606060006111018360026115bd565b61110c90600261156a565b67ffffffffffffffff811115611124576111246116d4565b6040519080825280601f01601f19166020018201604052801561114e576020820181803683370190505b5090507f300000000000000000000000000000000000000000000000000000000000000081600081518110611185576111856116a5565b60200101907effffffffffffffffffffffffffffffffffffffffffffffffffffffffffffff1916908160001a9053507f7800000000000000000000000000000000000000000000000000000000000000816001815181106111e8576111e86116a5565b60200101907effffffffffffffffffffffffffffffffffffffffffffffffffffffffffffff1916908160001a90535060006112248460026115bd565b61122f90600161156a565b90505b60018111156112cc577f303132333435363738396162636465660000000000000000000000000000000085600f1660108110611270576112706116a5565b1a60f81b828281518110611286576112866116a5565b60200101907effffffffffffffffffffffffffffffffffffffffffffffffffffffffffffff1916908160001a90535060049490941c936112c581611641565b9050611232565b508315611335576040517f08c379a000000000000000000000000000000000000000000000000000000000815260206004820181905260248201527f537472696e67733a20686578206c656e67746820696e73756666696369656e7460448201526064016104ce565b9392505050565b60006020828403121561134e57600080fd5b815161133581611703565b6000806040838503121561136c57600080fd5b823561137781611703565b9150602083013561138781611703565b809150509250929050565b6000806000606084860312156113a757600080fd5b83356113b281611703565b925060208401356113c281611703565b929592945050506040919091013590565b600080604083850312156113e657600080fd5b82356113f181611703565b946020939093013593505050565b60006020828403121561141157600080fd5b5035919050565b6000806040838503121561142b57600080fd5b82359150602083013561138781611703565b60006020828403121561144f57600080fd5b81357fffffffff000000000000000000000000000000000000000000000000000000008116811461133557600080fd5b60006020828403121561149157600080fd5b5051919050565b7f416363657373436f6e74726f6c3a206163636f756e74200000000000000000008152600083516114d0816017850160208801611611565b7f206973206d697373696e6720726f6c6520000000000000000000000000000000601791840191820152835161150d816028840160208801611611565b01602801949350505050565b6020815260008251806020840152611538816040850160208701611611565b601f017fffffffffffffffffffffffffffffffffffffffffffffffffffffffffffffffe0169190910160400192915050565b6000821982111561157d5761157d611676565b500190565b6000826115b8577f4e487b7100000000000000000000000000000000000000000000000000000000600052601260045260246000fd5b500490565b6000817fffffffffffffffffffffffffffffffffffffffffffffffffffffffffffffffff04831182151516156115f5576115f5611676565b500290565b60008282101561160c5761160c611676565b500390565b60005b8381101561162c578181015183820152602001611614565b8381111561163b576000848401525b50505050565b60008161165057611650611676565b507fffffffffffffffffffffffffffffffffffffffffffffffffffffffffffffffff0190565b7f4e487b7100000000000000000000000000000000000000000000000000000000600052601160045260246000fd5b7f4e487b7100000000000000000000000000000000000000000000000000000000600052603260045260246000fd5b7f4e487b7100000000000000000000000000000000000000000000000000000000600052604160045260246000fd5b73ffffffffffffffffffffffffffffffffffffffff8116811461172557600080fd5b5056fea264697066735822122080400e2e011610ff232ef926b1099d67cebb61535c48bc802304a3e29ecda64164736f6c63430008060033",
  "devdoc": {
    "details": "Manages voting power for stakes that are locked within the Eden ecosystem, but not in the Voting Power prism",
    "kind": "dev",
    "methods": {
      "calculateVotingPower(address,uint256)": {
        "params": {
          "amount": "amount of token that will be locked",
          "token": "token that will be locked"
        },
        "returns": {
          "_0": "resulting voting power"
        }
      },
      "constructor": {
        "params": {
          "_roleManager": "address that is in charge of assigning roles",
          "_votingPower": "VotingPower prism contract"
        }
      },
      "getAmountStaked(address,address)": {
        "params": {
          "stakedToken": "The staked token",
          "staker": "The user with staked tokens"
        },
        "returns": {
          "_0": "total amount staked"
        }
      },
      "getRoleAdmin(bytes32)": {
        "details": "Returns the admin role that controls `role`. See {grantRole} and {revokeRole}. To change a role's admin, use {_setRoleAdmin}."
      },
      "getStake(address,address)": {
        "params": {
          "stakedToken": "The staked token",
          "staker": "The user with staked tokens"
        },
        "returns": {
          "_0": "total staked"
        }
      },
      "grantRole(bytes32,address)": {
        "details": "Grants `role` to `account`. If `account` had not been already granted `role`, emits a {RoleGranted} event. Requirements: - the caller must have ``role``'s admin role."
      },
      "grantVotingPower(address,address,uint256)": {
        "params": {
          "receiver": "recipient of voting power",
          "token": "token that is locked",
          "tokenAmount": "amount of token that is locked"
        },
        "returns": {
          "votingPowerGranted": "amount of voting power granted"
        }
      },
      "hasRole(bytes32,address)": {
        "details": "Returns `true` if `account` has been granted `role`."
      },
      "removeVotingPower(address,address,uint256)": {
        "params": {
          "receiver": "holder of voting power",
          "token": "token that is being unlocked",
          "tokenAmount": "amount of token that is being unlocked"
        },
        "returns": {
          "votingPowerRemoved": "amount of voting power removed"
        }
      },
      "renounceRole(bytes32,address)": {
        "details": "Revokes `role` from the calling account. Roles are often managed via {grantRole} and {revokeRole}: this function's purpose is to provide a mechanism for accounts to lose their privileges if they are compromised (such as when a trusted device is misplaced). If the calling account had been granted `role`, emits a {RoleRevoked} event. Requirements: - the caller must be `account`."
      },
      "revokeRole(bytes32,address)": {
        "details": "Revokes `role` from `account`. If `account` had been granted `role`, emits a {RoleRevoked} event. Requirements: - the caller must have ``role``'s admin role."
      },
      "supportsInterface(bytes4)": {
        "details": "See {IERC165-supportsInterface}."
      }
    },
    "title": "LockManager",
    "version": 1
  },
  "userdoc": {
    "events": {
      "StakeLocked(address,address,uint256,uint256)": {
        "notice": "An event that's emitted when a user's staked balance increases"
      },
      "StakeUnlocked(address,address,uint256,uint256)": {
        "notice": "An event that's emitted when a user's staked balance decreases"
      }
    },
    "kind": "user",
    "methods": {
      "LOCKER_ROLE()": {
        "notice": "Admin role to create voting power from locked stakes"
      },
      "calculateVotingPower(address,uint256)": {
        "notice": "Calculate the voting power that will result from locking `amount` of `token`"
      },
      "constructor": {
        "notice": "Create new LockManager contract"
      },
      "getAmountStaked(address,address)": {
        "notice": "Get total amount of tokens staked in contract by `staker`"
      },
      "getStake(address,address)": {
        "notice": "Get total staked amount and voting power from `stakedToken` staked in contract by `staker`"
      },
      "grantVotingPower(address,address,uint256)": {
        "notice": "Grant voting power from locked `tokenAmount` of `token`"
      },
      "removeVotingPower(address,address,uint256)": {
        "notice": "Remove voting power by unlocking `tokenAmount` of `token`"
      },
      "votingPower()": {
        "notice": "Voting power contract"
      }
    },
    "version": 1
  },
  "storageLayout": {
    "storage": [
      {
        "astId": 10838,
        "contract": "contracts/LockManager.sol:LockManager",
        "label": "_roles",
        "offset": 0,
        "slot": "0",
        "type": "t_mapping(t_bytes32,t_struct(RoleData)10833_storage)"
      },
      {
        "astId": 2869,
        "contract": "contracts/LockManager.sol:LockManager",
        "label": "lockedStakes",
        "offset": 0,
        "slot": "1",
        "type": "t_mapping(t_address,t_mapping(t_address,t_struct(LockedStake)10071_storage))"
      }
    ],
    "types": {
      "t_address": {
        "encoding": "inplace",
        "label": "address",
        "numberOfBytes": "20"
      },
      "t_bool": {
        "encoding": "inplace",
        "label": "bool",
        "numberOfBytes": "1"
      },
      "t_bytes32": {
        "encoding": "inplace",
        "label": "bytes32",
        "numberOfBytes": "32"
      },
      "t_mapping(t_address,t_bool)": {
        "encoding": "mapping",
        "key": "t_address",
        "label": "mapping(address => bool)",
        "numberOfBytes": "32",
        "value": "t_bool"
      },
      "t_mapping(t_address,t_mapping(t_address,t_struct(LockedStake)10071_storage))": {
        "encoding": "mapping",
        "key": "t_address",
        "label": "mapping(address => mapping(address => struct ILockManager.LockedStake))",
        "numberOfBytes": "32",
        "value": "t_mapping(t_address,t_struct(LockedStake)10071_storage)"
      },
      "t_mapping(t_address,t_struct(LockedStake)10071_storage)": {
        "encoding": "mapping",
        "key": "t_address",
        "label": "mapping(address => struct ILockManager.LockedStake)",
        "numberOfBytes": "32",
        "value": "t_struct(LockedStake)10071_storage"
      },
      "t_mapping(t_bytes32,t_struct(RoleData)10833_storage)": {
        "encoding": "mapping",
        "key": "t_bytes32",
        "label": "mapping(bytes32 => struct AccessControl.RoleData)",
        "numberOfBytes": "32",
        "value": "t_struct(RoleData)10833_storage"
      },
      "t_struct(LockedStake)10071_storage": {
        "encoding": "inplace",
        "label": "struct ILockManager.LockedStake",
        "members": [
          {
            "astId": 10068,
            "contract": "contracts/LockManager.sol:LockManager",
            "label": "amount",
            "offset": 0,
            "slot": "0",
            "type": "t_uint256"
          },
          {
            "astId": 10070,
            "contract": "contracts/LockManager.sol:LockManager",
            "label": "votingPower",
            "offset": 0,
            "slot": "1",
            "type": "t_uint256"
          }
        ],
        "numberOfBytes": "64"
      },
      "t_struct(RoleData)10833_storage": {
        "encoding": "inplace",
        "label": "struct AccessControl.RoleData",
        "members": [
          {
            "astId": 10830,
            "contract": "contracts/LockManager.sol:LockManager",
            "label": "members",
            "offset": 0,
            "slot": "0",
            "type": "t_mapping(t_address,t_bool)"
          },
          {
            "astId": 10832,
            "contract": "contracts/LockManager.sol:LockManager",
            "label": "adminRole",
            "offset": 0,
            "slot": "1",
            "type": "t_bytes32"
          }
        ],
        "numberOfBytes": "64"
      },
      "t_uint256": {
        "encoding": "inplace",
        "label": "uint256",
        "numberOfBytes": "32"
      }
    }
  }
}