{
  "address": "0x705b28c4214766F4c7Ef599ed98832D967357303",
  "abi": [
    {
      "inputs": [
        {
          "internalType": "contract IERC20Mintable",
          "name": "_token",
          "type": "address"
        },
        {
          "internalType": "address",
          "name": "_governance",
          "type": "address"
        },
        {
          "internalType": "address",
          "name": "_admin",
          "type": "address"
        },
        {
          "internalType": "uint8",
          "name": "_updateThreshold",
          "type": "uint8"
        },
        {
          "internalType": "address[]",
          "name": "_updaters",
          "type": "address[]"
        },
        {
          "internalType": "address[]",
          "name": "_slashers",
          "type": "address[]"
        }
      ],
      "stateMutability": "nonpayable",
      "type": "constructor"
    },
    {
      "anonymous": false,
      "inputs": [
        {
          "indexed": true,
          "internalType": "address",
          "name": "account",
          "type": "address"
        },
        {
          "indexed": false,
          "internalType": "uint256",
          "name": "totalClaimed",
          "type": "uint256"
        },
        {
          "indexed": false,
          "internalType": "uint256",
          "name": "totalSlashed",
          "type": "uint256"
        }
      ],
      "name": "AccountUpdated",
      "type": "event"
    },
    {
      "anonymous": false,
      "inputs": [
        {
          "indexed": true,
          "internalType": "address",
          "name": "owner",
          "type": "address"
        },
        {
          "indexed": true,
          "internalType": "address",
          "name": "approved",
          "type": "address"
        },
        {
          "indexed": true,
          "internalType": "uint256",
          "name": "tokenId",
          "type": "uint256"
        }
      ],
      "name": "Approval",
      "type": "event"
    },
    {
      "anonymous": false,
      "inputs": [
        {
          "indexed": true,
          "internalType": "address",
          "name": "owner",
          "type": "address"
        },
        {
          "indexed": true,
          "internalType": "address",
          "name": "operator",
          "type": "address"
        },
        {
          "indexed": false,
          "internalType": "bool",
          "name": "approved",
          "type": "bool"
        }
      ],
      "name": "ApprovalForAll",
      "type": "event"
    },
    {
      "anonymous": false,
      "inputs": [
        {
          "indexed": false,
          "internalType": "uint256",
          "name": "index",
          "type": "uint256"
        },
        {
          "indexed": false,
          "internalType": "uint256",
          "name": "totalEarned",
          "type": "uint256"
        },
        {
          "indexed": true,
          "internalType": "address",
          "name": "account",
          "type": "address"
        },
        {
          "indexed": false,
          "internalType": "uint256",
          "name": "claimed",
          "type": "uint256"
        }
      ],
      "name": "Claimed",
      "type": "event"
    },
    {
      "anonymous": false,
      "inputs": [
        {
          "indexed": false,
          "internalType": "address",
          "name": "from",
          "type": "address"
        },
        {
          "indexed": false,
          "internalType": "address",
          "name": "to",
          "type": "address"
        }
      ],
      "name": "GovernanceChanged",
      "type": "event"
    },
    {
      "anonymous": false,
      "inputs": [
        {
          "indexed": false,
          "internalType": "bytes32",
          "name": "merkleRoot",
          "type": "bytes32"
        },
        {
          "indexed": false,
          "internalType": "uint256",
          "name": "distributionNumber",
          "type": "uint256"
        },
        {
          "indexed": false,
          "internalType": "string",
          "name": "metadataURI",
          "type": "string"
        }
      ],
      "name": "MerkleRootUpdated",
      "type": "event"
    },
    {
      "anonymous": false,
      "inputs": [
        {
          "indexed": false,
          "internalType": "string",
          "name": "value",
          "type": "string"
        },
        {
          "indexed": true,
          "internalType": "uint256",
          "name": "id",
          "type": "uint256"
        }
      ],
      "name": "PermanentURI",
      "type": "event"
    },
    {
      "anonymous": false,
      "inputs": [
        {
          "indexed": true,
          "internalType": "bytes32",
          "name": "role",
          "type": "bytes32"
        },
        {
          "indexed": true,
          "internalType": "bytes32",
          "name": "previousAdminRole",
          "type": "bytes32"
        },
        {
          "indexed": true,
          "internalType": "bytes32",
          "name": "newAdminRole",
          "type": "bytes32"
        }
      ],
      "name": "RoleAdminChanged",
      "type": "event"
    },
    {
      "anonymous": false,
      "inputs": [
        {
          "indexed": true,
          "internalType": "bytes32",
          "name": "role",
          "type": "bytes32"
        },
        {
          "indexed": true,
          "internalType": "address",
          "name": "account",
          "type": "address"
        },
        {
          "indexed": true,
          "internalType": "address",
          "name": "sender",
          "type": "address"
        }
      ],
      "name": "RoleGranted",
      "type": "event"
    },
    {
      "anonymous": false,
      "inputs": [
        {
          "indexed": true,
          "internalType": "bytes32",
          "name": "role",
          "type": "bytes32"
        },
        {
          "indexed": true,
          "internalType": "address",
          "name": "account",
          "type": "address"
        },
        {
          "indexed": true,
          "internalType": "address",
          "name": "sender",
          "type": "address"
        }
      ],
      "name": "RoleRevoked",
      "type": "event"
    },
    {
      "anonymous": false,
      "inputs": [
        {
          "indexed": true,
          "internalType": "address",
          "name": "account",
          "type": "address"
        },
        {
          "indexed": false,
          "internalType": "uint256",
          "name": "slashed",
          "type": "uint256"
        }
      ],
      "name": "Slashed",
      "type": "event"
    },
    {
      "anonymous": false,
      "inputs": [
        {
          "indexed": true,
          "internalType": "address",
          "name": "from",
          "type": "address"
        },
        {
          "indexed": true,
          "internalType": "address",
          "name": "to",
          "type": "address"
        },
        {
          "indexed": true,
          "internalType": "uint256",
          "name": "tokenId",
          "type": "uint256"
        }
      ],
      "name": "Transfer",
      "type": "event"
    },
    {
      "anonymous": false,
      "inputs": [
        {
          "indexed": false,
          "internalType": "uint256",
          "name": "updateThreshold",
          "type": "uint256"
        }
      ],
      "name": "UpdateThresholdChanged",
      "type": "event"
    },
    {
      "inputs": [],
      "name": "DEFAULT_ADMIN_ROLE",
      "outputs": [
        {
          "internalType": "bytes32",
          "name": "",
          "type": "bytes32"
        }
      ],
      "stateMutability": "view",
      "type": "function"
    },
    {
      "inputs": [],
      "name": "DISTRIBUTOR_ROLE",
      "outputs": [
        {
          "internalType": "bytes32",
          "name": "",
          "type": "bytes32"
        }
      ],
      "stateMutability": "view",
      "type": "function"
    },
    {
      "inputs": [],
      "name": "SLASHER_ROLE",
      "outputs": [
        {
          "internalType": "bytes32",
          "name": "",
          "type": "bytes32"
        }
      ],
      "stateMutability": "view",
      "type": "function"
    },
    {
      "inputs": [],
      "name": "UPDATER_ROLE",
      "outputs": [
        {
          "internalType": "bytes32",
          "name": "",
          "type": "bytes32"
        }
      ],
      "stateMutability": "view",
      "type": "function"
    },
    {
      "inputs": [
        {
          "internalType": "address",
          "name": "",
          "type": "address"
        }
      ],
      "name": "accountState",
      "outputs": [
        {
          "internalType": "uint256",
          "name": "totalClaimed",
          "type": "uint256"
        },
        {
          "internalType": "uint256",
          "name": "totalSlashed",
          "type": "uint256"
        }
      ],
      "stateMutability": "view",
      "type": "function"
    },
    {
      "inputs": [
        {
          "internalType": "address[]",
          "name": "newUpdaters",
          "type": "address[]"
        },
        {
          "internalType": "uint256",
          "name": "newThreshold",
          "type": "uint256"
        }
      ],
      "name": "addUpdaters",
      "outputs": [],
      "stateMutability": "nonpayable",
      "type": "function"
    },
    {
      "inputs": [
        {
          "internalType": "address",
          "name": "to",
          "type": "address"
        },
        {
          "internalType": "uint256",
          "name": "tokenId",
          "type": "uint256"
        }
      ],
      "name": "approve",
      "outputs": [],
      "stateMutability": "nonpayable",
      "type": "function"
    },
    {
      "inputs": [
        {
          "internalType": "address",
          "name": "owner",
          "type": "address"
        }
      ],
      "name": "balanceOf",
      "outputs": [
        {
          "internalType": "uint256",
          "name": "",
          "type": "uint256"
        }
      ],
      "stateMutability": "view",
      "type": "function"
    },
    {
      "inputs": [
        {
          "internalType": "uint256",
          "name": "index",
          "type": "uint256"
        },
        {
          "internalType": "address",
          "name": "account",
          "type": "address"
        },
        {
          "internalType": "uint256",
          "name": "totalEarned",
          "type": "uint256"
        },
        {
          "internalType": "bytes32[]",
          "name": "merkleProof",
          "type": "bytes32[]"
        }
      ],
      "name": "claim",
      "outputs": [],
      "stateMutability": "nonpayable",
      "type": "function"
    },
    {
      "inputs": [],
      "name": "distributionCount",
      "outputs": [
        {
          "internalType": "uint256",
          "name": "",
          "type": "uint256"
        }
      ],
      "stateMutability": "view",
      "type": "function"
    },
    {
      "inputs": [
        {
          "internalType": "uint256",
          "name": "tokenId",
          "type": "uint256"
        }
      ],
      "name": "getApproved",
      "outputs": [
        {
          "internalType": "address",
          "name": "",
          "type": "address"
        }
      ],
      "stateMutability": "view",
      "type": "function"
    },
    {
      "inputs": [
        {
          "internalType": "bytes32",
          "name": "role",
          "type": "bytes32"
        }
      ],
      "name": "getRoleAdmin",
      "outputs": [
        {
          "internalType": "bytes32",
          "name": "",
          "type": "bytes32"
        }
      ],
      "stateMutability": "view",
      "type": "function"
    },
    {
      "inputs": [
        {
          "internalType": "bytes32",
          "name": "role",
          "type": "bytes32"
        },
        {
          "internalType": "uint256",
          "name": "index",
          "type": "uint256"
        }
      ],
      "name": "getRoleMember",
      "outputs": [
        {
          "internalType": "address",
          "name": "",
          "type": "address"
        }
      ],
      "stateMutability": "view",
      "type": "function"
    },
    {
      "inputs": [
        {
          "internalType": "bytes32",
          "name": "role",
          "type": "bytes32"
        }
      ],
      "name": "getRoleMemberCount",
      "outputs": [
        {
          "internalType": "uint256",
          "name": "",
          "type": "uint256"
        }
      ],
      "stateMutability": "view",
      "type": "function"
    },
    {
      "inputs": [],
      "name": "governance",
      "outputs": [
        {
          "internalType": "address",
          "name": "",
          "type": "address"
        }
      ],
      "stateMutability": "view",
      "type": "function"
    },
    {
      "inputs": [
        {
          "internalType": "bytes32",
          "name": "role",
          "type": "bytes32"
        },
        {
          "internalType": "address",
          "name": "account",
          "type": "address"
        }
      ],
      "name": "grantRole",
      "outputs": [],
      "stateMutability": "nonpayable",
      "type": "function"
    },
    {
      "inputs": [
        {
          "internalType": "bytes32",
          "name": "role",
          "type": "bytes32"
        },
        {
          "internalType": "address",
          "name": "account",
          "type": "address"
        }
      ],
      "name": "hasRole",
      "outputs": [
        {
          "internalType": "bool",
          "name": "",
          "type": "bool"
        }
      ],
      "stateMutability": "view",
      "type": "function"
    },
    {
      "inputs": [
        {
          "internalType": "address",
          "name": "owner",
          "type": "address"
        },
        {
          "internalType": "address",
          "name": "operator",
          "type": "address"
        }
      ],
      "name": "isApprovedForAll",
      "outputs": [
        {
          "internalType": "bool",
          "name": "",
          "type": "bool"
        }
      ],
      "stateMutability": "view",
      "type": "function"
    },
    {
      "inputs": [],
      "name": "merkleRoot",
      "outputs": [
        {
          "internalType": "bytes32",
          "name": "",
          "type": "bytes32"
        }
      ],
      "stateMutability": "view",
      "type": "function"
    },
    {
      "inputs": [],
      "name": "name",
      "outputs": [
        {
          "internalType": "string",
          "name": "",
          "type": "string"
        }
      ],
      "stateMutability": "view",
      "type": "function"
    },
    {
      "inputs": [
        {
          "internalType": "uint256",
          "name": "tokenId",
          "type": "uint256"
        }
      ],
      "name": "ownerOf",
      "outputs": [
        {
          "internalType": "address",
          "name": "",
          "type": "address"
        }
      ],
      "stateMutability": "view",
      "type": "function"
    },
    {
      "inputs": [
        {
          "internalType": "bytes32",
          "name": "",
          "type": "bytes32"
        }
      ],
      "name": "previousMerkleRoot",
      "outputs": [
        {
          "internalType": "bool",
          "name": "",
          "type": "bool"
        }
      ],
      "stateMutability": "view",
      "type": "function"
    },
    {
      "inputs": [
        {
          "internalType": "address[]",
          "name": "existingUpdaters",
          "type": "address[]"
        },
        {
          "internalType": "uint256",
          "name": "newThreshold",
          "type": "uint256"
        }
      ],
      "name": "removeUpdaters",
      "outputs": [],
      "stateMutability": "nonpayable",
      "type": "function"
    },
    {
      "inputs": [
        {
          "internalType": "bytes32",
          "name": "role",
          "type": "bytes32"
        },
        {
          "internalType": "address",
          "name": "account",
          "type": "address"
        }
      ],
      "name": "renounceRole",
      "outputs": [],
      "stateMutability": "nonpayable",
      "type": "function"
    },
    {
      "inputs": [
        {
          "internalType": "bytes32",
          "name": "role",
          "type": "bytes32"
        },
        {
          "internalType": "address",
          "name": "account",
          "type": "address"
        }
      ],
      "name": "revokeRole",
      "outputs": [],
      "stateMutability": "nonpayable",
      "type": "function"
    },
    {
      "inputs": [
        {
          "internalType": "address",
          "name": "from",
          "type": "address"
        },
        {
          "internalType": "address",
          "name": "to",
          "type": "address"
        },
        {
          "internalType": "uint256",
          "name": "tokenId",
          "type": "uint256"
        }
      ],
      "name": "safeTransferFrom",
      "outputs": [],
      "stateMutability": "nonpayable",
      "type": "function"
    },
    {
      "inputs": [
        {
          "internalType": "address",
          "name": "from",
          "type": "address"
        },
        {
          "internalType": "address",
          "name": "to",
          "type": "address"
        },
        {
          "internalType": "uint256",
          "name": "tokenId",
          "type": "uint256"
        },
        {
          "internalType": "bytes",
          "name": "_data",
          "type": "bytes"
        }
      ],
      "name": "safeTransferFrom",
      "outputs": [],
      "stateMutability": "nonpayable",
      "type": "function"
    },
    {
      "inputs": [
        {
          "internalType": "address",
          "name": "operator",
          "type": "address"
        },
        {
          "internalType": "bool",
          "name": "approved",
          "type": "bool"
        }
      ],
      "name": "setApprovalForAll",
      "outputs": [],
      "stateMutability": "nonpayable",
      "type": "function"
    },
    {
      "inputs": [
        {
          "internalType": "address",
          "name": "to",
          "type": "address"
        }
      ],
      "name": "setGovernance",
      "outputs": [],
      "stateMutability": "nonpayable",
      "type": "function"
    },
    {
      "inputs": [
        {
          "internalType": "uint256",
          "name": "to",
          "type": "uint256"
        }
      ],
      "name": "setUpdateThreshold",
      "outputs": [],
      "stateMutability": "nonpayable",
      "type": "function"
    },
    {
      "inputs": [
        {
          "internalType": "address",
          "name": "account",
          "type": "address"
        },
        {
          "internalType": "uint256",
          "name": "amount",
          "type": "uint256"
        }
      ],
      "name": "slash",
      "outputs": [],
      "stateMutability": "nonpayable",
      "type": "function"
    },
    {
      "inputs": [
        {
          "internalType": "bytes4",
          "name": "interfaceId",
          "type": "bytes4"
        }
      ],
      "name": "supportsInterface",
      "outputs": [
        {
          "internalType": "bool",
          "name": "",
          "type": "bool"
        }
      ],
      "stateMutability": "view",
      "type": "function"
    },
    {
      "inputs": [],
      "name": "symbol",
      "outputs": [
        {
          "internalType": "string",
          "name": "",
          "type": "string"
        }
      ],
      "stateMutability": "view",
      "type": "function"
    },
    {
      "inputs": [],
      "name": "token",
      "outputs": [
        {
          "internalType": "contract IERC20Mintable",
          "name": "",
          "type": "address"
        }
      ],
      "stateMutability": "view",
      "type": "function"
    },
    {
      "inputs": [
        {
          "internalType": "uint256",
          "name": "index",
          "type": "uint256"
        }
      ],
      "name": "tokenByIndex",
      "outputs": [
        {
          "internalType": "uint256",
          "name": "",
          "type": "uint256"
        }
      ],
      "stateMutability": "view",
      "type": "function"
    },
    {
      "inputs": [
        {
          "internalType": "address",
          "name": "owner",
          "type": "address"
        },
        {
          "internalType": "uint256",
          "name": "index",
          "type": "uint256"
        }
      ],
      "name": "tokenOfOwnerByIndex",
      "outputs": [
        {
          "internalType": "uint256",
          "name": "",
          "type": "uint256"
        }
      ],
      "stateMutability": "view",
      "type": "function"
    },
    {
      "inputs": [
        {
          "internalType": "uint256",
          "name": "tokenId",
          "type": "uint256"
        }
      ],
      "name": "tokenURI",
      "outputs": [
        {
          "internalType": "string",
          "name": "",
          "type": "string"
        }
      ],
      "stateMutability": "view",
      "type": "function"
    },
    {
      "inputs": [],
      "name": "totalSupply",
      "outputs": [
        {
          "internalType": "uint256",
          "name": "",
          "type": "uint256"
        }
      ],
      "stateMutability": "view",
      "type": "function"
    },
    {
      "inputs": [
        {
          "internalType": "address",
          "name": "from",
          "type": "address"
        },
        {
          "internalType": "address",
          "name": "to",
          "type": "address"
        },
        {
          "internalType": "uint256",
          "name": "tokenId",
          "type": "uint256"
        }
      ],
      "name": "transferFrom",
      "outputs": [],
      "stateMutability": "nonpayable",
      "type": "function"
    },
    {
      "inputs": [
        {
          "internalType": "bytes32",
          "name": "newMerkleRoot",
          "type": "bytes32"
        },
        {
          "internalType": "string",
          "name": "uri",
          "type": "string"
        },
        {
          "internalType": "uint256",
          "name": "newDistributionNumber",
          "type": "uint256"
        }
      ],
      "name": "updateMerkleRoot",
      "outputs": [
        {
          "internalType": "uint256",
          "name": "",
          "type": "uint256"
        }
      ],
      "stateMutability": "nonpayable",
      "type": "function"
    },
    {
      "inputs": [],
      "name": "updateThreshold",
      "outputs": [
        {
          "internalType": "uint256",
          "name": "",
          "type": "uint256"
        }
      ],
      "stateMutability": "view",
      "type": "function"
    }
  ],
  "transactionHash": "0xd52462fed2eb667dff93c7ccb353e01b74a467eef390e80203c0ee42ece5685c",
  "args": [
    "0x1559FA1b8F28238FD5D76D9f434ad86FD20D1559",
    "0x2eE6aF00AFd2470f4421F4F5198bD4B30efcbeE2",
    "0x5b0aC3279dBf84Bb8DA59Be1EcaB118198f022E5",
    "2",
    [
      "0xEF2A0Eb838fc44A8f354706E738F2FcCB3e09071",
      "0x4d44ec5812DD35b5044DC28dA4DDFC82AAaB08B1"
    ],
    [
      "0xEF2A0Eb838fc44A8f354706E738F2FcCB3e09071",
      "0x4d44ec5812DD35b5044DC28dA4DDFC82AAaB08B1"
    ]
  ],
  "solcInputHash": "ddb050c4bb3618e91684498230fb0102",
  "bytecode": "0x60a06040523480156200001157600080fd5b5060405162005064380380620050648339810160408190526200003491620006de565b604080518082018252601981527f4564656e204e6574776f726b20446973747269627574696f6e00000000000000602080830191825283518085019094526005845264115111539160da1b908401528151919291620000969160009162000573565b508051620000ac90600190602084019062000573565b5050506001600160601b0319606087901b16608052600c546000908152601160205260409020805460ff19166001179055620000e885620001cc565b60005b8251811015620001475762000132600080516020620050448339815191528483815181106200011e576200011e62000809565b6020026020010151620002b360201b60201c565b806200013e81620007df565b915050620000eb565b506200015660ff8416620002f6565b60005b8151811015620001b2576200019d7f12b42e8a160f6064dc959c6f251e3af0750ad213dbecf573b4710d67d6c28e398383815181106200011e576200011e62000809565b80620001a981620007df565b91505062000159565b50620001c0600085620002b3565b5050505050506200084e565b600f546001600160a01b03828116911614156200024a5760405162461bcd60e51b815260206004820152603160248201527f4d65726b6c654469737472696275746f723a20476f7665726e616e6365206164604482015270191c995cdcc81b9bdd0818da185b99d959607a1b60648201526084015b60405180910390fd5b600f54604080516001600160a01b03928316815291831660208301527f3aaaebeb4821d6a7e5c77ece53cff0afcc56c82add2c978dbbb7f73e84cbcfd2910160405180910390a1600f80546001600160a01b0319166001600160a01b0392909216919091179055565b620002ca82826200041e60201b620021871760201c565b6000828152600760209081526040909120620002f1918390620021916200042e821b17901c565b505050565b806200036b5760405162461bcd60e51b815260206004820152603460248201527f4d65726b6c654469737472696275746f723a205570646174652074687265736860448201527f6f6c64206d757374206265206e6f6e2d7a65726f000000000000000000000000606482015260840162000241565b62000385600080516020620050448339815191526200044e565b811115620003e65760405162461bcd60e51b815260206004820152602760248201527f4d65726b6c654469737472696275746f723a207468726573686f6c64203e20756044820152667064617465727360c81b606482015260840162000241565b6040518181527f4a3f39b792c062592e6c20d41d18331563a8de4ba398cd40ef7c9afffd6234959060200160405180910390a1600e55565b6200042a828262000472565b5050565b600062000445836001600160a01b03841662000516565b90505b92915050565b600081815260076020908152604082206200044891620021b362000568821b17901c565b60008281526006602090815260408083206001600160a01b038516845290915290205460ff166200042a5760008281526006602090815260408083206001600160a01b03851684529091529020805460ff19166001179055620004d23390565b6001600160a01b0316816001600160a01b0316837f2f8788117e7eff1d82e926ec794901d17c78024a50270940304540a733656f0d60405160405180910390a45050565b60008181526001830160205260408120546200055f5750815460018181018455600084815260208082209093018490558454848252828601909352604090209190915562000448565b50600062000448565b600062000448825490565b8280546200058190620007a2565b90600052602060002090601f016020900481019282620005a55760008555620005f0565b82601f10620005c057805160ff1916838001178555620005f0565b82800160010185558215620005f0579182015b82811115620005f0578251825591602001919060010190620005d3565b50620005fe92915062000602565b5090565b5b80821115620005fe576000815560010162000603565b8051620006268162000835565b919050565b600082601f8301126200063d57600080fd5b815160206001600160401b03808311156200065c576200065c6200081f565b8260051b604051601f19603f830116810181811084821117156200068457620006846200081f565b60405284815283810192508684018288018501891015620006a457600080fd5b600092505b85831015620006d257620006bd8162000619565b845292840192600192909201918401620006a9565b50979650505050505050565b60008060008060008060c08789031215620006f857600080fd5b8651620007058162000835565b6020880151909650620007188162000835565b60408801519095506200072b8162000835565b606088015190945060ff811681146200074357600080fd5b60808801519093506001600160401b03808211156200076157600080fd5b6200076f8a838b016200062b565b935060a08901519150808211156200078657600080fd5b506200079589828a016200062b565b9150509295509295509295565b600181811c90821680620007b757607f821691505b60208210811415620007d957634e487b7160e01b600052602260045260246000fd5b50919050565b60006000198214156200080257634e487b7160e01b600052601160045260246000fd5b5060010190565b634e487b7160e01b600052603260045260246000fd5b634e487b7160e01b600052604160045260246000fd5b6001600160a01b03811681146200084b57600080fd5b50565b60805160601c6147d062000874600039600081816106d901526111aa01526147d06000f3fe608060405234801561001057600080fd5b50600436106102d35760003560e01c80636352211e11610186578063b88d4fde116100e3578063cd170ce711610097578063e985e9c511610071578063e985e9c514610664578063f0bd87cc146106ad578063fc0c546a146106d457600080fd5b8063cd170ce71461061b578063d547741f1461063e578063e1e92a671461065157600080fd5b8063c65c3d95116100c8578063c65c3d95146105ec578063c87b56dd146105f5578063ca15c8731461060857600080fd5b8063b88d4fde146105c6578063c18d86c0146105d957600080fd5b806395d89b411161013a578063a217fddf1161011f578063a217fddf14610598578063a22cb465146105a0578063ab033ea9146105b357600080fd5b806395d89b411461057d5780639c72f27d1461058557600080fd5b80639010d07c1161016b5780639010d07c1461051b57806391d148541461052e5780639407f5cb1461057457600080fd5b80636352211e146104f557806370a082311461050857600080fd5b80632eb4a7ab1161023457806342842e0e116101e85780634f6ccce7116101cd5780634f6ccce71461049b5780635095af64146104ae5780635aa6e675146104d557600080fd5b806342842e0e1461046157806347e633801461047457600080fd5b80632f745c59116102195780632f745c591461042857806335dc395c1461043b57806336568abe1461044e57600080fd5b80632eb4a7ab1461040c5780632f2ff15d1461041557600080fd5b80630ec4c6011161028b57806323b872dd1161027057806323b872dd146103c3578063248a9ca3146103d65780632e7ba6ef146103f957600080fd5b80630ec4c6011461037557806318160ddd146103b157600080fd5b806306fdde03116102bc57806306fdde0314610315578063081812fc1461032a578063095ea7b31461036257600080fd5b806301ffc9a7146102d857806302fb4d8514610300575b600080fd5b6102eb6102e63660046141da565b6106fb565b60405190151581526020015b60405180910390f35b61031361030e366004613ff0565b6107ef565b005b61031d610912565b6040516102f7919061446d565b61033d6103383660046140f8565b6109a4565b60405173ffffffffffffffffffffffffffffffffffffffff90911681526020016102f7565b610313610370366004613ff0565b610a7e565b61039c610383366004613e2c565b6010602052600090815260409020805460019091015482565b604080519283526020830191909152016102f7565b600a545b6040519081526020016102f7565b6103136103d1366004613e9f565b610c0b565b6103b56103e43660046140f8565b60009081526006602052604090206001015490565b610313610407366004614214565b610cac565b6103b5600c5481565b610313610423366004614111565b611297565b6103b5610436366004613ff0565b6112b9565b61031361044936600461401c565b611388565b61031361045c366004614111565b6114b1565b61031361046f366004613e9f565b6114d3565b6103b57f73e573f9566d61418a34d5de3ff49360f9c51fec37f7486551670290f6285dab81565b6103b56104a93660046140f8565b6114ee565b6103b57f12b42e8a160f6064dc959c6f251e3af0750ad213dbecf573b4710d67d6c28e3981565b600f5461033d9073ffffffffffffffffffffffffffffffffffffffff1681565b61033d6105033660046140f8565b6115ac565b6103b5610516366004613e2c565b61165e565b61033d6105293660046141b8565b61172c565b6102eb61053c366004614111565b600091825260066020908152604080842073ffffffffffffffffffffffffffffffffffffffff93909316845291905290205460ff1690565b6103b5600e5481565b61031d61174b565b6103b5610593366004614136565b61175a565b6103b5600081565b6103136105ae366004613fc2565b611b45565b6103136105c1366004613e2c565b611c5c565b6103136105d4366004613ee0565b611d26565b6103136105e736600461401c565b611dce565b6103b5600d5481565b61031d6106033660046140f8565b611eed565b6103b56106163660046140f8565b61209f565b6102eb6106293660046140f8565b60116020526000908152604090205460ff1681565b61031361064c366004614111565b6120b6565b61031361065f3660046140f8565b6120c0565b6102eb610672366004613e66565b73ffffffffffffffffffffffffffffffffffffffff918216600090815260056020908152604080832093909416825291909152205460ff1690565b6103b57ffbd454f36a7e1a388bd6fc3ab10d434aa4578f811acbbcf33afb1c697486313c81565b61033d7f000000000000000000000000000000000000000000000000000000000000000081565b60007fffffffff0000000000000000000000000000000000000000000000000000000082167f80ac58cd00000000000000000000000000000000000000000000000000000000148061078e57507fffffffff0000000000000000000000000000000000000000000000000000000082167f5b5e139f00000000000000000000000000000000000000000000000000000000145b806107da57507fffffffff0000000000000000000000000000000000000000000000000000000082167f780e9d6300000000000000000000000000000000000000000000000000000000145b806107e957506107e9826121bd565b92915050565b3360009081527f1dfbce58931a94262c3b9c5acee9dafa864324624ff5446cf599e6b0e53aa0ac602052604090205460ff166108b2576040517f08c379a000000000000000000000000000000000000000000000000000000000815260206004820152603060248201527f4d65726b6c654469737472696275746f723a2043616c6c6572206d757374206860448201527f61766520534c41534845525f524f4c450000000000000000000000000000000060648201526084015b60405180910390fd5b8173ffffffffffffffffffffffffffffffffffffffff167f4ed05e9673c26d2ed44f7ef6a7f2942df0ee3b5e1e17db4b99f9dcd261a339cd826040516108fa91815260200190565b60405180910390a261090e82600083612213565b5050565b606060008054610921906145b0565b80601f016020809104026020016040519081016040528092919081815260200182805461094d906145b0565b801561099a5780601f1061096f5761010080835404028352916020019161099a565b820191906000526020600020905b81548152906001019060200180831161097d57829003601f168201915b5050505050905090565b60008181526002602052604081205473ffffffffffffffffffffffffffffffffffffffff16610a55576040517f08c379a000000000000000000000000000000000000000000000000000000000815260206004820152602c60248201527f4552433732313a20617070726f76656420717565727920666f72206e6f6e657860448201527f697374656e7420746f6b656e000000000000000000000000000000000000000060648201526084016108a9565b5060009081526004602052604090205473ffffffffffffffffffffffffffffffffffffffff1690565b6000610a89826115ac565b90508073ffffffffffffffffffffffffffffffffffffffff168373ffffffffffffffffffffffffffffffffffffffff161415610b47576040517f08c379a000000000000000000000000000000000000000000000000000000000815260206004820152602160248201527f4552433732313a20617070726f76616c20746f2063757272656e74206f776e6560448201527f720000000000000000000000000000000000000000000000000000000000000060648201526084016108a9565b3373ffffffffffffffffffffffffffffffffffffffff82161480610b705750610b708133610672565b610bfc576040517f08c379a000000000000000000000000000000000000000000000000000000000815260206004820152603860248201527f4552433732313a20617070726f76652063616c6c6572206973206e6f74206f7760448201527f6e6572206e6f7220617070726f76656420666f7220616c6c000000000000000060648201526084016108a9565b610c06838361231b565b505050565b610c1533826123bb565b610ca1576040517f08c379a000000000000000000000000000000000000000000000000000000000815260206004820152603160248201527f4552433732313a207472616e736665722063616c6c6572206973206e6f74206f60448201527f776e6572206e6f7220617070726f76656400000000000000000000000000000060648201526084016108a9565b610c06838383612527565b600f5473ffffffffffffffffffffffffffffffffffffffff16610d51576040517f08c379a000000000000000000000000000000000000000000000000000000000815260206004820152602560248201527f4d65726b6c654469737472696275746f723a20476f7665726e616e6365206e6f60448201527f742073657400000000000000000000000000000000000000000000000000000060648201526084016108a9565b3373ffffffffffffffffffffffffffffffffffffffff85168114610f1f57600f546040517f6cd8830c00000000000000000000000000000000000000000000000000000000815273ffffffffffffffffffffffffffffffffffffffff87811660048301526000921690636cd8830c9060240160206040518083038186803b158015610ddb57600080fd5b505afa158015610def573d6000803e3d6000fd5b505050506040513d601f19601f82011682018060405250810190610e139190613e49565b3360009081527fe6cc81f6a62563e0c8f6332250f41f95d2671fc486aeab4518b018ff69edf1e0602052604090205490915060ff16610ef6573373ffffffffffffffffffffffffffffffffffffffff821614610ef1576040517f08c379a000000000000000000000000000000000000000000000000000000000815260206004820152602960248201527f4d65726b6c654469737472696275746f723a2043616e6e6f7420636f6c6c656360448201527f742072657761726473000000000000000000000000000000000000000000000060648201526084016108a9565b610f1d565b73ffffffffffffffffffffffffffffffffffffffff811615610f185780610f1a565b855b91505b505b60408051602081018890527fffffffffffffffffffffffffffffffffffffffff000000000000000000000000606088901b169181019190915260548101859052600090607401604051602081830303815290604052805190602001209050610fbe84848080602002602001604051908101604052809392919081815260200183836020028082843760009201919091525050600c549150849050612799565b611024576040517f08c379a000000000000000000000000000000000000000000000000000000000815260206004820181905260248201527f4d65726b6c654469737472696275746f723a20496e76616c69642070726f6f6660448201526064016108a9565b73ffffffffffffffffffffffffffffffffffffffff861660009081526010602052604081206001810154905461105a91906144cf565b90508086116110ea576040517f08c379a0000000000000000000000000000000000000000000000000000000008152602060048201526024808201527f4d65726b6c654469737472696275746f723a204e6f7468696e6720636c61696d60448201527f61626c650000000000000000000000000000000000000000000000000000000060648201526084016108a9565b60006110f68288614538565b604080518b8152602081018a905290810182905290915073ffffffffffffffffffffffffffffffffffffffff8916907fb94bf7f9302edf52a596286915a69b4b0685574cffdedd0712e3c62f2550f0ba9060600160405180910390a261115e88826000612213565b6040517f40c10f1900000000000000000000000000000000000000000000000000000000815273ffffffffffffffffffffffffffffffffffffffff8581166004830152602482018390527f000000000000000000000000000000000000000000000000000000000000000016906340c10f1990604401602060405180830381600087803b1580156111ee57600080fd5b505af1158015611202573d6000803e3d6000fd5b505050506040513d601f19601f8201168201806040525081019061122691906140db565b61128c576040517f08c379a000000000000000000000000000000000000000000000000000000000815260206004820152601e60248201527f4d65726b6c654469737472696275746f723a204d696e74206661696c6564000060448201526064016108a9565b505050505050505050565b6112a18282612848565b6000828152600760205260409020610c069082612191565b60006112c48361165e565b8210611352576040517f08c379a000000000000000000000000000000000000000000000000000000000815260206004820152602b60248201527f455243373231456e756d657261626c653a206f776e657220696e646578206f7560448201527f74206f6620626f756e647300000000000000000000000000000000000000000060648201526084016108a9565b5073ffffffffffffffffffffffffffffffffffffffff919091166000908152600860209081526040808320938352929052205490565b3360009081527f54cdd369e4e8a8515e52ca72ec816c2101831ad1f18bf44102ed171459c9b4f8602052604090205460ff16611446576040517f08c379a000000000000000000000000000000000000000000000000000000000815260206004820152603660248201527f4d65726b6c654469737472696275746f723a2043616c6c6572206d757374206860448201527f6176652044454641554c545f41444d494e5f524f4c450000000000000000000060648201526084016108a9565b60005b82518110156114a7576114957f73e573f9566d61418a34d5de3ff49360f9c51fec37f7486551670290f6285dab848381518110611488576114886146de565b602002602001015161286e565b8061149f81614604565b915050611449565b5061090e81612929565b6114bb8282612aa6565b6000828152600760205260409020610c069082612b55565b610c0683838360405180602001604052806000815250611d26565b60006114f9600a5490565b8210611587576040517f08c379a000000000000000000000000000000000000000000000000000000000815260206004820152602c60248201527f455243373231456e756d657261626c653a20676c6f62616c20696e646578206f60448201527f7574206f6620626f756e6473000000000000000000000000000000000000000060648201526084016108a9565b600a828154811061159a5761159a6146de565b90600052602060002001549050919050565b60008181526002602052604081205473ffffffffffffffffffffffffffffffffffffffff16806107e9576040517f08c379a000000000000000000000000000000000000000000000000000000000815260206004820152602960248201527f4552433732313a206f776e657220717565727920666f72206e6f6e657869737460448201527f656e7420746f6b656e000000000000000000000000000000000000000000000060648201526084016108a9565b600073ffffffffffffffffffffffffffffffffffffffff8216611703576040517f08c379a000000000000000000000000000000000000000000000000000000000815260206004820152602a60248201527f4552433732313a2062616c616e636520717565727920666f7220746865207a6560448201527f726f20616464726573730000000000000000000000000000000000000000000060648201526084016108a9565b5073ffffffffffffffffffffffffffffffffffffffff1660009081526003602052604090205490565b60008281526007602052604081206117449083612b77565b9392505050565b606060018054610921906145b0565b3360009081527f72e6a9b491581b344add3f7be10265867e64fdd874e84e97031c08ad09aea58c602052604081205460ff16611818576040517f08c379a000000000000000000000000000000000000000000000000000000000815260206004820152603060248201527f4d65726b6c654469737472696275746f723a2043616c6c6572206d757374206860448201527f61766520555044415445525f524f4c450000000000000000000000000000000060648201526084016108a9565b60008581526011602052604090205460ff16156118b7576040517f08c379a000000000000000000000000000000000000000000000000000000000815260206004820152603a60248201527f4d65726b6c654469737472696275746f723a2043616e6e6f742075706461746560448201527f20746f20612070726576696f7573206d65726b6c6520726f6f7400000000000060648201526084016108a9565b6000600d5460016118c891906144cf565b9050828114611959576040517f08c379a000000000000000000000000000000000000000000000000000000000815260206004820152603460248201527f4d65726b6c654469737472696275746f723a2043616e206f6e6c79207570646160448201527f7465206e65787420646973747269627574696f6e00000000000000000000000060648201526084016108a9565b33600090815260146020908152604080832084845290915290205415611a01576040517f08c379a000000000000000000000000000000000000000000000000000000000815260206004820152603560248201527f4d65726b6c654469737472696275746f723a205570646174657220616c72656160448201527f6479207375626d6974746564206e657720726f6f74000000000000000000000060648201526084016108a9565b33600090815260146020908152604080832084845282528083208990558883526013909152812054611a349060016144cf565b6000888152601360205260409020819055600e54909150811415611b3557600c879055600087815260116020908152604080832080547fffffffffffffffffffffffffffffffffffffffffffffffffffffffffffffff00166001179055600d85905584835260129091529020611aab908787613d75565b50611ab63383612b83565b817fa109ba539900bf1b633f956d63c96fc89b814c7287f7aa50a9216d0b556572078787604051611ae8929190614459565b60405180910390a27fa62731e12938ea044549350e2c588c4dd97f062bea8181c4cc2fd9740e0ebad187838888604051611b259493929190614439565b60405180910390a1509050611b3d565b600d54925050505b949350505050565b73ffffffffffffffffffffffffffffffffffffffff8216331415611bc5576040517f08c379a000000000000000000000000000000000000000000000000000000000815260206004820152601960248201527f4552433732313a20617070726f766520746f2063616c6c65720000000000000060448201526064016108a9565b33600081815260056020908152604080832073ffffffffffffffffffffffffffffffffffffffff87168085529083529281902080547fffffffffffffffffffffffffffffffffffffffffffffffffffffffffffffff001686151590811790915590519081529192917f17307eab39ab6107e8899845ad3d59bd9653f200f220920489ca2b5937696c31910160405180910390a35050565b3360009081527f54cdd369e4e8a8515e52ca72ec816c2101831ad1f18bf44102ed171459c9b4f8602052604090205460ff16611d1a576040517f08c379a000000000000000000000000000000000000000000000000000000000815260206004820152603660248201527f4d65726b6c654469737472696275746f723a2043616c6c6572206d757374206860448201527f6176652044454641554c545f41444d494e5f524f4c450000000000000000000060648201526084016108a9565b611d2381612d51565b50565b611d3033836123bb565b611dbc576040517f08c379a000000000000000000000000000000000000000000000000000000000815260206004820152603160248201527f4552433732313a207472616e736665722063616c6c6572206973206e6f74206f60448201527f776e6572206e6f7220617070726f76656400000000000000000000000000000060648201526084016108a9565b611dc884848484612e97565b50505050565b3360009081527f54cdd369e4e8a8515e52ca72ec816c2101831ad1f18bf44102ed171459c9b4f8602052604090205460ff16611e8c576040517f08c379a000000000000000000000000000000000000000000000000000000000815260206004820152603660248201527f4d65726b6c654469737472696275746f723a2043616c6c6572206d757374206860448201527f6176652044454641554c545f41444d494e5f524f4c450000000000000000000060648201526084016108a9565b60005b82518110156114a757611edb7f73e573f9566d61418a34d5de3ff49360f9c51fec37f7486551670290f6285dab848381518110611ece57611ece6146de565b6020026020010151612f3a565b80611ee581614604565b915050611e8f565b60008181526002602052604090205460609073ffffffffffffffffffffffffffffffffffffffff16611fa1576040517f08c379a000000000000000000000000000000000000000000000000000000000815260206004820152603160248201527f45524337323155524953746f726167653a2055524920717565727920666f722060448201527f6e6f6e6578697374656e7420746f6b656e00000000000000000000000000000060648201526084016108a9565b60008281526012602052604081208054611fba906145b0565b80601f0160208091040260200160405190810160405280929190818152602001828054611fe6906145b0565b80156120335780601f1061200857610100808354040283529160200191612033565b820191906000526020600020905b81548152906001019060200180831161201657829003601f168201915b50505050509050600061205160408051602081019091526000815290565b9050805160001415612064575092915050565b81511561209657808260405160200161207e929190614340565b60405160208183030381529060405292505050919050565b611b3d84612f44565b60008181526007602052604081206107e9906121b3565b6114bb8282613060565b3360009081527f54cdd369e4e8a8515e52ca72ec816c2101831ad1f18bf44102ed171459c9b4f8602052604090205460ff1661217e576040517f08c379a000000000000000000000000000000000000000000000000000000000815260206004820152603660248201527f4d65726b6c654469737472696275746f723a2043616c6c6572206d757374206860448201527f6176652044454641554c545f41444d494e5f524f4c450000000000000000000060648201526084016108a9565b611d2381612929565b61090e8282613086565b60006117448373ffffffffffffffffffffffffffffffffffffffff841661317a565b60006107e9825490565b60007fffffffff0000000000000000000000000000000000000000000000000000000082167f780e9d630000000000000000000000000000000000000000000000000000000014806107e957506107e9826131c9565b81156122545773ffffffffffffffffffffffffffffffffffffffff83166000908152601060205260408120805484929061224e9084906144cf565b90915550505b80156122985773ffffffffffffffffffffffffffffffffffffffff8316600090815260106020526040812060010180548392906122929084906144cf565b90915550505b811515806122a557508015155b15610c065773ffffffffffffffffffffffffffffffffffffffff831660008181526010602052604090819020805460019091015491517f4510314558259843825372fc84b1ae19cb70b8c44805daf4808354e78a05cf6b9261230e928252602082015260400190565b60405180910390a2505050565b600081815260046020526040902080547fffffffffffffffffffffffff00000000000000000000000000000000000000001673ffffffffffffffffffffffffffffffffffffffff84169081179091558190612375826115ac565b73ffffffffffffffffffffffffffffffffffffffff167f8c5be1e5ebec7d5bd14f71427d1e84f3dd0314c0f7b2291e5b200ac8c7c3b92560405160405180910390a45050565b60008181526002602052604081205473ffffffffffffffffffffffffffffffffffffffff1661246c576040517f08c379a000000000000000000000000000000000000000000000000000000000815260206004820152602c60248201527f4552433732313a206f70657261746f7220717565727920666f72206e6f6e657860448201527f697374656e7420746f6b656e000000000000000000000000000000000000000060648201526084016108a9565b6000612477836115ac565b90508073ffffffffffffffffffffffffffffffffffffffff168473ffffffffffffffffffffffffffffffffffffffff1614806124e657508373ffffffffffffffffffffffffffffffffffffffff166124ce846109a4565b73ffffffffffffffffffffffffffffffffffffffff16145b80611b3d575073ffffffffffffffffffffffffffffffffffffffff80821660009081526005602090815260408083209388168352929052205460ff16611b3d565b8273ffffffffffffffffffffffffffffffffffffffff16612547826115ac565b73ffffffffffffffffffffffffffffffffffffffff16146125ea576040517f08c379a000000000000000000000000000000000000000000000000000000000815260206004820152602960248201527f4552433732313a207472616e73666572206f6620746f6b656e2074686174206960448201527f73206e6f74206f776e000000000000000000000000000000000000000000000060648201526084016108a9565b73ffffffffffffffffffffffffffffffffffffffff821661268c576040517f08c379a0000000000000000000000000000000000000000000000000000000008152602060048201526024808201527f4552433732313a207472616e7366657220746f20746865207a65726f2061646460448201527f726573730000000000000000000000000000000000000000000000000000000060648201526084016108a9565b61269783838361321f565b6126a260008261231b565b73ffffffffffffffffffffffffffffffffffffffff831660009081526003602052604081208054600192906126d8908490614538565b909155505073ffffffffffffffffffffffffffffffffffffffff821660009081526003602052604081208054600192906127139084906144cf565b909155505060008181526002602052604080822080547fffffffffffffffffffffffff00000000000000000000000000000000000000001673ffffffffffffffffffffffffffffffffffffffff86811691821790925591518493918716917fddf252ad1be2c89b69c2b068fc378daa952ba7f163c4a11628f55a4df523b3ef91a4505050565b600081815b855181101561283d5760008682815181106127bb576127bb6146de565b602002602001015190508083116127fd57604080516020810185905290810182905260600160405160208183030381529060405280519060200120925061282a565b60408051602081018390529081018490526060016040516020818303038152906040528051906020012092505b508061283581614604565b91505061279e565b509092149392505050565b6000828152600660205260409020600101546128648133613325565b610c068383613086565b600082815260066020908152604080832073ffffffffffffffffffffffffffffffffffffffff8516845290915290205460ff161561090e57600082815260066020908152604080832073ffffffffffffffffffffffffffffffffffffffff8516808552925280832080547fffffffffffffffffffffffffffffffffffffffffffffffffffffffffffffff0016905551339285917ff6391f5c32d9c69d2a47ea670b442974b53935d1edc7fd64eb21e047a839171b9190a45050565b806129b6576040517f08c379a000000000000000000000000000000000000000000000000000000000815260206004820152603460248201527f4d65726b6c654469737472696275746f723a205570646174652074687265736860448201527f6f6c64206d757374206265206e6f6e2d7a65726f00000000000000000000000060648201526084016108a9565b6129df7f73e573f9566d61418a34d5de3ff49360f9c51fec37f7486551670290f6285dab61209f565b811115612a6e576040517f08c379a000000000000000000000000000000000000000000000000000000000815260206004820152602760248201527f4d65726b6c654469737472696275746f723a207468726573686f6c64203e207560448201527f706461746572730000000000000000000000000000000000000000000000000060648201526084016108a9565b6040518181527f4a3f39b792c062592e6c20d41d18331563a8de4ba398cd40ef7c9afffd6234959060200160405180910390a1600e55565b73ffffffffffffffffffffffffffffffffffffffff81163314612b4b576040517f08c379a000000000000000000000000000000000000000000000000000000000815260206004820152602f60248201527f416363657373436f6e74726f6c3a2063616e206f6e6c792072656e6f756e636560448201527f20726f6c657320666f722073656c66000000000000000000000000000000000060648201526084016108a9565b61090e828261286e565b60006117448373ffffffffffffffffffffffffffffffffffffffff84166133f7565b600061174483836134ea565b73ffffffffffffffffffffffffffffffffffffffff8216612c00576040517f08c379a000000000000000000000000000000000000000000000000000000000815260206004820181905260248201527f4552433732313a206d696e7420746f20746865207a65726f206164647265737360448201526064016108a9565b60008181526002602052604090205473ffffffffffffffffffffffffffffffffffffffff1615612c8c576040517f08c379a000000000000000000000000000000000000000000000000000000000815260206004820152601c60248201527f4552433732313a20746f6b656e20616c7265616479206d696e7465640000000060448201526064016108a9565b612c986000838361321f565b73ffffffffffffffffffffffffffffffffffffffff82166000908152600360205260408120805460019290612cce9084906144cf565b909155505060008181526002602052604080822080547fffffffffffffffffffffffff00000000000000000000000000000000000000001673ffffffffffffffffffffffffffffffffffffffff861690811790915590518392907fddf252ad1be2c89b69c2b068fc378daa952ba7f163c4a11628f55a4df523b3ef908290a45050565b600f5473ffffffffffffffffffffffffffffffffffffffff82811691161415612dfc576040517f08c379a000000000000000000000000000000000000000000000000000000000815260206004820152603160248201527f4d65726b6c654469737472696275746f723a20476f7665726e616e636520616460448201527f6472657373206e6f74206368616e67656400000000000000000000000000000060648201526084016108a9565b600f546040805173ffffffffffffffffffffffffffffffffffffffff928316815291831660208301527f3aaaebeb4821d6a7e5c77ece53cff0afcc56c82add2c978dbbb7f73e84cbcfd2910160405180910390a1600f80547fffffffffffffffffffffffff00000000000000000000000000000000000000001673ffffffffffffffffffffffffffffffffffffffff92909216919091179055565b612ea2848484612527565b612eae84848484613514565b611dc8576040517f08c379a000000000000000000000000000000000000000000000000000000000815260206004820152603260248201527f4552433732313a207472616e7366657220746f206e6f6e20455243373231526560448201527f63656976657220696d706c656d656e746572000000000000000000000000000060648201526084016108a9565b6112a18282612187565b60008181526002602052604090205460609073ffffffffffffffffffffffffffffffffffffffff16612ff8576040517f08c379a000000000000000000000000000000000000000000000000000000000815260206004820152602f60248201527f4552433732314d657461646174613a2055524920717565727920666f72206e6f60448201527f6e6578697374656e7420746f6b656e000000000000000000000000000000000060648201526084016108a9565b600061300f60408051602081019091526000815290565b9050600081511161302f5760405180602001604052806000815250611744565b8061303984613710565b60405160200161304a929190614340565b6040516020818303038152906040529392505050565b60008281526006602052604090206001015461307c8133613325565b610c06838361286e565b600082815260066020908152604080832073ffffffffffffffffffffffffffffffffffffffff8516845290915290205460ff1661090e57600082815260066020908152604080832073ffffffffffffffffffffffffffffffffffffffff85168452909152902080547fffffffffffffffffffffffffffffffffffffffffffffffffffffffffffffff0016600117905561311c3390565b73ffffffffffffffffffffffffffffffffffffffff168173ffffffffffffffffffffffffffffffffffffffff16837f2f8788117e7eff1d82e926ec794901d17c78024a50270940304540a733656f0d60405160405180910390a45050565b60008181526001830160205260408120546131c1575081546001818101845560008481526020808220909301849055845484825282860190935260409020919091556107e9565b5060006107e9565b60007fffffffff0000000000000000000000000000000000000000000000000000000082167f5a05180f0000000000000000000000000000000000000000000000000000000014806107e957506107e982613842565b73ffffffffffffffffffffffffffffffffffffffff83166132875761328281600a80546000838152600b60205260408120829055600182018355919091527fc65a7bb8d6351c1cf70c95a316cc6a92839c986682d98bc35f958f4883f9d2a80155565b6132c4565b8173ffffffffffffffffffffffffffffffffffffffff168373ffffffffffffffffffffffffffffffffffffffff16146132c4576132c48382613898565b73ffffffffffffffffffffffffffffffffffffffff82166132e857610c068161394f565b8273ffffffffffffffffffffffffffffffffffffffff168273ffffffffffffffffffffffffffffffffffffffff1614610c0657610c0682826139fe565b600082815260066020908152604080832073ffffffffffffffffffffffffffffffffffffffff8516845290915290205460ff1661090e5761337d8173ffffffffffffffffffffffffffffffffffffffff166014613a4f565b613388836020613a4f565b60405160200161339992919061436f565b604080517fffffffffffffffffffffffffffffffffffffffffffffffffffffffffffffffe0818403018152908290527f08c379a00000000000000000000000000000000000000000000000000000000082526108a99160040161446d565b600081815260018301602052604081205480156134e057600061341b600183614538565b855490915060009061342f90600190614538565b905081811461349457600086600001828154811061344f5761344f6146de565b9060005260206000200154905080876000018481548110613472576134726146de565b6000918252602080832090910192909255918252600188019052604090208390555b85548690806134a5576134a56146af565b6001900381819060005260206000200160009055905585600101600086815260200190815260200160002060009055600193505050506107e9565b60009150506107e9565b6000826000018281548110613501576135016146de565b9060005260206000200154905092915050565b600073ffffffffffffffffffffffffffffffffffffffff84163b15613708576040517f150b7a0200000000000000000000000000000000000000000000000000000000815273ffffffffffffffffffffffffffffffffffffffff85169063150b7a029061358b9033908990889088906004016143f0565b602060405180830381600087803b1580156135a557600080fd5b505af19250505080156135f3575060408051601f3d9081017fffffffffffffffffffffffffffffffffffffffffffffffffffffffffffffffe01682019092526135f0918101906141f7565b60015b6136bd573d808015613621576040519150601f19603f3d011682016040523d82523d6000602084013e613626565b606091505b5080516136b5576040517f08c379a000000000000000000000000000000000000000000000000000000000815260206004820152603260248201527f4552433732313a207472616e7366657220746f206e6f6e20455243373231526560448201527f63656976657220696d706c656d656e746572000000000000000000000000000060648201526084016108a9565b805181602001fd5b7fffffffff00000000000000000000000000000000000000000000000000000000167f150b7a0200000000000000000000000000000000000000000000000000000000149050611b3d565b506001611b3d565b60608161375057505060408051808201909152600181527f3000000000000000000000000000000000000000000000000000000000000000602082015290565b8160005b811561377a578061376481614604565b91506137739050600a836144e7565b9150613754565b60008167ffffffffffffffff8111156137955761379561470d565b6040519080825280601f01601f1916602001820160405280156137bf576020820181803683370190505b5090505b8415611b3d576137d4600183614538565b91506137e1600a8661463d565b6137ec9060306144cf565b60f81b818381518110613801576138016146de565b60200101907effffffffffffffffffffffffffffffffffffffffffffffffffffffffffffff1916908160001a90535061383b600a866144e7565b94506137c3565b60007fffffffff0000000000000000000000000000000000000000000000000000000082167f7965db0b0000000000000000000000000000000000000000000000000000000014806107e957506107e982613c92565b600060016138a58461165e565b6138af9190614538565b60008381526009602052604090205490915080821461390f5773ffffffffffffffffffffffffffffffffffffffff841660009081526008602090815260408083208584528252808320548484528184208190558352600990915290208190555b50600091825260096020908152604080842084905573ffffffffffffffffffffffffffffffffffffffff9094168352600881528383209183525290812055565b600a5460009061396190600190614538565b6000838152600b6020526040812054600a8054939450909284908110613989576139896146de565b9060005260206000200154905080600a83815481106139aa576139aa6146de565b6000918252602080832090910192909255828152600b9091526040808220849055858252812055600a8054806139e2576139e26146af565b6001900381819060005260206000200160009055905550505050565b6000613a098361165e565b73ffffffffffffffffffffffffffffffffffffffff9093166000908152600860209081526040808320868452825280832085905593825260099052919091209190915550565b60606000613a5e8360026144fb565b613a699060026144cf565b67ffffffffffffffff811115613a8157613a8161470d565b6040519080825280601f01601f191660200182016040528015613aab576020820181803683370190505b5090507f300000000000000000000000000000000000000000000000000000000000000081600081518110613ae257613ae26146de565b60200101907effffffffffffffffffffffffffffffffffffffffffffffffffffffffffffff1916908160001a9053507f780000000000000000000000000000000000000000000000000000000000000081600181518110613b4557613b456146de565b60200101907effffffffffffffffffffffffffffffffffffffffffffffffffffffffffffff1916908160001a9053506000613b818460026144fb565b613b8c9060016144cf565b90505b6001811115613c29577f303132333435363738396162636465660000000000000000000000000000000085600f1660108110613bcd57613bcd6146de565b1a60f81b828281518110613be357613be36146de565b60200101907effffffffffffffffffffffffffffffffffffffffffffffffffffffffffffff1916908160001a90535060049490941c93613c228161457b565b9050613b8f565b508315611744576040517f08c379a000000000000000000000000000000000000000000000000000000000815260206004820181905260248201527f537472696e67733a20686578206c656e67746820696e73756666696369656e7460448201526064016108a9565b60007fffffffff0000000000000000000000000000000000000000000000000000000082167f80ac58cd000000000000000000000000000000000000000000000000000000001480613d2557507fffffffff0000000000000000000000000000000000000000000000000000000082167f5b5e139f00000000000000000000000000000000000000000000000000000000145b806107e957507f01ffc9a7000000000000000000000000000000000000000000000000000000007fffffffff000000000000000000000000000000000000000000000000000000008316146107e9565b828054613d81906145b0565b90600052602060002090601f016020900481019282613da35760008555613e07565b82601f10613dda578280017fffffffffffffffffffffffffffffffffffffffffffffffffffffffffffffff00823516178555613e07565b82800160010185558215613e07579182015b82811115613e07578235825591602001919060010190613dec565b50613e13929150613e17565b5090565b5b80821115613e135760008155600101613e18565b600060208284031215613e3e57600080fd5b81356117448161473c565b600060208284031215613e5b57600080fd5b81516117448161473c565b60008060408385031215613e7957600080fd5b8235613e848161473c565b91506020830135613e948161473c565b809150509250929050565b600080600060608486031215613eb457600080fd5b8335613ebf8161473c565b92506020840135613ecf8161473c565b929592945050506040919091013590565b60008060008060808587031215613ef657600080fd5b8435613f018161473c565b9350602085810135613f128161473c565b935060408601359250606086013567ffffffffffffffff80821115613f3657600080fd5b818801915088601f830112613f4a57600080fd5b813581811115613f5c57613f5c61470d565b613f8c847fffffffffffffffffffffffffffffffffffffffffffffffffffffffffffffffe0601f84011601614480565b91508082528984828501011115613fa257600080fd5b808484018584013760008482840101525080935050505092959194509250565b60008060408385031215613fd557600080fd5b8235613fe08161473c565b91506020830135613e948161475e565b6000806040838503121561400357600080fd5b823561400e8161473c565b946020939093013593505050565b6000806040838503121561402f57600080fd5b823567ffffffffffffffff8082111561404757600080fd5b818501915085601f83011261405b57600080fd5b813560208282111561406f5761406f61470d565b8160051b9250614080818401614480565b8281528181019085830185870184018b101561409b57600080fd5b600096505b848710156140ca57803595506140b58661473c565b858352600196909601959183019183016140a0565b509997909101359750505050505050565b6000602082840312156140ed57600080fd5b81516117448161475e565b60006020828403121561410a57600080fd5b5035919050565b6000806040838503121561412457600080fd5b823591506020830135613e948161473c565b6000806000806060858703121561414c57600080fd5b84359350602085013567ffffffffffffffff8082111561416b57600080fd5b818701915087601f83011261417f57600080fd5b81358181111561418e57600080fd5b8860208285010111156141a057600080fd5b95986020929092019750949560400135945092505050565b600080604083850312156141cb57600080fd5b50508035926020909101359150565b6000602082840312156141ec57600080fd5b81356117448161476c565b60006020828403121561420957600080fd5b81516117448161476c565b60008060008060006080868803121561422c57600080fd5b85359450602086013561423e8161473c565b935060408601359250606086013567ffffffffffffffff8082111561426257600080fd5b818801915088601f83011261427657600080fd5b81358181111561428557600080fd5b8960208260051b850101111561429a57600080fd5b9699959850939650602001949392505050565b600081518084526142c581602086016020860161454f565b601f017fffffffffffffffffffffffffffffffffffffffffffffffffffffffffffffffe0169290920160200192915050565b8183528181602085013750600060208284010152600060207fffffffffffffffffffffffffffffffffffffffffffffffffffffffffffffffe0601f840116840101905092915050565b6000835161435281846020880161454f565b83519083019061436681836020880161454f565b01949350505050565b7f416363657373436f6e74726f6c3a206163636f756e74200000000000000000008152600083516143a781601785016020880161454f565b7f206973206d697373696e6720726f6c652000000000000000000000000000000060179184019182015283516143e481602884016020880161454f565b01602801949350505050565b600073ffffffffffffffffffffffffffffffffffffffff80871683528086166020840152508360408301526080606083015261442f60808301846142ad565b9695505050505050565b84815283602082015260606040820152600061442f6060830184866142f7565b602081526000611b3d6020830184866142f7565b60208152600061174460208301846142ad565b604051601f82017fffffffffffffffffffffffffffffffffffffffffffffffffffffffffffffffe016810167ffffffffffffffff811182821017156144c7576144c761470d565b604052919050565b600082198211156144e2576144e2614651565b500190565b6000826144f6576144f6614680565b500490565b6000817fffffffffffffffffffffffffffffffffffffffffffffffffffffffffffffffff048311821515161561453357614533614651565b500290565b60008282101561454a5761454a614651565b500390565b60005b8381101561456a578181015183820152602001614552565b83811115611dc85750506000910152565b60008161458a5761458a614651565b507fffffffffffffffffffffffffffffffffffffffffffffffffffffffffffffffff0190565b600181811c908216806145c457607f821691505b602082108114156145fe577f4e487b7100000000000000000000000000000000000000000000000000000000600052602260045260246000fd5b50919050565b60007fffffffffffffffffffffffffffffffffffffffffffffffffffffffffffffffff82141561463657614636614651565b5060010190565b60008261464c5761464c614680565b500690565b7f4e487b7100000000000000000000000000000000000000000000000000000000600052601160045260246000fd5b7f4e487b7100000000000000000000000000000000000000000000000000000000600052601260045260246000fd5b7f4e487b7100000000000000000000000000000000000000000000000000000000600052603160045260246000fd5b7f4e487b7100000000000000000000000000000000000000000000000000000000600052603260045260246000fd5b7f4e487b7100000000000000000000000000000000000000000000000000000000600052604160045260246000fd5b73ffffffffffffffffffffffffffffffffffffffff81168114611d2357600080fd5b8015158114611d2357600080fd5b7fffffffff0000000000000000000000000000000000000000000000000000000081168114611d2357600080fdfea26469706673582212203bd3084d9f4445c634b0c6840bceaac8314b7965fa090527c838009e303ad32d64736f6c6343000806003373e573f9566d61418a34d5de3ff49360f9c51fec37f7486551670290f6285dab",
  "devdoc": {
    "details": "Distributes rewards to block producers in the network. NFT serves as proof of distribution.",
    "kind": "dev",
    "methods": {
      "addUpdaters(address[],uint256)": {
        "details": "The caller must have the `DEFAULT_ADMIN_ROLE`",
        "params": {
          "newThreshold": "New threshold",
          "newUpdaters": "New updater addresses"
        }
      },
      "approve(address,uint256)": {
        "details": "See {IERC721-approve}."
      },
      "balanceOf(address)": {
        "details": "See {IERC721-balanceOf}."
      },
      "claim(uint256,address,uint256,bytes32[])": {
        "details": "Given a merkle proof of (index, account, totalEarned), claim all unclaimed tokens. Unclaimed tokens are the difference between the total earned tokens (provided in the merkle tree) and those that have been either claimed or slashed. Note: it is possible for the claimed and slashed tokens to exceeed the total earned tokens, particularly when a slashing has occured. In this case no tokens are claimable until total earned has exceeded the sum of the claimed and slashed. If no tokens are claimable, this function will revert. ",
        "params": {
          "account": "Account for claim",
          "index": "Claim index",
          "merkleProof": "Merkle proof",
          "totalEarned": "Total lifetime amount of tokens earned by account"
        }
      },
      "constructor": {
        "params": {
          "_admin": "Admin address",
          "_governance": "Governance address",
          "_slashers": "Initial slashers",
          "_token": "Token address",
          "_updateThreshold": "Number of updaters required to update",
          "_updaters": "Initial updaters"
        }
      },
      "getApproved(uint256)": {
        "details": "See {IERC721-getApproved}."
      },
      "getRoleAdmin(bytes32)": {
        "details": "Returns the admin role that controls `role`. See {grantRole} and {revokeRole}. To change a role's admin, use {_setRoleAdmin}."
      },
      "getRoleMember(bytes32,uint256)": {
        "details": "Returns one of the accounts that have `role`. `index` must be a value between 0 and {getRoleMemberCount}, non-inclusive. Role bearers are not sorted in any particular way, and their ordering may change at any point. WARNING: When using {getRoleMember} and {getRoleMemberCount}, make sure you perform all queries on the same block. See the following https://forum.openzeppelin.com/t/iterating-over-elements-on-enumerableset-in-openzeppelin-contracts/2296[forum post] for more information."
      },
      "getRoleMemberCount(bytes32)": {
        "details": "Returns the number of accounts that have `role`. Can be used together with {getRoleMember} to enumerate all bearers of a role."
      },
      "grantRole(bytes32,address)": {
        "details": "Overload {grantRole} to track enumerable memberships"
      },
      "hasRole(bytes32,address)": {
        "details": "Returns `true` if `account` has been granted `role`."
      },
      "isApprovedForAll(address,address)": {
        "details": "See {IERC721-isApprovedForAll}."
      },
      "name()": {
        "details": "See {IERC721Metadata-name}."
      },
      "ownerOf(uint256)": {
        "details": "See {IERC721-ownerOf}."
      },
      "removeUpdaters(address[],uint256)": {
        "details": "The caller must have the `DEFAULT_ADMIN_ROLE`",
        "params": {
          "existingUpdaters": "Existing updater addresses",
          "newThreshold": "New threshold"
        }
      },
      "renounceRole(bytes32,address)": {
        "details": "Overload {renounceRole} to track enumerable memberships"
      },
      "revokeRole(bytes32,address)": {
        "details": "Overload {revokeRole} to track enumerable memberships"
      },
      "safeTransferFrom(address,address,uint256)": {
        "details": "See {IERC721-safeTransferFrom}."
      },
      "safeTransferFrom(address,address,uint256,bytes)": {
        "details": "See {IERC721-safeTransferFrom}."
      },
      "setApprovalForAll(address,bool)": {
        "details": "See {IERC721-setApprovalForAll}."
      },
      "setGovernance(address)": {
        "details": "The caller must have the `DEFAULT_ADMIN_ROLE`",
        "params": {
          "to": "New governance address"
        }
      },
      "setUpdateThreshold(uint256)": {
        "details": "The caller must have the `DEFAULT_ADMIN_ROLE`",
        "params": {
          "to": "New threshold"
        }
      },
      "slash(address,uint256)": {
        "details": "The caller must have `SLASHERS_ROLE`",
        "params": {
          "account": "Account to slash",
          "amount": "Amount to slash"
        }
      },
      "supportsInterface(bytes4)": {
        "details": "See the corresponding https://eips.ethereum.org/EIPS/eip-165#how-interfaces-are-identified[EIP section] to learn more about how these ids are created. This function call must use less than 30 000 gas.",
        "params": {
          "interfaceId": "ID of interface"
        }
      },
      "symbol()": {
        "details": "See {IERC721Metadata-symbol}."
      },
      "tokenByIndex(uint256)": {
        "details": "See {IERC721Enumerable-tokenByIndex}."
      },
      "tokenOfOwnerByIndex(address,uint256)": {
        "details": "See {IERC721Enumerable-tokenOfOwnerByIndex}."
      },
      "tokenURI(uint256)": {
        "params": {
          "tokenId": "ID of token"
        }
      },
      "totalSupply()": {
        "details": "See {IERC721Enumerable-totalSupply}."
      },
      "transferFrom(address,address,uint256)": {
        "details": "See {IERC721-transferFrom}."
      },
      "updateMerkleRoot(bytes32,string,uint256)": {
        "details": "The caller must have `UPDATER_ROLE`",
        "params": {
          "newDistributionNumber": "Number of distribution",
          "newMerkleRoot": "Merkle root",
          "uri": "NFT uri"
        }
      }
    },
    "stateVariables": {
      "_tokenURI": {
        "details": "Path to distribution metadata (including proofs)"
      },
      "_updateVotes": {
        "details": "Votes for a new merkle root"
      },
      "_updaterVotes": {
        "details": "Vote for new merkle root for each distribution"
      }
    },
    "title": "MerkleDistributor",
    "version": 1
  },
  "userdoc": {
    "kind": "user",
    "methods": {
      "DISTRIBUTOR_ROLE()": {
        "notice": "Role to distribute rewards to accounts"
      },
      "SLASHER_ROLE()": {
        "notice": "Role to slash earned rewards"
      },
      "UPDATER_ROLE()": {
        "notice": "Role allowing the merkle root to be updated"
      },
      "accountState(address)": {
        "notice": "Account state"
      },
      "addUpdaters(address[],uint256)": {
        "notice": "Add updaters and modify threshold"
      },
      "claim(uint256,address,uint256,bytes32[])": {
        "notice": "Claim all unclaimed tokens"
      },
      "constructor": {
        "notice": "Create new MerkleDistributor"
      },
      "distributionCount()": {
        "notice": "Total number of distributions, also token id of the current distribution"
      },
      "governance()": {
        "notice": "Governance address"
      },
      "merkleRoot()": {
        "notice": "Root of a merkle tree containing total earned amounts"
      },
      "previousMerkleRoot(bytes32)": {
        "notice": "Historical merkle roots"
      },
      "removeUpdaters(address[],uint256)": {
        "notice": "Remove updaters and modify threshold"
      },
      "setGovernance(address)": {
        "notice": "Change the governance address"
      },
      "setUpdateThreshold(uint256)": {
        "notice": "Change the update threshold"
      },
      "slash(address,uint256)": {
        "notice": "Slash `account` for `amount` tokens."
      },
      "supportsInterface(bytes4)": {
        "notice": "Returns true if this contract implements the interface defined by `interfaceId`. "
      },
      "token()": {
        "notice": "Token distributed by this contract"
      },
      "tokenURI(uint256)": {
        "notice": "Returns the Uniform Resource Identifier (URI) for `tokenId` token."
      },
      "updateMerkleRoot(bytes32,string,uint256)": {
        "notice": "Set a new merkle root and mints NFT with metadata URI to retreive the full tree"
      },
      "updateThreshold()": {
        "notice": "Number of votes from updaters needed to apply a new root"
      }
    },
    "version": 1
  },
  "storageLayout": {
    "storage": [
      {
        "astId": 12306,
        "contract": "contracts/MerkleDistributor.sol:MerkleDistributor",
        "label": "_name",
        "offset": 0,
        "slot": "0",
        "type": "t_string_storage"
      },
      {
        "astId": 12308,
        "contract": "contracts/MerkleDistributor.sol:MerkleDistributor",
        "label": "_symbol",
        "offset": 0,
        "slot": "1",
        "type": "t_string_storage"
      },
      {
        "astId": 12312,
        "contract": "contracts/MerkleDistributor.sol:MerkleDistributor",
        "label": "_owners",
        "offset": 0,
        "slot": "2",
        "type": "t_mapping(t_uint256,t_address)"
      },
      {
        "astId": 12316,
        "contract": "contracts/MerkleDistributor.sol:MerkleDistributor",
        "label": "_balances",
        "offset": 0,
        "slot": "3",
        "type": "t_mapping(t_address,t_uint256)"
      },
      {
        "astId": 12320,
        "contract": "contracts/MerkleDistributor.sol:MerkleDistributor",
        "label": "_tokenApprovals",
        "offset": 0,
        "slot": "4",
        "type": "t_mapping(t_uint256,t_address)"
      },
      {
        "astId": 12326,
        "contract": "contracts/MerkleDistributor.sol:MerkleDistributor",
        "label": "_operatorApprovals",
        "offset": 0,
        "slot": "5",
        "type": "t_mapping(t_address,t_mapping(t_address,t_bool))"
      },
      {
        "astId": 11016,
        "contract": "contracts/MerkleDistributor.sol:MerkleDistributor",
        "label": "_roles",
        "offset": 0,
        "slot": "6",
        "type": "t_mapping(t_bytes32,t_struct(RoleData)11011_storage)"
      },
      {
        "astId": 11344,
        "contract": "contracts/MerkleDistributor.sol:MerkleDistributor",
        "label": "_roleMembers",
        "offset": 0,
        "slot": "7",
        "type": "t_mapping(t_bytes32,t_struct(AddressSet)13718_storage)"
      },
      {
        "astId": 13113,
        "contract": "contracts/MerkleDistributor.sol:MerkleDistributor",
        "label": "_ownedTokens",
        "offset": 0,
        "slot": "8",
        "type": "t_mapping(t_address,t_mapping(t_uint256,t_uint256))"
      },
      {
        "astId": 13117,
        "contract": "contracts/MerkleDistributor.sol:MerkleDistributor",
        "label": "_ownedTokensIndex",
        "offset": 0,
        "slot": "9",
        "type": "t_mapping(t_uint256,t_uint256)"
      },
      {
        "astId": 13120,
        "contract": "contracts/MerkleDistributor.sol:MerkleDistributor",
        "label": "_allTokens",
        "offset": 0,
        "slot": "10",
        "type": "t_array(t_uint256)dyn_storage"
      },
      {
        "astId": 13124,
        "contract": "contracts/MerkleDistributor.sol:MerkleDistributor",
        "label": "_allTokensIndex",
        "offset": 0,
        "slot": "11",
        "type": "t_mapping(t_uint256,t_uint256)"
      },
      {
        "astId": 3228,
        "contract": "contracts/MerkleDistributor.sol:MerkleDistributor",
        "label": "merkleRoot",
        "offset": 0,
        "slot": "12",
        "type": "t_bytes32"
      },
      {
        "astId": 3232,
        "contract": "contracts/MerkleDistributor.sol:MerkleDistributor",
        "label": "distributionCount",
        "offset": 0,
        "slot": "13",
        "type": "t_uint256"
      },
      {
        "astId": 3235,
        "contract": "contracts/MerkleDistributor.sol:MerkleDistributor",
        "label": "updateThreshold",
        "offset": 0,
        "slot": "14",
        "type": "t_uint256"
      },
      {
        "astId": 3238,
        "contract": "contracts/MerkleDistributor.sol:MerkleDistributor",
        "label": "governance",
        "offset": 0,
        "slot": "15",
        "type": "t_address"
      },
      {
        "astId": 3250,
        "contract": "contracts/MerkleDistributor.sol:MerkleDistributor",
        "label": "accountState",
        "offset": 0,
        "slot": "16",
        "type": "t_mapping(t_address,t_struct(AccountState)3243_storage)"
      },
      {
        "astId": 3256,
        "contract": "contracts/MerkleDistributor.sol:MerkleDistributor",
        "label": "previousMerkleRoot",
        "offset": 0,
        "slot": "17",
        "type": "t_mapping(t_bytes32,t_bool)"
      },
      {
        "astId": 3261,
        "contract": "contracts/MerkleDistributor.sol:MerkleDistributor",
        "label": "_tokenURI",
        "offset": 0,
        "slot": "18",
        "type": "t_mapping(t_uint256,t_string_storage)"
      },
      {
        "astId": 3266,
        "contract": "contracts/MerkleDistributor.sol:MerkleDistributor",
        "label": "_updateVotes",
        "offset": 0,
        "slot": "19",
        "type": "t_mapping(t_bytes32,t_uint256)"
      },
      {
        "astId": 3273,
        "contract": "contracts/MerkleDistributor.sol:MerkleDistributor",
        "label": "_updaterVotes",
        "offset": 0,
        "slot": "20",
        "type": "t_mapping(t_address,t_mapping(t_uint256,t_bytes32))"
      }
    ],
    "types": {
      "t_address": {
        "encoding": "inplace",
        "label": "address",
        "numberOfBytes": "20"
      },
      "t_array(t_bytes32)dyn_storage": {
        "base": "t_bytes32",
        "encoding": "dynamic_array",
        "label": "bytes32[]",
        "numberOfBytes": "32"
      },
      "t_array(t_uint256)dyn_storage": {
        "base": "t_uint256",
        "encoding": "dynamic_array",
        "label": "uint256[]",
        "numberOfBytes": "32"
      },
      "t_bool": {
        "encoding": "inplace",
        "label": "bool",
        "numberOfBytes": "1"
      },
      "t_bytes32": {
        "encoding": "inplace",
        "label": "bytes32",
        "numberOfBytes": "32"
      },
      "t_mapping(t_address,t_bool)": {
        "encoding": "mapping",
        "key": "t_address",
        "label": "mapping(address => bool)",
        "numberOfBytes": "32",
        "value": "t_bool"
      },
      "t_mapping(t_address,t_mapping(t_address,t_bool))": {
        "encoding": "mapping",
        "key": "t_address",
        "label": "mapping(address => mapping(address => bool))",
        "numberOfBytes": "32",
        "value": "t_mapping(t_address,t_bool)"
      },
      "t_mapping(t_address,t_mapping(t_uint256,t_bytes32))": {
        "encoding": "mapping",
        "key": "t_address",
        "label": "mapping(address => mapping(uint256 => bytes32))",
        "numberOfBytes": "32",
        "value": "t_mapping(t_uint256,t_bytes32)"
      },
      "t_mapping(t_address,t_mapping(t_uint256,t_uint256))": {
        "encoding": "mapping",
        "key": "t_address",
        "label": "mapping(address => mapping(uint256 => uint256))",
        "numberOfBytes": "32",
        "value": "t_mapping(t_uint256,t_uint256)"
      },
      "t_mapping(t_address,t_struct(AccountState)3243_storage)": {
        "encoding": "mapping",
        "key": "t_address",
        "label": "mapping(address => struct MerkleDistributor.AccountState)",
        "numberOfBytes": "32",
        "value": "t_struct(AccountState)3243_storage"
      },
      "t_mapping(t_address,t_uint256)": {
        "encoding": "mapping",
        "key": "t_address",
        "label": "mapping(address => uint256)",
        "numberOfBytes": "32",
        "value": "t_uint256"
      },
      "t_mapping(t_bytes32,t_bool)": {
        "encoding": "mapping",
        "key": "t_bytes32",
        "label": "mapping(bytes32 => bool)",
        "numberOfBytes": "32",
        "value": "t_bool"
      },
      "t_mapping(t_bytes32,t_struct(AddressSet)13718_storage)": {
        "encoding": "mapping",
        "key": "t_bytes32",
        "label": "mapping(bytes32 => struct EnumerableSet.AddressSet)",
        "numberOfBytes": "32",
        "value": "t_struct(AddressSet)13718_storage"
      },
      "t_mapping(t_bytes32,t_struct(RoleData)11011_storage)": {
        "encoding": "mapping",
        "key": "t_bytes32",
        "label": "mapping(bytes32 => struct AccessControl.RoleData)",
        "numberOfBytes": "32",
        "value": "t_struct(RoleData)11011_storage"
      },
      "t_mapping(t_bytes32,t_uint256)": {
        "encoding": "mapping",
        "key": "t_bytes32",
        "label": "mapping(bytes32 => uint256)",
        "numberOfBytes": "32",
        "value": "t_uint256"
      },
      "t_mapping(t_uint256,t_address)": {
        "encoding": "mapping",
        "key": "t_uint256",
        "label": "mapping(uint256 => address)",
        "numberOfBytes": "32",
        "value": "t_address"
      },
      "t_mapping(t_uint256,t_bytes32)": {
        "encoding": "mapping",
        "key": "t_uint256",
        "label": "mapping(uint256 => bytes32)",
        "numberOfBytes": "32",
        "value": "t_bytes32"
      },
      "t_mapping(t_uint256,t_string_storage)": {
        "encoding": "mapping",
        "key": "t_uint256",
        "label": "mapping(uint256 => string)",
        "numberOfBytes": "32",
        "value": "t_string_storage"
      },
      "t_mapping(t_uint256,t_uint256)": {
        "encoding": "mapping",
        "key": "t_uint256",
        "label": "mapping(uint256 => uint256)",
        "numberOfBytes": "32",
        "value": "t_uint256"
      },
      "t_string_storage": {
        "encoding": "bytes",
        "label": "string",
        "numberOfBytes": "32"
      },
      "t_struct(AccountState)3243_storage": {
        "encoding": "inplace",
        "label": "struct MerkleDistributor.AccountState",
        "members": [
          {
            "astId": 3240,
            "contract": "contracts/MerkleDistributor.sol:MerkleDistributor",
            "label": "totalClaimed",
            "offset": 0,
            "slot": "0",
            "type": "t_uint256"
          },
          {
            "astId": 3242,
            "contract": "contracts/MerkleDistributor.sol:MerkleDistributor",
            "label": "totalSlashed",
            "offset": 0,
            "slot": "1",
            "type": "t_uint256"
          }
        ],
        "numberOfBytes": "64"
      },
      "t_struct(AddressSet)13718_storage": {
        "encoding": "inplace",
        "label": "struct EnumerableSet.AddressSet",
        "members": [
          {
            "astId": 13717,
            "contract": "contracts/MerkleDistributor.sol:MerkleDistributor",
            "label": "_inner",
            "offset": 0,
            "slot": "0",
            "type": "t_struct(Set)13447_storage"
          }
        ],
        "numberOfBytes": "64"
      },
      "t_struct(RoleData)11011_storage": {
        "encoding": "inplace",
        "label": "struct AccessControl.RoleData",
        "members": [
          {
            "astId": 11008,
            "contract": "contracts/MerkleDistributor.sol:MerkleDistributor",
            "label": "members",
            "offset": 0,
            "slot": "0",
            "type": "t_mapping(t_address,t_bool)"
          },
          {
            "astId": 11010,
            "contract": "contracts/MerkleDistributor.sol:MerkleDistributor",
            "label": "adminRole",
            "offset": 0,
            "slot": "1",
            "type": "t_bytes32"
          }
        ],
        "numberOfBytes": "64"
      },
      "t_struct(Set)13447_storage": {
        "encoding": "inplace",
        "label": "struct EnumerableSet.Set",
        "members": [
          {
            "astId": 13442,
            "contract": "contracts/MerkleDistributor.sol:MerkleDistributor",
            "label": "_values",
            "offset": 0,
            "slot": "0",
            "type": "t_array(t_bytes32)dyn_storage"
          },
          {
            "astId": 13446,
            "contract": "contracts/MerkleDistributor.sol:MerkleDistributor",
            "label": "_indexes",
            "offset": 0,
            "slot": "1",
            "type": "t_mapping(t_bytes32,t_uint256)"
          }
        ],
        "numberOfBytes": "64"
      },
      "t_uint256": {
        "encoding": "inplace",
        "label": "uint256",
        "numberOfBytes": "32"
      }
    }
  }
}