{
  "address": "0xF47Fe18aa23F176092E53fD6b3132D03cB9112e2",
  "abi": [
    {
      "inputs": [
        {
          "internalType": "contract IERC20Mintable",
          "name": "token_",
          "type": "address"
        },
        {
          "internalType": "address",
          "name": "governance_",
          "type": "address"
        },
        {
          "internalType": "address",
          "name": "admin",
          "type": "address"
        }
      ],
      "stateMutability": "nonpayable",
      "type": "constructor"
    },
    {
      "anonymous": false,
      "inputs": [
        {
          "indexed": true,
          "internalType": "address",
          "name": "account",
          "type": "address"
        },
        {
          "indexed": false,
          "internalType": "uint256",
          "name": "totalClaimed",
          "type": "uint256"
        },
        {
          "indexed": false,
          "internalType": "uint256",
          "name": "totalSlashed",
          "type": "uint256"
        }
      ],
      "name": "AccountUpdated",
      "type": "event"
    },
    {
      "anonymous": false,
      "inputs": [
        {
          "indexed": true,
          "internalType": "address",
          "name": "owner",
          "type": "address"
        },
        {
          "indexed": true,
          "internalType": "address",
          "name": "approved",
          "type": "address"
        },
        {
          "indexed": true,
          "internalType": "uint256",
          "name": "tokenId",
          "type": "uint256"
        }
      ],
      "name": "Approval",
      "type": "event"
    },
    {
      "anonymous": false,
      "inputs": [
        {
          "indexed": true,
          "internalType": "address",
          "name": "owner",
          "type": "address"
        },
        {
          "indexed": true,
          "internalType": "address",
          "name": "operator",
          "type": "address"
        },
        {
          "indexed": false,
          "internalType": "bool",
          "name": "approved",
          "type": "bool"
        }
      ],
      "name": "ApprovalForAll",
      "type": "event"
    },
    {
      "anonymous": false,
      "inputs": [
        {
          "indexed": false,
          "internalType": "uint256",
          "name": "index",
          "type": "uint256"
        },
        {
          "indexed": false,
          "internalType": "uint256",
          "name": "totalEarned",
          "type": "uint256"
        },
        {
          "indexed": true,
          "internalType": "address",
          "name": "account",
          "type": "address"
        },
        {
          "indexed": false,
          "internalType": "uint256",
          "name": "claimed",
          "type": "uint256"
        }
      ],
      "name": "Claimed",
      "type": "event"
    },
    {
      "anonymous": false,
      "inputs": [
        {
          "indexed": false,
          "internalType": "address",
          "name": "from",
          "type": "address"
        },
        {
          "indexed": false,
          "internalType": "address",
          "name": "to",
          "type": "address"
        }
      ],
      "name": "GovernanceChanged",
      "type": "event"
    },
    {
      "anonymous": false,
      "inputs": [
        {
          "indexed": false,
          "internalType": "bytes32",
          "name": "merkleRoot",
          "type": "bytes32"
        },
        {
          "indexed": false,
          "internalType": "uint256",
          "name": "distributionNumber",
          "type": "uint256"
        },
        {
          "indexed": false,
          "internalType": "string",
          "name": "metadataURI",
          "type": "string"
        }
      ],
      "name": "MerkleRootUpdated",
      "type": "event"
    },
    {
      "anonymous": false,
      "inputs": [
        {
          "indexed": false,
          "internalType": "string",
          "name": "_value",
          "type": "string"
        },
        {
          "indexed": true,
          "internalType": "uint256",
          "name": "_id",
          "type": "uint256"
        }
      ],
      "name": "PermanentURI",
      "type": "event"
    },
    {
      "anonymous": false,
      "inputs": [
        {
          "indexed": true,
          "internalType": "bytes32",
          "name": "role",
          "type": "bytes32"
        },
        {
          "indexed": true,
          "internalType": "bytes32",
          "name": "previousAdminRole",
          "type": "bytes32"
        },
        {
          "indexed": true,
          "internalType": "bytes32",
          "name": "newAdminRole",
          "type": "bytes32"
        }
      ],
      "name": "RoleAdminChanged",
      "type": "event"
    },
    {
      "anonymous": false,
      "inputs": [
        {
          "indexed": true,
          "internalType": "bytes32",
          "name": "role",
          "type": "bytes32"
        },
        {
          "indexed": true,
          "internalType": "address",
          "name": "account",
          "type": "address"
        },
        {
          "indexed": true,
          "internalType": "address",
          "name": "sender",
          "type": "address"
        }
      ],
      "name": "RoleGranted",
      "type": "event"
    },
    {
      "anonymous": false,
      "inputs": [
        {
          "indexed": true,
          "internalType": "bytes32",
          "name": "role",
          "type": "bytes32"
        },
        {
          "indexed": true,
          "internalType": "address",
          "name": "account",
          "type": "address"
        },
        {
          "indexed": true,
          "internalType": "address",
          "name": "sender",
          "type": "address"
        }
      ],
      "name": "RoleRevoked",
      "type": "event"
    },
    {
      "anonymous": false,
      "inputs": [
        {
          "indexed": true,
          "internalType": "address",
          "name": "account",
          "type": "address"
        },
        {
          "indexed": false,
          "internalType": "uint256",
          "name": "slashed",
          "type": "uint256"
        }
      ],
      "name": "Slashed",
      "type": "event"
    },
    {
      "anonymous": false,
      "inputs": [
        {
          "indexed": true,
          "internalType": "address",
          "name": "from",
          "type": "address"
        },
        {
          "indexed": true,
          "internalType": "address",
          "name": "to",
          "type": "address"
        },
        {
          "indexed": true,
          "internalType": "uint256",
          "name": "tokenId",
          "type": "uint256"
        }
      ],
      "name": "Transfer",
      "type": "event"
    },
    {
      "inputs": [],
      "name": "DEFAULT_ADMIN_ROLE",
      "outputs": [
        {
          "internalType": "bytes32",
          "name": "",
          "type": "bytes32"
        }
      ],
      "stateMutability": "view",
      "type": "function"
    },
    {
      "inputs": [],
      "name": "DISTRIBUTOR_ROLE",
      "outputs": [
        {
          "internalType": "bytes32",
          "name": "",
          "type": "bytes32"
        }
      ],
      "stateMutability": "view",
      "type": "function"
    },
    {
      "inputs": [],
      "name": "SLASHER_ROLE",
      "outputs": [
        {
          "internalType": "bytes32",
          "name": "",
          "type": "bytes32"
        }
      ],
      "stateMutability": "view",
      "type": "function"
    },
    {
      "inputs": [],
      "name": "UPDATER_ROLE",
      "outputs": [
        {
          "internalType": "bytes32",
          "name": "",
          "type": "bytes32"
        }
      ],
      "stateMutability": "view",
      "type": "function"
    },
    {
      "inputs": [
        {
          "internalType": "address",
          "name": "",
          "type": "address"
        }
      ],
      "name": "accountState",
      "outputs": [
        {
          "internalType": "uint256",
          "name": "totalClaimed",
          "type": "uint256"
        },
        {
          "internalType": "uint256",
          "name": "totalSlashed",
          "type": "uint256"
        }
      ],
      "stateMutability": "view",
      "type": "function"
    },
    {
      "inputs": [
        {
          "internalType": "address",
          "name": "to",
          "type": "address"
        },
        {
          "internalType": "uint256",
          "name": "tokenId",
          "type": "uint256"
        }
      ],
      "name": "approve",
      "outputs": [],
      "stateMutability": "nonpayable",
      "type": "function"
    },
    {
      "inputs": [
        {
          "internalType": "address",
          "name": "owner",
          "type": "address"
        }
      ],
      "name": "balanceOf",
      "outputs": [
        {
          "internalType": "uint256",
          "name": "",
          "type": "uint256"
        }
      ],
      "stateMutability": "view",
      "type": "function"
    },
    {
      "inputs": [
        {
          "internalType": "uint256",
          "name": "index",
          "type": "uint256"
        },
        {
          "internalType": "address",
          "name": "account",
          "type": "address"
        },
        {
          "internalType": "uint256",
          "name": "totalEarned",
          "type": "uint256"
        },
        {
          "internalType": "bytes32[]",
          "name": "merkleProof",
          "type": "bytes32[]"
        }
      ],
      "name": "claim",
      "outputs": [],
      "stateMutability": "nonpayable",
      "type": "function"
    },
    {
      "inputs": [],
      "name": "distributionCount",
      "outputs": [
        {
          "internalType": "uint256",
          "name": "",
          "type": "uint256"
        }
      ],
      "stateMutability": "view",
      "type": "function"
    },
    {
      "inputs": [
        {
          "internalType": "uint256",
          "name": "tokenId",
          "type": "uint256"
        }
      ],
      "name": "getApproved",
      "outputs": [
        {
          "internalType": "address",
          "name": "",
          "type": "address"
        }
      ],
      "stateMutability": "view",
      "type": "function"
    },
    {
      "inputs": [
        {
          "internalType": "bytes32",
          "name": "role",
          "type": "bytes32"
        }
      ],
      "name": "getRoleAdmin",
      "outputs": [
        {
          "internalType": "bytes32",
          "name": "",
          "type": "bytes32"
        }
      ],
      "stateMutability": "view",
      "type": "function"
    },
    {
      "inputs": [],
      "name": "governance",
      "outputs": [
        {
          "internalType": "address",
          "name": "",
          "type": "address"
        }
      ],
      "stateMutability": "view",
      "type": "function"
    },
    {
      "inputs": [
        {
          "internalType": "bytes32",
          "name": "role",
          "type": "bytes32"
        },
        {
          "internalType": "address",
          "name": "account",
          "type": "address"
        }
      ],
      "name": "grantRole",
      "outputs": [],
      "stateMutability": "nonpayable",
      "type": "function"
    },
    {
      "inputs": [
        {
          "internalType": "bytes32",
          "name": "role",
          "type": "bytes32"
        },
        {
          "internalType": "address",
          "name": "account",
          "type": "address"
        }
      ],
      "name": "hasRole",
      "outputs": [
        {
          "internalType": "bool",
          "name": "",
          "type": "bool"
        }
      ],
      "stateMutability": "view",
      "type": "function"
    },
    {
      "inputs": [
        {
          "internalType": "address",
          "name": "owner",
          "type": "address"
        },
        {
          "internalType": "address",
          "name": "operator",
          "type": "address"
        }
      ],
      "name": "isApprovedForAll",
      "outputs": [
        {
          "internalType": "bool",
          "name": "",
          "type": "bool"
        }
      ],
      "stateMutability": "view",
      "type": "function"
    },
    {
      "inputs": [],
      "name": "merkleRoot",
      "outputs": [
        {
          "internalType": "bytes32",
          "name": "",
          "type": "bytes32"
        }
      ],
      "stateMutability": "view",
      "type": "function"
    },
    {
      "inputs": [],
      "name": "name",
      "outputs": [
        {
          "internalType": "string",
          "name": "",
          "type": "string"
        }
      ],
      "stateMutability": "view",
      "type": "function"
    },
    {
      "inputs": [
        {
          "internalType": "uint256",
          "name": "tokenId",
          "type": "uint256"
        }
      ],
      "name": "ownerOf",
      "outputs": [
        {
          "internalType": "address",
          "name": "",
          "type": "address"
        }
      ],
      "stateMutability": "view",
      "type": "function"
    },
    {
      "inputs": [
        {
          "internalType": "bytes32",
          "name": "",
          "type": "bytes32"
        }
      ],
      "name": "previousMerkleRoot",
      "outputs": [
        {
          "internalType": "bool",
          "name": "",
          "type": "bool"
        }
      ],
      "stateMutability": "view",
      "type": "function"
    },
    {
      "inputs": [
        {
          "internalType": "bytes32",
          "name": "role",
          "type": "bytes32"
        },
        {
          "internalType": "address",
          "name": "account",
          "type": "address"
        }
      ],
      "name": "renounceRole",
      "outputs": [],
      "stateMutability": "nonpayable",
      "type": "function"
    },
    {
      "inputs": [
        {
          "internalType": "bytes32",
          "name": "role",
          "type": "bytes32"
        },
        {
          "internalType": "address",
          "name": "account",
          "type": "address"
        }
      ],
      "name": "revokeRole",
      "outputs": [],
      "stateMutability": "nonpayable",
      "type": "function"
    },
    {
      "inputs": [
        {
          "internalType": "address",
          "name": "from",
          "type": "address"
        },
        {
          "internalType": "address",
          "name": "to",
          "type": "address"
        },
        {
          "internalType": "uint256",
          "name": "tokenId",
          "type": "uint256"
        }
      ],
      "name": "safeTransferFrom",
      "outputs": [],
      "stateMutability": "nonpayable",
      "type": "function"
    },
    {
      "inputs": [
        {
          "internalType": "address",
          "name": "from",
          "type": "address"
        },
        {
          "internalType": "address",
          "name": "to",
          "type": "address"
        },
        {
          "internalType": "uint256",
          "name": "tokenId",
          "type": "uint256"
        },
        {
          "internalType": "bytes",
          "name": "_data",
          "type": "bytes"
        }
      ],
      "name": "safeTransferFrom",
      "outputs": [],
      "stateMutability": "nonpayable",
      "type": "function"
    },
    {
      "inputs": [
        {
          "internalType": "address",
          "name": "operator",
          "type": "address"
        },
        {
          "internalType": "bool",
          "name": "approved",
          "type": "bool"
        }
      ],
      "name": "setApprovalForAll",
      "outputs": [],
      "stateMutability": "nonpayable",
      "type": "function"
    },
    {
      "inputs": [
        {
          "internalType": "address",
          "name": "to",
          "type": "address"
        }
      ],
      "name": "setGovernance",
      "outputs": [],
      "stateMutability": "nonpayable",
      "type": "function"
    },
    {
      "inputs": [
        {
          "internalType": "address",
          "name": "account",
          "type": "address"
        },
        {
          "internalType": "uint256",
          "name": "amount",
          "type": "uint256"
        }
      ],
      "name": "slash",
      "outputs": [],
      "stateMutability": "nonpayable",
      "type": "function"
    },
    {
      "inputs": [
        {
          "internalType": "bytes4",
          "name": "interfaceId",
          "type": "bytes4"
        }
      ],
      "name": "supportsInterface",
      "outputs": [
        {
          "internalType": "bool",
          "name": "",
          "type": "bool"
        }
      ],
      "stateMutability": "view",
      "type": "function"
    },
    {
      "inputs": [],
      "name": "symbol",
      "outputs": [
        {
          "internalType": "string",
          "name": "",
          "type": "string"
        }
      ],
      "stateMutability": "view",
      "type": "function"
    },
    {
      "inputs": [],
      "name": "token",
      "outputs": [
        {
          "internalType": "contract IERC20Mintable",
          "name": "",
          "type": "address"
        }
      ],
      "stateMutability": "view",
      "type": "function"
    },
    {
      "inputs": [
        {
          "internalType": "uint256",
          "name": "index",
          "type": "uint256"
        }
      ],
      "name": "tokenByIndex",
      "outputs": [
        {
          "internalType": "uint256",
          "name": "",
          "type": "uint256"
        }
      ],
      "stateMutability": "view",
      "type": "function"
    },
    {
      "inputs": [
        {
          "internalType": "address",
          "name": "owner",
          "type": "address"
        },
        {
          "internalType": "uint256",
          "name": "index",
          "type": "uint256"
        }
      ],
      "name": "tokenOfOwnerByIndex",
      "outputs": [
        {
          "internalType": "uint256",
          "name": "",
          "type": "uint256"
        }
      ],
      "stateMutability": "view",
      "type": "function"
    },
    {
      "inputs": [
        {
          "internalType": "uint256",
          "name": "tokenId",
          "type": "uint256"
        }
      ],
      "name": "tokenURI",
      "outputs": [
        {
          "internalType": "string",
          "name": "",
          "type": "string"
        }
      ],
      "stateMutability": "view",
      "type": "function"
    },
    {
      "inputs": [],
      "name": "totalSupply",
      "outputs": [
        {
          "internalType": "uint256",
          "name": "",
          "type": "uint256"
        }
      ],
      "stateMutability": "view",
      "type": "function"
    },
    {
      "inputs": [
        {
          "internalType": "address",
          "name": "from",
          "type": "address"
        },
        {
          "internalType": "address",
          "name": "to",
          "type": "address"
        },
        {
          "internalType": "uint256",
          "name": "tokenId",
          "type": "uint256"
        }
      ],
      "name": "transferFrom",
      "outputs": [],
      "stateMutability": "nonpayable",
      "type": "function"
    },
    {
      "inputs": [
        {
          "internalType": "bytes32",
          "name": "_merkleRoot",
          "type": "bytes32"
        },
        {
          "internalType": "string",
          "name": "uri",
          "type": "string"
        }
      ],
      "name": "updateMerkleRoot",
      "outputs": [
        {
          "internalType": "uint256",
          "name": "",
          "type": "uint256"
        }
      ],
      "stateMutability": "nonpayable",
      "type": "function"
    }
  ],
  "transactionHash": "0x2b74956996b90f33fe1e7f388f2dadf2bcf88162031ab74a95c02cbdd4559328",
  "args": [
    "0xf12FB149Ef0BA744666BBf3fb23982Ba1f180da0",
    "0xE4A7C70E138e671F53Bfa04Ad5c2A3Fb10fe89cB",
    "0xEF2A0Eb838fc44A8f354706E738F2FcCB3e09071"
  ],
  "solcInputHash": "f2e0d93da45bce73f63d4d4c998cadba",
  "bytecode": "0x60a06040523480156200001157600080fd5b50604051620038eb380380620038eb83398101604081905262000034916200033e565b604080518082018252601981527f4564656e204e6574776f726b20446973747269627574696f6e00000000000000602080830191825283518085019094526005845264115111539160da1b908401528151919291620000969160009162000298565b508051620000ac90600190602084019062000298565b5050506001600160601b0319606084901b16608052600b546000908152600f60205260409020805460ff19166001179055620000e882620000fe565b620000f5600082620001e4565b505050620003e8565b600d546001600160a01b03828116911614156200017b5760405162461bcd60e51b815260206004820152603160248201527f4d65726b6c654469737472696275746f723a20476f7665726e616e6365206164604482015270191c995cdcc81b9bdd0818da185b99d959607a1b606482015260840160405180910390fd5b600d54604080516001600160a01b03928316815291831660208301527f3aaaebeb4821d6a7e5c77ece53cff0afcc56c82add2c978dbbb7f73e84cbcfd2910160405180910390a1600d80546001600160a01b0319166001600160a01b0392909216919091179055565b620001f08282620001f4565b5050565b60008281526006602090815260408083206001600160a01b038516845290915290205460ff16620001f05760008281526006602090815260408083206001600160a01b03851684529091529020805460ff19166001179055620002543390565b6001600160a01b0316816001600160a01b0316837f2f8788117e7eff1d82e926ec794901d17c78024a50270940304540a733656f0d60405160405180910390a45050565b828054620002a69062000392565b90600052602060002090601f016020900481019282620002ca576000855562000315565b82601f10620002e557805160ff191683800117855562000315565b8280016001018555821562000315579182015b8281111562000315578251825591602001919060010190620002f8565b506200032392915062000327565b5090565b5b8082111562000323576000815560010162000328565b6000806000606084860312156200035457600080fd5b83516200036181620003cf565b60208501519093506200037481620003cf565b60408501519092506200038781620003cf565b809150509250925092565b600181811c90821680620003a757607f821691505b60208210811415620003c957634e487b7160e01b600052602260045260246000fd5b50919050565b6001600160a01b0381168114620003e557600080fd5b50565b60805160601c6134dd6200040e600039600081816105ab0152610edc01526134dd6000f3fe608060405234801561001057600080fd5b50600436106102415760003560e01c80635095af6411610145578063b88d4fde116100bd578063d547741f1161008c578063e985e9c511610071578063e985e9c514610543578063f0bd87cc1461057f578063fc0c546a146105a657600080fd5b8063d547741f1461051d578063e48034b51461053057600080fd5b8063b88d4fde146104cb578063c65c3d95146104de578063c87b56dd146104e7578063cd170ce7146104fa57600080fd5b806391d1485411610114578063a217fddf116100f9578063a217fddf1461049d578063a22cb465146104a5578063ab033ea9146104b857600080fd5b806391d148541461045c57806395d89b411461049557600080fd5b80635095af64146103fc5780635aa6e675146104235780636352211e1461043657806370a082311461044957600080fd5b8063248a9ca3116101d85780632f745c59116101a757806342842e0e1161018c57806342842e0e146103af57806347e63380146103c25780634f6ccce7146103e957600080fd5b80632f745c591461038957806336568abe1461039c57600080fd5b8063248a9ca3146103375780632e7ba6ef1461035a5780632eb4a7ab1461036d5780632f2ff15d1461037657600080fd5b8063095ea7b311610214578063095ea7b3146102c35780630ec4c601146102d657806318160ddd1461031257806323b872dd1461032457600080fd5b806301ffc9a71461024657806302fb4d851461026e57806306fdde0314610283578063081812fc14610298575b600080fd5b610259610254366004612f8c565b6105cd565b60405190151581526020015b60405180910390f35b61028161027c366004612e89565b6106c1565b005b61028b6107bd565b60405161026591906131d6565b6102ab6102a6366004612ed2565b61084f565b6040516001600160a01b039091168152602001610265565b6102816102d1366004612e89565b6108f5565b6102fd6102e4366004612cc7565b600e602052600090815260409020805460019091015482565b60408051928352602083019190915201610265565b6009545b604051908152602001610265565b610281610332366004612d3a565b610a27565b610316610345366004612ed2565b60009081526006602052604090206001015490565b610281610368366004612fc6565b610aae565b610316600b5481565b610281610384366004612eeb565b610faf565b610316610397366004612e89565b610fd5565b6102816103aa366004612eeb565b61107d565b6102816103bd366004612d3a565b611105565b6103167f73e573f9566d61418a34d5de3ff49360f9c51fec37f7486551670290f6285dab81565b6103166103f7366004612ed2565b611120565b6103167f12b42e8a160f6064dc959c6f251e3af0750ad213dbecf573b4710d67d6c28e3981565b600d546102ab906001600160a01b031681565b6102ab610444366004612ed2565b6111c4565b610316610457366004612cc7565b61124f565b61025961046a366004612eeb565b60009182526006602090815260408084206001600160a01b0393909316845291905290205460ff1690565b61028b6112e9565b610316600081565b6102816104b3366004612e5b565b6112f8565b6102816104c6366004612cc7565b6113bd565b6102816104d9366004612d7b565b61146d565b610316600c5481565b61028b6104f5366004612ed2565b6114fb565b610259610508366004612ed2565b600f6020526000908152604090205460ff1681565b61028161052b366004612eeb565b61168e565b61031661053e366004612f10565b6116b4565b610259610551366004612d01565b6001600160a01b03918216600090815260056020908152604080832093909416825291909152205460ff1690565b6103167ffbd454f36a7e1a388bd6fc3ab10d434aa4578f811acbbcf33afb1c697486313c81565b6102ab7f000000000000000000000000000000000000000000000000000000000000000081565b60007fffffffff0000000000000000000000000000000000000000000000000000000082167f80ac58cd00000000000000000000000000000000000000000000000000000000148061066057507fffffffff0000000000000000000000000000000000000000000000000000000082167f5b5e139f00000000000000000000000000000000000000000000000000000000145b806106ac57507fffffffff0000000000000000000000000000000000000000000000000000000082167f780e9d6300000000000000000000000000000000000000000000000000000000145b806106bb57506106bb826118b6565b92915050565b3360009081527f1dfbce58931a94262c3b9c5acee9dafa864324624ff5446cf599e6b0e53aa0ac602052604090205460ff1661076a5760405162461bcd60e51b815260206004820152603060248201527f4d65726b6c654469737472696275746f723a2043616c6c6572206d757374206860448201527f61766520534c41534845525f524f4c450000000000000000000000000000000060648201526084015b60405180910390fd5b816001600160a01b03167f4ed05e9673c26d2ed44f7ef6a7f2942df0ee3b5e1e17db4b99f9dcd261a339cd826040516107a591815260200190565b60405180910390a26107b98260008361190c565b5050565b6060600080546107cc906132ca565b80601f01602080910402602001604051908101604052809291908181526020018280546107f8906132ca565b80156108455780601f1061081a57610100808354040283529160200191610845565b820191906000526020600020905b81548152906001019060200180831161082857829003601f168201915b5050505050905090565b6000818152600260205260408120546001600160a01b03166108d95760405162461bcd60e51b815260206004820152602c60248201527f4552433732313a20617070726f76656420717565727920666f72206e6f6e657860448201527f697374656e7420746f6b656e00000000000000000000000000000000000000006064820152608401610761565b506000908152600460205260409020546001600160a01b031690565b6000610900826111c4565b9050806001600160a01b0316836001600160a01b0316141561098a5760405162461bcd60e51b815260206004820152602160248201527f4552433732313a20617070726f76616c20746f2063757272656e74206f776e6560448201527f72000000000000000000000000000000000000000000000000000000000000006064820152608401610761565b336001600160a01b03821614806109a657506109a68133610551565b610a185760405162461bcd60e51b815260206004820152603860248201527f4552433732313a20617070726f76652063616c6c6572206973206e6f74206f7760448201527f6e6572206e6f7220617070726f76656420666f7220616c6c00000000000000006064820152608401610761565b610a2283836119ed565b505050565b610a313382611a73565b610aa35760405162461bcd60e51b815260206004820152603160248201527f4552433732313a207472616e736665722063616c6c6572206973206e6f74206f60448201527f776e6572206e6f7220617070726f7665640000000000000000000000000000006064820152608401610761565b610a22838383611b77565b600d546001600160a01b0316610b2c5760405162461bcd60e51b815260206004820152602560248201527f4d65726b6c654469737472696275746f723a20476f7665726e616e6365206e6f60448201527f74207365740000000000000000000000000000000000000000000000000000006064820152608401610761565b336001600160a01b0385168114610cac57600d546040517f6cd8830c0000000000000000000000000000000000000000000000000000000081526001600160a01b0387811660048301526000921690636cd8830c9060240160206040518083038186803b158015610b9c57600080fd5b505afa158015610bb0573d6000803e3d6000fd5b505050506040513d601f19601f82011682018060405250810190610bd49190612ce4565b3360009081527fe6cc81f6a62563e0c8f6332250f41f95d2671fc486aeab4518b018ff69edf1e0602052604090205490915060ff16610c9057336001600160a01b03821614610c8b5760405162461bcd60e51b815260206004820152602960248201527f4d65726b6c654469737472696275746f723a2043616e6e6f7420636f6c6c656360448201527f74207265776172647300000000000000000000000000000000000000000000006064820152608401610761565b610caa565b6001600160a01b03811615610ca55780610ca7565b855b91505b505b60408051602081018890527fffffffffffffffffffffffffffffffffffffffff000000000000000000000000606088901b169181019190915260548101859052600090607401604051602081830303815290604052805190602001209050610d4b84848080602002602001604051908101604052809392919081815260200183836020028082843760009201919091525050600b549150849050611d67565b610d975760405162461bcd60e51b815260206004820181905260248201527f4d65726b6c654469737472696275746f723a20496e76616c69642070726f6f666044820152606401610761565b6001600160a01b0386166000908152600e6020526040812060018101549054610dc091906131e9565b9050808611610e365760405162461bcd60e51b8152602060048201526024808201527f4d65726b6c654469737472696275746f723a204e6f7468696e6720636c61696d60448201527f61626c65000000000000000000000000000000000000000000000000000000006064820152608401610761565b6000610e428288613252565b604080518b8152602081018a90529081018290529091506001600160a01b038916907fb94bf7f9302edf52a596286915a69b4b0685574cffdedd0712e3c62f2550f0ba9060600160405180910390a2610e9d8882600061190c565b6040517f40c10f190000000000000000000000000000000000000000000000000000000081526001600160a01b038581166004830152602482018390527f000000000000000000000000000000000000000000000000000000000000000016906340c10f1990604401602060405180830381600087803b158015610f2057600080fd5b505af1158015610f34573d6000803e3d6000fd5b505050506040513d601f19601f82011682018060405250810190610f589190612eb5565b610fa45760405162461bcd60e51b815260206004820152601e60248201527f4d65726b6c654469737472696275746f723a204d696e74206661696c656400006044820152606401610761565b505050505050505050565b600082815260066020526040902060010154610fcb8133611e16565b610a228383611e96565b6000610fe08361124f565b82106110545760405162461bcd60e51b815260206004820152602b60248201527f455243373231456e756d657261626c653a206f776e657220696e646578206f7560448201527f74206f6620626f756e64730000000000000000000000000000000000000000006064820152608401610761565b506001600160a01b03919091166000908152600760209081526040808320938352929052205490565b6001600160a01b03811633146110fb5760405162461bcd60e51b815260206004820152602f60248201527f416363657373436f6e74726f6c3a2063616e206f6e6c792072656e6f756e636560448201527f20726f6c657320666f722073656c6600000000000000000000000000000000006064820152608401610761565b6107b98282611f38565b610a228383836040518060200160405280600081525061146d565b600061112b60095490565b821061119f5760405162461bcd60e51b815260206004820152602c60248201527f455243373231456e756d657261626c653a20676c6f62616c20696e646578206f60448201527f7574206f6620626f756e647300000000000000000000000000000000000000006064820152608401610761565b600982815481106111b2576111b26133f8565b90600052602060002001549050919050565b6000818152600260205260408120546001600160a01b0316806106bb5760405162461bcd60e51b815260206004820152602960248201527f4552433732313a206f776e657220717565727920666f72206e6f6e657869737460448201527f656e7420746f6b656e00000000000000000000000000000000000000000000006064820152608401610761565b60006001600160a01b0382166112cd5760405162461bcd60e51b815260206004820152602a60248201527f4552433732313a2062616c616e636520717565727920666f7220746865207a6560448201527f726f2061646472657373000000000000000000000000000000000000000000006064820152608401610761565b506001600160a01b031660009081526003602052604090205490565b6060600180546107cc906132ca565b6001600160a01b0382163314156113515760405162461bcd60e51b815260206004820152601960248201527f4552433732313a20617070726f766520746f2063616c6c6572000000000000006044820152606401610761565b3360008181526005602090815260408083206001600160a01b03871680855290835292819020805460ff191686151590811790915590519081529192917f17307eab39ab6107e8899845ad3d59bd9653f200f220920489ca2b5937696c31910160405180910390a35050565b3360009081527f54cdd369e4e8a8515e52ca72ec816c2101831ad1f18bf44102ed171459c9b4f8602052604090205460ff166114615760405162461bcd60e51b815260206004820152603660248201527f4d65726b6c654469737472696275746f723a2043616c6c6572206d757374206860448201527f6176652044454641554c545f41444d494e5f524f4c45000000000000000000006064820152608401610761565b61146a81611fbb565b50565b6114773383611a73565b6114e95760405162461bcd60e51b815260206004820152603160248201527f4552433732313a207472616e736665722063616c6c6572206973206e6f74206f60448201527f776e6572206e6f7220617070726f7665640000000000000000000000000000006064820152608401610761565b6114f5848484846120c0565b50505050565b6000818152600260205260409020546060906001600160a01b03166115885760405162461bcd60e51b815260206004820152603160248201527f45524337323155524953746f726167653a2055524920717565727920666f722060448201527f6e6f6e6578697374656e7420746f6b656e0000000000000000000000000000006064820152608401610761565b600082815260106020526040812080546115a1906132ca565b80601f01602080910402602001604051908101604052809291908181526020018280546115cd906132ca565b801561161a5780601f106115ef5761010080835404028352916020019161161a565b820191906000526020600020905b8154815290600101906020018083116115fd57829003601f168201915b50505050509050600061163860408051602081019091526000815290565b905080516000141561164b575092915050565b81511561167d5780826040516020016116659291906130b6565b60405160208183030381529060405292505050919050565b61168684612149565b949350505050565b6000828152600660205260409020600101546116aa8133611e16565b610a228383611f38565b3360009081527f72e6a9b491581b344add3f7be10265867e64fdd874e84e97031c08ad09aea58c602052604081205460ff166117585760405162461bcd60e51b815260206004820152603060248201527f4d65726b6c654469737472696275746f723a2043616c6c6572206d757374206860448201527f61766520555044415445525f524f4c45000000000000000000000000000000006064820152608401610761565b6000848152600f602052604090205460ff16156117dd5760405162461bcd60e51b815260206004820152603a60248201527f4d65726b6c654469737472696275746f723a2043616e6e6f742075706461746560448201527f20746f20612070726576696f7573206d65726b6c6520726f6f740000000000006064820152608401610761565b6000600c5460016117ee91906131e9565b600b8690556000868152600f60209081526040808320805460ff19166001179055600c8490558383526010909152902090915061182c908585612c2e565b50611837338261223f565b807fa109ba539900bf1b633f956d63c96fc89b814c7287f7aa50a9216d0b5565720785856040516118699291906131c2565b60405180910390a27fa62731e12938ea044549350e2c588c4dd97f062bea8181c4cc2fd9740e0ebad1858286866040516118a694939291906131a2565b60405180910390a1949350505050565b60007fffffffff0000000000000000000000000000000000000000000000000000000082167f780e9d630000000000000000000000000000000000000000000000000000000014806106bb57506106bb826123a5565b8115611940576001600160a01b0383166000908152600e60205260408120805484929061193a9084906131e9565b90915550505b8015611977576001600160a01b0383166000908152600e6020526040812060010180548392906119719084906131e9565b90915550505b8115158061198457508015155b15610a22576001600160a01b0383166000818152600e602052604090819020805460019091015491517f4510314558259843825372fc84b1ae19cb70b8c44805daf4808354e78a05cf6b926119e0928252602082015260400190565b60405180910390a2505050565b600081815260046020526040902080547fffffffffffffffffffffffff0000000000000000000000000000000000000000166001600160a01b0384169081179091558190611a3a826111c4565b6001600160a01b03167f8c5be1e5ebec7d5bd14f71427d1e84f3dd0314c0f7b2291e5b200ac8c7c3b92560405160405180910390a45050565b6000818152600260205260408120546001600160a01b0316611afd5760405162461bcd60e51b815260206004820152602c60248201527f4552433732313a206f70657261746f7220717565727920666f72206e6f6e657860448201527f697374656e7420746f6b656e00000000000000000000000000000000000000006064820152608401610761565b6000611b08836111c4565b9050806001600160a01b0316846001600160a01b03161480611b435750836001600160a01b0316611b388461084f565b6001600160a01b0316145b8061168657506001600160a01b0380821660009081526005602090815260408083209388168352929052205460ff16611686565b826001600160a01b0316611b8a826111c4565b6001600160a01b031614611c065760405162461bcd60e51b815260206004820152602960248201527f4552433732313a207472616e73666572206f6620746f6b656e2074686174206960448201527f73206e6f74206f776e00000000000000000000000000000000000000000000006064820152608401610761565b6001600160a01b038216611c815760405162461bcd60e51b8152602060048201526024808201527f4552433732313a207472616e7366657220746f20746865207a65726f2061646460448201527f72657373000000000000000000000000000000000000000000000000000000006064820152608401610761565b611c8c8383836123fb565b611c976000826119ed565b6001600160a01b0383166000908152600360205260408120805460019290611cc0908490613252565b90915550506001600160a01b0382166000908152600360205260408120805460019290611cee9084906131e9565b909155505060008181526002602052604080822080547fffffffffffffffffffffffff0000000000000000000000000000000000000000166001600160a01b0386811691821790925591518493918716917fddf252ad1be2c89b69c2b068fc378daa952ba7f163c4a11628f55a4df523b3ef91a4505050565b600081815b8551811015611e0b576000868281518110611d8957611d896133f8565b60200260200101519050808311611dcb576040805160208101859052908101829052606001604051602081830303815290604052805190602001209250611df8565b60408051602081018390529081018490526060016040516020818303038152906040528051906020012092505b5080611e038161331e565b915050611d6c565b509092149392505050565b60008281526006602090815260408083206001600160a01b038516845290915290205460ff166107b957611e54816001600160a01b031660146124b3565b611e5f8360206124b3565b604051602001611e709291906130e5565b60408051601f198184030181529082905262461bcd60e51b8252610761916004016131d6565b60008281526006602090815260408083206001600160a01b038516845290915290205460ff166107b95760008281526006602090815260408083206001600160a01b03851684529091529020805460ff19166001179055611ef43390565b6001600160a01b0316816001600160a01b0316837f2f8788117e7eff1d82e926ec794901d17c78024a50270940304540a733656f0d60405160405180910390a45050565b60008281526006602090815260408083206001600160a01b038516845290915290205460ff16156107b95760008281526006602090815260408083206001600160a01b0385168085529252808320805460ff1916905551339285917ff6391f5c32d9c69d2a47ea670b442974b53935d1edc7fd64eb21e047a839171b9190a45050565b600d546001600160a01b038281169116141561203f5760405162461bcd60e51b815260206004820152603160248201527f4d65726b6c654469737472696275746f723a20476f7665726e616e636520616460448201527f6472657373206e6f74206368616e6765640000000000000000000000000000006064820152608401610761565b600d54604080516001600160a01b03928316815291831660208301527f3aaaebeb4821d6a7e5c77ece53cff0afcc56c82add2c978dbbb7f73e84cbcfd2910160405180910390a1600d80547fffffffffffffffffffffffff0000000000000000000000000000000000000000166001600160a01b0392909216919091179055565b6120cb848484611b77565b6120d7848484846126dc565b6114f55760405162461bcd60e51b815260206004820152603260248201527f4552433732313a207472616e7366657220746f206e6f6e20455243373231526560448201527f63656976657220696d706c656d656e74657200000000000000000000000000006064820152608401610761565b6000818152600260205260409020546060906001600160a01b03166121d65760405162461bcd60e51b815260206004820152602f60248201527f4552433732314d657461646174613a2055524920717565727920666f72206e6f60448201527f6e6578697374656e7420746f6b656e00000000000000000000000000000000006064820152608401610761565b60006121ed60408051602081019091526000815290565b9050600081511161220d5760405180602001604052806000815250612238565b8061221784612889565b6040516020016122289291906130b6565b6040516020818303038152906040525b9392505050565b6001600160a01b0382166122955760405162461bcd60e51b815260206004820181905260248201527f4552433732313a206d696e7420746f20746865207a65726f20616464726573736044820152606401610761565b6000818152600260205260409020546001600160a01b0316156122fa5760405162461bcd60e51b815260206004820152601c60248201527f4552433732313a20746f6b656e20616c7265616479206d696e746564000000006044820152606401610761565b612306600083836123fb565b6001600160a01b038216600090815260036020526040812080546001929061232f9084906131e9565b909155505060008181526002602052604080822080547fffffffffffffffffffffffff0000000000000000000000000000000000000000166001600160a01b03861690811790915590518392907fddf252ad1be2c89b69c2b068fc378daa952ba7f163c4a11628f55a4df523b3ef908290a45050565b60007fffffffff0000000000000000000000000000000000000000000000000000000082167f7965db0b0000000000000000000000000000000000000000000000000000000014806106bb57506106bb826129bb565b6001600160a01b0383166124565761245181600980546000838152600a60205260408120829055600182018355919091527f6e1540171b6c0c960b71a7020d9f60077f6af931a8bbf590da0223dacf75c7af0155565b612479565b816001600160a01b0316836001600160a01b031614612479576124798382612a9e565b6001600160a01b03821661249057610a2281612b3b565b826001600160a01b0316826001600160a01b031614610a2257610a228282612bea565b606060006124c2836002613215565b6124cd9060026131e9565b67ffffffffffffffff8111156124e5576124e5613427565b6040519080825280601f01601f19166020018201604052801561250f576020820181803683370190505b5090507f300000000000000000000000000000000000000000000000000000000000000081600081518110612546576125466133f8565b60200101907effffffffffffffffffffffffffffffffffffffffffffffffffffffffffffff1916908160001a9053507f7800000000000000000000000000000000000000000000000000000000000000816001815181106125a9576125a96133f8565b60200101907effffffffffffffffffffffffffffffffffffffffffffffffffffffffffffff1916908160001a90535060006125e5846002613215565b6125f09060016131e9565b90505b600181111561268d577f303132333435363738396162636465660000000000000000000000000000000085600f1660108110612631576126316133f8565b1a60f81b828281518110612647576126476133f8565b60200101907effffffffffffffffffffffffffffffffffffffffffffffffffffffffffffff1916908160001a90535060049490941c9361268681613295565b90506125f3565b5083156122385760405162461bcd60e51b815260206004820181905260248201527f537472696e67733a20686578206c656e67746820696e73756666696369656e746044820152606401610761565b60006001600160a01b0384163b1561287e576040517f150b7a020000000000000000000000000000000000000000000000000000000081526001600160a01b0385169063150b7a0290612739903390899088908890600401613166565b602060405180830381600087803b15801561275357600080fd5b505af1925050508015612783575060408051601f3d908101601f1916820190925261278091810190612fa9565b60015b612833573d8080156127b1576040519150601f19603f3d011682016040523d82523d6000602084013e6127b6565b606091505b50805161282b5760405162461bcd60e51b815260206004820152603260248201527f4552433732313a207472616e7366657220746f206e6f6e20455243373231526560448201527f63656976657220696d706c656d656e74657200000000000000000000000000006064820152608401610761565b805181602001fd5b7fffffffff00000000000000000000000000000000000000000000000000000000167f150b7a0200000000000000000000000000000000000000000000000000000000149050611686565b506001949350505050565b6060816128c957505060408051808201909152600181527f3000000000000000000000000000000000000000000000000000000000000000602082015290565b8160005b81156128f357806128dd8161331e565b91506128ec9050600a83613201565b91506128cd565b60008167ffffffffffffffff81111561290e5761290e613427565b6040519080825280601f01601f191660200182016040528015612938576020820181803683370190505b5090505b84156116865761294d600183613252565b915061295a600a86613357565b6129659060306131e9565b60f81b81838151811061297a5761297a6133f8565b60200101907effffffffffffffffffffffffffffffffffffffffffffffffffffffffffffff1916908160001a9053506129b4600a86613201565b945061293c565b60007fffffffff0000000000000000000000000000000000000000000000000000000082167f80ac58cd000000000000000000000000000000000000000000000000000000001480612a4e57507fffffffff0000000000000000000000000000000000000000000000000000000082167f5b5e139f00000000000000000000000000000000000000000000000000000000145b806106bb57507f01ffc9a7000000000000000000000000000000000000000000000000000000007fffffffff000000000000000000000000000000000000000000000000000000008316146106bb565b60006001612aab8461124f565b612ab59190613252565b600083815260086020526040902054909150808214612b08576001600160a01b03841660009081526007602090815260408083208584528252808320548484528184208190558352600890915290208190555b5060009182526008602090815260408084208490556001600160a01b039094168352600781528383209183525290812055565b600954600090612b4d90600190613252565b6000838152600a602052604081205460098054939450909284908110612b7557612b756133f8565b906000526020600020015490508060098381548110612b9657612b966133f8565b6000918252602080832090910192909255828152600a90915260408082208490558582528120556009805480612bce57612bce6133c9565b6001900381819060005260206000200160009055905550505050565b6000612bf58361124f565b6001600160a01b039093166000908152600760209081526040808320868452825280832085905593825260089052919091209190915550565b828054612c3a906132ca565b90600052602060002090601f016020900481019282612c5c5760008555612ca2565b82601f10612c755782800160ff19823516178555612ca2565b82800160010185558215612ca2579182015b82811115612ca2578235825591602001919060010190612c87565b50612cae929150612cb2565b5090565b5b80821115612cae5760008155600101612cb3565b600060208284031215612cd957600080fd5b813561223881613456565b600060208284031215612cf657600080fd5b815161223881613456565b60008060408385031215612d1457600080fd5b8235612d1f81613456565b91506020830135612d2f81613456565b809150509250929050565b600080600060608486031215612d4f57600080fd5b8335612d5a81613456565b92506020840135612d6a81613456565b929592945050506040919091013590565b60008060008060808587031215612d9157600080fd5b8435612d9c81613456565b93506020850135612dac81613456565b925060408501359150606085013567ffffffffffffffff80821115612dd057600080fd5b818701915087601f830112612de457600080fd5b813581811115612df657612df6613427565b604051601f8201601f19908116603f01168101908382118183101715612e1e57612e1e613427565b816040528281528a6020848701011115612e3757600080fd5b82602086016020830137600060208483010152809550505050505092959194509250565b60008060408385031215612e6e57600080fd5b8235612e7981613456565b91506020830135612d2f8161346b565b60008060408385031215612e9c57600080fd5b8235612ea781613456565b946020939093013593505050565b600060208284031215612ec757600080fd5b81516122388161346b565b600060208284031215612ee457600080fd5b5035919050565b60008060408385031215612efe57600080fd5b823591506020830135612d2f81613456565b600080600060408486031215612f2557600080fd5b83359250602084013567ffffffffffffffff80821115612f4457600080fd5b818601915086601f830112612f5857600080fd5b813581811115612f6757600080fd5b876020828501011115612f7957600080fd5b6020830194508093505050509250925092565b600060208284031215612f9e57600080fd5b813561223881613479565b600060208284031215612fbb57600080fd5b815161223881613479565b600080600080600060808688031215612fde57600080fd5b853594506020860135612ff081613456565b935060408601359250606086013567ffffffffffffffff8082111561301457600080fd5b818801915088601f83011261302857600080fd5b81358181111561303757600080fd5b8960208260051b850101111561304c57600080fd5b9699959850939650602001949392505050565b60008151808452613077816020860160208601613269565b601f01601f19169290920160200192915050565b818352818160208501375060006020828401015260006020601f19601f840116840101905092915050565b600083516130c8818460208801613269565b8351908301906130dc818360208801613269565b01949350505050565b7f416363657373436f6e74726f6c3a206163636f756e742000000000000000000081526000835161311d816017850160208801613269565b7f206973206d697373696e6720726f6c6520000000000000000000000000000000601791840191820152835161315a816028840160208801613269565b01602801949350505050565b60006001600160a01b03808716835280861660208401525083604083015260806060830152613198608083018461305f565b9695505050505050565b84815283602082015260606040820152600061319860608301848661308b565b60208152600061168660208301848661308b565b602081526000612238602083018461305f565b600082198211156131fc576131fc61336b565b500190565b6000826132105761321061339a565b500490565b6000817fffffffffffffffffffffffffffffffffffffffffffffffffffffffffffffffff048311821515161561324d5761324d61336b565b500290565b6000828210156132645761326461336b565b500390565b60005b8381101561328457818101518382015260200161326c565b838111156114f55750506000910152565b6000816132a4576132a461336b565b507fffffffffffffffffffffffffffffffffffffffffffffffffffffffffffffffff0190565b600181811c908216806132de57607f821691505b60208210811415613318577f4e487b7100000000000000000000000000000000000000000000000000000000600052602260045260246000fd5b50919050565b60007fffffffffffffffffffffffffffffffffffffffffffffffffffffffffffffffff8214156133505761335061336b565b5060010190565b6000826133665761336661339a565b500690565b7f4e487b7100000000000000000000000000000000000000000000000000000000600052601160045260246000fd5b7f4e487b7100000000000000000000000000000000000000000000000000000000600052601260045260246000fd5b7f4e487b7100000000000000000000000000000000000000000000000000000000600052603160045260246000fd5b7f4e487b7100000000000000000000000000000000000000000000000000000000600052603260045260246000fd5b7f4e487b7100000000000000000000000000000000000000000000000000000000600052604160045260246000fd5b6001600160a01b038116811461146a57600080fd5b801515811461146a57600080fd5b7fffffffff000000000000000000000000000000000000000000000000000000008116811461146a57600080fdfea26469706673582212203fb2d7f0d90eb08d70e636e6fd5d5a5f81d3882469ef8219a6013773b98af79f64736f6c63430008050033",
  "devdoc": {
    "kind": "dev",
    "methods": {
      "approve(address,uint256)": {
        "details": "See {IERC721-approve}."
      },
      "balanceOf(address)": {
        "details": "See {IERC721-balanceOf}."
      },
      "constructor": {
        "details": "Initialize contact, `DEFAULT_ADMIN_ROLE` will be set to the account that deploys the contract."
      },
      "getApproved(uint256)": {
        "details": "See {IERC721-getApproved}."
      },
      "getRoleAdmin(bytes32)": {
        "details": "Returns the admin role that controls `role`. See {grantRole} and {revokeRole}. To change a role's admin, use {_setRoleAdmin}."
      },
      "grantRole(bytes32,address)": {
        "details": "Grants `role` to `account`. If `account` had not been already granted `role`, emits a {RoleGranted} event. Requirements: - the caller must have ``role``'s admin role."
      },
      "hasRole(bytes32,address)": {
        "details": "Returns `true` if `account` has been granted `role`."
      },
      "isApprovedForAll(address,address)": {
        "details": "See {IERC721-isApprovedForAll}."
      },
      "name()": {
        "details": "See {IERC721Metadata-name}."
      },
      "ownerOf(uint256)": {
        "details": "See {IERC721-ownerOf}."
      },
      "renounceRole(bytes32,address)": {
        "details": "Revokes `role` from the calling account. Roles are often managed via {grantRole} and {revokeRole}: this function's purpose is to provide a mechanism for accounts to lose their privileges if they are compromised (such as when a trusted device is misplaced). If the calling account had been granted `role`, emits a {RoleRevoked} event. Requirements: - the caller must be `account`."
      },
      "revokeRole(bytes32,address)": {
        "details": "Revokes `role` from `account`. If `account` had been granted `role`, emits a {RoleRevoked} event. Requirements: - the caller must have ``role``'s admin role."
      },
      "safeTransferFrom(address,address,uint256)": {
        "details": "See {IERC721-safeTransferFrom}."
      },
      "safeTransferFrom(address,address,uint256,bytes)": {
        "details": "See {IERC721-safeTransferFrom}."
      },
      "setApprovalForAll(address,bool)": {
        "details": "See {IERC721-setApprovalForAll}."
      },
      "supportsInterface(bytes4)": {
        "details": "Returns true if this contract implements the interface defined by `interfaceId`. See the corresponding https://eips.ethereum.org/EIPS/eip-165#how-interfaces-are-identified[EIP section] to learn more about how these ids are created. This function call must use less than 30 000 gas."
      },
      "symbol()": {
        "details": "See {IERC721Metadata-symbol}."
      },
      "tokenByIndex(uint256)": {
        "details": "See {IERC721Enumerable-tokenByIndex}."
      },
      "tokenOfOwnerByIndex(address,uint256)": {
        "details": "See {IERC721Enumerable-tokenOfOwnerByIndex}."
      },
      "tokenURI(uint256)": {
        "details": "See {IERC721Metadata-tokenURI}."
      },
      "totalSupply()": {
        "details": "See {IERC721Enumerable-totalSupply}."
      },
      "transferFrom(address,address,uint256)": {
        "details": "See {IERC721-transferFrom}."
      }
    },
    "stateVariables": {
      "_tokenURI": {
        "details": "Path to distribution metadata (including proofs)"
      },
      "previousMerkleRoot": {
        "details": "Historical merkle roots"
      }
    },
    "version": 1
  },
  "userdoc": {
    "events": {
      "GovernanceChanged(address,address)": {
        "notice": "Emitted when governance address changes"
      }
    },
    "kind": "user",
    "methods": {
      "DISTRIBUTOR_ROLE()": {
        "notice": "Role to distribute rewards to accounts"
      },
      "SLASHER_ROLE()": {
        "notice": "Role to slash earned rewards"
      },
      "UPDATER_ROLE()": {
        "notice": "Role allowing the merkle root to be updated"
      },
      "accountState(address)": {
        "notice": "Account state"
      },
      "claim(uint256,address,uint256,bytes32[])": {
        "notice": "Claim all unclaimed tokens Given a merkle proof of (index, account, totalEarned), claim all unclaimed tokens. Unclaimed tokens are the difference between the total earned tokens (provided in the merkle tree) and those that have been either claimed or slashed. Note: it is possible for the claimed and slashed tokens to exceeed the total earned tokens, particularly when a slashing has occured. In this case no tokens are claimable until total earned has exceeded the sum of the claimed and slashed. If no tokens are claimable, this function will revert."
      },
      "distributionCount()": {
        "notice": "Total number of distributions, also token id of the current distribution"
      },
      "governance()": {
        "notice": "Governance address"
      },
      "merkleRoot()": {
        "notice": "Root of a merkle tree containing total earned amounts"
      },
      "setGovernance(address)": {
        "notice": "Change the governance address Requirements: - the caller must have the `DEFAULT_ADMIN_ROLE`."
      },
      "slash(address,uint256)": {
        "notice": "Slash `account` for `amount` tokens. Accounts may be slashed more than their total earned tokens, see {claim}. Requirements: - caller must have `SLASHERS_ROLE`"
      },
      "token()": {
        "notice": "Token distribured by this contract"
      },
      "updateMerkleRoot(bytes32,string)": {
        "notice": "Set a new merkle root and mints NFT with metadata URI to retreive the full tree Requirements: - caller must have `UPDATER_ROLE` "
      }
    },
    "version": 1
  },
  "storageLayout": {
    "storage": [
      {
        "astId": 4533,
        "contract": "contracts/MerkleDistributor.sol:MerkleDistributor",
        "label": "_name",
        "offset": 0,
        "slot": "0",
        "type": "t_string_storage"
      },
      {
        "astId": 4535,
        "contract": "contracts/MerkleDistributor.sol:MerkleDistributor",
        "label": "_symbol",
        "offset": 0,
        "slot": "1",
        "type": "t_string_storage"
      },
      {
        "astId": 4539,
        "contract": "contracts/MerkleDistributor.sol:MerkleDistributor",
        "label": "_owners",
        "offset": 0,
        "slot": "2",
        "type": "t_mapping(t_uint256,t_address)"
      },
      {
        "astId": 4543,
        "contract": "contracts/MerkleDistributor.sol:MerkleDistributor",
        "label": "_balances",
        "offset": 0,
        "slot": "3",
        "type": "t_mapping(t_address,t_uint256)"
      },
      {
        "astId": 4547,
        "contract": "contracts/MerkleDistributor.sol:MerkleDistributor",
        "label": "_tokenApprovals",
        "offset": 0,
        "slot": "4",
        "type": "t_mapping(t_uint256,t_address)"
      },
      {
        "astId": 4553,
        "contract": "contracts/MerkleDistributor.sol:MerkleDistributor",
        "label": "_operatorApprovals",
        "offset": 0,
        "slot": "5",
        "type": "t_mapping(t_address,t_mapping(t_address,t_bool))"
      },
      {
        "astId": 2631,
        "contract": "contracts/MerkleDistributor.sol:MerkleDistributor",
        "label": "_roles",
        "offset": 0,
        "slot": "6",
        "type": "t_mapping(t_bytes32,t_struct(RoleData)2626_storage)"
      },
      {
        "astId": 5340,
        "contract": "contracts/MerkleDistributor.sol:MerkleDistributor",
        "label": "_ownedTokens",
        "offset": 0,
        "slot": "7",
        "type": "t_mapping(t_address,t_mapping(t_uint256,t_uint256))"
      },
      {
        "astId": 5344,
        "contract": "contracts/MerkleDistributor.sol:MerkleDistributor",
        "label": "_ownedTokensIndex",
        "offset": 0,
        "slot": "8",
        "type": "t_mapping(t_uint256,t_uint256)"
      },
      {
        "astId": 5347,
        "contract": "contracts/MerkleDistributor.sol:MerkleDistributor",
        "label": "_allTokens",
        "offset": 0,
        "slot": "9",
        "type": "t_array(t_uint256)dyn_storage"
      },
      {
        "astId": 5351,
        "contract": "contracts/MerkleDistributor.sol:MerkleDistributor",
        "label": "_allTokensIndex",
        "offset": 0,
        "slot": "10",
        "type": "t_mapping(t_uint256,t_uint256)"
      },
      {
        "astId": 46,
        "contract": "contracts/MerkleDistributor.sol:MerkleDistributor",
        "label": "merkleRoot",
        "offset": 0,
        "slot": "11",
        "type": "t_bytes32"
      },
      {
        "astId": 50,
        "contract": "contracts/MerkleDistributor.sol:MerkleDistributor",
        "label": "distributionCount",
        "offset": 0,
        "slot": "12",
        "type": "t_uint256"
      },
      {
        "astId": 53,
        "contract": "contracts/MerkleDistributor.sol:MerkleDistributor",
        "label": "governance",
        "offset": 0,
        "slot": "13",
        "type": "t_address"
      },
      {
        "astId": 65,
        "contract": "contracts/MerkleDistributor.sol:MerkleDistributor",
        "label": "accountState",
        "offset": 0,
        "slot": "14",
        "type": "t_mapping(t_address,t_struct(AccountState)58_storage)"
      },
      {
        "astId": 71,
        "contract": "contracts/MerkleDistributor.sol:MerkleDistributor",
        "label": "previousMerkleRoot",
        "offset": 0,
        "slot": "15",
        "type": "t_mapping(t_bytes32,t_bool)"
      },
      {
        "astId": 76,
        "contract": "contracts/MerkleDistributor.sol:MerkleDistributor",
        "label": "_tokenURI",
        "offset": 0,
        "slot": "16",
        "type": "t_mapping(t_uint256,t_string_storage)"
      }
    ],
    "types": {
      "t_address": {
        "encoding": "inplace",
        "label": "address",
        "numberOfBytes": "20"
      },
      "t_array(t_uint256)dyn_storage": {
        "base": "t_uint256",
        "encoding": "dynamic_array",
        "label": "uint256[]",
        "numberOfBytes": "32"
      },
      "t_bool": {
        "encoding": "inplace",
        "label": "bool",
        "numberOfBytes": "1"
      },
      "t_bytes32": {
        "encoding": "inplace",
        "label": "bytes32",
        "numberOfBytes": "32"
      },
      "t_mapping(t_address,t_bool)": {
        "encoding": "mapping",
        "key": "t_address",
        "label": "mapping(address => bool)",
        "numberOfBytes": "32",
        "value": "t_bool"
      },
      "t_mapping(t_address,t_mapping(t_address,t_bool))": {
        "encoding": "mapping",
        "key": "t_address",
        "label": "mapping(address => mapping(address => bool))",
        "numberOfBytes": "32",
        "value": "t_mapping(t_address,t_bool)"
      },
      "t_mapping(t_address,t_mapping(t_uint256,t_uint256))": {
        "encoding": "mapping",
        "key": "t_address",
        "label": "mapping(address => mapping(uint256 => uint256))",
        "numberOfBytes": "32",
        "value": "t_mapping(t_uint256,t_uint256)"
      },
      "t_mapping(t_address,t_struct(AccountState)58_storage)": {
        "encoding": "mapping",
        "key": "t_address",
        "label": "mapping(address => struct MerkleDistributor.AccountState)",
        "numberOfBytes": "32",
        "value": "t_struct(AccountState)58_storage"
      },
      "t_mapping(t_address,t_uint256)": {
        "encoding": "mapping",
        "key": "t_address",
        "label": "mapping(address => uint256)",
        "numberOfBytes": "32",
        "value": "t_uint256"
      },
      "t_mapping(t_bytes32,t_bool)": {
        "encoding": "mapping",
        "key": "t_bytes32",
        "label": "mapping(bytes32 => bool)",
        "numberOfBytes": "32",
        "value": "t_bool"
      },
      "t_mapping(t_bytes32,t_struct(RoleData)2626_storage)": {
        "encoding": "mapping",
        "key": "t_bytes32",
        "label": "mapping(bytes32 => struct AccessControl.RoleData)",
        "numberOfBytes": "32",
        "value": "t_struct(RoleData)2626_storage"
      },
      "t_mapping(t_uint256,t_address)": {
        "encoding": "mapping",
        "key": "t_uint256",
        "label": "mapping(uint256 => address)",
        "numberOfBytes": "32",
        "value": "t_address"
      },
      "t_mapping(t_uint256,t_string_storage)": {
        "encoding": "mapping",
        "key": "t_uint256",
        "label": "mapping(uint256 => string)",
        "numberOfBytes": "32",
        "value": "t_string_storage"
      },
      "t_mapping(t_uint256,t_uint256)": {
        "encoding": "mapping",
        "key": "t_uint256",
        "label": "mapping(uint256 => uint256)",
        "numberOfBytes": "32",
        "value": "t_uint256"
      },
      "t_string_storage": {
        "encoding": "bytes",
        "label": "string",
        "numberOfBytes": "32"
      },
      "t_struct(AccountState)58_storage": {
        "encoding": "inplace",
        "label": "struct MerkleDistributor.AccountState",
        "members": [
          {
            "astId": 55,
            "contract": "contracts/MerkleDistributor.sol:MerkleDistributor",
            "label": "totalClaimed",
            "offset": 0,
            "slot": "0",
            "type": "t_uint256"
          },
          {
            "astId": 57,
            "contract": "contracts/MerkleDistributor.sol:MerkleDistributor",
            "label": "totalSlashed",
            "offset": 0,
            "slot": "1",
            "type": "t_uint256"
          }
        ],
        "numberOfBytes": "64"
      },
      "t_struct(RoleData)2626_storage": {
        "encoding": "inplace",
        "label": "struct AccessControl.RoleData",
        "members": [
          {
            "astId": 2623,
            "contract": "contracts/MerkleDistributor.sol:MerkleDistributor",
            "label": "members",
            "offset": 0,
            "slot": "0",
            "type": "t_mapping(t_address,t_bool)"
          },
          {
            "astId": 2625,
            "contract": "contracts/MerkleDistributor.sol:MerkleDistributor",
            "label": "adminRole",
            "offset": 0,
            "slot": "1",
            "type": "t_bytes32"
          }
        ],
        "numberOfBytes": "64"
      },
      "t_uint256": {
        "encoding": "inplace",
        "label": "uint256",
        "numberOfBytes": "32"
      }
    }
  }
}