{
  "address": "0xb0055aA2a5aebfE98b498403CE2dedD6731CcA43",
  "abi": [
    {
      "inputs": [
        {
          "internalType": "contract IERC20Mintable",
          "name": "token_",
          "type": "address"
        },
        {
          "internalType": "address",
          "name": "governance_",
          "type": "address"
        },
        {
          "internalType": "address",
          "name": "admin",
          "type": "address"
        },
        {
          "internalType": "uint256",
          "name": "updateThreshold_",
          "type": "uint256"
        }
      ],
      "stateMutability": "nonpayable",
      "type": "constructor"
    },
    {
      "anonymous": false,
      "inputs": [
        {
          "indexed": true,
          "internalType": "address",
          "name": "account",
          "type": "address"
        },
        {
          "indexed": false,
          "internalType": "uint256",
          "name": "totalClaimed",
          "type": "uint256"
        },
        {
          "indexed": false,
          "internalType": "uint256",
          "name": "totalSlashed",
          "type": "uint256"
        }
      ],
      "name": "AccountUpdated",
      "type": "event"
    },
    {
      "anonymous": false,
      "inputs": [
        {
          "indexed": true,
          "internalType": "address",
          "name": "owner",
          "type": "address"
        },
        {
          "indexed": true,
          "internalType": "address",
          "name": "approved",
          "type": "address"
        },
        {
          "indexed": true,
          "internalType": "uint256",
          "name": "tokenId",
          "type": "uint256"
        }
      ],
      "name": "Approval",
      "type": "event"
    },
    {
      "anonymous": false,
      "inputs": [
        {
          "indexed": true,
          "internalType": "address",
          "name": "owner",
          "type": "address"
        },
        {
          "indexed": true,
          "internalType": "address",
          "name": "operator",
          "type": "address"
        },
        {
          "indexed": false,
          "internalType": "bool",
          "name": "approved",
          "type": "bool"
        }
      ],
      "name": "ApprovalForAll",
      "type": "event"
    },
    {
      "anonymous": false,
      "inputs": [
        {
          "indexed": false,
          "internalType": "uint256",
          "name": "index",
          "type": "uint256"
        },
        {
          "indexed": false,
          "internalType": "uint256",
          "name": "totalEarned",
          "type": "uint256"
        },
        {
          "indexed": true,
          "internalType": "address",
          "name": "account",
          "type": "address"
        },
        {
          "indexed": false,
          "internalType": "uint256",
          "name": "claimed",
          "type": "uint256"
        }
      ],
      "name": "Claimed",
      "type": "event"
    },
    {
      "anonymous": false,
      "inputs": [
        {
          "indexed": false,
          "internalType": "address",
          "name": "from",
          "type": "address"
        },
        {
          "indexed": false,
          "internalType": "address",
          "name": "to",
          "type": "address"
        }
      ],
      "name": "GovernanceChanged",
      "type": "event"
    },
    {
      "anonymous": false,
      "inputs": [
        {
          "indexed": false,
          "internalType": "bytes32",
          "name": "merkleRoot",
          "type": "bytes32"
        },
        {
          "indexed": false,
          "internalType": "uint256",
          "name": "distributionNumber",
          "type": "uint256"
        },
        {
          "indexed": false,
          "internalType": "string",
          "name": "metadataURI",
          "type": "string"
        }
      ],
      "name": "MerkleRootUpdated",
      "type": "event"
    },
    {
      "anonymous": false,
      "inputs": [
        {
          "indexed": false,
          "internalType": "string",
          "name": "_value",
          "type": "string"
        },
        {
          "indexed": true,
          "internalType": "uint256",
          "name": "_id",
          "type": "uint256"
        }
      ],
      "name": "PermanentURI",
      "type": "event"
    },
    {
      "anonymous": false,
      "inputs": [
        {
          "indexed": true,
          "internalType": "bytes32",
          "name": "role",
          "type": "bytes32"
        },
        {
          "indexed": true,
          "internalType": "bytes32",
          "name": "previousAdminRole",
          "type": "bytes32"
        },
        {
          "indexed": true,
          "internalType": "bytes32",
          "name": "newAdminRole",
          "type": "bytes32"
        }
      ],
      "name": "RoleAdminChanged",
      "type": "event"
    },
    {
      "anonymous": false,
      "inputs": [
        {
          "indexed": true,
          "internalType": "bytes32",
          "name": "role",
          "type": "bytes32"
        },
        {
          "indexed": true,
          "internalType": "address",
          "name": "account",
          "type": "address"
        },
        {
          "indexed": true,
          "internalType": "address",
          "name": "sender",
          "type": "address"
        }
      ],
      "name": "RoleGranted",
      "type": "event"
    },
    {
      "anonymous": false,
      "inputs": [
        {
          "indexed": true,
          "internalType": "bytes32",
          "name": "role",
          "type": "bytes32"
        },
        {
          "indexed": true,
          "internalType": "address",
          "name": "account",
          "type": "address"
        },
        {
          "indexed": true,
          "internalType": "address",
          "name": "sender",
          "type": "address"
        }
      ],
      "name": "RoleRevoked",
      "type": "event"
    },
    {
      "anonymous": false,
      "inputs": [
        {
          "indexed": true,
          "internalType": "address",
          "name": "account",
          "type": "address"
        },
        {
          "indexed": false,
          "internalType": "uint256",
          "name": "slashed",
          "type": "uint256"
        }
      ],
      "name": "Slashed",
      "type": "event"
    },
    {
      "anonymous": false,
      "inputs": [
        {
          "indexed": true,
          "internalType": "address",
          "name": "from",
          "type": "address"
        },
        {
          "indexed": true,
          "internalType": "address",
          "name": "to",
          "type": "address"
        },
        {
          "indexed": true,
          "internalType": "uint256",
          "name": "tokenId",
          "type": "uint256"
        }
      ],
      "name": "Transfer",
      "type": "event"
    },
    {
      "anonymous": false,
      "inputs": [
        {
          "indexed": false,
          "internalType": "uint256",
          "name": "updateThreshold",
          "type": "uint256"
        }
      ],
      "name": "UpdateThresholdChanged",
      "type": "event"
    },
    {
      "inputs": [],
      "name": "DEFAULT_ADMIN_ROLE",
      "outputs": [
        {
          "internalType": "bytes32",
          "name": "",
          "type": "bytes32"
        }
      ],
      "stateMutability": "view",
      "type": "function"
    },
    {
      "inputs": [],
      "name": "DISTRIBUTOR_ROLE",
      "outputs": [
        {
          "internalType": "bytes32",
          "name": "",
          "type": "bytes32"
        }
      ],
      "stateMutability": "view",
      "type": "function"
    },
    {
      "inputs": [],
      "name": "SLASHER_ROLE",
      "outputs": [
        {
          "internalType": "bytes32",
          "name": "",
          "type": "bytes32"
        }
      ],
      "stateMutability": "view",
      "type": "function"
    },
    {
      "inputs": [],
      "name": "UPDATER_ROLE",
      "outputs": [
        {
          "internalType": "bytes32",
          "name": "",
          "type": "bytes32"
        }
      ],
      "stateMutability": "view",
      "type": "function"
    },
    {
      "inputs": [
        {
          "internalType": "address",
          "name": "",
          "type": "address"
        }
      ],
      "name": "accountState",
      "outputs": [
        {
          "internalType": "uint256",
          "name": "totalClaimed",
          "type": "uint256"
        },
        {
          "internalType": "uint256",
          "name": "totalSlashed",
          "type": "uint256"
        }
      ],
      "stateMutability": "view",
      "type": "function"
    },
    {
      "inputs": [
        {
          "internalType": "address",
          "name": "to",
          "type": "address"
        },
        {
          "internalType": "uint256",
          "name": "tokenId",
          "type": "uint256"
        }
      ],
      "name": "approve",
      "outputs": [],
      "stateMutability": "nonpayable",
      "type": "function"
    },
    {
      "inputs": [
        {
          "internalType": "address",
          "name": "owner",
          "type": "address"
        }
      ],
      "name": "balanceOf",
      "outputs": [
        {
          "internalType": "uint256",
          "name": "",
          "type": "uint256"
        }
      ],
      "stateMutability": "view",
      "type": "function"
    },
    {
      "inputs": [
        {
          "internalType": "uint256",
          "name": "index",
          "type": "uint256"
        },
        {
          "internalType": "address",
          "name": "account",
          "type": "address"
        },
        {
          "internalType": "uint256",
          "name": "totalEarned",
          "type": "uint256"
        },
        {
          "internalType": "bytes32[]",
          "name": "merkleProof",
          "type": "bytes32[]"
        }
      ],
      "name": "claim",
      "outputs": [],
      "stateMutability": "nonpayable",
      "type": "function"
    },
    {
      "inputs": [],
      "name": "distributionCount",
      "outputs": [
        {
          "internalType": "uint256",
          "name": "",
          "type": "uint256"
        }
      ],
      "stateMutability": "view",
      "type": "function"
    },
    {
      "inputs": [
        {
          "internalType": "uint256",
          "name": "tokenId",
          "type": "uint256"
        }
      ],
      "name": "getApproved",
      "outputs": [
        {
          "internalType": "address",
          "name": "",
          "type": "address"
        }
      ],
      "stateMutability": "view",
      "type": "function"
    },
    {
      "inputs": [
        {
          "internalType": "bytes32",
          "name": "role",
          "type": "bytes32"
        }
      ],
      "name": "getRoleAdmin",
      "outputs": [
        {
          "internalType": "bytes32",
          "name": "",
          "type": "bytes32"
        }
      ],
      "stateMutability": "view",
      "type": "function"
    },
    {
      "inputs": [],
      "name": "governance",
      "outputs": [
        {
          "internalType": "address",
          "name": "",
          "type": "address"
        }
      ],
      "stateMutability": "view",
      "type": "function"
    },
    {
      "inputs": [
        {
          "internalType": "bytes32",
          "name": "role",
          "type": "bytes32"
        },
        {
          "internalType": "address",
          "name": "account",
          "type": "address"
        }
      ],
      "name": "grantRole",
      "outputs": [],
      "stateMutability": "nonpayable",
      "type": "function"
    },
    {
      "inputs": [
        {
          "internalType": "bytes32",
          "name": "role",
          "type": "bytes32"
        },
        {
          "internalType": "address",
          "name": "account",
          "type": "address"
        }
      ],
      "name": "hasRole",
      "outputs": [
        {
          "internalType": "bool",
          "name": "",
          "type": "bool"
        }
      ],
      "stateMutability": "view",
      "type": "function"
    },
    {
      "inputs": [
        {
          "internalType": "address",
          "name": "owner",
          "type": "address"
        },
        {
          "internalType": "address",
          "name": "operator",
          "type": "address"
        }
      ],
      "name": "isApprovedForAll",
      "outputs": [
        {
          "internalType": "bool",
          "name": "",
          "type": "bool"
        }
      ],
      "stateMutability": "view",
      "type": "function"
    },
    {
      "inputs": [],
      "name": "merkleRoot",
      "outputs": [
        {
          "internalType": "bytes32",
          "name": "",
          "type": "bytes32"
        }
      ],
      "stateMutability": "view",
      "type": "function"
    },
    {
      "inputs": [],
      "name": "name",
      "outputs": [
        {
          "internalType": "string",
          "name": "",
          "type": "string"
        }
      ],
      "stateMutability": "view",
      "type": "function"
    },
    {
      "inputs": [
        {
          "internalType": "uint256",
          "name": "tokenId",
          "type": "uint256"
        }
      ],
      "name": "ownerOf",
      "outputs": [
        {
          "internalType": "address",
          "name": "",
          "type": "address"
        }
      ],
      "stateMutability": "view",
      "type": "function"
    },
    {
      "inputs": [
        {
          "internalType": "bytes32",
          "name": "",
          "type": "bytes32"
        }
      ],
      "name": "previousMerkleRoot",
      "outputs": [
        {
          "internalType": "bool",
          "name": "",
          "type": "bool"
        }
      ],
      "stateMutability": "view",
      "type": "function"
    },
    {
      "inputs": [
        {
          "internalType": "bytes32",
          "name": "role",
          "type": "bytes32"
        },
        {
          "internalType": "address",
          "name": "account",
          "type": "address"
        }
      ],
      "name": "renounceRole",
      "outputs": [],
      "stateMutability": "nonpayable",
      "type": "function"
    },
    {
      "inputs": [
        {
          "internalType": "bytes32",
          "name": "role",
          "type": "bytes32"
        },
        {
          "internalType": "address",
          "name": "account",
          "type": "address"
        }
      ],
      "name": "revokeRole",
      "outputs": [],
      "stateMutability": "nonpayable",
      "type": "function"
    },
    {
      "inputs": [
        {
          "internalType": "address",
          "name": "from",
          "type": "address"
        },
        {
          "internalType": "address",
          "name": "to",
          "type": "address"
        },
        {
          "internalType": "uint256",
          "name": "tokenId",
          "type": "uint256"
        }
      ],
      "name": "safeTransferFrom",
      "outputs": [],
      "stateMutability": "nonpayable",
      "type": "function"
    },
    {
      "inputs": [
        {
          "internalType": "address",
          "name": "from",
          "type": "address"
        },
        {
          "internalType": "address",
          "name": "to",
          "type": "address"
        },
        {
          "internalType": "uint256",
          "name": "tokenId",
          "type": "uint256"
        },
        {
          "internalType": "bytes",
          "name": "_data",
          "type": "bytes"
        }
      ],
      "name": "safeTransferFrom",
      "outputs": [],
      "stateMutability": "nonpayable",
      "type": "function"
    },
    {
      "inputs": [
        {
          "internalType": "address",
          "name": "operator",
          "type": "address"
        },
        {
          "internalType": "bool",
          "name": "approved",
          "type": "bool"
        }
      ],
      "name": "setApprovalForAll",
      "outputs": [],
      "stateMutability": "nonpayable",
      "type": "function"
    },
    {
      "inputs": [
        {
          "internalType": "address",
          "name": "to",
          "type": "address"
        }
      ],
      "name": "setGovernance",
      "outputs": [],
      "stateMutability": "nonpayable",
      "type": "function"
    },
    {
      "inputs": [
        {
          "internalType": "uint256",
          "name": "to",
          "type": "uint256"
        }
      ],
      "name": "setUpdateThreshold",
      "outputs": [],
      "stateMutability": "nonpayable",
      "type": "function"
    },
    {
      "inputs": [
        {
          "internalType": "address",
          "name": "account",
          "type": "address"
        },
        {
          "internalType": "uint256",
          "name": "amount",
          "type": "uint256"
        }
      ],
      "name": "slash",
      "outputs": [],
      "stateMutability": "nonpayable",
      "type": "function"
    },
    {
      "inputs": [
        {
          "internalType": "bytes4",
          "name": "interfaceId",
          "type": "bytes4"
        }
      ],
      "name": "supportsInterface",
      "outputs": [
        {
          "internalType": "bool",
          "name": "",
          "type": "bool"
        }
      ],
      "stateMutability": "view",
      "type": "function"
    },
    {
      "inputs": [],
      "name": "symbol",
      "outputs": [
        {
          "internalType": "string",
          "name": "",
          "type": "string"
        }
      ],
      "stateMutability": "view",
      "type": "function"
    },
    {
      "inputs": [],
      "name": "token",
      "outputs": [
        {
          "internalType": "contract IERC20Mintable",
          "name": "",
          "type": "address"
        }
      ],
      "stateMutability": "view",
      "type": "function"
    },
    {
      "inputs": [
        {
          "internalType": "uint256",
          "name": "index",
          "type": "uint256"
        }
      ],
      "name": "tokenByIndex",
      "outputs": [
        {
          "internalType": "uint256",
          "name": "",
          "type": "uint256"
        }
      ],
      "stateMutability": "view",
      "type": "function"
    },
    {
      "inputs": [
        {
          "internalType": "address",
          "name": "owner",
          "type": "address"
        },
        {
          "internalType": "uint256",
          "name": "index",
          "type": "uint256"
        }
      ],
      "name": "tokenOfOwnerByIndex",
      "outputs": [
        {
          "internalType": "uint256",
          "name": "",
          "type": "uint256"
        }
      ],
      "stateMutability": "view",
      "type": "function"
    },
    {
      "inputs": [
        {
          "internalType": "uint256",
          "name": "tokenId",
          "type": "uint256"
        }
      ],
      "name": "tokenURI",
      "outputs": [
        {
          "internalType": "string",
          "name": "",
          "type": "string"
        }
      ],
      "stateMutability": "view",
      "type": "function"
    },
    {
      "inputs": [],
      "name": "totalSupply",
      "outputs": [
        {
          "internalType": "uint256",
          "name": "",
          "type": "uint256"
        }
      ],
      "stateMutability": "view",
      "type": "function"
    },
    {
      "inputs": [
        {
          "internalType": "address",
          "name": "from",
          "type": "address"
        },
        {
          "internalType": "address",
          "name": "to",
          "type": "address"
        },
        {
          "internalType": "uint256",
          "name": "tokenId",
          "type": "uint256"
        }
      ],
      "name": "transferFrom",
      "outputs": [],
      "stateMutability": "nonpayable",
      "type": "function"
    },
    {
      "inputs": [
        {
          "internalType": "bytes32",
          "name": "_merkleRoot",
          "type": "bytes32"
        },
        {
          "internalType": "string",
          "name": "uri",
          "type": "string"
        },
        {
          "internalType": "uint256",
          "name": "_distributionNumber",
          "type": "uint256"
        }
      ],
      "name": "updateMerkleRoot",
      "outputs": [
        {
          "internalType": "uint256",
          "name": "",
          "type": "uint256"
        }
      ],
      "stateMutability": "nonpayable",
      "type": "function"
    },
    {
      "inputs": [],
      "name": "updateThreshold",
      "outputs": [
        {
          "internalType": "uint256",
          "name": "",
          "type": "uint256"
        }
      ],
      "stateMutability": "view",
      "type": "function"
    }
  ],
  "transactionHash": "0x43e86327a88e10f32981b7fdedf79b7e4c847af128a5f4daf07625621b38658f",
  "args": [
    "0x1559FA1b8F28238FD5D76D9f434ad86FD20D1559",
    "0x1c86829Db6cBB3a5FA614034C73A4371cD0C8f77",
    "0x5b0aC3279dBf84Bb8DA59Be1EcaB118198f022E5",
    "2"
  ],
  "solcInputHash": "25652fa7cefe72deed3db64da926a067",
  "bytecode": "0x60a06040523480156200001157600080fd5b506040516200452f3803806200452f8339810160408190526200003491620003f8565b604080518082018252601981527f4564656e204e6574776f726b20446973747269627574696f6e00000000000000602080830191825283518085019094526005845264115111539160da1b908401528151919291620000969160009162000352565b508051620000ac90600190602084019062000352565b5050506001600160601b0319606085901b16608052600b546000908152601060205260409020805460ff19166001179055620000e8836200010a565b620000f381620001f1565b620001006000836200029e565b50505050620004a8565b600e546001600160a01b0382811691161415620001885760405162461bcd60e51b815260206004820152603160248201527f4d65726b6c654469737472696275746f723a20476f7665726e616e6365206164604482015270191c995cdcc81b9bdd0818da185b99d959607a1b60648201526084015b60405180910390fd5b600e54604080516001600160a01b03928316815291831660208301527f3aaaebeb4821d6a7e5c77ece53cff0afcc56c82add2c978dbbb7f73e84cbcfd2910160405180910390a1600e80546001600160a01b0319166001600160a01b0392909216919091179055565b80620002665760405162461bcd60e51b815260206004820152603460248201527f4d65726b6c654469737472696275746f723a205570646174652074687265736860448201527f6f6c64206d757374206265206e6f6e2d7a65726f00000000000000000000000060648201526084016200017f565b6040518181527f4a3f39b792c062592e6c20d41d18331563a8de4ba398cd40ef7c9afffd6234959060200160405180910390a1600d55565b620002aa8282620002ae565b5050565b60008281526006602090815260408083206001600160a01b038516845290915290205460ff16620002aa5760008281526006602090815260408083206001600160a01b03851684529091529020805460ff191660011790556200030e3390565b6001600160a01b0316816001600160a01b0316837f2f8788117e7eff1d82e926ec794901d17c78024a50270940304540a733656f0d60405160405180910390a45050565b828054620003609062000452565b90600052602060002090601f016020900481019282620003845760008555620003cf565b82601f106200039f57805160ff1916838001178555620003cf565b82800160010185558215620003cf579182015b82811115620003cf578251825591602001919060010190620003b2565b50620003dd929150620003e1565b5090565b5b80821115620003dd5760008155600101620003e2565b600080600080608085870312156200040f57600080fd5b84516200041c816200048f565b60208601519094506200042f816200048f565b604086015190935062000442816200048f565b6060959095015193969295505050565b600181811c908216806200046757607f821691505b602082108114156200048957634e487b7160e01b600052602260045260246000fd5b50919050565b6001600160a01b0381168114620004a557600080fd5b50565b60805160601c614061620004ce60003960008181610631015261110201526140616000f3fe608060405234801561001057600080fd5b50600436106102775760003560e01c80635aa6e67511610160578063ab033ea9116100d8578063d547741f1161008c578063e985e9c511610071578063e985e9c5146105bc578063f0bd87cc14610605578063fc0c546a1461062c57600080fd5b8063d547741f14610596578063e1e92a67146105a957600080fd5b8063c65c3d95116100bd578063c65c3d9514610557578063c87b56dd14610560578063cd170ce71461057357600080fd5b8063ab033ea914610531578063b88d4fde1461054457600080fd5b80639407f5cb1161012f5780639c72f27d116101145780639c72f27d14610503578063a217fddf14610516578063a22cb4651461051e57600080fd5b80639407f5cb146104f257806395d89b41146104fb57600080fd5b80635aa6e675146104665780636352211e1461048657806370a082311461049957806391d14854146104ac57600080fd5b80632e7ba6ef116101f357806336568abe116101c257806347e63380116101a757806347e63380146104055780634f6ccce71461042c5780635095af641461043f57600080fd5b806336568abe146103df57806342842e0e146103f257600080fd5b80632e7ba6ef1461039d5780632eb4a7ab146103b05780632f2ff15d146103b95780632f745c59146103cc57600080fd5b8063095ea7b31161024a57806318160ddd1161022f57806318160ddd1461035557806323b872dd14610367578063248a9ca31461037a57600080fd5b8063095ea7b3146103065780630ec4c6011461031957600080fd5b806301ffc9a71461027c57806302fb4d85146102a457806306fdde03146102b9578063081812fc146102ce575b600080fd5b61028f61028a366004613aba565b610653565b60405190151581526020015b60405180910390f35b6102b76102b23660046139b1565b610747565b005b6102c161086a565b60405161029b9190613d4d565b6102e16102dc3660046139fa565b6108fc565b60405173ffffffffffffffffffffffffffffffffffffffff909116815260200161029b565b6102b76103143660046139b1565b6109d6565b6103406103273660046137d1565b600f602052600090815260409020805460019091015482565b6040805192835260208301919091520161029b565b6009545b60405190815260200161029b565b6102b7610375366004613844565b610b63565b6103596103883660046139fa565b60009081526006602052604090206001015490565b6102b76103ab366004613af4565b610c04565b610359600b5481565b6102b76103c7366004613a13565b6111ef565b6103596103da3660046139b1565b611215565b6102b76103ed366004613a13565b6112e4565b6102b7610400366004613844565b611393565b6103597f73e573f9566d61418a34d5de3ff49360f9c51fec37f7486551670290f6285dab81565b61035961043a3660046139fa565b6113ae565b6103597f12b42e8a160f6064dc959c6f251e3af0750ad213dbecf573b4710d67d6c28e3981565b600e546102e19073ffffffffffffffffffffffffffffffffffffffff1681565b6102e16104943660046139fa565b61146c565b6103596104a73660046137d1565b61151e565b61028f6104ba366004613a13565b600091825260066020908152604080842073ffffffffffffffffffffffffffffffffffffffff93909316845291905290205460ff1690565b610359600d5481565b6102c16115ec565b610359610511366004613a38565b6115fb565b610359600081565b6102b761052c366004613983565b6119e6565b6102b761053f3660046137d1565b611afd565b6102b7610552366004613885565b611bc7565b610359600c5481565b6102c161056e3660046139fa565b611c6f565b61028f6105813660046139fa565b60106020526000908152604090205460ff1681565b6102b76105a4366004613a13565b611e21565b6102b76105b73660046139fa565b611e47565b61028f6105ca36600461380b565b73ffffffffffffffffffffffffffffffffffffffff918216600090815260056020908152604080832093909416825291909152205460ff1690565b6103597ffbd454f36a7e1a388bd6fc3ab10d434aa4578f811acbbcf33afb1c697486313c81565b6102e17f000000000000000000000000000000000000000000000000000000000000000081565b60007fffffffff0000000000000000000000000000000000000000000000000000000082167f80ac58cd0000000000000000000000000000000000000000000000000000000014806106e657507fffffffff0000000000000000000000000000000000000000000000000000000082167f5b5e139f00000000000000000000000000000000000000000000000000000000145b8061073257507fffffffff0000000000000000000000000000000000000000000000000000000082167f780e9d6300000000000000000000000000000000000000000000000000000000145b80610741575061074182611f0e565b92915050565b3360009081527f1dfbce58931a94262c3b9c5acee9dafa864324624ff5446cf599e6b0e53aa0ac602052604090205460ff1661080a576040517f08c379a000000000000000000000000000000000000000000000000000000000815260206004820152603060248201527f4d65726b6c654469737472696275746f723a2043616c6c6572206d757374206860448201527f61766520534c41534845525f524f4c450000000000000000000000000000000060648201526084015b60405180910390fd5b8173ffffffffffffffffffffffffffffffffffffffff167f4ed05e9673c26d2ed44f7ef6a7f2942df0ee3b5e1e17db4b99f9dcd261a339cd8260405161085291815260200190565b60405180910390a261086682600083611f64565b5050565b60606000805461087990613e41565b80601f01602080910402602001604051908101604052809291908181526020018280546108a590613e41565b80156108f25780601f106108c7576101008083540402835291602001916108f2565b820191906000526020600020905b8154815290600101906020018083116108d557829003601f168201915b5050505050905090565b60008181526002602052604081205473ffffffffffffffffffffffffffffffffffffffff166109ad576040517f08c379a000000000000000000000000000000000000000000000000000000000815260206004820152602c60248201527f4552433732313a20617070726f76656420717565727920666f72206e6f6e657860448201527f697374656e7420746f6b656e00000000000000000000000000000000000000006064820152608401610801565b5060009081526004602052604090205473ffffffffffffffffffffffffffffffffffffffff1690565b60006109e18261146c565b90508073ffffffffffffffffffffffffffffffffffffffff168373ffffffffffffffffffffffffffffffffffffffff161415610a9f576040517f08c379a000000000000000000000000000000000000000000000000000000000815260206004820152602160248201527f4552433732313a20617070726f76616c20746f2063757272656e74206f776e6560448201527f72000000000000000000000000000000000000000000000000000000000000006064820152608401610801565b3373ffffffffffffffffffffffffffffffffffffffff82161480610ac85750610ac881336105ca565b610b54576040517f08c379a000000000000000000000000000000000000000000000000000000000815260206004820152603860248201527f4552433732313a20617070726f76652063616c6c6572206973206e6f74206f7760448201527f6e6572206e6f7220617070726f76656420666f7220616c6c00000000000000006064820152608401610801565b610b5e838361206c565b505050565b610b6d338261210c565b610bf9576040517f08c379a000000000000000000000000000000000000000000000000000000000815260206004820152603160248201527f4552433732313a207472616e736665722063616c6c6572206973206e6f74206f60448201527f776e6572206e6f7220617070726f7665640000000000000000000000000000006064820152608401610801565b610b5e838383612278565b600e5473ffffffffffffffffffffffffffffffffffffffff16610ca9576040517f08c379a000000000000000000000000000000000000000000000000000000000815260206004820152602560248201527f4d65726b6c654469737472696275746f723a20476f7665726e616e6365206e6f60448201527f74207365740000000000000000000000000000000000000000000000000000006064820152608401610801565b3373ffffffffffffffffffffffffffffffffffffffff85168114610e7757600e546040517f6cd8830c00000000000000000000000000000000000000000000000000000000815273ffffffffffffffffffffffffffffffffffffffff87811660048301526000921690636cd8830c9060240160206040518083038186803b158015610d3357600080fd5b505afa158015610d47573d6000803e3d6000fd5b505050506040513d601f19601f82011682018060405250810190610d6b91906137ee565b3360009081527fe6cc81f6a62563e0c8f6332250f41f95d2671fc486aeab4518b018ff69edf1e0602052604090205490915060ff16610e4e573373ffffffffffffffffffffffffffffffffffffffff821614610e49576040517f08c379a000000000000000000000000000000000000000000000000000000000815260206004820152602960248201527f4d65726b6c654469737472696275746f723a2043616e6e6f7420636f6c6c656360448201527f74207265776172647300000000000000000000000000000000000000000000006064820152608401610801565b610e75565b73ffffffffffffffffffffffffffffffffffffffff811615610e705780610e72565b855b91505b505b60408051602081018890527fffffffffffffffffffffffffffffffffffffffff000000000000000000000000606088901b169181019190915260548101859052600090607401604051602081830303815290604052805190602001209050610f1684848080602002602001604051908101604052809392919081815260200183836020028082843760009201919091525050600b5491508490506124ea565b610f7c576040517f08c379a000000000000000000000000000000000000000000000000000000000815260206004820181905260248201527f4d65726b6c654469737472696275746f723a20496e76616c69642070726f6f666044820152606401610801565b73ffffffffffffffffffffffffffffffffffffffff86166000908152600f6020526040812060018101549054610fb29190613d60565b9050808611611042576040517f08c379a0000000000000000000000000000000000000000000000000000000008152602060048201526024808201527f4d65726b6c654469737472696275746f723a204e6f7468696e6720636c61696d60448201527f61626c65000000000000000000000000000000000000000000000000000000006064820152608401610801565b600061104e8288613dc9565b604080518b8152602081018a905290810182905290915073ffffffffffffffffffffffffffffffffffffffff8916907fb94bf7f9302edf52a596286915a69b4b0685574cffdedd0712e3c62f2550f0ba9060600160405180910390a26110b688826000611f64565b6040517f40c10f1900000000000000000000000000000000000000000000000000000000815273ffffffffffffffffffffffffffffffffffffffff8581166004830152602482018390527f000000000000000000000000000000000000000000000000000000000000000016906340c10f1990604401602060405180830381600087803b15801561114657600080fd5b505af115801561115a573d6000803e3d6000fd5b505050506040513d601f19601f8201168201806040525081019061117e91906139dd565b6111e4576040517f08c379a000000000000000000000000000000000000000000000000000000000815260206004820152601e60248201527f4d65726b6c654469737472696275746f723a204d696e74206661696c656400006044820152606401610801565b505050505050505050565b60008281526006602052604090206001015461120b8133612599565b610b5e838361266b565b60006112208361151e565b82106112ae576040517f08c379a000000000000000000000000000000000000000000000000000000000815260206004820152602b60248201527f455243373231456e756d657261626c653a206f776e657220696e646578206f7560448201527f74206f6620626f756e64730000000000000000000000000000000000000000006064820152608401610801565b5073ffffffffffffffffffffffffffffffffffffffff919091166000908152600760209081526040808320938352929052205490565b73ffffffffffffffffffffffffffffffffffffffff81163314611389576040517f08c379a000000000000000000000000000000000000000000000000000000000815260206004820152602f60248201527f416363657373436f6e74726f6c3a2063616e206f6e6c792072656e6f756e636560448201527f20726f6c657320666f722073656c6600000000000000000000000000000000006064820152608401610801565b610866828261275f565b610b5e83838360405180602001604052806000815250611bc7565b60006113b960095490565b8210611447576040517f08c379a000000000000000000000000000000000000000000000000000000000815260206004820152602c60248201527f455243373231456e756d657261626c653a20676c6f62616c20696e646578206f60448201527f7574206f6620626f756e647300000000000000000000000000000000000000006064820152608401610801565b6009828154811061145a5761145a613f6f565b90600052602060002001549050919050565b60008181526002602052604081205473ffffffffffffffffffffffffffffffffffffffff1680610741576040517f08c379a000000000000000000000000000000000000000000000000000000000815260206004820152602960248201527f4552433732313a206f776e657220717565727920666f72206e6f6e657869737460448201527f656e7420746f6b656e00000000000000000000000000000000000000000000006064820152608401610801565b600073ffffffffffffffffffffffffffffffffffffffff82166115c3576040517f08c379a000000000000000000000000000000000000000000000000000000000815260206004820152602a60248201527f4552433732313a2062616c616e636520717565727920666f7220746865207a6560448201527f726f2061646472657373000000000000000000000000000000000000000000006064820152608401610801565b5073ffffffffffffffffffffffffffffffffffffffff1660009081526003602052604090205490565b60606001805461087990613e41565b3360009081527f72e6a9b491581b344add3f7be10265867e64fdd874e84e97031c08ad09aea58c602052604081205460ff166116b9576040517f08c379a000000000000000000000000000000000000000000000000000000000815260206004820152603060248201527f4d65726b6c654469737472696275746f723a2043616c6c6572206d757374206860448201527f61766520555044415445525f524f4c45000000000000000000000000000000006064820152608401610801565b60008581526010602052604090205460ff1615611758576040517f08c379a000000000000000000000000000000000000000000000000000000000815260206004820152603a60248201527f4d65726b6c654469737472696275746f723a2043616e6e6f742075706461746560448201527f20746f20612070726576696f7573206d65726b6c6520726f6f740000000000006064820152608401610801565b6000600c5460016117699190613d60565b90508281146117fa576040517f08c379a000000000000000000000000000000000000000000000000000000000815260206004820152603460248201527f4d65726b6c654469737472696275746f723a2043616e206f6e6c79207570646160448201527f7465206e65787420646973747269627574696f6e0000000000000000000000006064820152608401610801565b336000908152601360209081526040808320848452909152902054156118a2576040517f08c379a000000000000000000000000000000000000000000000000000000000815260206004820152603560248201527f4d65726b6c654469737472696275746f723a205570646174657220616c72656160448201527f6479207375626d6974746564206e657720726f6f7400000000000000000000006064820152608401610801565b336000908152601360209081526040808320848452825280832089905588835260129091528120546118d5906001613d60565b6000888152601260205260409020819055600d549091508114156119d657600b879055600087815260106020908152604080832080547fffffffffffffffffffffffffffffffffffffffffffffffffffffffffffffff00166001179055600c8590558483526011909152902061194c90878761371a565b50611957338361281a565b817fa109ba539900bf1b633f956d63c96fc89b814c7287f7aa50a9216d0b556572078787604051611989929190613d39565b60405180910390a27fa62731e12938ea044549350e2c588c4dd97f062bea8181c4cc2fd9740e0ebad1878388886040516119c69493929190613d19565b60405180910390a15090506119de565b600c54925050505b949350505050565b73ffffffffffffffffffffffffffffffffffffffff8216331415611a66576040517f08c379a000000000000000000000000000000000000000000000000000000000815260206004820152601960248201527f4552433732313a20617070726f766520746f2063616c6c6572000000000000006044820152606401610801565b33600081815260056020908152604080832073ffffffffffffffffffffffffffffffffffffffff87168085529083529281902080547fffffffffffffffffffffffffffffffffffffffffffffffffffffffffffffff001686151590811790915590519081529192917f17307eab39ab6107e8899845ad3d59bd9653f200f220920489ca2b5937696c31910160405180910390a35050565b3360009081527f54cdd369e4e8a8515e52ca72ec816c2101831ad1f18bf44102ed171459c9b4f8602052604090205460ff16611bbb576040517f08c379a000000000000000000000000000000000000000000000000000000000815260206004820152603660248201527f4d65726b6c654469737472696275746f723a2043616c6c6572206d757374206860448201527f6176652044454641554c545f41444d494e5f524f4c45000000000000000000006064820152608401610801565b611bc4816129e8565b50565b611bd1338361210c565b611c5d576040517f08c379a000000000000000000000000000000000000000000000000000000000815260206004820152603160248201527f4552433732313a207472616e736665722063616c6c6572206973206e6f74206f60448201527f776e6572206e6f7220617070726f7665640000000000000000000000000000006064820152608401610801565b611c6984848484612b2e565b50505050565b60008181526002602052604090205460609073ffffffffffffffffffffffffffffffffffffffff16611d23576040517f08c379a000000000000000000000000000000000000000000000000000000000815260206004820152603160248201527f45524337323155524953746f726167653a2055524920717565727920666f722060448201527f6e6f6e6578697374656e7420746f6b656e0000000000000000000000000000006064820152608401610801565b60008281526011602052604081208054611d3c90613e41565b80601f0160208091040260200160405190810160405280929190818152602001828054611d6890613e41565b8015611db55780601f10611d8a57610100808354040283529160200191611db5565b820191906000526020600020905b815481529060010190602001808311611d9857829003601f168201915b505050505090506000611dd360408051602081019091526000815290565b9050805160001415611de6575092915050565b815115611e18578082604051602001611e00929190613c20565b60405160208183030381529060405292505050919050565b6119de84612bd1565b600082815260066020526040902060010154611e3d8133612599565b610b5e838361275f565b3360009081527f54cdd369e4e8a8515e52ca72ec816c2101831ad1f18bf44102ed171459c9b4f8602052604090205460ff16611f05576040517f08c379a000000000000000000000000000000000000000000000000000000000815260206004820152603660248201527f4d65726b6c654469737472696275746f723a2043616c6c6572206d757374206860448201527f6176652044454641554c545f41444d494e5f524f4c45000000000000000000006064820152608401610801565b611bc481612cee565b60007fffffffff0000000000000000000000000000000000000000000000000000000082167f780e9d63000000000000000000000000000000000000000000000000000000001480610741575061074182612db3565b8115611fa55773ffffffffffffffffffffffffffffffffffffffff83166000908152600f602052604081208054849290611f9f908490613d60565b90915550505b8015611fe95773ffffffffffffffffffffffffffffffffffffffff83166000908152600f602052604081206001018054839290611fe3908490613d60565b90915550505b81151580611ff657508015155b15610b5e5773ffffffffffffffffffffffffffffffffffffffff83166000818152600f602052604090819020805460019091015491517f4510314558259843825372fc84b1ae19cb70b8c44805daf4808354e78a05cf6b9261205f928252602082015260400190565b60405180910390a2505050565b600081815260046020526040902080547fffffffffffffffffffffffff00000000000000000000000000000000000000001673ffffffffffffffffffffffffffffffffffffffff841690811790915581906120c68261146c565b73ffffffffffffffffffffffffffffffffffffffff167f8c5be1e5ebec7d5bd14f71427d1e84f3dd0314c0f7b2291e5b200ac8c7c3b92560405160405180910390a45050565b60008181526002602052604081205473ffffffffffffffffffffffffffffffffffffffff166121bd576040517f08c379a000000000000000000000000000000000000000000000000000000000815260206004820152602c60248201527f4552433732313a206f70657261746f7220717565727920666f72206e6f6e657860448201527f697374656e7420746f6b656e00000000000000000000000000000000000000006064820152608401610801565b60006121c88361146c565b90508073ffffffffffffffffffffffffffffffffffffffff168473ffffffffffffffffffffffffffffffffffffffff16148061223757508373ffffffffffffffffffffffffffffffffffffffff1661221f846108fc565b73ffffffffffffffffffffffffffffffffffffffff16145b806119de575073ffffffffffffffffffffffffffffffffffffffff80821660009081526005602090815260408083209388168352929052205460ff166119de565b8273ffffffffffffffffffffffffffffffffffffffff166122988261146c565b73ffffffffffffffffffffffffffffffffffffffff161461233b576040517f08c379a000000000000000000000000000000000000000000000000000000000815260206004820152602960248201527f4552433732313a207472616e73666572206f6620746f6b656e2074686174206960448201527f73206e6f74206f776e00000000000000000000000000000000000000000000006064820152608401610801565b73ffffffffffffffffffffffffffffffffffffffff82166123dd576040517f08c379a0000000000000000000000000000000000000000000000000000000008152602060048201526024808201527f4552433732313a207472616e7366657220746f20746865207a65726f2061646460448201527f72657373000000000000000000000000000000000000000000000000000000006064820152608401610801565b6123e8838383612e09565b6123f360008261206c565b73ffffffffffffffffffffffffffffffffffffffff83166000908152600360205260408120805460019290612429908490613dc9565b909155505073ffffffffffffffffffffffffffffffffffffffff82166000908152600360205260408120805460019290612464908490613d60565b909155505060008181526002602052604080822080547fffffffffffffffffffffffff00000000000000000000000000000000000000001673ffffffffffffffffffffffffffffffffffffffff86811691821790925591518493918716917fddf252ad1be2c89b69c2b068fc378daa952ba7f163c4a11628f55a4df523b3ef91a4505050565b600081815b855181101561258e57600086828151811061250c5761250c613f6f565b6020026020010151905080831161254e57604080516020810185905290810182905260600160405160208183030381529060405280519060200120925061257b565b60408051602081018390529081018490526060016040516020818303038152906040528051906020012092505b508061258681613e95565b9150506124ef565b509092149392505050565b600082815260066020908152604080832073ffffffffffffffffffffffffffffffffffffffff8516845290915290205460ff16610866576125f18173ffffffffffffffffffffffffffffffffffffffff166014612f0f565b6125fc836020612f0f565b60405160200161260d929190613c4f565b604080517fffffffffffffffffffffffffffffffffffffffffffffffffffffffffffffffe0818403018152908290527f08c379a000000000000000000000000000000000000000000000000000000000825261080191600401613d4d565b600082815260066020908152604080832073ffffffffffffffffffffffffffffffffffffffff8516845290915290205460ff1661086657600082815260066020908152604080832073ffffffffffffffffffffffffffffffffffffffff85168452909152902080547fffffffffffffffffffffffffffffffffffffffffffffffffffffffffffffff001660011790556127013390565b73ffffffffffffffffffffffffffffffffffffffff168173ffffffffffffffffffffffffffffffffffffffff16837f2f8788117e7eff1d82e926ec794901d17c78024a50270940304540a733656f0d60405160405180910390a45050565b600082815260066020908152604080832073ffffffffffffffffffffffffffffffffffffffff8516845290915290205460ff161561086657600082815260066020908152604080832073ffffffffffffffffffffffffffffffffffffffff8516808552925280832080547fffffffffffffffffffffffffffffffffffffffffffffffffffffffffffffff0016905551339285917ff6391f5c32d9c69d2a47ea670b442974b53935d1edc7fd64eb21e047a839171b9190a45050565b73ffffffffffffffffffffffffffffffffffffffff8216612897576040517f08c379a000000000000000000000000000000000000000000000000000000000815260206004820181905260248201527f4552433732313a206d696e7420746f20746865207a65726f20616464726573736044820152606401610801565b60008181526002602052604090205473ffffffffffffffffffffffffffffffffffffffff1615612923576040517f08c379a000000000000000000000000000000000000000000000000000000000815260206004820152601c60248201527f4552433732313a20746f6b656e20616c7265616479206d696e746564000000006044820152606401610801565b61292f60008383612e09565b73ffffffffffffffffffffffffffffffffffffffff82166000908152600360205260408120805460019290612965908490613d60565b909155505060008181526002602052604080822080547fffffffffffffffffffffffff00000000000000000000000000000000000000001673ffffffffffffffffffffffffffffffffffffffff861690811790915590518392907fddf252ad1be2c89b69c2b068fc378daa952ba7f163c4a11628f55a4df523b3ef908290a45050565b600e5473ffffffffffffffffffffffffffffffffffffffff82811691161415612a93576040517f08c379a000000000000000000000000000000000000000000000000000000000815260206004820152603160248201527f4d65726b6c654469737472696275746f723a20476f7665726e616e636520616460448201527f6472657373206e6f74206368616e6765640000000000000000000000000000006064820152608401610801565b600e546040805173ffffffffffffffffffffffffffffffffffffffff928316815291831660208301527f3aaaebeb4821d6a7e5c77ece53cff0afcc56c82add2c978dbbb7f73e84cbcfd2910160405180910390a1600e80547fffffffffffffffffffffffff00000000000000000000000000000000000000001673ffffffffffffffffffffffffffffffffffffffff92909216919091179055565b612b39848484612278565b612b4584848484613152565b611c69576040517f08c379a000000000000000000000000000000000000000000000000000000000815260206004820152603260248201527f4552433732313a207472616e7366657220746f206e6f6e20455243373231526560448201527f63656976657220696d706c656d656e74657200000000000000000000000000006064820152608401610801565b60008181526002602052604090205460609073ffffffffffffffffffffffffffffffffffffffff16612c85576040517f08c379a000000000000000000000000000000000000000000000000000000000815260206004820152602f60248201527f4552433732314d657461646174613a2055524920717565727920666f72206e6f60448201527f6e6578697374656e7420746f6b656e00000000000000000000000000000000006064820152608401610801565b6000612c9c60408051602081019091526000815290565b90506000815111612cbc5760405180602001604052806000815250612ce7565b80612cc68461334e565b604051602001612cd7929190613c20565b6040516020818303038152906040525b9392505050565b80612d7b576040517f08c379a000000000000000000000000000000000000000000000000000000000815260206004820152603460248201527f4d65726b6c654469737472696275746f723a205570646174652074687265736860448201527f6f6c64206d757374206265206e6f6e2d7a65726f0000000000000000000000006064820152608401610801565b6040518181527f4a3f39b792c062592e6c20d41d18331563a8de4ba398cd40ef7c9afffd6234959060200160405180910390a1600d55565b60007fffffffff0000000000000000000000000000000000000000000000000000000082167f7965db0b000000000000000000000000000000000000000000000000000000001480610741575061074182613480565b73ffffffffffffffffffffffffffffffffffffffff8316612e7157612e6c81600980546000838152600a60205260408120829055600182018355919091527f6e1540171b6c0c960b71a7020d9f60077f6af931a8bbf590da0223dacf75c7af0155565b612eae565b8173ffffffffffffffffffffffffffffffffffffffff168373ffffffffffffffffffffffffffffffffffffffff1614612eae57612eae8382613563565b73ffffffffffffffffffffffffffffffffffffffff8216612ed257610b5e8161361a565b8273ffffffffffffffffffffffffffffffffffffffff168273ffffffffffffffffffffffffffffffffffffffff1614610b5e57610b5e82826136c9565b60606000612f1e836002613d8c565b612f29906002613d60565b67ffffffffffffffff811115612f4157612f41613f9e565b6040519080825280601f01601f191660200182016040528015612f6b576020820181803683370190505b5090507f300000000000000000000000000000000000000000000000000000000000000081600081518110612fa257612fa2613f6f565b60200101907effffffffffffffffffffffffffffffffffffffffffffffffffffffffffffff1916908160001a9053507f78000000000000000000000000000000000000000000000000000000000000008160018151811061300557613005613f6f565b60200101907effffffffffffffffffffffffffffffffffffffffffffffffffffffffffffff1916908160001a9053506000613041846002613d8c565b61304c906001613d60565b90505b60018111156130e9577f303132333435363738396162636465660000000000000000000000000000000085600f166010811061308d5761308d613f6f565b1a60f81b8282815181106130a3576130a3613f6f565b60200101907effffffffffffffffffffffffffffffffffffffffffffffffffffffffffffff1916908160001a90535060049490941c936130e281613e0c565b905061304f565b508315612ce7576040517f08c379a000000000000000000000000000000000000000000000000000000000815260206004820181905260248201527f537472696e67733a20686578206c656e67746820696e73756666696369656e746044820152606401610801565b600073ffffffffffffffffffffffffffffffffffffffff84163b15613346576040517f150b7a0200000000000000000000000000000000000000000000000000000000815273ffffffffffffffffffffffffffffffffffffffff85169063150b7a02906131c9903390899088908890600401613cd0565b602060405180830381600087803b1580156131e357600080fd5b505af1925050508015613231575060408051601f3d9081017fffffffffffffffffffffffffffffffffffffffffffffffffffffffffffffffe016820190925261322e91810190613ad7565b60015b6132fb573d80801561325f576040519150601f19603f3d011682016040523d82523d6000602084013e613264565b606091505b5080516132f3576040517f08c379a000000000000000000000000000000000000000000000000000000000815260206004820152603260248201527f4552433732313a207472616e7366657220746f206e6f6e20455243373231526560448201527f63656976657220696d706c656d656e74657200000000000000000000000000006064820152608401610801565b805181602001fd5b7fffffffff00000000000000000000000000000000000000000000000000000000167f150b7a02000000000000000000000000000000000000000000000000000000001490506119de565b5060016119de565b60608161338e57505060408051808201909152600181527f3000000000000000000000000000000000000000000000000000000000000000602082015290565b8160005b81156133b857806133a281613e95565b91506133b19050600a83613d78565b9150613392565b60008167ffffffffffffffff8111156133d3576133d3613f9e565b6040519080825280601f01601f1916602001820160405280156133fd576020820181803683370190505b5090505b84156119de57613412600183613dc9565b915061341f600a86613ece565b61342a906030613d60565b60f81b81838151811061343f5761343f613f6f565b60200101907effffffffffffffffffffffffffffffffffffffffffffffffffffffffffffff1916908160001a905350613479600a86613d78565b9450613401565b60007fffffffff0000000000000000000000000000000000000000000000000000000082167f80ac58cd00000000000000000000000000000000000000000000000000000000148061351357507fffffffff0000000000000000000000000000000000000000000000000000000082167f5b5e139f00000000000000000000000000000000000000000000000000000000145b8061074157507f01ffc9a7000000000000000000000000000000000000000000000000000000007fffffffff00000000000000000000000000000000000000000000000000000000831614610741565b600060016135708461151e565b61357a9190613dc9565b6000838152600860205260409020549091508082146135da5773ffffffffffffffffffffffffffffffffffffffff841660009081526007602090815260408083208584528252808320548484528184208190558352600890915290208190555b50600091825260086020908152604080842084905573ffffffffffffffffffffffffffffffffffffffff9094168352600781528383209183525290812055565b60095460009061362c90600190613dc9565b6000838152600a60205260408120546009805493945090928490811061365457613654613f6f565b90600052602060002001549050806009838154811061367557613675613f6f565b6000918252602080832090910192909255828152600a909152604080822084905585825281205560098054806136ad576136ad613f40565b6001900381819060005260206000200160009055905550505050565b60006136d48361151e565b73ffffffffffffffffffffffffffffffffffffffff9093166000908152600760209081526040808320868452825280832085905593825260089052919091209190915550565b82805461372690613e41565b90600052602060002090601f01602090048101928261374857600085556137ac565b82601f1061377f578280017fffffffffffffffffffffffffffffffffffffffffffffffffffffffffffffff008235161785556137ac565b828001600101855582156137ac579182015b828111156137ac578235825591602001919060010190613791565b506137b89291506137bc565b5090565b5b808211156137b857600081556001016137bd565b6000602082840312156137e357600080fd5b8135612ce781613fcd565b60006020828403121561380057600080fd5b8151612ce781613fcd565b6000806040838503121561381e57600080fd5b823561382981613fcd565b9150602083013561383981613fcd565b809150509250929050565b60008060006060848603121561385957600080fd5b833561386481613fcd565b9250602084013561387481613fcd565b929592945050506040919091013590565b6000806000806080858703121561389b57600080fd5b84356138a681613fcd565b935060208501356138b681613fcd565b925060408501359150606085013567ffffffffffffffff808211156138da57600080fd5b818701915087601f8301126138ee57600080fd5b81358181111561390057613900613f9e565b604051601f82017fffffffffffffffffffffffffffffffffffffffffffffffffffffffffffffffe0908116603f0116810190838211818310171561394657613946613f9e565b816040528281528a602084870101111561395f57600080fd5b82602086016020830137600060208483010152809550505050505092959194509250565b6000806040838503121561399657600080fd5b82356139a181613fcd565b9150602083013561383981613fef565b600080604083850312156139c457600080fd5b82356139cf81613fcd565b946020939093013593505050565b6000602082840312156139ef57600080fd5b8151612ce781613fef565b600060208284031215613a0c57600080fd5b5035919050565b60008060408385031215613a2657600080fd5b82359150602083013561383981613fcd565b60008060008060608587031215613a4e57600080fd5b84359350602085013567ffffffffffffffff80821115613a6d57600080fd5b818701915087601f830112613a8157600080fd5b813581811115613a9057600080fd5b886020828501011115613aa257600080fd5b95986020929092019750949560400135945092505050565b600060208284031215613acc57600080fd5b8135612ce781613ffd565b600060208284031215613ae957600080fd5b8151612ce781613ffd565b600080600080600060808688031215613b0c57600080fd5b853594506020860135613b1e81613fcd565b935060408601359250606086013567ffffffffffffffff80821115613b4257600080fd5b818801915088601f830112613b5657600080fd5b813581811115613b6557600080fd5b8960208260051b8501011115613b7a57600080fd5b9699959850939650602001949392505050565b60008151808452613ba5816020860160208601613de0565b601f017fffffffffffffffffffffffffffffffffffffffffffffffffffffffffffffffe0169290920160200192915050565b8183528181602085013750600060208284010152600060207fffffffffffffffffffffffffffffffffffffffffffffffffffffffffffffffe0601f840116840101905092915050565b60008351613c32818460208801613de0565b835190830190613c46818360208801613de0565b01949350505050565b7f416363657373436f6e74726f6c3a206163636f756e7420000000000000000000815260008351613c87816017850160208801613de0565b7f206973206d697373696e6720726f6c65200000000000000000000000000000006017918401918201528351613cc4816028840160208801613de0565b01602801949350505050565b600073ffffffffffffffffffffffffffffffffffffffff808716835280861660208401525083604083015260806060830152613d0f6080830184613b8d565b9695505050505050565b848152836020820152606060408201526000613d0f606083018486613bd7565b6020815260006119de602083018486613bd7565b602081526000612ce76020830184613b8d565b60008219821115613d7357613d73613ee2565b500190565b600082613d8757613d87613f11565b500490565b6000817fffffffffffffffffffffffffffffffffffffffffffffffffffffffffffffffff0483118215151615613dc457613dc4613ee2565b500290565b600082821015613ddb57613ddb613ee2565b500390565b60005b83811015613dfb578181015183820152602001613de3565b83811115611c695750506000910152565b600081613e1b57613e1b613ee2565b507fffffffffffffffffffffffffffffffffffffffffffffffffffffffffffffffff0190565b600181811c90821680613e5557607f821691505b60208210811415613e8f577f4e487b7100000000000000000000000000000000000000000000000000000000600052602260045260246000fd5b50919050565b60007fffffffffffffffffffffffffffffffffffffffffffffffffffffffffffffffff821415613ec757613ec7613ee2565b5060010190565b600082613edd57613edd613f11565b500690565b7f4e487b7100000000000000000000000000000000000000000000000000000000600052601160045260246000fd5b7f4e487b7100000000000000000000000000000000000000000000000000000000600052601260045260246000fd5b7f4e487b7100000000000000000000000000000000000000000000000000000000600052603160045260246000fd5b7f4e487b7100000000000000000000000000000000000000000000000000000000600052603260045260246000fd5b7f4e487b7100000000000000000000000000000000000000000000000000000000600052604160045260246000fd5b73ffffffffffffffffffffffffffffffffffffffff81168114611bc457600080fd5b8015158114611bc457600080fd5b7fffffffff0000000000000000000000000000000000000000000000000000000081168114611bc457600080fdfea26469706673582212202c75653f8e7fbe64874774bf4c82e243518604a505bfc5f1694cefee32c96dbd64736f6c63430008060033",
  "devdoc": {
    "kind": "dev",
    "methods": {
      "approve(address,uint256)": {
        "details": "See {IERC721-approve}."
      },
      "balanceOf(address)": {
        "details": "See {IERC721-balanceOf}."
      },
      "constructor": {
        "details": "Initialize contact, `DEFAULT_ADMIN_ROLE` will be set to the account that deploys the contract."
      },
      "getApproved(uint256)": {
        "details": "See {IERC721-getApproved}."
      },
      "getRoleAdmin(bytes32)": {
        "details": "Returns the admin role that controls `role`. See {grantRole} and {revokeRole}. To change a role's admin, use {_setRoleAdmin}."
      },
      "grantRole(bytes32,address)": {
        "details": "Grants `role` to `account`. If `account` had not been already granted `role`, emits a {RoleGranted} event. Requirements: - the caller must have ``role``'s admin role."
      },
      "hasRole(bytes32,address)": {
        "details": "Returns `true` if `account` has been granted `role`."
      },
      "isApprovedForAll(address,address)": {
        "details": "See {IERC721-isApprovedForAll}."
      },
      "name()": {
        "details": "See {IERC721Metadata-name}."
      },
      "ownerOf(uint256)": {
        "details": "See {IERC721-ownerOf}."
      },
      "renounceRole(bytes32,address)": {
        "details": "Revokes `role` from the calling account. Roles are often managed via {grantRole} and {revokeRole}: this function's purpose is to provide a mechanism for accounts to lose their privileges if they are compromised (such as when a trusted device is misplaced). If the calling account had been granted `role`, emits a {RoleRevoked} event. Requirements: - the caller must be `account`."
      },
      "revokeRole(bytes32,address)": {
        "details": "Revokes `role` from `account`. If `account` had been granted `role`, emits a {RoleRevoked} event. Requirements: - the caller must have ``role``'s admin role."
      },
      "safeTransferFrom(address,address,uint256)": {
        "details": "See {IERC721-safeTransferFrom}."
      },
      "safeTransferFrom(address,address,uint256,bytes)": {
        "details": "See {IERC721-safeTransferFrom}."
      },
      "setApprovalForAll(address,bool)": {
        "details": "See {IERC721-setApprovalForAll}."
      },
      "supportsInterface(bytes4)": {
        "details": "Returns true if this contract implements the interface defined by `interfaceId`. See the corresponding https://eips.ethereum.org/EIPS/eip-165#how-interfaces-are-identified[EIP section] to learn more about how these ids are created. This function call must use less than 30 000 gas."
      },
      "symbol()": {
        "details": "See {IERC721Metadata-symbol}."
      },
      "tokenByIndex(uint256)": {
        "details": "See {IERC721Enumerable-tokenByIndex}."
      },
      "tokenOfOwnerByIndex(address,uint256)": {
        "details": "See {IERC721Enumerable-tokenOfOwnerByIndex}."
      },
      "tokenURI(uint256)": {
        "details": "See {IERC721Metadata-tokenURI}."
      },
      "totalSupply()": {
        "details": "See {IERC721Enumerable-totalSupply}."
      },
      "transferFrom(address,address,uint256)": {
        "details": "See {IERC721-transferFrom}."
      }
    },
    "stateVariables": {
      "_tokenURI": {
        "details": "Path to distribution metadata (including proofs)"
      },
      "_updateVotes": {
        "details": "Votes for a new merkle root"
      },
      "_updaterVotes": {
        "details": "Vote for new merkle root for each distribution"
      },
      "previousMerkleRoot": {
        "details": "Historical merkle roots"
      }
    },
    "version": 1
  },
  "userdoc": {
    "events": {
      "GovernanceChanged(address,address)": {
        "notice": "Emitted when governance address changes"
      },
      "UpdateThresholdChanged(uint256)": {
        "notice": "Emitted when update threshold changes    "
      }
    },
    "kind": "user",
    "methods": {
      "DISTRIBUTOR_ROLE()": {
        "notice": "Role to distribute rewards to accounts"
      },
      "SLASHER_ROLE()": {
        "notice": "Role to slash earned rewards"
      },
      "UPDATER_ROLE()": {
        "notice": "Role allowing the merkle root to be updated"
      },
      "accountState(address)": {
        "notice": "Account state"
      },
      "claim(uint256,address,uint256,bytes32[])": {
        "notice": "Claim all unclaimed tokens Given a merkle proof of (index, account, totalEarned), claim all unclaimed tokens. Unclaimed tokens are the difference between the total earned tokens (provided in the merkle tree) and those that have been either claimed or slashed. Note: it is possible for the claimed and slashed tokens to exceeed the total earned tokens, particularly when a slashing has occured. In this case no tokens are claimable until total earned has exceeded the sum of the claimed and slashed. If no tokens are claimable, this function will revert."
      },
      "distributionCount()": {
        "notice": "Total number of distributions, also token id of the current distribution"
      },
      "governance()": {
        "notice": "Governance address"
      },
      "merkleRoot()": {
        "notice": "Root of a merkle tree containing total earned amounts"
      },
      "setGovernance(address)": {
        "notice": "Change the governance address Requirements: - the caller must have the `DEFAULT_ADMIN_ROLE`."
      },
      "setUpdateThreshold(uint256)": {
        "notice": "Change the update threshold Requirements: - the caller must have the `DEFAULT_ADMIN_ROLE`."
      },
      "slash(address,uint256)": {
        "notice": "Slash `account` for `amount` tokens. Accounts may be slashed more than their total earned tokens, see {claim}. Requirements: - caller must have `SLASHERS_ROLE`"
      },
      "token()": {
        "notice": "Token distribured by this contract"
      },
      "updateMerkleRoot(bytes32,string,uint256)": {
        "notice": "Set a new merkle root and mints NFT with metadata URI to retreive the full tree Requirements: - caller must have `UPDATER_ROLE` "
      },
      "updateThreshold()": {
        "notice": "Number of votes from updaters needed to apply a new root"
      }
    },
    "version": 1
  },
  "storageLayout": {
    "storage": [
      {
        "astId": 11955,
        "contract": "contracts/MerkleDistributor.sol:MerkleDistributor",
        "label": "_name",
        "offset": 0,
        "slot": "0",
        "type": "t_string_storage"
      },
      {
        "astId": 11957,
        "contract": "contracts/MerkleDistributor.sol:MerkleDistributor",
        "label": "_symbol",
        "offset": 0,
        "slot": "1",
        "type": "t_string_storage"
      },
      {
        "astId": 11961,
        "contract": "contracts/MerkleDistributor.sol:MerkleDistributor",
        "label": "_owners",
        "offset": 0,
        "slot": "2",
        "type": "t_mapping(t_uint256,t_address)"
      },
      {
        "astId": 11965,
        "contract": "contracts/MerkleDistributor.sol:MerkleDistributor",
        "label": "_balances",
        "offset": 0,
        "slot": "3",
        "type": "t_mapping(t_address,t_uint256)"
      },
      {
        "astId": 11969,
        "contract": "contracts/MerkleDistributor.sol:MerkleDistributor",
        "label": "_tokenApprovals",
        "offset": 0,
        "slot": "4",
        "type": "t_mapping(t_uint256,t_address)"
      },
      {
        "astId": 11975,
        "contract": "contracts/MerkleDistributor.sol:MerkleDistributor",
        "label": "_operatorApprovals",
        "offset": 0,
        "slot": "5",
        "type": "t_mapping(t_address,t_mapping(t_address,t_bool))"
      },
      {
        "astId": 10838,
        "contract": "contracts/MerkleDistributor.sol:MerkleDistributor",
        "label": "_roles",
        "offset": 0,
        "slot": "6",
        "type": "t_mapping(t_bytes32,t_struct(RoleData)10833_storage)"
      },
      {
        "astId": 12762,
        "contract": "contracts/MerkleDistributor.sol:MerkleDistributor",
        "label": "_ownedTokens",
        "offset": 0,
        "slot": "7",
        "type": "t_mapping(t_address,t_mapping(t_uint256,t_uint256))"
      },
      {
        "astId": 12766,
        "contract": "contracts/MerkleDistributor.sol:MerkleDistributor",
        "label": "_ownedTokensIndex",
        "offset": 0,
        "slot": "8",
        "type": "t_mapping(t_uint256,t_uint256)"
      },
      {
        "astId": 12769,
        "contract": "contracts/MerkleDistributor.sol:MerkleDistributor",
        "label": "_allTokens",
        "offset": 0,
        "slot": "9",
        "type": "t_array(t_uint256)dyn_storage"
      },
      {
        "astId": 12773,
        "contract": "contracts/MerkleDistributor.sol:MerkleDistributor",
        "label": "_allTokensIndex",
        "offset": 0,
        "slot": "10",
        "type": "t_mapping(t_uint256,t_uint256)"
      },
      {
        "astId": 3239,
        "contract": "contracts/MerkleDistributor.sol:MerkleDistributor",
        "label": "merkleRoot",
        "offset": 0,
        "slot": "11",
        "type": "t_bytes32"
      },
      {
        "astId": 3243,
        "contract": "contracts/MerkleDistributor.sol:MerkleDistributor",
        "label": "distributionCount",
        "offset": 0,
        "slot": "12",
        "type": "t_uint256"
      },
      {
        "astId": 3246,
        "contract": "contracts/MerkleDistributor.sol:MerkleDistributor",
        "label": "updateThreshold",
        "offset": 0,
        "slot": "13",
        "type": "t_uint256"
      },
      {
        "astId": 3249,
        "contract": "contracts/MerkleDistributor.sol:MerkleDistributor",
        "label": "governance",
        "offset": 0,
        "slot": "14",
        "type": "t_address"
      },
      {
        "astId": 3261,
        "contract": "contracts/MerkleDistributor.sol:MerkleDistributor",
        "label": "accountState",
        "offset": 0,
        "slot": "15",
        "type": "t_mapping(t_address,t_struct(AccountState)3254_storage)"
      },
      {
        "astId": 3267,
        "contract": "contracts/MerkleDistributor.sol:MerkleDistributor",
        "label": "previousMerkleRoot",
        "offset": 0,
        "slot": "16",
        "type": "t_mapping(t_bytes32,t_bool)"
      },
      {
        "astId": 3272,
        "contract": "contracts/MerkleDistributor.sol:MerkleDistributor",
        "label": "_tokenURI",
        "offset": 0,
        "slot": "17",
        "type": "t_mapping(t_uint256,t_string_storage)"
      },
      {
        "astId": 3277,
        "contract": "contracts/MerkleDistributor.sol:MerkleDistributor",
        "label": "_updateVotes",
        "offset": 0,
        "slot": "18",
        "type": "t_mapping(t_bytes32,t_uint256)"
      },
      {
        "astId": 3284,
        "contract": "contracts/MerkleDistributor.sol:MerkleDistributor",
        "label": "_updaterVotes",
        "offset": 0,
        "slot": "19",
        "type": "t_mapping(t_address,t_mapping(t_uint256,t_bytes32))"
      }
    ],
    "types": {
      "t_address": {
        "encoding": "inplace",
        "label": "address",
        "numberOfBytes": "20"
      },
      "t_array(t_uint256)dyn_storage": {
        "base": "t_uint256",
        "encoding": "dynamic_array",
        "label": "uint256[]",
        "numberOfBytes": "32"
      },
      "t_bool": {
        "encoding": "inplace",
        "label": "bool",
        "numberOfBytes": "1"
      },
      "t_bytes32": {
        "encoding": "inplace",
        "label": "bytes32",
        "numberOfBytes": "32"
      },
      "t_mapping(t_address,t_bool)": {
        "encoding": "mapping",
        "key": "t_address",
        "label": "mapping(address => bool)",
        "numberOfBytes": "32",
        "value": "t_bool"
      },
      "t_mapping(t_address,t_mapping(t_address,t_bool))": {
        "encoding": "mapping",
        "key": "t_address",
        "label": "mapping(address => mapping(address => bool))",
        "numberOfBytes": "32",
        "value": "t_mapping(t_address,t_bool)"
      },
      "t_mapping(t_address,t_mapping(t_uint256,t_bytes32))": {
        "encoding": "mapping",
        "key": "t_address",
        "label": "mapping(address => mapping(uint256 => bytes32))",
        "numberOfBytes": "32",
        "value": "t_mapping(t_uint256,t_bytes32)"
      },
      "t_mapping(t_address,t_mapping(t_uint256,t_uint256))": {
        "encoding": "mapping",
        "key": "t_address",
        "label": "mapping(address => mapping(uint256 => uint256))",
        "numberOfBytes": "32",
        "value": "t_mapping(t_uint256,t_uint256)"
      },
      "t_mapping(t_address,t_struct(AccountState)3254_storage)": {
        "encoding": "mapping",
        "key": "t_address",
        "label": "mapping(address => struct MerkleDistributor.AccountState)",
        "numberOfBytes": "32",
        "value": "t_struct(AccountState)3254_storage"
      },
      "t_mapping(t_address,t_uint256)": {
        "encoding": "mapping",
        "key": "t_address",
        "label": "mapping(address => uint256)",
        "numberOfBytes": "32",
        "value": "t_uint256"
      },
      "t_mapping(t_bytes32,t_bool)": {
        "encoding": "mapping",
        "key": "t_bytes32",
        "label": "mapping(bytes32 => bool)",
        "numberOfBytes": "32",
        "value": "t_bool"
      },
      "t_mapping(t_bytes32,t_struct(RoleData)10833_storage)": {
        "encoding": "mapping",
        "key": "t_bytes32",
        "label": "mapping(bytes32 => struct AccessControl.RoleData)",
        "numberOfBytes": "32",
        "value": "t_struct(RoleData)10833_storage"
      },
      "t_mapping(t_bytes32,t_uint256)": {
        "encoding": "mapping",
        "key": "t_bytes32",
        "label": "mapping(bytes32 => uint256)",
        "numberOfBytes": "32",
        "value": "t_uint256"
      },
      "t_mapping(t_uint256,t_address)": {
        "encoding": "mapping",
        "key": "t_uint256",
        "label": "mapping(uint256 => address)",
        "numberOfBytes": "32",
        "value": "t_address"
      },
      "t_mapping(t_uint256,t_bytes32)": {
        "encoding": "mapping",
        "key": "t_uint256",
        "label": "mapping(uint256 => bytes32)",
        "numberOfBytes": "32",
        "value": "t_bytes32"
      },
      "t_mapping(t_uint256,t_string_storage)": {
        "encoding": "mapping",
        "key": "t_uint256",
        "label": "mapping(uint256 => string)",
        "numberOfBytes": "32",
        "value": "t_string_storage"
      },
      "t_mapping(t_uint256,t_uint256)": {
        "encoding": "mapping",
        "key": "t_uint256",
        "label": "mapping(uint256 => uint256)",
        "numberOfBytes": "32",
        "value": "t_uint256"
      },
      "t_string_storage": {
        "encoding": "bytes",
        "label": "string",
        "numberOfBytes": "32"
      },
      "t_struct(AccountState)3254_storage": {
        "encoding": "inplace",
        "label": "struct MerkleDistributor.AccountState",
        "members": [
          {
            "astId": 3251,
            "contract": "contracts/MerkleDistributor.sol:MerkleDistributor",
            "label": "totalClaimed",
            "offset": 0,
            "slot": "0",
            "type": "t_uint256"
          },
          {
            "astId": 3253,
            "contract": "contracts/MerkleDistributor.sol:MerkleDistributor",
            "label": "totalSlashed",
            "offset": 0,
            "slot": "1",
            "type": "t_uint256"
          }
        ],
        "numberOfBytes": "64"
      },
      "t_struct(RoleData)10833_storage": {
        "encoding": "inplace",
        "label": "struct AccessControl.RoleData",
        "members": [
          {
            "astId": 10830,
            "contract": "contracts/MerkleDistributor.sol:MerkleDistributor",
            "label": "members",
            "offset": 0,
            "slot": "0",
            "type": "t_mapping(t_address,t_bool)"
          },
          {
            "astId": 10832,
            "contract": "contracts/MerkleDistributor.sol:MerkleDistributor",
            "label": "adminRole",
            "offset": 0,
            "slot": "1",
            "type": "t_bytes32"
          }
        ],
        "numberOfBytes": "64"
      },
      "t_uint256": {
        "encoding": "inplace",
        "label": "uint256",
        "numberOfBytes": "32"
      }
    }
  }
}