{
  "address": "0xcCbd54268afC3502bBD532a91CfFD1774AefaEAb",
  "abi": [
    {
      "inputs": [
        {
          "internalType": "contract IERC20Mintable",
          "name": "_token",
          "type": "address"
        },
        {
          "internalType": "address",
          "name": "_admin",
          "type": "address"
        },
        {
          "internalType": "uint8",
          "name": "_updateThreshold",
          "type": "uint8"
        },
        {
          "internalType": "address[]",
          "name": "_updaters",
          "type": "address[]"
        },
        {
          "internalType": "address[]",
          "name": "_slashers",
          "type": "address[]"
        }
      ],
      "stateMutability": "nonpayable",
      "type": "constructor"
    },
    {
      "anonymous": false,
      "inputs": [
        {
          "indexed": true,
          "internalType": "address",
          "name": "account",
          "type": "address"
        },
        {
          "indexed": false,
          "internalType": "uint256",
          "name": "totalClaimed",
          "type": "uint256"
        },
        {
          "indexed": false,
          "internalType": "uint256",
          "name": "totalSlashed",
          "type": "uint256"
        }
      ],
      "name": "AccountUpdated",
      "type": "event"
    },
    {
      "anonymous": false,
      "inputs": [
        {
          "indexed": true,
          "internalType": "address",
          "name": "owner",
          "type": "address"
        },
        {
          "indexed": true,
          "internalType": "address",
          "name": "approved",
          "type": "address"
        },
        {
          "indexed": true,
          "internalType": "uint256",
          "name": "tokenId",
          "type": "uint256"
        }
      ],
      "name": "Approval",
      "type": "event"
    },
    {
      "anonymous": false,
      "inputs": [
        {
          "indexed": true,
          "internalType": "address",
          "name": "owner",
          "type": "address"
        },
        {
          "indexed": true,
          "internalType": "address",
          "name": "operator",
          "type": "address"
        },
        {
          "indexed": false,
          "internalType": "bool",
          "name": "approved",
          "type": "bool"
        }
      ],
      "name": "ApprovalForAll",
      "type": "event"
    },
    {
      "anonymous": false,
      "inputs": [
        {
          "indexed": false,
          "internalType": "uint256",
          "name": "index",
          "type": "uint256"
        },
        {
          "indexed": false,
          "internalType": "uint256",
          "name": "totalEarned",
          "type": "uint256"
        },
        {
          "indexed": true,
          "internalType": "address",
          "name": "account",
          "type": "address"
        },
        {
          "indexed": false,
          "internalType": "uint256",
          "name": "claimed",
          "type": "uint256"
        }
      ],
      "name": "Claimed",
      "type": "event"
    },
    {
      "anonymous": false,
      "inputs": [
        {
          "indexed": false,
          "internalType": "uint256",
          "name": "oldDebt",
          "type": "uint256"
        },
        {
          "indexed": false,
          "internalType": "uint256",
          "name": "newDebt",
          "type": "uint256"
        }
      ],
      "name": "DebtChanged",
      "type": "event"
    },
    {
      "anonymous": false,
      "inputs": [
        {
          "indexed": false,
          "internalType": "bytes32",
          "name": "merkleRoot",
          "type": "bytes32"
        },
        {
          "indexed": false,
          "internalType": "uint256",
          "name": "distributionNumber",
          "type": "uint256"
        },
        {
          "indexed": false,
          "internalType": "string",
          "name": "metadataURI",
          "type": "string"
        },
        {
          "indexed": false,
          "internalType": "uint256",
          "name": "tokenTotal",
          "type": "uint256"
        }
      ],
      "name": "MerkleRootUpdated",
      "type": "event"
    },
    {
      "anonymous": false,
      "inputs": [
        {
          "indexed": false,
          "internalType": "string",
          "name": "value",
          "type": "string"
        },
        {
          "indexed": true,
          "internalType": "uint256",
          "name": "id",
          "type": "uint256"
        }
      ],
      "name": "PermanentURI",
      "type": "event"
    },
    {
      "anonymous": false,
      "inputs": [
        {
          "indexed": true,
          "internalType": "bytes32",
          "name": "role",
          "type": "bytes32"
        },
        {
          "indexed": true,
          "internalType": "bytes32",
          "name": "previousAdminRole",
          "type": "bytes32"
        },
        {
          "indexed": true,
          "internalType": "bytes32",
          "name": "newAdminRole",
          "type": "bytes32"
        }
      ],
      "name": "RoleAdminChanged",
      "type": "event"
    },
    {
      "anonymous": false,
      "inputs": [
        {
          "indexed": true,
          "internalType": "bytes32",
          "name": "role",
          "type": "bytes32"
        },
        {
          "indexed": true,
          "internalType": "address",
          "name": "account",
          "type": "address"
        },
        {
          "indexed": true,
          "internalType": "address",
          "name": "sender",
          "type": "address"
        }
      ],
      "name": "RoleGranted",
      "type": "event"
    },
    {
      "anonymous": false,
      "inputs": [
        {
          "indexed": true,
          "internalType": "bytes32",
          "name": "role",
          "type": "bytes32"
        },
        {
          "indexed": true,
          "internalType": "address",
          "name": "account",
          "type": "address"
        },
        {
          "indexed": true,
          "internalType": "address",
          "name": "sender",
          "type": "address"
        }
      ],
      "name": "RoleRevoked",
      "type": "event"
    },
    {
      "anonymous": false,
      "inputs": [
        {
          "indexed": true,
          "internalType": "address",
          "name": "account",
          "type": "address"
        },
        {
          "indexed": false,
          "internalType": "uint256",
          "name": "slashed",
          "type": "uint256"
        }
      ],
      "name": "Slashed",
      "type": "event"
    },
    {
      "anonymous": false,
      "inputs": [
        {
          "indexed": true,
          "internalType": "address",
          "name": "from",
          "type": "address"
        },
        {
          "indexed": true,
          "internalType": "address",
          "name": "to",
          "type": "address"
        },
        {
          "indexed": true,
          "internalType": "uint256",
          "name": "tokenId",
          "type": "uint256"
        }
      ],
      "name": "Transfer",
      "type": "event"
    },
    {
      "anonymous": false,
      "inputs": [
        {
          "indexed": false,
          "internalType": "uint256",
          "name": "updateThreshold",
          "type": "uint256"
        }
      ],
      "name": "UpdateThresholdChanged",
      "type": "event"
    },
    {
      "inputs": [],
      "name": "DEFAULT_ADMIN_ROLE",
      "outputs": [
        {
          "internalType": "bytes32",
          "name": "",
          "type": "bytes32"
        }
      ],
      "stateMutability": "view",
      "type": "function"
    },
    {
      "inputs": [],
      "name": "SLASHER_ROLE",
      "outputs": [
        {
          "internalType": "bytes32",
          "name": "",
          "type": "bytes32"
        }
      ],
      "stateMutability": "view",
      "type": "function"
    },
    {
      "inputs": [],
      "name": "UPDATER_ROLE",
      "outputs": [
        {
          "internalType": "bytes32",
          "name": "",
          "type": "bytes32"
        }
      ],
      "stateMutability": "view",
      "type": "function"
    },
    {
      "inputs": [
        {
          "internalType": "address",
          "name": "",
          "type": "address"
        }
      ],
      "name": "accountState",
      "outputs": [
        {
          "internalType": "uint256",
          "name": "totalClaimed",
          "type": "uint256"
        },
        {
          "internalType": "uint256",
          "name": "totalSlashed",
          "type": "uint256"
        }
      ],
      "stateMutability": "view",
      "type": "function"
    },
    {
      "inputs": [
        {
          "internalType": "address[]",
          "name": "newUpdaters",
          "type": "address[]"
        },
        {
          "internalType": "uint256",
          "name": "newThreshold",
          "type": "uint256"
        }
      ],
      "name": "addUpdaters",
      "outputs": [],
      "stateMutability": "nonpayable",
      "type": "function"
    },
    {
      "inputs": [
        {
          "internalType": "address",
          "name": "to",
          "type": "address"
        },
        {
          "internalType": "uint256",
          "name": "tokenId",
          "type": "uint256"
        }
      ],
      "name": "approve",
      "outputs": [],
      "stateMutability": "nonpayable",
      "type": "function"
    },
    {
      "inputs": [],
      "name": "balance",
      "outputs": [
        {
          "internalType": "uint256",
          "name": "",
          "type": "uint256"
        }
      ],
      "stateMutability": "view",
      "type": "function"
    },
    {
      "inputs": [
        {
          "internalType": "address",
          "name": "owner",
          "type": "address"
        }
      ],
      "name": "balanceOf",
      "outputs": [
        {
          "internalType": "uint256",
          "name": "",
          "type": "uint256"
        }
      ],
      "stateMutability": "view",
      "type": "function"
    },
    {
      "inputs": [
        {
          "internalType": "uint256",
          "name": "index",
          "type": "uint256"
        },
        {
          "internalType": "address",
          "name": "account",
          "type": "address"
        },
        {
          "internalType": "uint256",
          "name": "totalEarned",
          "type": "uint256"
        },
        {
          "internalType": "bytes32[]",
          "name": "merkleProof",
          "type": "bytes32[]"
        }
      ],
      "name": "claim",
      "outputs": [],
      "stateMutability": "nonpayable",
      "type": "function"
    },
    {
      "inputs": [],
      "name": "debtTotal",
      "outputs": [
        {
          "internalType": "uint256",
          "name": "",
          "type": "uint256"
        }
      ],
      "stateMutability": "view",
      "type": "function"
    },
    {
      "inputs": [],
      "name": "distributionCount",
      "outputs": [
        {
          "internalType": "uint256",
          "name": "",
          "type": "uint256"
        }
      ],
      "stateMutability": "view",
      "type": "function"
    },
    {
      "inputs": [
        {
          "internalType": "uint256",
          "name": "tokenId",
          "type": "uint256"
        }
      ],
      "name": "getApproved",
      "outputs": [
        {
          "internalType": "address",
          "name": "",
          "type": "address"
        }
      ],
      "stateMutability": "view",
      "type": "function"
    },
    {
      "inputs": [
        {
          "internalType": "bytes32",
          "name": "role",
          "type": "bytes32"
        }
      ],
      "name": "getRoleAdmin",
      "outputs": [
        {
          "internalType": "bytes32",
          "name": "",
          "type": "bytes32"
        }
      ],
      "stateMutability": "view",
      "type": "function"
    },
    {
      "inputs": [
        {
          "internalType": "bytes32",
          "name": "role",
          "type": "bytes32"
        },
        {
          "internalType": "uint256",
          "name": "index",
          "type": "uint256"
        }
      ],
      "name": "getRoleMember",
      "outputs": [
        {
          "internalType": "address",
          "name": "",
          "type": "address"
        }
      ],
      "stateMutability": "view",
      "type": "function"
    },
    {
      "inputs": [
        {
          "internalType": "bytes32",
          "name": "role",
          "type": "bytes32"
        }
      ],
      "name": "getRoleMemberCount",
      "outputs": [
        {
          "internalType": "uint256",
          "name": "",
          "type": "uint256"
        }
      ],
      "stateMutability": "view",
      "type": "function"
    },
    {
      "inputs": [
        {
          "internalType": "bytes32",
          "name": "role",
          "type": "bytes32"
        },
        {
          "internalType": "address",
          "name": "account",
          "type": "address"
        }
      ],
      "name": "grantRole",
      "outputs": [],
      "stateMutability": "nonpayable",
      "type": "function"
    },
    {
      "inputs": [
        {
          "internalType": "bytes32",
          "name": "role",
          "type": "bytes32"
        },
        {
          "internalType": "address",
          "name": "account",
          "type": "address"
        }
      ],
      "name": "hasRole",
      "outputs": [
        {
          "internalType": "bool",
          "name": "",
          "type": "bool"
        }
      ],
      "stateMutability": "view",
      "type": "function"
    },
    {
      "inputs": [
        {
          "internalType": "address",
          "name": "owner",
          "type": "address"
        },
        {
          "internalType": "address",
          "name": "operator",
          "type": "address"
        }
      ],
      "name": "isApprovedForAll",
      "outputs": [
        {
          "internalType": "bool",
          "name": "",
          "type": "bool"
        }
      ],
      "stateMutability": "view",
      "type": "function"
    },
    {
      "inputs": [],
      "name": "merkleRoot",
      "outputs": [
        {
          "internalType": "bytes32",
          "name": "",
          "type": "bytes32"
        }
      ],
      "stateMutability": "view",
      "type": "function"
    },
    {
      "inputs": [],
      "name": "name",
      "outputs": [
        {
          "internalType": "string",
          "name": "",
          "type": "string"
        }
      ],
      "stateMutability": "view",
      "type": "function"
    },
    {
      "inputs": [
        {
          "internalType": "uint256",
          "name": "tokenId",
          "type": "uint256"
        }
      ],
      "name": "ownerOf",
      "outputs": [
        {
          "internalType": "address",
          "name": "",
          "type": "address"
        }
      ],
      "stateMutability": "view",
      "type": "function"
    },
    {
      "inputs": [
        {
          "internalType": "bytes32",
          "name": "",
          "type": "bytes32"
        }
      ],
      "name": "previousMerkleRoot",
      "outputs": [
        {
          "internalType": "bool",
          "name": "",
          "type": "bool"
        }
      ],
      "stateMutability": "view",
      "type": "function"
    },
    {
      "inputs": [
        {
          "internalType": "address[]",
          "name": "existingUpdaters",
          "type": "address[]"
        },
        {
          "internalType": "uint256",
          "name": "newThreshold",
          "type": "uint256"
        }
      ],
      "name": "removeUpdaters",
      "outputs": [],
      "stateMutability": "nonpayable",
      "type": "function"
    },
    {
      "inputs": [
        {
          "internalType": "bytes32",
          "name": "role",
          "type": "bytes32"
        },
        {
          "internalType": "address",
          "name": "account",
          "type": "address"
        }
      ],
      "name": "renounceRole",
      "outputs": [],
      "stateMutability": "nonpayable",
      "type": "function"
    },
    {
      "inputs": [
        {
          "internalType": "bytes32",
          "name": "role",
          "type": "bytes32"
        },
        {
          "internalType": "address",
          "name": "account",
          "type": "address"
        }
      ],
      "name": "revokeRole",
      "outputs": [],
      "stateMutability": "nonpayable",
      "type": "function"
    },
    {
      "inputs": [
        {
          "internalType": "address",
          "name": "from",
          "type": "address"
        },
        {
          "internalType": "address",
          "name": "to",
          "type": "address"
        },
        {
          "internalType": "uint256",
          "name": "tokenId",
          "type": "uint256"
        }
      ],
      "name": "safeTransferFrom",
      "outputs": [],
      "stateMutability": "nonpayable",
      "type": "function"
    },
    {
      "inputs": [
        {
          "internalType": "address",
          "name": "from",
          "type": "address"
        },
        {
          "internalType": "address",
          "name": "to",
          "type": "address"
        },
        {
          "internalType": "uint256",
          "name": "tokenId",
          "type": "uint256"
        },
        {
          "internalType": "bytes",
          "name": "_data",
          "type": "bytes"
        }
      ],
      "name": "safeTransferFrom",
      "outputs": [],
      "stateMutability": "nonpayable",
      "type": "function"
    },
    {
      "inputs": [
        {
          "internalType": "address",
          "name": "operator",
          "type": "address"
        },
        {
          "internalType": "bool",
          "name": "approved",
          "type": "bool"
        }
      ],
      "name": "setApprovalForAll",
      "outputs": [],
      "stateMutability": "nonpayable",
      "type": "function"
    },
    {
      "inputs": [
        {
          "internalType": "uint256",
          "name": "to",
          "type": "uint256"
        }
      ],
      "name": "setUpdateThreshold",
      "outputs": [],
      "stateMutability": "nonpayable",
      "type": "function"
    },
    {
      "inputs": [
        {
          "internalType": "address",
          "name": "account",
          "type": "address"
        },
        {
          "internalType": "uint256",
          "name": "amount",
          "type": "uint256"
        }
      ],
      "name": "slash",
      "outputs": [],
      "stateMutability": "nonpayable",
      "type": "function"
    },
    {
      "inputs": [
        {
          "internalType": "bytes4",
          "name": "interfaceId",
          "type": "bytes4"
        }
      ],
      "name": "supportsInterface",
      "outputs": [
        {
          "internalType": "bool",
          "name": "",
          "type": "bool"
        }
      ],
      "stateMutability": "view",
      "type": "function"
    },
    {
      "inputs": [],
      "name": "symbol",
      "outputs": [
        {
          "internalType": "string",
          "name": "",
          "type": "string"
        }
      ],
      "stateMutability": "view",
      "type": "function"
    },
    {
      "inputs": [],
      "name": "token",
      "outputs": [
        {
          "internalType": "contract IERC20Mintable",
          "name": "",
          "type": "address"
        }
      ],
      "stateMutability": "view",
      "type": "function"
    },
    {
      "inputs": [
        {
          "internalType": "uint256",
          "name": "index",
          "type": "uint256"
        }
      ],
      "name": "tokenByIndex",
      "outputs": [
        {
          "internalType": "uint256",
          "name": "",
          "type": "uint256"
        }
      ],
      "stateMutability": "view",
      "type": "function"
    },
    {
      "inputs": [
        {
          "internalType": "address",
          "name": "owner",
          "type": "address"
        },
        {
          "internalType": "uint256",
          "name": "index",
          "type": "uint256"
        }
      ],
      "name": "tokenOfOwnerByIndex",
      "outputs": [
        {
          "internalType": "uint256",
          "name": "",
          "type": "uint256"
        }
      ],
      "stateMutability": "view",
      "type": "function"
    },
    {
      "inputs": [],
      "name": "tokenTotal",
      "outputs": [
        {
          "internalType": "uint256",
          "name": "",
          "type": "uint256"
        }
      ],
      "stateMutability": "view",
      "type": "function"
    },
    {
      "inputs": [
        {
          "internalType": "uint256",
          "name": "tokenId",
          "type": "uint256"
        }
      ],
      "name": "tokenURI",
      "outputs": [
        {
          "internalType": "string",
          "name": "",
          "type": "string"
        }
      ],
      "stateMutability": "view",
      "type": "function"
    },
    {
      "inputs": [],
      "name": "totalSupply",
      "outputs": [
        {
          "internalType": "uint256",
          "name": "",
          "type": "uint256"
        }
      ],
      "stateMutability": "view",
      "type": "function"
    },
    {
      "inputs": [
        {
          "internalType": "address",
          "name": "from",
          "type": "address"
        },
        {
          "internalType": "address",
          "name": "to",
          "type": "address"
        },
        {
          "internalType": "uint256",
          "name": "tokenId",
          "type": "uint256"
        }
      ],
      "name": "transferFrom",
      "outputs": [],
      "stateMutability": "nonpayable",
      "type": "function"
    },
    {
      "inputs": [
        {
          "internalType": "bytes32",
          "name": "newMerkleRoot",
          "type": "bytes32"
        },
        {
          "internalType": "string",
          "name": "uri",
          "type": "string"
        },
        {
          "internalType": "uint256",
          "name": "newDistributionNumber",
          "type": "uint256"
        },
        {
          "internalType": "uint256",
          "name": "newTokenTotal",
          "type": "uint256"
        }
      ],
      "name": "updateMerkleRoot",
      "outputs": [
        {
          "internalType": "uint256",
          "name": "",
          "type": "uint256"
        }
      ],
      "stateMutability": "nonpayable",
      "type": "function"
    },
    {
      "inputs": [],
      "name": "updateThreshold",
      "outputs": [
        {
          "internalType": "uint256",
          "name": "",
          "type": "uint256"
        }
      ],
      "stateMutability": "view",
      "type": "function"
    }
  ],
  "transactionHash": "0x2278886e933eb1b4e3373b262f5048f19cfa2fb9df07dd46a9faabe756ef2801",
  "args": [
    "0x1559FA1b8F28238FD5D76D9f434ad86FD20D1559",
    "0xEF2A0Eb838fc44A8f354706E738F2FcCB3e09071",
    "1",
    [
      "0xEF2A0Eb838fc44A8f354706E738F2FcCB3e09071",
      "0x4d44ec5812DD35b5044DC28dA4DDFC82AAaB08B1"
    ],
    [
      "0xEF2A0Eb838fc44A8f354706E738F2FcCB3e09071",
      "0x4d44ec5812DD35b5044DC28dA4DDFC82AAaB08B1"
    ]
  ],
  "solcInputHash": "49103ba834e4a623d93347dc4b8248a5",
  "bytecode": "0x60a06040523480156200001157600080fd5b506040516200506c3803806200506c83398101604081905262000034916200062c565b604080518082018252601d81527f4564656e204e6574776f726b2053455620446973747269627574696f6e0000006020808301918252835180850190945260088452671151115394d1559160c21b9084015281519192916200009991600091620004c1565b508051620000af906001906020840190620004c1565b5050506001600160601b0319606086901b16608052600c546000908152601260205260408120805460ff191660011790555b82518110156200013d57620001286000805160206200504c83398151915284838151811062000114576200011462000743565b6020026020010151620001fa60201b60201c565b80620001348162000719565b915050620000e1565b506200014c60ff84166200023d565b60005b8151811015620001a857620001937f12b42e8a160f6064dc959c6f251e3af0750ad213dbecf573b4710d67d6c28e3983838151811062000114576200011462000743565b806200019f8162000719565b9150506200014f565b50620001b6600085620001fa565b60408051600080825260208201527f9ad874aacbaa905813a0a2c9812df59969335e5c0f5fbd99d98575597fbfad08910160405180910390a1505050505062000788565b6200021182826200036c60201b620022fa1760201c565b600082815260076020908152604090912062000238918390620023046200037c821b17901c565b505050565b80620002b65760405162461bcd60e51b815260206004820152603760248201527f4d65726b6c654469737472696275746f725345563a205570646174652074687260448201527f6573686f6c64206d757374206265206e6f6e2d7a65726f00000000000000000060648201526084015b60405180910390fd5b620002d06000805160206200504c8339815191526200039c565b811115620003345760405162461bcd60e51b815260206004820152602a60248201527f4d65726b6c654469737472696275746f725345563a207468726573686f6c64206044820152693e20757064617465727360b01b6064820152608401620002ad565b6040518181527f4a3f39b792c062592e6c20d41d18331563a8de4ba398cd40ef7c9afffd6234959060200160405180910390a1600e55565b620003788282620003c0565b5050565b600062000393836001600160a01b03841662000464565b90505b92915050565b60008181526007602090815260408220620003969162002326620004b6821b17901c565b60008281526006602090815260408083206001600160a01b038516845290915290205460ff16620003785760008281526006602090815260408083206001600160a01b03851684529091529020805460ff19166001179055620004203390565b6001600160a01b0316816001600160a01b0316837f2f8788117e7eff1d82e926ec794901d17c78024a50270940304540a733656f0d60405160405180910390a45050565b6000818152600183016020526040812054620004ad5750815460018181018455600084815260208082209093018490558454848252828601909352604090209190915562000396565b50600062000396565b600062000396825490565b828054620004cf90620006dc565b90600052602060002090601f016020900481019282620004f357600085556200053e565b82601f106200050e57805160ff19168380011785556200053e565b828001600101855582156200053e579182015b828111156200053e57825182559160200191906001019062000521565b506200054c92915062000550565b5090565b5b808211156200054c576000815560010162000551565b805162000574816200076f565b919050565b600082601f8301126200058b57600080fd5b815160206001600160401b0380831115620005aa57620005aa62000759565b8260051b604051601f19603f83011681018181108482111715620005d257620005d262000759565b60405284815283810192508684018288018501891015620005f257600080fd5b600092505b8583101562000620576200060b8162000567565b845292840192600192909201918401620005f7565b50979650505050505050565b600080600080600060a086880312156200064557600080fd5b855162000652816200076f565b602087015190955062000665816200076f565b604087015190945060ff811681146200067d57600080fd5b60608701519093506001600160401b03808211156200069b57600080fd5b620006a989838a0162000579565b93506080880151915080821115620006c057600080fd5b50620006cf8882890162000579565b9150509295509295909350565b600181811c90821680620006f157607f821691505b602082108114156200071357634e487b7160e01b600052602260045260246000fd5b50919050565b60006000198214156200073c57634e487b7160e01b600052601160045260246000fd5b5060010190565b634e487b7160e01b600052603260045260246000fd5b634e487b7160e01b600052604160045260246000fd5b6001600160a01b03811681146200078557600080fd5b50565b60805160601c614890620007bc6000396000818161069901528181610fac015281816116f50152611f3f01526148906000f3fe608060405234801561001057600080fd5b50600436106102d35760003560e01c806370a0823111610186578063c18d86c0116100e3578063d547741f11610097578063e7e7e38711610071578063e7e7e38714610642578063e985e9c51461064b578063fc0c546a1461069457600080fd5b8063d547741f14610609578063decbfda51461061c578063e1e92a671461062f57600080fd5b8063c87b56dd116100c8578063c87b56dd146105c0578063ca15c873146105d3578063cd170ce7146105e657600080fd5b8063c18d86c0146105a4578063c65c3d95146105b757600080fd5b8063a217fddf1161013a578063b1437e271161011f578063b1437e2714610580578063b69ef8a814610589578063b88d4fde1461059157600080fd5b8063a217fddf14610565578063a22cb4651461056d57600080fd5b806391d148541161016b57806391d148541461050e5780639407f5cb1461055457806395d89b411461055d57600080fd5b806370a08231146104e85780639010d07c146104fb57600080fd5b80632eb4a7ab1161023457806342842e0e116101e85780634f6ccce7116101cd5780634f6ccce71461049b5780635095af64146104ae5780636352211e146104d557600080fd5b806342842e0e1461046157806347e633801461047457600080fd5b80632f745c59116102195780632f745c591461042857806335dc395c1461043b57806336568abe1461044e57600080fd5b80632eb4a7ab1461040c5780632f2ff15d1461041557600080fd5b80630ec4c6011161028b57806323b872dd1161027057806323b872dd146103c3578063248a9ca3146103d65780632e7ba6ef146103f957600080fd5b80630ec4c6011461037557806318160ddd146103b157600080fd5b806306fdde03116102bc57806306fdde0314610315578063081812fc1461032a578063095ea7b31461036257600080fd5b806301ffc9a7146102d857806302fb4d8514610300575b600080fd5b6102eb6102e6366004614293565b6106bb565b60405190151581526020015b60405180910390f35b61031361030e3660046140a9565b6107af565b005b61031d6108d2565b6040516102f7919061454f565b61033d6103383660046141aa565b610964565b60405173ffffffffffffffffffffffffffffffffffffffff90911681526020016102f7565b6103136103703660046140a9565b610a3e565b61039c610383366004613f0a565b6011602052600090815260409020805460019091015482565b604080519283526020830191909152016102f7565b600a545b6040519081526020016102f7565b6103136103d1366004613f58565b610bcb565b6103b56103e43660046141aa565b60009081526006602052604090206001015490565b6103136104073660046142e6565b610c6c565b6103b5600c5481565b6103136104233660046141c3565b6110d3565b6103b56104363660046140a9565b6110f5565b6103136104493660046140d3565b6111c4565b61031361045c3660046141c3565b6112ed565b61031361046f366004613f58565b61130f565b6103b57f73e573f9566d61418a34d5de3ff49360f9c51fec37f7486551670290f6285dab81565b6103b56104a93660046141aa565b61132a565b6103b57f12b42e8a160f6064dc959c6f251e3af0750ad213dbecf573b4710d67d6c28e3981565b61033d6104e33660046141aa565b6113e8565b6103b56104f6366004613f0a565b61149a565b61033d610509366004614271565b611568565b6102eb61051c3660046141c3565b600091825260066020908152604080842073ffffffffffffffffffffffffffffffffffffffff93909316845291905290205460ff1690565b6103b5600e5481565b61031d611587565b6103b5600081565b61031361057b366004614072565b611596565b6103b5600f5481565b6103b56116ad565b61031361059f366004613f94565b611816565b6103136105b23660046140d3565b6118be565b6103b5600d5481565b61031d6105ce3660046141aa565b6119dd565b6103b56105e13660046141aa565b611b97565b6102eb6105f43660046141aa565b60126020526000908152604090205460ff1681565b6103136106173660046141c3565b611bae565b6103b561062a3660046141e6565b611bb8565b61031361063d3660046141aa565b612230565b6103b560105481565b6102eb610659366004613f25565b73ffffffffffffffffffffffffffffffffffffffff918216600090815260056020908152604080832093909416825291909152205460ff1690565b61033d7f000000000000000000000000000000000000000000000000000000000000000081565b60007fffffffff0000000000000000000000000000000000000000000000000000000082167f80ac58cd00000000000000000000000000000000000000000000000000000000148061074e57507fffffffff0000000000000000000000000000000000000000000000000000000082167f5b5e139f00000000000000000000000000000000000000000000000000000000145b8061079a57507fffffffff0000000000000000000000000000000000000000000000000000000082167f780e9d6300000000000000000000000000000000000000000000000000000000145b806107a957506107a982612330565b92915050565b3360009081527f1dfbce58931a94262c3b9c5acee9dafa864324624ff5446cf599e6b0e53aa0ac602052604090205460ff16610872576040517f08c379a000000000000000000000000000000000000000000000000000000000815260206004820152603360248201527f4d65726b6c654469737472696275746f725345563a2043616c6c6572206d757360448201527f74206861766520534c41534845525f524f4c450000000000000000000000000060648201526084015b60405180910390fd5b8173ffffffffffffffffffffffffffffffffffffffff167f4ed05e9673c26d2ed44f7ef6a7f2942df0ee3b5e1e17db4b99f9dcd261a339cd826040516108ba91815260200190565b60405180910390a26108ce82600083612386565b5050565b6060600080546108e190614692565b80601f016020809104026020016040519081016040528092919081815260200182805461090d90614692565b801561095a5780601f1061092f5761010080835404028352916020019161095a565b820191906000526020600020905b81548152906001019060200180831161093d57829003601f168201915b5050505050905090565b60008181526002602052604081205473ffffffffffffffffffffffffffffffffffffffff16610a15576040517f08c379a000000000000000000000000000000000000000000000000000000000815260206004820152602c60248201527f4552433732313a20617070726f76656420717565727920666f72206e6f6e657860448201527f697374656e7420746f6b656e00000000000000000000000000000000000000006064820152608401610869565b5060009081526004602052604090205473ffffffffffffffffffffffffffffffffffffffff1690565b6000610a49826113e8565b90508073ffffffffffffffffffffffffffffffffffffffff168373ffffffffffffffffffffffffffffffffffffffff161415610b07576040517f08c379a000000000000000000000000000000000000000000000000000000000815260206004820152602160248201527f4552433732313a20617070726f76616c20746f2063757272656e74206f776e6560448201527f72000000000000000000000000000000000000000000000000000000000000006064820152608401610869565b3373ffffffffffffffffffffffffffffffffffffffff82161480610b305750610b308133610659565b610bbc576040517f08c379a000000000000000000000000000000000000000000000000000000000815260206004820152603860248201527f4552433732313a20617070726f76652063616c6c6572206973206e6f74206f7760448201527f6e6572206e6f7220617070726f76656420666f7220616c6c00000000000000006064820152608401610869565b610bc68383612513565b505050565b610bd533826125b3565b610c61576040517f08c379a000000000000000000000000000000000000000000000000000000000815260206004820152603160248201527f4552433732313a207472616e736665722063616c6c6572206973206e6f74206f60448201527f776e6572206e6f7220617070726f7665640000000000000000000000000000006064820152608401610869565b610bc683838361271f565b3373ffffffffffffffffffffffffffffffffffffffff851614610d11576040517f08c379a000000000000000000000000000000000000000000000000000000000815260206004820152602c60248201527f4d65726b6c654469737472696275746f725345563a2043616e6e6f7420636f6c60448201527f6c656374207265776172647300000000000000000000000000000000000000006064820152608401610869565b60408051602081018790527fffffffffffffffffffffffffffffffffffffffff000000000000000000000000606087901b169181019190915260548101849052600090607401604051602081830303815290604052805190602001209050610db083838080602002602001604051908101604052809392919081815260200183836020028082843760009201919091525050600c549150849050612991565b610e3c576040517f08c379a000000000000000000000000000000000000000000000000000000000815260206004820152602360248201527f4d65726b6c654469737472696275746f725345563a20496e76616c696420707260448201527f6f6f6600000000000000000000000000000000000000000000000000000000006064820152608401610869565b73ffffffffffffffffffffffffffffffffffffffff8516600090815260116020526040812060018101549054610e7291906145b1565b9050808511610f03576040517f08c379a000000000000000000000000000000000000000000000000000000000815260206004820152602760248201527f4d65726b6c654469737472696275746f725345563a204e6f7468696e6720636c60448201527f61696d61626c65000000000000000000000000000000000000000000000000006064820152608401610869565b6000610f0f828761461a565b604080518a81526020810189905290810182905290915073ffffffffffffffffffffffffffffffffffffffff8816907fb94bf7f9302edf52a596286915a69b4b0685574cffdedd0712e3c62f2550f0ba9060600160405180910390a2610f7787826000612386565b6040517fa9059cbb000000000000000000000000000000000000000000000000000000008152336004820152602481018290527f000000000000000000000000000000000000000000000000000000000000000073ffffffffffffffffffffffffffffffffffffffff169063a9059cbb90604401602060405180830381600087803b15801561100557600080fd5b505af1158015611019573d6000803e3d6000fd5b505050506040513d601f19601f8201168201806040525081019061103d919061418d565b6110c9576040517f08c379a000000000000000000000000000000000000000000000000000000000815260206004820152602560248201527f4d65726b6c654469737472696275746f725345563a205472616e73666572206660448201527f61696c65640000000000000000000000000000000000000000000000000000006064820152608401610869565b5050505050505050565b6110dd8282612a40565b6000828152600760205260409020610bc69082612304565b60006111008361149a565b821061118e576040517f08c379a000000000000000000000000000000000000000000000000000000000815260206004820152602b60248201527f455243373231456e756d657261626c653a206f776e657220696e646578206f7560448201527f74206f6620626f756e64730000000000000000000000000000000000000000006064820152608401610869565b5073ffffffffffffffffffffffffffffffffffffffff919091166000908152600860209081526040808320938352929052205490565b3360009081527f54cdd369e4e8a8515e52ca72ec816c2101831ad1f18bf44102ed171459c9b4f8602052604090205460ff16611282576040517f08c379a000000000000000000000000000000000000000000000000000000000815260206004820152603960248201527f4d65726b6c654469737472696275746f725345563a2043616c6c6572206d757360448201527f7420686176652044454641554c545f41444d494e5f524f4c45000000000000006064820152608401610869565b60005b82518110156112e3576112d17f73e573f9566d61418a34d5de3ff49360f9c51fec37f7486551670290f6285dab8483815181106112c4576112c46147c0565b6020026020010151612a66565b806112db816146e6565b915050611285565b506108ce81612b21565b6112f78282612c9e565b6000828152600760205260409020610bc69082612d4d565b610bc683838360405180602001604052806000815250611816565b6000611335600a5490565b82106113c3576040517f08c379a000000000000000000000000000000000000000000000000000000000815260206004820152602c60248201527f455243373231456e756d657261626c653a20676c6f62616c20696e646578206f60448201527f7574206f6620626f756e647300000000000000000000000000000000000000006064820152608401610869565b600a82815481106113d6576113d66147c0565b90600052602060002001549050919050565b60008181526002602052604081205473ffffffffffffffffffffffffffffffffffffffff16806107a9576040517f08c379a000000000000000000000000000000000000000000000000000000000815260206004820152602960248201527f4552433732313a206f776e657220717565727920666f72206e6f6e657869737460448201527f656e7420746f6b656e00000000000000000000000000000000000000000000006064820152608401610869565b600073ffffffffffffffffffffffffffffffffffffffff821661153f576040517f08c379a000000000000000000000000000000000000000000000000000000000815260206004820152602a60248201527f4552433732313a2062616c616e636520717565727920666f7220746865207a6560448201527f726f2061646472657373000000000000000000000000000000000000000000006064820152608401610869565b5073ffffffffffffffffffffffffffffffffffffffff1660009081526003602052604090205490565b60008281526007602052604081206115809083612d6f565b9392505050565b6060600180546108e190614692565b73ffffffffffffffffffffffffffffffffffffffff8216331415611616576040517f08c379a000000000000000000000000000000000000000000000000000000000815260206004820152601960248201527f4552433732313a20617070726f766520746f2063616c6c6572000000000000006044820152606401610869565b33600081815260056020908152604080832073ffffffffffffffffffffffffffffffffffffffff87168085529083529281902080547fffffffffffffffffffffffffffffffffffffffffffffffffffffffffffffff001686151590811790915590519081529192917f17307eab39ab6107e8899845ad3d59bd9653f200f220920489ca2b5937696c31910160405180910390a35050565b6040517f70a08231000000000000000000000000000000000000000000000000000000008152306004820152600090819073ffffffffffffffffffffffffffffffffffffffff7f000000000000000000000000000000000000000000000000000000000000000016906370a082319060240160206040518083038186803b15801561173757600080fd5b505afa15801561174b573d6000803e3d6000fd5b505050506040513d601f19601f8201168201806040525081019061176f91906142cd565b9050601054811015611803576040517f08c379a000000000000000000000000000000000000000000000000000000000815260206004820152602160248201527f4d65726b6c654469737472696275746f725345563a20556e64657266756e646560448201527f64000000000000000000000000000000000000000000000000000000000000006064820152608401610869565b601054611810908261461a565b91505090565b61182033836125b3565b6118ac576040517f08c379a000000000000000000000000000000000000000000000000000000000815260206004820152603160248201527f4552433732313a207472616e736665722063616c6c6572206973206e6f74206f60448201527f776e6572206e6f7220617070726f7665640000000000000000000000000000006064820152608401610869565b6118b884848484612d7b565b50505050565b3360009081527f54cdd369e4e8a8515e52ca72ec816c2101831ad1f18bf44102ed171459c9b4f8602052604090205460ff1661197c576040517f08c379a000000000000000000000000000000000000000000000000000000000815260206004820152603960248201527f4d65726b6c654469737472696275746f725345563a2043616c6c6572206d757360448201527f7420686176652044454641554c545f41444d494e5f524f4c45000000000000006064820152608401610869565b60005b82518110156112e3576119cb7f73e573f9566d61418a34d5de3ff49360f9c51fec37f7486551670290f6285dab8483815181106119be576119be6147c0565b6020026020010151612e1e565b806119d5816146e6565b91505061197f565b60008181526002602052604090205460609073ffffffffffffffffffffffffffffffffffffffff16611a91576040517f08c379a000000000000000000000000000000000000000000000000000000000815260206004820152603160248201527f45524337323155524953746f726167653a2055524920717565727920666f722060448201527f6e6f6e6578697374656e7420746f6b656e0000000000000000000000000000006064820152608401610869565b60008281526013602052604081208054611aaa90614692565b80601f0160208091040260200160405190810160405280929190818152602001828054611ad690614692565b8015611b235780601f10611af857610100808354040283529160200191611b23565b820191906000526020600020905b815481529060010190602001808311611b0657829003601f168201915b505050505090506000611b4160408051602081019091526000815290565b9050805160001415611b54575092915050565b815115611b86578082604051602001611b6e929190614410565b60405160208183030381529060405292505050919050565b611b8f84612e28565b949350505050565b60008181526007602052604081206107a990612326565b6112f78282612f44565b3360009081527f72e6a9b491581b344add3f7be10265867e64fdd874e84e97031c08ad09aea58c602052604081205460ff16611c76576040517f08c379a000000000000000000000000000000000000000000000000000000000815260206004820152603360248201527f4d65726b6c654469737472696275746f725345563a2043616c6c6572206d757360448201527f74206861766520555044415445525f524f4c45000000000000000000000000006064820152608401610869565b60008681526012602052604090205460ff1615611d15576040517f08c379a000000000000000000000000000000000000000000000000000000000815260206004820152603d60248201527f4d65726b6c654469737472696275746f725345563a2043616e6e6f742075706460448201527f61746520746f20612070726576696f7573206d65726b6c6520726f6f740000006064820152608401610869565b6000600d546001611d2691906145b1565b9050838114611db7576040517f08c379a000000000000000000000000000000000000000000000000000000000815260206004820152603760248201527f4d65726b6c654469737472696275746f725345563a2043616e206f6e6c79207560448201527f7064617465206e65787420646973747269627574696f6e0000000000000000006064820152608401610869565b33600090815260156020908152604080832084845290915290205415611e5f576040517f08c379a000000000000000000000000000000000000000000000000000000000815260206004820152603860248201527f4d65726b6c654469737472696275746f725345563a205570646174657220616c60448201527f7265616479207375626d6974746564206e657720726f6f7400000000000000006064820152608401610869565b600f54831015611ef1576040517f08c379a000000000000000000000000000000000000000000000000000000000815260206004820152603260248201527f4d65726b6c654469737472696275746f725345563a20546f74616c20746f6b6560448201527f6e732063616e6e6f7420646563726561736500000000000000000000000000006064820152608401610869565b6000600f5484611f01919061461a565b905080601054611f1191906145b1565b6040517f70a082310000000000000000000000000000000000000000000000000000000081523060048201527f000000000000000000000000000000000000000000000000000000000000000073ffffffffffffffffffffffffffffffffffffffff16906370a082319060240160206040518083038186803b158015611f9657600080fd5b505afa158015611faa573d6000803e3d6000fd5b505050506040513d601f19601f82011682018060405250810190611fce91906142cd565b1015612082576040517f08c379a000000000000000000000000000000000000000000000000000000000815260206004820152604360248201527f4d65726b6c654469737472696275746f725345563a204469737472696275746960448201527f6f6e20776f756c64206c6561766520636f6e747261637420756e64657266756e60648201527f6465640000000000000000000000000000000000000000000000000000000000608482015260a401610869565b33600090815260156020908152604080832085845282528083208b90558a835260149091528120546120b59060016145b1565b60008a8152601460205260409020819055600e5490915081141561221e57600c899055600089815260126020908152604080832080547fffffffffffffffffffffffffffffffffffffffffffffffffffffffffffffff00166001179055600d8690558583526013909152902061212c908989613e2a565b50600f85905560108054908390600061214583856145b1565b9091555061215590503385612f6a565b837fa109ba539900bf1b633f956d63c96fc89b814c7287f7aa50a9216d0b556572078a8a60405161218792919061453b565b60405180910390a27f57d8ecbe7b76b58585d8a965c3b1f5d9ea66801b41232f59f154f9b2873277be8a858b8b8a6040516121c6959493929190614509565b60405180910390a17f9ad874aacbaa905813a0a2c9812df59969335e5c0f5fbd99d98575597fbfad08816121fa85826145b1565b6040805192835260208301919091520160405180910390a183945050505050612227565b600d5493505050505b95945050505050565b3360009081527f54cdd369e4e8a8515e52ca72ec816c2101831ad1f18bf44102ed171459c9b4f8602052604090205460ff166122ee576040517f08c379a000000000000000000000000000000000000000000000000000000000815260206004820152603960248201527f4d65726b6c654469737472696275746f725345563a2043616c6c6572206d757360448201527f7420686176652044454641554c545f41444d494e5f524f4c45000000000000006064820152608401610869565b6122f781612b21565b50565b6108ce8282613138565b60006115808373ffffffffffffffffffffffffffffffffffffffff841661322c565b60006107a9825490565b60007fffffffff0000000000000000000000000000000000000000000000000000000082167f780e9d630000000000000000000000000000000000000000000000000000000014806107a957506107a98261327b565b60105482156123e35773ffffffffffffffffffffffffffffffffffffffff8416600090815260116020526040812080548592906123c49084906145b1565b9250508190555082601060008282546123dd919061461a565b90915550505b81156124405773ffffffffffffffffffffffffffffffffffffffff8416600090815260116020526040812060010180548492906124219084906145b1565b92505081905550816010600082825461243a919061461a565b90915550505b8215158061244d57508115155b156118b85773ffffffffffffffffffffffffffffffffffffffff841660008181526011602052604090819020805460019091015491517f4510314558259843825372fc84b1ae19cb70b8c44805daf4808354e78a05cf6b926124b6928252602082015260400190565b60405180910390a27f9ad874aacbaa905813a0a2c9812df59969335e5c0f5fbd99d98575597fbfad0881836124eb868361461a565b6124f5919061461a565b6040805192835260208301919091520160405180910390a150505050565b600081815260046020526040902080547fffffffffffffffffffffffff00000000000000000000000000000000000000001673ffffffffffffffffffffffffffffffffffffffff8416908117909155819061256d826113e8565b73ffffffffffffffffffffffffffffffffffffffff167f8c5be1e5ebec7d5bd14f71427d1e84f3dd0314c0f7b2291e5b200ac8c7c3b92560405160405180910390a45050565b60008181526002602052604081205473ffffffffffffffffffffffffffffffffffffffff16612664576040517f08c379a000000000000000000000000000000000000000000000000000000000815260206004820152602c60248201527f4552433732313a206f70657261746f7220717565727920666f72206e6f6e657860448201527f697374656e7420746f6b656e00000000000000000000000000000000000000006064820152608401610869565b600061266f836113e8565b90508073ffffffffffffffffffffffffffffffffffffffff168473ffffffffffffffffffffffffffffffffffffffff1614806126de57508373ffffffffffffffffffffffffffffffffffffffff166126c684610964565b73ffffffffffffffffffffffffffffffffffffffff16145b80611b8f575073ffffffffffffffffffffffffffffffffffffffff80821660009081526005602090815260408083209388168352929052205460ff16611b8f565b8273ffffffffffffffffffffffffffffffffffffffff1661273f826113e8565b73ffffffffffffffffffffffffffffffffffffffff16146127e2576040517f08c379a000000000000000000000000000000000000000000000000000000000815260206004820152602960248201527f4552433732313a207472616e73666572206f6620746f6b656e2074686174206960448201527f73206e6f74206f776e00000000000000000000000000000000000000000000006064820152608401610869565b73ffffffffffffffffffffffffffffffffffffffff8216612884576040517f08c379a0000000000000000000000000000000000000000000000000000000008152602060048201526024808201527f4552433732313a207472616e7366657220746f20746865207a65726f2061646460448201527f72657373000000000000000000000000000000000000000000000000000000006064820152608401610869565b61288f8383836132d1565b61289a600082612513565b73ffffffffffffffffffffffffffffffffffffffff831660009081526003602052604081208054600192906128d090849061461a565b909155505073ffffffffffffffffffffffffffffffffffffffff8216600090815260036020526040812080546001929061290b9084906145b1565b909155505060008181526002602052604080822080547fffffffffffffffffffffffff00000000000000000000000000000000000000001673ffffffffffffffffffffffffffffffffffffffff86811691821790925591518493918716917fddf252ad1be2c89b69c2b068fc378daa952ba7f163c4a11628f55a4df523b3ef91a4505050565b600081815b8551811015612a355760008682815181106129b3576129b36147c0565b602002602001015190508083116129f5576040805160208101859052908101829052606001604051602081830303815290604052805190602001209250612a22565b60408051602081018390529081018490526060016040516020818303038152906040528051906020012092505b5080612a2d816146e6565b915050612996565b509092149392505050565b600082815260066020526040902060010154612a5c81336133d7565b610bc68383613138565b600082815260066020908152604080832073ffffffffffffffffffffffffffffffffffffffff8516845290915290205460ff16156108ce57600082815260066020908152604080832073ffffffffffffffffffffffffffffffffffffffff8516808552925280832080547fffffffffffffffffffffffffffffffffffffffffffffffffffffffffffffff0016905551339285917ff6391f5c32d9c69d2a47ea670b442974b53935d1edc7fd64eb21e047a839171b9190a45050565b80612bae576040517f08c379a000000000000000000000000000000000000000000000000000000000815260206004820152603760248201527f4d65726b6c654469737472696275746f725345563a205570646174652074687260448201527f6573686f6c64206d757374206265206e6f6e2d7a65726f0000000000000000006064820152608401610869565b612bd77f73e573f9566d61418a34d5de3ff49360f9c51fec37f7486551670290f6285dab611b97565b811115612c66576040517f08c379a000000000000000000000000000000000000000000000000000000000815260206004820152602a60248201527f4d65726b6c654469737472696275746f725345563a207468726573686f6c642060448201527f3e207570646174657273000000000000000000000000000000000000000000006064820152608401610869565b6040518181527f4a3f39b792c062592e6c20d41d18331563a8de4ba398cd40ef7c9afffd6234959060200160405180910390a1600e55565b73ffffffffffffffffffffffffffffffffffffffff81163314612d43576040517f08c379a000000000000000000000000000000000000000000000000000000000815260206004820152602f60248201527f416363657373436f6e74726f6c3a2063616e206f6e6c792072656e6f756e636560448201527f20726f6c657320666f722073656c6600000000000000000000000000000000006064820152608401610869565b6108ce8282612a66565b60006115808373ffffffffffffffffffffffffffffffffffffffff84166134a9565b6000611580838361359c565b612d8684848461271f565b612d92848484846135c6565b6118b8576040517f08c379a000000000000000000000000000000000000000000000000000000000815260206004820152603260248201527f4552433732313a207472616e7366657220746f206e6f6e20455243373231526560448201527f63656976657220696d706c656d656e74657200000000000000000000000000006064820152608401610869565b6110dd82826122fa565b60008181526002602052604090205460609073ffffffffffffffffffffffffffffffffffffffff16612edc576040517f08c379a000000000000000000000000000000000000000000000000000000000815260206004820152602f60248201527f4552433732314d657461646174613a2055524920717565727920666f72206e6f60448201527f6e6578697374656e7420746f6b656e00000000000000000000000000000000006064820152608401610869565b6000612ef360408051602081019091526000815290565b90506000815111612f135760405180602001604052806000815250611580565b80612f1d846137c5565b604051602001612f2e929190614410565b6040516020818303038152906040529392505050565b600082815260066020526040902060010154612f6081336133d7565b610bc68383612a66565b73ffffffffffffffffffffffffffffffffffffffff8216612fe7576040517f08c379a000000000000000000000000000000000000000000000000000000000815260206004820181905260248201527f4552433732313a206d696e7420746f20746865207a65726f20616464726573736044820152606401610869565b60008181526002602052604090205473ffffffffffffffffffffffffffffffffffffffff1615613073576040517f08c379a000000000000000000000000000000000000000000000000000000000815260206004820152601c60248201527f4552433732313a20746f6b656e20616c7265616479206d696e746564000000006044820152606401610869565b61307f600083836132d1565b73ffffffffffffffffffffffffffffffffffffffff821660009081526003602052604081208054600192906130b59084906145b1565b909155505060008181526002602052604080822080547fffffffffffffffffffffffff00000000000000000000000000000000000000001673ffffffffffffffffffffffffffffffffffffffff861690811790915590518392907fddf252ad1be2c89b69c2b068fc378daa952ba7f163c4a11628f55a4df523b3ef908290a45050565b600082815260066020908152604080832073ffffffffffffffffffffffffffffffffffffffff8516845290915290205460ff166108ce57600082815260066020908152604080832073ffffffffffffffffffffffffffffffffffffffff85168452909152902080547fffffffffffffffffffffffffffffffffffffffffffffffffffffffffffffff001660011790556131ce3390565b73ffffffffffffffffffffffffffffffffffffffff168173ffffffffffffffffffffffffffffffffffffffff16837f2f8788117e7eff1d82e926ec794901d17c78024a50270940304540a733656f0d60405160405180910390a45050565b6000818152600183016020526040812054613273575081546001818101845560008481526020808220909301849055845484825282860190935260409020919091556107a9565b5060006107a9565b60007fffffffff0000000000000000000000000000000000000000000000000000000082167f5a05180f0000000000000000000000000000000000000000000000000000000014806107a957506107a9826138f7565b73ffffffffffffffffffffffffffffffffffffffff83166133395761333481600a80546000838152600b60205260408120829055600182018355919091527fc65a7bb8d6351c1cf70c95a316cc6a92839c986682d98bc35f958f4883f9d2a80155565b613376565b8173ffffffffffffffffffffffffffffffffffffffff168373ffffffffffffffffffffffffffffffffffffffff161461337657613376838261394d565b73ffffffffffffffffffffffffffffffffffffffff821661339a57610bc681613a04565b8273ffffffffffffffffffffffffffffffffffffffff168273ffffffffffffffffffffffffffffffffffffffff1614610bc657610bc68282613ab3565b600082815260066020908152604080832073ffffffffffffffffffffffffffffffffffffffff8516845290915290205460ff166108ce5761342f8173ffffffffffffffffffffffffffffffffffffffff166014613b04565b61343a836020613b04565b60405160200161344b92919061443f565b604080517fffffffffffffffffffffffffffffffffffffffffffffffffffffffffffffffe0818403018152908290527f08c379a00000000000000000000000000000000000000000000000000000000082526108699160040161454f565b600081815260018301602052604081205480156135925760006134cd60018361461a565b85549091506000906134e19060019061461a565b9050818114613546576000866000018281548110613501576135016147c0565b9060005260206000200154905080876000018481548110613524576135246147c0565b6000918252602080832090910192909255918252600188019052604090208390555b855486908061355757613557614791565b6001900381819060005260206000200160009055905585600101600086815260200190815260200160002060009055600193505050506107a9565b60009150506107a9565b60008260000182815481106135b3576135b36147c0565b9060005260206000200154905092915050565b600073ffffffffffffffffffffffffffffffffffffffff84163b156137ba576040517f150b7a0200000000000000000000000000000000000000000000000000000000815273ffffffffffffffffffffffffffffffffffffffff85169063150b7a029061363d9033908990889088906004016144c0565b602060405180830381600087803b15801561365757600080fd5b505af19250505080156136a5575060408051601f3d9081017fffffffffffffffffffffffffffffffffffffffffffffffffffffffffffffffe01682019092526136a2918101906142b0565b60015b61376f573d8080156136d3576040519150601f19603f3d011682016040523d82523d6000602084013e6136d8565b606091505b508051613767576040517f08c379a000000000000000000000000000000000000000000000000000000000815260206004820152603260248201527f4552433732313a207472616e7366657220746f206e6f6e20455243373231526560448201527f63656976657220696d706c656d656e74657200000000000000000000000000006064820152608401610869565b805181602001fd5b7fffffffff00000000000000000000000000000000000000000000000000000000167f150b7a0200000000000000000000000000000000000000000000000000000000149050611b8f565b506001949350505050565b60608161380557505060408051808201909152600181527f3000000000000000000000000000000000000000000000000000000000000000602082015290565b8160005b811561382f5780613819816146e6565b91506138289050600a836145c9565b9150613809565b60008167ffffffffffffffff81111561384a5761384a6147ef565b6040519080825280601f01601f191660200182016040528015613874576020820181803683370190505b5090505b8415611b8f5761388960018361461a565b9150613896600a8661471f565b6138a19060306145b1565b60f81b8183815181106138b6576138b66147c0565b60200101907effffffffffffffffffffffffffffffffffffffffffffffffffffffffffffff1916908160001a9053506138f0600a866145c9565b9450613878565b60007fffffffff0000000000000000000000000000000000000000000000000000000082167f7965db0b0000000000000000000000000000000000000000000000000000000014806107a957506107a982613d47565b6000600161395a8461149a565b613964919061461a565b6000838152600960205260409020549091508082146139c45773ffffffffffffffffffffffffffffffffffffffff841660009081526008602090815260408083208584528252808320548484528184208190558352600990915290208190555b50600091825260096020908152604080842084905573ffffffffffffffffffffffffffffffffffffffff9094168352600881528383209183525290812055565b600a54600090613a169060019061461a565b6000838152600b6020526040812054600a8054939450909284908110613a3e57613a3e6147c0565b9060005260206000200154905080600a8381548110613a5f57613a5f6147c0565b6000918252602080832090910192909255828152600b9091526040808220849055858252812055600a805480613a9757613a97614791565b6001900381819060005260206000200160009055905550505050565b6000613abe8361149a565b73ffffffffffffffffffffffffffffffffffffffff9093166000908152600860209081526040808320868452825280832085905593825260099052919091209190915550565b60606000613b138360026145dd565b613b1e9060026145b1565b67ffffffffffffffff811115613b3657613b366147ef565b6040519080825280601f01601f191660200182016040528015613b60576020820181803683370190505b5090507f300000000000000000000000000000000000000000000000000000000000000081600081518110613b9757613b976147c0565b60200101907effffffffffffffffffffffffffffffffffffffffffffffffffffffffffffff1916908160001a9053507f780000000000000000000000000000000000000000000000000000000000000081600181518110613bfa57613bfa6147c0565b60200101907effffffffffffffffffffffffffffffffffffffffffffffffffffffffffffff1916908160001a9053506000613c368460026145dd565b613c419060016145b1565b90505b6001811115613cde577f303132333435363738396162636465660000000000000000000000000000000085600f1660108110613c8257613c826147c0565b1a60f81b828281518110613c9857613c986147c0565b60200101907effffffffffffffffffffffffffffffffffffffffffffffffffffffffffffff1916908160001a90535060049490941c93613cd78161465d565b9050613c44565b508315611580576040517f08c379a000000000000000000000000000000000000000000000000000000000815260206004820181905260248201527f537472696e67733a20686578206c656e67746820696e73756666696369656e746044820152606401610869565b60007fffffffff0000000000000000000000000000000000000000000000000000000082167f80ac58cd000000000000000000000000000000000000000000000000000000001480613dda57507fffffffff0000000000000000000000000000000000000000000000000000000082167f5b5e139f00000000000000000000000000000000000000000000000000000000145b806107a957507f01ffc9a7000000000000000000000000000000000000000000000000000000007fffffffff000000000000000000000000000000000000000000000000000000008316146107a9565b828054613e3690614692565b90600052602060002090601f016020900481019282613e585760008555613ebc565b82601f10613e8f578280017fffffffffffffffffffffffffffffffffffffffffffffffffffffffffffffff00823516178555613ebc565b82800160010185558215613ebc579182015b82811115613ebc578235825591602001919060010190613ea1565b50613ec8929150613ecc565b5090565b5b80821115613ec85760008155600101613ecd565b803573ffffffffffffffffffffffffffffffffffffffff81168114613f0557600080fd5b919050565b600060208284031215613f1c57600080fd5b61158082613ee1565b60008060408385031215613f3857600080fd5b613f4183613ee1565b9150613f4f60208401613ee1565b90509250929050565b600080600060608486031215613f6d57600080fd5b613f7684613ee1565b9250613f8460208501613ee1565b9150604084013590509250925092565b60008060008060808587031215613faa57600080fd5b613fb385613ee1565b93506020613fc2818701613ee1565b935060408601359250606086013567ffffffffffffffff80821115613fe657600080fd5b818801915088601f830112613ffa57600080fd5b81358181111561400c5761400c6147ef565b61403c847fffffffffffffffffffffffffffffffffffffffffffffffffffffffffffffffe0601f84011601614562565b9150808252898482850101111561405257600080fd5b808484018584013760008482840101525080935050505092959194509250565b6000806040838503121561408557600080fd5b61408e83613ee1565b9150602083013561409e8161481e565b809150509250929050565b600080604083850312156140bc57600080fd5b6140c583613ee1565b946020939093013593505050565b600080604083850312156140e657600080fd5b823567ffffffffffffffff808211156140fe57600080fd5b818501915085601f83011261411257600080fd5b8135602082821115614126576141266147ef565b8160051b9250614137818401614562565b8281528181019085830185870184018b101561415257600080fd5b600096505b8487101561417c5761416881613ee1565b835260019690960195918301918301614157565b509997909101359750505050505050565b60006020828403121561419f57600080fd5b81516115808161481e565b6000602082840312156141bc57600080fd5b5035919050565b600080604083850312156141d657600080fd5b82359150613f4f60208401613ee1565b6000806000806000608086880312156141fe57600080fd5b85359450602086013567ffffffffffffffff8082111561421d57600080fd5b818801915088601f83011261423157600080fd5b81358181111561424057600080fd5b89602082850101111561425257600080fd5b9699602092909201985095966040810135965060600135945092505050565b6000806040838503121561428457600080fd5b50508035926020909101359150565b6000602082840312156142a557600080fd5b81356115808161482c565b6000602082840312156142c257600080fd5b81516115808161482c565b6000602082840312156142df57600080fd5b5051919050565b6000806000806000608086880312156142fe57600080fd5b8535945061430e60208701613ee1565b935060408601359250606086013567ffffffffffffffff8082111561433257600080fd5b818801915088601f83011261434657600080fd5b81358181111561435557600080fd5b8960208260051b850101111561436a57600080fd5b9699959850939650602001949392505050565b60008151808452614395816020860160208601614631565b601f017fffffffffffffffffffffffffffffffffffffffffffffffffffffffffffffffe0169290920160200192915050565b8183528181602085013750600060208284010152600060207fffffffffffffffffffffffffffffffffffffffffffffffffffffffffffffffe0601f840116840101905092915050565b60008351614422818460208801614631565b835190830190614436818360208801614631565b01949350505050565b7f416363657373436f6e74726f6c3a206163636f756e7420000000000000000000815260008351614477816017850160208801614631565b7f206973206d697373696e6720726f6c652000000000000000000000000000000060179184019182015283516144b4816028840160208801614631565b01602801949350505050565b600073ffffffffffffffffffffffffffffffffffffffff8087168352808616602084015250836040830152608060608301526144ff608083018461437d565b9695505050505050565b8581528460208201526080604082015260006145296080830185876143c7565b90508260608301529695505050505050565b602081526000611b8f6020830184866143c7565b602081526000611580602083018461437d565b604051601f82017fffffffffffffffffffffffffffffffffffffffffffffffffffffffffffffffe016810167ffffffffffffffff811182821017156145a9576145a96147ef565b604052919050565b600082198211156145c4576145c4614733565b500190565b6000826145d8576145d8614762565b500490565b6000817fffffffffffffffffffffffffffffffffffffffffffffffffffffffffffffffff048311821515161561461557614615614733565b500290565b60008282101561462c5761462c614733565b500390565b60005b8381101561464c578181015183820152602001614634565b838111156118b85750506000910152565b60008161466c5761466c614733565b507fffffffffffffffffffffffffffffffffffffffffffffffffffffffffffffffff0190565b600181811c908216806146a657607f821691505b602082108114156146e0577f4e487b7100000000000000000000000000000000000000000000000000000000600052602260045260246000fd5b50919050565b60007fffffffffffffffffffffffffffffffffffffffffffffffffffffffffffffffff82141561471857614718614733565b5060010190565b60008261472e5761472e614762565b500690565b7f4e487b7100000000000000000000000000000000000000000000000000000000600052601160045260246000fd5b7f4e487b7100000000000000000000000000000000000000000000000000000000600052601260045260246000fd5b7f4e487b7100000000000000000000000000000000000000000000000000000000600052603160045260246000fd5b7f4e487b7100000000000000000000000000000000000000000000000000000000600052603260045260246000fd5b7f4e487b7100000000000000000000000000000000000000000000000000000000600052604160045260246000fd5b80151581146122f757600080fd5b7fffffffff00000000000000000000000000000000000000000000000000000000811681146122f757600080fdfea264697066735822122075a6cc15a03b2087e8fac85d355a0dad39147de056f72394a448384df105b76564736f6c6343000806003373e573f9566d61418a34d5de3ff49360f9c51fec37f7486551670290f6285dab",
  "devdoc": {
    "details": "Distributes staker extractable value to stakers in the network. NFT serves as proof of distribution. This is a modified version of the MerkleDistributor contract where the balance of tokens is forward-funded rather than minted.",
    "kind": "dev",
    "methods": {
      "addUpdaters(address[],uint256)": {
        "details": "The caller must have the `DEFAULT_ADMIN_ROLE`",
        "params": {
          "newThreshold": "New threshold",
          "newUpdaters": "New updater addresses"
        }
      },
      "approve(address,uint256)": {
        "details": "See {IERC721-approve}."
      },
      "balanceOf(address)": {
        "details": "See {IERC721-balanceOf}."
      },
      "claim(uint256,address,uint256,bytes32[])": {
        "details": "Given a merkle proof of (index, account, totalEarned), claim all unclaimed tokens. Unclaimed tokens are the difference between the total earned tokens (provided in the merkle tree) and those that have been either claimed or slashed. If no tokens are claimable, this function will revert. ",
        "params": {
          "account": "Account for claim",
          "index": "Claim index",
          "merkleProof": "Merkle proof",
          "totalEarned": "Total lifetime amount of tokens earned by account"
        }
      },
      "constructor": {
        "params": {
          "_admin": "Admin address",
          "_slashers": "Initial slashers",
          "_token": "Token address",
          "_updateThreshold": "Number of updaters required to update",
          "_updaters": "Initial updaters"
        }
      },
      "getApproved(uint256)": {
        "details": "See {IERC721-getApproved}."
      },
      "getRoleAdmin(bytes32)": {
        "details": "Returns the admin role that controls `role`. See {grantRole} and {revokeRole}. To change a role's admin, use {_setRoleAdmin}."
      },
      "getRoleMember(bytes32,uint256)": {
        "details": "Returns one of the accounts that have `role`. `index` must be a value between 0 and {getRoleMemberCount}, non-inclusive. Role bearers are not sorted in any particular way, and their ordering may change at any point. WARNING: When using {getRoleMember} and {getRoleMemberCount}, make sure you perform all queries on the same block. See the following https://forum.openzeppelin.com/t/iterating-over-elements-on-enumerableset-in-openzeppelin-contracts/2296[forum post] for more information."
      },
      "getRoleMemberCount(bytes32)": {
        "details": "Returns the number of accounts that have `role`. Can be used together with {getRoleMember} to enumerate all bearers of a role."
      },
      "grantRole(bytes32,address)": {
        "details": "Overload {grantRole} to track enumerable memberships"
      },
      "hasRole(bytes32,address)": {
        "details": "Returns `true` if `account` has been granted `role`."
      },
      "isApprovedForAll(address,address)": {
        "details": "See {IERC721-isApprovedForAll}."
      },
      "name()": {
        "details": "See {IERC721Metadata-name}."
      },
      "ownerOf(uint256)": {
        "details": "See {IERC721-ownerOf}."
      },
      "removeUpdaters(address[],uint256)": {
        "details": "The caller must have the `DEFAULT_ADMIN_ROLE`",
        "params": {
          "existingUpdaters": "Existing updater addresses",
          "newThreshold": "New threshold"
        }
      },
      "renounceRole(bytes32,address)": {
        "details": "Overload {renounceRole} to track enumerable memberships"
      },
      "revokeRole(bytes32,address)": {
        "details": "Overload {revokeRole} to track enumerable memberships"
      },
      "safeTransferFrom(address,address,uint256)": {
        "details": "See {IERC721-safeTransferFrom}."
      },
      "safeTransferFrom(address,address,uint256,bytes)": {
        "details": "See {IERC721-safeTransferFrom}."
      },
      "setApprovalForAll(address,bool)": {
        "details": "See {IERC721-setApprovalForAll}."
      },
      "setUpdateThreshold(uint256)": {
        "details": "The caller must have the `DEFAULT_ADMIN_ROLE`",
        "params": {
          "to": "New threshold"
        }
      },
      "slash(address,uint256)": {
        "details": "The caller must have `SLASHERS_ROLE`.",
        "params": {
          "account": "Account to slash",
          "amount": "Amount to slash"
        }
      },
      "supportsInterface(bytes4)": {
        "details": "See the corresponding https://eips.ethereum.org/EIPS/eip-165#how-interfaces-are-identified[EIP section] to learn more about how these ids are created. This function call must use less than 30 000 gas.",
        "params": {
          "interfaceId": "ID of interface"
        }
      },
      "symbol()": {
        "details": "See {IERC721Metadata-symbol}."
      },
      "tokenByIndex(uint256)": {
        "details": "See {IERC721Enumerable-tokenByIndex}."
      },
      "tokenOfOwnerByIndex(address,uint256)": {
        "details": "See {IERC721Enumerable-tokenOfOwnerByIndex}."
      },
      "tokenURI(uint256)": {
        "params": {
          "tokenId": "ID of token"
        }
      },
      "totalSupply()": {
        "details": "See {IERC721Enumerable-totalSupply}."
      },
      "transferFrom(address,address,uint256)": {
        "details": "See {IERC721-transferFrom}."
      },
      "updateMerkleRoot(bytes32,string,uint256,uint256)": {
        "details": "The caller must have `UPDATER_ROLE`",
        "params": {
          "newDistributionNumber": "Number of distribution",
          "newMerkleRoot": "Merkle root",
          "newTokenTotal": "Sum of all tokens, by convention the zero-key (0x0) in the merkle tree",
          "uri": "NFT uri"
        }
      }
    },
    "stateVariables": {
      "_tokenURI": {
        "details": "Path to distribution metadata (including proofs)"
      },
      "_updateVotes": {
        "details": "Votes for a new merkle root"
      },
      "_updaterVotes": {
        "details": "Vote for new merkle root for each distribution"
      }
    },
    "title": "MerkleDistributorSEV",
    "version": 1
  },
  "userdoc": {
    "kind": "user",
    "methods": {
      "SLASHER_ROLE()": {
        "notice": "Role to slash earned rewards"
      },
      "UPDATER_ROLE()": {
        "notice": "Role allowing the merkle root to be updated"
      },
      "accountState(address)": {
        "notice": "Account state"
      },
      "addUpdaters(address[],uint256)": {
        "notice": "Add updaters and modify threshold"
      },
      "claim(uint256,address,uint256,bytes32[])": {
        "notice": "Claim all unclaimed tokens"
      },
      "constructor": {
        "notice": "Create new MerkleDistributorSEV"
      },
      "debtTotal()": {
        "notice": "Sum of all tokens still needing to be distributed"
      },
      "distributionCount()": {
        "notice": "Total number of distributions, also token id of the current distribution"
      },
      "merkleRoot()": {
        "notice": "Root of a merkle tree containing total earned amounts"
      },
      "previousMerkleRoot(bytes32)": {
        "notice": "Historical merkle roots"
      },
      "removeUpdaters(address[],uint256)": {
        "notice": "Remove updaters and modify threshold"
      },
      "setUpdateThreshold(uint256)": {
        "notice": "Change the update threshold"
      },
      "slash(address,uint256)": {
        "notice": "Slash `account` for `amount` tokens."
      },
      "supportsInterface(bytes4)": {
        "notice": "Returns true if this contract implements the interface defined by `interfaceId`. "
      },
      "token()": {
        "notice": "Token distributed by this contract"
      },
      "tokenTotal()": {
        "notice": "Sum of all tokens in the distribution"
      },
      "tokenURI(uint256)": {
        "notice": "Returns the Uniform Resource Identifier (URI) for `tokenId` token."
      },
      "updateMerkleRoot(bytes32,string,uint256,uint256)": {
        "notice": "Set a new merkle root and mints NFT with metadata URI to retreive the full tree"
      },
      "updateThreshold()": {
        "notice": "Number of votes from updaters needed to apply a new root"
      }
    },
    "version": 1
  },
  "storageLayout": {
    "storage": [
      {
        "astId": 15158,
        "contract": "contracts/MerkleDistributorSEV.sol:MerkleDistributorSEV",
        "label": "_name",
        "offset": 0,
        "slot": "0",
        "type": "t_string_storage"
      },
      {
        "astId": 15160,
        "contract": "contracts/MerkleDistributorSEV.sol:MerkleDistributorSEV",
        "label": "_symbol",
        "offset": 0,
        "slot": "1",
        "type": "t_string_storage"
      },
      {
        "astId": 15164,
        "contract": "contracts/MerkleDistributorSEV.sol:MerkleDistributorSEV",
        "label": "_owners",
        "offset": 0,
        "slot": "2",
        "type": "t_mapping(t_uint256,t_address)"
      },
      {
        "astId": 15168,
        "contract": "contracts/MerkleDistributorSEV.sol:MerkleDistributorSEV",
        "label": "_balances",
        "offset": 0,
        "slot": "3",
        "type": "t_mapping(t_address,t_uint256)"
      },
      {
        "astId": 15172,
        "contract": "contracts/MerkleDistributorSEV.sol:MerkleDistributorSEV",
        "label": "_tokenApprovals",
        "offset": 0,
        "slot": "4",
        "type": "t_mapping(t_uint256,t_address)"
      },
      {
        "astId": 15178,
        "contract": "contracts/MerkleDistributorSEV.sol:MerkleDistributorSEV",
        "label": "_operatorApprovals",
        "offset": 0,
        "slot": "5",
        "type": "t_mapping(t_address,t_mapping(t_address,t_bool))"
      },
      {
        "astId": 13868,
        "contract": "contracts/MerkleDistributorSEV.sol:MerkleDistributorSEV",
        "label": "_roles",
        "offset": 0,
        "slot": "6",
        "type": "t_mapping(t_bytes32,t_struct(RoleData)13863_storage)"
      },
      {
        "astId": 14196,
        "contract": "contracts/MerkleDistributorSEV.sol:MerkleDistributorSEV",
        "label": "_roleMembers",
        "offset": 0,
        "slot": "7",
        "type": "t_mapping(t_bytes32,t_struct(AddressSet)16570_storage)"
      },
      {
        "astId": 15965,
        "contract": "contracts/MerkleDistributorSEV.sol:MerkleDistributorSEV",
        "label": "_ownedTokens",
        "offset": 0,
        "slot": "8",
        "type": "t_mapping(t_address,t_mapping(t_uint256,t_uint256))"
      },
      {
        "astId": 15969,
        "contract": "contracts/MerkleDistributorSEV.sol:MerkleDistributorSEV",
        "label": "_ownedTokensIndex",
        "offset": 0,
        "slot": "9",
        "type": "t_mapping(t_uint256,t_uint256)"
      },
      {
        "astId": 15972,
        "contract": "contracts/MerkleDistributorSEV.sol:MerkleDistributorSEV",
        "label": "_allTokens",
        "offset": 0,
        "slot": "10",
        "type": "t_array(t_uint256)dyn_storage"
      },
      {
        "astId": 15976,
        "contract": "contracts/MerkleDistributorSEV.sol:MerkleDistributorSEV",
        "label": "_allTokensIndex",
        "offset": 0,
        "slot": "11",
        "type": "t_mapping(t_uint256,t_uint256)"
      },
      {
        "astId": 4043,
        "contract": "contracts/MerkleDistributorSEV.sol:MerkleDistributorSEV",
        "label": "merkleRoot",
        "offset": 0,
        "slot": "12",
        "type": "t_bytes32"
      },
      {
        "astId": 4047,
        "contract": "contracts/MerkleDistributorSEV.sol:MerkleDistributorSEV",
        "label": "distributionCount",
        "offset": 0,
        "slot": "13",
        "type": "t_uint256"
      },
      {
        "astId": 4050,
        "contract": "contracts/MerkleDistributorSEV.sol:MerkleDistributorSEV",
        "label": "updateThreshold",
        "offset": 0,
        "slot": "14",
        "type": "t_uint256"
      },
      {
        "astId": 4053,
        "contract": "contracts/MerkleDistributorSEV.sol:MerkleDistributorSEV",
        "label": "tokenTotal",
        "offset": 0,
        "slot": "15",
        "type": "t_uint256"
      },
      {
        "astId": 4056,
        "contract": "contracts/MerkleDistributorSEV.sol:MerkleDistributorSEV",
        "label": "debtTotal",
        "offset": 0,
        "slot": "16",
        "type": "t_uint256"
      },
      {
        "astId": 4068,
        "contract": "contracts/MerkleDistributorSEV.sol:MerkleDistributorSEV",
        "label": "accountState",
        "offset": 0,
        "slot": "17",
        "type": "t_mapping(t_address,t_struct(AccountState)4061_storage)"
      },
      {
        "astId": 4074,
        "contract": "contracts/MerkleDistributorSEV.sol:MerkleDistributorSEV",
        "label": "previousMerkleRoot",
        "offset": 0,
        "slot": "18",
        "type": "t_mapping(t_bytes32,t_bool)"
      },
      {
        "astId": 4079,
        "contract": "contracts/MerkleDistributorSEV.sol:MerkleDistributorSEV",
        "label": "_tokenURI",
        "offset": 0,
        "slot": "19",
        "type": "t_mapping(t_uint256,t_string_storage)"
      },
      {
        "astId": 4084,
        "contract": "contracts/MerkleDistributorSEV.sol:MerkleDistributorSEV",
        "label": "_updateVotes",
        "offset": 0,
        "slot": "20",
        "type": "t_mapping(t_bytes32,t_uint256)"
      },
      {
        "astId": 4091,
        "contract": "contracts/MerkleDistributorSEV.sol:MerkleDistributorSEV",
        "label": "_updaterVotes",
        "offset": 0,
        "slot": "21",
        "type": "t_mapping(t_address,t_mapping(t_uint256,t_bytes32))"
      }
    ],
    "types": {
      "t_address": {
        "encoding": "inplace",
        "label": "address",
        "numberOfBytes": "20"
      },
      "t_array(t_bytes32)dyn_storage": {
        "base": "t_bytes32",
        "encoding": "dynamic_array",
        "label": "bytes32[]",
        "numberOfBytes": "32"
      },
      "t_array(t_uint256)dyn_storage": {
        "base": "t_uint256",
        "encoding": "dynamic_array",
        "label": "uint256[]",
        "numberOfBytes": "32"
      },
      "t_bool": {
        "encoding": "inplace",
        "label": "bool",
        "numberOfBytes": "1"
      },
      "t_bytes32": {
        "encoding": "inplace",
        "label": "bytes32",
        "numberOfBytes": "32"
      },
      "t_mapping(t_address,t_bool)": {
        "encoding": "mapping",
        "key": "t_address",
        "label": "mapping(address => bool)",
        "numberOfBytes": "32",
        "value": "t_bool"
      },
      "t_mapping(t_address,t_mapping(t_address,t_bool))": {
        "encoding": "mapping",
        "key": "t_address",
        "label": "mapping(address => mapping(address => bool))",
        "numberOfBytes": "32",
        "value": "t_mapping(t_address,t_bool)"
      },
      "t_mapping(t_address,t_mapping(t_uint256,t_bytes32))": {
        "encoding": "mapping",
        "key": "t_address",
        "label": "mapping(address => mapping(uint256 => bytes32))",
        "numberOfBytes": "32",
        "value": "t_mapping(t_uint256,t_bytes32)"
      },
      "t_mapping(t_address,t_mapping(t_uint256,t_uint256))": {
        "encoding": "mapping",
        "key": "t_address",
        "label": "mapping(address => mapping(uint256 => uint256))",
        "numberOfBytes": "32",
        "value": "t_mapping(t_uint256,t_uint256)"
      },
      "t_mapping(t_address,t_struct(AccountState)4061_storage)": {
        "encoding": "mapping",
        "key": "t_address",
        "label": "mapping(address => struct MerkleDistributorSEV.AccountState)",
        "numberOfBytes": "32",
        "value": "t_struct(AccountState)4061_storage"
      },
      "t_mapping(t_address,t_uint256)": {
        "encoding": "mapping",
        "key": "t_address",
        "label": "mapping(address => uint256)",
        "numberOfBytes": "32",
        "value": "t_uint256"
      },
      "t_mapping(t_bytes32,t_bool)": {
        "encoding": "mapping",
        "key": "t_bytes32",
        "label": "mapping(bytes32 => bool)",
        "numberOfBytes": "32",
        "value": "t_bool"
      },
      "t_mapping(t_bytes32,t_struct(AddressSet)16570_storage)": {
        "encoding": "mapping",
        "key": "t_bytes32",
        "label": "mapping(bytes32 => struct EnumerableSet.AddressSet)",
        "numberOfBytes": "32",
        "value": "t_struct(AddressSet)16570_storage"
      },
      "t_mapping(t_bytes32,t_struct(RoleData)13863_storage)": {
        "encoding": "mapping",
        "key": "t_bytes32",
        "label": "mapping(bytes32 => struct AccessControl.RoleData)",
        "numberOfBytes": "32",
        "value": "t_struct(RoleData)13863_storage"
      },
      "t_mapping(t_bytes32,t_uint256)": {
        "encoding": "mapping",
        "key": "t_bytes32",
        "label": "mapping(bytes32 => uint256)",
        "numberOfBytes": "32",
        "value": "t_uint256"
      },
      "t_mapping(t_uint256,t_address)": {
        "encoding": "mapping",
        "key": "t_uint256",
        "label": "mapping(uint256 => address)",
        "numberOfBytes": "32",
        "value": "t_address"
      },
      "t_mapping(t_uint256,t_bytes32)": {
        "encoding": "mapping",
        "key": "t_uint256",
        "label": "mapping(uint256 => bytes32)",
        "numberOfBytes": "32",
        "value": "t_bytes32"
      },
      "t_mapping(t_uint256,t_string_storage)": {
        "encoding": "mapping",
        "key": "t_uint256",
        "label": "mapping(uint256 => string)",
        "numberOfBytes": "32",
        "value": "t_string_storage"
      },
      "t_mapping(t_uint256,t_uint256)": {
        "encoding": "mapping",
        "key": "t_uint256",
        "label": "mapping(uint256 => uint256)",
        "numberOfBytes": "32",
        "value": "t_uint256"
      },
      "t_string_storage": {
        "encoding": "bytes",
        "label": "string",
        "numberOfBytes": "32"
      },
      "t_struct(AccountState)4061_storage": {
        "encoding": "inplace",
        "label": "struct MerkleDistributorSEV.AccountState",
        "members": [
          {
            "astId": 4058,
            "contract": "contracts/MerkleDistributorSEV.sol:MerkleDistributorSEV",
            "label": "totalClaimed",
            "offset": 0,
            "slot": "0",
            "type": "t_uint256"
          },
          {
            "astId": 4060,
            "contract": "contracts/MerkleDistributorSEV.sol:MerkleDistributorSEV",
            "label": "totalSlashed",
            "offset": 0,
            "slot": "1",
            "type": "t_uint256"
          }
        ],
        "numberOfBytes": "64"
      },
      "t_struct(AddressSet)16570_storage": {
        "encoding": "inplace",
        "label": "struct EnumerableSet.AddressSet",
        "members": [
          {
            "astId": 16569,
            "contract": "contracts/MerkleDistributorSEV.sol:MerkleDistributorSEV",
            "label": "_inner",
            "offset": 0,
            "slot": "0",
            "type": "t_struct(Set)16299_storage"
          }
        ],
        "numberOfBytes": "64"
      },
      "t_struct(RoleData)13863_storage": {
        "encoding": "inplace",
        "label": "struct AccessControl.RoleData",
        "members": [
          {
            "astId": 13860,
            "contract": "contracts/MerkleDistributorSEV.sol:MerkleDistributorSEV",
            "label": "members",
            "offset": 0,
            "slot": "0",
            "type": "t_mapping(t_address,t_bool)"
          },
          {
            "astId": 13862,
            "contract": "contracts/MerkleDistributorSEV.sol:MerkleDistributorSEV",
            "label": "adminRole",
            "offset": 0,
            "slot": "1",
            "type": "t_bytes32"
          }
        ],
        "numberOfBytes": "64"
      },
      "t_struct(Set)16299_storage": {
        "encoding": "inplace",
        "label": "struct EnumerableSet.Set",
        "members": [
          {
            "astId": 16294,
            "contract": "contracts/MerkleDistributorSEV.sol:MerkleDistributorSEV",
            "label": "_values",
            "offset": 0,
            "slot": "0",
            "type": "t_array(t_bytes32)dyn_storage"
          },
          {
            "astId": 16298,
            "contract": "contracts/MerkleDistributorSEV.sol:MerkleDistributorSEV",
            "label": "_indexes",
            "offset": 0,
            "slot": "1",
            "type": "t_mapping(t_bytes32,t_uint256)"
          }
        ],
        "numberOfBytes": "64"
      },
      "t_uint256": {
        "encoding": "inplace",
        "label": "uint256",
        "numberOfBytes": "32"
      }
    }
  }
}