{
  "address": "0xde63E42999361dF517af416A836D845Ec1a33c80",
  "abi": [
    {
      "inputs": [
        {
          "internalType": "address",
          "name": "_fromToken",
          "type": "address"
        },
        {
          "internalType": "address",
          "name": "_toToken",
          "type": "address"
        }
      ],
      "stateMutability": "nonpayable",
      "type": "constructor"
    },
    {
      "anonymous": false,
      "inputs": [
        {
          "indexed": false,
          "internalType": "uint256",
          "name": "amount",
          "type": "uint256"
        },
        {
          "indexed": false,
          "internalType": "address",
          "name": "fromToken",
          "type": "address"
        },
        {
          "indexed": false,
          "internalType": "address",
          "name": "toToken",
          "type": "address"
        },
        {
          "indexed": false,
          "internalType": "address",
          "name": "migrator",
          "type": "address"
        }
      ],
      "name": "Migrate",
      "type": "event"
    },
    {
      "inputs": [],
      "name": "fromToken",
      "outputs": [
        {
          "internalType": "contract IERC20",
          "name": "",
          "type": "address"
        }
      ],
      "stateMutability": "view",
      "type": "function"
    },
    {
      "inputs": [
        {
          "internalType": "uint256",
          "name": "amount",
          "type": "uint256"
        }
      ],
      "name": "migrate",
      "outputs": [],
      "stateMutability": "nonpayable",
      "type": "function"
    },
    {
      "inputs": [
        {
          "internalType": "uint256",
          "name": "amount",
          "type": "uint256"
        },
        {
          "internalType": "uint256",
          "name": "deadline",
          "type": "uint256"
        },
        {
          "internalType": "uint8",
          "name": "v",
          "type": "uint8"
        },
        {
          "internalType": "bytes32",
          "name": "r",
          "type": "bytes32"
        },
        {
          "internalType": "bytes32",
          "name": "s",
          "type": "bytes32"
        }
      ],
      "name": "migrateWithPermit",
      "outputs": [],
      "stateMutability": "nonpayable",
      "type": "function"
    },
    {
      "inputs": [],
      "name": "toToken",
      "outputs": [
        {
          "internalType": "contract IERC20",
          "name": "",
          "type": "address"
        }
      ],
      "stateMutability": "view",
      "type": "function"
    }
  ],
  "transactionHash": "0x486f42f8dbe4d32bbf1a9967d98d72ec9395b337e920728fc2882fe74ba7eae2",
  "args": [
    "0x776ECbfE9BE490ab6B83427E391840E0EC18ED99",
    "0xf12FB149Ef0BA744666BBf3fb23982Ba1f180da0"
  ],
  "solcInputHash": "9b228480b86a17f9c201c188a1dfb6af",
  "bytecode": "0x60c060405234801561001057600080fd5b5060405161095d38038061095d83398101604081905261002f91610069565b6001600160601b0319606092831b8116608052911b1660a05261009c565b80516001600160a01b038116811461006457600080fd5b919050565b6000806040838503121561007c57600080fd5b6100858361004d565b91506100936020840161004d565b90509250929050565b60805160601c60a05160601c6108756100e86000396000818160bb0152818161024d0152610326015260008181606b01528181610149015281816101f001526102e801526108756000f3fe608060405234801561001057600080fd5b506004361061004c5760003560e01c8063298e9c941461005157806332a46857146100665780633c930575146100b6578063454b0608146100dd575b600080fd5b61006461005f366004610757565b6100f0565b005b61008d7f000000000000000000000000000000000000000000000000000000000000000081565b60405173ffffffffffffffffffffffffffffffffffffffff909116815260200160405180910390f35b61008d7f000000000000000000000000000000000000000000000000000000000000000081565b6100646100eb36600461073e565b6101ca565b6040517fd505accf000000000000000000000000000000000000000000000000000000008152336004820152306024820152604481018690526064810185905260ff8416608482015260a4810183905260c481018290527f000000000000000000000000000000000000000000000000000000000000000073ffffffffffffffffffffffffffffffffffffffff169063d505accf9060e401600060405180830381600087803b1580156101a257600080fd5b505af11580156101b6573d6000803e3d6000fd5b505050506101c3856101d6565b5050505050565b6101d3816101d6565b50565b61021873ffffffffffffffffffffffffffffffffffffffff7f00000000000000000000000000000000000000000000000000000000000000001633308461037f565b6040517f40c10f19000000000000000000000000000000000000000000000000000000008152336004820152602481018290527f000000000000000000000000000000000000000000000000000000000000000073ffffffffffffffffffffffffffffffffffffffff16906340c10f1990604401602060405180830381600087803b1580156102a657600080fd5b505af11580156102ba573d6000803e3d6000fd5b505050506040513d601f19601f820116820180604052508101906102de919061071c565b50604080518281527f000000000000000000000000000000000000000000000000000000000000000073ffffffffffffffffffffffffffffffffffffffff90811660208301527f0000000000000000000000000000000000000000000000000000000000000000168183015233606082015290517f2c3cfd1450ae8233a55d7b56e333778edde78457abd6ff9c1b8e7c1d97ceb4a89181900360800190a150565b6040805173ffffffffffffffffffffffffffffffffffffffff85811660248301528416604482015260648082018490528251808303909101815260849091019091526020810180517bffffffffffffffffffffffffffffffffffffffffffffffffffffffff167f23b872dd0000000000000000000000000000000000000000000000000000000017905261041490859061041a565b50505050565b600061047c826040518060400160405280602081526020017f5361666545524332303a206c6f772d6c6576656c2063616c6c206661696c65648152508573ffffffffffffffffffffffffffffffffffffffff166105309092919063ffffffff16565b80519091501561052b578080602001905181019061049a919061071c565b61052b576040517f08c379a000000000000000000000000000000000000000000000000000000000815260206004820152602a60248201527f5361666545524332303a204552433230206f7065726174696f6e20646964206e60448201527f6f7420737563636565640000000000000000000000000000000000000000000060648201526084015b60405180910390fd5b505050565b606061053f8484600085610549565b90505b9392505050565b6060824710156105db576040517f08c379a000000000000000000000000000000000000000000000000000000000815260206004820152602660248201527f416464726573733a20696e73756666696369656e742062616c616e636520666f60448201527f722063616c6c00000000000000000000000000000000000000000000000000006064820152608401610522565b843b610643576040517f08c379a000000000000000000000000000000000000000000000000000000000815260206004820152601d60248201527f416464726573733a2063616c6c20746f206e6f6e2d636f6e74726163740000006044820152606401610522565b6000808673ffffffffffffffffffffffffffffffffffffffff16858760405161066c91906107a6565b60006040518083038185875af1925050503d80600081146106a9576040519150601f19603f3d011682016040523d82523d6000602084013e6106ae565b606091505b50915091506106be8282866106c9565b979650505050505050565b606083156106d8575081610542565b8251156106e85782518084602001fd5b816040517f08c379a000000000000000000000000000000000000000000000000000000000815260040161052291906107c2565b60006020828403121561072e57600080fd5b8151801515811461054257600080fd5b60006020828403121561075057600080fd5b5035919050565b600080600080600060a0868803121561076f57600080fd5b8535945060208601359350604086013560ff8116811461078e57600080fd5b94979396509394606081013594506080013592915050565b600082516107b8818460208701610813565b9190910192915050565b60208152600082518060208401526107e1816040850160208701610813565b601f017fffffffffffffffffffffffffffffffffffffffffffffffffffffffffffffffe0169190910160400192915050565b60005b8381101561082e578181015183820152602001610816565b83811115610414575050600091015256fea26469706673582212205d954dbe678b53c85a4436d0f879f493fcd40dfe215ed69fc70a1ac91fe452d264736f6c63430008060033",
  "devdoc": {
    "details": "Migrate from old token to new token",
    "kind": "dev",
    "methods": {
      "constructor": {
        "params": {
          "_fromToken": "From token",
          "_toToken": "To token"
        }
      },
      "migrate(uint256)": {
        "params": {
          "amount": "Amount to migrate"
        }
      },
      "migrateWithPermit(uint256,uint256,uint8,bytes32,bytes32)": {
        "params": {
          "amount": "Amount to migrate",
          "deadline": "The time at which to expire the signature",
          "r": "Half of the ECDSA signature pair",
          "s": "Half of the ECDSA signature pair",
          "v": "The recovery byte of the signature"
        }
      }
    },
    "title": "Migrator",
    "version": 1
  },
  "userdoc": {
    "events": {
      "Migrate(uint256,address,address,address)": {
        "notice": "Event emitted on each migration"
      }
    },
    "kind": "user",
    "methods": {
      "constructor": {
        "notice": "Construct new Migrator"
      },
      "fromToken()": {
        "notice": "From token"
      },
      "migrate(uint256)": {
        "notice": "Migrate to new token"
      },
      "migrateWithPermit(uint256,uint256,uint8,bytes32,bytes32)": {
        "notice": "Migrate to new token using permit for approvals"
      },
      "toToken()": {
        "notice": "To token"
      }
    },
    "version": 1
  },
  "storageLayout": {
    "storage": [],
    "types": null
  }
}