{
  "address": "0x4F988f333D1ea6AdBA2a16077E61fddC697f66F6",
  "abi": [
    {
      "anonymous": false,
      "inputs": [
        {
          "indexed": true,
          "internalType": "address",
          "name": "newAdmin",
          "type": "address"
        },
        {
          "indexed": true,
          "internalType": "address",
          "name": "oldAdmin",
          "type": "address"
        }
      ],
      "name": "AdminUpdated",
      "type": "event"
    },
    {
      "anonymous": false,
      "inputs": [
        {
          "indexed": true,
          "internalType": "uint8",
          "name": "slot",
          "type": "uint8"
        },
        {
          "indexed": true,
          "internalType": "address",
          "name": "owner",
          "type": "address"
        },
        {
          "indexed": true,
          "internalType": "address",
          "name": "delegate",
          "type": "address"
        },
        {
          "indexed": false,
          "internalType": "uint128",
          "name": "newBidAmount",
          "type": "uint128"
        },
        {
          "indexed": false,
          "internalType": "uint128",
          "name": "oldBidAmount",
          "type": "uint128"
        },
        {
          "indexed": false,
          "internalType": "uint16",
          "name": "taxNumerator",
          "type": "uint16"
        },
        {
          "indexed": false,
          "internalType": "uint16",
          "name": "taxDenominator",
          "type": "uint16"
        }
      ],
      "name": "SlotClaimed",
      "type": "event"
    },
    {
      "anonymous": false,
      "inputs": [
        {
          "indexed": true,
          "internalType": "uint8",
          "name": "slot",
          "type": "uint8"
        }
      ],
      "name": "SlotCleared",
      "type": "event"
    },
    {
      "anonymous": false,
      "inputs": [
        {
          "indexed": true,
          "internalType": "uint8",
          "name": "slot",
          "type": "uint8"
        },
        {
          "indexed": true,
          "internalType": "address",
          "name": "owner",
          "type": "address"
        },
        {
          "indexed": true,
          "internalType": "address",
          "name": "newDelegate",
          "type": "address"
        },
        {
          "indexed": false,
          "internalType": "address",
          "name": "oldDelegate",
          "type": "address"
        }
      ],
      "name": "SlotDelegateUpdated",
      "type": "event"
    },
    {
      "anonymous": false,
      "inputs": [
        {
          "indexed": true,
          "internalType": "address",
          "name": "claimer",
          "type": "address"
        },
        {
          "indexed": false,
          "internalType": "uint256",
          "name": "stakeAmount",
          "type": "uint256"
        }
      ],
      "name": "Stake",
      "type": "event"
    },
    {
      "anonymous": false,
      "inputs": [
        {
          "indexed": false,
          "internalType": "uint16",
          "name": "newNumerator",
          "type": "uint16"
        },
        {
          "indexed": false,
          "internalType": "uint16",
          "name": "newDenominator",
          "type": "uint16"
        },
        {
          "indexed": false,
          "internalType": "uint16",
          "name": "oldNumerator",
          "type": "uint16"
        },
        {
          "indexed": false,
          "internalType": "uint16",
          "name": "oldDenominator",
          "type": "uint16"
        }
      ],
      "name": "TaxRateUpdated",
      "type": "event"
    },
    {
      "anonymous": false,
      "inputs": [
        {
          "indexed": true,
          "internalType": "address",
          "name": "staker",
          "type": "address"
        },
        {
          "indexed": false,
          "internalType": "uint256",
          "name": "unstakedAmount",
          "type": "uint256"
        }
      ],
      "name": "Unstake",
      "type": "event"
    },
    {
      "inputs": [],
      "name": "MIN_BID",
      "outputs": [
        {
          "internalType": "uint128",
          "name": "",
          "type": "uint128"
        }
      ],
      "stateMutability": "view",
      "type": "function"
    },
    {
      "inputs": [],
      "name": "admin",
      "outputs": [
        {
          "internalType": "address",
          "name": "",
          "type": "address"
        }
      ],
      "stateMutability": "view",
      "type": "function"
    },
    {
      "inputs": [
        {
          "internalType": "uint8",
          "name": "slot",
          "type": "uint8"
        },
        {
          "internalType": "uint128",
          "name": "bid",
          "type": "uint128"
        },
        {
          "internalType": "address",
          "name": "delegate",
          "type": "address"
        }
      ],
      "name": "claimSlot",
      "outputs": [],
      "stateMutability": "nonpayable",
      "type": "function"
    },
    {
      "inputs": [
        {
          "internalType": "uint8",
          "name": "slot",
          "type": "uint8"
        },
        {
          "internalType": "uint128",
          "name": "bid",
          "type": "uint128"
        },
        {
          "internalType": "address",
          "name": "delegate",
          "type": "address"
        },
        {
          "internalType": "uint256",
          "name": "deadline",
          "type": "uint256"
        },
        {
          "internalType": "uint8",
          "name": "v",
          "type": "uint8"
        },
        {
          "internalType": "bytes32",
          "name": "r",
          "type": "bytes32"
        },
        {
          "internalType": "bytes32",
          "name": "s",
          "type": "bytes32"
        }
      ],
      "name": "claimSlotWithPermit",
      "outputs": [],
      "stateMutability": "nonpayable",
      "type": "function"
    },
    {
      "inputs": [
        {
          "internalType": "contract IERC20Extended",
          "name": "_token",
          "type": "address"
        },
        {
          "internalType": "address",
          "name": "_admin",
          "type": "address"
        },
        {
          "internalType": "uint16",
          "name": "_taxNumerator",
          "type": "uint16"
        },
        {
          "internalType": "uint16",
          "name": "_taxDenominator",
          "type": "uint16"
        }
      ],
      "name": "initialize",
      "outputs": [],
      "stateMutability": "nonpayable",
      "type": "function"
    },
    {
      "inputs": [
        {
          "internalType": "address",
          "name": "newAdmin",
          "type": "address"
        }
      ],
      "name": "setAdmin",
      "outputs": [],
      "stateMutability": "nonpayable",
      "type": "function"
    },
    {
      "inputs": [
        {
          "internalType": "uint8",
          "name": "slot",
          "type": "uint8"
        },
        {
          "internalType": "address",
          "name": "delegate",
          "type": "address"
        }
      ],
      "name": "setSlotDelegate",
      "outputs": [],
      "stateMutability": "nonpayable",
      "type": "function"
    },
    {
      "inputs": [
        {
          "internalType": "uint16",
          "name": "numerator",
          "type": "uint16"
        },
        {
          "internalType": "uint16",
          "name": "denominator",
          "type": "uint16"
        }
      ],
      "name": "setTaxRate",
      "outputs": [],
      "stateMutability": "nonpayable",
      "type": "function"
    },
    {
      "inputs": [
        {
          "internalType": "uint8",
          "name": "slot",
          "type": "uint8"
        }
      ],
      "name": "slotBalance",
      "outputs": [
        {
          "internalType": "uint128",
          "name": "balance",
          "type": "uint128"
        }
      ],
      "stateMutability": "view",
      "type": "function"
    },
    {
      "inputs": [
        {
          "internalType": "uint8",
          "name": "",
          "type": "uint8"
        }
      ],
      "name": "slotBid",
      "outputs": [
        {
          "internalType": "address",
          "name": "bidder",
          "type": "address"
        },
        {
          "internalType": "uint16",
          "name": "taxNumerator",
          "type": "uint16"
        },
        {
          "internalType": "uint16",
          "name": "taxDenominator",
          "type": "uint16"
        },
        {
          "internalType": "uint64",
          "name": "periodStart",
          "type": "uint64"
        },
        {
          "internalType": "uint128",
          "name": "bidAmount",
          "type": "uint128"
        }
      ],
      "stateMutability": "view",
      "type": "function"
    },
    {
      "inputs": [
        {
          "internalType": "uint8",
          "name": "slot",
          "type": "uint8"
        }
      ],
      "name": "slotCost",
      "outputs": [
        {
          "internalType": "uint128",
          "name": "",
          "type": "uint128"
        }
      ],
      "stateMutability": "view",
      "type": "function"
    },
    {
      "inputs": [
        {
          "internalType": "uint8",
          "name": "slot",
          "type": "uint8"
        }
      ],
      "name": "slotDelegate",
      "outputs": [
        {
          "internalType": "address",
          "name": "",
          "type": "address"
        }
      ],
      "stateMutability": "view",
      "type": "function"
    },
    {
      "inputs": [
        {
          "internalType": "uint8",
          "name": "",
          "type": "uint8"
        }
      ],
      "name": "slotExpiration",
      "outputs": [
        {
          "internalType": "uint64",
          "name": "",
          "type": "uint64"
        }
      ],
      "stateMutability": "view",
      "type": "function"
    },
    {
      "inputs": [
        {
          "internalType": "uint8",
          "name": "slot",
          "type": "uint8"
        }
      ],
      "name": "slotForeclosed",
      "outputs": [
        {
          "internalType": "bool",
          "name": "",
          "type": "bool"
        }
      ],
      "stateMutability": "view",
      "type": "function"
    },
    {
      "inputs": [
        {
          "internalType": "uint8",
          "name": "slot",
          "type": "uint8"
        }
      ],
      "name": "slotOwner",
      "outputs": [
        {
          "internalType": "address",
          "name": "",
          "type": "address"
        }
      ],
      "stateMutability": "view",
      "type": "function"
    },
    {
      "inputs": [
        {
          "internalType": "uint128",
          "name": "amount",
          "type": "uint128"
        }
      ],
      "name": "stake",
      "outputs": [],
      "stateMutability": "nonpayable",
      "type": "function"
    },
    {
      "inputs": [
        {
          "internalType": "uint128",
          "name": "amount",
          "type": "uint128"
        },
        {
          "internalType": "uint256",
          "name": "deadline",
          "type": "uint256"
        },
        {
          "internalType": "uint8",
          "name": "v",
          "type": "uint8"
        },
        {
          "internalType": "bytes32",
          "name": "r",
          "type": "bytes32"
        },
        {
          "internalType": "bytes32",
          "name": "s",
          "type": "bytes32"
        }
      ],
      "name": "stakeWithPermit",
      "outputs": [],
      "stateMutability": "nonpayable",
      "type": "function"
    },
    {
      "inputs": [
        {
          "internalType": "address",
          "name": "",
          "type": "address"
        }
      ],
      "name": "stakedBalance",
      "outputs": [
        {
          "internalType": "uint128",
          "name": "",
          "type": "uint128"
        }
      ],
      "stateMutability": "view",
      "type": "function"
    },
    {
      "inputs": [],
      "name": "taxDenominator",
      "outputs": [
        {
          "internalType": "uint16",
          "name": "",
          "type": "uint16"
        }
      ],
      "stateMutability": "view",
      "type": "function"
    },
    {
      "inputs": [],
      "name": "taxNumerator",
      "outputs": [
        {
          "internalType": "uint16",
          "name": "",
          "type": "uint16"
        }
      ],
      "stateMutability": "view",
      "type": "function"
    },
    {
      "inputs": [],
      "name": "token",
      "outputs": [
        {
          "internalType": "contract IERC20Extended",
          "name": "",
          "type": "address"
        }
      ],
      "stateMutability": "view",
      "type": "function"
    },
    {
      "inputs": [
        {
          "internalType": "uint128",
          "name": "amount",
          "type": "uint128"
        }
      ],
      "name": "unstake",
      "outputs": [],
      "stateMutability": "nonpayable",
      "type": "function"
    }
  ],
  "transactionHash": "0xffa2fd13c38d6912dd2541bd0845f0a69a130223f0b2bdd8b429ce596d9d23fa",
  "args": [],
  "solcInputHash": "c2047ea3ebd11a71bd1ec286aad6032e",
  "bytecode": "0x608060405234801561001057600080fd5b5061255c806100206000396000f3fe608060405234801561001057600080fd5b50600436106101825760003560e01c8063bfb099b6116100d8578063dcf533791161008c578063f851a44011610066578063f851a440146104e5578063fba9578b14610505578063fc0c546a1461051857610182565b8063dcf53379146103a7578063df442678146103ba578063f45afb9f146103cd57610182565b8063cb418116116100bd578063cb41811614610365578063ce69cd2014610378578063dc4fb6f11461039457610182565b8063bfb099b61461030f578063c69b6fa61461032257610182565b806388fe2be81161013a578063b971235411610114578063b9712354146102a1578063baa9bb23146102b4578063bbb0d596146102d757610182565b806388fe2be81461022d5780639631af0b14610240578063b361b2b51461027957610182565b8063458a1d6e1161016b578063458a1d6e146101d357806360217267146101e8578063704b6c021461021a57610182565b8063050354091461018757806308972073146101c0575b600080fd5b61019a61019536600461224f565b610538565b6040516fffffffffffffffffffffffffffffffff90911681526020015b60405180910390f35b61019a6101ce36600461224f565b6106dc565b6101e66101e13660046121b6565b6107ea565b005b61019a6101f636600461211c565b6005602052600090815260409020546fffffffffffffffffffffffffffffffff1681565b6101e661022836600461211c565b610a46565b6101e661023b3660046121b6565b610b56565b6007546102669074010000000000000000000000000000000000000000900461ffff1681565b60405161ffff90911681526020016101b7565b60075461026690760100000000000000000000000000000000000000000000900461ffff1681565b6101e66102af36600461229f565b610bdc565b6102c76102c236600461224f565b610c66565b60405190151581526020016101b7565b6102ea6102e536600461224f565b610c9b565b60405173ffffffffffffffffffffffffffffffffffffffff90911681526020016101b7565b6101e661031d366004612269565b610cdf565b61034c61033036600461224f565b60016020526000908152604090205467ffffffffffffffff1681565b60405167ffffffffffffffff90911681526020016101b7565b6101e661037336600461221d565b610ec1565b60085461019a906fffffffffffffffffffffffffffffffff1681565b6102ea6103a236600461224f565b6110c4565b6101e66103b53660046121d0565b611108565b6101e66103c836600461215f565b611251565b6104826103db36600461224f565b6004602052600090815260409020805460019091015473ffffffffffffffffffffffffffffffffffffffff82169161ffff74010000000000000000000000000000000000000000820481169276010000000000000000000000000000000000000000000083049091169167ffffffffffffffff780100000000000000000000000000000000000000000000000090910416906fffffffffffffffffffffffffffffffff1685565b6040805173ffffffffffffffffffffffffffffffffffffffff96909616865261ffff9485166020870152929093169184019190915267ffffffffffffffff1660608301526fffffffffffffffffffffffffffffffff16608082015260a0016101b7565b6007546102ea9073ffffffffffffffffffffffffffffffffffffffff1681565b6101e66105133660046122e5565b611500565b6006546102ea9073ffffffffffffffffffffffffffffffffffffffff1681565b60ff81166000908152600460209081526040808320815160a081018352815473ffffffffffffffffffffffffffffffffffffffff8116825274010000000000000000000000000000000000000000810461ffff90811695830195909552760100000000000000000000000000000000000000000000810490941692810192909252780100000000000000000000000000000000000000000000000090920467ffffffffffffffff1660608201526001909101546fffffffffffffffffffffffffffffffff16608082018190521580610614575061061483610c66565b156106235760009150506106d7565b806060015167ffffffffffffffff16421415610644576080015190506106d7565b604081015161065a9061ffff166201518061241e565b816020015161ffff16826060015167ffffffffffffffff164261067d919061248c565b83608001516fffffffffffffffffffffffffffffffff1661069e919061241e565b6106a8919061241e565b6106b291906123d2565b81608001516fffffffffffffffffffffffffffffffff166106d3919061248c565b9150505b919050565b60006106e782610c66565b1561070757506008546fffffffffffffffffffffffffffffffff166106d7565b60ff8216600090815260046020908152604091829020825160a081018452815473ffffffffffffffffffffffffffffffffffffffff8116825274010000000000000000000000000000000000000000810461ffff90811694830194909452760100000000000000000000000000000000000000000000810490931693810193909352780100000000000000000000000000000000000000000000000090910467ffffffffffffffff166060830152600101546fffffffffffffffffffffffffffffffff16608082018190526064906107e090606e6123e6565b6106d391906123a3565b600a54600b54141561085d576040517f08c379a000000000000000000000000000000000000000000000000000000000815260206004820152600e60248201527f7265656e7472616e742063616c6c00000000000000000000000000000000000060448201526064015b60405180910390fd5b600a54600b55336000908152600560205260409020546fffffffffffffffffffffffffffffffff808316911610156108f1576040517f08c379a000000000000000000000000000000000000000000000000000000000815260206004820152601960248201527f616d6f756e74203e20756e6c6f636b65642062616c616e6365000000000000006044820152606401610854565b33600090815260056020526040812080548392906109229084906fffffffffffffffffffffffffffffffff1661245b565b82546101009290920a6fffffffffffffffffffffffffffffffff8181021990931691831602179091556006546040517fa9059cbb000000000000000000000000000000000000000000000000000000008152336004820152918416602483015273ffffffffffffffffffffffffffffffffffffffff16915063a9059cbb90604401602060405180830381600087803b1580156109bd57600080fd5b505af11580156109d1573d6000803e3d6000fd5b505050506040513d601f19601f820116820180604052508101906109f5919061213f565b506040516fffffffffffffffffffffffffffffffff8216815233907f85082129d87b2fe11527cb1b3b7a520aeb5aa6913f88a3d8757fe40d1db02fdd9060200160405180910390a250600954600b55565b60075473ffffffffffffffffffffffffffffffffffffffff163314610ac7576040517f08c379a000000000000000000000000000000000000000000000000000000000815260206004820152600960248201527f6e6f742061646d696e00000000000000000000000000000000000000000000006044820152606401610854565b60075460405173ffffffffffffffffffffffffffffffffffffffff918216918316907f101b8081ff3b56bbf45deb824d86a3b0fd38b7e3dd42421105cf8abe9106db0b90600090a3600780547fffffffffffffffffffffffff00000000000000000000000000000000000000001673ffffffffffffffffffffffffffffffffffffffff92909216919091179055565b600a54600b541415610bc4576040517f08c379a000000000000000000000000000000000000000000000000000000000815260206004820152600e60248201527f7265656e7472616e742063616c6c0000000000000000000000000000000000006044820152606401610854565b600a54600b55610bd38161164d565b50600954600b55565b600a54600b541415610c4a576040517f08c379a000000000000000000000000000000000000000000000000000000000815260206004820152600e60248201527f7265656e7472616e742063616c6c0000000000000000000000000000000000006044820152606401610854565b600a54600b55610c5b8383836117df565b5050600954600b5550565b60ff81166000908152600160205260408120544267ffffffffffffffff90911611610c93575060016106d7565b506000919050565b6000610ca682610c66565b15610cb3575060006106d7565b5060ff1660009081526003602052604090205473ffffffffffffffffffffffffffffffffffffffff1690565b81610ce981610c9b565b73ffffffffffffffffffffffffffffffffffffffff163373ffffffffffffffffffffffffffffffffffffffff1614610d7d576040517f08c379a000000000000000000000000000000000000000000000000000000000815260206004820152600e60248201527f6e6f7420736c6f74206f776e65720000000000000000000000000000000000006044820152606401610854565b73ffffffffffffffffffffffffffffffffffffffff8216610dfa576040517f08c379a000000000000000000000000000000000000000000000000000000000815260206004820152601c60248201527f63616e6e6f742064656c656761746520746f20302061646472657373000000006044820152606401610854565b73ffffffffffffffffffffffffffffffffffffffff82163360ff85167fbd531a66556ecb9963175ca79b62cc8dee8921be91e4f1defa1f712052181856610e40876110c4565b60405173ffffffffffffffffffffffffffffffffffffffff909116815260200160405180910390a45060ff91909116600090815260026020526040902080547fffffffffffffffffffffffff00000000000000000000000000000000000000001673ffffffffffffffffffffffffffffffffffffffff909216919091179055565b60075473ffffffffffffffffffffffffffffffffffffffff163314610f42576040517f08c379a000000000000000000000000000000000000000000000000000000000815260206004820152600960248201527f6e6f742061646d696e00000000000000000000000000000000000000000000006044820152606401610854565b8161ffff168161ffff1611610fb3576040517f08c379a000000000000000000000000000000000000000000000000000000000815260206004820152601f60248201527f64656e6f6d696e61746f72206d757374206265203e206e756d657261746f72006044820152606401610854565b6007546040805161ffff858116825284811660208301527401000000000000000000000000000000000000000084048116828401527601000000000000000000000000000000000000000000009093049092166060830152517fc787b4548967673274fa85b2239da3b2b6352dac97c8bb296e459c3757a220509181900360800190a1600780547fffffffffffffffff00000000ffffffffffffffffffffffffffffffffffffffff167401000000000000000000000000000000000000000061ffff948516027fffffffffffffffff0000ffffffffffffffffffffffffffffffffffffffffffff16177601000000000000000000000000000000000000000000009290931691909102919091179055565b60006110cf82610c66565b156110dc575060006106d7565b5060ff1660009081526002602052604090205473ffffffffffffffffffffffffffffffffffffffff1690565b600a54600b541415611176576040517f08c379a000000000000000000000000000000000000000000000000000000000815260206004820152600e60248201527f7265656e7472616e742063616c6c0000000000000000000000000000000000006044820152606401610854565b600a54600b556006546040517fd505accf0000000000000000000000000000000000000000000000000000000081523360048201523060248201526fffffffffffffffffffffffffffffffff871660448201526064810186905260ff8516608482015260a4810184905260c4810183905273ffffffffffffffffffffffffffffffffffffffff9091169063d505accf9060e401600060405180830381600087803b15801561122357600080fd5b505af1158015611237573d6000803e3d6000fd5b505050506112448561164d565b5050600954600b55505050565b600054610100900460ff168061126a575060005460ff16155b6112f6576040517f08c379a000000000000000000000000000000000000000000000000000000000815260206004820152602e60248201527f496e697469616c697a61626c653a20636f6e747261637420697320616c72656160448201527f647920696e697469616c697a65640000000000000000000000000000000000006064820152608401610854565b600054610100900460ff1615801561133557600080547fffffffffffffffffffffffffffffffffffffffffffffffffffffffffffff0000166101011790555b6006805473ffffffffffffffffffffffffffffffffffffffff8088167fffffffffffffffffffffffff000000000000000000000000000000000000000092831617909255600780549287169290911682179055604051600091907f101b8081ff3b56bbf45deb824d86a3b0fd38b7e3dd42421105cf8abe9106db0b908390a3600780547fffffffffffffffff00000000ffffffffffffffffffffffffffffffffffffffff167401000000000000000000000000000000000000000061ffff8681169182027fffffffffffffffff0000ffffffffffffffffffffffffffffffffffffffffffff169290921776010000000000000000000000000000000000000000000092861692830217909255604080519283526020830191909152600090820181905260608201527fc787b4548967673274fa85b2239da3b2b6352dac97c8bb296e459c3757a220509060800160405180910390a1600880547fffffffffffffffffffffffffffffffff0000000000000000000000000000000016662386f26fc10000179055600160098190556002600a55600b5580156114f957600080547fffffffffffffffffffffffffffffffffffffffffffffffffffffffffffff00ff1690555b5050505050565b600a54600b54141561156e576040517f08c379a000000000000000000000000000000000000000000000000000000000815260206004820152600e60248201527f7265656e7472616e742063616c6c0000000000000000000000000000000000006044820152606401610854565b600a54600b556006546040517fd505accf0000000000000000000000000000000000000000000000000000000081523360048201523060248201526fffffffffffffffffffffffffffffffff881660448201526064810186905260ff8516608482015260a4810184905260c4810183905273ffffffffffffffffffffffffffffffffffffffff9091169063d505accf9060e401600060405180830381600087803b15801561161b57600080fd5b505af115801561162f573d6000803e3d6000fd5b5050505061163e8787876117df565b5050600954600b555050505050565b6006546040517f23b872dd0000000000000000000000000000000000000000000000000000000081523360048201523060248201526fffffffffffffffffffffffffffffffff8316604482015273ffffffffffffffffffffffffffffffffffffffff909116906323b872dd90606401602060405180830381600087803b1580156116d657600080fd5b505af11580156116ea573d6000803e3d6000fd5b505050506040513d601f19601f8201168201806040525081019061170e919061213f565b5033600090815260056020526040812080548392906117409084906fffffffffffffffffffffffffffffffff16612357565b92506101000a8154816fffffffffffffffffffffffffffffffff02191690836fffffffffffffffffffffffffffffffff1602179055503373ffffffffffffffffffffffffffffffffffffffff167febedb8b3c678666e7f36970bc8f57abf6d8fa2e828c0da91ea5b75bf68ed101a826040516117d491906fffffffffffffffffffffffffffffffff91909116815260200190565b60405180910390a250565b73ffffffffffffffffffffffffffffffffffffffff811661185c576040517f08c379a000000000000000000000000000000000000000000000000000000000815260206004820152601c60248201527f63616e6e6f742064656c656761746520746f20302061646472657373000000006044820152606401610854565b60ff83166000908152600460205260408120600181015490916fffffffffffffffffffffffffffffffff9091169061189386610538565b905060006118a1828461245b565b90506fffffffffffffffffffffffffffffffff82161580156118db57506008546fffffffffffffffffffffffffffffffff90811690871610155b80611920575060646118ee84606e6123e6565b6118f891906123a3565b6fffffffffffffffffffffffffffffffff16866fffffffffffffffffffffffffffffffff1610155b611986576040517f08c379a000000000000000000000000000000000000000000000000000000000815260206004820152600d60248201527f62696420746f6f20736d616c6c000000000000000000000000000000000000006044820152606401610854565b3360008181526005602052604081205486546fffffffffffffffffffffffffffffffff9091169273ffffffffffffffffffffffffffffffffffffffff909116146119d057876119da565b6119da848961245b565b90506fffffffffffffffffffffffffffffffff821615611bb057806fffffffffffffffffffffffffffffffff16826fffffffffffffffffffffffffffffffff1610611a8b573360009081526005602052604081208054839290611a509084906fffffffffffffffffffffffffffffffff1661245b565b92506101000a8154816fffffffffffffffffffffffffffffffff02191690836fffffffffffffffffffffffffffffffff160217905550611bab565b33600081815260056020526040902080547fffffffffffffffffffffffffffffffff0000000000000000000000000000000016905560065473ffffffffffffffffffffffffffffffffffffffff16906323b872dd9030611aeb868661245b565b6040517fffffffff0000000000000000000000000000000000000000000000000000000060e086901b16815273ffffffffffffffffffffffffffffffffffffffff93841660048201529290911660248301526fffffffffffffffffffffffffffffffff166044820152606401602060405180830381600087803b158015611b7157600080fd5b505af1158015611b85573d6000803e3d6000fd5b505050506040513d601f19601f82011682018060405250810190611ba9919061213f565b505b611c73565b6006546040517f23b872dd0000000000000000000000000000000000000000000000000000000081523360048201523060248201526fffffffffffffffffffffffffffffffff8316604482015273ffffffffffffffffffffffffffffffffffffffff909116906323b872dd90606401602060405180830381600087803b158015611c3957600080fd5b505af1158015611c4d573d6000803e3d6000fd5b505050506040513d601f19601f82011682018060405250810190611c71919061213f565b505b855473ffffffffffffffffffffffffffffffffffffffff163314611d1057855473ffffffffffffffffffffffffffffffffffffffff1660009081526005602052604081208054869290611cd99084906fffffffffffffffffffffffffffffffff16612357565b92506101000a8154816fffffffffffffffffffffffffffffffff02191690836fffffffffffffffffffffffffffffffff1602179055505b6fffffffffffffffffffffffffffffffff831615611ddf576006546040517f42966c680000000000000000000000000000000000000000000000000000000081526fffffffffffffffffffffffffffffffff8516600482015273ffffffffffffffffffffffffffffffffffffffff909116906342966c6890602401602060405180830381600087803b158015611da557600080fd5b505af1158015611db9573d6000803e3d6000fd5b505050506040513d601f19601f82011682018060405250810190611ddd919061213f565b505b60ff891660009081526003602090815260408083208054337fffffffffffffffffffffffff0000000000000000000000000000000000000000918216811790925560029093529220805490911673ffffffffffffffffffffffffffffffffffffffff8a16179055865477ffffffff00000000000000000000000000000000000000001677ffffffffffffffffffffffffffffffffffffffffffffffff9091161778010000000000000000000000000000000000000000000000004267ffffffffffffffff1602178087556001870180547fffffffffffffffffffffffffffffffff00000000000000000000000000000000166fffffffffffffffffffffffffffffffff8b16179055600780547fffffffffffffffffffff0000ffffffffffffffffffffffffffffffffffffffff8316740100000000000000000000000000000000000000009182900461ffff90811683029182178b5583547fffffffffffffffff00000000ffffffffffffffffffffffffffffffffffffffff9095167fffffffffffffffff0000ffffffffffffffffffffffffffffffffffffffffffff909216919091177601000000000000000000000000000000000000000000009485900482168502178a559154908104821692611fbe929104166201518061241e565b611fc891906123d2565b611fd2904261238b565b60ff8a16600081815260016020908152604091829020805467ffffffffffffffff959095167fffffffffffffffffffffffffffffffffffffffffffffffff00000000000000009095169490941790935560075481516fffffffffffffffffffffffffffffffff8d811682528a169481019490945261ffff7401000000000000000000000000000000000000000082048116858401527601000000000000000000000000000000000000000000009091041660608401525173ffffffffffffffffffffffffffffffffffffffff8a16923392917f6190ecb308529ed5355b9d692732314745e0acbc6c8270baf94bab524f03eed49181900360800190a4505050505050505050565b80356fffffffffffffffffffffffffffffffff811681146106d757600080fd5b803561ffff811681146106d757600080fd5b803560ff811681146106d757600080fd5b60006020828403121561212d578081fd5b813561213881612501565b9392505050565b600060208284031215612150578081fd5b81518015158114612138578182fd5b60008060008060808587031215612174578283fd5b843561217f81612501565b9350602085013561218f81612501565b925061219d604086016120f9565b91506121ab606086016120f9565b905092959194509250565b6000602082840312156121c7578081fd5b612138826120d9565b600080600080600060a086880312156121e7578081fd5b6121f0866120d9565b9450602086013593506122056040870161210b565b94979396509394606081013594506080013592915050565b6000806040838503121561222f578182fd5b612238836120f9565b9150612246602084016120f9565b90509250929050565b600060208284031215612260578081fd5b6121388261210b565b6000806040838503121561227b578182fd5b6122848361210b565b9150602083013561229481612501565b809150509250929050565b6000806000606084860312156122b3578283fd5b6122bc8461210b565b92506122ca602085016120d9565b915060408401356122da81612501565b809150509250925092565b600080600080600080600060e0888a0312156122ff578182fd5b6123088861210b565b9650612316602089016120d9565b9550604088013561232681612501565b94506060880135935061233b6080890161210b565b925060a0880135915060c0880135905092959891949750929550565b60006fffffffffffffffffffffffffffffffff808316818516808303821115612382576123826124a3565b01949350505050565b6000821982111561239e5761239e6124a3565b500190565b60006fffffffffffffffffffffffffffffffff808416806123c6576123c66124d2565b92169190910492915050565b6000826123e1576123e16124d2565b500490565b60006fffffffffffffffffffffffffffffffff80831681851681830481118215151615612415576124156124a3565b02949350505050565b6000817fffffffffffffffffffffffffffffffffffffffffffffffffffffffffffffffff0483118215151615612456576124566124a3565b500290565b60006fffffffffffffffffffffffffffffffff83811690831681811015612484576124846124a3565b039392505050565b60008282101561249e5761249e6124a3565b500390565b7f4e487b7100000000000000000000000000000000000000000000000000000000600052601160045260246000fd5b7f4e487b7100000000000000000000000000000000000000000000000000000000600052601260045260246000fd5b73ffffffffffffffffffffffffffffffffffffffff8116811461252357600080fd5b5056fea26469706673582212208dc761760465df55cd5ccecd2d2088da170b5c027f4c2dd3a4991ace9e5a20c364736f6c63430008030033",
  "devdoc": {
    "details": "It is VERY IMPORTANT that modifications to this contract do not change the storage layout of the existing variables.   Be especially careful when importing any external contracts/libraries. If you do not know what any of this means, BACK AWAY FROM THE CODE NOW!!",
    "kind": "dev",
    "methods": {},
    "title": "SlotMarket",
    "version": 1
  },
  "userdoc": {
    "kind": "user",
    "methods": {},
    "version": 1
  },
  "storageLayout": {
    "storage": [
      {
        "astId": 4067,
        "contract": "contracts/SlotMarket.sol:SlotMarket",
        "label": "_initialized",
        "offset": 0,
        "slot": "0",
        "type": "t_bool"
      },
      {
        "astId": 4070,
        "contract": "contracts/SlotMarket.sol:SlotMarket",
        "label": "_initializing",
        "offset": 1,
        "slot": "0",
        "type": "t_bool"
      },
      {
        "astId": 794,
        "contract": "contracts/SlotMarket.sol:SlotMarket",
        "label": "slotExpiration",
        "offset": 0,
        "slot": "1",
        "type": "t_mapping(t_uint8,t_uint64)"
      },
      {
        "astId": 798,
        "contract": "contracts/SlotMarket.sol:SlotMarket",
        "label": "_slotDelegate",
        "offset": 0,
        "slot": "2",
        "type": "t_mapping(t_uint8,t_address)"
      },
      {
        "astId": 802,
        "contract": "contracts/SlotMarket.sol:SlotMarket",
        "label": "_slotOwner",
        "offset": 0,
        "slot": "3",
        "type": "t_mapping(t_uint8,t_address)"
      },
      {
        "astId": 807,
        "contract": "contracts/SlotMarket.sol:SlotMarket",
        "label": "slotBid",
        "offset": 0,
        "slot": "4",
        "type": "t_mapping(t_uint8,t_struct(Bid)790_storage)"
      },
      {
        "astId": 811,
        "contract": "contracts/SlotMarket.sol:SlotMarket",
        "label": "stakedBalance",
        "offset": 0,
        "slot": "5",
        "type": "t_mapping(t_address,t_uint128)"
      },
      {
        "astId": 814,
        "contract": "contracts/SlotMarket.sol:SlotMarket",
        "label": "token",
        "offset": 0,
        "slot": "6",
        "type": "t_contract(IERC20Extended)2166"
      },
      {
        "astId": 816,
        "contract": "contracts/SlotMarket.sol:SlotMarket",
        "label": "admin",
        "offset": 0,
        "slot": "7",
        "type": "t_address"
      },
      {
        "astId": 818,
        "contract": "contracts/SlotMarket.sol:SlotMarket",
        "label": "taxNumerator",
        "offset": 20,
        "slot": "7",
        "type": "t_uint16"
      },
      {
        "astId": 820,
        "contract": "contracts/SlotMarket.sol:SlotMarket",
        "label": "taxDenominator",
        "offset": 22,
        "slot": "7",
        "type": "t_uint16"
      },
      {
        "astId": 822,
        "contract": "contracts/SlotMarket.sol:SlotMarket",
        "label": "MIN_BID",
        "offset": 0,
        "slot": "8",
        "type": "t_uint128"
      },
      {
        "astId": 824,
        "contract": "contracts/SlotMarket.sol:SlotMarket",
        "label": "_NOT_ENTERED",
        "offset": 0,
        "slot": "9",
        "type": "t_uint256"
      },
      {
        "astId": 826,
        "contract": "contracts/SlotMarket.sol:SlotMarket",
        "label": "_ENTERED",
        "offset": 0,
        "slot": "10",
        "type": "t_uint256"
      },
      {
        "astId": 828,
        "contract": "contracts/SlotMarket.sol:SlotMarket",
        "label": "_status",
        "offset": 0,
        "slot": "11",
        "type": "t_uint256"
      }
    ],
    "types": {
      "t_address": {
        "encoding": "inplace",
        "label": "address",
        "numberOfBytes": "20"
      },
      "t_bool": {
        "encoding": "inplace",
        "label": "bool",
        "numberOfBytes": "1"
      },
      "t_contract(IERC20Extended)2166": {
        "encoding": "inplace",
        "label": "contract IERC20Extended",
        "numberOfBytes": "20"
      },
      "t_mapping(t_address,t_uint128)": {
        "encoding": "mapping",
        "key": "t_address",
        "label": "mapping(address => uint128)",
        "numberOfBytes": "32",
        "value": "t_uint128"
      },
      "t_mapping(t_uint8,t_address)": {
        "encoding": "mapping",
        "key": "t_uint8",
        "label": "mapping(uint8 => address)",
        "numberOfBytes": "32",
        "value": "t_address"
      },
      "t_mapping(t_uint8,t_struct(Bid)790_storage)": {
        "encoding": "mapping",
        "key": "t_uint8",
        "label": "mapping(uint8 => struct SlotMarket.Bid)",
        "numberOfBytes": "32",
        "value": "t_struct(Bid)790_storage"
      },
      "t_mapping(t_uint8,t_uint64)": {
        "encoding": "mapping",
        "key": "t_uint8",
        "label": "mapping(uint8 => uint64)",
        "numberOfBytes": "32",
        "value": "t_uint64"
      },
      "t_struct(Bid)790_storage": {
        "encoding": "inplace",
        "label": "struct SlotMarket.Bid",
        "members": [
          {
            "astId": 781,
            "contract": "contracts/SlotMarket.sol:SlotMarket",
            "label": "bidder",
            "offset": 0,
            "slot": "0",
            "type": "t_address"
          },
          {
            "astId": 783,
            "contract": "contracts/SlotMarket.sol:SlotMarket",
            "label": "taxNumerator",
            "offset": 20,
            "slot": "0",
            "type": "t_uint16"
          },
          {
            "astId": 785,
            "contract": "contracts/SlotMarket.sol:SlotMarket",
            "label": "taxDenominator",
            "offset": 22,
            "slot": "0",
            "type": "t_uint16"
          },
          {
            "astId": 787,
            "contract": "contracts/SlotMarket.sol:SlotMarket",
            "label": "periodStart",
            "offset": 24,
            "slot": "0",
            "type": "t_uint64"
          },
          {
            "astId": 789,
            "contract": "contracts/SlotMarket.sol:SlotMarket",
            "label": "bidAmount",
            "offset": 0,
            "slot": "1",
            "type": "t_uint128"
          }
        ],
        "numberOfBytes": "64"
      },
      "t_uint128": {
        "encoding": "inplace",
        "label": "uint128",
        "numberOfBytes": "16"
      },
      "t_uint16": {
        "encoding": "inplace",
        "label": "uint16",
        "numberOfBytes": "2"
      },
      "t_uint256": {
        "encoding": "inplace",
        "label": "uint256",
        "numberOfBytes": "32"
      },
      "t_uint64": {
        "encoding": "inplace",
        "label": "uint64",
        "numberOfBytes": "8"
      },
      "t_uint8": {
        "encoding": "inplace",
        "label": "uint8",
        "numberOfBytes": "1"
      }
    }
  }
}