{
  "address": "0xf1E3FC4573335B00e4e2D128185e7C410A24f73C",
  "abi": [
    {
      "inputs": [],
      "stateMutability": "nonpayable",
      "type": "constructor"
    },
    {
      "anonymous": false,
      "inputs": [
        {
          "indexed": true,
          "internalType": "address",
          "name": "oldAdmin",
          "type": "address"
        },
        {
          "indexed": true,
          "internalType": "address",
          "name": "newAdmin",
          "type": "address"
        }
      ],
      "name": "AdminChanged",
      "type": "event"
    },
    {
      "anonymous": false,
      "inputs": [
        {
          "indexed": true,
          "internalType": "address",
          "name": "oldSlotMarketProxy",
          "type": "address"
        },
        {
          "indexed": true,
          "internalType": "address",
          "name": "newSlotMarketProxy",
          "type": "address"
        }
      ],
      "name": "SlotMarketProxyChanged",
      "type": "event"
    },
    {
      "inputs": [],
      "name": "admin",
      "outputs": [
        {
          "internalType": "address",
          "name": "",
          "type": "address"
        }
      ],
      "stateMutability": "view",
      "type": "function"
    },
    {
      "inputs": [],
      "name": "getProxyAdmin",
      "outputs": [
        {
          "internalType": "address",
          "name": "",
          "type": "address"
        }
      ],
      "stateMutability": "view",
      "type": "function"
    },
    {
      "inputs": [],
      "name": "getProxyImplementation",
      "outputs": [
        {
          "internalType": "address",
          "name": "",
          "type": "address"
        }
      ],
      "stateMutability": "view",
      "type": "function"
    },
    {
      "inputs": [
        {
          "internalType": "address",
          "name": "_slotMarketProxy",
          "type": "address"
        },
        {
          "internalType": "address",
          "name": "_admin",
          "type": "address"
        }
      ],
      "name": "initialize",
      "outputs": [],
      "stateMutability": "nonpayable",
      "type": "function"
    },
    {
      "inputs": [
        {
          "internalType": "address",
          "name": "newAdmin",
          "type": "address"
        }
      ],
      "name": "setAdmin",
      "outputs": [],
      "stateMutability": "nonpayable",
      "type": "function"
    },
    {
      "inputs": [
        {
          "internalType": "address",
          "name": "newAdmin",
          "type": "address"
        }
      ],
      "name": "setProxyAdmin",
      "outputs": [],
      "stateMutability": "nonpayable",
      "type": "function"
    },
    {
      "inputs": [
        {
          "internalType": "address",
          "name": "newSlotMarketProxy",
          "type": "address"
        }
      ],
      "name": "setSlotMarketProxy",
      "outputs": [],
      "stateMutability": "nonpayable",
      "type": "function"
    },
    {
      "inputs": [],
      "name": "slotMarketProxy",
      "outputs": [
        {
          "internalType": "address",
          "name": "",
          "type": "address"
        }
      ],
      "stateMutability": "view",
      "type": "function"
    },
    {
      "inputs": [
        {
          "internalType": "address",
          "name": "newImplementation",
          "type": "address"
        }
      ],
      "name": "upgrade",
      "outputs": [],
      "stateMutability": "nonpayable",
      "type": "function"
    },
    {
      "inputs": [
        {
          "internalType": "address",
          "name": "newImplementation",
          "type": "address"
        },
        {
          "internalType": "bytes",
          "name": "data",
          "type": "bytes"
        }
      ],
      "name": "upgradeAndCall",
      "outputs": [],
      "stateMutability": "payable",
      "type": "function"
    }
  ],
  "transactionHash": "0xf66b841a93bd50cfed128f0a63e3a4f9f054648749303c2dea5aa82401600a75",
  "args": [],
  "solcInputHash": "c2047ea3ebd11a71bd1ec286aad6032e",
  "bytecode": "0x608060405234801561001057600080fd5b506000805462010000600160b01b031916336201000081029190911782556040519091907f7e644d79422f17c01e4894b5f4f588d331ebfa28653d42ae832dc59e38c9798f908290a3611033806100686000396000f3fe6080604052600436106100b15760003560e01c8063704b6c021161006957806390e4b7201161004e57806390e4b720146101b6578063d9e659d8146101cb578063f851a440146101eb576100b1565b8063704b6c02146101815780638b3240a0146101a1576100b1565b80632a6a833b1161009a5780632a6a833b1461012e57806347c0266114610141578063485cc95514610161576100b1565b80630900f010146100b6578063171d99af146100d8575b600080fd5b3480156100c257600080fd5b506100d66100d1366004610d9b565b61021e565b005b3480156100e457600080fd5b506001546101059073ffffffffffffffffffffffffffffffffffffffff1681565b60405173ffffffffffffffffffffffffffffffffffffffff909116815260200160405180910390f35b6100d661013c366004610e12565b610407565b34801561014d57600080fd5b506100d661015c366004610d9b565b6105f3565b34801561016d57600080fd5b506100d661017c366004610dda565b6107d3565b34801561018d57600080fd5b506100d661019c366004610d9b565b610a62565b3480156101ad57600080fd5b50610105610b82565b3480156101c257600080fd5b50610105610c37565b3480156101d757600080fd5b506100d66101e6366004610d9b565b610c86565b3480156101f757600080fd5b506000546101059062010000900473ffffffffffffffffffffffffffffffffffffffff1681565b60005462010000900473ffffffffffffffffffffffffffffffffffffffff1633146102aa576040517f08c379a000000000000000000000000000000000000000000000000000000000815260206004820152600960248201527f6e6f742061646d696e000000000000000000000000000000000000000000000060448201526064015b60405180910390fd5b60015460405173ffffffffffffffffffffffffffffffffffffffff83811660248301526000921690604401604080517fffffffffffffffffffffffffffffffffffffffffffffffffffffffffffffffe08184030181529181526020820180517bffffffffffffffffffffffffffffffffffffffffffffffffffffffff167f3659cfe600000000000000000000000000000000000000000000000000000000179052516103569190610eef565b6000604051808303816000865af19150503d8060008114610393576040519150601f19603f3d011682016040523d82523d6000602084013e610398565b606091505b5050905080610403576040517f08c379a000000000000000000000000000000000000000000000000000000000815260206004820152600e60248201527f75706772616465206661696c656400000000000000000000000000000000000060448201526064016102a1565b5050565b60005462010000900473ffffffffffffffffffffffffffffffffffffffff16331461048e576040517f08c379a000000000000000000000000000000000000000000000000000000000815260206004820152600960248201527f6e6f742061646d696e000000000000000000000000000000000000000000000060448201526064016102a1565b60015460405160009173ffffffffffffffffffffffffffffffffffffffff169034906104c09086908690602401610f0b565b604080517fffffffffffffffffffffffffffffffffffffffffffffffffffffffffffffffe08184030181529181526020820180517bffffffffffffffffffffffffffffffffffffffffffffffffffffffff167f4f1ef28600000000000000000000000000000000000000000000000000000000179052516105419190610eef565b60006040518083038185875af1925050503d806000811461057e576040519150601f19603f3d011682016040523d82523d6000602084013e610583565b606091505b50509050806105ee576040517f08c379a000000000000000000000000000000000000000000000000000000000815260206004820152601560248201527f75706772616465416e6443616c6c206661696c6564000000000000000000000060448201526064016102a1565b505050565b60005462010000900473ffffffffffffffffffffffffffffffffffffffff16331461067a576040517f08c379a000000000000000000000000000000000000000000000000000000000815260206004820152600960248201527f6e6f742061646d696e000000000000000000000000000000000000000000000060448201526064016102a1565b60015460405173ffffffffffffffffffffffffffffffffffffffff83811660248301526000921690604401604080517fffffffffffffffffffffffffffffffffffffffffffffffffffffffffffffffe08184030181529181526020820180517bffffffffffffffffffffffffffffffffffffffffffffffffffffffff167f8f28397000000000000000000000000000000000000000000000000000000000179052516107269190610eef565b6000604051808303816000865af19150503d8060008114610763576040519150601f19603f3d011682016040523d82523d6000602084013e610768565b606091505b5050905080610403576040517f08c379a000000000000000000000000000000000000000000000000000000000815260206004820152601460248201527f73657450726f787941646d696e206661696c656400000000000000000000000060448201526064016102a1565b600054610100900460ff16806107ec575060005460ff16155b610878576040517f08c379a000000000000000000000000000000000000000000000000000000000815260206004820152602e60248201527f496e697469616c697a61626c653a20636f6e747261637420697320616c72656160448201527f647920696e697469616c697a656400000000000000000000000000000000000060648201526084016102a1565b600054610100900460ff161580156108b757600080547fffffffffffffffffffffffffffffffffffffffffffffffffffffffffffff0000166101011790555b60005462010000900473ffffffffffffffffffffffffffffffffffffffff16331461093e576040517f08c379a000000000000000000000000000000000000000000000000000000000815260206004820152600960248201527f6e6f742061646d696e000000000000000000000000000000000000000000000060448201526064016102a1565b6000805460405173ffffffffffffffffffffffffffffffffffffffff808616936201000090930416917f7e644d79422f17c01e4894b5f4f588d331ebfa28653d42ae832dc59e38c9798f91a36000805473ffffffffffffffffffffffffffffffffffffffff80851662010000027fffffffffffffffffffff0000000000000000000000000000000000000000ffff909216919091178255600180549186167fffffffffffffffffffffffff0000000000000000000000000000000000000000909216821790556040519091907f9ad2abc7c4f384abb2c11bab0283d12432ae574c67a0ba27f3e74d1a2e12215f908290a380156105ee57600080547fffffffffffffffffffffffffffffffffffffffffffffffffffffffffffff00ff169055505050565b60005462010000900473ffffffffffffffffffffffffffffffffffffffff163314610ae9576040517f08c379a000000000000000000000000000000000000000000000000000000000815260206004820152600960248201527f6e6f742061646d696e000000000000000000000000000000000000000000000060448201526064016102a1565b6000805460405173ffffffffffffffffffffffffffffffffffffffff808516936201000090930416917f7e644d79422f17c01e4894b5f4f588d331ebfa28653d42ae832dc59e38c9798f91a36000805473ffffffffffffffffffffffffffffffffffffffff90921662010000027fffffffffffffffffffff0000000000000000000000000000000000000000ffff909216919091179055565b6001546040517ff851a4400000000000000000000000000000000000000000000000000000000081526000918291829173ffffffffffffffffffffffffffffffffffffffff16906004015b600060405180830381855afa9150503d8060008114610c08576040519150601f19603f3d011682016040523d82523d6000602084013e610c0d565b606091505b509150915081610c1c57600080fd5b80806020019051810190610c309190610dbe565b9250505090565b6001546040517f5c60da1b0000000000000000000000000000000000000000000000000000000081526000918291829173ffffffffffffffffffffffffffffffffffffffff1690600401610bcd565b60005462010000900473ffffffffffffffffffffffffffffffffffffffff163314610d0d576040517f08c379a000000000000000000000000000000000000000000000000000000000815260206004820152600960248201527f6e6f742061646d696e000000000000000000000000000000000000000000000060448201526064016102a1565b60015460405173ffffffffffffffffffffffffffffffffffffffff8084169216907f9ad2abc7c4f384abb2c11bab0283d12432ae574c67a0ba27f3e74d1a2e12215f90600090a3600180547fffffffffffffffffffffffff00000000000000000000000000000000000000001673ffffffffffffffffffffffffffffffffffffffff92909216919091179055565b600060208284031215610dac578081fd5b8135610db781610fd8565b9392505050565b600060208284031215610dcf578081fd5b8151610db781610fd8565b60008060408385031215610dec578081fd5b8235610df781610fd8565b91506020830135610e0781610fd8565b809150509250929050565b60008060408385031215610e24578182fd5b8235610e2f81610fd8565b9150602083013567ffffffffffffffff80821115610e4b578283fd5b818501915085601f830112610e5e578283fd5b813581811115610e7057610e70610fa9565b604051601f82017fffffffffffffffffffffffffffffffffffffffffffffffffffffffffffffffe0908116603f01168101908382118183101715610eb657610eb6610fa9565b81604052828152886020848701011115610ece578586fd5b82602086016020830137856020848301015280955050505050509250929050565b60008251610f01818460208701610f79565b9190910192915050565b600073ffffffffffffffffffffffffffffffffffffffff84168252604060208301528251806040840152610f46816060850160208701610f79565b601f017fffffffffffffffffffffffffffffffffffffffffffffffffffffffffffffffe016919091016060019392505050565b60005b83811015610f94578181015183820152602001610f7c565b83811115610fa3576000848401525b50505050565b7f4e487b7100000000000000000000000000000000000000000000000000000000600052604160045260246000fd5b73ffffffffffffffffffffffffffffffffffffffff81168114610ffa57600080fd5b5056fea26469706673582212209f6c858267b522b95f54015ee3435bff6d92d2013beffebeeb5b7f848bf0221864736f6c63430008030033",
  "devdoc": {
    "kind": "dev",
    "methods": {
      "initialize(address,address)": {
        "params": {
          "_admin": "Admin address",
          "_slotMarketProxy": "SlotMarket proxy contract address"
        }
      },
      "setAdmin(address)": {
        "details": "Can only be executed by admin",
        "params": {
          "newAdmin": "new admin address"
        }
      },
      "setProxyAdmin(address)": {
        "params": {
          "newAdmin": "new admin address"
        }
      },
      "setSlotMarketProxy(address)": {
        "details": "Can only be executed by admin",
        "params": {
          "newSlotMarketProxy": "new slot market proxy address"
        }
      },
      "upgrade(address)": {
        "params": {
          "newImplementation": "new implementation address"
        }
      },
      "upgradeAndCall(address,bytes)": {
        "params": {
          "data": "Bytes-encoded function to call",
          "newImplementation": "new implementation address"
        }
      }
    },
    "title": "SlotMarketManager",
    "version": 1
  },
  "userdoc": {
    "events": {
      "AdminChanged(address,address)": {
        "notice": "New admin event"
      },
      "SlotMarketProxyChanged(address,address)": {
        "notice": "New slot market proxy event"
      }
    },
    "kind": "user",
    "methods": {
      "admin()": {
        "notice": "SlotMarketManager admin"
      },
      "constructor": {
        "notice": "Construct new SlotMarketManager contract, setting msg.sender as admin"
      },
      "getProxyAdmin()": {
        "notice": "Public getter for SlotMarket Proxy admin address"
      },
      "getProxyImplementation()": {
        "notice": "Public getter for SlotMarket Proxy implementation contract address"
      },
      "initialize(address,address)": {
        "notice": "Initialize contract"
      },
      "setAdmin(address)": {
        "notice": "Set new admin for this contract"
      },
      "setProxyAdmin(address)": {
        "notice": "Set new admin for SlotMarket proxy contract"
      },
      "setSlotMarketProxy(address)": {
        "notice": "Set new slot market proxy contract"
      },
      "slotMarketProxy()": {
        "notice": "SlotMarketProxy address"
      },
      "upgrade(address)": {
        "notice": "Set new implementation for SlotMarket proxy contract"
      },
      "upgradeAndCall(address,bytes)": {
        "notice": "Set new implementation for SlotMarket proxy contract + call function after"
      }
    },
    "version": 1
  },
  "storageLayout": {
    "storage": [
      {
        "astId": 4067,
        "contract": "contracts/SlotMarketManager.sol:SlotMarketManager",
        "label": "_initialized",
        "offset": 0,
        "slot": "0",
        "type": "t_bool"
      },
      {
        "astId": 4070,
        "contract": "contracts/SlotMarketManager.sol:SlotMarketManager",
        "label": "_initializing",
        "offset": 1,
        "slot": "0",
        "type": "t_bool"
      },
      {
        "astId": 1677,
        "contract": "contracts/SlotMarketManager.sol:SlotMarketManager",
        "label": "admin",
        "offset": 2,
        "slot": "0",
        "type": "t_address"
      },
      {
        "astId": 1680,
        "contract": "contracts/SlotMarketManager.sol:SlotMarketManager",
        "label": "slotMarketProxy",
        "offset": 0,
        "slot": "1",
        "type": "t_address"
      }
    ],
    "types": {
      "t_address": {
        "encoding": "inplace",
        "label": "address",
        "numberOfBytes": "20"
      },
      "t_bool": {
        "encoding": "inplace",
        "label": "bool",
        "numberOfBytes": "1"
      }
    }
  }
}