{
  "address": "0xC779A854047A06244Ae6BDB648290D364cd971E8",
  "abi": [
    {
      "anonymous": false,
      "inputs": [
        {
          "indexed": true,
          "internalType": "address",
          "name": "oldOwner",
          "type": "address"
        },
        {
          "indexed": true,
          "internalType": "address",
          "name": "newOwner",
          "type": "address"
        }
      ],
      "name": "ChangedOwner",
      "type": "event"
    },
    {
      "anonymous": false,
      "inputs": [
        {
          "indexed": true,
          "internalType": "address",
          "name": "user",
          "type": "address"
        },
        {
          "indexed": true,
          "internalType": "address",
          "name": "token",
          "type": "address"
        },
        {
          "indexed": true,
          "internalType": "uint256",
          "name": "amount",
          "type": "uint256"
        },
        {
          "indexed": false,
          "internalType": "uint256",
          "name": "votingPower",
          "type": "uint256"
        }
      ],
      "name": "Staked",
      "type": "event"
    },
    {
      "anonymous": false,
      "inputs": [
        {
          "indexed": true,
          "internalType": "address",
          "name": "voter",
          "type": "address"
        },
        {
          "indexed": true,
          "internalType": "uint256",
          "name": "previousBalance",
          "type": "uint256"
        },
        {
          "indexed": true,
          "internalType": "uint256",
          "name": "newBalance",
          "type": "uint256"
        }
      ],
      "name": "VotingPowerChanged",
      "type": "event"
    },
    {
      "anonymous": false,
      "inputs": [
        {
          "indexed": true,
          "internalType": "address",
          "name": "user",
          "type": "address"
        },
        {
          "indexed": true,
          "internalType": "address",
          "name": "token",
          "type": "address"
        },
        {
          "indexed": true,
          "internalType": "uint256",
          "name": "amount",
          "type": "uint256"
        },
        {
          "indexed": false,
          "internalType": "uint256",
          "name": "votingPower",
          "type": "uint256"
        }
      ],
      "name": "Withdrawn",
      "type": "event"
    },
    {
      "inputs": [
        {
          "internalType": "address",
          "name": "account",
          "type": "address"
        },
        {
          "internalType": "uint256",
          "name": "amount",
          "type": "uint256"
        }
      ],
      "name": "addVotingPowerForLockedTokens",
      "outputs": [],
      "stateMutability": "nonpayable",
      "type": "function"
    },
    {
      "inputs": [
        {
          "internalType": "address",
          "name": "account",
          "type": "address"
        }
      ],
      "name": "balanceOf",
      "outputs": [
        {
          "internalType": "uint256",
          "name": "",
          "type": "uint256"
        }
      ],
      "stateMutability": "view",
      "type": "function"
    },
    {
      "inputs": [
        {
          "internalType": "address",
          "name": "account",
          "type": "address"
        },
        {
          "internalType": "uint256",
          "name": "blockNumber",
          "type": "uint256"
        }
      ],
      "name": "balanceOfAt",
      "outputs": [
        {
          "internalType": "uint256",
          "name": "",
          "type": "uint256"
        }
      ],
      "stateMutability": "view",
      "type": "function"
    },
    {
      "inputs": [
        {
          "internalType": "contract PrismProxy",
          "name": "prism",
          "type": "address"
        }
      ],
      "name": "become",
      "outputs": [],
      "stateMutability": "nonpayable",
      "type": "function"
    },
    {
      "inputs": [
        {
          "internalType": "address",
          "name": "newOwner",
          "type": "address"
        }
      ],
      "name": "changeOwner",
      "outputs": [],
      "stateMutability": "nonpayable",
      "type": "function"
    },
    {
      "inputs": [],
      "name": "decimals",
      "outputs": [
        {
          "internalType": "uint8",
          "name": "",
          "type": "uint8"
        }
      ],
      "stateMutability": "pure",
      "type": "function"
    },
    {
      "inputs": [],
      "name": "edenToken",
      "outputs": [
        {
          "internalType": "address",
          "name": "",
          "type": "address"
        }
      ],
      "stateMutability": "view",
      "type": "function"
    },
    {
      "inputs": [
        {
          "internalType": "address",
          "name": "staker",
          "type": "address"
        },
        {
          "internalType": "address",
          "name": "stakedToken",
          "type": "address"
        }
      ],
      "name": "getAmountStaked",
      "outputs": [
        {
          "internalType": "uint256",
          "name": "",
          "type": "uint256"
        }
      ],
      "stateMutability": "view",
      "type": "function"
    },
    {
      "inputs": [
        {
          "internalType": "address",
          "name": "staker",
          "type": "address"
        }
      ],
      "name": "getEDENAmountStaked",
      "outputs": [
        {
          "internalType": "uint256",
          "name": "",
          "type": "uint256"
        }
      ],
      "stateMutability": "view",
      "type": "function"
    },
    {
      "inputs": [
        {
          "internalType": "address",
          "name": "staker",
          "type": "address"
        }
      ],
      "name": "getEDENStake",
      "outputs": [
        {
          "components": [
            {
              "internalType": "uint256",
              "name": "amount",
              "type": "uint256"
            },
            {
              "internalType": "uint256",
              "name": "votingPower",
              "type": "uint256"
            }
          ],
          "internalType": "struct Stake",
          "name": "",
          "type": "tuple"
        }
      ],
      "stateMutability": "view",
      "type": "function"
    },
    {
      "inputs": [
        {
          "internalType": "address",
          "name": "staker",
          "type": "address"
        },
        {
          "internalType": "address",
          "name": "stakedToken",
          "type": "address"
        }
      ],
      "name": "getStake",
      "outputs": [
        {
          "components": [
            {
              "internalType": "uint256",
              "name": "amount",
              "type": "uint256"
            },
            {
              "internalType": "uint256",
              "name": "votingPower",
              "type": "uint256"
            }
          ],
          "internalType": "struct Stake",
          "name": "",
          "type": "tuple"
        }
      ],
      "stateMutability": "view",
      "type": "function"
    },
    {
      "inputs": [
        {
          "internalType": "address",
          "name": "_edenToken",
          "type": "address"
        },
        {
          "internalType": "address",
          "name": "_owner",
          "type": "address"
        }
      ],
      "name": "initialize",
      "outputs": [],
      "stateMutability": "nonpayable",
      "type": "function"
    },
    {
      "inputs": [],
      "name": "lockManager",
      "outputs": [
        {
          "internalType": "address",
          "name": "",
          "type": "address"
        }
      ],
      "stateMutability": "view",
      "type": "function"
    },
    {
      "inputs": [],
      "name": "owner",
      "outputs": [
        {
          "internalType": "address",
          "name": "",
          "type": "address"
        }
      ],
      "stateMutability": "view",
      "type": "function"
    },
    {
      "inputs": [
        {
          "internalType": "address",
          "name": "account",
          "type": "address"
        },
        {
          "internalType": "uint256",
          "name": "amount",
          "type": "uint256"
        }
      ],
      "name": "removeVotingPowerForUnlockedTokens",
      "outputs": [],
      "stateMutability": "nonpayable",
      "type": "function"
    },
    {
      "inputs": [
        {
          "internalType": "address",
          "name": "newLockManager",
          "type": "address"
        }
      ],
      "name": "setLockManager",
      "outputs": [],
      "stateMutability": "nonpayable",
      "type": "function"
    },
    {
      "inputs": [
        {
          "internalType": "address",
          "name": "registry",
          "type": "address"
        }
      ],
      "name": "setTokenRegistry",
      "outputs": [],
      "stateMutability": "nonpayable",
      "type": "function"
    },
    {
      "inputs": [
        {
          "internalType": "uint256",
          "name": "amount",
          "type": "uint256"
        }
      ],
      "name": "stake",
      "outputs": [],
      "stateMutability": "nonpayable",
      "type": "function"
    },
    {
      "inputs": [
        {
          "internalType": "address",
          "name": "token",
          "type": "address"
        },
        {
          "internalType": "uint256",
          "name": "amount",
          "type": "uint256"
        }
      ],
      "name": "stake",
      "outputs": [],
      "stateMutability": "nonpayable",
      "type": "function"
    },
    {
      "inputs": [
        {
          "internalType": "uint256",
          "name": "amount",
          "type": "uint256"
        },
        {
          "internalType": "uint256",
          "name": "deadline",
          "type": "uint256"
        },
        {
          "internalType": "uint8",
          "name": "v",
          "type": "uint8"
        },
        {
          "internalType": "bytes32",
          "name": "r",
          "type": "bytes32"
        },
        {
          "internalType": "bytes32",
          "name": "s",
          "type": "bytes32"
        }
      ],
      "name": "stakeWithPermit",
      "outputs": [],
      "stateMutability": "nonpayable",
      "type": "function"
    },
    {
      "inputs": [],
      "name": "tokenRegistry",
      "outputs": [
        {
          "internalType": "address",
          "name": "",
          "type": "address"
        }
      ],
      "stateMutability": "view",
      "type": "function"
    },
    {
      "inputs": [
        {
          "internalType": "uint256",
          "name": "amount",
          "type": "uint256"
        }
      ],
      "name": "withdraw",
      "outputs": [],
      "stateMutability": "nonpayable",
      "type": "function"
    },
    {
      "inputs": [
        {
          "internalType": "address",
          "name": "token",
          "type": "address"
        },
        {
          "internalType": "uint256",
          "name": "amount",
          "type": "uint256"
        }
      ],
      "name": "withdraw",
      "outputs": [],
      "stateMutability": "nonpayable",
      "type": "function"
    }
  ],
  "transactionHash": "0xb1072f3c902fe1ef460c04066ee51c3ae7bcf69eee71af1bf2524a4c1454de8b",
  "args": [],
  "solcInputHash": "25652fa7cefe72deed3db64da926a067",
  "bytecode": "0x608060405234801561001057600080fd5b506135c1806100206000396000f3fe608060405234801561001057600080fd5b506004361061018d5760003560e01c80639d23c4c7116100e3578063acca30a21161008c578063deedfdbd11610066578063deedfdbd146104f3578063ecd9ba8214610506578063f3fef3a31461051957600080fd5b8063acca30a214610490578063adc9772e146104cd578063c7c55d52146104e057600080fd5b8063a694fc3a116100bd578063a694fc3a14610457578063a6f9dae11461046a578063a83309a61461047d57600080fd5b80639d23c4c7146103ca578063a1194c8e14610407578063a5e51f0c1461041a57600080fd5b80634ee2cd7e1161014557806382dda22d1161011f57806382dda22d146102b65780638da5cb5b146103595780639cc7a367146103b757600080fd5b80634ee2cd7e146101f457806370a08231146102155780637741459e1461022857600080fd5b8063313ce56711610176578063313ce567146101ba57806335a5af92146101ce578063485cc955146101e157600080fd5b80630bae5b7c146101925780632e1a7d4d146101a7575b600080fd5b6101a56101a0366004613281565b61052c565b005b6101a56101b53660046132cf565b61070d565b604051601281526020015b60405180910390f35b6101a56101dc36600461320e565b610855565b6101a56101ef366004613248565b61097e565b610207610202366004613281565b610b31565b6040519081526020016101c5565b61020761022336600461320e565b610e57565b610207610236366004613248565b6040805180820182526000808252602091820181905273ffffffffffffffffffffffffffffffffffffffff80861682527fb436861a9ea50c2256cd6ef2eb5e3092874d3eddb554844f2d197b6df51da098835283822090851682528252828120835180850190945280548452600101549183019190915290519392505050565b61033e6102c4366004613248565b6040805180820182526000808252602091820181905273ffffffffffffffffffffffffffffffffffffffff94851681527fb436861a9ea50c2256cd6ef2eb5e3092874d3eddb554844f2d197b6df51da098825282812093909416845291825291829020825180840190935280548352600101549082015290565b604080518251815260209283015192810192909252016101c5565b7f6d6a6fc321e0562f469846e9b1d74d90faeed9d71336854ad7fe2be150ff9f225473ffffffffffffffffffffffffffffffffffffffff165b60405173ffffffffffffffffffffffffffffffffffffffff90911681526020016101c5565b6101a56103c5366004613281565b610f28565b7f6d6a6fc321e0562f469846e9b1d74d90faeed9d71336854ad7fe2be150ff9f245473ffffffffffffffffffffffffffffffffffffffff16610392565b6101a561041536600461320e565b6110fb565b7f6d6a6fc321e0562f469846e9b1d74d90faeed9d71336854ad7fe2be150ff9f215473ffffffffffffffffffffffffffffffffffffffff16610392565b6101a56104653660046132cf565b611346565b6101a561047836600461320e565b6116aa565b61033e61048b36600461320e565b611906565b7f6d6a6fc321e0562f469846e9b1d74d90faeed9d71336854ad7fe2be150ff9f235473ffffffffffffffffffffffffffffffffffffffff16610392565b6101a56104db366004613281565b6119d6565b6102076104ee36600461320e565b611f13565b6101a561050136600461320e565b611f25565b6101a5610514366004613301565b61204e565b6101a5610527366004613281565b61238a565b6002600154141561059e576040517f08c379a000000000000000000000000000000000000000000000000000000000815260206004820152601f60248201527f5265656e7472616e637947756172643a207265656e7472616e742063616c6c0060448201526064015b60405180910390fd5b60026001557f6d6a6fc321e0562f469846e9b1d74d90faeed9d71336854ad7fe2be150ff9f2081610651576040517f08c379a000000000000000000000000000000000000000000000000000000000815260206004820152602960248201527f56503a3a6164645650666f724c543a2063616e6e6f7420616464203020766f7460448201527f696e6720706f77657200000000000000000000000000000000000000000000006064820152608401610595565b600381015473ffffffffffffffffffffffffffffffffffffffff1633146106fa576040517f08c379a000000000000000000000000000000000000000000000000000000000815260206004820152602960248201527f56503a3a6164645650666f724c543a206f6e6c79206c6f636b4d616e6167657260448201527f20636f6e747261637400000000000000000000000000000000000000000000006064820152608401610595565b6107048383612507565b50506001805550565b6002600154141561077a576040517f08c379a000000000000000000000000000000000000000000000000000000000815260206004820152601f60248201527f5265656e7472616e637947756172643a207265656e7472616e742063616c6c006044820152606401610595565b6002600155806107e6576040517f08c379a000000000000000000000000000000000000000000000000000000000815260206004820152601f60248201527f56503a3a77697468647261773a2063616e6e6f742077697468647261772030006044820152606401610595565b7f6d6a6fc321e0562f469846e9b1d74d90faeed9d71336854ad7fe2be150ff9f21547f6d6a6fc321e0562f469846e9b1d74d90faeed9d71336854ad7fe2be150ff9f209061084d90339073ffffffffffffffffffffffffffffffffffffffff1684806125f7565b505060018055565b7f6d6a6fc321e0562f469846e9b1d74d90faeed9d71336854ad7fe2be150ff9f22547f6d6a6fc321e0562f469846e9b1d74d90faeed9d71336854ad7fe2be150ff9f209073ffffffffffffffffffffffffffffffffffffffff163314610917576040517f08c379a000000000000000000000000000000000000000000000000000000000815260206004820152600a60248201527f6f6e6c79206f776e6572000000000000000000000000000000000000000000006044820152606401610595565b507f6d6a6fc321e0562f469846e9b1d74d90faeed9d71336854ad7fe2be150ff9f2480547fffffffffffffffffffffffff00000000000000000000000000000000000000001673ffffffffffffffffffffffffffffffffffffffff92909216919091179055565b600054610100900460ff1680610997575060005460ff16155b610a23576040517f08c379a000000000000000000000000000000000000000000000000000000000815260206004820152602e60248201527f496e697469616c697a61626c653a20636f6e747261637420697320616c72656160448201527f647920696e697469616c697a65640000000000000000000000000000000000006064820152608401610595565b600054610100900460ff16158015610a6257600080547fffffffffffffffffffffffffffffffffffffffffffffffffffffffffffff0000166101011790555b610a6a6128d9565b7f6d6a6fc321e0562f469846e9b1d74d90faeed9d71336854ad7fe2be150ff9f21805473ffffffffffffffffffffffffffffffffffffffff8581167fffffffffffffffffffffffff0000000000000000000000000000000000000000928316179092557f6d6a6fc321e0562f469846e9b1d74d90faeed9d71336854ad7fe2be150ff9f228054928516929091169190911790558015610b2c57600080547fffffffffffffffffffffffffffffffffffffffffffffffffffffffffffff00ff1690555b505050565b6000438210610bc2576040517f08c379a000000000000000000000000000000000000000000000000000000000815260206004820152602360248201527f56503a3a62616c616e63654f6641743a206e6f74207965742064657465726d6960448201527f6e656400000000000000000000000000000000000000000000000000000000006064820152608401610595565b73ffffffffffffffffffffffffffffffffffffffff831660009081527f97ada73c2617b57999fe0c39e0cd251038e142d18fa592f9135b3c4884c92cf260205260409020547f97ada73c2617b57999fe0c39e0cd251038e142d18fa592f9135b3c4884c92cf19063ffffffff1680610c3f57600092505050610e51565b73ffffffffffffffffffffffffffffffffffffffff851660009081526020839052604081208591610c71600185613488565b63ffffffff90811682526020820192909252604001600020541611610ce85773ffffffffffffffffffffffffffffffffffffffff8516600090815260208390526040812090610cc1600184613488565b63ffffffff1663ffffffff1681526020019081526020016000206001015492505050610e51565b73ffffffffffffffffffffffffffffffffffffffff851660009081526020838152604080832083805290915290205463ffffffff16841015610d2f57600092505050610e51565b600080610d3d600184613488565b90505b8163ffffffff168163ffffffff161115610e115760006002610d628484613488565b610d6c9190613411565b610d769083613488565b73ffffffffffffffffffffffffffffffffffffffff891660009081526020878152604080832063ffffffff8086168552908352928190208151808301909252805490931680825260019093015491810191909152919250881415610de557602001519550610e51945050505050565b805163ffffffff16881115610dfc57819350610e0a565b610e07600183613488565b92505b5050610d40565b5073ffffffffffffffffffffffffffffffffffffffff861660009081526020938452604080822063ffffffff909316825291909352909120600101549150505b92915050565b73ffffffffffffffffffffffffffffffffffffffff811660009081527f97ada73c2617b57999fe0c39e0cd251038e142d18fa592f9135b3c4884c92cf260205260408120547f97ada73c2617b57999fe0c39e0cd251038e142d18fa592f9135b3c4884c92cf19063ffffffff1680610ed0576000610f20565b73ffffffffffffffffffffffffffffffffffffffff8416600090815260208390526040812090610f01600184613488565b63ffffffff1663ffffffff168152602001908152602001600020600101545b949350505050565b60026001541415610f95576040517f08c379a000000000000000000000000000000000000000000000000000000000815260206004820152601f60248201527f5265656e7472616e637947756172643a207265656e7472616e742063616c6c006044820152606401610595565b60026001557f6d6a6fc321e0562f469846e9b1d74d90faeed9d71336854ad7fe2be150ff9f2081611048576040517f08c379a000000000000000000000000000000000000000000000000000000000815260206004820152602f60248201527f56503a3a72656d6f76655650666f7255543a2063616e6e6f742072656d6f766560448201527f203020766f74696e6720706f77657200000000000000000000000000000000006064820152608401610595565b600381015473ffffffffffffffffffffffffffffffffffffffff1633146110f1576040517f08c379a000000000000000000000000000000000000000000000000000000000815260206004820152602c60248201527f56503a3a72656d6f76655650666f7255543a206f6e6c79206c6f636b4d616e6160448201527f67657220636f6e747261637400000000000000000000000000000000000000006064820152608401610595565b61070483836129f2565b8073ffffffffffffffffffffffffffffffffffffffff16633e47158c6040518163ffffffff1660e01b815260040160206040518083038186803b15801561114157600080fd5b505afa158015611155573d6000803e3d6000fd5b505050506040513d601f19601f82011682018060405250810190611179919061322b565b73ffffffffffffffffffffffffffffffffffffffff163373ffffffffffffffffffffffffffffffffffffffff1614611233576040517f08c379a000000000000000000000000000000000000000000000000000000000815260206004820152603960248201527f507269736d3a3a6265636f6d653a206f6e6c792070726f78792061646d696e2060448201527f63616e206368616e676520696d706c656d656e746174696f6e000000000000006064820152608401610595565b8073ffffffffffffffffffffffffffffffffffffffff166394d8fbd06040518163ffffffff1660e01b8152600401602060405180830381600087803b15801561127b57600080fd5b505af115801561128f573d6000803e3d6000fd5b505050506040513d601f19601f820116820180604052508101906112b391906132ad565b1515600114611343576040517f08c379a0000000000000000000000000000000000000000000000000000000008152602060048201526024808201527f507269736d3a3a6265636f6d653a206368616e6765206e6f7420617574686f7260448201527f697a6564000000000000000000000000000000000000000000000000000000006064820152608401610595565b50565b600260015414156113b3576040517f08c379a000000000000000000000000000000000000000000000000000000000815260206004820152601f60248201527f5265656e7472616e637947756172643a207265656e7472616e742063616c6c006044820152606401610595565b60026001557f6d6a6fc321e0562f469846e9b1d74d90faeed9d71336854ad7fe2be150ff9f2081611440576040517f08c379a000000000000000000000000000000000000000000000000000000000815260206004820152601960248201527f56503a3a7374616b653a2063616e6e6f74207374616b652030000000000000006044820152606401610595565b60018101546040517f70a08231000000000000000000000000000000000000000000000000000000008152336004820152839173ffffffffffffffffffffffffffffffffffffffff16906370a082319060240160206040518083038186803b1580156114ab57600080fd5b505afa1580156114bf573d6000803e3d6000fd5b505050506040513d601f19601f820116820180604052508101906114e391906132e8565b101561154b576040517f08c379a000000000000000000000000000000000000000000000000000000000815260206004820152601c60248201527f56503a3a7374616b653a206e6f7420656e6f75676820746f6b656e73000000006044820152606401610595565b60018101546040517fdd62ed3e000000000000000000000000000000000000000000000000000000008152336004820152306024820152839173ffffffffffffffffffffffffffffffffffffffff169063dd62ed3e9060440160206040518083038186803b1580156115bc57600080fd5b505afa1580156115d0573d6000803e3d6000fd5b505050506040513d601f19601f820116820180604052508101906115f491906132e8565b1015611682576040517f08c379a000000000000000000000000000000000000000000000000000000000815260206004820152602d60248201527f56503a3a7374616b653a206d75737420617070726f766520746f6b656e73206260448201527f65666f7265207374616b696e67000000000000000000000000000000000000006064820152608401610595565b600181015461084d90339073ffffffffffffffffffffffffffffffffffffffff168480612acc565b7f6d6a6fc321e0562f469846e9b1d74d90faeed9d71336854ad7fe2be150ff9f22547f6d6a6fc321e0562f469846e9b1d74d90faeed9d71336854ad7fe2be150ff9f209073ffffffffffffffffffffffffffffffffffffffff16331461176c576040517f08c379a000000000000000000000000000000000000000000000000000000000815260206004820152600a60248201527f6f6e6c79206f776e6572000000000000000000000000000000000000000000006044820152606401610595565b73ffffffffffffffffffffffffffffffffffffffff8216158015906117a7575073ffffffffffffffffffffffffffffffffffffffff82163014155b611833576040517f08c379a000000000000000000000000000000000000000000000000000000000815260206004820152602260248201527f56503a3a6368616e67654f776e65723a206e6f742076616c696420616464726560448201527f73730000000000000000000000000000000000000000000000000000000000006064820152608401610595565b7f6d6a6fc321e0562f469846e9b1d74d90faeed9d71336854ad7fe2be150ff9f22546040517f6d6a6fc321e0562f469846e9b1d74d90faeed9d71336854ad7fe2be150ff9f209173ffffffffffffffffffffffffffffffffffffffff858116929116907f2748503f8f31d8071821d1d5144384ba6a465036cda17fa1629a8a2509ccee0e90600090a360020180547fffffffffffffffffffffffff00000000000000000000000000000000000000001673ffffffffffffffffffffffffffffffffffffffff939093169290921790915550565b604080518082018252600080825260208083018290527f6d6a6fc321e0562f469846e9b1d74d90faeed9d71336854ad7fe2be150ff9f215484518086018652838152820183905273ffffffffffffffffffffffffffffffffffffffff80871684527fb436861a9ea50c2256cd6ef2eb5e3092874d3eddb554844f2d197b6df51da0988352858420911683528152908390208351808501909452805484526001015490830152907f6d6a6fc321e0562f469846e9b1d74d90faeed9d71336854ad7fe2be150ff9f20905b9392505050565b60026001541415611a43576040517f08c379a000000000000000000000000000000000000000000000000000000000815260206004820152601f60248201527f5265656e7472616e637947756172643a207265656e7472616e742063616c6c006044820152606401610595565b60026001558181611ab0576040517f08c379a000000000000000000000000000000000000000000000000000000000815260206004820152601960248201527f56503a3a7374616b653a2063616e6e6f74207374616b652030000000000000006044820152606401610595565b6040517f70a08231000000000000000000000000000000000000000000000000000000008152336004820152829073ffffffffffffffffffffffffffffffffffffffff8316906370a082319060240160206040518083038186803b158015611b1757600080fd5b505afa158015611b2b573d6000803e3d6000fd5b505050506040513d601f19601f82011682018060405250810190611b4f91906132e8565b1015611bb7576040517f08c379a000000000000000000000000000000000000000000000000000000000815260206004820152601c60248201527f56503a3a7374616b653a206e6f7420656e6f75676820746f6b656e73000000006044820152606401610595565b6040517fdd62ed3e000000000000000000000000000000000000000000000000000000008152336004820152306024820152829073ffffffffffffffffffffffffffffffffffffffff83169063dd62ed3e9060440160206040518083038186803b158015611c2457600080fd5b505afa158015611c38573d6000803e3d6000fd5b505050506040513d601f19601f82011682018060405250810190611c5c91906132e8565b1015611cea576040517f08c379a000000000000000000000000000000000000000000000000000000000815260206004820152602d60248201527f56503a3a7374616b653a206d75737420617070726f766520746f6b656e73206260448201527f65666f7265207374616b696e67000000000000000000000000000000000000006064820152608401610595565b7f6d6a6fc321e0562f469846e9b1d74d90faeed9d71336854ad7fe2be150ff9f2454604080517fd419935f00000000000000000000000000000000000000000000000000000000815273ffffffffffffffffffffffffffffffffffffffff868116600483015291517f6d6a6fc321e0562f469846e9b1d74d90faeed9d71336854ad7fe2be150ff9f2093600093169163d419935f916024808301926020929190829003018186803b158015611d9e57600080fd5b505afa158015611db2573d6000803e3d6000fd5b505050506040513d601f19601f82011682018060405250810190611dd6919061322b565b905073ffffffffffffffffffffffffffffffffffffffff8116611e55576040517f08c379a000000000000000000000000000000000000000000000000000000000815260206004820152601e60248201527f56503a3a7374616b653a20746f6b656e206e6f7420737570706f7274656400006044820152606401610595565b6040517fb69fb7f900000000000000000000000000000000000000000000000000000000815260048101859052819060009073ffffffffffffffffffffffffffffffffffffffff83169063b69fb7f99060240160206040518083038186803b158015611ec057600080fd5b505afa158015611ed4573d6000803e3d6000fd5b505050506040513d601f19601f82011682018060405250810190611ef891906132e8565b9050611f0633888884612acc565b5050600180555050505050565b6000611f1e82611906565b5192915050565b7f6d6a6fc321e0562f469846e9b1d74d90faeed9d71336854ad7fe2be150ff9f22547f6d6a6fc321e0562f469846e9b1d74d90faeed9d71336854ad7fe2be150ff9f209073ffffffffffffffffffffffffffffffffffffffff163314611fe7576040517f08c379a000000000000000000000000000000000000000000000000000000000815260206004820152600a60248201527f6f6e6c79206f776e6572000000000000000000000000000000000000000000006044820152606401610595565b507f6d6a6fc321e0562f469846e9b1d74d90faeed9d71336854ad7fe2be150ff9f2380547fffffffffffffffffffffffff00000000000000000000000000000000000000001673ffffffffffffffffffffffffffffffffffffffff92909216919091179055565b600260015414156120bb576040517f08c379a000000000000000000000000000000000000000000000000000000000815260206004820152601f60248201527f5265656e7472616e637947756172643a207265656e7472616e742063616c6c006044820152606401610595565b60026001558461214d576040517f08c379a000000000000000000000000000000000000000000000000000000000815260206004820152602360248201527f56503a3a7374616b65576974685065726d69743a2063616e6e6f74207374616b60448201527f65203000000000000000000000000000000000000000000000000000000000006064820152608401610595565b60007f6d6a6fc321e0562f469846e9b1d74d90faeed9d71336854ad7fe2be150ff9f2060018101546040517f70a08231000000000000000000000000000000000000000000000000000000008152336004820152919250879173ffffffffffffffffffffffffffffffffffffffff909116906370a082319060240160206040518083038186803b1580156121e057600080fd5b505afa1580156121f4573d6000803e3d6000fd5b505050506040513d601f19601f8201168201806040525081019061221891906132e8565b10156122a6576040517f08c379a000000000000000000000000000000000000000000000000000000000815260206004820152602660248201527f56503a3a7374616b65576974685065726d69743a206e6f7420656e6f7567682060448201527f746f6b656e7300000000000000000000000000000000000000000000000000006064820152608401610595565b60018101546040517fd505accf000000000000000000000000000000000000000000000000000000008152336004820152306024820152604481018890526064810187905260ff8616608482015260a4810185905260c4810184905273ffffffffffffffffffffffffffffffffffffffff9091169063d505accf9060e401600060405180830381600087803b15801561233e57600080fd5b505af1158015612352573d6000803e3d6000fd5b505050600182015461237e9150339073ffffffffffffffffffffffffffffffffffffffff168880612acc565b50506001805550505050565b600260015414156123f7576040517f08c379a000000000000000000000000000000000000000000000000000000000815260206004820152601f60248201527f5265656e7472616e637947756172643a207265656e7472616e742063616c6c006044820152606401610595565b600260015580612463576040517f08c379a000000000000000000000000000000000000000000000000000000000815260206004820152601f60248201527f56503a3a77697468647261773a2063616e6e6f742077697468647261772030006044820152606401610595565b604080518082018252600080825260209182018190523381527fb436861a9ea50c2256cd6ef2eb5e3092874d3eddb554844f2d197b6df51da098825282812073ffffffffffffffffffffffffffffffffffffffff8616825282528281208351808501909452805480855260019091015492840183905290916124e59085613434565b6124ef91906133fd565b90506124fd338585846125f7565b5050600180555050565b73ffffffffffffffffffffffffffffffffffffffff821660009081527f97ada73c2617b57999fe0c39e0cd251038e142d18fa592f9135b3c4884c92cf260205260408120547f97ada73c2617b57999fe0c39e0cd251038e142d18fa592f9135b3c4884c92cf19163ffffffff90911690816125835760006125d3565b73ffffffffffffffffffffffffffffffffffffffff85166000908152602084905260408120906125b4600185613488565b63ffffffff1663ffffffff168152602001908152602001600020600101545b905060006125e185836133bd565b90506125ef86848484612c05565b505050505050565b73ffffffffffffffffffffffffffffffffffffffff84811660009081527fb436861a9ea50c2256cd6ef2eb5e3092874d3eddb554844f2d197b6df51da098602081815260408084209488168452939052919020548311156126da576040517f08c379a000000000000000000000000000000000000000000000000000000000815260206004820152602760248201527f56503a3a5f77697468647261773a206e6f7420656e6f75676820746f6b656e7360448201527f207374616b6564000000000000000000000000000000000000000000000000006064820152608401610595565b73ffffffffffffffffffffffffffffffffffffffff8086166000908152602083815260408083209388168352929052206001015482111561279d576040517f08c379a000000000000000000000000000000000000000000000000000000000815260206004820152602660248201527f56503a3a5f77697468647261773a206e6f7420656e6f75676820766f74696e6760448201527f20706f77657200000000000000000000000000000000000000000000000000006064820152608401610595565b73ffffffffffffffffffffffffffffffffffffffff808616600090815260208381526040808320938816835292905220546127d9908490613471565b73ffffffffffffffffffffffffffffffffffffffff8681166000908152602084815260408083209389168352929052209081556001015461281b908390613471565b73ffffffffffffffffffffffffffffffffffffffff80871660009081526020848152604080832093891680845293909152902060010191909155612860908685612e34565b828473ffffffffffffffffffffffffffffffffffffffff168673ffffffffffffffffffffffffffffffffffffffff167f91fb9d98b786c57d74c099ccd2beca1739e9f6a81fb49001ca465c4b7591bbe2856040516128c091815260200190565b60405180910390a46128d285836129f2565b5050505050565b600054610100900460ff16806128f2575060005460ff16155b61297e576040517f08c379a000000000000000000000000000000000000000000000000000000000815260206004820152602e60248201527f496e697469616c697a61626c653a20636f6e747261637420697320616c72656160448201527f647920696e697469616c697a65640000000000000000000000000000000000006064820152608401610595565b600054610100900460ff161580156129bd57600080547fffffffffffffffffffffffffffffffffffffffffffffffffffffffffffff0000166101011790555b60018055801561134357600080547fffffffffffffffffffffffffffffffffffffffffffffffffffffffffffff00ff16905550565b73ffffffffffffffffffffffffffffffffffffffff821660009081527f97ada73c2617b57999fe0c39e0cd251038e142d18fa592f9135b3c4884c92cf260205260408120547f97ada73c2617b57999fe0c39e0cd251038e142d18fa592f9135b3c4884c92cf19163ffffffff9091169081612a6e576000612abe565b73ffffffffffffffffffffffffffffffffffffffff8516600090815260208490526040812090612a9f600185613488565b63ffffffff1663ffffffff168152602001908152602001600020600101545b905060006125e18583613471565b612aee73ffffffffffffffffffffffffffffffffffffffff8416853085612f08565b73ffffffffffffffffffffffffffffffffffffffff84811660009081527fb436861a9ea50c2256cd6ef2eb5e3092874d3eddb554844f2d197b6df51da09860208181526040808420948816845293905291902054612b4d9084906133bd565b73ffffffffffffffffffffffffffffffffffffffff86811660009081526020848152604080832093891683529290522090815560010154612b8f9083906133bd565b73ffffffffffffffffffffffffffffffffffffffff868116600081815260208581526040808320948a1680845294825291829020600101949094555185815286937f6c86f3fd5118b3aa8bb4f389a617046de0a3d3d477de1a1673d227f802f616dc910160405180910390a46128d28583612507565b6000612c294360405180606001604052806032815260200161355a60329139612f6c565b90507f97ada73c2617b57999fe0c39e0cd251038e142d18fa592f9135b3c4884c92cf163ffffffff851615801590612cb0575073ffffffffffffffffffffffffffffffffffffffff8616600090815260208290526040812063ffffffff841691612c94600189613488565b63ffffffff908116825260208201929092526040016000205416145b15612d065773ffffffffffffffffffffffffffffffffffffffff861660009081526020829052604081208491612ce7600189613488565b63ffffffff168152602081019190915260400160002060010155612de7565b60408051808201825263ffffffff8481168252602080830187815273ffffffffffffffffffffffffffffffffffffffff8b1660009081528683528581208b85168252909252939020915182547fffffffffffffffffffffffffffffffffffffffffffffffffffffffff000000001691161781559051600191820155612d8c9086906133d5565b73ffffffffffffffffffffffffffffffffffffffff87166000908152600183016020526040902080547fffffffffffffffffffffffffffffffffffffffffffffffffffffffff000000001663ffffffff929092169190911790555b82848773ffffffffffffffffffffffffffffffffffffffff167f53ed7954de66613e30dd29b46ab783aa594e6309d021d8854c76bb3325d03aa360405160405180910390a4505050505050565b60405173ffffffffffffffffffffffffffffffffffffffff8316602482015260448101829052610b2c9084907fa9059cbb00000000000000000000000000000000000000000000000000000000906064015b604080517fffffffffffffffffffffffffffffffffffffffffffffffffffffffffffffffe08184030181529190526020810180517bffffffffffffffffffffffffffffffffffffffffffffffffffffffff167fffffffff0000000000000000000000000000000000000000000000000000000090931692909217909152612fb6565b60405173ffffffffffffffffffffffffffffffffffffffff80851660248301528316604482015260648101829052612f669085907f23b872dd0000000000000000000000000000000000000000000000000000000090608401612e86565b50505050565b6000816401000000008410612fae576040517f08c379a0000000000000000000000000000000000000000000000000000000008152600401610595919061336c565b509192915050565b6000613018826040518060400160405280602081526020017f5361666545524332303a206c6f772d6c6576656c2063616c6c206661696c65648152508573ffffffffffffffffffffffffffffffffffffffff166130c29092919063ffffffff16565b805190915015610b2c578080602001905181019061303691906132ad565b610b2c576040517f08c379a000000000000000000000000000000000000000000000000000000000815260206004820152602a60248201527f5361666545524332303a204552433230206f7065726174696f6e20646964206e60448201527f6f742073756363656564000000000000000000000000000000000000000000006064820152608401610595565b6060610f20848460008585843b613135576040517f08c379a000000000000000000000000000000000000000000000000000000000815260206004820152601d60248201527f416464726573733a2063616c6c20746f206e6f6e2d636f6e74726163740000006044820152606401610595565b6000808673ffffffffffffffffffffffffffffffffffffffff16858760405161315e9190613350565b60006040518083038185875af1925050503d806000811461319b576040519150601f19603f3d011682016040523d82523d6000602084013e6131a0565b606091505b50915091506131b08282866131bb565b979650505050505050565b606083156131ca5750816119cf565b8251156131da5782518084602001fd5b816040517f08c379a0000000000000000000000000000000000000000000000000000000008152600401610595919061336c565b60006020828403121561322057600080fd5b81356119cf81613537565b60006020828403121561323d57600080fd5b81516119cf81613537565b6000806040838503121561325b57600080fd5b823561326681613537565b9150602083013561327681613537565b809150509250929050565b6000806040838503121561329457600080fd5b823561329f81613537565b946020939093013593505050565b6000602082840312156132bf57600080fd5b815180151581146119cf57600080fd5b6000602082840312156132e157600080fd5b5035919050565b6000602082840312156132fa57600080fd5b5051919050565b600080600080600060a0868803121561331957600080fd5b8535945060208601359350604086013560ff8116811461333857600080fd5b94979396509394606081013594506080013592915050565b600082516133628184602087016134ad565b9190910192915050565b602081526000825180602084015261338b8160408501602087016134ad565b601f017fffffffffffffffffffffffffffffffffffffffffffffffffffffffffffffffe0169190910160400192915050565b600082198211156133d0576133d06134d9565b500190565b600063ffffffff8083168185168083038211156133f4576133f46134d9565b01949350505050565b60008261340c5761340c613508565b500490565b600063ffffffff8084168061342857613428613508565b92169190910492915050565b6000817fffffffffffffffffffffffffffffffffffffffffffffffffffffffffffffffff048311821515161561346c5761346c6134d9565b500290565b600082821015613483576134836134d9565b500390565b600063ffffffff838116908316818110156134a5576134a56134d9565b039392505050565b60005b838110156134c85781810151838201526020016134b0565b83811115612f665750506000910152565b7f4e487b7100000000000000000000000000000000000000000000000000000000600052601160045260246000fd5b7f4e487b7100000000000000000000000000000000000000000000000000000000600052601260045260246000fd5b73ffffffffffffffffffffffffffffffffffffffff8116811461134357600080fdfe56503a3a5f7772697465436865636b706f696e743a20626c6f636b206e756d62657220657863656564732033322062697473a2646970667358221220742e08675ea4d9681a9a54c7fb5fa554d1f3f83b1412db857e5b05e36a41fa9264736f6c63430008060033",
  "devdoc": {
    "details": "Implementation contract for voting power prism proxy Calls should not be made directly to this contract, instead make calls to the VotingPowerPrism proxy contract The exception to this is the `become` function specified in PrismProxyImplementation  This function is called once and is used by this contract to accept its role as the implementation for the prism proxy",
    "kind": "dev",
    "methods": {
      "addVotingPowerForLockedTokens(address,uint256)": {
        "params": {
          "account": "The recipient of voting power",
          "amount": "The amount of voting power to add"
        }
      },
      "balanceOf(address)": {
        "params": {
          "account": "The address to get votes balance"
        },
        "returns": {
          "_0": "The number of current votes for `account`"
        }
      },
      "balanceOfAt(address,uint256)": {
        "details": "Block number must be a finalized block or else this function will revert to prevent misinformation.",
        "params": {
          "account": "The address of the account to check",
          "blockNumber": "The block number to get the vote balance at"
        },
        "returns": {
          "_0": "The number of votes the account had as of the given block"
        }
      },
      "become(address)": {
        "params": {
          "prism": "Prism Proxy contract"
        }
      },
      "changeOwner(address)": {
        "params": {
          "newOwner": "New owner address"
        }
      },
      "decimals()": {
        "returns": {
          "_0": "decimals"
        }
      },
      "edenToken()": {
        "returns": {
          "_0": "Address of EDEN token"
        }
      },
      "getAmountStaked(address,address)": {
        "params": {
          "stakedToken": "The staked token",
          "staker": "The user with staked tokens"
        },
        "returns": {
          "_0": "total amount staked"
        }
      },
      "getEDENAmountStaked(address)": {
        "params": {
          "staker": "The user with staked EDEN"
        },
        "returns": {
          "_0": "total EDEN amount staked"
        }
      },
      "getEDENStake(address)": {
        "params": {
          "staker": "The user with staked EDEN"
        },
        "returns": {
          "_0": "total EDEN staked"
        }
      },
      "getStake(address,address)": {
        "params": {
          "stakedToken": "The staked token",
          "staker": "The user with staked tokens"
        },
        "returns": {
          "_0": "total staked"
        }
      },
      "initialize(address,address)": {
        "details": "Should be called via VotingPowerPrism before calling anything else",
        "params": {
          "_edenToken": "address of EDEN token"
        }
      },
      "lockManager()": {
        "returns": {
          "_0": "Address of lockManager"
        }
      },
      "owner()": {
        "returns": {
          "_0": "Address of owner"
        }
      },
      "removeVotingPowerForUnlockedTokens(address,uint256)": {
        "params": {
          "account": "The account with voting power",
          "amount": "The amount of voting power to remove"
        }
      },
      "setLockManager(address)": {
        "params": {
          "newLockManager": "Address of lockManager"
        }
      },
      "setTokenRegistry(address)": {
        "params": {
          "registry": "Address of token registry"
        }
      },
      "stake(address,uint256)": {
        "params": {
          "amount": "The amount to stake",
          "token": "The token to stake"
        }
      },
      "stake(uint256)": {
        "params": {
          "amount": "The amount to stake"
        }
      },
      "stakeWithPermit(uint256,uint256,uint8,bytes32,bytes32)": {
        "params": {
          "amount": "The amount to stake",
          "deadline": "The time at which to expire the signature",
          "r": "Half of the ECDSA signature pair",
          "s": "Half of the ECDSA signature pair",
          "v": "The recovery byte of the signature"
        }
      },
      "tokenRegistry()": {
        "returns": {
          "_0": "Address of token registry"
        }
      },
      "withdraw(address,uint256)": {
        "params": {
          "amount": "The amount to withdraw",
          "token": "The token to withdraw"
        }
      },
      "withdraw(uint256)": {
        "params": {
          "amount": "The amount to withdraw"
        }
      }
    },
    "title": "VotingPower",
    "version": 1
  },
  "userdoc": {
    "events": {
      "ChangedOwner(address,address)": {
        "notice": "Event emitted when the owner of the voting power contract is updated"
      },
      "Staked(address,address,uint256,uint256)": {
        "notice": "An event that's emitted when a user's staked balance increases"
      },
      "VotingPowerChanged(address,uint256,uint256)": {
        "notice": "An event that's emitted when an account's vote balance changes"
      },
      "Withdrawn(address,address,uint256,uint256)": {
        "notice": "An event that's emitted when a user's staked balance decreases"
      }
    },
    "kind": "user",
    "methods": {
      "addVotingPowerForLockedTokens(address,uint256)": {
        "notice": "Count locked tokens toward voting power for `account`"
      },
      "balanceOf(address)": {
        "notice": "Gets the current votes balance for `account`"
      },
      "balanceOfAt(address,uint256)": {
        "notice": "Determine the prior number of votes for an account as of a block number"
      },
      "become(address)": {
        "notice": "Accept invitation to be implementation contract for proxy"
      },
      "changeOwner(address)": {
        "notice": "Change owner of vesting contract"
      },
      "decimals()": {
        "notice": "Decimals used for voting power"
      },
      "edenToken()": {
        "notice": "Address of EDEN token"
      },
      "getAmountStaked(address,address)": {
        "notice": "Get total amount of tokens staked in contract by `staker`"
      },
      "getEDENAmountStaked(address)": {
        "notice": "Get total amount of EDEN tokens staked in contract by `staker`"
      },
      "getEDENStake(address)": {
        "notice": "Get staked amount and voting power from EDEN tokens staked in contract by `staker`"
      },
      "getStake(address,address)": {
        "notice": "Get total staked amount and voting power from `stakedToken` staked in contract by `staker`"
      },
      "initialize(address,address)": {
        "notice": "Initialize VotingPower contract"
      },
      "lockManager()": {
        "notice": "Address of lockManager"
      },
      "owner()": {
        "notice": "Address of owner"
      },
      "removeVotingPowerForUnlockedTokens(address,uint256)": {
        "notice": "Remove unlocked tokens from voting power for `account`"
      },
      "setLockManager(address)": {
        "notice": "Sets lockManager address"
      },
      "setTokenRegistry(address)": {
        "notice": "Sets token registry address"
      },
      "stake(address,uint256)": {
        "notice": "Stake LP tokens to unlock voting power for `msg.sender`"
      },
      "stake(uint256)": {
        "notice": "Stake EDEN tokens to unlock voting power for `msg.sender`"
      },
      "stakeWithPermit(uint256,uint256,uint8,bytes32,bytes32)": {
        "notice": "Stake EDEN tokens using offchain approvals to unlock voting power"
      },
      "tokenRegistry()": {
        "notice": "Address of token registry"
      },
      "withdraw(address,uint256)": {
        "notice": "Withdraw staked LP tokens, removing voting power for `msg.sender`"
      },
      "withdraw(uint256)": {
        "notice": "Withdraw staked EDEN tokens, removing voting power for `msg.sender`"
      }
    },
    "version": 1
  },
  "storageLayout": {
    "storage": [
      {
        "astId": 13091,
        "contract": "contracts/VotingPower.sol:VotingPower",
        "label": "_initialized",
        "offset": 0,
        "slot": "0",
        "type": "t_bool"
      },
      {
        "astId": 13094,
        "contract": "contracts/VotingPower.sol:VotingPower",
        "label": "_initializing",
        "offset": 1,
        "slot": "0",
        "type": "t_bool"
      },
      {
        "astId": 13734,
        "contract": "contracts/VotingPower.sol:VotingPower",
        "label": "_status",
        "offset": 0,
        "slot": "1",
        "type": "t_uint256"
      },
      {
        "astId": 13777,
        "contract": "contracts/VotingPower.sol:VotingPower",
        "label": "__gap",
        "offset": 0,
        "slot": "2",
        "type": "t_array(t_uint256)49_storage"
      }
    ],
    "types": {
      "t_array(t_uint256)49_storage": {
        "base": "t_uint256",
        "encoding": "inplace",
        "label": "uint256[49]",
        "numberOfBytes": "1568"
      },
      "t_bool": {
        "encoding": "inplace",
        "label": "bool",
        "numberOfBytes": "1"
      },
      "t_uint256": {
        "encoding": "inplace",
        "label": "uint256",
        "numberOfBytes": "32"
      }
    }
  }
}