{
  "address": "0x64b517250D9774939472675507Dad84D822C67e2",
  "abi": [
    {
      "inputs": [
        {
          "internalType": "uint256",
          "name": "amount",
          "type": "uint256"
        }
      ],
      "name": "convertTokensToVotingPower",
      "outputs": [
        {
          "internalType": "uint256",
          "name": "",
          "type": "uint256"
        }
      ],
      "stateMutability": "pure",
      "type": "function"
    }
  ],
  "transactionHash": "0x634f5d3e11c35994c4b364a0b410e8db46f069785acfd9e1ee94c44e8e291e14",
  "args": [],
  "solcInputHash": "6865174a712c3742a5eca03d64e69168",
  "bytecode": "0x6080604052348015600f57600080fd5b50609b8061001e6000396000f3fe6080604052348015600f57600080fd5b506004361060285760003560e01c8063b69fb7f914602d575b600080fd5b603b6038366004604d565b90565b60405190815260200160405180910390f35b600060208284031215605e57600080fd5b503591905056fea2646970667358221220dd8ec1929d6e4acbaea78a3846dee0270e83c18f0cf5fe3e319b7d87710fb95164736f6c63430008060033",
  "devdoc": {
    "details": "Convert EDEN to voting power",
    "kind": "dev",
    "methods": {
      "convertTokensToVotingPower(uint256)": {
        "details": "Always converts 1-1",
        "params": {
          "amount": "token amount"
        },
        "returns": {
          "_0": "voting power amount"
        }
      }
    },
    "title": "EdenFormula",
    "version": 1
  },
  "userdoc": {
    "kind": "user",
    "methods": {
      "convertTokensToVotingPower(uint256)": {
        "notice": "Convert EDEN amount to voting power"
      }
    },
    "version": 1
  },
  "storageLayout": {
    "storage": [],
    "types": null
  }
}