{
  "address": "0x47f7BD0AFA7B482261cd65502D18ba78f547484C",
  "abi": [
    {
      "inputs": [
        {
          "internalType": "address",
          "name": "_votingPower",
          "type": "address"
        },
        {
          "internalType": "address",
          "name": "_roleManager",
          "type": "address"
        }
      ],
      "stateMutability": "nonpayable",
      "type": "constructor"
    },
    {
      "anonymous": false,
      "inputs": [
        {
          "indexed": true,
          "internalType": "bytes32",
          "name": "role",
          "type": "bytes32"
        },
        {
          "indexed": true,
          "internalType": "bytes32",
          "name": "previousAdminRole",
          "type": "bytes32"
        },
        {
          "indexed": true,
          "internalType": "bytes32",
          "name": "newAdminRole",
          "type": "bytes32"
        }
      ],
      "name": "RoleAdminChanged",
      "type": "event"
    },
    {
      "anonymous": false,
      "inputs": [
        {
          "indexed": true,
          "internalType": "bytes32",
          "name": "role",
          "type": "bytes32"
        },
        {
          "indexed": true,
          "internalType": "address",
          "name": "account",
          "type": "address"
        },
        {
          "indexed": true,
          "internalType": "address",
          "name": "sender",
          "type": "address"
        }
      ],
      "name": "RoleGranted",
      "type": "event"
    },
    {
      "anonymous": false,
      "inputs": [
        {
          "indexed": true,
          "internalType": "bytes32",
          "name": "role",
          "type": "bytes32"
        },
        {
          "indexed": true,
          "internalType": "address",
          "name": "account",
          "type": "address"
        },
        {
          "indexed": true,
          "internalType": "address",
          "name": "sender",
          "type": "address"
        }
      ],
      "name": "RoleRevoked",
      "type": "event"
    },
    {
      "anonymous": false,
      "inputs": [
        {
          "indexed": true,
          "internalType": "address",
          "name": "user",
          "type": "address"
        },
        {
          "indexed": true,
          "internalType": "address",
          "name": "token",
          "type": "address"
        },
        {
          "indexed": true,
          "internalType": "uint256",
          "name": "amount",
          "type": "uint256"
        },
        {
          "indexed": false,
          "internalType": "uint256",
          "name": "votingPower",
          "type": "uint256"
        }
      ],
      "name": "StakeLocked",
      "type": "event"
    },
    {
      "anonymous": false,
      "inputs": [
        {
          "indexed": true,
          "internalType": "address",
          "name": "user",
          "type": "address"
        },
        {
          "indexed": true,
          "internalType": "address",
          "name": "token",
          "type": "address"
        },
        {
          "indexed": true,
          "internalType": "uint256",
          "name": "amount",
          "type": "uint256"
        },
        {
          "indexed": false,
          "internalType": "uint256",
          "name": "votingPower",
          "type": "uint256"
        }
      ],
      "name": "StakeUnlocked",
      "type": "event"
    },
    {
      "inputs": [],
      "name": "DEFAULT_ADMIN_ROLE",
      "outputs": [
        {
          "internalType": "bytes32",
          "name": "",
          "type": "bytes32"
        }
      ],
      "stateMutability": "view",
      "type": "function"
    },
    {
      "inputs": [],
      "name": "LOCKER_ROLE",
      "outputs": [
        {
          "internalType": "bytes32",
          "name": "",
          "type": "bytes32"
        }
      ],
      "stateMutability": "view",
      "type": "function"
    },
    {
      "inputs": [
        {
          "internalType": "address",
          "name": "token",
          "type": "address"
        },
        {
          "internalType": "uint256",
          "name": "amount",
          "type": "uint256"
        }
      ],
      "name": "calculateVotingPower",
      "outputs": [
        {
          "internalType": "uint256",
          "name": "",
          "type": "uint256"
        }
      ],
      "stateMutability": "view",
      "type": "function"
    },
    {
      "inputs": [
        {
          "internalType": "address",
          "name": "staker",
          "type": "address"
        },
        {
          "internalType": "address",
          "name": "stakedToken",
          "type": "address"
        }
      ],
      "name": "getAmountStaked",
      "outputs": [
        {
          "internalType": "uint256",
          "name": "",
          "type": "uint256"
        }
      ],
      "stateMutability": "view",
      "type": "function"
    },
    {
      "inputs": [
        {
          "internalType": "bytes32",
          "name": "role",
          "type": "bytes32"
        }
      ],
      "name": "getRoleAdmin",
      "outputs": [
        {
          "internalType": "bytes32",
          "name": "",
          "type": "bytes32"
        }
      ],
      "stateMutability": "view",
      "type": "function"
    },
    {
      "inputs": [
        {
          "internalType": "bytes32",
          "name": "role",
          "type": "bytes32"
        },
        {
          "internalType": "uint256",
          "name": "index",
          "type": "uint256"
        }
      ],
      "name": "getRoleMember",
      "outputs": [
        {
          "internalType": "address",
          "name": "",
          "type": "address"
        }
      ],
      "stateMutability": "view",
      "type": "function"
    },
    {
      "inputs": [
        {
          "internalType": "bytes32",
          "name": "role",
          "type": "bytes32"
        }
      ],
      "name": "getRoleMemberCount",
      "outputs": [
        {
          "internalType": "uint256",
          "name": "",
          "type": "uint256"
        }
      ],
      "stateMutability": "view",
      "type": "function"
    },
    {
      "inputs": [
        {
          "internalType": "address",
          "name": "staker",
          "type": "address"
        },
        {
          "internalType": "address",
          "name": "stakedToken",
          "type": "address"
        }
      ],
      "name": "getStake",
      "outputs": [
        {
          "components": [
            {
              "internalType": "uint256",
              "name": "amount",
              "type": "uint256"
            },
            {
              "internalType": "uint256",
              "name": "votingPower",
              "type": "uint256"
            }
          ],
          "internalType": "struct ILockManager.LockedStake",
          "name": "",
          "type": "tuple"
        }
      ],
      "stateMutability": "view",
      "type": "function"
    },
    {
      "inputs": [
        {
          "internalType": "bytes32",
          "name": "role",
          "type": "bytes32"
        },
        {
          "internalType": "address",
          "name": "account",
          "type": "address"
        }
      ],
      "name": "grantRole",
      "outputs": [],
      "stateMutability": "nonpayable",
      "type": "function"
    },
    {
      "inputs": [
        {
          "internalType": "address",
          "name": "receiver",
          "type": "address"
        },
        {
          "internalType": "address",
          "name": "token",
          "type": "address"
        },
        {
          "internalType": "uint256",
          "name": "tokenAmount",
          "type": "uint256"
        }
      ],
      "name": "grantVotingPower",
      "outputs": [
        {
          "internalType": "uint256",
          "name": "votingPowerGranted",
          "type": "uint256"
        }
      ],
      "stateMutability": "nonpayable",
      "type": "function"
    },
    {
      "inputs": [
        {
          "internalType": "bytes32",
          "name": "role",
          "type": "bytes32"
        },
        {
          "internalType": "address",
          "name": "account",
          "type": "address"
        }
      ],
      "name": "hasRole",
      "outputs": [
        {
          "internalType": "bool",
          "name": "",
          "type": "bool"
        }
      ],
      "stateMutability": "view",
      "type": "function"
    },
    {
      "inputs": [
        {
          "internalType": "address",
          "name": "receiver",
          "type": "address"
        },
        {
          "internalType": "address",
          "name": "token",
          "type": "address"
        },
        {
          "internalType": "uint256",
          "name": "tokenAmount",
          "type": "uint256"
        }
      ],
      "name": "removeVotingPower",
      "outputs": [
        {
          "internalType": "uint256",
          "name": "votingPowerRemoved",
          "type": "uint256"
        }
      ],
      "stateMutability": "nonpayable",
      "type": "function"
    },
    {
      "inputs": [
        {
          "internalType": "bytes32",
          "name": "role",
          "type": "bytes32"
        },
        {
          "internalType": "address",
          "name": "account",
          "type": "address"
        }
      ],
      "name": "renounceRole",
      "outputs": [],
      "stateMutability": "nonpayable",
      "type": "function"
    },
    {
      "inputs": [
        {
          "internalType": "bytes32",
          "name": "role",
          "type": "bytes32"
        },
        {
          "internalType": "address",
          "name": "account",
          "type": "address"
        }
      ],
      "name": "revokeRole",
      "outputs": [],
      "stateMutability": "nonpayable",
      "type": "function"
    },
    {
      "inputs": [
        {
          "internalType": "bytes4",
          "name": "interfaceId",
          "type": "bytes4"
        }
      ],
      "name": "supportsInterface",
      "outputs": [
        {
          "internalType": "bool",
          "name": "",
          "type": "bool"
        }
      ],
      "stateMutability": "view",
      "type": "function"
    },
    {
      "inputs": [],
      "name": "votingPower",
      "outputs": [
        {
          "internalType": "contract IVotingPower",
          "name": "",
          "type": "address"
        }
      ],
      "stateMutability": "view",
      "type": "function"
    }
  ],
  "transactionHash": "0x3a15a75dc264bbc9eac464cc5a96090996c8a28a4a7cd434bf50af7708a7d362",
  "args": [
    "0xd3152FF0C8Ff6526481aaBA68009e051c83B758d",
    "0xFDf8BE775bb5e2Ba1983dC7b26A655321502E104"
  ],
  "solcInputHash": "99c650a484f9ed3f1d614e5f32193a54",
  "bytecode": "0x60a06040523480156200001157600080fd5b5060405162001ce438038062001ce48339810160408190526200003491620001dd565b6001600160601b0319606083901b16608052620000536000826200005b565b505062000215565b6200007282826200009e60201b62000e081760201c565b60008281526001602090815260409091206200009991839062000e16620000ae821b17901c565b505050565b620000aa8282620000ce565b5050565b6000620000c5836001600160a01b0384166200016e565b90505b92915050565b6000828152602081815260408083206001600160a01b038516845290915290205460ff16620000aa576000828152602081815260408083206001600160a01b03851684529091529020805460ff191660011790556200012a3390565b6001600160a01b0316816001600160a01b0316837f2f8788117e7eff1d82e926ec794901d17c78024a50270940304540a733656f0d60405160405180910390a45050565b6000818152600183016020526040812054620001b757508154600181810184556000848152602080822090930184905584548482528286019093526040902091909155620000c8565b506000620000c8565b80516001600160a01b0381168114620001d857600080fd5b919050565b60008060408385031215620001f157600080fd5b620001fc83620001c0565b91506200020c60208401620001c0565b90509250929050565b60805160601c611a9b620002496000396000818161018b01528181610759015281816109e40152610ad50152611a9b6000f3fe608060405234801561001057600080fd5b50600436106101005760003560e01c806391d1485411610097578063ca15c87311610066578063ca15c8731461034a578063d547741f1461035d578063e968d9fa14610370578063f36213671461038357600080fd5b806391d14854146102d8578063a217fddf1461031c578063bc3e1b7a14610324578063bc61256e1461033757600080fd5b806377174f85116100d357806377174f85146101865780637741459e146101d257806382dda22d146102415780639010d07c146102c557600080fd5b806301ffc9a714610105578063248a9ca31461012d5780632f2ff15d1461015e57806336568abe14610173575b600080fd5b61011861011336600461174b565b6103aa565b60405190151581526020015b60405180910390f35b61015061013b3660046116eb565b60009081526020819052604090206001015490565b604051908152602001610124565b61017161016c366004611704565b610406565b005b610171610181366004611704565b61042d565b6101ad7f000000000000000000000000000000000000000000000000000000000000000081565b60405173ffffffffffffffffffffffffffffffffffffffff9091168152602001610124565b6101506101e0366004611645565b6040805180820182526000808252602091820181905273ffffffffffffffffffffffffffffffffffffffff80861682526002835283822090851682528252828120835180850190945280548452600101549183019190915290519392505050565b6102aa61024f366004611645565b6040805180820182526000808252602091820181905273ffffffffffffffffffffffffffffffffffffffff94851681526002825282812093909416845291825291829020825180840190935280548352600101549082015290565b60408051825181526020928301519281019290925201610124565b6101ad6102d3366004611729565b61044f565b6101186102e6366004611704565b60009182526020828152604080842073ffffffffffffffffffffffffffffffffffffffff93909316845291905290205460ff1690565b610150600081565b61015061033236600461167e565b61046e565b61015061034536600461167e565b610825565b6101506103583660046116eb565b610aaf565b61017161036b366004611704565b610ac6565b61015061037e3660046116bf565b610ad0565b6101507faf9a8bb3cbd6b84fbccefa71ff73e26e798553c6914585a84886212a46a9027981565b60007fffffffff0000000000000000000000000000000000000000000000000000000082167f5a05180f000000000000000000000000000000000000000000000000000000001480610400575061040082610e38565b92915050565b6104108282610ecf565b60008281526001602052604090206104289082610e16565b505050565b6104378282610ef5565b60008281526001602052604090206104289082610fa4565b60008281526001602052604081206104679083610fc6565b9392505050565b3360009081527f3e7a7484ad32e5d459b6ed6a870672becd5b865934878407075b570e26e63f9b602052604081205460ff16610531576040517f08c379a000000000000000000000000000000000000000000000000000000000815260206004820152602160248201527f43616c6c6572206d7573742068617665204c4f434b45525f524f4c4520726f6c60448201527f650000000000000000000000000000000000000000000000000000000000000060648201526084015b60405180910390fd5b73ffffffffffffffffffffffffffffffffffffffff8085166000908152600260209081526040808320938716835292905220548211156105f3576040517f08c379a000000000000000000000000000000000000000000000000000000000815260206004820152602f60248201527f4c4d3a3a72656d6f7665566f74696e67506f7765723a206e6f7420656e6f756760448201527f6820746f6b656e73207374616b656400000000000000000000000000000000006064820152608401610528565b6040805180820182526000808252602091820181905273ffffffffffffffffffffffffffffffffffffffff87811682526002835283822090871682528252829020825180840190935280548084526001909101549183018290529061065890856118cb565b6106629190611890565b73ffffffffffffffffffffffffffffffffffffffff8087166000908152600260209081526040808320938916835292905220549092506106a3908490611908565b73ffffffffffffffffffffffffffffffffffffffff8681166000908152600260209081526040808320938916835292905220908155600101546106e7908390611908565b73ffffffffffffffffffffffffffffffffffffffff86811660008181526002602090815260408083208a86168452909152908190206001019390935591517f9cc7a3670000000000000000000000000000000000000000000000000000000081526004810192909252602482018490527f00000000000000000000000000000000000000000000000000000000000000001690639cc7a36790604401600060405180830381600087803b15801561079d57600080fd5b505af11580156107b1573d6000803e3d6000fd5b50505050828473ffffffffffffffffffffffffffffffffffffffff168673ffffffffffffffffffffffffffffffffffffffff167f84ac76b4af9b0d66201e1a5c4154cbe6580a5a5431447ffdf2210e7fdf15359a8560405161081591815260200190565b60405180910390a4509392505050565b3360009081527f3e7a7484ad32e5d459b6ed6a870672becd5b865934878407075b570e26e63f9b602052604081205460ff166108e3576040517f08c379a000000000000000000000000000000000000000000000000000000000815260206004820152602160248201527f43616c6c6572206d7573742068617665204c4f434b45525f524f4c4520726f6c60448201527f65000000000000000000000000000000000000000000000000000000000000006064820152608401610528565b6108ed8383610ad0565b73ffffffffffffffffffffffffffffffffffffffff80861660009081526002602090815260408083209388168352929052205490915061092e908390611878565b73ffffffffffffffffffffffffffffffffffffffff858116600090815260026020908152604080832093881683529290522090815560010154610972908290611878565b73ffffffffffffffffffffffffffffffffffffffff85811660008181526002602090815260408083208986168452909152908190206001019390935591517f0bae5b7c0000000000000000000000000000000000000000000000000000000081526004810192909252602482018390527f00000000000000000000000000000000000000000000000000000000000000001690630bae5b7c90604401600060405180830381600087803b158015610a2857600080fd5b505af1158015610a3c573d6000803e3d6000fd5b50505050818373ffffffffffffffffffffffffffffffffffffffff168573ffffffffffffffffffffffffffffffffffffffff167f1d80c2b0b59d2f1543a8b483e392137e35f1d5ebfffcb3ad3a85c07a7563631384604051610aa091815260200190565b60405180910390a49392505050565b600081815260016020526040812061040090610fd2565b6104378282610fdc565b6000807f000000000000000000000000000000000000000000000000000000000000000073ffffffffffffffffffffffffffffffffffffffff16639d23c4c76040518163ffffffff1660e01b815260040160206040518083038186803b158015610b3957600080fd5b505afa158015610b4d573d6000803e3d6000fd5b505050506040513d601f19601f82011682018060405250810190610b719190611628565b905073ffffffffffffffffffffffffffffffffffffffff8116610c16576040517f08c379a000000000000000000000000000000000000000000000000000000000815260206004820152602a60248201527f4c4d3a3a63616c63756c617465566f74696e67506f7765723a2072656769737460448201527f7279206e6f7420736574000000000000000000000000000000000000000000006064820152608401610528565b6040517fd419935f00000000000000000000000000000000000000000000000000000000815273ffffffffffffffffffffffffffffffffffffffff85811660048301526000919083169063d419935f9060240160206040518083038186803b158015610c8157600080fd5b505afa158015610c95573d6000803e3d6000fd5b505050506040513d601f19601f82011682018060405250810190610cb99190611628565b905073ffffffffffffffffffffffffffffffffffffffff8116610d5e576040517f08c379a000000000000000000000000000000000000000000000000000000000815260206004820152602d60248201527f4c4d3a3a63616c63756c617465566f74696e67506f7765723a20746f6b656e2060448201527f6e6f7420737570706f72746564000000000000000000000000000000000000006064820152608401610528565b6040517fb69fb7f900000000000000000000000000000000000000000000000000000000815260048101859052819073ffffffffffffffffffffffffffffffffffffffff82169063b69fb7f99060240160206040518083038186803b158015610dc657600080fd5b505afa158015610dda573d6000803e3d6000fd5b505050506040513d601f19601f82011682018060405250810190610dfe919061178d565b9695505050505050565b610e128282611002565b5050565b60006104678373ffffffffffffffffffffffffffffffffffffffff84166110f2565b60007fffffffff0000000000000000000000000000000000000000000000000000000082167f7965db0b00000000000000000000000000000000000000000000000000000000148061040057507f01ffc9a7000000000000000000000000000000000000000000000000000000007fffffffff00000000000000000000000000000000000000000000000000000000831614610400565b600082815260208190526040902060010154610eeb8133611141565b6104288383611002565b73ffffffffffffffffffffffffffffffffffffffff81163314610f9a576040517f08c379a000000000000000000000000000000000000000000000000000000000815260206004820152602f60248201527f416363657373436f6e74726f6c3a2063616e206f6e6c792072656e6f756e636560448201527f20726f6c657320666f722073656c6600000000000000000000000000000000006064820152608401610528565b610e128282611211565b60006104678373ffffffffffffffffffffffffffffffffffffffff84166112c8565b600061046783836113bb565b6000610400825490565b600082815260208190526040902060010154610ff88133611141565b6104288383611211565b60008281526020818152604080832073ffffffffffffffffffffffffffffffffffffffff8516845290915290205460ff16610e125760008281526020818152604080832073ffffffffffffffffffffffffffffffffffffffff85168452909152902080547fffffffffffffffffffffffffffffffffffffffffffffffffffffffffffffff001660011790556110943390565b73ffffffffffffffffffffffffffffffffffffffff168173ffffffffffffffffffffffffffffffffffffffff16837f2f8788117e7eff1d82e926ec794901d17c78024a50270940304540a733656f0d60405160405180910390a45050565b600081815260018301602052604081205461113957508154600181810184556000848152602080822090930184905584548482528286019093526040902091909155610400565b506000610400565b60008281526020818152604080832073ffffffffffffffffffffffffffffffffffffffff8516845290915290205460ff16610e12576111978173ffffffffffffffffffffffffffffffffffffffff1660146113e5565b6111a28360206113e5565b6040516020016111b39291906117a6565b604080517fffffffffffffffffffffffffffffffffffffffffffffffffffffffffffffffe0818403018152908290527f08c379a000000000000000000000000000000000000000000000000000000000825261052891600401611827565b60008281526020818152604080832073ffffffffffffffffffffffffffffffffffffffff8516845290915290205460ff1615610e125760008281526020818152604080832073ffffffffffffffffffffffffffffffffffffffff8516808552925280832080547fffffffffffffffffffffffffffffffffffffffffffffffffffffffffffffff0016905551339285917ff6391f5c32d9c69d2a47ea670b442974b53935d1edc7fd64eb21e047a839171b9190a45050565b600081815260018301602052604081205480156113b15760006112ec600183611908565b855490915060009061130090600190611908565b9050818114611365576000866000018281548110611320576113206119e2565b9060005260206000200154905080876000018481548110611343576113436119e2565b6000918252602080832090910192909255918252600188019052604090208390555b8554869080611376576113766119b3565b600190038181906000526020600020016000905590558560010160008681526020019081526020016000206000905560019350505050610400565b6000915050610400565b60008260000182815481106113d2576113d26119e2565b9060005260206000200154905092915050565b606060006113f48360026118cb565b6113ff906002611878565b67ffffffffffffffff81111561141757611417611a11565b6040519080825280601f01601f191660200182016040528015611441576020820181803683370190505b5090507f300000000000000000000000000000000000000000000000000000000000000081600081518110611478576114786119e2565b60200101907effffffffffffffffffffffffffffffffffffffffffffffffffffffffffffff1916908160001a9053507f7800000000000000000000000000000000000000000000000000000000000000816001815181106114db576114db6119e2565b60200101907effffffffffffffffffffffffffffffffffffffffffffffffffffffffffffff1916908160001a90535060006115178460026118cb565b611522906001611878565b90505b60018111156115bf577f303132333435363738396162636465660000000000000000000000000000000085600f1660108110611563576115636119e2565b1a60f81b828281518110611579576115796119e2565b60200101907effffffffffffffffffffffffffffffffffffffffffffffffffffffffffffff1916908160001a90535060049490941c936115b88161194f565b9050611525565b508315610467576040517f08c379a000000000000000000000000000000000000000000000000000000000815260206004820181905260248201527f537472696e67733a20686578206c656e67746820696e73756666696369656e746044820152606401610528565b60006020828403121561163a57600080fd5b815161046781611a40565b6000806040838503121561165857600080fd5b823561166381611a40565b9150602083013561167381611a40565b809150509250929050565b60008060006060848603121561169357600080fd5b833561169e81611a40565b925060208401356116ae81611a40565b929592945050506040919091013590565b600080604083850312156116d257600080fd5b82356116dd81611a40565b946020939093013593505050565b6000602082840312156116fd57600080fd5b5035919050565b6000806040838503121561171757600080fd5b82359150602083013561167381611a40565b6000806040838503121561173c57600080fd5b50508035926020909101359150565b60006020828403121561175d57600080fd5b81357fffffffff000000000000000000000000000000000000000000000000000000008116811461046757600080fd5b60006020828403121561179f57600080fd5b5051919050565b7f416363657373436f6e74726f6c3a206163636f756e74200000000000000000008152600083516117de81601785016020880161191f565b7f206973206d697373696e6720726f6c6520000000000000000000000000000000601791840191820152835161181b81602884016020880161191f565b01602801949350505050565b602081526000825180602084015261184681604085016020870161191f565b601f017fffffffffffffffffffffffffffffffffffffffffffffffffffffffffffffffe0169190910160400192915050565b6000821982111561188b5761188b611984565b500190565b6000826118c6577f4e487b7100000000000000000000000000000000000000000000000000000000600052601260045260246000fd5b500490565b6000817fffffffffffffffffffffffffffffffffffffffffffffffffffffffffffffffff048311821515161561190357611903611984565b500290565b60008282101561191a5761191a611984565b500390565b60005b8381101561193a578181015183820152602001611922565b83811115611949576000848401525b50505050565b60008161195e5761195e611984565b507fffffffffffffffffffffffffffffffffffffffffffffffffffffffffffffffff0190565b7f4e487b7100000000000000000000000000000000000000000000000000000000600052601160045260246000fd5b7f4e487b7100000000000000000000000000000000000000000000000000000000600052603160045260246000fd5b7f4e487b7100000000000000000000000000000000000000000000000000000000600052603260045260246000fd5b7f4e487b7100000000000000000000000000000000000000000000000000000000600052604160045260246000fd5b73ffffffffffffffffffffffffffffffffffffffff81168114611a6257600080fd5b5056fea26469706673582212206ddcd5feb8b26968c6737b12ffe2c40dac41e35411674e09e6f9501d5028332364736f6c63430008060033",
  "devdoc": {
    "details": "Manages voting power for stakes that are locked within the Eden ecosystem, but not in the Voting Power prism",
    "kind": "dev",
    "methods": {
      "calculateVotingPower(address,uint256)": {
        "params": {
          "amount": "amount of token that will be locked",
          "token": "token that will be locked"
        },
        "returns": {
          "_0": "resulting voting power"
        }
      },
      "constructor": {
        "params": {
          "_roleManager": "address that is in charge of assigning roles",
          "_votingPower": "VotingPower prism contract"
        }
      },
      "getAmountStaked(address,address)": {
        "params": {
          "stakedToken": "The staked token",
          "staker": "The user with staked tokens"
        },
        "returns": {
          "_0": "total amount staked"
        }
      },
      "getRoleAdmin(bytes32)": {
        "details": "Returns the admin role that controls `role`. See {grantRole} and {revokeRole}. To change a role's admin, use {_setRoleAdmin}."
      },
      "getRoleMember(bytes32,uint256)": {
        "details": "Returns one of the accounts that have `role`. `index` must be a value between 0 and {getRoleMemberCount}, non-inclusive. Role bearers are not sorted in any particular way, and their ordering may change at any point. WARNING: When using {getRoleMember} and {getRoleMemberCount}, make sure you perform all queries on the same block. See the following https://forum.openzeppelin.com/t/iterating-over-elements-on-enumerableset-in-openzeppelin-contracts/2296[forum post] for more information."
      },
      "getRoleMemberCount(bytes32)": {
        "details": "Returns the number of accounts that have `role`. Can be used together with {getRoleMember} to enumerate all bearers of a role."
      },
      "getStake(address,address)": {
        "params": {
          "stakedToken": "The staked token",
          "staker": "The user with staked tokens"
        },
        "returns": {
          "_0": "total staked"
        }
      },
      "grantRole(bytes32,address)": {
        "details": "Overload {grantRole} to track enumerable memberships"
      },
      "grantVotingPower(address,address,uint256)": {
        "params": {
          "receiver": "recipient of voting power",
          "token": "token that is locked",
          "tokenAmount": "amount of token that is locked"
        },
        "returns": {
          "votingPowerGranted": "amount of voting power granted"
        }
      },
      "hasRole(bytes32,address)": {
        "details": "Returns `true` if `account` has been granted `role`."
      },
      "removeVotingPower(address,address,uint256)": {
        "params": {
          "receiver": "holder of voting power",
          "token": "token that is being unlocked",
          "tokenAmount": "amount of token that is being unlocked"
        },
        "returns": {
          "votingPowerRemoved": "amount of voting power removed"
        }
      },
      "renounceRole(bytes32,address)": {
        "details": "Overload {renounceRole} to track enumerable memberships"
      },
      "revokeRole(bytes32,address)": {
        "details": "Overload {revokeRole} to track enumerable memberships"
      },
      "supportsInterface(bytes4)": {
        "details": "See {IERC165-supportsInterface}."
      }
    },
    "title": "LockManager",
    "version": 1
  },
  "userdoc": {
    "events": {
      "StakeLocked(address,address,uint256,uint256)": {
        "notice": "An event that's emitted when a user's staked balance increases"
      },
      "StakeUnlocked(address,address,uint256,uint256)": {
        "notice": "An event that's emitted when a user's staked balance decreases"
      }
    },
    "kind": "user",
    "methods": {
      "LOCKER_ROLE()": {
        "notice": "Admin role to create voting power from locked stakes"
      },
      "calculateVotingPower(address,uint256)": {
        "notice": "Calculate the voting power that will result from locking `amount` of `token`"
      },
      "constructor": {
        "notice": "Create new LockManager contract"
      },
      "getAmountStaked(address,address)": {
        "notice": "Get total amount of tokens staked in contract by `staker`"
      },
      "getStake(address,address)": {
        "notice": "Get total staked amount and voting power from `stakedToken` staked in contract by `staker`"
      },
      "grantVotingPower(address,address,uint256)": {
        "notice": "Grant voting power from locked `tokenAmount` of `token`"
      },
      "removeVotingPower(address,address,uint256)": {
        "notice": "Remove voting power by unlocking `tokenAmount` of `token`"
      },
      "votingPower()": {
        "notice": "Voting power contract"
      }
    },
    "version": 1
  },
  "storageLayout": {
    "storage": [
      {
        "astId": 11023,
        "contract": "contracts/LockManager.sol:LockManager",
        "label": "_roles",
        "offset": 0,
        "slot": "0",
        "type": "t_mapping(t_bytes32,t_struct(RoleData)11018_storage)"
      },
      {
        "astId": 11351,
        "contract": "contracts/LockManager.sol:LockManager",
        "label": "_roleMembers",
        "offset": 0,
        "slot": "1",
        "type": "t_mapping(t_bytes32,t_struct(AddressSet)13725_storage)"
      },
      {
        "astId": 2876,
        "contract": "contracts/LockManager.sol:LockManager",
        "label": "lockedStakes",
        "offset": 0,
        "slot": "2",
        "type": "t_mapping(t_address,t_mapping(t_address,t_struct(LockedStake)10220_storage))"
      }
    ],
    "types": {
      "t_address": {
        "encoding": "inplace",
        "label": "address",
        "numberOfBytes": "20"
      },
      "t_array(t_bytes32)dyn_storage": {
        "base": "t_bytes32",
        "encoding": "dynamic_array",
        "label": "bytes32[]",
        "numberOfBytes": "32"
      },
      "t_bool": {
        "encoding": "inplace",
        "label": "bool",
        "numberOfBytes": "1"
      },
      "t_bytes32": {
        "encoding": "inplace",
        "label": "bytes32",
        "numberOfBytes": "32"
      },
      "t_mapping(t_address,t_bool)": {
        "encoding": "mapping",
        "key": "t_address",
        "label": "mapping(address => bool)",
        "numberOfBytes": "32",
        "value": "t_bool"
      },
      "t_mapping(t_address,t_mapping(t_address,t_struct(LockedStake)10220_storage))": {
        "encoding": "mapping",
        "key": "t_address",
        "label": "mapping(address => mapping(address => struct ILockManager.LockedStake))",
        "numberOfBytes": "32",
        "value": "t_mapping(t_address,t_struct(LockedStake)10220_storage)"
      },
      "t_mapping(t_address,t_struct(LockedStake)10220_storage)": {
        "encoding": "mapping",
        "key": "t_address",
        "label": "mapping(address => struct ILockManager.LockedStake)",
        "numberOfBytes": "32",
        "value": "t_struct(LockedStake)10220_storage"
      },
      "t_mapping(t_bytes32,t_struct(AddressSet)13725_storage)": {
        "encoding": "mapping",
        "key": "t_bytes32",
        "label": "mapping(bytes32 => struct EnumerableSet.AddressSet)",
        "numberOfBytes": "32",
        "value": "t_struct(AddressSet)13725_storage"
      },
      "t_mapping(t_bytes32,t_struct(RoleData)11018_storage)": {
        "encoding": "mapping",
        "key": "t_bytes32",
        "label": "mapping(bytes32 => struct AccessControl.RoleData)",
        "numberOfBytes": "32",
        "value": "t_struct(RoleData)11018_storage"
      },
      "t_mapping(t_bytes32,t_uint256)": {
        "encoding": "mapping",
        "key": "t_bytes32",
        "label": "mapping(bytes32 => uint256)",
        "numberOfBytes": "32",
        "value": "t_uint256"
      },
      "t_struct(AddressSet)13725_storage": {
        "encoding": "inplace",
        "label": "struct EnumerableSet.AddressSet",
        "members": [
          {
            "astId": 13724,
            "contract": "contracts/LockManager.sol:LockManager",
            "label": "_inner",
            "offset": 0,
            "slot": "0",
            "type": "t_struct(Set)13454_storage"
          }
        ],
        "numberOfBytes": "64"
      },
      "t_struct(LockedStake)10220_storage": {
        "encoding": "inplace",
        "label": "struct ILockManager.LockedStake",
        "members": [
          {
            "astId": 10217,
            "contract": "contracts/LockManager.sol:LockManager",
            "label": "amount",
            "offset": 0,
            "slot": "0",
            "type": "t_uint256"
          },
          {
            "astId": 10219,
            "contract": "contracts/LockManager.sol:LockManager",
            "label": "votingPower",
            "offset": 0,
            "slot": "1",
            "type": "t_uint256"
          }
        ],
        "numberOfBytes": "64"
      },
      "t_struct(RoleData)11018_storage": {
        "encoding": "inplace",
        "label": "struct AccessControl.RoleData",
        "members": [
          {
            "astId": 11015,
            "contract": "contracts/LockManager.sol:LockManager",
            "label": "members",
            "offset": 0,
            "slot": "0",
            "type": "t_mapping(t_address,t_bool)"
          },
          {
            "astId": 11017,
            "contract": "contracts/LockManager.sol:LockManager",
            "label": "adminRole",
            "offset": 0,
            "slot": "1",
            "type": "t_bytes32"
          }
        ],
        "numberOfBytes": "64"
      },
      "t_struct(Set)13454_storage": {
        "encoding": "inplace",
        "label": "struct EnumerableSet.Set",
        "members": [
          {
            "astId": 13449,
            "contract": "contracts/LockManager.sol:LockManager",
            "label": "_values",
            "offset": 0,
            "slot": "0",
            "type": "t_array(t_bytes32)dyn_storage"
          },
          {
            "astId": 13453,
            "contract": "contracts/LockManager.sol:LockManager",
            "label": "_indexes",
            "offset": 0,
            "slot": "1",
            "type": "t_mapping(t_bytes32,t_uint256)"
          }
        ],
        "numberOfBytes": "64"
      },
      "t_uint256": {
        "encoding": "inplace",
        "label": "uint256",
        "numberOfBytes": "32"
      }
    }
  }
}