{
  "address": "0x1c86829Db6cBB3a5FA614034C73A4371cD0C8f77",
  "abi": [
    {
      "inputs": [
        {
          "internalType": "address",
          "name": "_owner",
          "type": "address"
        },
        {
          "internalType": "address[]",
          "name": "_tokens",
          "type": "address[]"
        },
        {
          "internalType": "address[]",
          "name": "_formulas",
          "type": "address[]"
        }
      ],
      "stateMutability": "nonpayable",
      "type": "constructor"
    },
    {
      "anonymous": false,
      "inputs": [
        {
          "indexed": true,
          "internalType": "address",
          "name": "oldOwner",
          "type": "address"
        },
        {
          "indexed": true,
          "internalType": "address",
          "name": "newOwner",
          "type": "address"
        }
      ],
      "name": "ChangedOwner",
      "type": "event"
    },
    {
      "anonymous": false,
      "inputs": [
        {
          "indexed": true,
          "internalType": "address",
          "name": "token",
          "type": "address"
        },
        {
          "indexed": true,
          "internalType": "address",
          "name": "formula",
          "type": "address"
        }
      ],
      "name": "TokenAdded",
      "type": "event"
    },
    {
      "anonymous": false,
      "inputs": [
        {
          "indexed": true,
          "internalType": "address",
          "name": "token",
          "type": "address"
        },
        {
          "indexed": true,
          "internalType": "address",
          "name": "formula",
          "type": "address"
        }
      ],
      "name": "TokenFormulaUpdated",
      "type": "event"
    },
    {
      "anonymous": false,
      "inputs": [
        {
          "indexed": true,
          "internalType": "address",
          "name": "token",
          "type": "address"
        }
      ],
      "name": "TokenRemoved",
      "type": "event"
    },
    {
      "inputs": [
        {
          "internalType": "address",
          "name": "newOwner",
          "type": "address"
        }
      ],
      "name": "changeOwner",
      "outputs": [],
      "stateMutability": "nonpayable",
      "type": "function"
    },
    {
      "inputs": [],
      "name": "owner",
      "outputs": [
        {
          "internalType": "address",
          "name": "",
          "type": "address"
        }
      ],
      "stateMutability": "view",
      "type": "function"
    },
    {
      "inputs": [
        {
          "internalType": "address",
          "name": "token",
          "type": "address"
        }
      ],
      "name": "removeToken",
      "outputs": [],
      "stateMutability": "nonpayable",
      "type": "function"
    },
    {
      "inputs": [
        {
          "internalType": "address",
          "name": "token",
          "type": "address"
        },
        {
          "internalType": "address",
          "name": "formula",
          "type": "address"
        }
      ],
      "name": "setTokenFormula",
      "outputs": [],
      "stateMutability": "nonpayable",
      "type": "function"
    },
    {
      "inputs": [
        {
          "internalType": "address",
          "name": "",
          "type": "address"
        }
      ],
      "name": "tokenFormulas",
      "outputs": [
        {
          "internalType": "address",
          "name": "",
          "type": "address"
        }
      ],
      "stateMutability": "view",
      "type": "function"
    }
  ],
  "transactionHash": "0xcc59516ceef7d3bc8ab6bbf552ecfbec1c9c22d04cbc0df591a12a7362021fc5",
  "args": [
    "0x5b0aC3279dBf84Bb8DA59Be1EcaB118198f022E5",
    [
      "0x1559FA1b8F28238FD5D76D9f434ad86FD20D1559",
      "0x82DBc2673e9640343D263a3c55DE49021AD39aE2"
    ],
    [
      "0x64b517250D9774939472675507Dad84D822C67e2",
      "0x93395Ae5f2F5F6C752390E3Cd1aa1c8FF4fb1393"
    ]
  ],
  "solcInputHash": "99c650a484f9ed3f1d614e5f32193a54",
  "bytecode": "0x608060405234801561001057600080fd5b5060405161085b38038061085b83398101604081905261002f916102a4565b80518251146100845760405162461bcd60e51b815260206004820181905260248201527f54523a3a636f6e7374727563746f723a206e6f742073616d65206c656e677468604482015260640160405180910390fd5b60005b8251811015610190578181815181106100a2576100a2610341565b6020026020010151600160008584815181106100c0576100c0610341565b60200260200101516001600160a01b03166001600160a01b0316815260200190815260200160002060006101000a8154816001600160a01b0302191690836001600160a01b0316021790555081818151811061011e5761011e610341565b60200260200101516001600160a01b031683828151811061014157610141610341565b60200260200101516001600160a01b03167fbe88140e48d23d6599570a0b245c3dac61bd4efb4f875e619c5d7d86513bb2f660405160405180910390a38061018881610318565b915050610087565b50600080546001600160a01b0319166001600160a01b03851690811782556040519091907f2748503f8f31d8071821d1d5144384ba6a465036cda17fa1629a8a2509ccee0e908290a350505061036d565b80516001600160a01b03811681146101f857600080fd5b919050565b600082601f83011261020e57600080fd5b815160206001600160401b038083111561022a5761022a610357565b8260051b604051601f19603f8301168101818110848211171561024f5761024f610357565b6040528481528381019250868401828801850189101561026e57600080fd5b600092505b8583101561029857610284816101e1565b845292840192600192909201918401610273565b50979650505050505050565b6000806000606084860312156102b957600080fd5b6102c2846101e1565b60208501519093506001600160401b03808211156102df57600080fd5b6102eb878388016101fd565b9350604086015191508082111561030157600080fd5b5061030e868287016101fd565b9150509250925092565b600060001982141561033a57634e487b7160e01b600052601160045260246000fd5b5060010190565b634e487b7160e01b600052603260045260246000fd5b634e487b7160e01b600052604160045260246000fd5b6104df8061037c6000396000f3fe608060405234801561001057600080fd5b50600436106100675760003560e01c80638da5cb5b116100505780638da5cb5b14610094578063a6f9dae1146100dd578063d419935f146100f057600080fd5b8063190ddf041461006c5780635fa7b58414610081575b600080fd5b61007f61007a366004610476565b610126565b005b61007f61008f366004610454565b610228565b6000546100b49073ffffffffffffffffffffffffffffffffffffffff1681565b60405173ffffffffffffffffffffffffffffffffffffffff909116815260200160405180910390f35b61007f6100eb366004610454565b61031d565b6100b46100fe366004610454565b60016020526000908152604090205473ffffffffffffffffffffffffffffffffffffffff1681565b60005473ffffffffffffffffffffffffffffffffffffffff1633146101ac576040517f08c379a000000000000000000000000000000000000000000000000000000000815260206004820152600960248201527f6e6f74206f776e6572000000000000000000000000000000000000000000000060448201526064015b60405180910390fd5b73ffffffffffffffffffffffffffffffffffffffff82811660008181526001602052604080822080547fffffffffffffffffffffffff0000000000000000000000000000000000000000169486169485179055517fbe88140e48d23d6599570a0b245c3dac61bd4efb4f875e619c5d7d86513bb2f69190a35050565b60005473ffffffffffffffffffffffffffffffffffffffff1633146102a9576040517f08c379a000000000000000000000000000000000000000000000000000000000815260206004820152600960248201527f6e6f74206f776e6572000000000000000000000000000000000000000000000060448201526064016101a3565b73ffffffffffffffffffffffffffffffffffffffff811660008181526001602052604080822080547fffffffffffffffffffffffff0000000000000000000000000000000000000000169055517f4c910b69fe65a61f7531b9c5042b2329ca7179c77290aa7e2eb3afa3c8511fd39190a250565b60005473ffffffffffffffffffffffffffffffffffffffff16331461039e576040517f08c379a000000000000000000000000000000000000000000000000000000000815260206004820152600960248201527f6e6f74206f776e6572000000000000000000000000000000000000000000000060448201526064016101a3565b6000805460405173ffffffffffffffffffffffffffffffffffffffff808516939216917f2748503f8f31d8071821d1d5144384ba6a465036cda17fa1629a8a2509ccee0e91a3600080547fffffffffffffffffffffffff00000000000000000000000000000000000000001673ffffffffffffffffffffffffffffffffffffffff92909216919091179055565b803573ffffffffffffffffffffffffffffffffffffffff8116811461044f57600080fd5b919050565b60006020828403121561046657600080fd5b61046f8261042b565b9392505050565b6000806040838503121561048957600080fd5b6104928361042b565b91506104a06020840161042b565b9050925092905056fea2646970667358221220d25a9dde4819af0d689c1892f1db8348bc46b6b74cd1d778586bed75d52accc064736f6c63430008060033",
  "devdoc": {
    "details": "Registry of tokens that Eden supports as stake for voting power  + their respective conversion formulas",
    "kind": "dev",
    "methods": {
      "changeOwner(address)": {
        "params": {
          "newOwner": "New owner address"
        }
      },
      "constructor": {
        "params": {
          "_formulas": "formula contracts for initial tokens",
          "_owner": "contract owner",
          "_tokens": "initially supported tokens"
        }
      },
      "removeToken(address)": {
        "params": {
          "token": "token address to remove"
        }
      },
      "setTokenFormula(address,address)": {
        "params": {
          "formula": "address of formula contract",
          "token": "token for formula"
        }
      }
    },
    "title": "TokenRegistry",
    "version": 1
  },
  "userdoc": {
    "kind": "user",
    "methods": {
      "changeOwner(address)": {
        "notice": "Change owner of token registry contract"
      },
      "constructor": {
        "notice": "Construct a new token registry contract"
      },
      "owner()": {
        "notice": "Current owner of this contract"
      },
      "removeToken(address)": {
        "notice": "Remove conversion formula address for token"
      },
      "setTokenFormula(address,address)": {
        "notice": "Set conversion formula address for token"
      },
      "tokenFormulas(address)": {
        "notice": "mapping of tokens to voting power calculation (formula) smart contract addresses"
      }
    },
    "version": 1
  },
  "storageLayout": {
    "storage": [
      {
        "astId": 6241,
        "contract": "contracts/TokenRegistry.sol:TokenRegistry",
        "label": "owner",
        "offset": 0,
        "slot": "0",
        "type": "t_address"
      },
      {
        "astId": 6247,
        "contract": "contracts/TokenRegistry.sol:TokenRegistry",
        "label": "tokenFormulas",
        "offset": 0,
        "slot": "1",
        "type": "t_mapping(t_address,t_address)"
      }
    ],
    "types": {
      "t_address": {
        "encoding": "inplace",
        "label": "address",
        "numberOfBytes": "20"
      },
      "t_mapping(t_address,t_address)": {
        "encoding": "mapping",
        "key": "t_address",
        "label": "mapping(address => address)",
        "numberOfBytes": "32",
        "value": "t_address"
      }
    }
  }
}