{
  "address": "0x726aDC632871Ff796379da14F9D5aeb199bEd505",
  "abi": [
    {
      "inputs": [
        {
          "internalType": "address",
          "name": "_admin",
          "type": "address"
        },
        {
          "internalType": "address[]",
          "name": "_blockProducers",
          "type": "address[]"
        },
        {
          "internalType": "address[]",
          "name": "_collectors",
          "type": "address[]"
        }
      ],
      "stateMutability": "nonpayable",
      "type": "constructor"
    },
    {
      "anonymous": false,
      "inputs": [
        {
          "indexed": true,
          "internalType": "address",
          "name": "producer",
          "type": "address"
        }
      ],
      "name": "BlockProducerAdded",
      "type": "event"
    },
    {
      "anonymous": false,
      "inputs": [
        {
          "indexed": true,
          "internalType": "address",
          "name": "producer",
          "type": "address"
        }
      ],
      "name": "BlockProducerRemoved",
      "type": "event"
    },
    {
      "anonymous": false,
      "inputs": [
        {
          "indexed": true,
          "internalType": "address",
          "name": "producer",
          "type": "address"
        },
        {
          "indexed": true,
          "internalType": "address",
          "name": "collector",
          "type": "address"
        }
      ],
      "name": "BlockProducerRewardCollectorChanged",
      "type": "event"
    },
    {
      "anonymous": false,
      "inputs": [],
      "name": "RewardScheduleChanged",
      "type": "event"
    },
    {
      "anonymous": false,
      "inputs": [
        {
          "indexed": true,
          "internalType": "bytes32",
          "name": "role",
          "type": "bytes32"
        },
        {
          "indexed": true,
          "internalType": "bytes32",
          "name": "previousAdminRole",
          "type": "bytes32"
        },
        {
          "indexed": true,
          "internalType": "bytes32",
          "name": "newAdminRole",
          "type": "bytes32"
        }
      ],
      "name": "RoleAdminChanged",
      "type": "event"
    },
    {
      "anonymous": false,
      "inputs": [
        {
          "indexed": true,
          "internalType": "bytes32",
          "name": "role",
          "type": "bytes32"
        },
        {
          "indexed": true,
          "internalType": "address",
          "name": "account",
          "type": "address"
        },
        {
          "indexed": true,
          "internalType": "address",
          "name": "sender",
          "type": "address"
        }
      ],
      "name": "RoleGranted",
      "type": "event"
    },
    {
      "anonymous": false,
      "inputs": [
        {
          "indexed": true,
          "internalType": "bytes32",
          "name": "role",
          "type": "bytes32"
        },
        {
          "indexed": true,
          "internalType": "address",
          "name": "account",
          "type": "address"
        },
        {
          "indexed": true,
          "internalType": "address",
          "name": "sender",
          "type": "address"
        }
      ],
      "name": "RoleRevoked",
      "type": "event"
    },
    {
      "inputs": [],
      "name": "DEFAULT_ADMIN_ROLE",
      "outputs": [
        {
          "internalType": "bytes32",
          "name": "",
          "type": "bytes32"
        }
      ],
      "stateMutability": "view",
      "type": "function"
    },
    {
      "inputs": [],
      "name": "DELEGATOR_ROLE",
      "outputs": [
        {
          "internalType": "bytes32",
          "name": "",
          "type": "bytes32"
        }
      ],
      "stateMutability": "view",
      "type": "function"
    },
    {
      "inputs": [],
      "name": "GOV_ROLE",
      "outputs": [
        {
          "internalType": "bytes32",
          "name": "",
          "type": "bytes32"
        }
      ],
      "stateMutability": "view",
      "type": "function"
    },
    {
      "inputs": [],
      "name": "REWARD_SCHEDULE_ENTRY_LENGTH",
      "outputs": [
        {
          "internalType": "uint256",
          "name": "",
          "type": "uint256"
        }
      ],
      "stateMutability": "view",
      "type": "function"
    },
    {
      "inputs": [
        {
          "internalType": "address",
          "name": "producer",
          "type": "address"
        }
      ],
      "name": "add",
      "outputs": [],
      "stateMutability": "nonpayable",
      "type": "function"
    },
    {
      "inputs": [
        {
          "internalType": "address[]",
          "name": "producers",
          "type": "address[]"
        }
      ],
      "name": "addBatch",
      "outputs": [],
      "stateMutability": "nonpayable",
      "type": "function"
    },
    {
      "inputs": [
        {
          "internalType": "address",
          "name": "",
          "type": "address"
        }
      ],
      "name": "blockProducer",
      "outputs": [
        {
          "internalType": "bool",
          "name": "",
          "type": "bool"
        }
      ],
      "stateMutability": "view",
      "type": "function"
    },
    {
      "inputs": [
        {
          "internalType": "address",
          "name": "producer",
          "type": "address"
        },
        {
          "internalType": "address",
          "name": "collector",
          "type": "address"
        }
      ],
      "name": "delegate",
      "outputs": [],
      "stateMutability": "nonpayable",
      "type": "function"
    },
    {
      "inputs": [
        {
          "internalType": "address[]",
          "name": "producers",
          "type": "address[]"
        },
        {
          "internalType": "address[]",
          "name": "collectors",
          "type": "address[]"
        }
      ],
      "name": "delegateBatch",
      "outputs": [],
      "stateMutability": "nonpayable",
      "type": "function"
    },
    {
      "inputs": [
        {
          "internalType": "bytes32",
          "name": "role",
          "type": "bytes32"
        }
      ],
      "name": "getRoleAdmin",
      "outputs": [
        {
          "internalType": "bytes32",
          "name": "",
          "type": "bytes32"
        }
      ],
      "stateMutability": "view",
      "type": "function"
    },
    {
      "inputs": [
        {
          "internalType": "bytes32",
          "name": "role",
          "type": "bytes32"
        },
        {
          "internalType": "uint256",
          "name": "index",
          "type": "uint256"
        }
      ],
      "name": "getRoleMember",
      "outputs": [
        {
          "internalType": "address",
          "name": "",
          "type": "address"
        }
      ],
      "stateMutability": "view",
      "type": "function"
    },
    {
      "inputs": [
        {
          "internalType": "bytes32",
          "name": "role",
          "type": "bytes32"
        }
      ],
      "name": "getRoleMemberCount",
      "outputs": [
        {
          "internalType": "uint256",
          "name": "",
          "type": "uint256"
        }
      ],
      "stateMutability": "view",
      "type": "function"
    },
    {
      "inputs": [
        {
          "internalType": "bytes32",
          "name": "role",
          "type": "bytes32"
        },
        {
          "internalType": "address",
          "name": "account",
          "type": "address"
        }
      ],
      "name": "grantRole",
      "outputs": [],
      "stateMutability": "nonpayable",
      "type": "function"
    },
    {
      "inputs": [
        {
          "internalType": "bytes32",
          "name": "role",
          "type": "bytes32"
        },
        {
          "internalType": "address",
          "name": "account",
          "type": "address"
        }
      ],
      "name": "hasRole",
      "outputs": [
        {
          "internalType": "bool",
          "name": "",
          "type": "bool"
        }
      ],
      "stateMutability": "view",
      "type": "function"
    },
    {
      "inputs": [
        {
          "internalType": "address",
          "name": "producer",
          "type": "address"
        }
      ],
      "name": "remove",
      "outputs": [],
      "stateMutability": "nonpayable",
      "type": "function"
    },
    {
      "inputs": [
        {
          "internalType": "address[]",
          "name": "producers",
          "type": "address[]"
        }
      ],
      "name": "removeBatch",
      "outputs": [],
      "stateMutability": "nonpayable",
      "type": "function"
    },
    {
      "inputs": [
        {
          "internalType": "bytes32",
          "name": "role",
          "type": "bytes32"
        },
        {
          "internalType": "address",
          "name": "account",
          "type": "address"
        }
      ],
      "name": "renounceRole",
      "outputs": [],
      "stateMutability": "nonpayable",
      "type": "function"
    },
    {
      "inputs": [
        {
          "internalType": "bytes32",
          "name": "role",
          "type": "bytes32"
        },
        {
          "internalType": "address",
          "name": "account",
          "type": "address"
        }
      ],
      "name": "revokeRole",
      "outputs": [],
      "stateMutability": "nonpayable",
      "type": "function"
    },
    {
      "inputs": [
        {
          "internalType": "address",
          "name": "",
          "type": "address"
        }
      ],
      "name": "rewardCollector",
      "outputs": [
        {
          "internalType": "address",
          "name": "",
          "type": "address"
        }
      ],
      "stateMutability": "view",
      "type": "function"
    },
    {
      "inputs": [],
      "name": "rewardScheduleEntries",
      "outputs": [
        {
          "internalType": "uint256",
          "name": "",
          "type": "uint256"
        }
      ],
      "stateMutability": "view",
      "type": "function"
    },
    {
      "inputs": [
        {
          "internalType": "uint256",
          "name": "index",
          "type": "uint256"
        }
      ],
      "name": "rewardScheduleEntry",
      "outputs": [
        {
          "components": [
            {
              "internalType": "uint64",
              "name": "startTime",
              "type": "uint64"
            },
            {
              "internalType": "uint64",
              "name": "epochDuration",
              "type": "uint64"
            },
            {
              "internalType": "uint128",
              "name": "rewardsPerEpoch",
              "type": "uint128"
            }
          ],
          "internalType": "struct IGovernance.RewardScheduleEntry",
          "name": "",
          "type": "tuple"
        }
      ],
      "stateMutability": "view",
      "type": "function"
    },
    {
      "inputs": [
        {
          "internalType": "bytes",
          "name": "set",
          "type": "bytes"
        }
      ],
      "name": "setRewardSchedule",
      "outputs": [],
      "stateMutability": "nonpayable",
      "type": "function"
    },
    {
      "inputs": [
        {
          "internalType": "bytes4",
          "name": "interfaceId",
          "type": "bytes4"
        }
      ],
      "name": "supportsInterface",
      "outputs": [
        {
          "internalType": "bool",
          "name": "",
          "type": "bool"
        }
      ],
      "stateMutability": "view",
      "type": "function"
    }
  ],
  "transactionHash": "0x6aeb73da9c2355c7bc1ec667619a657633c30b048a4d2244383990a2d560f8b5",
  "args": [
    "0x8F48fe27f68a86786fbBD5D38Ea53C2748B234B6",
    [],
    []
  ],
  "solcInputHash": "43cf21757cc219c1b24effd391603939",
  "bytecode": "0x60806040523480156200001157600080fd5b506040516200297a3803806200297a8339810160408190526200003491620004e8565b80518251146200007c5760405162461bcd60e51b815260206004820152600f60248201526e0d8cadccee8d040dad2e6dac2e8c6d608b1b604482015260640160405180910390fd5b620000a87f0603f2636f0ca34ae3ea5a23bb826e2bd2ffd59fb1c01edc1ba10fba2899d1ba84620002b3565b620000d47f1948e62cb88693562db3600e12aba035ba28da4a0626473ef28234bb8905407384620002b3565b620000e1600084620002b3565b60005b8251811015620002a9576001600360008584815181106200010957620001096200058f565b60200260200101516001600160a01b03166001600160a01b0316815260200190815260200160002060006101000a81548160ff0219169083151502179055508281815181106200015d576200015d6200058f565b60200260200101516001600160a01b03167fd4609c71470de2c1f8b9f35c27d41cf2fca85f3deddeec03938a47ee98afd4f160405160405180910390a2818181518110620001af57620001af6200058f565b602002602001015160026000858481518110620001d057620001d06200058f565b60200260200101516001600160a01b03166001600160a01b0316815260200190815260200160002060006101000a8154816001600160a01b0302191690836001600160a01b031602179055508181815181106200023157620002316200058f565b60200260200101516001600160a01b03168382815181106200025757620002576200058f565b60200260200101516001600160a01b03167f0615eabcfb1b8be975ad51b1d48d4170e825e942374f4017619310ca8baa2b8e60405160405180910390a380620002a08162000565565b915050620000e4565b50505050620005bb565b620002ca8282620002f660201b620013561760201c565b6000828152600160209081526040909120620002f19183906200136062000306821b17901c565b505050565b62000302828262000326565b5050565b60006200031d836001600160a01b038416620003c6565b90505b92915050565b6000828152602081815260408083206001600160a01b038516845290915290205460ff1662000302576000828152602081815260408083206001600160a01b03851684529091529020805460ff19166001179055620003823390565b6001600160a01b0316816001600160a01b0316837f2f8788117e7eff1d82e926ec794901d17c78024a50270940304540a733656f0d60405160405180910390a45050565b60008181526001830160205260408120546200040f5750815460018181018455600084815260208082209093018490558454848252828601909352604090209190915562000320565b50600062000320565b80516001600160a01b03811681146200043057600080fd5b919050565b600082601f8301126200044757600080fd5b815160206001600160401b0380831115620004665762000466620005a5565b8260051b604051601f19603f830116810181811084821117156200048e576200048e620005a5565b60405284815283810192508684018288018501891015620004ae57600080fd5b600092505b85831015620004dc57620004c78162000418565b845292840192600192909201918401620004b3565b50979650505050505050565b600080600060608486031215620004fe57600080fd5b620005098462000418565b60208501519093506001600160401b03808211156200052757600080fd5b620005358783880162000435565b935060408601519150808211156200054c57600080fd5b506200055b8682870162000435565b9150509250925092565b60006000198214156200058857634e487b7160e01b600052601160045260246000fd5b5060010190565b634e487b7160e01b600052603260045260246000fd5b634e487b7160e01b600052604160045260246000fd5b6123af80620005cb6000396000f3fe608060405234801561001057600080fd5b506004361061018d5760003560e01c806373c248f4116100e3578063b046222e1161008c578063d547741f11610066578063d547741f1461042c578063d9b10d6d1461043f578063e243c2491461044757600080fd5b8063b046222e146103df578063b536818a146103f2578063ca15c8731461041957600080fd5b806391d14854116100bd57806391d148541461036c57806397b8a3a7146103b0578063a217fddf146103d757600080fd5b806373c248f4146102f05780638ab65686146103465780639010d07c1461035957600080fd5b80632f2ff15d116101455780634fcb9b3e1161011f5780634fcb9b3e1461025f5780636b845bfe146102825780636cd8830c1461029557600080fd5b80632f2ff15d1461022657806336568abe146102395780634214f1f21461024c57600080fd5b8063248a9ca311610176578063248a9ca3146101cf57806324efa2641461020057806329092d0e1461021357600080fd5b806301ffc9a7146101925780630a3b0a4f146101ba575b600080fd5b6101a56101a0366004611f0e565b61044f565b60405190151581526020015b60405180910390f35b6101cd6101c8366004611dc1565b6104ab565b005b6101f26101dd366004611eb0565b60009081526020819052604090206001015490565b6040519081526020016101b1565b6101cd61020e366004611e0f565b61064f565b6101cd610221366004611dc1565b610887565b6101cd610234366004611ec9565b610a27565b6101cd610247366004611ec9565b610a4e565b6101cd61025a366004611e4c565b610a70565b6101a561026d366004611dc1565b60036020526000908152604090205460ff1681565b6101cd610290366004611e0f565b610ccd565b6102cb6102a3366004611dc1565b60026020526000908152604090205473ffffffffffffffffffffffffffffffffffffffff1681565b60405173ffffffffffffffffffffffffffffffffffffffff90911681526020016101b1565b6103036102fe366004611eb0565b610f05565b60408051825167ffffffffffffffff908116825260208085015190911690820152918101516fffffffffffffffffffffffffffffffff16908201526060016101b1565b6101cd610354366004611ddc565b6110e6565b6102cb610367366004611eec565b61121d565b6101a561037a366004611ec9565b60009182526020828152604080842073ffffffffffffffffffffffffffffffffffffffff93909316845291905290205460ff1690565b6101f27f1948e62cb88693562db3600e12aba035ba28da4a0626473ef28234bb8905407381565b6101f2600081565b6101cd6103ed366004611f50565b61123c565b6101f27f0603f2636f0ca34ae3ea5a23bb826e2bd2ffd59fb1c01edc1ba10fba2899d1ba81565b6101f2610427366004611eb0565b611314565b6101cd61043a366004611ec9565b61132b565b6101f2611335565b6101f2602081565b60007fffffffff0000000000000000000000000000000000000000000000000000000082167f5a05180f0000000000000000000000000000000000000000000000000000000014806104a557506104a582611382565b92915050565b3360009081527ff42cf6f079dae9a1c4905bf4a189ed49c3efccf20a4af60f202bafa7d7d85a03602052604090205460ff16610548576040517f08c379a000000000000000000000000000000000000000000000000000000000815260206004820152600b60248201527f6d75737420626520676f7600000000000000000000000000000000000000000060448201526064015b60405180910390fd5b73ffffffffffffffffffffffffffffffffffffffff811660009081526003602052604090205460ff16156105d8576040517f08c379a000000000000000000000000000000000000000000000000000000000815260206004820152601660248201527f616c726561647920626c6f636b2070726f647563657200000000000000000000604482015260640161053f565b73ffffffffffffffffffffffffffffffffffffffff811660008181526003602052604080822080547fffffffffffffffffffffffffffffffffffffffffffffffffffffffffffffff00166001179055517fd4609c71470de2c1f8b9f35c27d41cf2fca85f3deddeec03938a47ee98afd4f19190a250565b3360009081527ff42cf6f079dae9a1c4905bf4a189ed49c3efccf20a4af60f202bafa7d7d85a03602052604090205460ff166106e7576040517f08c379a000000000000000000000000000000000000000000000000000000000815260206004820152600b60248201527f6d75737420626520676f76000000000000000000000000000000000000000000604482015260640161053f565b60005b815181101561088357600360008383815181106107095761070961231b565b60209081029190910181015173ffffffffffffffffffffffffffffffffffffffff1682528101919091526040016000205460ff16156107a4576040517f08c379a000000000000000000000000000000000000000000000000000000000815260206004820152601660248201527f616c726561647920626c6f636b2070726f647563657200000000000000000000604482015260640161053f565b6001600360008484815181106107bc576107bc61231b565b602002602001015173ffffffffffffffffffffffffffffffffffffffff1673ffffffffffffffffffffffffffffffffffffffff16815260200190815260200160002060006101000a81548160ff0219169083151502179055508181815181106108275761082761231b565b602002602001015173ffffffffffffffffffffffffffffffffffffffff167fd4609c71470de2c1f8b9f35c27d41cf2fca85f3deddeec03938a47ee98afd4f160405160405180910390a28061087b81612284565b9150506106ea565b5050565b3360009081527ff42cf6f079dae9a1c4905bf4a189ed49c3efccf20a4af60f202bafa7d7d85a03602052604090205460ff1661091f576040517f08c379a000000000000000000000000000000000000000000000000000000000815260206004820152600b60248201527f6d75737420626520676f76000000000000000000000000000000000000000000604482015260640161053f565b73ffffffffffffffffffffffffffffffffffffffff811660009081526003602052604090205460ff1615156001146109b3576040517f08c379a000000000000000000000000000000000000000000000000000000000815260206004820152601260248201527f6e6f7420626c6f636b2070726f64756365720000000000000000000000000000604482015260640161053f565b73ffffffffffffffffffffffffffffffffffffffff811660008181526003602052604080822080547fffffffffffffffffffffffffffffffffffffffffffffffffffffffffffffff00169055517f0d5bda236a0ce9d98d8af2e87bd2ca28eb79bf588d01c05b3f7ac4c34ff408599190a250565b610a318282611419565b6000828152600160205260409020610a499082611360565b505050565b610a58828261143f565b6000828152600160205260409020610a4990826114ee565b3360009081527f0a53e73864620236ae8f220690a15a7e4438b7a8f9a5aa637c07161427083d2b602052604090205460ff16610b08576040517f08c379a000000000000000000000000000000000000000000000000000000000815260206004820152601160248201527f6d7573742062652064656c656761746f72000000000000000000000000000000604482015260640161053f565b8051825114610b73576040517f08c379a000000000000000000000000000000000000000000000000000000000815260206004820152600f60248201527f6c656e677468206d69736d617463680000000000000000000000000000000000604482015260640161053f565b60005b8251811015610a4957818181518110610b9157610b9161231b565b602002602001015160026000858481518110610baf57610baf61231b565b602002602001015173ffffffffffffffffffffffffffffffffffffffff1673ffffffffffffffffffffffffffffffffffffffff16815260200190815260200160002060006101000a81548173ffffffffffffffffffffffffffffffffffffffff021916908373ffffffffffffffffffffffffffffffffffffffff160217905550818181518110610c4157610c4161231b565b602002602001015173ffffffffffffffffffffffffffffffffffffffff16838281518110610c7157610c7161231b565b602002602001015173ffffffffffffffffffffffffffffffffffffffff167f0615eabcfb1b8be975ad51b1d48d4170e825e942374f4017619310ca8baa2b8e60405160405180910390a380610cc581612284565b915050610b76565b3360009081527ff42cf6f079dae9a1c4905bf4a189ed49c3efccf20a4af60f202bafa7d7d85a03602052604090205460ff16610d65576040517f08c379a000000000000000000000000000000000000000000000000000000000815260206004820152600b60248201527f6d75737420626520676f76000000000000000000000000000000000000000000604482015260640161053f565b60005b81518110156108835760036000838381518110610d8757610d8761231b565b60209081029190910181015173ffffffffffffffffffffffffffffffffffffffff1682528101919091526040016000205460ff161515600114610e26576040517f08c379a000000000000000000000000000000000000000000000000000000000815260206004820152601260248201527f6e6f7420626c6f636b2070726f64756365720000000000000000000000000000604482015260640161053f565b600060036000848481518110610e3e57610e3e61231b565b602002602001015173ffffffffffffffffffffffffffffffffffffffff1673ffffffffffffffffffffffffffffffffffffffff16815260200190815260200160002060006101000a81548160ff021916908315150217905550818181518110610ea957610ea961231b565b602002602001015173ffffffffffffffffffffffffffffffffffffffff167f0d5bda236a0ce9d98d8af2e87bd2ca28eb79bf588d01c05b3f7ac4c34ff4085960405160405180910390a280610efd81612284565b915050610d68565b604080516060810182526000808252602082018190529181019190915260408051606081018252600080825260208201819052918101919091526000610f4c602085612177565b9050610feb8160048054610f5f90612230565b80601f0160208091040260200160405190810160405280929190818152602001828054610f8b90612230565b8015610fd85780601f10610fad57610100808354040283529160200191610fd8565b820191906000526020600020905b815481529060010190602001808311610fbb57829003601f168201915b505050505061151090919063ffffffff16565b67ffffffffffffffff168252611012611005826008612124565b60048054610f5f90612230565b67ffffffffffffffff1660208301526110c861102f826010612124565b6004805461103c90612230565b80601f016020809104026020016040519081016040528092919081815260200182805461106890612230565b80156110b55780601f1061108a576101008083540402835291602001916110b5565b820191906000526020600020905b81548152906001019060200180831161109857829003601f168201915b505050505061159090919063ffffffff16565b6fffffffffffffffffffffffffffffffff1660408301525092915050565b3360009081527f0a53e73864620236ae8f220690a15a7e4438b7a8f9a5aa637c07161427083d2b6020526040902054829060ff168061113a57503373ffffffffffffffffffffffffffffffffffffffff8216145b6111a0576040517f08c379a000000000000000000000000000000000000000000000000000000000815260206004820152601d60248201527f6d7573742062652070726f6475636572206f722064656c656761746f72000000604482015260640161053f565b73ffffffffffffffffffffffffffffffffffffffff83811660008181526002602052604080822080547fffffffffffffffffffffffff0000000000000000000000000000000000000000169487169485179055517f0615eabcfb1b8be975ad51b1d48d4170e825e942374f4017619310ca8baa2b8e9190a3505050565b60008281526001602052604081206112359083611610565b9392505050565b3360009081527ff42cf6f079dae9a1c4905bf4a189ed49c3efccf20a4af60f202bafa7d7d85a03602052604090205460ff166112d4576040517f08c379a000000000000000000000000000000000000000000000000000000000815260206004820152600b60248201527f6d75737420626520676f76000000000000000000000000000000000000000000604482015260640161053f565b80516112e7906004906020840190611c72565b506040517f278f09c68d571c125592b8e05ea92a9ab405c042bc8f8aa2eced5d44c918fb4490600090a150565b60008181526001602052604081206104a59061161c565b610a588282611626565b600060206004805461134690612230565b61135192915061213c565b905090565b610883828261164c565b60006112358373ffffffffffffffffffffffffffffffffffffffff841661173c565b60007fffffffff0000000000000000000000000000000000000000000000000000000082167f7965db0b0000000000000000000000000000000000000000000000000000000014806104a557507f01ffc9a7000000000000000000000000000000000000000000000000000000007fffffffff000000000000000000000000000000000000000000000000000000008316146104a5565b600082815260208190526040902060010154611435813361178b565b610a49838361164c565b73ffffffffffffffffffffffffffffffffffffffff811633146114e4576040517f08c379a000000000000000000000000000000000000000000000000000000000815260206004820152602f60248201527f416363657373436f6e74726f6c3a2063616e206f6e6c792072656e6f756e636560448201527f20726f6c657320666f722073656c660000000000000000000000000000000000606482015260840161053f565b610883828261185b565b60006112358373ffffffffffffffffffffffffffffffffffffffff8416611912565b600061151d826008612124565b83511015611587576040517f08c379a000000000000000000000000000000000000000000000000000000000815260206004820152601460248201527f746f55696e7436345f6f75744f66426f756e6473000000000000000000000000604482015260640161053f565b50016008015190565b600061159d826010612124565b83511015611607576040517f08c379a000000000000000000000000000000000000000000000000000000000815260206004820152601560248201527f746f55696e743132385f6f75744f66426f756e64730000000000000000000000604482015260640161053f565b50016010015190565b60006112358383611a05565b60006104a5825490565b600082815260208190526040902060010154611642813361178b565b610a49838361185b565b60008281526020818152604080832073ffffffffffffffffffffffffffffffffffffffff8516845290915290205460ff166108835760008281526020818152604080832073ffffffffffffffffffffffffffffffffffffffff85168452909152902080547fffffffffffffffffffffffffffffffffffffffffffffffffffffffffffffff001660011790556116de3390565b73ffffffffffffffffffffffffffffffffffffffff168173ffffffffffffffffffffffffffffffffffffffff16837f2f8788117e7eff1d82e926ec794901d17c78024a50270940304540a733656f0d60405160405180910390a45050565b6000818152600183016020526040812054611783575081546001818101845560008481526020808220909301849055845484825282860190935260409020919091556104a5565b5060006104a5565b60008281526020818152604080832073ffffffffffffffffffffffffffffffffffffffff8516845290915290205460ff16610883576117e18173ffffffffffffffffffffffffffffffffffffffff166014611a2f565b6117ec836020611a2f565b6040516020016117fd929190612003565b604080517fffffffffffffffffffffffffffffffffffffffffffffffffffffffffffffffe0818403018152908290527f08c379a000000000000000000000000000000000000000000000000000000000825261053f91600401612084565b60008281526020818152604080832073ffffffffffffffffffffffffffffffffffffffff8516845290915290205460ff16156108835760008281526020818152604080832073ffffffffffffffffffffffffffffffffffffffff8516808552925280832080547fffffffffffffffffffffffffffffffffffffffffffffffffffffffffffffff0016905551339285917ff6391f5c32d9c69d2a47ea670b442974b53935d1edc7fd64eb21e047a839171b9190a45050565b600081815260018301602052604081205480156119fb5760006119366001836121b4565b855490915060009061194a906001906121b4565b90508181146119af57600086600001828154811061196a5761196a61231b565b906000526020600020015490508087600001848154811061198d5761198d61231b565b6000918252602080832090910192909255918252600188019052604090208390555b85548690806119c0576119c06122ec565b6001900381819060005260206000200160009055905585600101600086815260200190815260200160002060009055600193505050506104a5565b60009150506104a5565b6000826000018281548110611a1c57611a1c61231b565b9060005260206000200154905092915050565b60606000611a3e836002612177565b611a49906002612124565b67ffffffffffffffff811115611a6157611a6161234a565b6040519080825280601f01601f191660200182016040528015611a8b576020820181803683370190505b5090507f300000000000000000000000000000000000000000000000000000000000000081600081518110611ac257611ac261231b565b60200101907effffffffffffffffffffffffffffffffffffffffffffffffffffffffffffff1916908160001a9053507f780000000000000000000000000000000000000000000000000000000000000081600181518110611b2557611b2561231b565b60200101907effffffffffffffffffffffffffffffffffffffffffffffffffffffffffffff1916908160001a9053506000611b61846002612177565b611b6c906001612124565b90505b6001811115611c09577f303132333435363738396162636465660000000000000000000000000000000085600f1660108110611bad57611bad61231b565b1a60f81b828281518110611bc357611bc361231b565b60200101907effffffffffffffffffffffffffffffffffffffffffffffffffffffffffffff1916908160001a90535060049490941c93611c02816121fb565b9050611b6f565b508315611235576040517f08c379a000000000000000000000000000000000000000000000000000000000815260206004820181905260248201527f537472696e67733a20686578206c656e67746820696e73756666696369656e74604482015260640161053f565b828054611c7e90612230565b90600052602060002090601f016020900481019282611ca05760008555611ce6565b82601f10611cb957805160ff1916838001178555611ce6565b82800160010185558215611ce6579182015b82811115611ce6578251825591602001919060010190611ccb565b50611cf2929150611cf6565b5090565b5b80821115611cf25760008155600101611cf7565b803573ffffffffffffffffffffffffffffffffffffffff81168114611d2f57600080fd5b919050565b600082601f830112611d4557600080fd5b8135602067ffffffffffffffff821115611d6157611d6161234a565b8160051b611d708282016120d5565b838152828101908684018388018501891015611d8b57600080fd5b600093505b85841015611db557611da181611d0b565b835260019390930192918401918401611d90565b50979650505050505050565b600060208284031215611dd357600080fd5b61123582611d0b565b60008060408385031215611def57600080fd5b611df883611d0b565b9150611e0660208401611d0b565b90509250929050565b600060208284031215611e2157600080fd5b813567ffffffffffffffff811115611e3857600080fd5b611e4484828501611d34565b949350505050565b60008060408385031215611e5f57600080fd5b823567ffffffffffffffff80821115611e7757600080fd5b611e8386838701611d34565b93506020850135915080821115611e9957600080fd5b50611ea685828601611d34565b9150509250929050565b600060208284031215611ec257600080fd5b5035919050565b60008060408385031215611edc57600080fd5b82359150611e0660208401611d0b565b60008060408385031215611eff57600080fd5b50508035926020909101359150565b600060208284031215611f2057600080fd5b81357fffffffff000000000000000000000000000000000000000000000000000000008116811461123557600080fd5b60006020808385031215611f6357600080fd5b823567ffffffffffffffff80821115611f7b57600080fd5b818501915085601f830112611f8f57600080fd5b813581811115611fa157611fa161234a565b611fd1847fffffffffffffffffffffffffffffffffffffffffffffffffffffffffffffffe0601f840116016120d5565b91508082528684828501011115611fe757600080fd5b8084840185840137600090820190930192909252509392505050565b7f416363657373436f6e74726f6c3a206163636f756e742000000000000000000081526000835161203b8160178501602088016121cb565b7f206973206d697373696e6720726f6c652000000000000000000000000000000060179184019182015283516120788160288401602088016121cb565b01602801949350505050565b60208152600082518060208401526120a38160408501602087016121cb565b601f017fffffffffffffffffffffffffffffffffffffffffffffffffffffffffffffffe0169190910160400192915050565b604051601f82017fffffffffffffffffffffffffffffffffffffffffffffffffffffffffffffffe016810167ffffffffffffffff8111828210171561211c5761211c61234a565b604052919050565b60008219821115612137576121376122bd565b500190565b600082612172577f4e487b7100000000000000000000000000000000000000000000000000000000600052601260045260246000fd5b500490565b6000817fffffffffffffffffffffffffffffffffffffffffffffffffffffffffffffffff04831182151516156121af576121af6122bd565b500290565b6000828210156121c6576121c66122bd565b500390565b60005b838110156121e65781810151838201526020016121ce565b838111156121f5576000848401525b50505050565b60008161220a5761220a6122bd565b507fffffffffffffffffffffffffffffffffffffffffffffffffffffffffffffffff0190565b600181811c9082168061224457607f821691505b6020821081141561227e577f4e487b7100000000000000000000000000000000000000000000000000000000600052602260045260246000fd5b50919050565b60007fffffffffffffffffffffffffffffffffffffffffffffffffffffffffffffffff8214156122b6576122b66122bd565b5060010190565b7f4e487b7100000000000000000000000000000000000000000000000000000000600052601160045260246000fd5b7f4e487b7100000000000000000000000000000000000000000000000000000000600052603160045260246000fd5b7f4e487b7100000000000000000000000000000000000000000000000000000000600052603260045260246000fd5b7f4e487b7100000000000000000000000000000000000000000000000000000000600052604160045260246000fdfea2646970667358221220b45f3abdb6e657b949607c30b1db797fb8bfcbbca53757fa004b9bf28f287faa64736f6c63430008060033",
  "devdoc": {
    "details": "Add or remove block producers from the network and set rewards collectors",
    "kind": "dev",
    "methods": {
      "add(address)": {
        "details": "Only governance can call",
        "params": {
          "producer": "Block producer address"
        }
      },
      "addBatch(address[])": {
        "details": "Only governance can call",
        "params": {
          "producers": "List of block producers"
        }
      },
      "constructor": {
        "params": {
          "_admin": "Governance admin",
          "_blockProducers": "Initial whitelist of block producers",
          "_collectors": "Initial reward collectors for block producers"
        }
      },
      "delegate(address,address)": {
        "details": "Only delegator admin or block producer can call",
        "params": {
          "collector": "Collector address",
          "producer": "Block producer address"
        }
      },
      "delegateBatch(address[],address[])": {
        "details": "Only delegator admin can call",
        "params": {
          "collectors": "Collector addresses",
          "producers": "Block producer addresses"
        }
      },
      "getRoleAdmin(bytes32)": {
        "details": "Returns the admin role that controls `role`. See {grantRole} and {revokeRole}. To change a role's admin, use {_setRoleAdmin}."
      },
      "getRoleMember(bytes32,uint256)": {
        "details": "Returns one of the accounts that have `role`. `index` must be a value between 0 and {getRoleMemberCount}, non-inclusive. Role bearers are not sorted in any particular way, and their ordering may change at any point. WARNING: When using {getRoleMember} and {getRoleMemberCount}, make sure you perform all queries on the same block. See the following https://forum.openzeppelin.com/t/iterating-over-elements-on-enumerableset-in-openzeppelin-contracts/2296[forum post] for more information."
      },
      "getRoleMemberCount(bytes32)": {
        "details": "Returns the number of accounts that have `role`. Can be used together with {getRoleMember} to enumerate all bearers of a role."
      },
      "grantRole(bytes32,address)": {
        "details": "Overload {grantRole} to track enumerable memberships"
      },
      "hasRole(bytes32,address)": {
        "details": "Returns `true` if `account` has been granted `role`."
      },
      "remove(address)": {
        "details": "Only governance can call",
        "params": {
          "producer": "Block producer address"
        }
      },
      "removeBatch(address[])": {
        "details": "Only governance can call",
        "params": {
          "producers": "List of block producers"
        }
      },
      "renounceRole(bytes32,address)": {
        "details": "Overload {renounceRole} to track enumerable memberships"
      },
      "revokeRole(bytes32,address)": {
        "details": "Overload {revokeRole} to track enumerable memberships"
      },
      "rewardScheduleEntries()": {
        "returns": {
          "_0": "Number of rewards schedule entries"
        }
      },
      "rewardScheduleEntry(uint256)": {
        "params": {
          "index": "Index location"
        },
        "returns": {
          "_0": "Rewards schedule entry"
        }
      },
      "setRewardSchedule(bytes)": {
        "details": "Only governance can call",
        "params": {
          "set": "Packed bytes representing reward schedule"
        }
      },
      "supportsInterface(bytes4)": {
        "details": "See {IERC165-supportsInterface}."
      }
    },
    "stateVariables": {
      "_rewardSchedule": {
        "details": "Packed struct containing rewards distribution details"
      }
    },
    "title": "DistributorGovernance",
    "version": 1
  },
  "userdoc": {
    "kind": "user",
    "methods": {
      "DELEGATOR_ROLE()": {
        "notice": "Admin delegator role"
      },
      "GOV_ROLE()": {
        "notice": "Admin governance role"
      },
      "REWARD_SCHEDULE_ENTRY_LENGTH()": {
        "notice": "Length of single rewards schedule entry"
      },
      "add(address)": {
        "notice": "Add block producer to the network"
      },
      "addBatch(address[])": {
        "notice": "Add batch of block producers to network"
      },
      "blockProducer(address)": {
        "notice": "Whitelisted block producers"
      },
      "constructor": {
        "notice": "Construct a new DistributorGovernance contract"
      },
      "delegate(address,address)": {
        "notice": "Delegate a collector address that can claim rewards on behalf of a block producer"
      },
      "delegateBatch(address[],address[])": {
        "notice": "Delegate collector addresses that can claim rewards on behalf of block producers in batch"
      },
      "remove(address)": {
        "notice": "Remove block producer from network"
      },
      "removeBatch(address[])": {
        "notice": "Remove batch of block producers from network"
      },
      "rewardCollector(address)": {
        "notice": "Mapping of block producer to reward collector"
      },
      "rewardScheduleEntries()": {
        "notice": "Get all reward schedule entries"
      },
      "rewardScheduleEntry(uint256)": {
        "notice": "Get reward schedule entry"
      },
      "setRewardSchedule(bytes)": {
        "notice": "Set reward schedule"
      }
    },
    "version": 1
  },
  "storageLayout": {
    "storage": [
      {
        "astId": 11033,
        "contract": "contracts/DistributorGovernance.sol:DistributorGovernance",
        "label": "_roles",
        "offset": 0,
        "slot": "0",
        "type": "t_mapping(t_bytes32,t_struct(RoleData)11028_storage)"
      },
      {
        "astId": 11361,
        "contract": "contracts/DistributorGovernance.sol:DistributorGovernance",
        "label": "_roleMembers",
        "offset": 0,
        "slot": "1",
        "type": "t_mapping(t_bytes32,t_struct(AddressSet)13735_storage)"
      },
      {
        "astId": 30,
        "contract": "contracts/DistributorGovernance.sol:DistributorGovernance",
        "label": "rewardCollector",
        "offset": 0,
        "slot": "2",
        "type": "t_mapping(t_address,t_address)"
      },
      {
        "astId": 36,
        "contract": "contracts/DistributorGovernance.sol:DistributorGovernance",
        "label": "blockProducer",
        "offset": 0,
        "slot": "3",
        "type": "t_mapping(t_address,t_bool)"
      },
      {
        "astId": 39,
        "contract": "contracts/DistributorGovernance.sol:DistributorGovernance",
        "label": "_rewardSchedule",
        "offset": 0,
        "slot": "4",
        "type": "t_bytes_storage"
      }
    ],
    "types": {
      "t_address": {
        "encoding": "inplace",
        "label": "address",
        "numberOfBytes": "20"
      },
      "t_array(t_bytes32)dyn_storage": {
        "base": "t_bytes32",
        "encoding": "dynamic_array",
        "label": "bytes32[]",
        "numberOfBytes": "32"
      },
      "t_bool": {
        "encoding": "inplace",
        "label": "bool",
        "numberOfBytes": "1"
      },
      "t_bytes32": {
        "encoding": "inplace",
        "label": "bytes32",
        "numberOfBytes": "32"
      },
      "t_bytes_storage": {
        "encoding": "bytes",
        "label": "bytes",
        "numberOfBytes": "32"
      },
      "t_mapping(t_address,t_address)": {
        "encoding": "mapping",
        "key": "t_address",
        "label": "mapping(address => address)",
        "numberOfBytes": "32",
        "value": "t_address"
      },
      "t_mapping(t_address,t_bool)": {
        "encoding": "mapping",
        "key": "t_address",
        "label": "mapping(address => bool)",
        "numberOfBytes": "32",
        "value": "t_bool"
      },
      "t_mapping(t_bytes32,t_struct(AddressSet)13735_storage)": {
        "encoding": "mapping",
        "key": "t_bytes32",
        "label": "mapping(bytes32 => struct EnumerableSet.AddressSet)",
        "numberOfBytes": "32",
        "value": "t_struct(AddressSet)13735_storage"
      },
      "t_mapping(t_bytes32,t_struct(RoleData)11028_storage)": {
        "encoding": "mapping",
        "key": "t_bytes32",
        "label": "mapping(bytes32 => struct AccessControl.RoleData)",
        "numberOfBytes": "32",
        "value": "t_struct(RoleData)11028_storage"
      },
      "t_mapping(t_bytes32,t_uint256)": {
        "encoding": "mapping",
        "key": "t_bytes32",
        "label": "mapping(bytes32 => uint256)",
        "numberOfBytes": "32",
        "value": "t_uint256"
      },
      "t_struct(AddressSet)13735_storage": {
        "encoding": "inplace",
        "label": "struct EnumerableSet.AddressSet",
        "members": [
          {
            "astId": 13734,
            "contract": "contracts/DistributorGovernance.sol:DistributorGovernance",
            "label": "_inner",
            "offset": 0,
            "slot": "0",
            "type": "t_struct(Set)13464_storage"
          }
        ],
        "numberOfBytes": "64"
      },
      "t_struct(RoleData)11028_storage": {
        "encoding": "inplace",
        "label": "struct AccessControl.RoleData",
        "members": [
          {
            "astId": 11025,
            "contract": "contracts/DistributorGovernance.sol:DistributorGovernance",
            "label": "members",
            "offset": 0,
            "slot": "0",
            "type": "t_mapping(t_address,t_bool)"
          },
          {
            "astId": 11027,
            "contract": "contracts/DistributorGovernance.sol:DistributorGovernance",
            "label": "adminRole",
            "offset": 0,
            "slot": "1",
            "type": "t_bytes32"
          }
        ],
        "numberOfBytes": "64"
      },
      "t_struct(Set)13464_storage": {
        "encoding": "inplace",
        "label": "struct EnumerableSet.Set",
        "members": [
          {
            "astId": 13459,
            "contract": "contracts/DistributorGovernance.sol:DistributorGovernance",
            "label": "_values",
            "offset": 0,
            "slot": "0",
            "type": "t_array(t_bytes32)dyn_storage"
          },
          {
            "astId": 13463,
            "contract": "contracts/DistributorGovernance.sol:DistributorGovernance",
            "label": "_indexes",
            "offset": 0,
            "slot": "1",
            "type": "t_mapping(t_bytes32,t_uint256)"
          }
        ],
        "numberOfBytes": "64"
      },
      "t_uint256": {
        "encoding": "inplace",
        "label": "uint256",
        "numberOfBytes": "32"
      }
    }
  }
}