{
  "address": "0xBf5cbdfc6ef9b56501edF1d4aC97bF021e595340",
  "abi": [
    {
      "inputs": [
        {
          "internalType": "contract IERC20Mintable",
          "name": "_token",
          "type": "address"
        },
        {
          "internalType": "contract IEdenNetwork",
          "name": "_edenNetworkProxy",
          "type": "address"
        },
        {
          "internalType": "address",
          "name": "_admin",
          "type": "address"
        },
        {
          "internalType": "uint8",
          "name": "_updateThreshold",
          "type": "uint8"
        },
        {
          "internalType": "address[]",
          "name": "_updaters",
          "type": "address[]"
        },
        {
          "internalType": "address[]",
          "name": "_slashers",
          "type": "address[]"
        }
      ],
      "stateMutability": "nonpayable",
      "type": "constructor"
    },
    {
      "anonymous": false,
      "inputs": [
        {
          "indexed": true,
          "internalType": "address",
          "name": "account",
          "type": "address"
        },
        {
          "indexed": false,
          "internalType": "uint256",
          "name": "totalClaimed",
          "type": "uint256"
        },
        {
          "indexed": false,
          "internalType": "uint256",
          "name": "totalSlashed",
          "type": "uint256"
        }
      ],
      "name": "AccountUpdated",
      "type": "event"
    },
    {
      "anonymous": false,
      "inputs": [
        {
          "indexed": true,
          "internalType": "address",
          "name": "owner",
          "type": "address"
        },
        {
          "indexed": true,
          "internalType": "address",
          "name": "approved",
          "type": "address"
        },
        {
          "indexed": true,
          "internalType": "uint256",
          "name": "tokenId",
          "type": "uint256"
        }
      ],
      "name": "Approval",
      "type": "event"
    },
    {
      "anonymous": false,
      "inputs": [
        {
          "indexed": true,
          "internalType": "address",
          "name": "owner",
          "type": "address"
        },
        {
          "indexed": true,
          "internalType": "address",
          "name": "operator",
          "type": "address"
        },
        {
          "indexed": false,
          "internalType": "bool",
          "name": "approved",
          "type": "bool"
        }
      ],
      "name": "ApprovalForAll",
      "type": "event"
    },
    {
      "anonymous": false,
      "inputs": [
        {
          "indexed": false,
          "internalType": "uint256",
          "name": "index",
          "type": "uint256"
        },
        {
          "indexed": false,
          "internalType": "uint256",
          "name": "totalEarned",
          "type": "uint256"
        },
        {
          "indexed": true,
          "internalType": "address",
          "name": "account",
          "type": "address"
        },
        {
          "indexed": false,
          "internalType": "uint256",
          "name": "claimed",
          "type": "uint256"
        }
      ],
      "name": "Claimed",
      "type": "event"
    },
    {
      "anonymous": false,
      "inputs": [
        {
          "indexed": false,
          "internalType": "uint256",
          "name": "oldDebt",
          "type": "uint256"
        },
        {
          "indexed": false,
          "internalType": "uint256",
          "name": "newDebt",
          "type": "uint256"
        }
      ],
      "name": "DebtChanged",
      "type": "event"
    },
    {
      "anonymous": false,
      "inputs": [
        {
          "indexed": false,
          "internalType": "bytes32",
          "name": "merkleRoot",
          "type": "bytes32"
        },
        {
          "indexed": false,
          "internalType": "uint256",
          "name": "distributionNumber",
          "type": "uint256"
        },
        {
          "indexed": false,
          "internalType": "string",
          "name": "metadataURI",
          "type": "string"
        },
        {
          "indexed": false,
          "internalType": "uint256",
          "name": "tokenTotal",
          "type": "uint256"
        }
      ],
      "name": "MerkleRootUpdated",
      "type": "event"
    },
    {
      "anonymous": false,
      "inputs": [
        {
          "indexed": false,
          "internalType": "string",
          "name": "value",
          "type": "string"
        },
        {
          "indexed": true,
          "internalType": "uint256",
          "name": "id",
          "type": "uint256"
        }
      ],
      "name": "PermanentURI",
      "type": "event"
    },
    {
      "anonymous": false,
      "inputs": [
        {
          "indexed": true,
          "internalType": "bytes32",
          "name": "role",
          "type": "bytes32"
        },
        {
          "indexed": true,
          "internalType": "bytes32",
          "name": "previousAdminRole",
          "type": "bytes32"
        },
        {
          "indexed": true,
          "internalType": "bytes32",
          "name": "newAdminRole",
          "type": "bytes32"
        }
      ],
      "name": "RoleAdminChanged",
      "type": "event"
    },
    {
      "anonymous": false,
      "inputs": [
        {
          "indexed": true,
          "internalType": "bytes32",
          "name": "role",
          "type": "bytes32"
        },
        {
          "indexed": true,
          "internalType": "address",
          "name": "account",
          "type": "address"
        },
        {
          "indexed": true,
          "internalType": "address",
          "name": "sender",
          "type": "address"
        }
      ],
      "name": "RoleGranted",
      "type": "event"
    },
    {
      "anonymous": false,
      "inputs": [
        {
          "indexed": true,
          "internalType": "bytes32",
          "name": "role",
          "type": "bytes32"
        },
        {
          "indexed": true,
          "internalType": "address",
          "name": "account",
          "type": "address"
        },
        {
          "indexed": true,
          "internalType": "address",
          "name": "sender",
          "type": "address"
        }
      ],
      "name": "RoleRevoked",
      "type": "event"
    },
    {
      "anonymous": false,
      "inputs": [
        {
          "indexed": true,
          "internalType": "address",
          "name": "account",
          "type": "address"
        },
        {
          "indexed": false,
          "internalType": "uint256",
          "name": "slashed",
          "type": "uint256"
        }
      ],
      "name": "Slashed",
      "type": "event"
    },
    {
      "anonymous": false,
      "inputs": [
        {
          "indexed": true,
          "internalType": "address",
          "name": "from",
          "type": "address"
        },
        {
          "indexed": true,
          "internalType": "address",
          "name": "to",
          "type": "address"
        },
        {
          "indexed": true,
          "internalType": "uint256",
          "name": "tokenId",
          "type": "uint256"
        }
      ],
      "name": "Transfer",
      "type": "event"
    },
    {
      "anonymous": false,
      "inputs": [
        {
          "indexed": false,
          "internalType": "uint256",
          "name": "updateThreshold",
          "type": "uint256"
        }
      ],
      "name": "UpdateThresholdChanged",
      "type": "event"
    },
    {
      "inputs": [],
      "name": "DEFAULT_ADMIN_ROLE",
      "outputs": [
        {
          "internalType": "bytes32",
          "name": "",
          "type": "bytes32"
        }
      ],
      "stateMutability": "view",
      "type": "function"
    },
    {
      "inputs": [],
      "name": "SLASHER_ROLE",
      "outputs": [
        {
          "internalType": "bytes32",
          "name": "",
          "type": "bytes32"
        }
      ],
      "stateMutability": "view",
      "type": "function"
    },
    {
      "inputs": [],
      "name": "UPDATER_ROLE",
      "outputs": [
        {
          "internalType": "bytes32",
          "name": "",
          "type": "bytes32"
        }
      ],
      "stateMutability": "view",
      "type": "function"
    },
    {
      "inputs": [
        {
          "internalType": "address",
          "name": "",
          "type": "address"
        }
      ],
      "name": "accountState",
      "outputs": [
        {
          "internalType": "uint256",
          "name": "totalClaimed",
          "type": "uint256"
        },
        {
          "internalType": "uint256",
          "name": "totalSlashed",
          "type": "uint256"
        }
      ],
      "stateMutability": "view",
      "type": "function"
    },
    {
      "inputs": [
        {
          "internalType": "address[]",
          "name": "newUpdaters",
          "type": "address[]"
        },
        {
          "internalType": "uint256",
          "name": "newThreshold",
          "type": "uint256"
        }
      ],
      "name": "addUpdaters",
      "outputs": [],
      "stateMutability": "nonpayable",
      "type": "function"
    },
    {
      "inputs": [
        {
          "internalType": "address",
          "name": "to",
          "type": "address"
        },
        {
          "internalType": "uint256",
          "name": "tokenId",
          "type": "uint256"
        }
      ],
      "name": "approve",
      "outputs": [],
      "stateMutability": "nonpayable",
      "type": "function"
    },
    {
      "inputs": [],
      "name": "balance",
      "outputs": [
        {
          "internalType": "uint256",
          "name": "",
          "type": "uint256"
        }
      ],
      "stateMutability": "view",
      "type": "function"
    },
    {
      "inputs": [
        {
          "internalType": "address",
          "name": "owner",
          "type": "address"
        }
      ],
      "name": "balanceOf",
      "outputs": [
        {
          "internalType": "uint256",
          "name": "",
          "type": "uint256"
        }
      ],
      "stateMutability": "view",
      "type": "function"
    },
    {
      "inputs": [
        {
          "internalType": "uint256",
          "name": "index",
          "type": "uint256"
        },
        {
          "internalType": "address",
          "name": "account",
          "type": "address"
        },
        {
          "internalType": "uint256",
          "name": "totalEarned",
          "type": "uint256"
        },
        {
          "internalType": "bytes32[]",
          "name": "merkleProof",
          "type": "bytes32[]"
        }
      ],
      "name": "claim",
      "outputs": [],
      "stateMutability": "nonpayable",
      "type": "function"
    },
    {
      "inputs": [
        {
          "internalType": "uint256",
          "name": "index",
          "type": "uint256"
        },
        {
          "internalType": "address",
          "name": "account",
          "type": "address"
        },
        {
          "internalType": "uint256",
          "name": "totalEarned",
          "type": "uint256"
        },
        {
          "internalType": "bytes32[]",
          "name": "merkleProof",
          "type": "bytes32[]"
        }
      ],
      "name": "claimAndStake",
      "outputs": [],
      "stateMutability": "nonpayable",
      "type": "function"
    },
    {
      "inputs": [],
      "name": "debtTotal",
      "outputs": [
        {
          "internalType": "uint256",
          "name": "",
          "type": "uint256"
        }
      ],
      "stateMutability": "view",
      "type": "function"
    },
    {
      "inputs": [],
      "name": "distributionCount",
      "outputs": [
        {
          "internalType": "uint256",
          "name": "",
          "type": "uint256"
        }
      ],
      "stateMutability": "view",
      "type": "function"
    },
    {
      "inputs": [],
      "name": "edenNetwork",
      "outputs": [
        {
          "internalType": "contract IEdenNetwork",
          "name": "",
          "type": "address"
        }
      ],
      "stateMutability": "view",
      "type": "function"
    },
    {
      "inputs": [
        {
          "internalType": "uint256",
          "name": "tokenId",
          "type": "uint256"
        }
      ],
      "name": "getApproved",
      "outputs": [
        {
          "internalType": "address",
          "name": "",
          "type": "address"
        }
      ],
      "stateMutability": "view",
      "type": "function"
    },
    {
      "inputs": [
        {
          "internalType": "bytes32",
          "name": "role",
          "type": "bytes32"
        }
      ],
      "name": "getRoleAdmin",
      "outputs": [
        {
          "internalType": "bytes32",
          "name": "",
          "type": "bytes32"
        }
      ],
      "stateMutability": "view",
      "type": "function"
    },
    {
      "inputs": [
        {
          "internalType": "bytes32",
          "name": "role",
          "type": "bytes32"
        },
        {
          "internalType": "uint256",
          "name": "index",
          "type": "uint256"
        }
      ],
      "name": "getRoleMember",
      "outputs": [
        {
          "internalType": "address",
          "name": "",
          "type": "address"
        }
      ],
      "stateMutability": "view",
      "type": "function"
    },
    {
      "inputs": [
        {
          "internalType": "bytes32",
          "name": "role",
          "type": "bytes32"
        }
      ],
      "name": "getRoleMemberCount",
      "outputs": [
        {
          "internalType": "uint256",
          "name": "",
          "type": "uint256"
        }
      ],
      "stateMutability": "view",
      "type": "function"
    },
    {
      "inputs": [
        {
          "internalType": "bytes32",
          "name": "role",
          "type": "bytes32"
        },
        {
          "internalType": "address",
          "name": "account",
          "type": "address"
        }
      ],
      "name": "grantRole",
      "outputs": [],
      "stateMutability": "nonpayable",
      "type": "function"
    },
    {
      "inputs": [
        {
          "internalType": "bytes32",
          "name": "role",
          "type": "bytes32"
        },
        {
          "internalType": "address",
          "name": "account",
          "type": "address"
        }
      ],
      "name": "hasRole",
      "outputs": [
        {
          "internalType": "bool",
          "name": "",
          "type": "bool"
        }
      ],
      "stateMutability": "view",
      "type": "function"
    },
    {
      "inputs": [
        {
          "internalType": "address",
          "name": "owner",
          "type": "address"
        },
        {
          "internalType": "address",
          "name": "operator",
          "type": "address"
        }
      ],
      "name": "isApprovedForAll",
      "outputs": [
        {
          "internalType": "bool",
          "name": "",
          "type": "bool"
        }
      ],
      "stateMutability": "view",
      "type": "function"
    },
    {
      "inputs": [],
      "name": "merkleRoot",
      "outputs": [
        {
          "internalType": "bytes32",
          "name": "",
          "type": "bytes32"
        }
      ],
      "stateMutability": "view",
      "type": "function"
    },
    {
      "inputs": [],
      "name": "name",
      "outputs": [
        {
          "internalType": "string",
          "name": "",
          "type": "string"
        }
      ],
      "stateMutability": "view",
      "type": "function"
    },
    {
      "inputs": [
        {
          "internalType": "uint256",
          "name": "tokenId",
          "type": "uint256"
        }
      ],
      "name": "ownerOf",
      "outputs": [
        {
          "internalType": "address",
          "name": "",
          "type": "address"
        }
      ],
      "stateMutability": "view",
      "type": "function"
    },
    {
      "inputs": [
        {
          "internalType": "bytes32",
          "name": "",
          "type": "bytes32"
        }
      ],
      "name": "previousMerkleRoot",
      "outputs": [
        {
          "internalType": "bool",
          "name": "",
          "type": "bool"
        }
      ],
      "stateMutability": "view",
      "type": "function"
    },
    {
      "inputs": [
        {
          "internalType": "address[]",
          "name": "existingUpdaters",
          "type": "address[]"
        },
        {
          "internalType": "uint256",
          "name": "newThreshold",
          "type": "uint256"
        }
      ],
      "name": "removeUpdaters",
      "outputs": [],
      "stateMutability": "nonpayable",
      "type": "function"
    },
    {
      "inputs": [
        {
          "internalType": "bytes32",
          "name": "role",
          "type": "bytes32"
        },
        {
          "internalType": "address",
          "name": "account",
          "type": "address"
        }
      ],
      "name": "renounceRole",
      "outputs": [],
      "stateMutability": "nonpayable",
      "type": "function"
    },
    {
      "inputs": [
        {
          "internalType": "bytes32",
          "name": "role",
          "type": "bytes32"
        },
        {
          "internalType": "address",
          "name": "account",
          "type": "address"
        }
      ],
      "name": "revokeRole",
      "outputs": [],
      "stateMutability": "nonpayable",
      "type": "function"
    },
    {
      "inputs": [
        {
          "internalType": "address",
          "name": "from",
          "type": "address"
        },
        {
          "internalType": "address",
          "name": "to",
          "type": "address"
        },
        {
          "internalType": "uint256",
          "name": "tokenId",
          "type": "uint256"
        }
      ],
      "name": "safeTransferFrom",
      "outputs": [],
      "stateMutability": "nonpayable",
      "type": "function"
    },
    {
      "inputs": [
        {
          "internalType": "address",
          "name": "from",
          "type": "address"
        },
        {
          "internalType": "address",
          "name": "to",
          "type": "address"
        },
        {
          "internalType": "uint256",
          "name": "tokenId",
          "type": "uint256"
        },
        {
          "internalType": "bytes",
          "name": "_data",
          "type": "bytes"
        }
      ],
      "name": "safeTransferFrom",
      "outputs": [],
      "stateMutability": "nonpayable",
      "type": "function"
    },
    {
      "inputs": [
        {
          "internalType": "address",
          "name": "operator",
          "type": "address"
        },
        {
          "internalType": "bool",
          "name": "approved",
          "type": "bool"
        }
      ],
      "name": "setApprovalForAll",
      "outputs": [],
      "stateMutability": "nonpayable",
      "type": "function"
    },
    {
      "inputs": [
        {
          "internalType": "uint256",
          "name": "to",
          "type": "uint256"
        }
      ],
      "name": "setUpdateThreshold",
      "outputs": [],
      "stateMutability": "nonpayable",
      "type": "function"
    },
    {
      "inputs": [
        {
          "internalType": "address",
          "name": "account",
          "type": "address"
        },
        {
          "internalType": "uint256",
          "name": "amount",
          "type": "uint256"
        }
      ],
      "name": "slash",
      "outputs": [],
      "stateMutability": "nonpayable",
      "type": "function"
    },
    {
      "inputs": [
        {
          "internalType": "bytes4",
          "name": "interfaceId",
          "type": "bytes4"
        }
      ],
      "name": "supportsInterface",
      "outputs": [
        {
          "internalType": "bool",
          "name": "",
          "type": "bool"
        }
      ],
      "stateMutability": "view",
      "type": "function"
    },
    {
      "inputs": [],
      "name": "symbol",
      "outputs": [
        {
          "internalType": "string",
          "name": "",
          "type": "string"
        }
      ],
      "stateMutability": "view",
      "type": "function"
    },
    {
      "inputs": [],
      "name": "token",
      "outputs": [
        {
          "internalType": "contract IERC20Mintable",
          "name": "",
          "type": "address"
        }
      ],
      "stateMutability": "view",
      "type": "function"
    },
    {
      "inputs": [
        {
          "internalType": "uint256",
          "name": "index",
          "type": "uint256"
        }
      ],
      "name": "tokenByIndex",
      "outputs": [
        {
          "internalType": "uint256",
          "name": "",
          "type": "uint256"
        }
      ],
      "stateMutability": "view",
      "type": "function"
    },
    {
      "inputs": [
        {
          "internalType": "address",
          "name": "owner",
          "type": "address"
        },
        {
          "internalType": "uint256",
          "name": "index",
          "type": "uint256"
        }
      ],
      "name": "tokenOfOwnerByIndex",
      "outputs": [
        {
          "internalType": "uint256",
          "name": "",
          "type": "uint256"
        }
      ],
      "stateMutability": "view",
      "type": "function"
    },
    {
      "inputs": [],
      "name": "tokenTotal",
      "outputs": [
        {
          "internalType": "uint256",
          "name": "",
          "type": "uint256"
        }
      ],
      "stateMutability": "view",
      "type": "function"
    },
    {
      "inputs": [
        {
          "internalType": "uint256",
          "name": "tokenId",
          "type": "uint256"
        }
      ],
      "name": "tokenURI",
      "outputs": [
        {
          "internalType": "string",
          "name": "",
          "type": "string"
        }
      ],
      "stateMutability": "view",
      "type": "function"
    },
    {
      "inputs": [],
      "name": "totalSupply",
      "outputs": [
        {
          "internalType": "uint256",
          "name": "",
          "type": "uint256"
        }
      ],
      "stateMutability": "view",
      "type": "function"
    },
    {
      "inputs": [
        {
          "internalType": "address",
          "name": "from",
          "type": "address"
        },
        {
          "internalType": "address",
          "name": "to",
          "type": "address"
        },
        {
          "internalType": "uint256",
          "name": "tokenId",
          "type": "uint256"
        }
      ],
      "name": "transferFrom",
      "outputs": [],
      "stateMutability": "nonpayable",
      "type": "function"
    },
    {
      "inputs": [
        {
          "internalType": "bytes32",
          "name": "newMerkleRoot",
          "type": "bytes32"
        },
        {
          "internalType": "string",
          "name": "uri",
          "type": "string"
        },
        {
          "internalType": "uint256",
          "name": "newDistributionNumber",
          "type": "uint256"
        },
        {
          "internalType": "uint256",
          "name": "newTokenTotal",
          "type": "uint256"
        }
      ],
      "name": "updateMerkleRoot",
      "outputs": [
        {
          "internalType": "uint256",
          "name": "",
          "type": "uint256"
        }
      ],
      "stateMutability": "nonpayable",
      "type": "function"
    },
    {
      "inputs": [],
      "name": "updateThreshold",
      "outputs": [
        {
          "internalType": "uint256",
          "name": "",
          "type": "uint256"
        }
      ],
      "stateMutability": "view",
      "type": "function"
    }
  ],
  "transactionHash": "0x2d1d37ce5ef3f996dcde34010ae198e74eff1ad97963167676367a6f742154e9",
  "args": [
    "0x1559FA1b8F28238FD5D76D9f434ad86FD20D1559",
    "0x9E3382cA57F4404AC7Bf435475EAe37e87D1c453",
    "0x8F48fe27f68a86786fbBD5D38Ea53C2748B234B6",
    "2",
    [
      "0x0A300e1D1Ad1eb5ff464395a2f4baA9faa90eE52",
      "0xc70c5eEeF6FbE1e3eFB3a76F31C5d2AE7c49e059",
      "0x7d549358b38c9a2c8622c35337010f5CaEb5e5a7"
    ],
    [
      "0x0A300e1D1Ad1eb5ff464395a2f4baA9faa90eE52",
      "0xc70c5eEeF6FbE1e3eFB3a76F31C5d2AE7c49e059",
      "0x7d549358b38c9a2c8622c35337010f5CaEb5e5a7"
    ]
  ],
  "solcInputHash": "c4457eb01613647c7e25c7abc2296340",
  "bytecode": "0x60a06040523480156200001157600080fd5b50604051620056493803806200564983398101604081905262000034916200064a565b604080518082018252601d81527f4564656e204e6574776f726b2053455620446973747269627574696f6e0000006020808301918252835180850190945260088452671151115394d1559160c21b9084015281519192916200009991600091620004df565b508051620000af906001906020840190620004df565b5050506001600160601b0319606087901b16608052600d546000908152601360205260408120805460ff19166001179055600c80546001600160a01b0388166001600160a01b03199091161790555b82518110156200015a57620001456000805160206200562983398151915284838151811062000131576200013162000775565b60200260200101516200021860201b60201c565b8062000151816200074b565b915050620000fe565b506200016960ff84166200025b565b60005b8151811015620001c557620001b07f12b42e8a160f6064dc959c6f251e3af0750ad213dbecf573b4710d67d6c28e3983838151811062000131576200013162000775565b80620001bc816200074b565b9150506200016c565b50620001d360008562000218565b60408051600080825260208201527f9ad874aacbaa905813a0a2c9812df59969335e5c0f5fbd99d98575597fbfad08910160405180910390a1505050505050620007ba565b6200022f82826200038a60201b620028971760201c565b600082815260076020908152604090912062000256918390620028a16200039a821b17901c565b505050565b80620002d45760405162461bcd60e51b815260206004820152603760248201527f4d65726b6c654469737472696275746f725345563a205570646174652074687260448201527f6573686f6c64206d757374206265206e6f6e2d7a65726f00000000000000000060648201526084015b60405180910390fd5b620002ee60008051602062005629833981519152620003ba565b811115620003525760405162461bcd60e51b815260206004820152602a60248201527f4d65726b6c654469737472696275746f725345563a207468726573686f6c64206044820152693e20757064617465727360b01b6064820152608401620002cb565b6040518181527f4a3f39b792c062592e6c20d41d18331563a8de4ba398cd40ef7c9afffd6234959060200160405180910390a1600f55565b620003968282620003de565b5050565b6000620003b1836001600160a01b03841662000482565b90505b92915050565b60008181526007602090815260408220620003b491620028c3620004d4821b17901c565b60008281526006602090815260408083206001600160a01b038516845290915290205460ff16620003965760008281526006602090815260408083206001600160a01b03851684529091529020805460ff191660011790556200043e3390565b6001600160a01b0316816001600160a01b0316837f2f8788117e7eff1d82e926ec794901d17c78024a50270940304540a733656f0d60405160405180910390a45050565b6000818152600183016020526040812054620004cb57508154600181810184556000848152602080822090930184905584548482528286019093526040902091909155620003b4565b506000620003b4565b6000620003b4825490565b828054620004ed906200070e565b90600052602060002090601f0160209004810192826200051157600085556200055c565b82601f106200052c57805160ff19168380011785556200055c565b828001600101855582156200055c579182015b828111156200055c5782518255916020019190600101906200053f565b506200056a9291506200056e565b5090565b5b808211156200056a57600081556001016200056f565b80516200059281620007a1565b919050565b600082601f830112620005a957600080fd5b815160206001600160401b0380831115620005c857620005c86200078b565b8260051b604051601f19603f83011681018181108482111715620005f057620005f06200078b565b604052848152838101925086840182880185018910156200061057600080fd5b600092505b858310156200063e57620006298162000585565b84529284019260019290920191840162000615565b50979650505050505050565b60008060008060008060c087890312156200066457600080fd5b86516200067181620007a1565b60208801519096506200068481620007a1565b60408801519095506200069781620007a1565b606088015190945060ff81168114620006af57600080fd5b60808801519093506001600160401b0380821115620006cd57600080fd5b620006db8a838b0162000597565b935060a0890151915080821115620006f257600080fd5b506200070189828a0162000597565b9150509295509295509295565b600181811c908216806200072357607f821691505b602082108114156200074557634e487b7160e01b600052602260045260246000fd5b50919050565b60006000198214156200076e57634e487b7160e01b600052601160045260246000fd5b5060010190565b634e487b7160e01b600052603260045260246000fd5b634e487b7160e01b600052604160045260246000fd5b6001600160a01b0381168114620007b757600080fd5b50565b60805160601c614e2d620007fc600039600081816106e201528181610ff5015281816116d201528181611a9001528181611d1301526124dc0152614e2d6000f3fe608060405234801561001057600080fd5b50600436106102e95760003560e01c80639010d07c11610191578063c65c3d95116100e3578063decbfda511610097578063e985e9c511610071578063e985e9c514610674578063f6a7fb58146106bd578063fc0c546a146106dd57600080fd5b8063decbfda514610645578063e1e92a6714610658578063e7e7e3871461066b57600080fd5b8063ca15c873116100c8578063ca15c873146105fc578063cd170ce71461060f578063d547741f1461063257600080fd5b8063c65c3d95146105e0578063c87b56dd146105e957600080fd5b8063a217fddf11610145578063b69ef8a81161011f578063b69ef8a8146105b2578063b88d4fde146105ba578063c18d86c0146105cd57600080fd5b8063a217fddf1461058e578063a22cb46514610596578063b1437e27146105a957600080fd5b80639407f5cb116101765780639407f5cb1461056a57806395d89b41146105735780639e05537b1461057b57600080fd5b80639010d07c1461051157806391d148541461052457600080fd5b80632eb4a7ab1161024a57806342842e0e116101fe5780635095af64116101d85780635095af64146104c45780636352211e146104eb57806370a08231146104fe57600080fd5b806342842e0e1461047757806347e633801461048a5780634f6ccce7146104b157600080fd5b80632f745c591161022f5780632f745c591461043e57806335dc395c1461045157806336568abe1461046457600080fd5b80632eb4a7ab146104225780632f2ff15d1461042b57600080fd5b80630ec4c601116102a157806323b872dd1161028657806323b872dd146103d9578063248a9ca3146103ec5780632e7ba6ef1461040f57600080fd5b80630ec4c6011461038b57806318160ddd146103c757600080fd5b806306fdde03116102d257806306fdde031461032b578063081812fc14610340578063095ea7b31461037857600080fd5b806301ffc9a7146102ee57806302fb4d8514610316575b600080fd5b6103016102fc366004614830565b610704565b60405190151581526020015b60405180910390f35b610329610324366004614646565b6107f8565b005b61033361091b565b60405161030d9190614aec565b61035361034e366004614747565b6109ad565b60405173ffffffffffffffffffffffffffffffffffffffff909116815260200161030d565b610329610386366004614646565b610a87565b6103b26103993660046144a7565b6012602052600090815260409020805460019091015482565b6040805192835260208301919091520161030d565b600a545b60405190815260200161030d565b6103296103e73660046144f5565b610c14565b6103cb6103fa366004614747565b60009081526006602052604090206001015490565b61032961041d366004614883565b610cb5565b6103cb600d5481565b610329610439366004614760565b61111c565b6103cb61044c366004614646565b61113e565b61032961045f366004614670565b61120d565b610329610472366004614760565b611336565b6103296104853660046144f5565b611358565b6103cb7f73e573f9566d61418a34d5de3ff49360f9c51fec37f7486551670290f6285dab81565b6103cb6104bf366004614747565b611373565b6103cb7f12b42e8a160f6064dc959c6f251e3af0750ad213dbecf573b4710d67d6c28e3981565b6103536104f9366004614747565b611431565b6103cb61050c3660046144a7565b6114e3565b61035361051f36600461480e565b6115b1565b610301610532366004614760565b600091825260066020908152604080842073ffffffffffffffffffffffffffffffffffffffff93909316845291905290205460ff1690565b6103cb600f5481565b6103336115d0565b610329610589366004614883565b6115df565b6103cb600081565b6103296105a436600461460f565b611bb4565b6103cb60105481565b6103cb611ccb565b6103296105c8366004614531565b611db3565b6103296105db366004614670565b611e5b565b6103cb600e5481565b6103336105f7366004614747565b611f7a565b6103cb61060a366004614747565b612134565b61030161061d366004614747565b60136020526000908152604090205460ff1681565b610329610640366004614760565b61214b565b6103cb610653366004614783565b612155565b610329610666366004614747565b6127cd565b6103cb60115481565b6103016106823660046144c2565b73ffffffffffffffffffffffffffffffffffffffff918216600090815260056020908152604080832093909416825291909152205460ff1690565b600c546103539073ffffffffffffffffffffffffffffffffffffffff1681565b6103537f000000000000000000000000000000000000000000000000000000000000000081565b60007fffffffff0000000000000000000000000000000000000000000000000000000082167f80ac58cd00000000000000000000000000000000000000000000000000000000148061079757507fffffffff0000000000000000000000000000000000000000000000000000000082167f5b5e139f00000000000000000000000000000000000000000000000000000000145b806107e357507fffffffff0000000000000000000000000000000000000000000000000000000082167f780e9d6300000000000000000000000000000000000000000000000000000000145b806107f257506107f2826128cd565b92915050565b3360009081527f1dfbce58931a94262c3b9c5acee9dafa864324624ff5446cf599e6b0e53aa0ac602052604090205460ff166108bb576040517f08c379a000000000000000000000000000000000000000000000000000000000815260206004820152603360248201527f4d65726b6c654469737472696275746f725345563a2043616c6c6572206d757360448201527f74206861766520534c41534845525f524f4c450000000000000000000000000060648201526084015b60405180910390fd5b8173ffffffffffffffffffffffffffffffffffffffff167f4ed05e9673c26d2ed44f7ef6a7f2942df0ee3b5e1e17db4b99f9dcd261a339cd8260405161090391815260200190565b60405180910390a261091782600083612923565b5050565b60606000805461092a90614c2f565b80601f016020809104026020016040519081016040528092919081815260200182805461095690614c2f565b80156109a35780601f10610978576101008083540402835291602001916109a3565b820191906000526020600020905b81548152906001019060200180831161098657829003601f168201915b5050505050905090565b60008181526002602052604081205473ffffffffffffffffffffffffffffffffffffffff16610a5e576040517f08c379a000000000000000000000000000000000000000000000000000000000815260206004820152602c60248201527f4552433732313a20617070726f76656420717565727920666f72206e6f6e657860448201527f697374656e7420746f6b656e000000000000000000000000000000000000000060648201526084016108b2565b5060009081526004602052604090205473ffffffffffffffffffffffffffffffffffffffff1690565b6000610a9282611431565b90508073ffffffffffffffffffffffffffffffffffffffff168373ffffffffffffffffffffffffffffffffffffffff161415610b50576040517f08c379a000000000000000000000000000000000000000000000000000000000815260206004820152602160248201527f4552433732313a20617070726f76616c20746f2063757272656e74206f776e6560448201527f720000000000000000000000000000000000000000000000000000000000000060648201526084016108b2565b3373ffffffffffffffffffffffffffffffffffffffff82161480610b795750610b798133610682565b610c05576040517f08c379a000000000000000000000000000000000000000000000000000000000815260206004820152603860248201527f4552433732313a20617070726f76652063616c6c6572206973206e6f74206f7760448201527f6e6572206e6f7220617070726f76656420666f7220616c6c000000000000000060648201526084016108b2565b610c0f8383612ab0565b505050565b610c1e3382612b50565b610caa576040517f08c379a000000000000000000000000000000000000000000000000000000000815260206004820152603160248201527f4552433732313a207472616e736665722063616c6c6572206973206e6f74206f60448201527f776e6572206e6f7220617070726f76656400000000000000000000000000000060648201526084016108b2565b610c0f838383612cbc565b3373ffffffffffffffffffffffffffffffffffffffff851614610d5a576040517f08c379a000000000000000000000000000000000000000000000000000000000815260206004820152602c60248201527f4d65726b6c654469737472696275746f725345563a2043616e6e6f7420636f6c60448201527f6c6563742072657761726473000000000000000000000000000000000000000060648201526084016108b2565b60408051602081018790527fffffffffffffffffffffffffffffffffffffffff000000000000000000000000606087901b169181019190915260548101849052600090607401604051602081830303815290604052805190602001209050610df983838080602002602001604051908101604052809392919081815260200183836020028082843760009201919091525050600d549150849050612f2e565b610e85576040517f08c379a000000000000000000000000000000000000000000000000000000000815260206004820152602360248201527f4d65726b6c654469737472696275746f725345563a20496e76616c696420707260448201527f6f6f66000000000000000000000000000000000000000000000000000000000060648201526084016108b2565b73ffffffffffffffffffffffffffffffffffffffff8516600090815260126020526040812060018101549054610ebb9190614b4e565b9050808511610f4c576040517f08c379a000000000000000000000000000000000000000000000000000000000815260206004820152602760248201527f4d65726b6c654469737472696275746f725345563a204e6f7468696e6720636c60448201527f61696d61626c650000000000000000000000000000000000000000000000000060648201526084016108b2565b6000610f588287614bb7565b604080518a81526020810189905290810182905290915073ffffffffffffffffffffffffffffffffffffffff8816907fb94bf7f9302edf52a596286915a69b4b0685574cffdedd0712e3c62f2550f0ba9060600160405180910390a2610fc087826000612923565b6040517fa9059cbb000000000000000000000000000000000000000000000000000000008152336004820152602481018290527f000000000000000000000000000000000000000000000000000000000000000073ffffffffffffffffffffffffffffffffffffffff169063a9059cbb90604401602060405180830381600087803b15801561104e57600080fd5b505af1158015611062573d6000803e3d6000fd5b505050506040513d601f19601f82011682018060405250810190611086919061472a565b611112576040517f08c379a000000000000000000000000000000000000000000000000000000000815260206004820152602560248201527f4d65726b6c654469737472696275746f725345563a205472616e73666572206660448201527f61696c656400000000000000000000000000000000000000000000000000000060648201526084016108b2565b5050505050505050565b6111268282612fdd565b6000828152600760205260409020610c0f90826128a1565b6000611149836114e3565b82106111d7576040517f08c379a000000000000000000000000000000000000000000000000000000000815260206004820152602b60248201527f455243373231456e756d657261626c653a206f776e657220696e646578206f7560448201527f74206f6620626f756e647300000000000000000000000000000000000000000060648201526084016108b2565b5073ffffffffffffffffffffffffffffffffffffffff919091166000908152600860209081526040808320938352929052205490565b3360009081527f54cdd369e4e8a8515e52ca72ec816c2101831ad1f18bf44102ed171459c9b4f8602052604090205460ff166112cb576040517f08c379a000000000000000000000000000000000000000000000000000000000815260206004820152603960248201527f4d65726b6c654469737472696275746f725345563a2043616c6c6572206d757360448201527f7420686176652044454641554c545f41444d494e5f524f4c450000000000000060648201526084016108b2565b60005b825181101561132c5761131a7f73e573f9566d61418a34d5de3ff49360f9c51fec37f7486551670290f6285dab84838151811061130d5761130d614d5d565b6020026020010151613003565b8061132481614c83565b9150506112ce565b50610917816130be565b611340828261323b565b6000828152600760205260409020610c0f90826132ea565b610c0f83838360405180602001604052806000815250611db3565b600061137e600a5490565b821061140c576040517f08c379a000000000000000000000000000000000000000000000000000000000815260206004820152602c60248201527f455243373231456e756d657261626c653a20676c6f62616c20696e646578206f60448201527f7574206f6620626f756e6473000000000000000000000000000000000000000060648201526084016108b2565b600a828154811061141f5761141f614d5d565b90600052602060002001549050919050565b60008181526002602052604081205473ffffffffffffffffffffffffffffffffffffffff16806107f2576040517f08c379a000000000000000000000000000000000000000000000000000000000815260206004820152602960248201527f4552433732313a206f776e657220717565727920666f72206e6f6e657869737460448201527f656e7420746f6b656e000000000000000000000000000000000000000000000060648201526084016108b2565b600073ffffffffffffffffffffffffffffffffffffffff8216611588576040517f08c379a000000000000000000000000000000000000000000000000000000000815260206004820152602a60248201527f4552433732313a2062616c616e636520717565727920666f7220746865207a6560448201527f726f20616464726573730000000000000000000000000000000000000000000060648201526084016108b2565b5073ffffffffffffffffffffffffffffffffffffffff1660009081526003602052604090205490565b60008281526007602052604081206115c9908361330c565b9392505050565b60606001805461092a90614c2f565b3373ffffffffffffffffffffffffffffffffffffffff851614611684576040517f08c379a000000000000000000000000000000000000000000000000000000000815260206004820152602c60248201527f4d65726b6c654469737472696275746f725345563a2043616e6e6f7420636f6c60448201527f6c6563742072657761726473000000000000000000000000000000000000000060648201526084016108b2565b600c546040517fdd62ed3e00000000000000000000000000000000000000000000000000000000815230600482015273ffffffffffffffffffffffffffffffffffffffff91821660248201527f00000000000000000000000000000000000000000000000000000000000000009091169063dd62ed3e9060440160206040518083038186803b15801561171657600080fd5b505afa15801561172a573d6000803e3d6000fd5b505050506040513d601f19601f8201168201806040525081019061174e919061486a565b156117db576040517f08c379a000000000000000000000000000000000000000000000000000000000815260206004820152602360248201527f4d65726b6c654469737472696275746f725345563a20616c6c6f77616e63652060448201527f3e2030000000000000000000000000000000000000000000000000000000000060648201526084016108b2565b60408051602081018790527fffffffffffffffffffffffffffffffffffffffff000000000000000000000000606087901b16918101919091526054810184905260009060740160405160208183030381529060405280519060200120905061187a83838080602002602001604051908101604052809392919081815260200183836020028082843760009201919091525050600d549150849050612f2e565b611906576040517f08c379a000000000000000000000000000000000000000000000000000000000815260206004820152602360248201527f4d65726b6c654469737472696275746f725345563a20496e76616c696420707260448201527f6f6f66000000000000000000000000000000000000000000000000000000000060648201526084016108b2565b73ffffffffffffffffffffffffffffffffffffffff851660009081526012602052604081206001810154905461193c9190614b4e565b90508085116119cd576040517f08c379a000000000000000000000000000000000000000000000000000000000815260206004820152602760248201527f4d65726b6c654469737472696275746f725345563a204e6f7468696e6720636c60448201527f61696d61626c650000000000000000000000000000000000000000000000000060648201526084016108b2565b60006119d98287614bb7565b604080518a81526020810189905290810182905290915073ffffffffffffffffffffffffffffffffffffffff8816907fb94bf7f9302edf52a596286915a69b4b0685574cffdedd0712e3c62f2550f0ba9060600160405180910390a2611a4187826000612923565b600c546040517f095ea7b300000000000000000000000000000000000000000000000000000000815273ffffffffffffffffffffffffffffffffffffffff9182166004820152602481018390527f00000000000000000000000000000000000000000000000000000000000000009091169063095ea7b390604401602060405180830381600087803b158015611ad657600080fd5b505af1158015611aea573d6000803e3d6000fd5b505050506040513d601f19601f82011682018060405250810190611b0e919061472a565b50600c546040517f70458d850000000000000000000000000000000000000000000000000000000081523360048201526fffffffffffffffffffffffffffffffff8316602482015273ffffffffffffffffffffffffffffffffffffffff909116906370458d8590604401600060405180830381600087803b158015611b9257600080fd5b505af1158015611ba6573d6000803e3d6000fd5b505050505050505050505050565b73ffffffffffffffffffffffffffffffffffffffff8216331415611c34576040517f08c379a000000000000000000000000000000000000000000000000000000000815260206004820152601960248201527f4552433732313a20617070726f766520746f2063616c6c65720000000000000060448201526064016108b2565b33600081815260056020908152604080832073ffffffffffffffffffffffffffffffffffffffff87168085529083529281902080547fffffffffffffffffffffffffffffffffffffffffffffffffffffffffffffff001686151590811790915590519081529192917f17307eab39ab6107e8899845ad3d59bd9653f200f220920489ca2b5937696c31910160405180910390a35050565b6040517f70a08231000000000000000000000000000000000000000000000000000000008152306004820152600090819073ffffffffffffffffffffffffffffffffffffffff7f000000000000000000000000000000000000000000000000000000000000000016906370a082319060240160206040518083038186803b158015611d5557600080fd5b505afa158015611d69573d6000803e3d6000fd5b505050506040513d601f19601f82011682018060405250810190611d8d919061486a565b9050601154811015611da0576000611dad565b601154611dad9082614bb7565b91505090565b611dbd3383612b50565b611e49576040517f08c379a000000000000000000000000000000000000000000000000000000000815260206004820152603160248201527f4552433732313a207472616e736665722063616c6c6572206973206e6f74206f60448201527f776e6572206e6f7220617070726f76656400000000000000000000000000000060648201526084016108b2565b611e5584848484613318565b50505050565b3360009081527f54cdd369e4e8a8515e52ca72ec816c2101831ad1f18bf44102ed171459c9b4f8602052604090205460ff16611f19576040517f08c379a000000000000000000000000000000000000000000000000000000000815260206004820152603960248201527f4d65726b6c654469737472696275746f725345563a2043616c6c6572206d757360448201527f7420686176652044454641554c545f41444d494e5f524f4c450000000000000060648201526084016108b2565b60005b825181101561132c57611f687f73e573f9566d61418a34d5de3ff49360f9c51fec37f7486551670290f6285dab848381518110611f5b57611f5b614d5d565b60200260200101516133bb565b80611f7281614c83565b915050611f1c565b60008181526002602052604090205460609073ffffffffffffffffffffffffffffffffffffffff1661202e576040517f08c379a000000000000000000000000000000000000000000000000000000000815260206004820152603160248201527f45524337323155524953746f726167653a2055524920717565727920666f722060448201527f6e6f6e6578697374656e7420746f6b656e00000000000000000000000000000060648201526084016108b2565b6000828152601460205260408120805461204790614c2f565b80601f016020809104026020016040519081016040528092919081815260200182805461207390614c2f565b80156120c05780601f10612095576101008083540402835291602001916120c0565b820191906000526020600020905b8154815290600101906020018083116120a357829003601f168201915b5050505050905060006120de60408051602081019091526000815290565b90508051600014156120f1575092915050565b81511561212357808260405160200161210b9291906149ad565b60405160208183030381529060405292505050919050565b61212c846133c5565b949350505050565b60008181526007602052604081206107f2906128c3565b61134082826134e1565b3360009081527f72e6a9b491581b344add3f7be10265867e64fdd874e84e97031c08ad09aea58c602052604081205460ff16612213576040517f08c379a000000000000000000000000000000000000000000000000000000000815260206004820152603360248201527f4d65726b6c654469737472696275746f725345563a2043616c6c6572206d757360448201527f74206861766520555044415445525f524f4c450000000000000000000000000060648201526084016108b2565b60008681526013602052604090205460ff16156122b2576040517f08c379a000000000000000000000000000000000000000000000000000000000815260206004820152603d60248201527f4d65726b6c654469737472696275746f725345563a2043616e6e6f742075706460448201527f61746520746f20612070726576696f7573206d65726b6c6520726f6f7400000060648201526084016108b2565b6000600e5460016122c39190614b4e565b9050838114612354576040517f08c379a000000000000000000000000000000000000000000000000000000000815260206004820152603760248201527f4d65726b6c654469737472696275746f725345563a2043616e206f6e6c79207560448201527f7064617465206e65787420646973747269627574696f6e00000000000000000060648201526084016108b2565b336000908152601660209081526040808320848452909152902054156123fc576040517f08c379a000000000000000000000000000000000000000000000000000000000815260206004820152603860248201527f4d65726b6c654469737472696275746f725345563a205570646174657220616c60448201527f7265616479207375626d6974746564206e657720726f6f74000000000000000060648201526084016108b2565b60105483101561248e576040517f08c379a000000000000000000000000000000000000000000000000000000000815260206004820152603260248201527f4d65726b6c654469737472696275746f725345563a20546f74616c20746f6b6560448201527f6e732063616e6e6f74206465637265617365000000000000000000000000000060648201526084016108b2565b60006010548461249e9190614bb7565b9050806011546124ae9190614b4e565b6040517f70a082310000000000000000000000000000000000000000000000000000000081523060048201527f000000000000000000000000000000000000000000000000000000000000000073ffffffffffffffffffffffffffffffffffffffff16906370a082319060240160206040518083038186803b15801561253357600080fd5b505afa158015612547573d6000803e3d6000fd5b505050506040513d601f19601f8201168201806040525081019061256b919061486a565b101561261f576040517f08c379a000000000000000000000000000000000000000000000000000000000815260206004820152604360248201527f4d65726b6c654469737472696275746f725345563a204469737472696275746960448201527f6f6e20776f756c64206c6561766520636f6e747261637420756e64657266756e60648201527f6465640000000000000000000000000000000000000000000000000000000000608482015260a4016108b2565b33600090815260166020908152604080832085845282528083208b90558a83526015909152812054612652906001614b4e565b60008a8152601560205260409020819055600f549091508114156127bb57600d899055600089815260136020908152604080832080547fffffffffffffffffffffffffffffffffffffffffffffffffffffffffffffff00166001179055600e869055858352601490915290206126c99089896143c7565b5060108590556011805490839060006126e28385614b4e565b909155506126f290503385613507565b837fa109ba539900bf1b633f956d63c96fc89b814c7287f7aa50a9216d0b556572078a8a604051612724929190614ad8565b60405180910390a27f57d8ecbe7b76b58585d8a965c3b1f5d9ea66801b41232f59f154f9b2873277be8a858b8b8a604051612763959493929190614aa6565b60405180910390a17f9ad874aacbaa905813a0a2c9812df59969335e5c0f5fbd99d98575597fbfad08816127978582614b4e565b6040805192835260208301919091520160405180910390a1839450505050506127c4565b600e5493505050505b95945050505050565b3360009081527f54cdd369e4e8a8515e52ca72ec816c2101831ad1f18bf44102ed171459c9b4f8602052604090205460ff1661288b576040517f08c379a000000000000000000000000000000000000000000000000000000000815260206004820152603960248201527f4d65726b6c654469737472696275746f725345563a2043616c6c6572206d757360448201527f7420686176652044454641554c545f41444d494e5f524f4c450000000000000060648201526084016108b2565b612894816130be565b50565b61091782826136d5565b60006115c98373ffffffffffffffffffffffffffffffffffffffff84166137c9565b60006107f2825490565b60007fffffffff0000000000000000000000000000000000000000000000000000000082167f780e9d630000000000000000000000000000000000000000000000000000000014806107f257506107f282613818565b60115482156129805773ffffffffffffffffffffffffffffffffffffffff841660009081526012602052604081208054859290612961908490614b4e565b92505081905550826011600082825461297a9190614bb7565b90915550505b81156129dd5773ffffffffffffffffffffffffffffffffffffffff8416600090815260126020526040812060010180548492906129be908490614b4e565b9250508190555081601160008282546129d79190614bb7565b90915550505b821515806129ea57508115155b15611e555773ffffffffffffffffffffffffffffffffffffffff841660008181526012602052604090819020805460019091015491517f4510314558259843825372fc84b1ae19cb70b8c44805daf4808354e78a05cf6b92612a53928252602082015260400190565b60405180910390a27f9ad874aacbaa905813a0a2c9812df59969335e5c0f5fbd99d98575597fbfad088183612a888683614bb7565b612a929190614bb7565b6040805192835260208301919091520160405180910390a150505050565b600081815260046020526040902080547fffffffffffffffffffffffff00000000000000000000000000000000000000001673ffffffffffffffffffffffffffffffffffffffff84169081179091558190612b0a82611431565b73ffffffffffffffffffffffffffffffffffffffff167f8c5be1e5ebec7d5bd14f71427d1e84f3dd0314c0f7b2291e5b200ac8c7c3b92560405160405180910390a45050565b60008181526002602052604081205473ffffffffffffffffffffffffffffffffffffffff16612c01576040517f08c379a000000000000000000000000000000000000000000000000000000000815260206004820152602c60248201527f4552433732313a206f70657261746f7220717565727920666f72206e6f6e657860448201527f697374656e7420746f6b656e000000000000000000000000000000000000000060648201526084016108b2565b6000612c0c83611431565b90508073ffffffffffffffffffffffffffffffffffffffff168473ffffffffffffffffffffffffffffffffffffffff161480612c7b57508373ffffffffffffffffffffffffffffffffffffffff16612c63846109ad565b73ffffffffffffffffffffffffffffffffffffffff16145b8061212c575073ffffffffffffffffffffffffffffffffffffffff80821660009081526005602090815260408083209388168352929052205460ff1661212c565b8273ffffffffffffffffffffffffffffffffffffffff16612cdc82611431565b73ffffffffffffffffffffffffffffffffffffffff1614612d7f576040517f08c379a000000000000000000000000000000000000000000000000000000000815260206004820152602960248201527f4552433732313a207472616e73666572206f6620746f6b656e2074686174206960448201527f73206e6f74206f776e000000000000000000000000000000000000000000000060648201526084016108b2565b73ffffffffffffffffffffffffffffffffffffffff8216612e21576040517f08c379a0000000000000000000000000000000000000000000000000000000008152602060048201526024808201527f4552433732313a207472616e7366657220746f20746865207a65726f2061646460448201527f726573730000000000000000000000000000000000000000000000000000000060648201526084016108b2565b612e2c83838361386e565b612e37600082612ab0565b73ffffffffffffffffffffffffffffffffffffffff83166000908152600360205260408120805460019290612e6d908490614bb7565b909155505073ffffffffffffffffffffffffffffffffffffffff82166000908152600360205260408120805460019290612ea8908490614b4e565b909155505060008181526002602052604080822080547fffffffffffffffffffffffff00000000000000000000000000000000000000001673ffffffffffffffffffffffffffffffffffffffff86811691821790925591518493918716917fddf252ad1be2c89b69c2b068fc378daa952ba7f163c4a11628f55a4df523b3ef91a4505050565b600081815b8551811015612fd2576000868281518110612f5057612f50614d5d565b60200260200101519050808311612f92576040805160208101859052908101829052606001604051602081830303815290604052805190602001209250612fbf565b60408051602081018390529081018490526060016040516020818303038152906040528051906020012092505b5080612fca81614c83565b915050612f33565b509092149392505050565b600082815260066020526040902060010154612ff98133613974565b610c0f83836136d5565b600082815260066020908152604080832073ffffffffffffffffffffffffffffffffffffffff8516845290915290205460ff161561091757600082815260066020908152604080832073ffffffffffffffffffffffffffffffffffffffff8516808552925280832080547fffffffffffffffffffffffffffffffffffffffffffffffffffffffffffffff0016905551339285917ff6391f5c32d9c69d2a47ea670b442974b53935d1edc7fd64eb21e047a839171b9190a45050565b8061314b576040517f08c379a000000000000000000000000000000000000000000000000000000000815260206004820152603760248201527f4d65726b6c654469737472696275746f725345563a205570646174652074687260448201527f6573686f6c64206d757374206265206e6f6e2d7a65726f00000000000000000060648201526084016108b2565b6131747f73e573f9566d61418a34d5de3ff49360f9c51fec37f7486551670290f6285dab612134565b811115613203576040517f08c379a000000000000000000000000000000000000000000000000000000000815260206004820152602a60248201527f4d65726b6c654469737472696275746f725345563a207468726573686f6c642060448201527f3e2075706461746572730000000000000000000000000000000000000000000060648201526084016108b2565b6040518181527f4a3f39b792c062592e6c20d41d18331563a8de4ba398cd40ef7c9afffd6234959060200160405180910390a1600f55565b73ffffffffffffffffffffffffffffffffffffffff811633146132e0576040517f08c379a000000000000000000000000000000000000000000000000000000000815260206004820152602f60248201527f416363657373436f6e74726f6c3a2063616e206f6e6c792072656e6f756e636560448201527f20726f6c657320666f722073656c66000000000000000000000000000000000060648201526084016108b2565b6109178282613003565b60006115c98373ffffffffffffffffffffffffffffffffffffffff8416613a46565b60006115c98383613b39565b613323848484612cbc565b61332f84848484613b63565b611e55576040517f08c379a000000000000000000000000000000000000000000000000000000000815260206004820152603260248201527f4552433732313a207472616e7366657220746f206e6f6e20455243373231526560448201527f63656976657220696d706c656d656e746572000000000000000000000000000060648201526084016108b2565b6111268282612897565b60008181526002602052604090205460609073ffffffffffffffffffffffffffffffffffffffff16613479576040517f08c379a000000000000000000000000000000000000000000000000000000000815260206004820152602f60248201527f4552433732314d657461646174613a2055524920717565727920666f72206e6f60448201527f6e6578697374656e7420746f6b656e000000000000000000000000000000000060648201526084016108b2565b600061349060408051602081019091526000815290565b905060008151116134b057604051806020016040528060008152506115c9565b806134ba84613d62565b6040516020016134cb9291906149ad565b6040516020818303038152906040529392505050565b6000828152600660205260409020600101546134fd8133613974565b610c0f8383613003565b73ffffffffffffffffffffffffffffffffffffffff8216613584576040517f08c379a000000000000000000000000000000000000000000000000000000000815260206004820181905260248201527f4552433732313a206d696e7420746f20746865207a65726f206164647265737360448201526064016108b2565b60008181526002602052604090205473ffffffffffffffffffffffffffffffffffffffff1615613610576040517f08c379a000000000000000000000000000000000000000000000000000000000815260206004820152601c60248201527f4552433732313a20746f6b656e20616c7265616479206d696e7465640000000060448201526064016108b2565b61361c6000838361386e565b73ffffffffffffffffffffffffffffffffffffffff82166000908152600360205260408120805460019290613652908490614b4e565b909155505060008181526002602052604080822080547fffffffffffffffffffffffff00000000000000000000000000000000000000001673ffffffffffffffffffffffffffffffffffffffff861690811790915590518392907fddf252ad1be2c89b69c2b068fc378daa952ba7f163c4a11628f55a4df523b3ef908290a45050565b600082815260066020908152604080832073ffffffffffffffffffffffffffffffffffffffff8516845290915290205460ff1661091757600082815260066020908152604080832073ffffffffffffffffffffffffffffffffffffffff85168452909152902080547fffffffffffffffffffffffffffffffffffffffffffffffffffffffffffffff0016600117905561376b3390565b73ffffffffffffffffffffffffffffffffffffffff168173ffffffffffffffffffffffffffffffffffffffff16837f2f8788117e7eff1d82e926ec794901d17c78024a50270940304540a733656f0d60405160405180910390a45050565b6000818152600183016020526040812054613810575081546001818101845560008481526020808220909301849055845484825282860190935260409020919091556107f2565b5060006107f2565b60007fffffffff0000000000000000000000000000000000000000000000000000000082167f5a05180f0000000000000000000000000000000000000000000000000000000014806107f257506107f282613e94565b73ffffffffffffffffffffffffffffffffffffffff83166138d6576138d181600a80546000838152600b60205260408120829055600182018355919091527fc65a7bb8d6351c1cf70c95a316cc6a92839c986682d98bc35f958f4883f9d2a80155565b613913565b8173ffffffffffffffffffffffffffffffffffffffff168373ffffffffffffffffffffffffffffffffffffffff1614613913576139138382613eea565b73ffffffffffffffffffffffffffffffffffffffff821661393757610c0f81613fa1565b8273ffffffffffffffffffffffffffffffffffffffff168273ffffffffffffffffffffffffffffffffffffffff1614610c0f57610c0f8282614050565b600082815260066020908152604080832073ffffffffffffffffffffffffffffffffffffffff8516845290915290205460ff16610917576139cc8173ffffffffffffffffffffffffffffffffffffffff1660146140a1565b6139d78360206140a1565b6040516020016139e89291906149dc565b604080517fffffffffffffffffffffffffffffffffffffffffffffffffffffffffffffffe0818403018152908290527f08c379a00000000000000000000000000000000000000000000000000000000082526108b291600401614aec565b60008181526001830160205260408120548015613b2f576000613a6a600183614bb7565b8554909150600090613a7e90600190614bb7565b9050818114613ae3576000866000018281548110613a9e57613a9e614d5d565b9060005260206000200154905080876000018481548110613ac157613ac1614d5d565b6000918252602080832090910192909255918252600188019052604090208390555b8554869080613af457613af4614d2e565b6001900381819060005260206000200160009055905585600101600086815260200190815260200160002060009055600193505050506107f2565b60009150506107f2565b6000826000018281548110613b5057613b50614d5d565b9060005260206000200154905092915050565b600073ffffffffffffffffffffffffffffffffffffffff84163b15613d57576040517f150b7a0200000000000000000000000000000000000000000000000000000000815273ffffffffffffffffffffffffffffffffffffffff85169063150b7a0290613bda903390899088908890600401614a5d565b602060405180830381600087803b158015613bf457600080fd5b505af1925050508015613c42575060408051601f3d9081017fffffffffffffffffffffffffffffffffffffffffffffffffffffffffffffffe0168201909252613c3f9181019061484d565b60015b613d0c573d808015613c70576040519150601f19603f3d011682016040523d82523d6000602084013e613c75565b606091505b508051613d04576040517f08c379a000000000000000000000000000000000000000000000000000000000815260206004820152603260248201527f4552433732313a207472616e7366657220746f206e6f6e20455243373231526560448201527f63656976657220696d706c656d656e746572000000000000000000000000000060648201526084016108b2565b805181602001fd5b7fffffffff00000000000000000000000000000000000000000000000000000000167f150b7a020000000000000000000000000000000000000000000000000000000014905061212c565b506001949350505050565b606081613da257505060408051808201909152600181527f3000000000000000000000000000000000000000000000000000000000000000602082015290565b8160005b8115613dcc5780613db681614c83565b9150613dc59050600a83614b66565b9150613da6565b60008167ffffffffffffffff811115613de757613de7614d8c565b6040519080825280601f01601f191660200182016040528015613e11576020820181803683370190505b5090505b841561212c57613e26600183614bb7565b9150613e33600a86614cbc565b613e3e906030614b4e565b60f81b818381518110613e5357613e53614d5d565b60200101907effffffffffffffffffffffffffffffffffffffffffffffffffffffffffffff1916908160001a905350613e8d600a86614b66565b9450613e15565b60007fffffffff0000000000000000000000000000000000000000000000000000000082167f7965db0b0000000000000000000000000000000000000000000000000000000014806107f257506107f2826142e4565b60006001613ef7846114e3565b613f019190614bb7565b600083815260096020526040902054909150808214613f615773ffffffffffffffffffffffffffffffffffffffff841660009081526008602090815260408083208584528252808320548484528184208190558352600990915290208190555b50600091825260096020908152604080842084905573ffffffffffffffffffffffffffffffffffffffff9094168352600881528383209183525290812055565b600a54600090613fb390600190614bb7565b6000838152600b6020526040812054600a8054939450909284908110613fdb57613fdb614d5d565b9060005260206000200154905080600a8381548110613ffc57613ffc614d5d565b6000918252602080832090910192909255828152600b9091526040808220849055858252812055600a80548061403457614034614d2e565b6001900381819060005260206000200160009055905550505050565b600061405b836114e3565b73ffffffffffffffffffffffffffffffffffffffff9093166000908152600860209081526040808320868452825280832085905593825260099052919091209190915550565b606060006140b0836002614b7a565b6140bb906002614b4e565b67ffffffffffffffff8111156140d3576140d3614d8c565b6040519080825280601f01601f1916602001820160405280156140fd576020820181803683370190505b5090507f30000000000000000000000000000000000000000000000000000000000000008160008151811061413457614134614d5d565b60200101907effffffffffffffffffffffffffffffffffffffffffffffffffffffffffffff1916908160001a9053507f78000000000000000000000000000000000000000000000000000000000000008160018151811061419757614197614d5d565b60200101907effffffffffffffffffffffffffffffffffffffffffffffffffffffffffffff1916908160001a90535060006141d3846002614b7a565b6141de906001614b4e565b90505b600181111561427b577f303132333435363738396162636465660000000000000000000000000000000085600f166010811061421f5761421f614d5d565b1a60f81b82828151811061423557614235614d5d565b60200101907effffffffffffffffffffffffffffffffffffffffffffffffffffffffffffff1916908160001a90535060049490941c9361427481614bfa565b90506141e1565b5083156115c9576040517f08c379a000000000000000000000000000000000000000000000000000000000815260206004820181905260248201527f537472696e67733a20686578206c656e67746820696e73756666696369656e7460448201526064016108b2565b60007fffffffff0000000000000000000000000000000000000000000000000000000082167f80ac58cd00000000000000000000000000000000000000000000000000000000148061437757507fffffffff0000000000000000000000000000000000000000000000000000000082167f5b5e139f00000000000000000000000000000000000000000000000000000000145b806107f257507f01ffc9a7000000000000000000000000000000000000000000000000000000007fffffffff000000000000000000000000000000000000000000000000000000008316146107f2565b8280546143d390614c2f565b90600052602060002090601f0160209004810192826143f55760008555614459565b82601f1061442c578280017fffffffffffffffffffffffffffffffffffffffffffffffffffffffffffffff00823516178555614459565b82800160010185558215614459579182015b8281111561445957823582559160200191906001019061443e565b50614465929150614469565b5090565b5b80821115614465576000815560010161446a565b803573ffffffffffffffffffffffffffffffffffffffff811681146144a257600080fd5b919050565b6000602082840312156144b957600080fd5b6115c98261447e565b600080604083850312156144d557600080fd5b6144de8361447e565b91506144ec6020840161447e565b90509250929050565b60008060006060848603121561450a57600080fd5b6145138461447e565b92506145216020850161447e565b9150604084013590509250925092565b6000806000806080858703121561454757600080fd5b6145508561447e565b9350602061455f81870161447e565b935060408601359250606086013567ffffffffffffffff8082111561458357600080fd5b818801915088601f83011261459757600080fd5b8135818111156145a9576145a9614d8c565b6145d9847fffffffffffffffffffffffffffffffffffffffffffffffffffffffffffffffe0601f84011601614aff565b915080825289848285010111156145ef57600080fd5b808484018584013760008482840101525080935050505092959194509250565b6000806040838503121561462257600080fd5b61462b8361447e565b9150602083013561463b81614dbb565b809150509250929050565b6000806040838503121561465957600080fd5b6146628361447e565b946020939093013593505050565b6000806040838503121561468357600080fd5b823567ffffffffffffffff8082111561469b57600080fd5b818501915085601f8301126146af57600080fd5b81356020828211156146c3576146c3614d8c565b8160051b92506146d4818401614aff565b8281528181019085830185870184018b10156146ef57600080fd5b600096505b84871015614719576147058161447e565b8352600196909601959183019183016146f4565b509997909101359750505050505050565b60006020828403121561473c57600080fd5b81516115c981614dbb565b60006020828403121561475957600080fd5b5035919050565b6000806040838503121561477357600080fd5b823591506144ec6020840161447e565b60008060008060006080868803121561479b57600080fd5b85359450602086013567ffffffffffffffff808211156147ba57600080fd5b818801915088601f8301126147ce57600080fd5b8135818111156147dd57600080fd5b8960208285010111156147ef57600080fd5b9699602092909201985095966040810135965060600135945092505050565b6000806040838503121561482157600080fd5b50508035926020909101359150565b60006020828403121561484257600080fd5b81356115c981614dc9565b60006020828403121561485f57600080fd5b81516115c981614dc9565b60006020828403121561487c57600080fd5b5051919050565b60008060008060006080868803121561489b57600080fd5b853594506148ab6020870161447e565b935060408601359250606086013567ffffffffffffffff808211156148cf57600080fd5b818801915088601f8301126148e357600080fd5b8135818111156148f257600080fd5b8960208260051b850101111561490757600080fd5b9699959850939650602001949392505050565b60008151808452614932816020860160208601614bce565b601f017fffffffffffffffffffffffffffffffffffffffffffffffffffffffffffffffe0169290920160200192915050565b8183528181602085013750600060208284010152600060207fffffffffffffffffffffffffffffffffffffffffffffffffffffffffffffffe0601f840116840101905092915050565b600083516149bf818460208801614bce565b8351908301906149d3818360208801614bce565b01949350505050565b7f416363657373436f6e74726f6c3a206163636f756e7420000000000000000000815260008351614a14816017850160208801614bce565b7f206973206d697373696e6720726f6c65200000000000000000000000000000006017918401918201528351614a51816028840160208801614bce565b01602801949350505050565b600073ffffffffffffffffffffffffffffffffffffffff808716835280861660208401525083604083015260806060830152614a9c608083018461491a565b9695505050505050565b858152846020820152608060408201526000614ac6608083018587614964565b90508260608301529695505050505050565b60208152600061212c602083018486614964565b6020815260006115c9602083018461491a565b604051601f82017fffffffffffffffffffffffffffffffffffffffffffffffffffffffffffffffe016810167ffffffffffffffff81118282101715614b4657614b46614d8c565b604052919050565b60008219821115614b6157614b61614cd0565b500190565b600082614b7557614b75614cff565b500490565b6000817fffffffffffffffffffffffffffffffffffffffffffffffffffffffffffffffff0483118215151615614bb257614bb2614cd0565b500290565b600082821015614bc957614bc9614cd0565b500390565b60005b83811015614be9578181015183820152602001614bd1565b83811115611e555750506000910152565b600081614c0957614c09614cd0565b507fffffffffffffffffffffffffffffffffffffffffffffffffffffffffffffffff0190565b600181811c90821680614c4357607f821691505b60208210811415614c7d577f4e487b7100000000000000000000000000000000000000000000000000000000600052602260045260246000fd5b50919050565b60007fffffffffffffffffffffffffffffffffffffffffffffffffffffffffffffffff821415614cb557614cb5614cd0565b5060010190565b600082614ccb57614ccb614cff565b500690565b7f4e487b7100000000000000000000000000000000000000000000000000000000600052601160045260246000fd5b7f4e487b7100000000000000000000000000000000000000000000000000000000600052601260045260246000fd5b7f4e487b7100000000000000000000000000000000000000000000000000000000600052603160045260246000fd5b7f4e487b7100000000000000000000000000000000000000000000000000000000600052603260045260246000fd5b7f4e487b7100000000000000000000000000000000000000000000000000000000600052604160045260246000fd5b801515811461289457600080fd5b7fffffffff000000000000000000000000000000000000000000000000000000008116811461289457600080fdfea2646970667358221220f6980c9c77371e5537c18221e16146a1189699d64e2c9f7225ec98165f205f7764736f6c6343000806003373e573f9566d61418a34d5de3ff49360f9c51fec37f7486551670290f6285dab",
  "devdoc": {
    "details": "Distributes staker extractable value to stakers in the network. NFT serves as proof of distribution. This is a modified version of the MerkleDistributor contract where the balance of tokens is forward-funded rather than minted.",
    "kind": "dev",
    "methods": {
      "addUpdaters(address[],uint256)": {
        "details": "The caller must have the `DEFAULT_ADMIN_ROLE`",
        "params": {
          "newThreshold": "New threshold",
          "newUpdaters": "New updater addresses"
        }
      },
      "approve(address,uint256)": {
        "details": "See {IERC721-approve}."
      },
      "balanceOf(address)": {
        "details": "See {IERC721-balanceOf}."
      },
      "claim(uint256,address,uint256,bytes32[])": {
        "details": "Given a merkle proof of (index, account, totalEarned), claim all unclaimed tokens. Unclaimed tokens are the difference between the total earned tokens (provided in the merkle tree) and those that have been either claimed or slashed. If no tokens are claimable, this function will revert. ",
        "params": {
          "account": "Account for claim",
          "index": "Claim index",
          "merkleProof": "Merkle proof",
          "totalEarned": "Total lifetime amount of tokens earned by account"
        }
      },
      "claimAndStake(uint256,address,uint256,bytes32[])": {
        "details": "Given a merkle proof of (index, account, totalEarned), claim all unclaimed tokens. Unclaimed tokens are the difference between the total earned tokens (provided in the merkle tree) and those that have been either claimed or slashed. If no tokens are claimable, this function will revert. ",
        "params": {
          "account": "Account for claim",
          "index": "Claim index",
          "merkleProof": "Merkle proof",
          "totalEarned": "Total lifetime amount of tokens earned by account"
        }
      },
      "constructor": {
        "params": {
          "_admin": "Admin address",
          "_edenNetworkProxy": "Eden Network Proxy contract",
          "_slashers": "Initial slashers",
          "_token": "Token address",
          "_updateThreshold": "Number of updaters required to update",
          "_updaters": "Initial updaters"
        }
      },
      "getApproved(uint256)": {
        "details": "See {IERC721-getApproved}."
      },
      "getRoleAdmin(bytes32)": {
        "details": "Returns the admin role that controls `role`. See {grantRole} and {revokeRole}. To change a role's admin, use {_setRoleAdmin}."
      },
      "getRoleMember(bytes32,uint256)": {
        "details": "Returns one of the accounts that have `role`. `index` must be a value between 0 and {getRoleMemberCount}, non-inclusive. Role bearers are not sorted in any particular way, and their ordering may change at any point. WARNING: When using {getRoleMember} and {getRoleMemberCount}, make sure you perform all queries on the same block. See the following https://forum.openzeppelin.com/t/iterating-over-elements-on-enumerableset-in-openzeppelin-contracts/2296[forum post] for more information."
      },
      "getRoleMemberCount(bytes32)": {
        "details": "Returns the number of accounts that have `role`. Can be used together with {getRoleMember} to enumerate all bearers of a role."
      },
      "grantRole(bytes32,address)": {
        "details": "Overload {grantRole} to track enumerable memberships"
      },
      "hasRole(bytes32,address)": {
        "details": "Returns `true` if `account` has been granted `role`."
      },
      "isApprovedForAll(address,address)": {
        "details": "See {IERC721-isApprovedForAll}."
      },
      "name()": {
        "details": "See {IERC721Metadata-name}."
      },
      "ownerOf(uint256)": {
        "details": "See {IERC721-ownerOf}."
      },
      "removeUpdaters(address[],uint256)": {
        "details": "The caller must have the `DEFAULT_ADMIN_ROLE`",
        "params": {
          "existingUpdaters": "Existing updater addresses",
          "newThreshold": "New threshold"
        }
      },
      "renounceRole(bytes32,address)": {
        "details": "Overload {renounceRole} to track enumerable memberships"
      },
      "revokeRole(bytes32,address)": {
        "details": "Overload {revokeRole} to track enumerable memberships"
      },
      "safeTransferFrom(address,address,uint256)": {
        "details": "See {IERC721-safeTransferFrom}."
      },
      "safeTransferFrom(address,address,uint256,bytes)": {
        "details": "See {IERC721-safeTransferFrom}."
      },
      "setApprovalForAll(address,bool)": {
        "details": "See {IERC721-setApprovalForAll}."
      },
      "setUpdateThreshold(uint256)": {
        "details": "The caller must have the `DEFAULT_ADMIN_ROLE`",
        "params": {
          "to": "New threshold"
        }
      },
      "slash(address,uint256)": {
        "details": "The caller must have `SLASHERS_ROLE`.",
        "params": {
          "account": "Account to slash",
          "amount": "Amount to slash"
        }
      },
      "supportsInterface(bytes4)": {
        "details": "See the corresponding https://eips.ethereum.org/EIPS/eip-165#how-interfaces-are-identified[EIP section] to learn more about how these ids are created. This function call must use less than 30 000 gas.",
        "params": {
          "interfaceId": "ID of interface"
        }
      },
      "symbol()": {
        "details": "See {IERC721Metadata-symbol}."
      },
      "tokenByIndex(uint256)": {
        "details": "See {IERC721Enumerable-tokenByIndex}."
      },
      "tokenOfOwnerByIndex(address,uint256)": {
        "details": "See {IERC721Enumerable-tokenOfOwnerByIndex}."
      },
      "tokenURI(uint256)": {
        "params": {
          "tokenId": "ID of token"
        }
      },
      "totalSupply()": {
        "details": "See {IERC721Enumerable-totalSupply}."
      },
      "transferFrom(address,address,uint256)": {
        "details": "See {IERC721-transferFrom}."
      },
      "updateMerkleRoot(bytes32,string,uint256,uint256)": {
        "details": "The caller must have `UPDATER_ROLE`",
        "params": {
          "newDistributionNumber": "Number of distribution",
          "newMerkleRoot": "Merkle root",
          "newTokenTotal": "Sum of all tokens, by convention the zero-key (0x0) in the merkle tree",
          "uri": "NFT uri"
        }
      }
    },
    "stateVariables": {
      "_tokenURI": {
        "details": "Path to distribution metadata (including proofs)"
      },
      "_updateVotes": {
        "details": "Votes for a new merkle root"
      },
      "_updaterVotes": {
        "details": "Vote for new merkle root for each distribution"
      }
    },
    "title": "MerkleDistributorSEV",
    "version": 1
  },
  "userdoc": {
    "kind": "user",
    "methods": {
      "SLASHER_ROLE()": {
        "notice": "Role to slash earned rewards"
      },
      "UPDATER_ROLE()": {
        "notice": "Role allowing the merkle root to be updated"
      },
      "accountState(address)": {
        "notice": "Account state"
      },
      "addUpdaters(address[],uint256)": {
        "notice": "Add updaters and modify threshold"
      },
      "claim(uint256,address,uint256,bytes32[])": {
        "notice": "Claim all unclaimed tokens"
      },
      "claimAndStake(uint256,address,uint256,bytes32[])": {
        "notice": "Claim all unclaimed tokens + stake them"
      },
      "constructor": {
        "notice": "Create new MerkleDistributorSEV"
      },
      "debtTotal()": {
        "notice": "Sum of all tokens still needing to be distributed"
      },
      "distributionCount()": {
        "notice": "Total number of distributions, also token id of the current distribution"
      },
      "edenNetwork()": {
        "notice": "Eden Network contract"
      },
      "merkleRoot()": {
        "notice": "Root of a merkle tree containing total earned amounts"
      },
      "previousMerkleRoot(bytes32)": {
        "notice": "Historical merkle roots"
      },
      "removeUpdaters(address[],uint256)": {
        "notice": "Remove updaters and modify threshold"
      },
      "setUpdateThreshold(uint256)": {
        "notice": "Change the update threshold"
      },
      "slash(address,uint256)": {
        "notice": "Slash `account` for `amount` tokens."
      },
      "supportsInterface(bytes4)": {
        "notice": "Returns true if this contract implements the interface defined by `interfaceId`. "
      },
      "token()": {
        "notice": "Token distributed by this contract"
      },
      "tokenTotal()": {
        "notice": "Sum of all tokens in the distribution"
      },
      "tokenURI(uint256)": {
        "notice": "Returns the Uniform Resource Identifier (URI) for `tokenId` token."
      },
      "updateMerkleRoot(bytes32,string,uint256,uint256)": {
        "notice": "Set a new merkle root and mints NFT with metadata URI to retreive the full tree"
      },
      "updateThreshold()": {
        "notice": "Number of votes from updaters needed to apply a new root"
      }
    },
    "version": 1
  },
  "storageLayout": {
    "storage": [
      {
        "astId": 15369,
        "contract": "contracts/MerkleDistributorSEV.sol:MerkleDistributorSEV",
        "label": "_name",
        "offset": 0,
        "slot": "0",
        "type": "t_string_storage"
      },
      {
        "astId": 15371,
        "contract": "contracts/MerkleDistributorSEV.sol:MerkleDistributorSEV",
        "label": "_symbol",
        "offset": 0,
        "slot": "1",
        "type": "t_string_storage"
      },
      {
        "astId": 15375,
        "contract": "contracts/MerkleDistributorSEV.sol:MerkleDistributorSEV",
        "label": "_owners",
        "offset": 0,
        "slot": "2",
        "type": "t_mapping(t_uint256,t_address)"
      },
      {
        "astId": 15379,
        "contract": "contracts/MerkleDistributorSEV.sol:MerkleDistributorSEV",
        "label": "_balances",
        "offset": 0,
        "slot": "3",
        "type": "t_mapping(t_address,t_uint256)"
      },
      {
        "astId": 15383,
        "contract": "contracts/MerkleDistributorSEV.sol:MerkleDistributorSEV",
        "label": "_tokenApprovals",
        "offset": 0,
        "slot": "4",
        "type": "t_mapping(t_uint256,t_address)"
      },
      {
        "astId": 15389,
        "contract": "contracts/MerkleDistributorSEV.sol:MerkleDistributorSEV",
        "label": "_operatorApprovals",
        "offset": 0,
        "slot": "5",
        "type": "t_mapping(t_address,t_mapping(t_address,t_bool))"
      },
      {
        "astId": 14079,
        "contract": "contracts/MerkleDistributorSEV.sol:MerkleDistributorSEV",
        "label": "_roles",
        "offset": 0,
        "slot": "6",
        "type": "t_mapping(t_bytes32,t_struct(RoleData)14074_storage)"
      },
      {
        "astId": 14407,
        "contract": "contracts/MerkleDistributorSEV.sol:MerkleDistributorSEV",
        "label": "_roleMembers",
        "offset": 0,
        "slot": "7",
        "type": "t_mapping(t_bytes32,t_struct(AddressSet)16781_storage)"
      },
      {
        "astId": 16176,
        "contract": "contracts/MerkleDistributorSEV.sol:MerkleDistributorSEV",
        "label": "_ownedTokens",
        "offset": 0,
        "slot": "8",
        "type": "t_mapping(t_address,t_mapping(t_uint256,t_uint256))"
      },
      {
        "astId": 16180,
        "contract": "contracts/MerkleDistributorSEV.sol:MerkleDistributorSEV",
        "label": "_ownedTokensIndex",
        "offset": 0,
        "slot": "9",
        "type": "t_mapping(t_uint256,t_uint256)"
      },
      {
        "astId": 16183,
        "contract": "contracts/MerkleDistributorSEV.sol:MerkleDistributorSEV",
        "label": "_allTokens",
        "offset": 0,
        "slot": "10",
        "type": "t_array(t_uint256)dyn_storage"
      },
      {
        "astId": 16187,
        "contract": "contracts/MerkleDistributorSEV.sol:MerkleDistributorSEV",
        "label": "_allTokensIndex",
        "offset": 0,
        "slot": "11",
        "type": "t_mapping(t_uint256,t_uint256)"
      },
      {
        "astId": 4103,
        "contract": "contracts/MerkleDistributorSEV.sol:MerkleDistributorSEV",
        "label": "edenNetwork",
        "offset": 0,
        "slot": "12",
        "type": "t_contract(IEdenNetwork)13119"
      },
      {
        "astId": 4107,
        "contract": "contracts/MerkleDistributorSEV.sol:MerkleDistributorSEV",
        "label": "merkleRoot",
        "offset": 0,
        "slot": "13",
        "type": "t_bytes32"
      },
      {
        "astId": 4111,
        "contract": "contracts/MerkleDistributorSEV.sol:MerkleDistributorSEV",
        "label": "distributionCount",
        "offset": 0,
        "slot": "14",
        "type": "t_uint256"
      },
      {
        "astId": 4114,
        "contract": "contracts/MerkleDistributorSEV.sol:MerkleDistributorSEV",
        "label": "updateThreshold",
        "offset": 0,
        "slot": "15",
        "type": "t_uint256"
      },
      {
        "astId": 4117,
        "contract": "contracts/MerkleDistributorSEV.sol:MerkleDistributorSEV",
        "label": "tokenTotal",
        "offset": 0,
        "slot": "16",
        "type": "t_uint256"
      },
      {
        "astId": 4120,
        "contract": "contracts/MerkleDistributorSEV.sol:MerkleDistributorSEV",
        "label": "debtTotal",
        "offset": 0,
        "slot": "17",
        "type": "t_uint256"
      },
      {
        "astId": 4132,
        "contract": "contracts/MerkleDistributorSEV.sol:MerkleDistributorSEV",
        "label": "accountState",
        "offset": 0,
        "slot": "18",
        "type": "t_mapping(t_address,t_struct(AccountState)4125_storage)"
      },
      {
        "astId": 4138,
        "contract": "contracts/MerkleDistributorSEV.sol:MerkleDistributorSEV",
        "label": "previousMerkleRoot",
        "offset": 0,
        "slot": "19",
        "type": "t_mapping(t_bytes32,t_bool)"
      },
      {
        "astId": 4143,
        "contract": "contracts/MerkleDistributorSEV.sol:MerkleDistributorSEV",
        "label": "_tokenURI",
        "offset": 0,
        "slot": "20",
        "type": "t_mapping(t_uint256,t_string_storage)"
      },
      {
        "astId": 4148,
        "contract": "contracts/MerkleDistributorSEV.sol:MerkleDistributorSEV",
        "label": "_updateVotes",
        "offset": 0,
        "slot": "21",
        "type": "t_mapping(t_bytes32,t_uint256)"
      },
      {
        "astId": 4155,
        "contract": "contracts/MerkleDistributorSEV.sol:MerkleDistributorSEV",
        "label": "_updaterVotes",
        "offset": 0,
        "slot": "22",
        "type": "t_mapping(t_address,t_mapping(t_uint256,t_bytes32))"
      }
    ],
    "types": {
      "t_address": {
        "encoding": "inplace",
        "label": "address",
        "numberOfBytes": "20"
      },
      "t_array(t_bytes32)dyn_storage": {
        "base": "t_bytes32",
        "encoding": "dynamic_array",
        "label": "bytes32[]",
        "numberOfBytes": "32"
      },
      "t_array(t_uint256)dyn_storage": {
        "base": "t_uint256",
        "encoding": "dynamic_array",
        "label": "uint256[]",
        "numberOfBytes": "32"
      },
      "t_bool": {
        "encoding": "inplace",
        "label": "bool",
        "numberOfBytes": "1"
      },
      "t_bytes32": {
        "encoding": "inplace",
        "label": "bytes32",
        "numberOfBytes": "32"
      },
      "t_contract(IEdenNetwork)13119": {
        "encoding": "inplace",
        "label": "contract IEdenNetwork",
        "numberOfBytes": "20"
      },
      "t_mapping(t_address,t_bool)": {
        "encoding": "mapping",
        "key": "t_address",
        "label": "mapping(address => bool)",
        "numberOfBytes": "32",
        "value": "t_bool"
      },
      "t_mapping(t_address,t_mapping(t_address,t_bool))": {
        "encoding": "mapping",
        "key": "t_address",
        "label": "mapping(address => mapping(address => bool))",
        "numberOfBytes": "32",
        "value": "t_mapping(t_address,t_bool)"
      },
      "t_mapping(t_address,t_mapping(t_uint256,t_bytes32))": {
        "encoding": "mapping",
        "key": "t_address",
        "label": "mapping(address => mapping(uint256 => bytes32))",
        "numberOfBytes": "32",
        "value": "t_mapping(t_uint256,t_bytes32)"
      },
      "t_mapping(t_address,t_mapping(t_uint256,t_uint256))": {
        "encoding": "mapping",
        "key": "t_address",
        "label": "mapping(address => mapping(uint256 => uint256))",
        "numberOfBytes": "32",
        "value": "t_mapping(t_uint256,t_uint256)"
      },
      "t_mapping(t_address,t_struct(AccountState)4125_storage)": {
        "encoding": "mapping",
        "key": "t_address",
        "label": "mapping(address => struct MerkleDistributorSEV.AccountState)",
        "numberOfBytes": "32",
        "value": "t_struct(AccountState)4125_storage"
      },
      "t_mapping(t_address,t_uint256)": {
        "encoding": "mapping",
        "key": "t_address",
        "label": "mapping(address => uint256)",
        "numberOfBytes": "32",
        "value": "t_uint256"
      },
      "t_mapping(t_bytes32,t_bool)": {
        "encoding": "mapping",
        "key": "t_bytes32",
        "label": "mapping(bytes32 => bool)",
        "numberOfBytes": "32",
        "value": "t_bool"
      },
      "t_mapping(t_bytes32,t_struct(AddressSet)16781_storage)": {
        "encoding": "mapping",
        "key": "t_bytes32",
        "label": "mapping(bytes32 => struct EnumerableSet.AddressSet)",
        "numberOfBytes": "32",
        "value": "t_struct(AddressSet)16781_storage"
      },
      "t_mapping(t_bytes32,t_struct(RoleData)14074_storage)": {
        "encoding": "mapping",
        "key": "t_bytes32",
        "label": "mapping(bytes32 => struct AccessControl.RoleData)",
        "numberOfBytes": "32",
        "value": "t_struct(RoleData)14074_storage"
      },
      "t_mapping(t_bytes32,t_uint256)": {
        "encoding": "mapping",
        "key": "t_bytes32",
        "label": "mapping(bytes32 => uint256)",
        "numberOfBytes": "32",
        "value": "t_uint256"
      },
      "t_mapping(t_uint256,t_address)": {
        "encoding": "mapping",
        "key": "t_uint256",
        "label": "mapping(uint256 => address)",
        "numberOfBytes": "32",
        "value": "t_address"
      },
      "t_mapping(t_uint256,t_bytes32)": {
        "encoding": "mapping",
        "key": "t_uint256",
        "label": "mapping(uint256 => bytes32)",
        "numberOfBytes": "32",
        "value": "t_bytes32"
      },
      "t_mapping(t_uint256,t_string_storage)": {
        "encoding": "mapping",
        "key": "t_uint256",
        "label": "mapping(uint256 => string)",
        "numberOfBytes": "32",
        "value": "t_string_storage"
      },
      "t_mapping(t_uint256,t_uint256)": {
        "encoding": "mapping",
        "key": "t_uint256",
        "label": "mapping(uint256 => uint256)",
        "numberOfBytes": "32",
        "value": "t_uint256"
      },
      "t_string_storage": {
        "encoding": "bytes",
        "label": "string",
        "numberOfBytes": "32"
      },
      "t_struct(AccountState)4125_storage": {
        "encoding": "inplace",
        "label": "struct MerkleDistributorSEV.AccountState",
        "members": [
          {
            "astId": 4122,
            "contract": "contracts/MerkleDistributorSEV.sol:MerkleDistributorSEV",
            "label": "totalClaimed",
            "offset": 0,
            "slot": "0",
            "type": "t_uint256"
          },
          {
            "astId": 4124,
            "contract": "contracts/MerkleDistributorSEV.sol:MerkleDistributorSEV",
            "label": "totalSlashed",
            "offset": 0,
            "slot": "1",
            "type": "t_uint256"
          }
        ],
        "numberOfBytes": "64"
      },
      "t_struct(AddressSet)16781_storage": {
        "encoding": "inplace",
        "label": "struct EnumerableSet.AddressSet",
        "members": [
          {
            "astId": 16780,
            "contract": "contracts/MerkleDistributorSEV.sol:MerkleDistributorSEV",
            "label": "_inner",
            "offset": 0,
            "slot": "0",
            "type": "t_struct(Set)16510_storage"
          }
        ],
        "numberOfBytes": "64"
      },
      "t_struct(RoleData)14074_storage": {
        "encoding": "inplace",
        "label": "struct AccessControl.RoleData",
        "members": [
          {
            "astId": 14071,
            "contract": "contracts/MerkleDistributorSEV.sol:MerkleDistributorSEV",
            "label": "members",
            "offset": 0,
            "slot": "0",
            "type": "t_mapping(t_address,t_bool)"
          },
          {
            "astId": 14073,
            "contract": "contracts/MerkleDistributorSEV.sol:MerkleDistributorSEV",
            "label": "adminRole",
            "offset": 0,
            "slot": "1",
            "type": "t_bytes32"
          }
        ],
        "numberOfBytes": "64"
      },
      "t_struct(Set)16510_storage": {
        "encoding": "inplace",
        "label": "struct EnumerableSet.Set",
        "members": [
          {
            "astId": 16505,
            "contract": "contracts/MerkleDistributorSEV.sol:MerkleDistributorSEV",
            "label": "_values",
            "offset": 0,
            "slot": "0",
            "type": "t_array(t_bytes32)dyn_storage"
          },
          {
            "astId": 16509,
            "contract": "contracts/MerkleDistributorSEV.sol:MerkleDistributorSEV",
            "label": "_indexes",
            "offset": 0,
            "slot": "1",
            "type": "t_mapping(t_bytes32,t_uint256)"
          }
        ],
        "numberOfBytes": "64"
      },
      "t_uint256": {
        "encoding": "inplace",
        "label": "uint256",
        "numberOfBytes": "32"
      }
    }
  }
}