{
  "address": "0xDFCcB0225CE7618F9ecE7297635C4bB703d566CF",
  "abi": [
    {
      "inputs": [
        {
          "internalType": "address",
          "name": "_fromToken",
          "type": "address"
        },
        {
          "internalType": "address",
          "name": "_toToken",
          "type": "address"
        }
      ],
      "stateMutability": "nonpayable",
      "type": "constructor"
    },
    {
      "anonymous": false,
      "inputs": [
        {
          "indexed": false,
          "internalType": "uint256",
          "name": "amount",
          "type": "uint256"
        },
        {
          "indexed": false,
          "internalType": "address",
          "name": "fromToken",
          "type": "address"
        },
        {
          "indexed": false,
          "internalType": "address",
          "name": "toToken",
          "type": "address"
        },
        {
          "indexed": false,
          "internalType": "address",
          "name": "migrator",
          "type": "address"
        }
      ],
      "name": "Migrate",
      "type": "event"
    },
    {
      "inputs": [],
      "name": "fromToken",
      "outputs": [
        {
          "internalType": "contract IERC20Extended",
          "name": "",
          "type": "address"
        }
      ],
      "stateMutability": "view",
      "type": "function"
    },
    {
      "inputs": [
        {
          "internalType": "uint256",
          "name": "amount",
          "type": "uint256"
        }
      ],
      "name": "migrate",
      "outputs": [],
      "stateMutability": "nonpayable",
      "type": "function"
    },
    {
      "inputs": [
        {
          "internalType": "address",
          "name": "receiver",
          "type": "address"
        },
        {
          "internalType": "uint256",
          "name": "amount",
          "type": "uint256"
        }
      ],
      "name": "migrateTo",
      "outputs": [],
      "stateMutability": "nonpayable",
      "type": "function"
    },
    {
      "inputs": [
        {
          "internalType": "address",
          "name": "receiver",
          "type": "address"
        },
        {
          "internalType": "uint256",
          "name": "amount",
          "type": "uint256"
        },
        {
          "internalType": "uint256",
          "name": "deadline",
          "type": "uint256"
        },
        {
          "internalType": "uint8",
          "name": "v",
          "type": "uint8"
        },
        {
          "internalType": "bytes32",
          "name": "r",
          "type": "bytes32"
        },
        {
          "internalType": "bytes32",
          "name": "s",
          "type": "bytes32"
        }
      ],
      "name": "migrateToWithPermit",
      "outputs": [],
      "stateMutability": "nonpayable",
      "type": "function"
    },
    {
      "inputs": [
        {
          "internalType": "uint256",
          "name": "amount",
          "type": "uint256"
        },
        {
          "internalType": "uint256",
          "name": "deadline",
          "type": "uint256"
        },
        {
          "internalType": "uint8",
          "name": "v",
          "type": "uint8"
        },
        {
          "internalType": "bytes32",
          "name": "r",
          "type": "bytes32"
        },
        {
          "internalType": "bytes32",
          "name": "s",
          "type": "bytes32"
        }
      ],
      "name": "migrateWithPermit",
      "outputs": [],
      "stateMutability": "nonpayable",
      "type": "function"
    },
    {
      "inputs": [],
      "name": "toToken",
      "outputs": [
        {
          "internalType": "contract IERC20Extended",
          "name": "",
          "type": "address"
        }
      ],
      "stateMutability": "view",
      "type": "function"
    }
  ],
  "transactionHash": "0x5a95f18c83b99c21d0f33e1fb8c78fbd7a783fea88fb335dedc4ea2200b3d12a",
  "args": [
    "0x1F3f9D3068568F8040775be2e8C03C103C61f3aF",
    "0x1559FA1b8F28238FD5D76D9f434ad86FD20D1559"
  ],
  "solcInputHash": "722468a443eb656270ad7282ef1aeb53",
  "bytecode": "0x60c060405234801561001057600080fd5b50604051610b55380380610b5583398101604081905261002f91610069565b6001600160601b0319606092831b8116608052911b1660a05261009c565b80516001600160a01b038116811461006457600080fd5b919050565b6000806040838503121561007c57600080fd5b6100858361004d565b91506100936020840161004d565b90509250929050565b60805160601c60a05160601c610a666100ef6000396000818160f40152818161039c015261046001526000818160a4015281816101a30152818161028b0152818161032801526104220152610a666000f3fe608060405234801561001057600080fd5b50600436106100725760003560e01c80633c930575116100505780633c930575146100ef578063454b060814610116578063ae44214a1461012957600080fd5b80630d213d3114610077578063298e9c941461008c57806332a468571461009f575b600080fd5b61008a610085366004610893565b61013c565b005b61008a61009a366004610950565b61014a565b6100c67f000000000000000000000000000000000000000000000000000000000000000081565b60405173ffffffffffffffffffffffffffffffffffffffff909116815260200160405180910390f35b6100c67f000000000000000000000000000000000000000000000000000000000000000081565b61008a610124366004610937565b610225565b61008a6101373660046108bd565b610232565b610146828261030e565b5050565b6040517fd505accf000000000000000000000000000000000000000000000000000000008152336004820152306024820152604481018690526064810185905260ff8416608482015260a4810183905260c481018290527f000000000000000000000000000000000000000000000000000000000000000073ffffffffffffffffffffffffffffffffffffffff169063d505accf9060e401600060405180830381600087803b1580156101fc57600080fd5b505af1158015610210573d6000803e3d6000fd5b5050505061021e338661030e565b5050505050565b61022f338261030e565b50565b6040517fd505accf000000000000000000000000000000000000000000000000000000008152336004820152306024820152604481018690526064810185905260ff8416608482015260a4810183905260c481018290527f000000000000000000000000000000000000000000000000000000000000000073ffffffffffffffffffffffffffffffffffffffff169063d505accf9060e401600060405180830381600087803b1580156102e457600080fd5b505af11580156102f8573d6000803e3d6000fd5b50505050610306868661030e565b505050505050565b61035073ffffffffffffffffffffffffffffffffffffffff7f0000000000000000000000000000000000000000000000000000000000000000163330846104bc565b6040517f40c10f1900000000000000000000000000000000000000000000000000000000815273ffffffffffffffffffffffffffffffffffffffff8381166004830152602482018390527f000000000000000000000000000000000000000000000000000000000000000016906340c10f1990604401602060405180830381600087803b1580156103e057600080fd5b505af11580156103f4573d6000803e3d6000fd5b505050506040513d601f19601f820116820180604052508101906104189190610915565b50604080518281527f000000000000000000000000000000000000000000000000000000000000000073ffffffffffffffffffffffffffffffffffffffff90811660208301527f00000000000000000000000000000000000000000000000000000000000000008116828401528416606082015290517f2c3cfd1450ae8233a55d7b56e333778edde78457abd6ff9c1b8e7c1d97ceb4a89181900360800190a15050565b6040805173ffffffffffffffffffffffffffffffffffffffff85811660248301528416604482015260648082018490528251808303909101815260849091019091526020810180517bffffffffffffffffffffffffffffffffffffffffffffffffffffffff167f23b872dd00000000000000000000000000000000000000000000000000000000179052610551908590610557565b50505050565b60006105b9826040518060400160405280602081526020017f5361666545524332303a206c6f772d6c6576656c2063616c6c206661696c65648152508573ffffffffffffffffffffffffffffffffffffffff1661066d9092919063ffffffff16565b80519091501561066857808060200190518101906105d79190610915565b610668576040517f08c379a000000000000000000000000000000000000000000000000000000000815260206004820152602a60248201527f5361666545524332303a204552433230206f7065726174696f6e20646964206e60448201527f6f7420737563636565640000000000000000000000000000000000000000000060648201526084015b60405180910390fd5b505050565b606061067c8484600085610686565b90505b9392505050565b606082471015610718576040517f08c379a000000000000000000000000000000000000000000000000000000000815260206004820152602660248201527f416464726573733a20696e73756666696369656e742062616c616e636520666f60448201527f722063616c6c0000000000000000000000000000000000000000000000000000606482015260840161065f565b843b610780576040517f08c379a000000000000000000000000000000000000000000000000000000000815260206004820152601d60248201527f416464726573733a2063616c6c20746f206e6f6e2d636f6e7472616374000000604482015260640161065f565b6000808673ffffffffffffffffffffffffffffffffffffffff1685876040516107a99190610997565b60006040518083038185875af1925050503d80600081146107e6576040519150601f19603f3d011682016040523d82523d6000602084013e6107eb565b606091505b50915091506107fb828286610806565b979650505050505050565b6060831561081557508161067f565b8251156108255782518084602001fd5b816040517f08c379a000000000000000000000000000000000000000000000000000000000815260040161065f91906109b3565b803573ffffffffffffffffffffffffffffffffffffffff8116811461087d57600080fd5b919050565b803560ff8116811461087d57600080fd5b600080604083850312156108a657600080fd5b6108af83610859565b946020939093013593505050565b60008060008060008060c087890312156108d657600080fd5b6108df87610859565b955060208701359450604087013593506108fb60608801610882565b92506080870135915060a087013590509295509295509295565b60006020828403121561092757600080fd5b8151801515811461067f57600080fd5b60006020828403121561094957600080fd5b5035919050565b600080600080600060a0868803121561096857600080fd5b853594506020860135935061097f60408701610882565b94979396509394606081013594506080013592915050565b600082516109a9818460208701610a04565b9190910192915050565b60208152600082518060208401526109d2816040850160208701610a04565b601f017fffffffffffffffffffffffffffffffffffffffffffffffffffffffffffffffe0169190910160400192915050565b60005b83811015610a1f578181015183820152602001610a07565b83811115610551575050600091015256fea2646970667358221220055042a16c128314925b6b6c156e4e0ef5971fe07a4e2661a2f0de79a52407cd64736f6c63430008060033",
  "devdoc": {
    "details": "Migrate from old token to new token",
    "kind": "dev",
    "methods": {
      "constructor": {
        "params": {
          "_fromToken": "From token",
          "_toToken": "To token"
        }
      },
      "migrate(uint256)": {
        "params": {
          "amount": "Amount to migrate"
        }
      },
      "migrateTo(address,uint256)": {
        "params": {
          "amount": "Amount to migrate",
          "receiver": "Address that will receive new tokens"
        }
      },
      "migrateToWithPermit(address,uint256,uint256,uint8,bytes32,bytes32)": {
        "params": {
          "amount": "Amount to migrate",
          "deadline": "The time at which to expire the signature",
          "r": "Half of the ECDSA signature pair",
          "receiver": "Address that will receive new tokens",
          "s": "Half of the ECDSA signature pair",
          "v": "The recovery byte of the signature"
        }
      },
      "migrateWithPermit(uint256,uint256,uint8,bytes32,bytes32)": {
        "params": {
          "amount": "Amount to migrate",
          "deadline": "The time at which to expire the signature",
          "r": "Half of the ECDSA signature pair",
          "s": "Half of the ECDSA signature pair",
          "v": "The recovery byte of the signature"
        }
      }
    },
    "title": "Migrator",
    "version": 1
  },
  "userdoc": {
    "events": {
      "Migrate(uint256,address,address,address)": {
        "notice": "Event emitted on each migration"
      }
    },
    "kind": "user",
    "methods": {
      "constructor": {
        "notice": "Construct new Migrator"
      },
      "fromToken()": {
        "notice": "From token"
      },
      "migrate(uint256)": {
        "notice": "Migrate to new token"
      },
      "migrateTo(address,uint256)": {
        "notice": "Migrate to new token, sending new tokens to specified receiver address"
      },
      "migrateToWithPermit(address,uint256,uint256,uint8,bytes32,bytes32)": {
        "notice": "Migrate to new token, sending new tokens to specified receiver using permit for approvals"
      },
      "migrateWithPermit(uint256,uint256,uint8,bytes32,bytes32)": {
        "notice": "Migrate to new token using permit for approvals"
      },
      "toToken()": {
        "notice": "To token"
      }
    },
    "version": 1
  },
  "storageLayout": {
    "storage": [],
    "types": null
  }
}