{
  "address": "0xAEC2330EAC8d786c68c89955863BAA220B35f3f6",
  "abi": [
    {
      "inputs": [
        {
          "internalType": "address",
          "name": "_owner",
          "type": "address"
        },
        {
          "internalType": "address",
          "name": "_lockManager",
          "type": "address"
        },
        {
          "internalType": "address",
          "name": "_vault",
          "type": "address"
        },
        {
          "internalType": "address",
          "name": "_rewardToken",
          "type": "address"
        },
        {
          "internalType": "address",
          "name": "_sushiToken",
          "type": "address"
        },
        {
          "internalType": "address",
          "name": "_masterChef",
          "type": "address"
        },
        {
          "internalType": "uint256",
          "name": "_startBlock",
          "type": "uint256"
        },
        {
          "internalType": "uint256",
          "name": "_rewardTokensPerBlock",
          "type": "uint256"
        }
      ],
      "stateMutability": "nonpayable",
      "type": "constructor"
    },
    {
      "anonymous": false,
      "inputs": [
        {
          "indexed": true,
          "internalType": "string",
          "name": "addressType",
          "type": "string"
        },
        {
          "indexed": true,
          "internalType": "address",
          "name": "oldAddress",
          "type": "address"
        },
        {
          "indexed": true,
          "internalType": "address",
          "name": "newAddress",
          "type": "address"
        }
      ],
      "name": "ChangedAddress",
      "type": "event"
    },
    {
      "anonymous": false,
      "inputs": [
        {
          "indexed": true,
          "internalType": "address",
          "name": "oldOwner",
          "type": "address"
        },
        {
          "indexed": true,
          "internalType": "address",
          "name": "newOwner",
          "type": "address"
        }
      ],
      "name": "ChangedOwner",
      "type": "event"
    },
    {
      "anonymous": false,
      "inputs": [
        {
          "indexed": true,
          "internalType": "uint256",
          "name": "oldRewardTokensPerBlock",
          "type": "uint256"
        },
        {
          "indexed": true,
          "internalType": "uint256",
          "name": "newRewardTokensPerBlock",
          "type": "uint256"
        }
      ],
      "name": "ChangedRewardTokensPerBlock",
      "type": "event"
    },
    {
      "anonymous": false,
      "inputs": [
        {
          "indexed": true,
          "internalType": "address",
          "name": "user",
          "type": "address"
        },
        {
          "indexed": true,
          "internalType": "uint256",
          "name": "pid",
          "type": "uint256"
        },
        {
          "indexed": false,
          "internalType": "uint256",
          "name": "amount",
          "type": "uint256"
        }
      ],
      "name": "Deposit",
      "type": "event"
    },
    {
      "anonymous": false,
      "inputs": [
        {
          "indexed": true,
          "internalType": "address",
          "name": "user",
          "type": "address"
        },
        {
          "indexed": true,
          "internalType": "uint256",
          "name": "pid",
          "type": "uint256"
        },
        {
          "indexed": false,
          "internalType": "uint256",
          "name": "amount",
          "type": "uint256"
        }
      ],
      "name": "EmergencyWithdraw",
      "type": "event"
    },
    {
      "anonymous": false,
      "inputs": [
        {
          "indexed": true,
          "internalType": "uint256",
          "name": "pid",
          "type": "uint256"
        },
        {
          "indexed": true,
          "internalType": "address",
          "name": "token",
          "type": "address"
        },
        {
          "indexed": false,
          "internalType": "uint256",
          "name": "allocPoints",
          "type": "uint256"
        },
        {
          "indexed": false,
          "internalType": "uint256",
          "name": "totalAllocPoints",
          "type": "uint256"
        },
        {
          "indexed": false,
          "internalType": "uint256",
          "name": "rewardStartBlock",
          "type": "uint256"
        },
        {
          "indexed": false,
          "internalType": "uint256",
          "name": "sushiPid",
          "type": "uint256"
        },
        {
          "indexed": false,
          "internalType": "bool",
          "name": "vpForDeposit",
          "type": "bool"
        },
        {
          "indexed": false,
          "internalType": "bool",
          "name": "vpForVesting",
          "type": "bool"
        }
      ],
      "name": "PoolAdded",
      "type": "event"
    },
    {
      "anonymous": false,
      "inputs": [
        {
          "indexed": true,
          "internalType": "uint256",
          "name": "pid",
          "type": "uint256"
        },
        {
          "indexed": false,
          "internalType": "uint256",
          "name": "oldAllocPoints",
          "type": "uint256"
        },
        {
          "indexed": false,
          "internalType": "uint256",
          "name": "newAllocPoints",
          "type": "uint256"
        },
        {
          "indexed": false,
          "internalType": "uint256",
          "name": "newTotalAllocPoints",
          "type": "uint256"
        }
      ],
      "name": "PoolUpdated",
      "type": "event"
    },
    {
      "anonymous": false,
      "inputs": [
        {
          "indexed": true,
          "internalType": "uint256",
          "name": "startBlock",
          "type": "uint256"
        }
      ],
      "name": "SetRewardsStartBlock",
      "type": "event"
    },
    {
      "anonymous": false,
      "inputs": [
        {
          "indexed": true,
          "internalType": "address",
          "name": "user",
          "type": "address"
        },
        {
          "indexed": true,
          "internalType": "uint256",
          "name": "pid",
          "type": "uint256"
        },
        {
          "indexed": false,
          "internalType": "uint256",
          "name": "amount",
          "type": "uint256"
        }
      ],
      "name": "Withdraw",
      "type": "event"
    },
    {
      "inputs": [
        {
          "internalType": "uint256",
          "name": "allocPoint",
          "type": "uint256"
        },
        {
          "internalType": "address",
          "name": "token",
          "type": "address"
        },
        {
          "internalType": "uint32",
          "name": "vestingPercent",
          "type": "uint32"
        },
        {
          "internalType": "uint16",
          "name": "vestingPeriod",
          "type": "uint16"
        },
        {
          "internalType": "uint16",
          "name": "vestingCliff",
          "type": "uint16"
        },
        {
          "internalType": "bool",
          "name": "withUpdate",
          "type": "bool"
        },
        {
          "internalType": "uint256",
          "name": "sushiPid",
          "type": "uint256"
        },
        {
          "internalType": "bool",
          "name": "vpForDeposit",
          "type": "bool"
        },
        {
          "internalType": "bool",
          "name": "vpForVesting",
          "type": "bool"
        }
      ],
      "name": "add",
      "outputs": [],
      "stateMutability": "nonpayable",
      "type": "function"
    },
    {
      "inputs": [
        {
          "internalType": "address",
          "name": "newOwner",
          "type": "address"
        }
      ],
      "name": "changeOwner",
      "outputs": [],
      "stateMutability": "nonpayable",
      "type": "function"
    },
    {
      "inputs": [
        {
          "internalType": "uint256",
          "name": "pid",
          "type": "uint256"
        },
        {
          "internalType": "uint256",
          "name": "amount",
          "type": "uint256"
        }
      ],
      "name": "deposit",
      "outputs": [],
      "stateMutability": "nonpayable",
      "type": "function"
    },
    {
      "inputs": [
        {
          "internalType": "uint256",
          "name": "pid",
          "type": "uint256"
        },
        {
          "internalType": "uint256",
          "name": "amount",
          "type": "uint256"
        },
        {
          "internalType": "uint256",
          "name": "deadline",
          "type": "uint256"
        },
        {
          "internalType": "uint8",
          "name": "v",
          "type": "uint8"
        },
        {
          "internalType": "bytes32",
          "name": "r",
          "type": "bytes32"
        },
        {
          "internalType": "bytes32",
          "name": "s",
          "type": "bytes32"
        }
      ],
      "name": "depositWithPermit",
      "outputs": [],
      "stateMutability": "nonpayable",
      "type": "function"
    },
    {
      "inputs": [
        {
          "internalType": "uint256",
          "name": "pid",
          "type": "uint256"
        }
      ],
      "name": "emergencyWithdraw",
      "outputs": [],
      "stateMutability": "nonpayable",
      "type": "function"
    },
    {
      "inputs": [
        {
          "internalType": "uint256",
          "name": "from",
          "type": "uint256"
        },
        {
          "internalType": "uint256",
          "name": "to",
          "type": "uint256"
        }
      ],
      "name": "getMultiplier",
      "outputs": [
        {
          "internalType": "uint256",
          "name": "",
          "type": "uint256"
        }
      ],
      "stateMutability": "pure",
      "type": "function"
    },
    {
      "inputs": [],
      "name": "lockManager",
      "outputs": [
        {
          "internalType": "contract ILockManager",
          "name": "",
          "type": "address"
        }
      ],
      "stateMutability": "view",
      "type": "function"
    },
    {
      "inputs": [],
      "name": "massUpdatePools",
      "outputs": [],
      "stateMutability": "nonpayable",
      "type": "function"
    },
    {
      "inputs": [],
      "name": "masterChef",
      "outputs": [
        {
          "internalType": "contract IMasterChef",
          "name": "",
          "type": "address"
        }
      ],
      "stateMutability": "view",
      "type": "function"
    },
    {
      "inputs": [],
      "name": "owner",
      "outputs": [
        {
          "internalType": "address",
          "name": "",
          "type": "address"
        }
      ],
      "stateMutability": "view",
      "type": "function"
    },
    {
      "inputs": [
        {
          "internalType": "uint256",
          "name": "pid",
          "type": "uint256"
        },
        {
          "internalType": "address",
          "name": "account",
          "type": "address"
        }
      ],
      "name": "pendingRewardTokens",
      "outputs": [
        {
          "internalType": "uint256",
          "name": "",
          "type": "uint256"
        }
      ],
      "stateMutability": "view",
      "type": "function"
    },
    {
      "inputs": [
        {
          "internalType": "uint256",
          "name": "pid",
          "type": "uint256"
        },
        {
          "internalType": "address",
          "name": "account",
          "type": "address"
        }
      ],
      "name": "pendingSushi",
      "outputs": [
        {
          "internalType": "uint256",
          "name": "",
          "type": "uint256"
        }
      ],
      "stateMutability": "view",
      "type": "function"
    },
    {
      "inputs": [
        {
          "internalType": "uint256",
          "name": "",
          "type": "uint256"
        }
      ],
      "name": "poolInfo",
      "outputs": [
        {
          "internalType": "contract IERC20Extended",
          "name": "token",
          "type": "address"
        },
        {
          "internalType": "uint256",
          "name": "allocPoint",
          "type": "uint256"
        },
        {
          "internalType": "uint256",
          "name": "lastRewardBlock",
          "type": "uint256"
        },
        {
          "internalType": "uint256",
          "name": "accRewardsPerShare",
          "type": "uint256"
        },
        {
          "internalType": "uint32",
          "name": "vestingPercent",
          "type": "uint32"
        },
        {
          "internalType": "uint16",
          "name": "vestingPeriod",
          "type": "uint16"
        },
        {
          "internalType": "uint16",
          "name": "vestingCliff",
          "type": "uint16"
        },
        {
          "internalType": "uint256",
          "name": "totalStaked",
          "type": "uint256"
        },
        {
          "internalType": "bool",
          "name": "vpForDeposit",
          "type": "bool"
        },
        {
          "internalType": "bool",
          "name": "vpForVesting",
          "type": "bool"
        }
      ],
      "stateMutability": "view",
      "type": "function"
    },
    {
      "inputs": [],
      "name": "poolLength",
      "outputs": [
        {
          "internalType": "uint256",
          "name": "",
          "type": "uint256"
        }
      ],
      "stateMutability": "view",
      "type": "function"
    },
    {
      "inputs": [
        {
          "internalType": "address[]",
          "name": "tokens",
          "type": "address[]"
        },
        {
          "internalType": "uint256[]",
          "name": "amounts",
          "type": "uint256[]"
        },
        {
          "internalType": "address",
          "name": "receiver",
          "type": "address"
        }
      ],
      "name": "rescueTokens",
      "outputs": [],
      "stateMutability": "nonpayable",
      "type": "function"
    },
    {
      "inputs": [],
      "name": "rewardToken",
      "outputs": [
        {
          "internalType": "contract IERC20Extended",
          "name": "",
          "type": "address"
        }
      ],
      "stateMutability": "view",
      "type": "function"
    },
    {
      "inputs": [],
      "name": "rewardTokensPerBlock",
      "outputs": [
        {
          "internalType": "uint256",
          "name": "",
          "type": "uint256"
        }
      ],
      "stateMutability": "view",
      "type": "function"
    },
    {
      "inputs": [],
      "name": "rewardsActive",
      "outputs": [
        {
          "internalType": "bool",
          "name": "",
          "type": "bool"
        }
      ],
      "stateMutability": "view",
      "type": "function"
    },
    {
      "inputs": [
        {
          "internalType": "uint256",
          "name": "pid",
          "type": "uint256"
        },
        {
          "internalType": "uint256",
          "name": "allocPoint",
          "type": "uint256"
        },
        {
          "internalType": "bool",
          "name": "withUpdate",
          "type": "bool"
        }
      ],
      "name": "set",
      "outputs": [],
      "stateMutability": "nonpayable",
      "type": "function"
    },
    {
      "inputs": [
        {
          "internalType": "address",
          "name": "newAddress",
          "type": "address"
        }
      ],
      "name": "setLockManager",
      "outputs": [],
      "stateMutability": "nonpayable",
      "type": "function"
    },
    {
      "inputs": [
        {
          "internalType": "address",
          "name": "newAddress",
          "type": "address"
        }
      ],
      "name": "setMasterChef",
      "outputs": [],
      "stateMutability": "nonpayable",
      "type": "function"
    },
    {
      "inputs": [
        {
          "internalType": "uint256",
          "name": "newRewardTokensPerBlock",
          "type": "uint256"
        }
      ],
      "name": "setRewardsPerBlock",
      "outputs": [],
      "stateMutability": "nonpayable",
      "type": "function"
    },
    {
      "inputs": [
        {
          "internalType": "address",
          "name": "newToken",
          "type": "address"
        }
      ],
      "name": "setSushiToken",
      "outputs": [],
      "stateMutability": "nonpayable",
      "type": "function"
    },
    {
      "inputs": [
        {
          "internalType": "address",
          "name": "newAddress",
          "type": "address"
        }
      ],
      "name": "setVault",
      "outputs": [],
      "stateMutability": "nonpayable",
      "type": "function"
    },
    {
      "inputs": [],
      "name": "startBlock",
      "outputs": [
        {
          "internalType": "uint256",
          "name": "",
          "type": "uint256"
        }
      ],
      "stateMutability": "view",
      "type": "function"
    },
    {
      "inputs": [
        {
          "internalType": "address",
          "name": "",
          "type": "address"
        }
      ],
      "name": "sushiPools",
      "outputs": [
        {
          "internalType": "uint256",
          "name": "",
          "type": "uint256"
        }
      ],
      "stateMutability": "view",
      "type": "function"
    },
    {
      "inputs": [],
      "name": "sushiToken",
      "outputs": [
        {
          "internalType": "contract IERC20Extended",
          "name": "",
          "type": "address"
        }
      ],
      "stateMutability": "view",
      "type": "function"
    },
    {
      "inputs": [
        {
          "internalType": "address[]",
          "name": "tokensToApprove",
          "type": "address[]"
        },
        {
          "internalType": "uint256[]",
          "name": "approvalAmounts",
          "type": "uint256[]"
        },
        {
          "internalType": "address",
          "name": "spender",
          "type": "address"
        }
      ],
      "name": "tokenAllow",
      "outputs": [],
      "stateMutability": "nonpayable",
      "type": "function"
    },
    {
      "inputs": [],
      "name": "totalAllocPoint",
      "outputs": [
        {
          "internalType": "uint256",
          "name": "",
          "type": "uint256"
        }
      ],
      "stateMutability": "view",
      "type": "function"
    },
    {
      "inputs": [
        {
          "internalType": "uint256",
          "name": "pid",
          "type": "uint256"
        }
      ],
      "name": "updatePool",
      "outputs": [],
      "stateMutability": "nonpayable",
      "type": "function"
    },
    {
      "inputs": [
        {
          "internalType": "uint256",
          "name": "",
          "type": "uint256"
        },
        {
          "internalType": "address",
          "name": "",
          "type": "address"
        }
      ],
      "name": "userInfo",
      "outputs": [
        {
          "internalType": "uint256",
          "name": "amount",
          "type": "uint256"
        },
        {
          "internalType": "uint256",
          "name": "rewardTokenDebt",
          "type": "uint256"
        },
        {
          "internalType": "uint256",
          "name": "sushiRewardDebt",
          "type": "uint256"
        }
      ],
      "stateMutability": "view",
      "type": "function"
    },
    {
      "inputs": [],
      "name": "vault",
      "outputs": [
        {
          "internalType": "contract IVault",
          "name": "",
          "type": "address"
        }
      ],
      "stateMutability": "view",
      "type": "function"
    },
    {
      "inputs": [
        {
          "internalType": "uint256",
          "name": "pid",
          "type": "uint256"
        },
        {
          "internalType": "uint256",
          "name": "amount",
          "type": "uint256"
        }
      ],
      "name": "withdraw",
      "outputs": [],
      "stateMutability": "nonpayable",
      "type": "function"
    }
  ],
  "transactionHash": "0xf5f6bfff34dc4f0518a6010cde772c0898b5e2da4257a2a0793099b0540dd5d1",
  "args": [
    "0x8F48fe27f68a86786fbBD5D38Ea53C2748B234B6",
    "0xdCE455355c2993C18ab5a34DfeE4525D66EAdAf5",
    "0x64b517250D9774939472675507Dad84D822C67e2",
    "0x1559FA1b8F28238FD5D76D9f434ad86FD20D1559",
    "0x6B3595068778DD592e39A122f4f5a5cF09C90fE2",
    "0xc2EdaD668740f1aA35E4D8f227fB8E17dcA888Cd",
    "12949300",
    "44314875283446712018"
  ],
  "solcInputHash": "43cf21757cc219c1b24effd391603939",
  "bytecode": "0x60806040523480156200001157600080fd5b5060405162004acd38038062004acd83398101604081905262000034916200065e565b6001600081815581546001600160a01b0319166001600160a01b038b169081179092556040517f2748503f8f31d8071821d1d5144384ba6a465036cda17fa1629a8a2509ccee0e908290a3600680546001600160a01b0319166001600160a01b0389169081179091556040516b2627a1a5afa6a0a720a3a2a960a11b8152600090600c016040519081900381209060008051602062004aad83398151915290600090a4600580546001600160a01b0319166001600160a01b038816908117825560405164159055531560da1b81529091600091016040519081900381209060008051602062004aad83398151915290600090a4600280546001600160a01b0319166001600160a01b0387169081179091556040516b2922aba0a9222faa27a5a2a760a11b8152600090600c016040519081900381209060008051602062004aad83398151915290600090a4600380546001600160a01b0319166001600160a01b0386169081179091556040516a29aaa9a424afaa27a5a2a760a91b8152600090600b016040519081900381209060008051602062004aad83398151915290600090a4600480546001600160a01b0319166001600160a01b0385169081179091556040516a26a0a9aa22a92fa1a422a360a91b8152600090600b016040519081900381209060008051602062004aad83398151915290600090a481156200023b57816200023d565b435b600c8190556040517f1b190b90c41faf64e3c69c95576c9ab1ad9fdbd9f620f05d271ab76202a56bd390600090a2600781905560405181906000907f946161e5739a4430df1991fae9a81c63724a1971bf00a784a024333d7a7489eb908290a3600554600254620002ca916001600160a01b039182169116600019620002d8602090811b620026c617901c565b5050505050505050620007da565b604051636eb1769f60e11b81523060048201526001600160a01b038381166024830152600091839186169063dd62ed3e9060440160206040518083038186803b1580156200032557600080fd5b505afa1580156200033a573d6000803e3d6000fd5b505050506040513d601f19601f8201168201806040525081019062000360919062000717565b6200036c919062000784565b604080516001600160a01b038616602482015260448082018490528251808303909101815260649091019091526020810180516001600160e01b0390811663095ea7b360e01b17909152919250620003c891869190620003ce16565b50505050565b60006200042a826040518060400160405280602081526020017f5361666545524332303a206c6f772d6c6576656c2063616c6c206661696c6564815250856001600160a01b0316620004b560201b62002851179092919060201c565b805190915015620004b057808060200190518101906200044b9190620006f3565b620004b05760405162461bcd60e51b815260206004820152602a60248201527f5361666545524332303a204552433230206f7065726174696f6e20646964206e6044820152691bdd081cdd58d8d9595960b21b60648201526084015b60405180910390fd5b505050565b6060620004c68484600085620004d0565b90505b9392505050565b606082471015620005335760405162461bcd60e51b815260206004820152602660248201527f416464726573733a20696e73756666696369656e742062616c616e636520666f6044820152651c8818d85b1b60d21b6064820152608401620004a7565b843b620005835760405162461bcd60e51b815260206004820152601d60248201527f416464726573733a2063616c6c20746f206e6f6e2d636f6e74726163740000006044820152606401620004a7565b600080866001600160a01b03168587604051620005a1919062000731565b60006040518083038185875af1925050503d8060008114620005e0576040519150601f19603f3d011682016040523d82523d6000602084013e620005e5565b606091505b509092509050620005f882828662000603565b979650505050505050565b6060831562000614575081620004c9565b825115620006255782518084602001fd5b8160405162461bcd60e51b8152600401620004a791906200074f565b80516001600160a01b03811681146200065957600080fd5b919050565b600080600080600080600080610100898b0312156200067c57600080fd5b620006878962000641565b97506200069760208a0162000641565b9650620006a760408a0162000641565b9550620006b760608a0162000641565b9450620006c760808a0162000641565b9350620006d760a08a0162000641565b60c08a015160e0909a0151989b979a5095989497939692505050565b6000602082840312156200070657600080fd5b81518015158114620004c957600080fd5b6000602082840312156200072a57600080fd5b5051919050565b6000825162000745818460208701620007ab565b9190910192915050565b602081526000825180602084015262000770816040850160208701620007ab565b601f01601f19169190910160400192915050565b60008219821115620007a657634e487b7160e01b600052601160045260246000fd5b500190565b60005b83811015620007c8578181015183820152602001620007ae565b83811115620003c85750506000910152565b6142c380620007ea6000396000f3fe608060405234801561001057600080fd5b506004361061020b5760003560e01c80636817031b1161012a578063a519121a116100bd578063deedfdbd1161008c578063e2bbb15811610071578063e2bbb15814610545578063f7c618c114610558578063fbfa77cf1461057857600080fd5b8063deedfdbd1461051f578063e1ea3dee1461053257600080fd5b8063a519121a146104b4578063a6f9dae1146104cc578063acca30a2146104df578063d4614c63146104ff57600080fd5b80638dbb1e3a116100f95780638dbb1e3a1461042657806393f1a40b14610439578063a1003b291461048e578063a2d9f4dc146104a157600080fd5b80636817031b146103c057806369af90b9146103d357806379f645f0146103f35780638da5cb5b1461040657600080fd5b806348cd4cb1116101a25780635312ea8e116101715780635312ea8e1461034d578063575a86b214610360578063630b5ba1146103a557806364482f79146103ad57600080fd5b806348cd4cb11461030b5780634cb5969814610314578063515bc3231461032757806351eb05a61461033a57600080fd5b8063195426ec116101de578063195426ec146102c957806329d0fa3e146102dc5780633bb82023146102e5578063441a3e70146102f857600080fd5b8063081e3eda146102105780631526fe271461022757806317caf6f1146102ab578063186bbe22146102b4575b600080fd5b6008545b6040519081526020015b60405180910390f35b61023a610235366004613e1f565b610598565b6040805173ffffffffffffffffffffffffffffffffffffffff909b168b5260208b019990995297890196909652606088019490945263ffffffff909216608087015261ffff90811660a08701521660c085015260e0840152151561010083015215156101208201526101400161021e565b610214600b5481565b6102c76102c2366004613c36565b61062b565b005b6102146102d7366004613e51565b610aac565b61021460075481565b6102146102f3366004613e51565b610f44565b6102c7610306366004613f30565b61107f565b610214600c5481565b6102c7610322366004613e81565b6111ac565b6102c7610335366004613f8b565b611555565b6102c7610348366004613e1f565b6116cf565b6102c761035b366004613e1f565b611796565b6004546103809073ffffffffffffffffffffffffffffffffffffffff1681565b60405173ffffffffffffffffffffffffffffffffffffffff909116815260200161021e565b6102c7611a5d565b6102c76103bb366004613f52565b611a86565b6102c76103ce366004613c19565b611bf9565b6102146103e1366004613c19565b60096020526000908152604090205481565b6102c7610401366004613cba565b611d38565b6001546103809073ffffffffffffffffffffffffffffffffffffffff1681565b610214610434366004613f30565b611f7b565b610473610447366004613e51565b600a60209081526000928352604080842090915290825290208054600182015460029092015490919083565b6040805193845260208401929092529082015260600161021e565b6102c761049c366004613e1f565b611f9c565b6102c76104af366004613c19565b612051565b6104bc612190565b604051901515815260200161021e565b6102c76104da366004613c19565b6121b6565b6006546103809073ffffffffffffffffffffffffffffffffffffffff1681565b6003546103809073ffffffffffffffffffffffffffffffffffffffff1681565b6102c761052d366004613c19565b61238c565b6102c7610540366004613c19565b6124cb565b6102c7610553366004613f30565b61260a565b6002546103809073ffffffffffffffffffffffffffffffffffffffff1681565b6005546103809073ffffffffffffffffffffffffffffffffffffffff1681565b600881815481106105a857600080fd5b6000918252602090912060079091020180546001820154600283015460038401546004850154600586015460069096015473ffffffffffffffffffffffffffffffffffffffff909516965092949193909263ffffffff81169261ffff64010000000083048116936601000000000000909304169160ff808216916101009004168a565b60015473ffffffffffffffffffffffffffffffffffffffff1633146106b1576040517f08c379a000000000000000000000000000000000000000000000000000000000815260206004820152600960248201527f6e6f74206f776e6572000000000000000000000000000000000000000000000060448201526064015b60405180910390fd5b838214610740576040517f08c379a000000000000000000000000000000000000000000000000000000000815260206004820152602160248201527f524d3a3a726573637565546f6b656e733a206e6f742073616d65206c656e677460448201527f680000000000000000000000000000000000000000000000000000000000000060648201526084016106a8565b60005b84811015610aa457600086868381811061075f5761075f6141ff565b90506020020160208101906107749190613c19565b6040517f70a08231000000000000000000000000000000000000000000000000000000008152306004820152909150600090819073ffffffffffffffffffffffffffffffffffffffff8416906370a082319060240160206040518083038186803b1580156107e157600080fd5b505afa1580156107f5573d6000803e3d6000fd5b505050506040513d601f19601f820116820180604052508101906108199190613e38565b6040517fdd62ed3e00000000000000000000000000000000000000000000000000000000815230600482015273ffffffffffffffffffffffffffffffffffffffff878116602483015291925060009185169063dd62ed3e9060440160206040518083038186803b15801561088c57600080fd5b505afa1580156108a0573d6000803e3d6000fd5b505050506040513d601f19601f820116820180604052508101906108c49190613e38565b90508787868181106108d8576108d86141ff565b90506020020135600014156108ff57808211156108f757809250610a6b565b819250610a6b565b878786818110610911576109116141ff565b905060200201358210156109a7576040517f08c379a000000000000000000000000000000000000000000000000000000000815260206004820152602a60248201527f524d3a3a726573637565546f6b656e733a20636f6e74726163742062616c616e60448201527f636520746f6f206c6f770000000000000000000000000000000000000000000060648201526084016106a8565b8787868181106109b9576109b96141ff565b90506020020135811015610a4f576040517f08c379a000000000000000000000000000000000000000000000000000000000815260206004820152602a60248201527f524d3a3a726573637565546f6b656e733a20696e63726561736520746f6b656e60448201527f20616c6c6f77616e63650000000000000000000000000000000000000000000060648201526084016106a8565b878786818110610a6157610a616141ff565b9050602002013592505b610a8d73ffffffffffffffffffffffffffffffffffffffff8516308886612868565b505050508080610a9c90614197565b915050610743565b505050505050565b60008060088481548110610ac257610ac26141ff565b60009182526020808320878452600a8252604080852073ffffffffffffffffffffffffffffffffffffffff808a16875290845281862060079095029092018054909216855260099092529220549192509080610b245760009350505050610f3e565b600480546040517f1526fe2700000000000000000000000000000000000000000000000000000000815291820183905260009173ffffffffffffffffffffffffffffffffffffffff90911690631526fe279060240160806040518083038186803b158015610b9157600080fd5b505afa158015610ba5573d6000803e3d6000fd5b505050506040513d601f19601f82011682018060405250810190610bc99190613db0565b90506000600460009054906101000a900473ffffffffffffffffffffffffffffffffffffffff1673ffffffffffffffffffffffffffffffffffffffff1663b0bcf42a6040518163ffffffff1660e01b815260040160206040518083038186803b158015610c3557600080fd5b505afa158015610c49573d6000803e3d6000fd5b505050506040513d601f19601f82011682018060405250810190610c6d9190613e38565b90506000600460009054906101000a900473ffffffffffffffffffffffffffffffffffffffff1673ffffffffffffffffffffffffffffffffffffffff166317caf6f16040518163ffffffff1660e01b815260040160206040518083038186803b158015610cd957600080fd5b505afa158015610ced573d6000803e3d6000fd5b505050506040513d601f19601f82011682018060405250810190610d119190613e38565b60608401518451600480546040517f70a0823100000000000000000000000000000000000000000000000000000000815273ffffffffffffffffffffffffffffffffffffffff9182169281019290925293945091926000929116906370a082319060240160206040518083038186803b158015610d8d57600080fd5b505afa158015610da1573d6000803e3d6000fd5b505050506040513d601f19601f82011682018060405250810190610dc59190613e38565b9050846040015143118015610dd957508015155b15610ee1576004805460408781015190517f8dbb1e3a0000000000000000000000000000000000000000000000000000000081529283015243602483015260009173ffffffffffffffffffffffffffffffffffffffff90911690638dbb1e3a9060440160206040518083038186803b158015610e5457600080fd5b505afa158015610e68573d6000803e3d6000fd5b505050506040513d601f19601f82011682018060405250810190610e8c9190613e38565b905060008487602001518784610ea29190614117565b610eac9190614117565b610eb691906140dc565b905082610ec88264e8d4a51000614117565b610ed291906140dc565b610edc90856140c4565b935050505b600064e8d4a51000838960000154610ef99190614117565b610f0391906140dc565b90508760020154811015610f235760009950505050505050505050610f3e565b6002880154610f329082614154565b99505050505050505050505b92915050565b60008060088481548110610f5a57610f5a6141ff565b60009182526020808320878452600a8252604080852073ffffffffffffffffffffffffffffffffffffffff891686529092529220600360079092029092019081015460058201546002830154929450909143118015610fb857508015155b15611026576000610fcd856002015443611f7b565b90506000600b54866001015460075484610fe79190614117565b610ff19190614117565b610ffb91906140dc565b90508261100d8264e8d4a51000614117565b61101791906140dc565b61102190856140c4565b935050505b600064e8d4a5100083856000015461103e9190614117565b61104891906140dc565b9050836001015481101561106457600095505050505050610f3e565b60018401546110739082614154565b98975050505050505050565b600260005414156110ec576040517f08c379a000000000000000000000000000000000000000000000000000000000815260206004820152601f60248201527f5265656e7472616e637947756172643a207265656e7472616e742063616c6c0060448201526064016106a8565b600260005580611158576040517f08c379a000000000000000000000000000000000000000000000000000000000815260206004820181905260248201527f524d3a3a77697468647261773a20616d6f756e74206d757374206265203e203060448201526064016106a8565b60006008838154811061116d5761116d6141ff565b60009182526020808320868452600a825260408085203386529092529220600790910290910191506111a1848484846128c6565b505060016000555050565b60015473ffffffffffffffffffffffffffffffffffffffff16331461122d576040517f08c379a000000000000000000000000000000000000000000000000000000000815260206004820152600960248201527f6e6f74206f776e6572000000000000000000000000000000000000000000000060448201526064016106a8565b831561123b5761123b611a5d565b6000600c54431161124e57600c54611250565b435b905089600b5461126091906140c4565b600b8190555060086040518061014001604052808b73ffffffffffffffffffffffffffffffffffffffff1681526020018c8152602001838152602001600081526020018a63ffffffff1681526020018961ffff1681526020018861ffff168152602001600081526020018515158152602001841515815250908060018154018082558091505060019003906000526020600020906007020160009091909190915060008201518160000160006101000a81548173ffffffffffffffffffffffffffffffffffffffff021916908373ffffffffffffffffffffffffffffffffffffffff16021790555060208201518160010155604082015181600201556060820151816003015560808201518160040160006101000a81548163ffffffff021916908363ffffffff16021790555060a08201518160040160046101000a81548161ffff021916908361ffff16021790555060c08201518160040160066101000a81548161ffff021916908361ffff16021790555060e082015181600501556101008201518160060160006101000a81548160ff0219169083151502179055506101208201518160060160016101000a81548160ff0219169083151502179055505050600084146114805773ffffffffffffffffffffffffffffffffffffffff808a16600081815260096020526040902086905560045461148092167fffffffffffffffffffffffffffffffffffffffffffffffffffffffffffffffff6126c6565b6005546114c79073ffffffffffffffffffffffffffffffffffffffff8b811691167fffffffffffffffffffffffffffffffffffffffffffffffffffffffffffffffff6126c6565b60085473ffffffffffffffffffffffffffffffffffffffff8a16906114ee90600190614154565b600b54604080518e81526020810192909252810184905260608101879052851515608082015284151560a08201527fcd9dd3b9c8ad5dc0bb8a3af1af7ead00b197d8341021a209fb64b736abe815b19060c00160405180910390a350505050505050505050565b600260005414156115c2576040517f08c379a000000000000000000000000000000000000000000000000000000000815260206004820152601f60248201527f5265656e7472616e637947756172643a207265656e7472616e742063616c6c0060448201526064016106a8565b6002600090815560088054889081106115dd576115dd6141ff565b600091825260208083208a8452600a825260408085203380875293529384902060079390930201805493517fd505accf0000000000000000000000000000000000000000000000000000000081526004810192909252306024830152604482018a90526064820189905260ff8816608483015260a4820187905260c482018690529350909173ffffffffffffffffffffffffffffffffffffffff169063d505accf9060e401600060405180830381600087803b15801561169c57600080fd5b505af11580156116b0573d6000803e3d6000fd5b505050506116c088888484612e47565b50506001600055505050505050565b6000600882815481106116e4576116e46141ff565b9060005260206000209060070201905080600201544311611703575050565b60058101548061171857504360029091015550565b6000611728836002015443611f7b565b90506000600b548460010154600754846117429190614117565b61174c9190614117565b61175691906140dc565b9050826117688264e8d4a51000614117565b61177291906140dc565b846003015461178191906140c4565b60038501555050436002909201919091555050565b60026000541415611803576040517f08c379a000000000000000000000000000000000000000000000000000000000815260206004820152601f60248201527f5265656e7472616e637947756172643a207265656e7472616e742063616c6c0060448201526064016106a8565b60026000908155600880548390811061181e5761181e6141ff565b60009182526020808320858452600a82526040808520338652909252922080546007909202909201925015611a5357815473ffffffffffffffffffffffffffffffffffffffff166000908152600960205260409020548015611904576004805483546040517f441a3e70000000000000000000000000000000000000000000000000000000008152928301849052602483015273ffffffffffffffffffffffffffffffffffffffff169063441a3e7090604401600060405180830381600087803b1580156118eb57600080fd5b505af11580156118ff573d6000803e3d6000fd5b505050505b600683015460ff16156119c957600654835483546040517fbc3e1b7a00000000000000000000000000000000000000000000000000000000815233600482015273ffffffffffffffffffffffffffffffffffffffff9283166024820152604481019190915291169063bc3e1b7a90606401602060405180830381600087803b15801561198f57600080fd5b505af11580156119a3573d6000803e3d6000fd5b505050506040513d601f19601f820116820180604052508101906119c79190613e38565b505b815460058401546119da9190614154565b600584015581548354611a079173ffffffffffffffffffffffffffffffffffffffff9091169033906133b7565b8154604051908152849033907fbb757047c2b5f3974fe26b7c10f732e7bce710b0952a71082702781e62ae05959060200160405180910390a35060008082556001820181905560028201555b5050600160005550565b60005b600854811015611a8357611a73816116cf565b611a7c81614197565b9050611a60565b50565b60015473ffffffffffffffffffffffffffffffffffffffff163314611b07576040517f08c379a000000000000000000000000000000000000000000000000000000000815260206004820152600960248201527f6e6f74206f776e6572000000000000000000000000000000000000000000000060448201526064016106a8565b8015611b1557611b15611a5d565b8160088481548110611b2957611b296141ff565b906000526020600020906007020160010154600b54611b489190614154565b611b5291906140c4565b600b81905550827fb0a2ded49817748754bcca0474b24011f01d4574dd5c40e14197ffa2e6540fef60088581548110611b8d57611b8d6141ff565b90600052602060002090600702016001015484600b54604051611bc3939291909283526020830191909152604082015260600190565b60405180910390a28160088481548110611bdf57611bdf6141ff565b906000526020600020906007020160010181905550505050565b60015473ffffffffffffffffffffffffffffffffffffffff163314611c7a576040517f08c379a000000000000000000000000000000000000000000000000000000000815260206004820152600960248201527f6e6f74206f776e6572000000000000000000000000000000000000000000000060448201526064016106a8565b600580546040517f5641554c54000000000000000000000000000000000000000000000000000000815273ffffffffffffffffffffffffffffffffffffffff8481169392169101604051908190038120907f629c91fc9de3db5e699d8bad8523995c8e14e7f52fb91b49725e6625f2ea45f490600090a4600580547fffffffffffffffffffffffff00000000000000000000000000000000000000001673ffffffffffffffffffffffffffffffffffffffff92909216919091179055565b60015473ffffffffffffffffffffffffffffffffffffffff163314611db9576040517f08c379a000000000000000000000000000000000000000000000000000000000815260206004820152600960248201527f6e6f74206f776e6572000000000000000000000000000000000000000000000060448201526064016106a8565b8151835114611e24576040517f08c379a000000000000000000000000000000000000000000000000000000000815260206004820152601f60248201527f524d3a3a746f6b656e416c6c6f773a206e6f742073616d65206c656e6774680060448201526064016106a8565b60005b8351811015611f75576000848281518110611e4457611e446141ff565b60209081029190910101516040517fdd62ed3e00000000000000000000000000000000000000000000000000000000815230600482015273ffffffffffffffffffffffffffffffffffffffff85811660248301529192507fffffffffffffffffffffffffffffffffffffffffffffffffffffffffffffffff9183169063dd62ed3e9060440160206040518083038186803b158015611ee157600080fd5b505afa158015611ef5573d6000803e3d6000fd5b505050506040513d601f19601f82011682018060405250810190611f199190613e38565b14611f6257611f6283858481518110611f3457611f346141ff565b60200260200101518373ffffffffffffffffffffffffffffffffffffffff166134129092919063ffffffff16565b5080611f6d81614197565b915050611e27565b50505050565b6000828211611f8b576000611f95565b611f958383614154565b9392505050565b60015473ffffffffffffffffffffffffffffffffffffffff16331461201d576040517f08c379a000000000000000000000000000000000000000000000000000000000815260206004820152600960248201527f6e6f74206f776e6572000000000000000000000000000000000000000000000060448201526064016106a8565b6007546040518291907f946161e5739a4430df1991fae9a81c63724a1971bf00a784a024333d7a7489eb90600090a3600755565b60015473ffffffffffffffffffffffffffffffffffffffff1633146120d2576040517f08c379a000000000000000000000000000000000000000000000000000000000815260206004820152600960248201527f6e6f74206f776e6572000000000000000000000000000000000000000000000060448201526064016106a8565b6004546040517f4d41535445525f43484546000000000000000000000000000000000000000000815273ffffffffffffffffffffffffffffffffffffffff838116921690600b01604051908190038120907f629c91fc9de3db5e699d8bad8523995c8e14e7f52fb91b49725e6625f2ea45f490600090a4600480547fffffffffffffffffffffffff00000000000000000000000000000000000000001673ffffffffffffffffffffffffffffffffffffffff92909216919091179055565b6000600c5443101580156121a657506000600b54115b6121b05750600090565b50600190565b60015473ffffffffffffffffffffffffffffffffffffffff163314612237576040517f08c379a000000000000000000000000000000000000000000000000000000000815260206004820152600960248201527f6e6f74206f776e6572000000000000000000000000000000000000000000000060448201526064016106a8565b73ffffffffffffffffffffffffffffffffffffffff811615801590612272575073ffffffffffffffffffffffffffffffffffffffff81163014155b6122fe576040517f08c379a000000000000000000000000000000000000000000000000000000000815260206004820152602260248201527f524d3a3a6368616e67654f776e65723a206e6f742076616c696420616464726560448201527f737300000000000000000000000000000000000000000000000000000000000060648201526084016106a8565b60015460405173ffffffffffffffffffffffffffffffffffffffff8084169216907f2748503f8f31d8071821d1d5144384ba6a465036cda17fa1629a8a2509ccee0e90600090a3600180547fffffffffffffffffffffffff00000000000000000000000000000000000000001673ffffffffffffffffffffffffffffffffffffffff92909216919091179055565b60015473ffffffffffffffffffffffffffffffffffffffff16331461240d576040517f08c379a000000000000000000000000000000000000000000000000000000000815260206004820152600960248201527f6e6f74206f776e6572000000000000000000000000000000000000000000000060448201526064016106a8565b6006546040517f4c4f434b5f4d414e414745520000000000000000000000000000000000000000815273ffffffffffffffffffffffffffffffffffffffff838116921690600c01604051908190038120907f629c91fc9de3db5e699d8bad8523995c8e14e7f52fb91b49725e6625f2ea45f490600090a4600680547fffffffffffffffffffffffff00000000000000000000000000000000000000001673ffffffffffffffffffffffffffffffffffffffff92909216919091179055565b60015473ffffffffffffffffffffffffffffffffffffffff16331461254c576040517f08c379a000000000000000000000000000000000000000000000000000000000815260206004820152600960248201527f6e6f74206f776e6572000000000000000000000000000000000000000000000060448201526064016106a8565b6003546040517f53555348495f544f4b454e000000000000000000000000000000000000000000815273ffffffffffffffffffffffffffffffffffffffff838116921690600b01604051908190038120907f629c91fc9de3db5e699d8bad8523995c8e14e7f52fb91b49725e6625f2ea45f490600090a4600380547fffffffffffffffffffffffff00000000000000000000000000000000000000001673ffffffffffffffffffffffffffffffffffffffff92909216919091179055565b60026000541415612677576040517f08c379a000000000000000000000000000000000000000000000000000000000815260206004820152601f60248201527f5265656e7472616e637947756172643a207265656e7472616e742063616c6c0060448201526064016106a8565b600260009081556008805484908110612692576126926141ff565b60009182526020808320868452600a825260408085203386529092529220600790910290910191506111a184848484612e47565b6040517fdd62ed3e00000000000000000000000000000000000000000000000000000000815230600482015273ffffffffffffffffffffffffffffffffffffffff8381166024830152600091839186169063dd62ed3e9060440160206040518083038186803b15801561273857600080fd5b505afa15801561274c573d6000803e3d6000fd5b505050506040513d601f19601f820116820180604052508101906127709190613e38565b61277a91906140c4565b60405173ffffffffffffffffffffffffffffffffffffffff8516602482015260448101829052909150611f759085907f095ea7b300000000000000000000000000000000000000000000000000000000906064015b604080517fffffffffffffffffffffffffffffffffffffffffffffffffffffffffffffffe08184030181529190526020810180517bffffffffffffffffffffffffffffffffffffffffffffffffffffffff167fffffffff00000000000000000000000000000000000000000000000000000000909316929092179091526135a3565b606061286084846000856136af565b949350505050565b60405173ffffffffffffffffffffffffffffffffffffffff80851660248301528316604482015260648101829052611f759085907f23b872dd00000000000000000000000000000000000000000000000000000000906084016127cf565b8054831115612956576040517f08c379a0000000000000000000000000000000000000000000000000000000008152602060048201526024808201527f524d3a3a5f77697468647261773a20616d6f756e74203e20757365722062616c60448201527f616e63650000000000000000000000000000000000000000000000000000000060648201526084016106a8565b61295f846116cf565b815473ffffffffffffffffffffffffffffffffffffffff166000908152600960205260409020548015612c5857600480546040517f51eb05a600000000000000000000000000000000000000000000000000000000815291820183905273ffffffffffffffffffffffffffffffffffffffff16906351eb05a690602401600060405180830381600087803b1580156129f657600080fd5b505af1158015612a0a573d6000803e3d6000fd5b505050506002820154600480546040517f1526fe270000000000000000000000000000000000000000000000000000000081529182018490526000929164e8d4a510009173ffffffffffffffffffffffffffffffffffffffff1690631526fe279060240160806040518083038186803b158015612a8657600080fd5b505afa158015612a9a573d6000803e3d6000fd5b505050506040513d601f19601f82011682018060405250810190612abe9190613db0565b606001518554612ace9190614117565b612ad891906140dc565b612ae29190614154565b600480546040517f441a3e7000000000000000000000000000000000000000000000000000000000815292935073ffffffffffffffffffffffffffffffffffffffff169163441a3e7091612b439186918a9101918252602082015260400190565b600060405180830381600087803b158015612b5d57600080fd5b505af1158015612b71573d6000803e3d6000fd5b5050600480546040517f1526fe2700000000000000000000000000000000000000000000000000000000815291820186905264e8d4a51000935073ffffffffffffffffffffffffffffffffffffffff169150631526fe279060240160806040518083038186803b158015612be457600080fd5b505afa158015612bf8573d6000803e3d6000fd5b505050506040513d601f19601f82011682018060405250810190612c1c9190613db0565b606001518454612c2d908890614154565b612c379190614117565b612c4191906140dc565b60028401558015612c5657612c56338261382f565b505b6000826001015464e8d4a5100085600301548560000154612c799190614117565b612c8391906140dc565b612c8d9190614154565b8354909150612c9d908690614154565b808455600385015464e8d4a5100091612cb69190614117565b612cc091906140dc565b60018401558015612d0d5760048401546006850154612d0d913391849163ffffffff81169161ffff640100000000830481169266010000000000009004169060ff61010090910416613923565b600684015460ff1615612dcf5760065484546040517fbc3e1b7a00000000000000000000000000000000000000000000000000000000815233600482015273ffffffffffffffffffffffffffffffffffffffff91821660248201526044810188905291169063bc3e1b7a90606401602060405180830381600087803b158015612d9557600080fd5b505af1158015612da9573d6000803e3d6000fd5b505050506040513d601f19601f82011682018060405250810190612dcd9190613e38565b505b848460050154612ddf9190614154565b60058501558354612e079073ffffffffffffffffffffffffffffffffffffffff1633876133b7565b604051858152869033907ff279e6a1f5e320cca91135676d9cb6e44ca8a08c0b88342bcdb1144f6511b568906020015b60405180910390a3505050505050565b612e50846116cf565b815473ffffffffffffffffffffffffffffffffffffffff1660009081526009602052604081205482549091901561305f576000836001015464e8d4a5100086600301548660000154612ea29190614117565b612eac91906140dc565b612eb69190614154565b90508015612f005760048501546006860154612f00913391849163ffffffff81169161ffff640100000000830481169266010000000000009004169060ff61010090910416613923565b821561305d57600480546040517f51eb05a600000000000000000000000000000000000000000000000000000000815291820185905273ffffffffffffffffffffffffffffffffffffffff16906351eb05a690602401600060405180830381600087803b158015612f7057600080fd5b505af1158015612f84573d6000803e3d6000fd5b505050506002840154600480546040517f1526fe2700000000000000000000000000000000000000000000000000000000815291820186905264e8d4a510009173ffffffffffffffffffffffffffffffffffffffff90911690631526fe279060240160806040518083038186803b158015612ffe57600080fd5b505afa158015613012573d6000803e3d6000fd5b505050506040513d601f19601f820116820180604052508101906130369190613db0565b6060015186546130469190614117565b61305091906140dc565b61305a9190614154565b91505b505b83546130839073ffffffffffffffffffffffffffffffffffffffff16333088612868565b84846005015461309391906140c4565b600585015582546130a59086906140c4565b808455600385015464e8d4a51000916130be9190614117565b6130c891906140dc565b600184015581156132a557600480546040517f51eb05a600000000000000000000000000000000000000000000000000000000815291820184905273ffffffffffffffffffffffffffffffffffffffff16906351eb05a690602401600060405180830381600087803b15801561313d57600080fd5b505af1158015613151573d6000803e3d6000fd5b5050600480546040517f1526fe2700000000000000000000000000000000000000000000000000000000815291820186905264e8d4a51000935073ffffffffffffffffffffffffffffffffffffffff169150631526fe279060240160806040518083038186803b1580156131c457600080fd5b505afa1580156131d8573d6000803e3d6000fd5b505050506040513d601f19601f820116820180604052508101906131fc9190613db0565b60600151845461320c9190614117565b61321691906140dc565b6002840155600480546040517fe2bbb1580000000000000000000000000000000000000000000000000000000081529182018490526024820187905273ffffffffffffffffffffffffffffffffffffffff169063e2bbb15890604401600060405180830381600087803b15801561328c57600080fd5b505af11580156132a0573d6000803e3d6000fd5b505050505b6000851180156132b95750600684015460ff165b156133735760065484546040517fbc61256e00000000000000000000000000000000000000000000000000000000815233600482015273ffffffffffffffffffffffffffffffffffffffff91821660248201526044810188905291169063bc61256e90606401602060405180830381600087803b15801561333957600080fd5b505af115801561334d573d6000803e3d6000fd5b505050506040513d601f19601f820116820180604052508101906133719190613e38565b505b801561338357613383338261382f565b604051858152869033907f90890809c654f11d6e72a28fa60149770a0d11ec6c92319d6ceb2bb0a4ea1a1590602001612e37565b60405173ffffffffffffffffffffffffffffffffffffffff831660248201526044810182905261340d9084907fa9059cbb00000000000000000000000000000000000000000000000000000000906064016127cf565b505050565b8015806134c157506040517fdd62ed3e00000000000000000000000000000000000000000000000000000000815230600482015273ffffffffffffffffffffffffffffffffffffffff838116602483015284169063dd62ed3e9060440160206040518083038186803b15801561348757600080fd5b505afa15801561349b573d6000803e3d6000fd5b505050506040513d601f19601f820116820180604052508101906134bf9190613e38565b155b61354d576040517f08c379a000000000000000000000000000000000000000000000000000000000815260206004820152603660248201527f5361666545524332303a20617070726f76652066726f6d206e6f6e2d7a65726f60448201527f20746f206e6f6e2d7a65726f20616c6c6f77616e63650000000000000000000060648201526084016106a8565b60405173ffffffffffffffffffffffffffffffffffffffff831660248201526044810182905261340d9084907f095ea7b300000000000000000000000000000000000000000000000000000000906064016127cf565b6000613605826040518060400160405280602081526020017f5361666545524332303a206c6f772d6c6576656c2063616c6c206661696c65648152508573ffffffffffffffffffffffffffffffffffffffff166128519092919063ffffffff16565b80519091501561340d57808060200190518101906136239190613d93565b61340d576040517f08c379a000000000000000000000000000000000000000000000000000000000815260206004820152602a60248201527f5361666545524332303a204552433230206f7065726174696f6e20646964206e60448201527f6f7420737563636565640000000000000000000000000000000000000000000060648201526084016106a8565b606082471015613741576040517f08c379a000000000000000000000000000000000000000000000000000000000815260206004820152602660248201527f416464726573733a20696e73756666696369656e742062616c616e636520666f60448201527f722063616c6c000000000000000000000000000000000000000000000000000060648201526084016106a8565b843b6137a9576040517f08c379a000000000000000000000000000000000000000000000000000000000815260206004820152601d60248201527f416464726573733a2063616c6c20746f206e6f6e2d636f6e747261637400000060448201526064016106a8565b6000808673ffffffffffffffffffffffffffffffffffffffff1685876040516137d29190613fe4565b60006040518083038185875af1925050503d806000811461380f576040519150601f19603f3d011682016040523d82523d6000602084013e613814565b606091505b5091509150613824828286613ae6565b979650505050505050565b6003546040517f70a0823100000000000000000000000000000000000000000000000000000000815230600482015260009173ffffffffffffffffffffffffffffffffffffffff16906370a082319060240160206040518083038186803b15801561389957600080fd5b505afa1580156138ad573d6000803e3d6000fd5b505050506040513d601f19601f820116820180604052508101906138d19190613e38565b9050808211156138ff5760035461340d9073ffffffffffffffffffffffffffffffffffffffff1684836133b7565b60035461340d9073ffffffffffffffffffffffffffffffffffffffff1684846133b7565b6000620f424061393963ffffffff871688614117565b61394391906140dc565b6002546040517f40c10f190000000000000000000000000000000000000000000000000000000081523060048201526024810189905291925073ffffffffffffffffffffffffffffffffffffffff16906340c10f1990604401602060405180830381600087803b1580156139b657600080fd5b505af11580156139ca573d6000803e3d6000fd5b505050506040513d601f19601f820116820180604052508101906139ee9190613d93565b506005546002546040517f19ac0d9000000000000000000000000000000000000000000000000000000000815273ffffffffffffffffffffffffffffffffffffffff91821660048201523060248201528982166044820152600060648201526084810184905261ffff80881660a4830152861660c482015284151560e48201529116906319ac0d909061010401600060405180830381600087803b158015613a9557600080fd5b505af1158015613aa9573d6000803e3d6000fd5b50505050613add338288613abd9190614154565b60025473ffffffffffffffffffffffffffffffffffffffff1691906133b7565b50505050505050565b60608315613af5575081611f95565b825115613b055782518084602001fd5b816040517f08c379a00000000000000000000000000000000000000000000000000000000081526004016106a89190614000565b8035613b448161425d565b919050565b60008083601f840112613b5b57600080fd5b50813567ffffffffffffffff811115613b7357600080fd5b6020830191508360208260051b8501011115613b8e57600080fd5b9250929050565b600082601f830112613ba657600080fd5b81356020613bbb613bb6836140a0565b614051565b80838252828201915082860187848660051b8901011115613bdb57600080fd5b60005b85811015613bfa57813584529284019290840190600101613bde565b5090979650505050505050565b803561ffff81168114613b4457600080fd5b600060208284031215613c2b57600080fd5b8135611f958161425d565b600080600080600060608688031215613c4e57600080fd5b853567ffffffffffffffff80821115613c6657600080fd5b613c7289838a01613b49565b90975095506020880135915080821115613c8b57600080fd5b50613c9888828901613b49565b9094509250506040860135613cac8161425d565b809150509295509295909350565b600080600060608486031215613ccf57600080fd5b833567ffffffffffffffff80821115613ce757600080fd5b818601915086601f830112613cfb57600080fd5b81356020613d0b613bb6836140a0565b8083825282820191508286018b848660051b8901011115613d2b57600080fd5b600096505b84871015613d57578035613d438161425d565b835260019690960195918301918301613d30565b5097505087013592505080821115613d6e57600080fd5b50613d7b86828701613b95565b925050613d8a60408501613b39565b90509250925092565b600060208284031215613da557600080fd5b8151611f958161427f565b600060808284031215613dc257600080fd5b6040516080810181811067ffffffffffffffff82111715613de557613de561422e565b6040528251613df38161425d565b808252506020830151602082015260408301516040820152606083015160608201528091505092915050565b600060208284031215613e3157600080fd5b5035919050565b600060208284031215613e4a57600080fd5b5051919050565b60008060408385031215613e6457600080fd5b823591506020830135613e768161425d565b809150509250929050565b60008060008060008060008060006101208a8c031215613ea057600080fd5b8935985060208a0135613eb28161425d565b975060408a013563ffffffff81168114613ecb57600080fd5b9650613ed960608b01613c07565b9550613ee760808b01613c07565b945060a08a0135613ef78161427f565b935060c08a0135925060e08a0135613f0e8161427f565b91506101008a0135613f1f8161427f565b809150509295985092959850929598565b60008060408385031215613f4357600080fd5b50508035926020909101359150565b600080600060608486031215613f6757600080fd5b83359250602084013591506040840135613f808161427f565b809150509250925092565b60008060008060008060c08789031215613fa457600080fd5b863595506020870135945060408701359350606087013560ff81168114613fca57600080fd5b9598949750929560808101359460a0909101359350915050565b60008251613ff681846020870161416b565b9190910192915050565b602081526000825180602084015261401f81604085016020870161416b565b601f017fffffffffffffffffffffffffffffffffffffffffffffffffffffffffffffffe0169190910160400192915050565b604051601f82017fffffffffffffffffffffffffffffffffffffffffffffffffffffffffffffffe016810167ffffffffffffffff811182821017156140985761409861422e565b604052919050565b600067ffffffffffffffff8211156140ba576140ba61422e565b5060051b60200190565b600082198211156140d7576140d76141d0565b500190565b600082614112577f4e487b7100000000000000000000000000000000000000000000000000000000600052601260045260246000fd5b500490565b6000817fffffffffffffffffffffffffffffffffffffffffffffffffffffffffffffffff048311821515161561414f5761414f6141d0565b500290565b600082821015614166576141666141d0565b500390565b60005b8381101561418657818101518382015260200161416e565b83811115611f755750506000910152565b60007fffffffffffffffffffffffffffffffffffffffffffffffffffffffffffffffff8214156141c9576141c96141d0565b5060010190565b7f4e487b7100000000000000000000000000000000000000000000000000000000600052601160045260246000fd5b7f4e487b7100000000000000000000000000000000000000000000000000000000600052603260045260246000fd5b7f4e487b7100000000000000000000000000000000000000000000000000000000600052604160045260246000fd5b73ffffffffffffffffffffffffffffffffffffffff81168114611a8357600080fd5b8015158114611a8357600080fdfea264697066735822122089ac160d4487d52a148a3beece97e45b8450a7c4f5efafee7b8615797b180ed964736f6c63430008060033629c91fc9de3db5e699d8bad8523995c8e14e7f52fb91b49725e6625f2ea45f4",
  "devdoc": {
    "details": "Controls rewards distribution for network",
    "kind": "dev",
    "methods": {
      "add(uint256,address,uint32,uint16,uint16,bool,uint256,bool,bool)": {
        "details": "Can only be called by the owner. DO NOT add the same token more than once. Rewards will be messed up if you do.",
        "params": {
          "allocPoint": "Number of allocation points to allot to this token/pool",
          "sushiPid": "The pid of the Sushiswap pool in the Masterchef contract (if exists, otherwise provide zero)",
          "token": "The token that will be staked for rewards",
          "vestingCliff": "The number of days for the vesting cliff",
          "vestingPercent": "The percentage of rewards from this pool that will vest",
          "vestingPeriod": "The number of days for the vesting period",
          "vpForDeposit": "If true, users get voting power for deposits",
          "vpForVesting": "If true, users get voting power for vesting balances",
          "withUpdate": "if specified, update all pools before adding new pool"
        }
      },
      "changeOwner(address)": {
        "details": "Can only be called by the owner",
        "params": {
          "newOwner": "New owner address"
        }
      },
      "constructor": {
        "params": {
          "_lockManager": "address of LockManager contract",
          "_masterChef": "address of SushiSwap MasterChef contract",
          "_owner": "owner of contract",
          "_rewardToken": "address of token that is being offered as a reward",
          "_rewardTokensPerBlock": "initial amount of reward tokens to be distributed per block",
          "_startBlock": "block number when rewards will start",
          "_sushiToken": "address of SUSHI token",
          "_vault": "address of Vault contract"
        }
      },
      "deposit(uint256,uint256)": {
        "params": {
          "amount": "number of tokens to deposit",
          "pid": "pool id"
        }
      },
      "depositWithPermit(uint256,uint256,uint256,uint8,bytes32,bytes32)": {
        "details": "It is up to the frontend developer to ensure the pool token implements permit - otherwise this will fail",
        "params": {
          "amount": "number of tokens to deposit",
          "deadline": "The time at which to expire the signature",
          "pid": "pool id",
          "r": "Half of the ECDSA signature pair",
          "s": "Half of the ECDSA signature pair",
          "v": "The recovery byte of the signature"
        }
      },
      "emergencyWithdraw(uint256)": {
        "params": {
          "pid": "pool id"
        }
      },
      "getMultiplier(uint256,uint256)": {
        "params": {
          "from": "From block number",
          "to": "To block number"
        },
        "returns": {
          "_0": "multiplier"
        }
      },
      "massUpdatePools()": {
        "details": "Be careful of gas spending!"
      },
      "pendingRewardTokens(uint256,address)": {
        "params": {
          "account": "user account to check",
          "pid": "pool id"
        },
        "returns": {
          "_0": "pending rewards"
        }
      },
      "pendingSushi(uint256,address)": {
        "params": {
          "account": "user account to check",
          "pid": "pool id"
        },
        "returns": {
          "_0": "pending SUSHI rewards"
        }
      },
      "poolLength()": {
        "returns": {
          "_0": "pool length"
        }
      },
      "rescueTokens(address[],uint256[],address)": {
        "details": "Can only be called by the owner",
        "params": {
          "amounts": "the amount of each token to withdraw.  If zero, withdraws the maximum allowed amount for each token",
          "receiver": "the address that will receive the tokens",
          "tokens": "the tokens to withdraw"
        }
      },
      "set(uint256,uint256,bool)": {
        "details": "Can only be called by the owner",
        "params": {
          "allocPoint": "New number of allocation points for pool",
          "pid": "The RewardManager pool id",
          "withUpdate": "if specified, update all pools before setting allocation points"
        }
      },
      "setLockManager(address)": {
        "params": {
          "newAddress": "address of new LockManager"
        }
      },
      "setMasterChef(address)": {
        "details": "Can only be called by the owner",
        "params": {
          "newAddress": "address of new MasterChef"
        }
      },
      "setRewardsPerBlock(uint256)": {
        "details": "Can only be called by the owner",
        "params": {
          "newRewardTokensPerBlock": "new amount of reward token to reward each block"
        }
      },
      "setSushiToken(address)": {
        "details": "Can only be called by the owner",
        "params": {
          "newToken": "address of new SUSHI token"
        }
      },
      "setVault(address)": {
        "params": {
          "newAddress": "address of new Vault"
        }
      },
      "tokenAllow(address[],uint256[],address)": {
        "details": "Can only be called by the owner",
        "params": {
          "approvalAmounts": "the token approval amounts",
          "spender": "the address to allow spending of token",
          "tokensToApprove": "the tokens to approve"
        }
      },
      "updatePool(uint256)": {
        "params": {
          "pid": "pool id"
        }
      },
      "withdraw(uint256,uint256)": {
        "params": {
          "amount": "number of tokens to withdraw",
          "pid": "pool id"
        }
      }
    },
    "title": "RewardsManager",
    "version": 1
  },
  "userdoc": {
    "events": {
      "ChangedAddress(string,address,address)": {
        "notice": "Event emitted when contract address is changed"
      },
      "ChangedOwner(address,address)": {
        "notice": "Event emitted when the owner of the rewards manager contract is updated"
      },
      "ChangedRewardTokensPerBlock(uint256,uint256)": {
        "notice": "Event emitted when the amount of reward tokens per block is updated"
      },
      "Deposit(address,uint256,uint256)": {
        "notice": "Event emitted when a user deposits funds in the rewards manager"
      },
      "EmergencyWithdraw(address,uint256,uint256)": {
        "notice": "Event emitted when a user withdraws their original funds from the rewards manager without claiming rewards"
      },
      "PoolAdded(uint256,address,uint256,uint256,uint256,uint256,bool,bool)": {
        "notice": "Event emitted when new pool is added to the rewards manager"
      },
      "PoolUpdated(uint256,uint256,uint256,uint256)": {
        "notice": "Event emitted when pool allocation points are updated"
      },
      "SetRewardsStartBlock(uint256)": {
        "notice": "Event emitted when the rewards start block is set"
      },
      "Withdraw(address,uint256,uint256)": {
        "notice": "Event emitted when a user withdraws their original funds + rewards from the rewards manager"
      }
    },
    "kind": "user",
    "methods": {
      "add(uint256,address,uint32,uint16,uint16,bool,uint256,bool,bool)": {
        "notice": "Add a new reward token to the pool"
      },
      "changeOwner(address)": {
        "notice": "Change owner of Rewards Manager contract"
      },
      "constructor": {
        "notice": "Create a new Rewards Manager contract"
      },
      "deposit(uint256,uint256)": {
        "notice": "Deposit tokens to RewardsManager for rewards allocation."
      },
      "depositWithPermit(uint256,uint256,uint256,uint8,bytes32,bytes32)": {
        "notice": "Deposit tokens to RewardsManager for rewards allocation, using permit for approval"
      },
      "emergencyWithdraw(uint256)": {
        "notice": "Withdraw without caring about rewards. EMERGENCY ONLY."
      },
      "getMultiplier(uint256,uint256)": {
        "notice": "Return reward multiplier over the given from to to block."
      },
      "lockManager()": {
        "notice": "LockManager contract"
      },
      "massUpdatePools()": {
        "notice": "Update reward variables for all pools"
      },
      "masterChef()": {
        "notice": "Sushi Master Chef"
      },
      "owner()": {
        "notice": "Current owner of this contract"
      },
      "pendingRewardTokens(uint256,address)": {
        "notice": "View function to see pending reward tokens on frontend."
      },
      "pendingSushi(uint256,address)": {
        "notice": "View function to see pending SUSHI on frontend."
      },
      "poolInfo(uint256)": {
        "notice": "Info of each pool."
      },
      "poolLength()": {
        "notice": "View function to see current poolInfo array length"
      },
      "rescueTokens(address[],uint256[],address)": {
        "notice": "Rescue (withdraw) tokens from the smart contract"
      },
      "rewardToken()": {
        "notice": "Reward token"
      },
      "rewardTokensPerBlock()": {
        "notice": "Reward tokens rewarded per block."
      },
      "rewardsActive()": {
        "notice": "Returns true if rewards are actively being accumulated"
      },
      "set(uint256,uint256,bool)": {
        "notice": "Update the given pool's allocation points"
      },
      "setLockManager(address)": {
        "notice": "Set new LockManager address"
      },
      "setMasterChef(address)": {
        "notice": "Set new MasterChef address"
      },
      "setRewardsPerBlock(uint256)": {
        "notice": "Set new rewards per block"
      },
      "setSushiToken(address)": {
        "notice": "Set new SUSHI token address"
      },
      "setVault(address)": {
        "notice": "Set new Vault address"
      },
      "startBlock()": {
        "notice": "The block number when rewards start."
      },
      "sushiPools(address)": {
        "notice": "Mapping of Sushi tokens to MasterChef pids "
      },
      "sushiToken()": {
        "notice": "SUSHI token"
      },
      "tokenAllow(address[],uint256[],address)": {
        "notice": "Set approvals for external addresses to use contract tokens"
      },
      "totalAllocPoint()": {
        "notice": "Total allocation points. Must be the sum of all allocation points in all pools."
      },
      "updatePool(uint256)": {
        "notice": "Update reward variables of the given pool to be up-to-date"
      },
      "userInfo(uint256,address)": {
        "notice": "Info of each user that stakes tokens."
      },
      "vault()": {
        "notice": "Vault for vesting tokens"
      },
      "withdraw(uint256,uint256)": {
        "notice": "Withdraw tokens from RewardsManager, claiming rewards."
      }
    },
    "version": 1
  },
  "storageLayout": {
    "storage": [
      {
        "astId": 14568,
        "contract": "contracts/RewardsManager.sol:RewardsManager",
        "label": "_status",
        "offset": 0,
        "slot": "0",
        "type": "t_uint256"
      },
      {
        "astId": 4219,
        "contract": "contracts/RewardsManager.sol:RewardsManager",
        "label": "owner",
        "offset": 0,
        "slot": "1",
        "type": "t_address"
      },
      {
        "astId": 4252,
        "contract": "contracts/RewardsManager.sol:RewardsManager",
        "label": "rewardToken",
        "offset": 0,
        "slot": "2",
        "type": "t_contract(IERC20Extended)9757"
      },
      {
        "astId": 4256,
        "contract": "contracts/RewardsManager.sol:RewardsManager",
        "label": "sushiToken",
        "offset": 0,
        "slot": "3",
        "type": "t_contract(IERC20Extended)9757"
      },
      {
        "astId": 4260,
        "contract": "contracts/RewardsManager.sol:RewardsManager",
        "label": "masterChef",
        "offset": 0,
        "slot": "4",
        "type": "t_contract(IMasterChef)10350"
      },
      {
        "astId": 4264,
        "contract": "contracts/RewardsManager.sol:RewardsManager",
        "label": "vault",
        "offset": 0,
        "slot": "5",
        "type": "t_contract(IVault)10753"
      },
      {
        "astId": 4268,
        "contract": "contracts/RewardsManager.sol:RewardsManager",
        "label": "lockManager",
        "offset": 0,
        "slot": "6",
        "type": "t_contract(ILockManager)10281"
      },
      {
        "astId": 4271,
        "contract": "contracts/RewardsManager.sol:RewardsManager",
        "label": "rewardTokensPerBlock",
        "offset": 0,
        "slot": "7",
        "type": "t_uint256"
      },
      {
        "astId": 4276,
        "contract": "contracts/RewardsManager.sol:RewardsManager",
        "label": "poolInfo",
        "offset": 0,
        "slot": "8",
        "type": "t_array(t_struct(PoolInfo)4248_storage)dyn_storage"
      },
      {
        "astId": 4281,
        "contract": "contracts/RewardsManager.sol:RewardsManager",
        "label": "sushiPools",
        "offset": 0,
        "slot": "9",
        "type": "t_mapping(t_address,t_uint256)"
      },
      {
        "astId": 4289,
        "contract": "contracts/RewardsManager.sol:RewardsManager",
        "label": "userInfo",
        "offset": 0,
        "slot": "10",
        "type": "t_mapping(t_uint256,t_mapping(t_address,t_struct(UserInfo)4226_storage))"
      },
      {
        "astId": 4292,
        "contract": "contracts/RewardsManager.sol:RewardsManager",
        "label": "totalAllocPoint",
        "offset": 0,
        "slot": "11",
        "type": "t_uint256"
      },
      {
        "astId": 4295,
        "contract": "contracts/RewardsManager.sol:RewardsManager",
        "label": "startBlock",
        "offset": 0,
        "slot": "12",
        "type": "t_uint256"
      }
    ],
    "types": {
      "t_address": {
        "encoding": "inplace",
        "label": "address",
        "numberOfBytes": "20"
      },
      "t_array(t_struct(PoolInfo)4248_storage)dyn_storage": {
        "base": "t_struct(PoolInfo)4248_storage",
        "encoding": "dynamic_array",
        "label": "struct RewardsManager.PoolInfo[]",
        "numberOfBytes": "32"
      },
      "t_bool": {
        "encoding": "inplace",
        "label": "bool",
        "numberOfBytes": "1"
      },
      "t_contract(IERC20Extended)9757": {
        "encoding": "inplace",
        "label": "contract IERC20Extended",
        "numberOfBytes": "20"
      },
      "t_contract(ILockManager)10281": {
        "encoding": "inplace",
        "label": "contract ILockManager",
        "numberOfBytes": "20"
      },
      "t_contract(IMasterChef)10350": {
        "encoding": "inplace",
        "label": "contract IMasterChef",
        "numberOfBytes": "20"
      },
      "t_contract(IVault)10753": {
        "encoding": "inplace",
        "label": "contract IVault",
        "numberOfBytes": "20"
      },
      "t_mapping(t_address,t_struct(UserInfo)4226_storage)": {
        "encoding": "mapping",
        "key": "t_address",
        "label": "mapping(address => struct RewardsManager.UserInfo)",
        "numberOfBytes": "32",
        "value": "t_struct(UserInfo)4226_storage"
      },
      "t_mapping(t_address,t_uint256)": {
        "encoding": "mapping",
        "key": "t_address",
        "label": "mapping(address => uint256)",
        "numberOfBytes": "32",
        "value": "t_uint256"
      },
      "t_mapping(t_uint256,t_mapping(t_address,t_struct(UserInfo)4226_storage))": {
        "encoding": "mapping",
        "key": "t_uint256",
        "label": "mapping(uint256 => mapping(address => struct RewardsManager.UserInfo))",
        "numberOfBytes": "32",
        "value": "t_mapping(t_address,t_struct(UserInfo)4226_storage)"
      },
      "t_struct(PoolInfo)4248_storage": {
        "encoding": "inplace",
        "label": "struct RewardsManager.PoolInfo",
        "members": [
          {
            "astId": 4229,
            "contract": "contracts/RewardsManager.sol:RewardsManager",
            "label": "token",
            "offset": 0,
            "slot": "0",
            "type": "t_contract(IERC20Extended)9757"
          },
          {
            "astId": 4231,
            "contract": "contracts/RewardsManager.sol:RewardsManager",
            "label": "allocPoint",
            "offset": 0,
            "slot": "1",
            "type": "t_uint256"
          },
          {
            "astId": 4233,
            "contract": "contracts/RewardsManager.sol:RewardsManager",
            "label": "lastRewardBlock",
            "offset": 0,
            "slot": "2",
            "type": "t_uint256"
          },
          {
            "astId": 4235,
            "contract": "contracts/RewardsManager.sol:RewardsManager",
            "label": "accRewardsPerShare",
            "offset": 0,
            "slot": "3",
            "type": "t_uint256"
          },
          {
            "astId": 4237,
            "contract": "contracts/RewardsManager.sol:RewardsManager",
            "label": "vestingPercent",
            "offset": 0,
            "slot": "4",
            "type": "t_uint32"
          },
          {
            "astId": 4239,
            "contract": "contracts/RewardsManager.sol:RewardsManager",
            "label": "vestingPeriod",
            "offset": 4,
            "slot": "4",
            "type": "t_uint16"
          },
          {
            "astId": 4241,
            "contract": "contracts/RewardsManager.sol:RewardsManager",
            "label": "vestingCliff",
            "offset": 6,
            "slot": "4",
            "type": "t_uint16"
          },
          {
            "astId": 4243,
            "contract": "contracts/RewardsManager.sol:RewardsManager",
            "label": "totalStaked",
            "offset": 0,
            "slot": "5",
            "type": "t_uint256"
          },
          {
            "astId": 4245,
            "contract": "contracts/RewardsManager.sol:RewardsManager",
            "label": "vpForDeposit",
            "offset": 0,
            "slot": "6",
            "type": "t_bool"
          },
          {
            "astId": 4247,
            "contract": "contracts/RewardsManager.sol:RewardsManager",
            "label": "vpForVesting",
            "offset": 1,
            "slot": "6",
            "type": "t_bool"
          }
        ],
        "numberOfBytes": "224"
      },
      "t_struct(UserInfo)4226_storage": {
        "encoding": "inplace",
        "label": "struct RewardsManager.UserInfo",
        "members": [
          {
            "astId": 4221,
            "contract": "contracts/RewardsManager.sol:RewardsManager",
            "label": "amount",
            "offset": 0,
            "slot": "0",
            "type": "t_uint256"
          },
          {
            "astId": 4223,
            "contract": "contracts/RewardsManager.sol:RewardsManager",
            "label": "rewardTokenDebt",
            "offset": 0,
            "slot": "1",
            "type": "t_uint256"
          },
          {
            "astId": 4225,
            "contract": "contracts/RewardsManager.sol:RewardsManager",
            "label": "sushiRewardDebt",
            "offset": 0,
            "slot": "2",
            "type": "t_uint256"
          }
        ],
        "numberOfBytes": "96"
      },
      "t_uint16": {
        "encoding": "inplace",
        "label": "uint16",
        "numberOfBytes": "2"
      },
      "t_uint256": {
        "encoding": "inplace",
        "label": "uint256",
        "numberOfBytes": "32"
      },
      "t_uint32": {
        "encoding": "inplace",
        "label": "uint32",
        "numberOfBytes": "4"
      }
    }
  }
}