{
  "address": "0x64b517250D9774939472675507Dad84D822C67e2",
  "abi": [
    {
      "inputs": [
        {
          "internalType": "address",
          "name": "_lockManager",
          "type": "address"
        }
      ],
      "stateMutability": "nonpayable",
      "type": "constructor"
    },
    {
      "anonymous": false,
      "inputs": [
        {
          "indexed": true,
          "internalType": "address",
          "name": "token",
          "type": "address"
        },
        {
          "indexed": true,
          "internalType": "address",
          "name": "locker",
          "type": "address"
        },
        {
          "indexed": true,
          "internalType": "address",
          "name": "receiver",
          "type": "address"
        },
        {
          "indexed": false,
          "internalType": "uint256",
          "name": "lockId",
          "type": "uint256"
        },
        {
          "indexed": false,
          "internalType": "uint256",
          "name": "amount",
          "type": "uint256"
        },
        {
          "indexed": false,
          "internalType": "uint48",
          "name": "startTime",
          "type": "uint48"
        },
        {
          "indexed": false,
          "internalType": "uint16",
          "name": "durationInDays",
          "type": "uint16"
        },
        {
          "indexed": false,
          "internalType": "uint16",
          "name": "cliffInDays",
          "type": "uint16"
        },
        {
          "indexed": false,
          "internalType": "uint256",
          "name": "votingPower",
          "type": "uint256"
        }
      ],
      "name": "LockCreated",
      "type": "event"
    },
    {
      "anonymous": false,
      "inputs": [
        {
          "indexed": true,
          "internalType": "uint256",
          "name": "lockId",
          "type": "uint256"
        },
        {
          "indexed": true,
          "internalType": "uint16",
          "name": "oldDuration",
          "type": "uint16"
        },
        {
          "indexed": true,
          "internalType": "uint16",
          "name": "newDuration",
          "type": "uint16"
        },
        {
          "indexed": false,
          "internalType": "uint16",
          "name": "oldCliff",
          "type": "uint16"
        },
        {
          "indexed": false,
          "internalType": "uint16",
          "name": "newCliff",
          "type": "uint16"
        },
        {
          "indexed": false,
          "internalType": "uint48",
          "name": "startTime",
          "type": "uint48"
        }
      ],
      "name": "LockExtended",
      "type": "event"
    },
    {
      "anonymous": false,
      "inputs": [
        {
          "indexed": true,
          "internalType": "address",
          "name": "receiver",
          "type": "address"
        },
        {
          "indexed": true,
          "internalType": "address",
          "name": "token",
          "type": "address"
        },
        {
          "indexed": true,
          "internalType": "uint256",
          "name": "lockId",
          "type": "uint256"
        },
        {
          "indexed": false,
          "internalType": "uint256",
          "name": "amountClaimed",
          "type": "uint256"
        },
        {
          "indexed": false,
          "internalType": "uint256",
          "name": "votingPowerRemoved",
          "type": "uint256"
        }
      ],
      "name": "UnlockedTokensClaimed",
      "type": "event"
    },
    {
      "inputs": [
        {
          "internalType": "address",
          "name": "receiver",
          "type": "address"
        }
      ],
      "name": "activeLockBalances",
      "outputs": [
        {
          "components": [
            {
              "internalType": "uint256",
              "name": "id",
              "type": "uint256"
            },
            {
              "internalType": "uint256",
              "name": "claimableAmount",
              "type": "uint256"
            },
            {
              "components": [
                {
                  "internalType": "address",
                  "name": "token",
                  "type": "address"
                },
                {
                  "internalType": "address",
                  "name": "receiver",
                  "type": "address"
                },
                {
                  "internalType": "uint48",
                  "name": "startTime",
                  "type": "uint48"
                },
                {
                  "internalType": "uint16",
                  "name": "vestingDurationInDays",
                  "type": "uint16"
                },
                {
                  "internalType": "uint16",
                  "name": "cliffDurationInDays",
                  "type": "uint16"
                },
                {
                  "internalType": "uint256",
                  "name": "amount",
                  "type": "uint256"
                },
                {
                  "internalType": "uint256",
                  "name": "amountClaimed",
                  "type": "uint256"
                },
                {
                  "internalType": "uint256",
                  "name": "votingPower",
                  "type": "uint256"
                }
              ],
              "internalType": "struct Vault.Lock",
              "name": "lock",
              "type": "tuple"
            }
          ],
          "internalType": "struct Vault.LockBalance[]",
          "name": "",
          "type": "tuple[]"
        }
      ],
      "stateMutability": "view",
      "type": "function"
    },
    {
      "inputs": [
        {
          "internalType": "address",
          "name": "receiver",
          "type": "address"
        }
      ],
      "name": "activeLockIds",
      "outputs": [
        {
          "internalType": "uint256[]",
          "name": "",
          "type": "uint256[]"
        }
      ],
      "stateMutability": "view",
      "type": "function"
    },
    {
      "inputs": [
        {
          "internalType": "address",
          "name": "receiver",
          "type": "address"
        }
      ],
      "name": "activeLocks",
      "outputs": [
        {
          "components": [
            {
              "internalType": "address",
              "name": "token",
              "type": "address"
            },
            {
              "internalType": "address",
              "name": "receiver",
              "type": "address"
            },
            {
              "internalType": "uint48",
              "name": "startTime",
              "type": "uint48"
            },
            {
              "internalType": "uint16",
              "name": "vestingDurationInDays",
              "type": "uint16"
            },
            {
              "internalType": "uint16",
              "name": "cliffDurationInDays",
              "type": "uint16"
            },
            {
              "internalType": "uint256",
              "name": "amount",
              "type": "uint256"
            },
            {
              "internalType": "uint256",
              "name": "amountClaimed",
              "type": "uint256"
            },
            {
              "internalType": "uint256",
              "name": "votingPower",
              "type": "uint256"
            }
          ],
          "internalType": "struct Vault.Lock[]",
          "name": "",
          "type": "tuple[]"
        }
      ],
      "stateMutability": "view",
      "type": "function"
    },
    {
      "inputs": [],
      "name": "allActiveLockBalances",
      "outputs": [
        {
          "components": [
            {
              "internalType": "uint256",
              "name": "id",
              "type": "uint256"
            },
            {
              "internalType": "uint256",
              "name": "claimableAmount",
              "type": "uint256"
            },
            {
              "components": [
                {
                  "internalType": "address",
                  "name": "token",
                  "type": "address"
                },
                {
                  "internalType": "address",
                  "name": "receiver",
                  "type": "address"
                },
                {
                  "internalType": "uint48",
                  "name": "startTime",
                  "type": "uint48"
                },
                {
                  "internalType": "uint16",
                  "name": "vestingDurationInDays",
                  "type": "uint16"
                },
                {
                  "internalType": "uint16",
                  "name": "cliffDurationInDays",
                  "type": "uint16"
                },
                {
                  "internalType": "uint256",
                  "name": "amount",
                  "type": "uint256"
                },
                {
                  "internalType": "uint256",
                  "name": "amountClaimed",
                  "type": "uint256"
                },
                {
                  "internalType": "uint256",
                  "name": "votingPower",
                  "type": "uint256"
                }
              ],
              "internalType": "struct Vault.Lock",
              "name": "lock",
              "type": "tuple"
            }
          ],
          "internalType": "struct Vault.LockBalance[]",
          "name": "",
          "type": "tuple[]"
        }
      ],
      "stateMutability": "view",
      "type": "function"
    },
    {
      "inputs": [],
      "name": "allActiveLockIds",
      "outputs": [
        {
          "internalType": "uint256[]",
          "name": "",
          "type": "uint256[]"
        }
      ],
      "stateMutability": "view",
      "type": "function"
    },
    {
      "inputs": [],
      "name": "allActiveLocks",
      "outputs": [
        {
          "components": [
            {
              "internalType": "address",
              "name": "token",
              "type": "address"
            },
            {
              "internalType": "address",
              "name": "receiver",
              "type": "address"
            },
            {
              "internalType": "uint48",
              "name": "startTime",
              "type": "uint48"
            },
            {
              "internalType": "uint16",
              "name": "vestingDurationInDays",
              "type": "uint16"
            },
            {
              "internalType": "uint16",
              "name": "cliffDurationInDays",
              "type": "uint16"
            },
            {
              "internalType": "uint256",
              "name": "amount",
              "type": "uint256"
            },
            {
              "internalType": "uint256",
              "name": "amountClaimed",
              "type": "uint256"
            },
            {
              "internalType": "uint256",
              "name": "votingPower",
              "type": "uint256"
            }
          ],
          "internalType": "struct Vault.Lock[]",
          "name": "",
          "type": "tuple[]"
        }
      ],
      "stateMutability": "view",
      "type": "function"
    },
    {
      "inputs": [
        {
          "internalType": "address",
          "name": "receiver",
          "type": "address"
        }
      ],
      "name": "allLocks",
      "outputs": [
        {
          "components": [
            {
              "internalType": "address",
              "name": "token",
              "type": "address"
            },
            {
              "internalType": "address",
              "name": "receiver",
              "type": "address"
            },
            {
              "internalType": "uint48",
              "name": "startTime",
              "type": "uint48"
            },
            {
              "internalType": "uint16",
              "name": "vestingDurationInDays",
              "type": "uint16"
            },
            {
              "internalType": "uint16",
              "name": "cliffDurationInDays",
              "type": "uint16"
            },
            {
              "internalType": "uint256",
              "name": "amount",
              "type": "uint256"
            },
            {
              "internalType": "uint256",
              "name": "amountClaimed",
              "type": "uint256"
            },
            {
              "internalType": "uint256",
              "name": "votingPower",
              "type": "uint256"
            }
          ],
          "internalType": "struct Vault.Lock[]",
          "name": "",
          "type": "tuple[]"
        }
      ],
      "stateMutability": "view",
      "type": "function"
    },
    {
      "inputs": [
        {
          "internalType": "uint256[]",
          "name": "locks",
          "type": "uint256[]"
        }
      ],
      "name": "claimAllUnlockedTokens",
      "outputs": [],
      "stateMutability": "nonpayable",
      "type": "function"
    },
    {
      "inputs": [
        {
          "internalType": "uint256[]",
          "name": "locks",
          "type": "uint256[]"
        },
        {
          "internalType": "uint256[]",
          "name": "amounts",
          "type": "uint256[]"
        }
      ],
      "name": "claimUnlockedTokenAmounts",
      "outputs": [],
      "stateMutability": "nonpayable",
      "type": "function"
    },
    {
      "inputs": [
        {
          "internalType": "uint256",
          "name": "lockId",
          "type": "uint256"
        }
      ],
      "name": "claimableBalance",
      "outputs": [
        {
          "internalType": "uint256",
          "name": "",
          "type": "uint256"
        }
      ],
      "stateMutability": "view",
      "type": "function"
    },
    {
      "inputs": [
        {
          "internalType": "uint256",
          "name": "lockId",
          "type": "uint256"
        },
        {
          "internalType": "uint16",
          "name": "vestingDaysToAdd",
          "type": "uint16"
        },
        {
          "internalType": "uint16",
          "name": "cliffDaysToAdd",
          "type": "uint16"
        }
      ],
      "name": "extendLock",
      "outputs": [],
      "stateMutability": "nonpayable",
      "type": "function"
    },
    {
      "inputs": [
        {
          "internalType": "uint256",
          "name": "lockId",
          "type": "uint256"
        }
      ],
      "name": "lockBalance",
      "outputs": [
        {
          "components": [
            {
              "internalType": "uint256",
              "name": "id",
              "type": "uint256"
            },
            {
              "internalType": "uint256",
              "name": "claimableAmount",
              "type": "uint256"
            },
            {
              "components": [
                {
                  "internalType": "address",
                  "name": "token",
                  "type": "address"
                },
                {
                  "internalType": "address",
                  "name": "receiver",
                  "type": "address"
                },
                {
                  "internalType": "uint48",
                  "name": "startTime",
                  "type": "uint48"
                },
                {
                  "internalType": "uint16",
                  "name": "vestingDurationInDays",
                  "type": "uint16"
                },
                {
                  "internalType": "uint16",
                  "name": "cliffDurationInDays",
                  "type": "uint16"
                },
                {
                  "internalType": "uint256",
                  "name": "amount",
                  "type": "uint256"
                },
                {
                  "internalType": "uint256",
                  "name": "amountClaimed",
                  "type": "uint256"
                },
                {
                  "internalType": "uint256",
                  "name": "votingPower",
                  "type": "uint256"
                }
              ],
              "internalType": "struct Vault.Lock",
              "name": "lock",
              "type": "tuple"
            }
          ],
          "internalType": "struct Vault.LockBalance",
          "name": "balance",
          "type": "tuple"
        }
      ],
      "stateMutability": "view",
      "type": "function"
    },
    {
      "inputs": [
        {
          "internalType": "address",
          "name": "",
          "type": "address"
        },
        {
          "internalType": "uint256",
          "name": "",
          "type": "uint256"
        }
      ],
      "name": "lockIds",
      "outputs": [
        {
          "internalType": "uint256",
          "name": "",
          "type": "uint256"
        }
      ],
      "stateMutability": "view",
      "type": "function"
    },
    {
      "inputs": [],
      "name": "lockManager",
      "outputs": [
        {
          "internalType": "contract ILockManager",
          "name": "",
          "type": "address"
        }
      ],
      "stateMutability": "view",
      "type": "function"
    },
    {
      "inputs": [
        {
          "internalType": "address",
          "name": "token",
          "type": "address"
        },
        {
          "internalType": "address",
          "name": "locker",
          "type": "address"
        },
        {
          "internalType": "address",
          "name": "receiver",
          "type": "address"
        },
        {
          "internalType": "uint48",
          "name": "startTime",
          "type": "uint48"
        },
        {
          "internalType": "uint256",
          "name": "amount",
          "type": "uint256"
        },
        {
          "internalType": "uint16",
          "name": "vestingDurationInDays",
          "type": "uint16"
        },
        {
          "internalType": "uint16",
          "name": "cliffDurationInDays",
          "type": "uint16"
        },
        {
          "internalType": "bool",
          "name": "grantVotingPower",
          "type": "bool"
        }
      ],
      "name": "lockTokens",
      "outputs": [],
      "stateMutability": "nonpayable",
      "type": "function"
    },
    {
      "inputs": [
        {
          "internalType": "address",
          "name": "token",
          "type": "address"
        },
        {
          "internalType": "address",
          "name": "locker",
          "type": "address"
        },
        {
          "internalType": "address",
          "name": "receiver",
          "type": "address"
        },
        {
          "internalType": "uint48",
          "name": "startTime",
          "type": "uint48"
        },
        {
          "internalType": "uint256",
          "name": "amount",
          "type": "uint256"
        },
        {
          "internalType": "uint16",
          "name": "vestingDurationInDays",
          "type": "uint16"
        },
        {
          "internalType": "uint16",
          "name": "cliffDurationInDays",
          "type": "uint16"
        },
        {
          "internalType": "bool",
          "name": "grantVotingPower",
          "type": "bool"
        },
        {
          "internalType": "uint256",
          "name": "deadline",
          "type": "uint256"
        },
        {
          "internalType": "uint8",
          "name": "v",
          "type": "uint8"
        },
        {
          "internalType": "bytes32",
          "name": "r",
          "type": "bytes32"
        },
        {
          "internalType": "bytes32",
          "name": "s",
          "type": "bytes32"
        }
      ],
      "name": "lockTokensWithPermit",
      "outputs": [],
      "stateMutability": "nonpayable",
      "type": "function"
    },
    {
      "inputs": [],
      "name": "numLocks",
      "outputs": [
        {
          "internalType": "uint256",
          "name": "",
          "type": "uint256"
        }
      ],
      "stateMutability": "view",
      "type": "function"
    },
    {
      "inputs": [
        {
          "internalType": "address",
          "name": "token",
          "type": "address"
        },
        {
          "internalType": "address",
          "name": "receiver",
          "type": "address"
        }
      ],
      "name": "tokenBalance",
      "outputs": [
        {
          "components": [
            {
              "internalType": "uint256",
              "name": "totalAmount",
              "type": "uint256"
            },
            {
              "internalType": "uint256",
              "name": "claimableAmount",
              "type": "uint256"
            },
            {
              "internalType": "uint256",
              "name": "claimedAmount",
              "type": "uint256"
            },
            {
              "internalType": "uint256",
              "name": "votingPower",
              "type": "uint256"
            }
          ],
          "internalType": "struct Vault.TokenBalance",
          "name": "balance",
          "type": "tuple"
        }
      ],
      "stateMutability": "view",
      "type": "function"
    },
    {
      "inputs": [
        {
          "internalType": "uint256",
          "name": "",
          "type": "uint256"
        }
      ],
      "name": "tokenLocks",
      "outputs": [
        {
          "internalType": "address",
          "name": "token",
          "type": "address"
        },
        {
          "internalType": "address",
          "name": "receiver",
          "type": "address"
        },
        {
          "internalType": "uint48",
          "name": "startTime",
          "type": "uint48"
        },
        {
          "internalType": "uint16",
          "name": "vestingDurationInDays",
          "type": "uint16"
        },
        {
          "internalType": "uint16",
          "name": "cliffDurationInDays",
          "type": "uint16"
        },
        {
          "internalType": "uint256",
          "name": "amount",
          "type": "uint256"
        },
        {
          "internalType": "uint256",
          "name": "amountClaimed",
          "type": "uint256"
        },
        {
          "internalType": "uint256",
          "name": "votingPower",
          "type": "uint256"
        }
      ],
      "stateMutability": "view",
      "type": "function"
    },
    {
      "inputs": [
        {
          "internalType": "address",
          "name": "token",
          "type": "address"
        }
      ],
      "name": "totalTokenBalance",
      "outputs": [
        {
          "components": [
            {
              "internalType": "uint256",
              "name": "totalAmount",
              "type": "uint256"
            },
            {
              "internalType": "uint256",
              "name": "claimableAmount",
              "type": "uint256"
            },
            {
              "internalType": "uint256",
              "name": "claimedAmount",
              "type": "uint256"
            },
            {
              "internalType": "uint256",
              "name": "votingPower",
              "type": "uint256"
            }
          ],
          "internalType": "struct Vault.TokenBalance",
          "name": "balance",
          "type": "tuple"
        }
      ],
      "stateMutability": "view",
      "type": "function"
    }
  ],
  "transactionHash": "0x477b732c9915d0da959bd4c5b0f338d44691ac3e0a1a40f3c50265d1b9a40458",
  "args": [
    "0xdCE455355c2993C18ab5a34DfeE4525D66EAdAf5"
  ],
  "solcInputHash": "43cf21757cc219c1b24effd391603939",
  "bytecode": "0x60a06040523480156200001157600080fd5b50604051620043c1380380620043c183398101604081905262000034916200004a565b60601b6001600160601b0319166080526200007c565b6000602082840312156200005d57600080fd5b81516001600160a01b03811681146200007557600080fd5b9392505050565b60805160601c614318620000a9600039600081816103a9015281816130ab01526134f301526143186000f3fe608060405234801561001057600080fd5b506004361061016c5760003560e01c8063946ca949116100cd578063d422cf5811610081578063f339c50411610066578063f339c50414610445578063f546599214610465578063f742a1fa1461047857600080fd5b8063d422cf5814610429578063d7da8bc21461043257600080fd5b8063ada748a5116100b2578063ada748a5146103f0578063ba4a051b14610403578063bed5df7c1461041657600080fd5b8063946ca94914610281578063acca30a2146103a457600080fd5b80634a176a4b11610124578063791ba92111610109578063791ba9211461024857806385d3374f1461025b5780638f2049981461026e57600080fd5b80634a176a4b1461022057806354ac185e1461023357600080fd5b806319ac0d901161015557806319ac0d90146101d55780631c1a4710146101ea5780633c4926d41461020b57600080fd5b80631049334f146101715780631091e807146101c0575b600080fd5b61018461017f366004613b85565b61048b565b6040516101b791908151815260208083015190820152604080830151908201526060918201519181019190915260800190565b60405180910390f35b6101c86107ab565b6040516101b7919061401e565b6101e86101e3366004613bb8565b610a42565b005b6101fd6101f8366004613d18565b610cb3565b6040519081526020016101b7565b610213610ce4565b6040516101b79190613f17565b61021361022e366004613b6a565b610fde565b61023b6113bd565b6040516101b79190613f66565b61023b610256366004613b6a565b6116b0565b6101fd610269366004613df8565b611912565b6101e861027c366004613e2a565b611a98565b61033f61028f366004613df8565b6000602081905290815260409020805460018201546002830154600384015460049094015473ffffffffffffffffffffffffffffffffffffffff938416949383169365ffffffffffff740100000000000000000000000000000000000000008504169361ffff7a01000000000000000000000000000000000000000000000000000082048116947c0100000000000000000000000000000000000000000000000000000000909204169290919088565b6040805173ffffffffffffffffffffffffffffffffffffffff998a16815298909716602089015265ffffffffffff9095169587019590955261ffff92831660608701529116608085015260a084015260c083019190915260e0820152610100016101b7565b6103cb7f000000000000000000000000000000000000000000000000000000000000000081565b60405173ffffffffffffffffffffffffffffffffffffffff90911681526020016101b7565b6101e86103fe366004613d42565b611e58565b61023b610411366004613b6a565b611f54565b6101c8610424366004613b6a565b612406565b6101fd60025481565b6101e8610440366004613d77565b61276e565b610458610453366004613df8565b612921565b6040516101b791906140a7565b610184610473366004613b6a565b612a6f565b6101e8610486366004613c4c565b612cf5565b6104b66040518060800160405280600081526020016000815260200160008152602001600081525090565b73ffffffffffffffffffffffffffffffffffffffff821660009081526001602090815260408083208054825181850281018501909352808352919290919083018282801561052357602002820191906000526020600020905b81548152602001906001019080831161050f575b5050505050905060005b81518110156107a357600080600084848151811061054d5761054d61421d565b6020908102919091018101518252818101929092526040908101600020815161010081018352815473ffffffffffffffffffffffffffffffffffffffff90811680835260018401548083169684019690965265ffffffffffff740100000000000000000000000000000000000000008704169483019490945261ffff7a0100000000000000000000000000000000000000000000000000008604811660608401527c01000000000000000000000000000000000000000000000000000000009095049094166080820152600282015460a0820152600382015460c082015260049091015460e0820152925090871614801561065057508060c001518160a0015114155b156107905760a0810151845161066691906140e2565b845260e0810151606085015161067c91906140e2565b6060850152604081015165ffffffffffff16421115610790578060c0015184604001516106a991906140e2565b6040808601919091528101516000906106ca9065ffffffffffff1642614172565b905060006106db62015180836140fa565b9050826080015161ffff16811061078d57826060015161ffff168110610728578260c001518360a00151876020015161071491906140e2565b61071e9190614172565b602087015261078d565b600062015180846060015161ffff166107419190614135565b90506000818560a0015161075591906140fa565b905060006107638583614135565b90508560c00151818a6020015161077a91906140e2565b6107849190614172565b60208a01525050505b50505b508061079b816141b5565b91505061052d565b505092915050565b60606000805b6002548110156108c05760008181526020818152604091829020825161010081018452815473ffffffffffffffffffffffffffffffffffffffff908116825260018301549081169382019390935265ffffffffffff740100000000000000000000000000000000000000008404169381019390935261ffff7a0100000000000000000000000000000000000000000000000000008304811660608501527c01000000000000000000000000000000000000000000000000000000009092049091166080830152600281015460a08301819052600382015460c0840181905260049092015460e0840152146108ad57826108a9816141b5565b9350505b50806108b8816141b5565b9150506107b1565b5060008167ffffffffffffffff8111156108dc576108dc61424c565b604051908082528060200260200182016040528015610905578160200160208202803683370190505b5090506000805b600254811015610a395760008181526020818152604091829020825161010081018452815473ffffffffffffffffffffffffffffffffffffffff908116825260018301549081169382019390935265ffffffffffff740100000000000000000000000000000000000000008404169381019390935261ffff7a0100000000000000000000000000000000000000000000000000008304811660608501527c01000000000000000000000000000000000000000000000000000000009092049091166080830152600281015460a08301819052600382015460c0840181905260049092015460e084015214610a265781848481518110610a0d57610a0d61421d565b602090810291909101015282610a22816141b5565b9350505b5080610a31816141b5565b91505061090c565b50909392505050565b60008361ffff1611610adb576040517f08c379a000000000000000000000000000000000000000000000000000000000815260206004820152602f60248201527f5661756c743a3a6c6f636b546f6b656e733a2076657374696e6720647572617460448201527f696f6e206d757374206265203e2030000000000000000000000000000000000060648201526084015b60405180910390fd5b6123a58361ffff161115610b71576040517f08c379a000000000000000000000000000000000000000000000000000000000815260206004820152603660248201527f5661756c743a3a6c6f636b546f6b656e733a2076657374696e6720647572617460448201527f696f6e206d6f7265207468616e203235207965617273000000000000000000006064820152608401610ad2565b8161ffff168361ffff161015610c09576040517f08c379a000000000000000000000000000000000000000000000000000000000815260206004820152602b60248201527f5661756c743a3a6c6f636b546f6b656e733a2076657374696e6720647572617460448201527f696f6e203c20636c6966660000000000000000000000000000000000000000006064820152608401610ad2565b60008411610c99576040517f08c379a000000000000000000000000000000000000000000000000000000000815260206004820152602160248201527f5661756c743a3a6c6f636b546f6b656e733a20616d6f756e74206e6f74203e2060448201527f30000000000000000000000000000000000000000000000000000000000000006064820152608401610ad2565b610ca98888888888888888613013565b5050505050505050565b60016020528160005260406000208181548110610ccf57600080fd5b90600052602060002001600091509150505481565b60606000805b600254811015610df95760008181526020818152604091829020825161010081018452815473ffffffffffffffffffffffffffffffffffffffff908116825260018301549081169382019390935265ffffffffffff740100000000000000000000000000000000000000008404169381019390935261ffff7a0100000000000000000000000000000000000000000000000000008304811660608501527c01000000000000000000000000000000000000000000000000000000009092049091166080830152600281015460a08301819052600382015460c0840181905260049092015460e084015214610de65782610de2816141b5565b9350505b5080610df1816141b5565b915050610cea565b5060008167ffffffffffffffff811115610e1557610e1561424c565b604051908082528060200260200182016040528015610ea157816020015b610e8e6040805160608082018352600080835260208084018290528451610100810186528281529081018290528085018290529182018190526080820181905260a0820181905260c0820181905260e0820152909182015290565b815260200190600190039081610e335790505b5090506000805b600254811015610a395760008181526020818152604091829020825161010081018452815473ffffffffffffffffffffffffffffffffffffffff908116825260018301549081169382019390935265ffffffffffff740100000000000000000000000000000000000000008404169381019390935261ffff7a0100000000000000000000000000000000000000000000000000008304811660608501527c01000000000000000000000000000000000000000000000000000000009092049091166080830152600281015460a08301819052600382015460c0840181905260049092015460e084015214610fcb57610f9f82612921565b848481518110610fb157610fb161421d565b60200260200101819052508280610fc7906141b5565b9350505b5080610fd6816141b5565b915050610ea8565b73ffffffffffffffffffffffffffffffffffffffff81166000908152600160209081526040808320805482518185028101850190935280835260609493849392919083018282801561104f57602002820191906000526020600020905b81548152602001906001019080831161103b575b5050505050905060005b815181101561118e5760008060008484815181106110795761107961421d565b6020908102919091018101518252818101929092526040908101600020815161010081018352815473ffffffffffffffffffffffffffffffffffffffff908116825260018301549081169482019490945265ffffffffffff740100000000000000000000000000000000000000008504169281019290925261ffff7a0100000000000000000000000000000000000000000000000000008404811660608401527c01000000000000000000000000000000000000000000000000000000009093049092166080820152600282015460a08201819052600383015460c0830181905260049093015460e08301529092501461117b5783611177816141b5565b9450505b5080611186816141b5565b915050611059565b5060008267ffffffffffffffff8111156111aa576111aa61424c565b60405190808252806020026020018201604052801561123657816020015b6112236040805160608082018352600080835260208084018290528451610100810186528281529081018290528085018290529182018190526080820181905260a0820181905260c0820181905260e0820152909182015290565b8152602001906001900390816111c85790505b5090506000805b83518110156113b257600080600086848151811061125d5761125d61421d565b6020908102919091018101518252818101929092526040908101600020815161010081018352815473ffffffffffffffffffffffffffffffffffffffff908116825260018301549081169482019490945265ffffffffffff740100000000000000000000000000000000000000008504169281019290925261ffff7a0100000000000000000000000000000000000000000000000000008404811660608401527c01000000000000000000000000000000000000000000000000000000009093049092166080820152600282015460a08201819052600383015460c0830181905260049093015460e08301529092501461139f576113738583815181106113665761136661421d565b6020026020010151612921565b8484815181106113855761138561421d565b6020026020010181905250828061139b906141b5565b9350505b50806113aa816141b5565b91505061123d565b509095945050505050565b60606000805b6002548110156114d25760008181526020818152604091829020825161010081018452815473ffffffffffffffffffffffffffffffffffffffff908116825260018301549081169382019390935265ffffffffffff740100000000000000000000000000000000000000008404169381019390935261ffff7a0100000000000000000000000000000000000000000000000000008304811660608501527c01000000000000000000000000000000000000000000000000000000009092049091166080830152600281015460a08301819052600382015460c0840181905260049092015460e0840152146114bf57826114bb816141b5565b9350505b50806114ca816141b5565b9150506113c3565b5060008167ffffffffffffffff8111156114ee576114ee61424c565b60405190808252806020026020018201604052801561157b57816020015b604080516101008101825260008082526020808301829052928201819052606082018190526080820181905260a0820181905260c0820181905260e082015282527fffffffffffffffffffffffffffffffffffffffffffffffffffffffffffffffff90920191018161150c5790505b5090506000805b600254811015610a395760008181526020818152604091829020825161010081018452815473ffffffffffffffffffffffffffffffffffffffff908116825260018301549081169382019390935265ffffffffffff740100000000000000000000000000000000000000008404169381019390935261ffff7a0100000000000000000000000000000000000000000000000000008304811660608501527c01000000000000000000000000000000000000000000000000000000009092049091166080830152600281015460a08301819052600382015460c0840181905260049092015460e08401521461169d57808484815181106116835761168361421d565b60200260200101819052508280611699906141b5565b9350505b50806116a8816141b5565b915050611582565b73ffffffffffffffffffffffffffffffffffffffff8116600090815260016020908152604080832080548251818502810185019093528083526060949383018282801561171c57602002820191906000526020600020905b815481526020019060010190808311611708575b505050505090506000815167ffffffffffffffff81111561173f5761173f61424c565b6040519080825280602002602001820160405280156117cc57816020015b604080516101008101825260008082526020808301829052928201819052606082018190526080820181905260a0820181905260c0820181905260e082015282527fffffffffffffffffffffffffffffffffffffffffffffffffffffffffffffffff90920191018161175d5790505b50905060005b825181101561190a576000808483815181106117f0576117f061421d565b6020908102919091018101518252818101929092526040908101600020815161010081018352815473ffffffffffffffffffffffffffffffffffffffff908116825260018301549081169482019490945265ffffffffffff740100000000000000000000000000000000000000008504169281019290925261ffff7a0100000000000000000000000000000000000000000000000000008404811660608401527c01000000000000000000000000000000000000000000000000000000009093049092166080820152600282015460a0820152600382015460c082015260049091015460e082015282518390839081106118ec576118ec61421d565b60200260200101819052508080611902906141b5565b9150506117d2565b509392505050565b6000818152602081905260408120600181015474010000000000000000000000000000000000000000900465ffffffffffff164210156119555750600092915050565b60018101546000906119879074010000000000000000000000000000000000000000900465ffffffffffff1642614172565b9050600061199862015180836140fa565b60018401549091507c0100000000000000000000000000000000000000000000000000000000900461ffff168110156119d657506000949350505050565b60018301547a010000000000000000000000000000000000000000000000000000900461ffff168110611a205782600301548360020154611a179190614172565b95945050505050565b6001830154600090611a589062015180907a010000000000000000000000000000000000000000000000000000900461ffff16614135565b90506000818560020154611a6c91906140fa565b90506000611a7a8583614135565b9050856003015481611a8c9190614172565b98975050505050505050565b6000838152602081905260409020600181015473ffffffffffffffffffffffffffffffffffffffff163314611b4f576040517f08c379a000000000000000000000000000000000000000000000000000000000815260206004820152602e60248201527f5661756c743a3a657874656e644c6f636b3a206d73672e73656e646572206d7560448201527f73742062652072656365697665720000000000000000000000000000000000006064820152608401610ad2565b600081600101601a9054906101000a900461ffff1690506000611b8b82866040518060600160405280602c815260200161428d602c913961341e565b9050600083600101601c9054906101000a900461ffff1690506000611bc982876040518060600160405280602a81526020016142b9602a913961341e565b9050610e428161ffff161115611c61576040517f08c379a000000000000000000000000000000000000000000000000000000000815260206004820152602b60248201527f5661756c743a3a657874656e644c6f636b3a20636c696666206d6f726520746860448201527f616e2031302079656172730000000000000000000000000000000000000000006064820152608401610ad2565b6123a58361ffff161115611cf7576040517f08c379a000000000000000000000000000000000000000000000000000000000815260206004820152603660248201527f5661756c743a3a657874656e644c6f636b3a2076657374696e6720647572617460448201527f696f6e206d6f7265207468616e203235207965617273000000000000000000006064820152608401610ad2565b8061ffff168361ffff161015611d8f576040517f08c379a000000000000000000000000000000000000000000000000000000000815260206004820152602360248201527f5661756c743a3a657874656e644c6f636b3a206475726174696f6e203c20636c60448201527f69666600000000000000000000000000000000000000000000000000000000006064820152608401610ad2565b6001850180547fffffffff0000ffffffffffffffffffffffffffffffffffffffffffffffffffff167a01000000000000000000000000000000000000000000000000000061ffff868116918202929092179283905560408051868416815285841660208201527401000000000000000000000000000000000000000090940465ffffffffffff169084015291908616908a907f230404042daed14abd1b9cba00060fea5fc11a5aad4f4a2efb7bf2de5d0f92bf9060600160405180910390a45050505050505050565b60005b8151811015611f50576000611e88838381518110611e7b57611e7b61421d565b6020026020010151611912565b905060008111611f1a576040517f08c379a000000000000000000000000000000000000000000000000000000000815260206004820152603360248201527f5661756c743a3a636c61696d416c6c556e6c6f636b6564546f6b656e733a206360448201527f6c61696d61626c65416d6f756e742069732030000000000000000000000000006064820152608401610ad2565b611f3d838381518110611f2f57611f2f61421d565b60200260200101518261347d565b5080611f48816141b5565b915050611e5b565b5050565b73ffffffffffffffffffffffffffffffffffffffff811660009081526001602090815260408083208054825181850281018501909352808352606094938493929190830182828015611fc557602002820191906000526020600020905b815481526020019060010190808311611fb1575b5050505050905060005b8151811015612104576000806000848481518110611fef57611fef61421d565b6020908102919091018101518252818101929092526040908101600020815161010081018352815473ffffffffffffffffffffffffffffffffffffffff908116825260018301549081169482019490945265ffffffffffff740100000000000000000000000000000000000000008504169281019290925261ffff7a0100000000000000000000000000000000000000000000000000008404811660608401527c01000000000000000000000000000000000000000000000000000000009093049092166080820152600282015460a08201819052600383015460c0830181905260049093015460e0830152909250146120f157836120ed816141b5565b9450505b50806120fc816141b5565b915050611fcf565b5060008267ffffffffffffffff8111156121205761212061424c565b6040519080825280602002602001820160405280156121ad57816020015b604080516101008101825260008082526020808301829052928201819052606082018190526080820181905260a0820181905260c0820181905260e082015282527fffffffffffffffffffffffffffffffffffffffffffffffffffffffffffffffff90920191018161213e5790505b5090506000805b83518110156113b25760008060008684815181106121d4576121d461421d565b6020908102919091018101518252818101929092526040908101600020815161010081018352815473ffffffffffffffffffffffffffffffffffffffff908116825260018301549081169482019490945265ffffffffffff740100000000000000000000000000000000000000008504169281019290925261ffff7a0100000000000000000000000000000000000000000000000000008404811660608401527c01000000000000000000000000000000000000000000000000000000009093049092166080820152600282015460a08201819052600383015460c0830181905260049093015460e0830152909250146123f3576000808684815181106122dd576122dd61421d565b6020908102919091018101518252818101929092526040908101600020815161010081018352815473ffffffffffffffffffffffffffffffffffffffff908116825260018301549081169482019490945265ffffffffffff740100000000000000000000000000000000000000008504169281019290925261ffff7a0100000000000000000000000000000000000000000000000000008404811660608401527c01000000000000000000000000000000000000000000000000000000009093049092166080820152600282015460a0820152600382015460c082015260049091015460e082015284518590859081106123d9576123d961421d565b602002602001018190525082806123ef906141b5565b9350505b50806123fe816141b5565b9150506121b4565b73ffffffffffffffffffffffffffffffffffffffff81166000908152600160209081526040808320805482518185028101850190935280835260609493849392919083018282801561247757602002820191906000526020600020905b815481526020019060010190808311612463575b5050505050905060005b81518110156125b65760008060008484815181106124a1576124a161421d565b6020908102919091018101518252818101929092526040908101600020815161010081018352815473ffffffffffffffffffffffffffffffffffffffff908116825260018301549081169482019490945265ffffffffffff740100000000000000000000000000000000000000008504169281019290925261ffff7a0100000000000000000000000000000000000000000000000000008404811660608401527c01000000000000000000000000000000000000000000000000000000009093049092166080820152600282015460a08201819052600383015460c0830181905260049093015460e0830152909250146125a3578361259f816141b5565b9450505b50806125ae816141b5565b915050612481565b5060008267ffffffffffffffff8111156125d2576125d261424c565b6040519080825280602002602001820160405280156125fb578160200160208202803683370190505b5090506000805b83518110156113b25760008060008684815181106126225761262261421d565b6020908102919091018101518252818101929092526040908101600020815161010081018352815473ffffffffffffffffffffffffffffffffffffffff908116825260018301549081169482019490945265ffffffffffff740100000000000000000000000000000000000000008504169281019290925261ffff7a0100000000000000000000000000000000000000000000000000008404811660608401527c01000000000000000000000000000000000000000000000000000000009093049092166080820152600282015460a08201819052600383015460c0830181905260049093015460e08301529092501461275b578482815181106127285761272861421d565b60200260200101518484815181106127425761274261421d565b602090810291909101015282612757816141b5565b9350505b5080612766816141b5565b915050612602565b80518251146127ff576040517f08c379a000000000000000000000000000000000000000000000000000000000815260206004820152603c60248201527f5661756c743a3a636c61696d556e6c6f636b6564546f6b656e416d6f756e747360448201527f3a20617272617973206d7573742062652073616d65206c656e677468000000006064820152608401610ad2565b60005b825181101561291c576000612822848381518110611e7b57611e7b61421d565b90508282815181106128365761283661421d565b60200260200101518110156128cd576040517f08c379a000000000000000000000000000000000000000000000000000000000815260206004820152603a60248201527f5661756c743a3a636c61696d556e6c6f636b6564546f6b656e416d6f756e747360448201527f3a20636c61696d61626c65416d6f756e74203c20616d6f756e740000000000006064820152608401610ad2565b6129098483815181106128e2576128e261421d565b60200260200101518484815181106128fc576128fc61421d565b602002602001015161347d565b5080612914816141b5565b915050612802565b505050565b61297c6040805160608082018352600080835260208084018290528451610100810186528281529081018290528085018290529182018190526080820181905260a0820181905260c0820181905260e0820152909182015290565b81815261298882611912565b6020808301919091526000928352828152604092839020835161010081018552815473ffffffffffffffffffffffffffffffffffffffff908116825260018301549081169382019390935265ffffffffffff740100000000000000000000000000000000000000008404168186015261ffff7a0100000000000000000000000000000000000000000000000000008404811660608301527c01000000000000000000000000000000000000000000000000000000009093049092166080830152600281015460a0830152600381015460c08301526004015460e08201529181019190915290565b612a9a6040518060800160405280600081526020016000815260200160008152602001600081525090565b60005b600254811015612cef5760008181526020818152604091829020825161010081018452815473ffffffffffffffffffffffffffffffffffffffff90811680835260018401548083169584019590955265ffffffffffff740100000000000000000000000000000000000000008604169583019590955261ffff7a0100000000000000000000000000000000000000000000000000008504811660608401527c01000000000000000000000000000000000000000000000000000000009094049093166080820152600282015460a0820152600382015460c082015260049091015460e082015291908516148015612b9c57508060c001518160a0015114155b15612cdc5760a08101518351612bb291906140e2565b835260e08101516060840151612bc891906140e2565b6060840152604081015165ffffffffffff16421115612cdc578060c001518360400151612bf591906140e2565b604080850191909152810151600090612c169065ffffffffffff1642614172565b90506000612c2762015180836140fa565b9050826080015161ffff168110612cd957826060015161ffff168110612c74578260c001518360a001518660200151612c6091906140e2565b612c6a9190614172565b6020860152612cd9565b600062015180846060015161ffff16612c8d9190614135565b90506000818560a00151612ca191906140fa565b90506000612caf8583614135565b90508560c00151818960200151612cc691906140e2565b612cd09190614172565b60208901525050505b50505b5080612ce7816141b5565b915050612a9d565b50919050565b60008761ffff1611612d89576040517f08c379a000000000000000000000000000000000000000000000000000000000815260206004820152603960248201527f5661756c743a3a6c6f636b546f6b656e73576974685065726d69743a2076657360448201527f74696e67206475726174696f6e206d757374206265203e2030000000000000006064820152608401610ad2565b6123a58761ffff161115612e2157604080517f08c379a00000000000000000000000000000000000000000000000000000000081526020600482015260248101919091527f5661756c743a3a6c6f636b546f6b656e73576974685065726d69743a2076657360448201527f74696e67206475726174696f6e206d6f7265207468616e2032352079656172736064820152608401610ad2565b8561ffff168761ffff161015612eb9576040517f08c379a000000000000000000000000000000000000000000000000000000000815260206004820152602d60248201527f5661756c743a3a6c6f636b546f6b656e73576974685065726d69743a2064757260448201527f6174696f6e203c20636c696666000000000000000000000000000000000000006064820152608401610ad2565b60008811612f49576040517f08c379a000000000000000000000000000000000000000000000000000000000815260206004820152602b60248201527f5661756c743a3a6c6f636b546f6b656e73576974685065726d69743a20616d6f60448201527f756e74206e6f74203e20300000000000000000000000000000000000000000006064820152608401610ad2565b6040517fd505accf00000000000000000000000000000000000000000000000000000000815273ffffffffffffffffffffffffffffffffffffffff8c81166004830152306024830152604482018a90526064820186905260ff8516608483015260a4820184905260c482018390528d169063d505accf9060e401600060405180830381600087803b158015612fdd57600080fd5b505af1158015612ff1573d6000803e3d6000fd5b505050506130058c8c8c8c8c8c8c8c613013565b505050505050505050505050565b61303573ffffffffffffffffffffffffffffffffffffffff891688308761362c565b600065ffffffffffff86161561304b578561304d565b425b90506000821561312a576040517fbc61256e00000000000000000000000000000000000000000000000000000000815273ffffffffffffffffffffffffffffffffffffffff89811660048301528b81166024830152604482018890527f0000000000000000000000000000000000000000000000000000000000000000169063bc61256e90606401602060405180830381600087803b1580156130ef57600080fd5b505af1158015613103573d6000803e3d6000fd5b505050506040513d601f19601f820116820180604052508101906131279190613e11565b90505b60006040518061010001604052808c73ffffffffffffffffffffffffffffffffffffffff1681526020018a73ffffffffffffffffffffffffffffffffffffffff1681526020018465ffffffffffff1681526020018761ffff1681526020018661ffff1681526020018881526020016000815260200183815250905080600080600254815260200190815260200160002060008201518160000160006101000a81548173ffffffffffffffffffffffffffffffffffffffff021916908373ffffffffffffffffffffffffffffffffffffffff16021790555060208201518160010160006101000a81548173ffffffffffffffffffffffffffffffffffffffff021916908373ffffffffffffffffffffffffffffffffffffffff16021790555060408201518160010160146101000a81548165ffffffffffff021916908365ffffffffffff160217905550606082015181600101601a6101000a81548161ffff021916908361ffff160217905550608082015181600101601c6101000a81548161ffff021916908361ffff16021790555060a0820151816002015560c0820151816003015560e08201518160040155905050600160008a73ffffffffffffffffffffffffffffffffffffffff1673ffffffffffffffffffffffffffffffffffffffff16815260200190815260200160002060025490806001815401808255809150506001900390600052602060002001600090919091909150558873ffffffffffffffffffffffffffffffffffffffff168a73ffffffffffffffffffffffffffffffffffffffff168c73ffffffffffffffffffffffffffffffffffffffff167f61a86a91d761a7322a10c3ff0cda14501ac0d019f088b470cb222e5e94747e896002548b888c8c8a6040516133f496959493929190958652602086019490945265ffffffffffff92909216604085015261ffff908116606085015216608083015260a082015260c00190565b60405180910390a46002805490600061340c836141b5565b91905055505050505050505050505050565b60008061342b84866140bc565b90508461ffff168161ffff1610158390613472576040517f08c379a0000000000000000000000000000000000000000000000000000000008152600401610ad29190614056565b5090505b9392505050565b600082815260208190526040812060048101549091901561358957600182015482546040517fbc3e1b7a00000000000000000000000000000000000000000000000000000000815273ffffffffffffffffffffffffffffffffffffffff92831660048201529082166024820152604481018590527f00000000000000000000000000000000000000000000000000000000000000009091169063bc3e1b7a90606401602060405180830381600087803b15801561353957600080fd5b505af115801561354d573d6000803e3d6000fd5b505050506040513d601f19601f820116820180604052508101906135719190613e11565b90508082600401546135839190614172565b60048301555b82826003015461359991906140e2565b6003830155600182015482546135c99173ffffffffffffffffffffffffffffffffffffffff91821691168561370e565b815460018301546040805186815260208101859052879373ffffffffffffffffffffffffffffffffffffffff9081169316917fbac91588ea67037e676b74f37797bcae8524aab9a7ba7431a24a72e6f29bc197910160405180910390a450505050565b60405173ffffffffffffffffffffffffffffffffffffffff808516602483015283166044820152606481018290526137089085907f23b872dd00000000000000000000000000000000000000000000000000000000906084015b604080517fffffffffffffffffffffffffffffffffffffffffffffffffffffffffffffffe08184030181529190526020810180517bffffffffffffffffffffffffffffffffffffffffffffffffffffffff167fffffffff0000000000000000000000000000000000000000000000000000000090931692909217909152613764565b50505050565b60405173ffffffffffffffffffffffffffffffffffffffff831660248201526044810182905261291c9084907fa9059cbb0000000000000000000000000000000000000000000000000000000090606401613686565b60006137c6826040518060400160405280602081526020017f5361666545524332303a206c6f772d6c6576656c2063616c6c206661696c65648152508573ffffffffffffffffffffffffffffffffffffffff166138709092919063ffffffff16565b80519091501561291c57808060200190518101906137e49190613ddb565b61291c576040517f08c379a000000000000000000000000000000000000000000000000000000000815260206004820152602a60248201527f5361666545524332303a204552433230206f7065726174696f6e20646964206e60448201527f6f742073756363656564000000000000000000000000000000000000000000006064820152608401610ad2565b606061387f8484600085613887565b949350505050565b606082471015613919576040517f08c379a000000000000000000000000000000000000000000000000000000000815260206004820152602660248201527f416464726573733a20696e73756666696369656e742062616c616e636520666f60448201527f722063616c6c00000000000000000000000000000000000000000000000000006064820152608401610ad2565b843b613981576040517f08c379a000000000000000000000000000000000000000000000000000000000815260206004820152601d60248201527f416464726573733a2063616c6c20746f206e6f6e2d636f6e74726163740000006044820152606401610ad2565b6000808673ffffffffffffffffffffffffffffffffffffffff1685876040516139aa9190613efb565b60006040518083038185875af1925050503d80600081146139e7576040519150601f19603f3d011682016040523d82523d6000602084013e6139ec565b606091505b50915091506139fc828286613a07565b979650505050505050565b60608315613a16575081613476565b825115613a265782518084602001fd5b816040517f08c379a0000000000000000000000000000000000000000000000000000000008152600401610ad29190614056565b803573ffffffffffffffffffffffffffffffffffffffff81168114613a7e57600080fd5b919050565b600082601f830112613a9457600080fd5b8135602067ffffffffffffffff80831115613ab157613ab161424c565b8260051b6040517fffffffffffffffffffffffffffffffffffffffffffffffffffffffffffffffe0603f83011681018181108482111715613af457613af461424c565b60405284815283810192508684018288018501891015613b1357600080fd5b600092505b85831015613b36578035845292840192600192909201918401613b18565b50979650505050505050565b803561ffff81168114613a7e57600080fd5b803565ffffffffffff81168114613a7e57600080fd5b600060208284031215613b7c57600080fd5b61347682613a5a565b60008060408385031215613b9857600080fd5b613ba183613a5a565b9150613baf60208401613a5a565b90509250929050565b600080600080600080600080610100898b031215613bd557600080fd5b613bde89613a5a565b9750613bec60208a01613a5a565b9650613bfa60408a01613a5a565b9550613c0860608a01613b54565b945060808901359350613c1d60a08a01613b42565b9250613c2b60c08a01613b42565b915060e0890135613c3b8161427b565b809150509295985092959890939650565b6000806000806000806000806000806000806101808d8f031215613c6f57600080fd5b613c788d613a5a565b9b50613c8660208e01613a5a565b9a50613c9460408e01613a5a565b9950613ca260608e01613b54565b985060808d01359750613cb760a08e01613b42565b9650613cc560c08e01613b42565b955060e08d0135613cd58161427b565b94506101008d013593506101208d013560ff81168114613cf457600080fd5b809350506101408d013591506101608d013590509295989b509295989b509295989b565b60008060408385031215613d2b57600080fd5b613d3483613a5a565b946020939093013593505050565b600060208284031215613d5457600080fd5b813567ffffffffffffffff811115613d6b57600080fd5b61387f84828501613a83565b60008060408385031215613d8a57600080fd5b823567ffffffffffffffff80821115613da257600080fd5b613dae86838701613a83565b93506020850135915080821115613dc457600080fd5b50613dd185828601613a83565b9150509250929050565b600060208284031215613ded57600080fd5b81516134768161427b565b600060208284031215613e0a57600080fd5b5035919050565b600060208284031215613e2357600080fd5b5051919050565b600080600060608486031215613e3f57600080fd5b83359250613e4f60208501613b42565b9150613e5d60408501613b42565b90509250925092565b8051825260208101516020830152604081015161291c604084018273ffffffffffffffffffffffffffffffffffffffff8082511683528060208301511660208401525065ffffffffffff6040820151166040830152606081015161ffff8082166060850152806080840151166080850152505060a081015160a083015260c081015160c083015260e081015160e08301525050565b60008251613f0d818460208701614189565b9190910192915050565b6020808252825182820181905260009190848201906040850190845b81811015613f5a57613f46838551613e66565b928401926101409290920191600101613f33565b50909695505050505050565b6020808252825182820181905260009190848201906040850190845b81811015613f5a5761400a83855173ffffffffffffffffffffffffffffffffffffffff8082511683528060208301511660208401525065ffffffffffff6040820151166040830152606081015161ffff8082166060850152806080840151166080850152505060a081015160a083015260c081015160c083015260e081015160e08301525050565b928401926101009290920191600101613f82565b6020808252825182820181905260009190848201906040850190845b81811015613f5a5783518352928401929184019160010161403a565b6020815260008251806020840152614075816040850160208701614189565b601f017fffffffffffffffffffffffffffffffffffffffffffffffffffffffffffffffe0169190910160400192915050565b61014081016140b68284613e66565b92915050565b600061ffff8083168185168083038211156140d9576140d96141ee565b01949350505050565b600082198211156140f5576140f56141ee565b500190565b600082614130577f4e487b7100000000000000000000000000000000000000000000000000000000600052601260045260246000fd5b500490565b6000817fffffffffffffffffffffffffffffffffffffffffffffffffffffffffffffffff048311821515161561416d5761416d6141ee565b500290565b600082821015614184576141846141ee565b500390565b60005b838110156141a457818101518382015260200161418c565b838111156137085750506000910152565b60007fffffffffffffffffffffffffffffffffffffffffffffffffffffffffffffffff8214156141e7576141e76141ee565b5060010190565b7f4e487b7100000000000000000000000000000000000000000000000000000000600052601160045260246000fd5b7f4e487b7100000000000000000000000000000000000000000000000000000000600052603260045260246000fd5b7f4e487b7100000000000000000000000000000000000000000000000000000000600052604160045260246000fd5b801515811461428957600080fd5b5056fe5661756c743a3a657874656e644c6f636b3a2076657374696e67206d617820646179732065786365656465645661756c743a3a657874656e644c6f636b3a20636c696666206d61782064617973206578636565646564a26469706673582212209fc7d174a2ca0eabc1cb5176ed12588811beb2446c18a4b56dcb52b5d227639b64736f6c63430008060033",
  "devdoc": {
    "details": "Contract for locking up tokens for set periods of time  + optionally providing locked tokens with voting power",
    "kind": "dev",
    "methods": {
      "activeLockBalances(address)": {
        "params": {
          "receiver": "The address that has locked balances"
        },
        "returns": {
          "_0": "the active lock balances"
        }
      },
      "activeLockIds(address)": {
        "params": {
          "receiver": "The address that has locked balances"
        },
        "returns": {
          "_0": "the active lock ids"
        }
      },
      "activeLocks(address)": {
        "params": {
          "receiver": "The address that has locked balances"
        },
        "returns": {
          "_0": "the locks"
        }
      },
      "allActiveLockBalances()": {
        "returns": {
          "_0": "the active lock balances"
        }
      },
      "allActiveLockIds()": {
        "returns": {
          "_0": "the lock ids"
        }
      },
      "allActiveLocks()": {
        "returns": {
          "_0": "the locks"
        }
      },
      "allLocks(address)": {
        "params": {
          "receiver": "The address that has locked balances"
        },
        "returns": {
          "_0": "the locks"
        }
      },
      "claimAllUnlockedTokens(uint256[])": {
        "details": "Errors if no tokens are claimableIt is advised receivers check they are entitled to claim via `claimableBalance` before calling this",
        "params": {
          "locks": "The lock ids for unlocked token balances"
        }
      },
      "claimUnlockedTokenAmounts(uint256[],uint256[])": {
        "details": "Errors if token amounts provided are > claimable amountsIt is advised receivers check they are entitled to claim via `claimableBalance` before calling this",
        "params": {
          "amounts": "The amount of each unlocked token to claim",
          "locks": "The lock ids for unlocked token balances"
        }
      },
      "claimableBalance(uint256)": {
        "details": "Returns 0 if cliff duration has not ended",
        "params": {
          "lockId": "The lock ID"
        },
        "returns": {
          "_0": "The amount that can be claimed"
        }
      },
      "constructor": {
        "params": {
          "_lockManager": "LockManager contract address"
        }
      },
      "extendLock(uint256,uint16,uint16)": {
        "params": {
          "cliffDaysToAdd": "The number of days to add to cliff duration",
          "lockId": "The lock id for a locked token balance",
          "vestingDaysToAdd": "The number of days to add to vesting duration"
        }
      },
      "lockBalance(uint256)": {
        "params": {
          "lockId": "The lock ID"
        },
        "returns": {
          "balance": "the lock balance"
        }
      },
      "lockTokens(address,address,address,uint48,uint256,uint16,uint16,bool)": {
        "params": {
          "amount": "The amount of tokens being locked",
          "cliffDurationInDays": "The cliff duration in days",
          "grantVotingPower": "if true, give user voting power from tokens",
          "locker": "The account that is locking tokens",
          "receiver": "The account that will be able to retrieve unlocked tokens",
          "startTime": "The unix timestamp when the lock period will start",
          "vestingDurationInDays": "The vesting period in days"
        }
      },
      "lockTokensWithPermit(address,address,address,uint48,uint256,uint16,uint16,bool,uint256,uint8,bytes32,bytes32)": {
        "details": "It is up to the frontend developer to ensure the token implements permit - otherwise this will fail",
        "params": {
          "amount": "The amount of tokens being locked",
          "cliffDurationInDays": "The lock cliff duration in days",
          "deadline": "The time at which to expire the signature",
          "grantVotingPower": "if true, give user voting power from tokens",
          "locker": "The account that is locking tokens",
          "r": "Half of the ECDSA signature pair",
          "receiver": "The account that will be able to retrieve unlocked tokens",
          "s": "Half of the ECDSA signature pair",
          "startTime": "The unix timestamp when the lock period will start",
          "token": "Address of token to lock",
          "v": "The recovery byte of the signature",
          "vestingDurationInDays": "The lock period in days"
        }
      },
      "tokenBalance(address,address)": {
        "params": {
          "receiver": "The address that has unlocked balances",
          "token": "The token to check"
        },
        "returns": {
          "balance": "the total active balance of `token` for `receiver`"
        }
      },
      "totalTokenBalance(address)": {
        "params": {
          "token": "The token to check"
        },
        "returns": {
          "balance": "the total active balance of `token`"
        }
      }
    },
    "stateVariables": {
      "SECONDS_PER_DAY": {
        "details": "Used to translate lock periods specified in days to seconds"
      }
    },
    "title": "Vault",
    "version": 1
  },
  "userdoc": {
    "events": {
      "LockCreated(address,address,address,uint256,uint256,uint48,uint16,uint16,uint256)": {
        "notice": "Event emitted when a new lock is created"
      },
      "LockExtended(uint256,uint16,uint16,uint16,uint16,uint48)": {
        "notice": "Event emitted when lock duration extended"
      },
      "UnlockedTokensClaimed(address,address,uint256,uint256,uint256)": {
        "notice": "Event emitted when tokens are claimed by a receiver from an unlocked balance"
      }
    },
    "kind": "user",
    "methods": {
      "activeLockBalances(address)": {
        "notice": "Get all active token lock balances for receiver"
      },
      "activeLockIds(address)": {
        "notice": "Get all active token lock ids for receiver"
      },
      "activeLocks(address)": {
        "notice": "Get all active token locks for receiver"
      },
      "allActiveLockBalances()": {
        "notice": "Get all active token lock balances"
      },
      "allActiveLockIds()": {
        "notice": "Get all active token lock ids"
      },
      "allActiveLocks()": {
        "notice": "Get all active token locks"
      },
      "allLocks(address)": {
        "notice": "Get all token locks for receiver"
      },
      "claimAllUnlockedTokens(uint256[])": {
        "notice": "Allows receiver to claim all of their unlocked tokens for a set of locks"
      },
      "claimUnlockedTokenAmounts(uint256[],uint256[])": {
        "notice": "Allows receiver to claim a portion of their unlocked tokens for a given lock"
      },
      "claimableBalance(uint256)": {
        "notice": "Get claimable balance for a given lock id"
      },
      "constructor": {
        "notice": "Create a new Vault contract"
      },
      "extendLock(uint256,uint16,uint16)": {
        "notice": "Allows receiver extend lock periods for a given lock"
      },
      "lockBalance(uint256)": {
        "notice": "Get lock balance for a given lock id"
      },
      "lockIds(address,uint256)": {
        "notice": "Mapping of address to lock id"
      },
      "lockManager()": {
        "notice": "lockManager contract"
      },
      "lockTokens(address,address,address,uint48,uint256,uint16,uint16,bool)": {
        "notice": "Lock tokens, optionally providing voting power"
      },
      "lockTokensWithPermit(address,address,address,uint48,uint256,uint16,uint16,bool,uint256,uint8,bytes32,bytes32)": {
        "notice": "Lock tokens, using permit for approval"
      },
      "numLocks()": {
        "notice": "Number of locks"
      },
      "tokenBalance(address,address)": {
        "notice": "Get token balance of receiver"
      },
      "tokenLocks(uint256)": {
        "notice": "Mapping of lock id > token locks"
      },
      "totalTokenBalance(address)": {
        "notice": "Get total token balance"
      }
    },
    "version": 1
  },
  "storageLayout": {
    "storage": [
      {
        "astId": 6460,
        "contract": "contracts/Vault.sol:Vault",
        "label": "tokenLocks",
        "offset": 0,
        "slot": "0",
        "type": "t_mapping(t_uint256,t_struct(Lock)6433_storage)"
      },
      {
        "astId": 6466,
        "contract": "contracts/Vault.sol:Vault",
        "label": "lockIds",
        "offset": 0,
        "slot": "1",
        "type": "t_mapping(t_address,t_array(t_uint256)dyn_storage)"
      },
      {
        "astId": 6469,
        "contract": "contracts/Vault.sol:Vault",
        "label": "numLocks",
        "offset": 0,
        "slot": "2",
        "type": "t_uint256"
      }
    ],
    "types": {
      "t_address": {
        "encoding": "inplace",
        "label": "address",
        "numberOfBytes": "20"
      },
      "t_array(t_uint256)dyn_storage": {
        "base": "t_uint256",
        "encoding": "dynamic_array",
        "label": "uint256[]",
        "numberOfBytes": "32"
      },
      "t_mapping(t_address,t_array(t_uint256)dyn_storage)": {
        "encoding": "mapping",
        "key": "t_address",
        "label": "mapping(address => uint256[])",
        "numberOfBytes": "32",
        "value": "t_array(t_uint256)dyn_storage"
      },
      "t_mapping(t_uint256,t_struct(Lock)6433_storage)": {
        "encoding": "mapping",
        "key": "t_uint256",
        "label": "mapping(uint256 => struct Vault.Lock)",
        "numberOfBytes": "32",
        "value": "t_struct(Lock)6433_storage"
      },
      "t_struct(Lock)6433_storage": {
        "encoding": "inplace",
        "label": "struct Vault.Lock",
        "members": [
          {
            "astId": 6418,
            "contract": "contracts/Vault.sol:Vault",
            "label": "token",
            "offset": 0,
            "slot": "0",
            "type": "t_address"
          },
          {
            "astId": 6420,
            "contract": "contracts/Vault.sol:Vault",
            "label": "receiver",
            "offset": 0,
            "slot": "1",
            "type": "t_address"
          },
          {
            "astId": 6422,
            "contract": "contracts/Vault.sol:Vault",
            "label": "startTime",
            "offset": 20,
            "slot": "1",
            "type": "t_uint48"
          },
          {
            "astId": 6424,
            "contract": "contracts/Vault.sol:Vault",
            "label": "vestingDurationInDays",
            "offset": 26,
            "slot": "1",
            "type": "t_uint16"
          },
          {
            "astId": 6426,
            "contract": "contracts/Vault.sol:Vault",
            "label": "cliffDurationInDays",
            "offset": 28,
            "slot": "1",
            "type": "t_uint16"
          },
          {
            "astId": 6428,
            "contract": "contracts/Vault.sol:Vault",
            "label": "amount",
            "offset": 0,
            "slot": "2",
            "type": "t_uint256"
          },
          {
            "astId": 6430,
            "contract": "contracts/Vault.sol:Vault",
            "label": "amountClaimed",
            "offset": 0,
            "slot": "3",
            "type": "t_uint256"
          },
          {
            "astId": 6432,
            "contract": "contracts/Vault.sol:Vault",
            "label": "votingPower",
            "offset": 0,
            "slot": "4",
            "type": "t_uint256"
          }
        ],
        "numberOfBytes": "160"
      },
      "t_uint16": {
        "encoding": "inplace",
        "label": "uint16",
        "numberOfBytes": "2"
      },
      "t_uint256": {
        "encoding": "inplace",
        "label": "uint256",
        "numberOfBytes": "32"
      },
      "t_uint48": {
        "encoding": "inplace",
        "label": "uint48",
        "numberOfBytes": "6"
      }
    }
  }
}